:1000000097C50000B2C50000B0C500000C94902751
:10001000ACC50000AAC50000A8C50000A6C5000028
:10002000A4C50000A2C500000C94582C0C94252DEA
:100030000C94F6249AC5000098C5000096C50000EF
:1000400094C5000092C5000090C500008EC5000058
:100050008CC500000C946D2588C5000086C5000085
:1000600084C5000082C5000080C500007EC5000078
:100070007CC500007AC5000078C5000076C5000088
:1000800074C5000072C5000070C500006EC5000098
:100090006CC500006AC5000068C5000066C50000A8
:1000A00064C5000062C5000060C5000080818283D5
:1000B0008485868788898A8B8C8D8E8F9091929388
:1000C00094A0A1A2A3A4A5A6A7A8A9AAABACADAED3
:1000D000AFB0B1B2B3B4C0C1C2C3C4C5C6C7C8C94A
:1000E000CACBCCCDCECFD0D1D2D3D40020202020AB
:1000F0000053435220002020202000434150200084
:1001000020202020004E554D2000556E6465666904
:100110006E65640041444A5553540A0052414953A4
:10012000450A004C4F5745520A0044656661756C9C
:10013000740A004C617965723A2000290014001A93
:10014000000800150017000000E00004001600077A
:100150000009000A000000427E1D001B0006001975
:100160000005000000E100000000002C00407EE3DC
:100170000000002A00130012000C0018001C0000F0
:1001800000340033000F000E000D000B00000031A2
:1001900000380037003600100011000000E50000B4
:1001A0000000002800417EE200000001001E001F48
:1001B00000200021002200000001004A00500052EF
:1001C000004F004B00000001004D00460051004967
:1001D000004E0000000100000000000100010001CD
:1001E0000000000100270026002500240023000055
:1001F000003F003E003D003C003B003A000000454F
:1002000000440043004200410040000000010000A3
:10021000000000010001000100000001001E021F9B
:1002200002200221022202000001003000360225D5
:100230000233002F0000000100310037022602893E
:10024000002D02000001000000000001000100017B
:100250000000000100570056005500540023020022
:10026000002E002200210020001F001E0000005868
:1002700000270026002500240023000000010000C4
:1002800000000001000100010000000100437E2089
:100290007800000000000000000100237825782786
:1002A0007814700000000001002478267828781562
:1002B00070000000000100000000000100010001CA
:1002C000000000000000000000000000000000002E
:1002D000000000000000000000000000000000001E
:1002E000000000000000000000000000000100000D
:1002F00000000001000100010000001E0F050004C5
:100300007F3F1F643214643214783C1E1E140A05A9
:100310002223252628292A2C2D2F30323335363812
:100320003A3B3D3E4042434547494A4C4E5051536B
:100330005557595A5C5E6062646668696B6D6F718F
:10034000737577797B7D7F81838587898A8C8E9091
:10035000929496989A9C9E9FA1A3A5A7A8AAACAE9A
:10036000AFB1B3B4B6B8B9BBBCBEBFC1C2C3C5C6DA
:10037000C7C9CACBCCCDCED0D1D2D2D3D4D5D6D783
:10038000D7D8D9D9DADADBDBDBDCDCDCDCDCDDDDC1
:10039000DDDDDCDCDCDCDCDBDBDBDADAD9D9D8D7B1
:1003A000D7D6D5D4D3D2D2D1D0CECDCCCBCAC9C753
:1003B000C6C5C3C2C1BFBEBCBBB9B8B6B4B3B1AF8A
:1003C000AEACAAA8A7A5A3A19F9E9C9A989694922A
:1003D000908E8C8A89878583817F7D7B7977757301
:1003E000716F6D6B6968666462605E5C5A595755DF
:1003F0005351504E4C4A4947454342403E3D3B3A9B
:100400003836353332302F2D2C2A29282625232221
:10041000FFAA7F5540000101010101010101010214
:1004200002020202020202020303030303030303A4
:10043000040404040404040505050505060606066F
:1004400006070707070708080808090909090A0A2B
:100450000A0B0B0B0C0C0C0D0D0D0E0E0E0F0F0FCF
:10046000101011111112121313141415151616175A
:1004700017181819191A1A1B1B1C1D1D1E1E1F20C8
:1004800020212222232424252626272829292A2B15
:100490002C2D2D2E2F30313232333435363738393A
:1004A0003A3B3C3D3E3F4041424344454647484934
:1004B0004A4C4D4E4F50515354555658595A5B5D06
:1004C0005E5F616264656668696B6C6D6F707273A4
:1004D0007577787A7B7D7E8082838587888A8C8E0B
:1004E0008F91939596989A9C9EA0A2A3A5A7A9AB3D
:1004F000ADAFB1B3B5B7BABCBEC0C2C4C6C9CBCD2F
:10050000CFD1D4D6D8DBDDDFE2E4E7E9EBEEF0F3E0
:10051000F5F8FAFDFF00AE00AF00DA0281FFD9F175
:10052000DB20A4A62EAF00A0C0D30000A1C8D3003A
:1005300000AED580A81F408D1420000000000000F0
:10054000003E5B4F5B3E003E6B4F6B3E001C3E7CB3
:100550003E1C00183C7E3C18001C577D571C001C9C
:100560005E7F5E1C0000183C180000FFE7C3E7FF39
:1005700000001824180000FFE7DBE7FF0030483ACE
:10058000060E00262979292600407F050507004030
:100590007F05253F005A3CE73C5A007F3E1C1C0863
:1005A00000081C1C3E7F0014227F2214005F5F00A5
:1005B0005F5F0006097F017F00006689956A006021
:1005C000606060600094A2FFA2940008047E0408AA
:1005D0000010207E20100008082A1C0800081C2A91
:1005E0000808001E10101010000C1E0C1E0C00300D
:1005F000383E383000060E3E0E06000000000000B7
:100600000000005F000000000700070000147F14D6
:100610007F1400242A7F2A12002313086462003604
:100620004956205000000807030000001C2241002A
:10063000000041221C00002A1C7F1C2A0008083EE2
:100640000808000080703000000808080808000052
:1006500000606000002010080402003E5149453E41
:100660000000427F4000007249494946002141494B
:100670004D33001814127F10002745454539003CC2
:100680004A49493100412111090700364949493693
:1006900000464949291E00000014000000004034B3
:1006A0000000000008142241001414141414000067
:1006B00041221408000201590906003E415D594ECD
:1006C000007C1211127C007F49494936003E4141AD
:1006D0004122007F4141413E007F49494941007F1D
:1006E00009090901003E41415173007F0808087F54
:1006F0000000417F4100002040413F01007F08147D
:100700002241007F40404040007F021C027F007F6A
:100710000408107F003E4141413E007F090909065F
:10072000003E4151215E007F0919294600264949B2
:1007300049320003017F0103003F4040403F001F5A
:100740002040201F003F4038403F006314081463DE
:10075000000304780403006159494D4300007F41C0
:10076000414100020408102000004141417F000483
:10077000020102040040404040400000030708001E
:10078000002054547840007F2844443800384444C2
:10079000442800384444287F00385454541800003A
:1007A000087E0902001824241C78007F08040478BD
:1007B0000000447D4000002040403D00007F1028A4
:1007C00044000000417F4000007C04780478007CF5
:1007D00008040478003844444438007C1824241861
:1007E00000182424187C007C080404080048545491
:1007F00054240004043F4424003C4040207C001C5E
:100800002040201C003C4030403C0044281028443C
:10081000004C9090907C004464544C440000083696
:10082000410000000077000000004136080000028F
:1008300001020402003C2623263C0000000000E0E8
:10084000F0F8F800F8F8F0E0000080808080000008
:100850008080000000000080800080800000000098
:10086000FFFFFFFF008080000000009C9F9F9C0016
:1008700000000080800080800000000000808080F8
:1008800000808000000000000000000080808000E8
:100890000080800000000000000000000000806078
:1008A0001807008080808080808080000000000029
:1008B000000000000000000000E0F0F0F0E0ECEECE
:1008C000F7F37020007C7C7C7E007E7E7E7F7F7FC5
:1008D000000080C0E07E5B4F5BFEC00000C000DC1B
:1008E000D7DEDEDED7DC00C0000000000000000024
:1008F000000000000000000000000000000000FFF9
:10090000FFFFFF20FFFFFFFF0000FFFFFFFF001FB3
:100910001F1F1F0000C6E7F7F700FFFFFFFE0000E4
:10092000FFFFFFFF00FFFFFFFF0000FFFFFFFF00D3
:1009300000FEFFFFFF009F9F9F9E0000E7F7F7F775
:1009400000FFFFFFFE000000000000000707070394
:10095000007F7F3F1E0000000000C0300C0201003D
:100960000000000707070707F7F3F3000000000087
:100970000000000000000000000F1F3F7F7F7F7F0E
:100980007F3F1E0C001F1F1F3F003F3F3F7F7F7FA9
:1009900000307B7F7830202030787F3B0003000FD1
:1009A0007F0F0F0F7F0F000300000000000000000A
:1009B0000000000000000000000000000000001F18
:1009C0001F1F1F001F1F1F1F00001F1F1F1F0000D2
:1009D0000000000000070F0F1F001F1F0F0700007F
:1009E000070F0F1F001F1F0F0700001F1F1F1F00F3
:1009F00000070F1F1F001F0F0F070000070F1F1F0B
:100A0000001F0F0F0300000000000000E0F0F0E006
:100A100000FFFEFE380060100C0300000000000024
:100A20000000000000000000FFFF7F000000000049
:100A300000000000000000000000000000000000B6
:100A400000000000000000000000000000000000A6
:100A50000000000000000000000000000000000096
:100A60000000000000000000000000000000000086
:100A700000000000000000000000001603410072AA
:100A8000006100620069006300610033002F0037DD
:100A90000000001E03430061006C006300690075E4
:100AA000006D004E0069007400720069006400650A
:100AB0000000000403090409022200010100A0FA59
:100AC00009040000010301010009211101000122B4
:100AD0004400070581030800011201000200000024
:100AE00008EDFE603001000102000105010906A1C8
:100AF00001050719E029E715002501950875018111
:100B0000029501750881010507190029FF150026C6
:100B1000FF009506750881000508190129051500D3
:100B20002501950575019102950175039101C0009C
:100B300011241FBECFEFDAE0DEBFCDBF11E0A0E091
:100B4000B1E0E2EFF1E602C005900D92A839B107DD
:100B5000D9F726E0A8E9B1E001C01D92A137B2079C
:100B6000E1F70E9490170C94AD304ACA0E94D31846
:100B700090E09093A1038093A0030895CF93FB018D
:100B8000C5818134FEE79F0749F148F48032E8E7E8
:100B90009E07A9F180349E47B9F0C1E026C0823497
:100BA0002EE7920729F183349E47B9F7CC23A9F3A6
:100BB0000E94C0180E94BC1D0E94D31890E0909320
:100BC000A1038093A00311C081E0CC2349F0F7D4A6
:100BD00043E062E081E027D6C0E007C082E0F5CFC5
:100BE000FCD443E062E081E01ED68C2FCF910895C3
:100BF00083E0CC2311F0E3D4EFCFEFD4F6CFCC23B6
:100C0000A1F38091A0030E94BA1D0E94AC1D0E9416
:100C1000D31890E09093A1038093A003DDCFCF93EE
:100C2000C82F0E945315811101C0C2E08C2FCF91B3
:100C30000895CF930E94531560E0882309F449C0BA
:100C400083E391E00E945B208091BC019091BD0103
:100C500075D1813091F1882351F0823091F1833048
:100C6000A1F160E08AE091E00E946C2005C060E0A4
:100C70008AE291E00E945B200E94E923C82F80E075
:100C800091E0C0FF02C085E091E060E00E945B203F
:100C900086EF90E0C1FF02C08BEF90E060E00E9421
:100CA0005B208CEE90E0C2FF02C081EF90E060E03C
:100CB0000E945B2080E0CF91089560E083E291E0A4
:100CC000D9CF60E08CE191E0D5CF60E084E191E0A4
:100CD000D1CF8CEA90E0ECCF8430B8F46830A8F43F
:100CE000473098F450E097E0699F400D511D112462
:100CF000FA0198E3899FE00DF11D1124EE0FFF1F0B
:100D0000E55CFE4F85919491089581E090E008950F
:100D1000E3CF089581E00895FDCF0895FBCF0895B6
:100D200081E00895F7CF089529CF08950895089593
:100D3000FDCF089508950895A6E0B0E0E2EAF6E058
:100D40000C94722F49835A839E8330919F0189812D
:100D50009A81311117C03E81332389F0222379F023
:100D6000E5D4182F682F89819A81BFD469817A814F
:100D7000812F0E949F112696E3E00C948E2FC6D4FB
:100D8000182FF4CFD3D469817A81F3CFFC01262FB9
:100D9000408151816281738184819581CDCFCF93D0
:100DA000DF93EC0161E0F2DFBE01B6DF882349F09A
:100DB00061E0CE01EBDFBE01B1DF8170DF91CF9149
:100DC000089580E0FACF0F931F93CF93DF93EC0148
:100DD00060E0DCDF8C01BE01AADFBE01C801A8DF34
:100DE000DF91CF911F910F91089521E030E0A9018B
:100DF00002C0440F551F8A95E2F7CA01AFC3CF93D3
:100E0000C82F81E090E00C2E02C0880F991F0A9431
:100E1000E2F70E94BF0F8C2FE8DFCF91089581E0A9
:100E20000895FDCF0895FBCF0895CF93C82F4ED3DB
:100E30008C2FF7DF8C2FF7DF2FEF84E39CE021501E
:100E400080409040E1F700C00000CF91089581E01C
:100E5000ECDF0C94912580E0E8DF0C94A2250F9341
:100E60001F93CF93DF938C0161E090DFEC01F801D9
:100E7000858181110E94F31EB801CE0153DF8111DB
:100E800006C080E0DF91CF911F910F910895B801C6
:100E9000CE014ADF8823A9F3B801CE010E948B233B
:100EA000882379F3B801CE010E945122882349F3A7
:100EB000B801CE010E942922882319F3B801CE017E
:100EC0000E94A6178823E9F2B801CE010E94E5121C
:100ED0008823B9F2F8018581882361F0C330FCE7EB
:100EE000DF07D1F050F4C115ECE7DE0799F0C1300F
:100EF000DC47A1F0C80114DFC5CFCB358CE7D8079C
:100F000089F0CC35ECE7DE0759F0CA35DC4791F7BC
:100F1000FDD7F0CF9CDFB5CF0E94B70F9CDFB1CFDC
:100F2000EDD7E8CFF5D7E6CF05DF0E94BE243DD050
:100F30000C9484213CD0FFDE0C94C224292F33274B
:100F400040E02115310511F0C90148E09C0164E041
:100F5000369527956A95E1F72115310511F04C5F1B
:100F6000C9019C01369527953695279521153105A0
:100F700011F04E5FC90196958795892B09F04F5F57
:100F8000842F089581E008950895CF93DF93D82F9B
:100F9000F9DFC82F882311F08D2FF6DF8C2FDF911A
:100FA000CF9108950895F1CF089580E0FCCF0E947D
:100FB000D323F9CFCF930E94D323C82F80919A01D6
:100FC0008C1771F0C0939A010E94612560939B0178
:100FD00070939C0180939D0190939E018C2FE3DF81
:100FE000CF910895ADE0B0E0E8EFF7E00C94732FF7
:100FF000488759876A877B878C879D879111D4D6CC
:101000001F8286E0FE013896DE01119601900D9256
:101010008A95E1F78D8181110CC029813A814B813C
:101020005C816D817E818F810FD62D96E2E00C94DC
:101030008F2FCE010196B3DE8111EFCFF6CFFC01E9
:101040002481213019F480819181A1C30895CF9327
:10105000C82F882389F08CEF8C0F813A78F48C2F7D
:101060000E940D24882321F08C2F0E944E2404D747
:101070008C2F0E94482400D7CF91089580E28C0FD6
:101080008830D0F7C77081E001C0880FCA95EAF7B1
:101090006ED6F1CF882339F09CEF980F913A20F467
:1010A0000E944E24E9C6089590E2980F9830D8F730
:1010B000877091E001C0990F8A95EAF7892F5DD674
:1010C000F1CF1F93CF93DF93182FEB01C0DF209751
:1010D00031F4812FDFDFDF91CF911F9108958FE9E8
:1010E0009FE00197F1F700C000002197F0CF70E07A
:1010F00060E0893311F460E570E0E3CF882311F0FC
:1011000036D6BAC60895882311F037D6B5C60895E5
:10111000B0E0A0E0EEE8F8E00C946C2F6C01D62F64
:10112000C72FFC011581068102950F7016D6E82E97
:101130008823E9F0E12E1123D1F08C2F807F8034B9
:1011400061F080E28D0F8830F8F08C2F807E803245
:1011500021F4D230C8F00023B9F08091A30382FFBC
:1011600013C082E0A5D6F9D591E0E82EE926BC2E81
:10117000B2949FE0B922FBE0FB1580F1EB2DF0E08B
:10118000E155FF4C0C94322FE12CF1CF0C2F0F7056
:10119000C07F11F00295007F112381F0002349F0F8
:1011A00080E28D0F883010F0D11105C0802FDFD57F
:1011B00063D68D2F40C0802FEAD5FACF8D2F6ADFFE
:1011C000002361F080E28D0F883010F0D11103C050
:1011D000802FD3D502C0802FE0D54ED6EB2DE8501E
:1011E000FF0B349708F02CC10E94D323DCDECDB76F
:1011F000DEB7E9E00C94882F2C2F2F70F22EC07FE1
:10120000C03219F0F29480EFF822DD2341F0D130A2
:1012100081F1112309F439C00023C9F0CACF8091AC
:10122000A30382FD10C0112341F0FF2019F08F2D80
:101230009ED522D680E00BDFD1CF80E02BDFFF20D0
:1012400069F28F2DC6CF112359F0011103C08F2DE4
:1012500055DFC4CF013009F0C1CF8F2DB9D5BECF36
:101260000111BCCF8F2D4FDF8F2DBDD58F2DA2D576
:10127000B5CF112321F0063008F0B0CFE8CF05300C
:1012800008F0ACCF8F2D3FDFA9CF0023D9F3D9339E
:1012900049F43FEF87EE93E0315080409040E1F712
:1012A00000C000008D2FF6DE99CF8C2F837081F562
:1012B000111194CF4D2F429546954770440F440F1E
:1012C0002D2F2F7030E0042E02C0220F331F0A94FE
:1012D000E2F790E080E0D4FF09C08FE090E002C028
:1012E000880F991F4A95E2F780959095C695C69507
:1012F000C370822B932BC23039F040F4C13011F00F
:1013000036D16CCF2DD16ACF39D168CF27D166CFF6
:101310008695112311F08C2F8170882309F45ECFFC
:101320004D2F429546954770440F440F2D2F2F7037
:1013300030E0042E02C0220F331F0A94E2F790E03F
:1013400080E0D4FF09C08FE090E002C0880F991FB1
:101350004A95E2F780959095C695C695C370822B05
:10136000932BC23039F040F4C13011F05BD136CF4D
:1013700052D134CF5ED132CF0ED130CFCF701123C6
:1013800021F08C2F1CD18D2F63CF8D2FBCDE8C2FA5
:1013900024D124CFD23F39F160F4D03FB9F0D13F0E
:1013A00081F0112309F43CC0011103CF8C2F8F7100
:1013B0001EC0D33FF1F0D43FA1F78091A30382FD7B
:1013C00020C08C2F8F71112319F311C0112339F014
:1013D000053008F003CF8C2F8F710FD1FFCE063070
:1013E00008F0FCCEF8CF8C2F8F711111D1CFE7D040
:1013F000F5CE112321F08C2F8F71D7D0EFCED2D024
:10140000EDCE112329F063E08C2F8F713AD5E6CE13
:1014100081E04ED5023008F4E1CE82E049D5DECE3F
:10142000002359F0D93309F03DCFEFEFF7EE23E079
:10143000E150F0402040E1F733CF8C2F8F71A8CFDF
:10144000EE2009F4D4CE85D480FDD1CEF6011582EC
:101450007AD4B5D0C60117D076D4BFD0C8CE0F93FA
:101460001F93CF93DF93EC01688179818D8198D1AF
:101470008C01E6D072D0B801CE014ADEDF91CF9167
:101480001F910F910895CF93DF93EC018C818823F6
:1014900081F0CE01E4DC81110FC05FD4882349F0D4
:1014A0008D81882331F08091A30382FF02C082E006
:1014B000FFD4DF91CF910895CE01D1DFCE0183DC3F
:1014C000F8CF72D4D9C40E945424FBCF5DD4FBCF93
:1014D00092959F70963091F058F4925F9F70923081
:1014E00058F4803F19F030F4883E30F481E00895DC
:1014F0009A5FF4CF843FD1F380E00895883EB0F343
:10150000813FD1F7F3CFFC012481222321F0808198
:1015100091813DD1DDCF80E00895A6E0B0E0E3E920
:10152000FAE00C94732F2696E2E00C948F2FA7E03C
:10153000B0E0EDE9FAE00C94732F2796E2E00C940A
:101540008F2F0895FECF0895FDCF0895FADFFCDFB9
:101550009093BF018093BE0108950895F7CF089539
:101560002091BE013091BF01822B932BEFCF2091B0
:10157000BE013091BF0182239323E8CF2091BE01A9
:101580003091BF0182279327E1CFDBCF0895FDCFB4
:101590000895D7CF0895FDDFFADF9093BD018093C2
:1015A000BC01089590E080E0F6CF21E030E0A90191
:1015B00002C0440F551F8A95E2F7CA01ECCF21E023
:1015C00030E002C0220F331F8A95E2F78091BC0100
:1015D0009091BD01822B932BDECF21E030E002C041
:1015E000220F331F8A95E2F7209530958091BC0138
:1015F0009091BD0182239323CECF21E030E002C041
:10160000220F331F8A95E2F78091BC019091BD01B2
:1016100082279327C0CF2091BC013091BD01822B3E
:10162000932BB9CF2091BC013091BD01822393232C
:10163000B2CF2091BC013091BD0182279327ABCF5F
:101640000895262F277091E001C0990F2A95EAF797
:1016500023E0769567952A95E1F7660F771F660F69
:10166000771FFA01E60FF71F50E040E0682F70E0A7
:101670008191DF0111979B01042E02C036952795B9
:101680000A94E2F7217021952827292328272C93F3
:101690004F5F5F4F4430510559F70895A82FA77049
:1016A00023E0969587952A95E1F7880F991F880F73
:1016B000991FFB01E80FF91F50E040E080E0219105
:1016C00030E00A2E02C0369527950A94E2F7217081
:1016D0003327042E01C0220F0A94EAF7822B4F5FB2
:1016E0005F4F4430510559F70895262F983068F41C
:1016F000873058F4682F70E087E0989F600D711D67
:10170000112440EA51E0822F9CCF0895292F983070
:1017100058F4873048F490E060EA71E037E0239FA6
:10172000800D911D1124BACF80E00895B0E0A0E0B3
:10173000ECE9FBE00C946C2F7C010091BC01109152
:10174000BD018091BE019091BF01082B192BCFE004
:10175000D0E0CC24C394D12CBC2EC6010C2E02C0E8
:10176000880F991F0A94E2F780239123892B49F46B
:10177000219790F7B12C8B2DCDB7DEB7E9E00C9413
:10178000882FB7018C2FE6D5019791F3F4CFCF9333
:10179000DF93EC01CBDFBE01DDD5DF91CF91089562
:1017A0001F93CF93DF93EB0190919F01992331F029
:1017B000CB01EDDFDF91CF911F910895882351F088
:1017C000CB01B4DF182F682FCE018FDFBE01812F30
:1017D000C1D5F0CFCB019ADF182FF8CFE1E0F0E0D0
:1017E000DF0102C0AA0FBB1F6A95E2F7BD01DF014E
:1017F00002C0AA0FBB1F4A95E2F7AD01462B572B3B
:1018000002C0EE0FFF1F2A95E2F79A012823392321
:101810002417350719F48E2B9F2B0895E095F0952A
:101820008E239F230895242F462F682F8091BC017B
:101830009091BD01D3DFAFCE1F93CF93DF93C091C3
:10184000C00117E08091C1018C1304C0DF91CF91DA
:101850001F910895D0E01C9FF0011D9FF00D1124F1
:10186000EE53FE4F20813181428153816481758125
:1018700086815DDE2196C770E5CF2091FA01309117
:10188000FB014091FC015091FD016091FE017091BE
:10189000FF01809100024BCECF93DF938091000235
:1018A000807F09F04BC08091FF01882309F446C076
:1018B000E091C0015091C101C091FB01D091FA01AA
:1018C0006091FC017091FD0147E05E17B9F18E2F28
:1018D00090E0E49FF0011124EE53FE4F2481222377
:1018E00081F1489FF001499FF00D1124DF01AE53B3
:1018F000BE4F11962C9111972C1323C02C912D13B0
:1019000020C015962C91159721111BC012962D9170
:101910003C91261B370B2A3A310598F4809100023E
:101920008F70806180930002E853FE4F80818F703A
:10193000806180838AEF91E0A6DD7EDFDF91CF9129
:101940000895FC013196E770C0CF482F2091C00167
:101950009091C10157E0291302C080E0089530E062
:10196000529FF001539FF00D1124EE53FE4F8181E1
:10197000681306C08081481303C085818111EECFB2
:101980002F5F3F4F2770E7CFA4E1B0E0EAECFCE027
:101990000C94692F8C0186E0F801DE011F960190FE
:1019A0000D928A95E1F7F8018481E5809AEFA92EDE
:1019B00091E0B92E9091FE0191111AC08823A9F0EF
:1019C000EE2089F0C8019FDDF82E882361F087E0C2
:1019D000F801D50101900D928A95E1F7C5012FDB41
:1019E0005BDF4BDF59C0C8014EDDFF24F39454C0C8
:1019F000C080D18082809380F090FF012091FC0113
:101A00003091FD01A401421B530BFF2009F4E9C0F2
:101A10004A3A510508F09CC0882309F43DC09091D2
:101A2000FB0180910002282F207F09F056C0D912B7
:101A300014C09091FA01C91210C0E11048C08F7013
:101A400080618093000219DF8AEF91E01CDD8091B4
:101A50000002F8018683F12C1FC0E11038C06D2D03
:101A60008C2D73DF6D2D8C2D70DFE82E8111F3CF5F
:101A7000CF86D88A8F8598898ADE292F22952F7064
:101A8000243078F49F702230A0F09923B1F0F8014F
:101A90009681907F91F4FE2C8F2D6496ECE00C944F
:101AA000852F2A5F2F70223060F0C801ECDCEF2C0C
:101AB000F2CF992311F0882371F3805E883058F3B8
:101AC000F4CF803F40F3815F833078F7E4CF80919B
:101AD0000002816080930002BECFD91212C09091A3
:101AE000FA01C9120EC0E1100CC08683C801CBDC1C
:101AF00087E0F801AAEFB1E001900D928A95E1F735
:101B000070CFC80100DD882309F46DCFEE2009F401
:101B10006ACF80910002803280F02091FA013091EA
:101B2000FB01398728879B868A869091FE019C87D6
:101B30001D868E87CE010896A6DC87E0F801AAEF05
:101B4000B1E001900D928A95E1F7A6DE96DE4DCFC9
:101B500090910002292F207F89F4682D9A8A898A22
:101B6000A6017A899E2DD9DC8AEF91E08CDC87E092
:101B7000F50111928A95E9F780DE6DCF882309F48B
:101B80008BCF8091FB018D110FC08091FA01C8129B
:101B90000BC0E11009C09683C80175DC87E0F50130
:101BA00011928A95E9F778CFC801ADDC882309F452
:101BB0001ACFEE2009F417CF80910002803208F48A
:101BC000BCCF2091FA013091FB013A8329839C829A
:101BD0008B829091FE019D831E828F83CE010196A0
:101BE000ABCF4A3A510518F5882309F4FECEFE2CF6
:101BF000EE2009F4F8CE8091FB018D110CC080918C
:101C0000FA01C81208C087E0AAEFB1E001900D9276
:101C10008A95E1F741CFC80176DC81118ECF8091A2
:101C20000002816080930002C8012DDC35CF682D51
:101C30009A8A898AA6017A899E2D6FDC87E0F50150
:101C400011928A95E9F7CDCEAEE0B0E0EAE2FEE08F
:101C50000C94722F288739874A875B876C877D872A
:101C60008E87CE01089690DE8823A9F06C856623C6
:101C700039F0288539854A855B857D858E8557DCD9
:101C800017E08091C0019091C10189133BC02E964D
:101C9000E3E00C948E2F87E0FE013896DE0111966A
:101CA00001900D928A95E1F78C85882349F3209164
:101CB000C10130E0C9010196877099274091C001A8
:101CC0004817190691F097E0929FD001939FB00DAD
:101CD0001124AE53BE4FFE01319601900D929A959C
:101CE000E1F78093C101A8DDCBCFF0DB1092C101F9
:101CF0001092C00187E0EAEFF1E0DF011D928A95C2
:101D0000E9F7BECF819FC00111248E539E4F3CDE68
:101D1000882309F4BCCFE091C0011E9FF00111247B
:101D2000EE53FE4F20813181428153816481758160
:101D30008681FDDB8091C00190E001968770992734
:101D40008093C0019ECF80910902869586958695E5
:101D50000895809109028770089590910902977003
:101D600081E009F480E00895809115020895909132
:101D70001502892B80931502089580959091150284
:101D8000982390931502089510921502089590914A
:101D90001402892B80931402089580959091140267
:101DA00098239093140208951092140208950895B0
:101DB000FECF089590910A02292F282329F08095BB
:101DC000892380930A02F4CF08950895FECF0895E1
:101DD00090910B02292F2823281721F0982B9093FC
:101DE0000B02F4CF089590910B02292F282329F09C
:101DF0008095892380930B02E9CF089580910B028F
:101E0000882321F010920B0280E0E0CF08950F9319
:101E10001F93CF93DF930091040110910501C091AE
:101E2000150280911402C82B80910B02882329F09F
:101E3000C82B0E94F8238111E1DFF801C083C09113
:101E40000401D091050148E050E061E072E0CE016C
:101E50000E943B30892B59F088E0FE01A1E0B2E0FE
:101E600001900D928A95E1F7CE010E94EB23DF915C
:101E7000CF911F910F910895CACF08950895FECF75
:101E800008959091A30392FF0EC098E0899F90015E
:101E90001124622B6093090292DB809109028695DE
:101EA00086958695ECCF8BCB1092090280E0E7CF28
:101EB000909109028095892380930902282F277029
:101EC00059F4891749F09091A30392FF05C08695B4
:101ED0008695869582DBE8CF08959091A30392FBC7
:101EE000222720F9281749F080FB92F99093A30349
:101EF00082EA93E048D082E0DBCF08958091A3038B
:101F000082FB882780F991E08927E7CF81E0E5CF40
:101F100080E0E3CF60E070E0CB0117C460E070E0E8
:101F2000CB010DD4F7CFA3E0B0E0E9E9FFE00C94DA
:101F3000732F5DD368D31B82CE0103967BD381E0E0
:101F400090E09093BF018093BE0180D31A821982E2
:101F50008A8184618A83CE01019689D30E94C01848
:101F6000DDDF2396E2E00C948F2FDDCF089551C37F
:101F700008953EC3089553C3089562C3089566C388
:101F8000089569C3089573C3089578C30895B7C3C6
:101F90000895E1C30895A6E0B0E0E1EDFFE00C9400
:101FA000712F0E9455258C01809116029091170285
:101FB0008017910779F019821A820E945525682F9F
:101FC00049815A81792F80E090E00CD81093170254
:101FD000009316022696E4E00C948D2FD3D26093E2
:101FE0002402709325028093260290932702609327
:101FF000200270932102809322029093230208957D
:1020000008950895FDCF08950895FEDFFBCF0C9449
:10201000B60508950895FEDFFACF81E0089583EEB6
:1020200092E18FD7EEDFF1CF3EC508950895089570
:102030000895FCDFFCDFFCCF9CDF811101C095DF40
:1020400088E292E098DF82EA93E09BDF96DF86DA0F
:102050008091BC019091BD019ACA0E944C256DD21D
:1020600027D57FD4E9DF0E94D2070E94112280E0A9
:102070000E94371F0E94CC1D30D5CDCFA6E0B0E026
:10208000E4E4F0E10C94692FC8DFC82E811110C080
:1020900082DFC12C08D50E94F41E0E94A121C1102C
:1020A0000E946F200E94DA072696ECE00C94852FA0
:1020B00077D488E1A82E82E0B82E750110E0F701F0
:1020C00001917F01812F52D31F5F183009F43DC069
:1020D0000817A9F38091280281FD4ED3A5DF982E21
:1020E00010E088248394812F41D3082FF50181913A
:1020F0005F01081729F1F12CEE24E394D02ED826A5
:102100008D2D8E21A9F0992099F0F9821A830E94D1
:1021100055259C838B838D8291E0802F8E2109F43D
:1021200090E049815A816B817C818D810E94F20708
:10213000F394EE0CF7E0FF12E3CFF5013197008343
:102140001F5F183081F64ADFA5CF0813C3CFA0CF99
:102150001F93CF93DF9300D1EC01C11582E5D8071F
:1021600008F03DC0C11590E5D90708F0BEC0C83ED3
:10217000D105C0F4C03ED10580F4C53AD10548F47C
:10218000C430D10550F4C130D10539F0D0E0C0E001
:1021900004C0CD3CD105D0F3D065CE01DF91CF9105
:1021A0001F910895C11580E4D80708F050C0C115EB
:1021B00090E2D90708F0B3C0C11581E0D80730F329
:1021C0008D2F6CD1182FCE019927C6D0C12FD0E00A
:1021D000DC2FCC27CC27DF71C82BD92BDECFC03822
:1021E00092E5D907A8F4C03682E5D80708F061C0A7
:1021F000C03492E5D90708F047C0C03282E5D8075D
:1022000078F1CF71D0E0DC2FCC27C16FD06AC5CF79
:10221000C03C92E5D90778F48C2F8F71C03AD24533
:1022200008F45CC03BD1C82FD0E0DC2FCC27CC27F2
:10223000DF71D062B2CFC03E82E5D80708F0A6CFEA
:10224000DC2FCC27CC27DF71C06FD06AA6CFCE01A0
:10225000992782D0CC27DF70C82BD92BD06A9DCF8D
:102260002C2F2695269590E2299F900111248C2FE2
:102270008370C1E0D0E002C0CC0FDD1F8A95E2F789
:10228000C22BD32BDD6889CF2C2F2695269527705E
:1022900080E2289F900111248C2F8370C1E0D0E050
:1022A00002C0CC0FDD1F8A95E2F7C22BD32BDC686E
:1022B00074CF2C2F26952695277090E2299F9001A8
:1022C00011248C2F8370C1E0D0E002C0CC0FDD1F41
:1022D0008A95E2F7C22BD32BDA685FCFC82FD0E004
:1022E000DC2FCC27C46FD06A58CF8C2F8F71D6D0FB
:1022F00055E0D695C7955A95E1F7CF70D0E0DC2F21
:10230000CC27282F30E084FF06C044E0220F331F83
:102310004A95E1F73327C22BD32BD0693ECF8D2FBF
:102320008F71BCD0182FCE01992716D0C12FD0E0C5
:10233000DC2FCC27CC27DF71C82BD92B7ACF462FA7
:10234000783028F4673018F4672F0C94880690E0F2
:1023500080E00895F4DFFCCE82389105B9F1B0F445
:102360008133910509F47DC048F48932910509F45F
:102370006DC08A32910509F47BC0089585339105BB
:1023800009F45FC08933910509F10895833E9105F1
:10239000D9F138F4803E910529F1823E910579F119
:1023A0000895863E9105D9F1873E910509F43EC016
:1023B000843E910541F52091A30321FF24C0809123
:1023C000A20384FD19C087EE90E008952091A20336
:1023D000237009F05AC02091A30323FF14C089E29F
:1023E00090E008952091A20320FD38C03091A3030E
:1023F00030FF09C024FF43C090E080E008952091A1
:10240000A20322FDF7CF08952091A20322FD3AC036
:102410003091A30330FD39C024FFF5CFEDCF2091DB
:10242000A20323FFF0CF24FDE7CFCDCF2091A2035D
:1024300023FD2EC03091A30331FFEECF84EE90E058
:1024400008952091A20325FFDECFC9CF2091A203DA
:1024500025FD21C02091A30323FFD5CF89E390E080
:10246000D2CF2091A20326FFCECF8AE290E008953A
:102470002091A20326FFC7CF81E390E0089583EE69
:1024800090E0089582EE90E0089580EE90E0089547
:1024900086EE90E0089585E390E008959091A20380
:1024A00092FF10C041E0282F2471243009F040E051
:1024B00031E0282F2871283009F030E0431711F05F
:1024C0002CE0822793FF10C041E0282F2471243193
:1024D00009F040E031E0282F2871283109F030E080
:1024E000431711F02CE082273091A30330FF10C076
:1024F00051E0282F2171213009F050E041E0282FD0
:102500002871283009F040E0541711F029E08227A3
:1025100031FF10C041E0282F2171213109F040E046
:1025200031E0282F2871283109F030E0431711F0ED
:1025300029E0822794FD877E08951092A4031092CB
:10254000A5031092A6031092A7030895CF92DF92DD
:10255000EF92FF926B017C01A6D281110EC00E9406
:102560006125C61AD70AE80AF90AC092A403D092D4
:10257000A503E092A603F092A703FF90EF90DF90EF
:10258000CF9008950F931F938ED2882329F00E9435
:1025900061251F910F9108950E9461250091A40368
:1025A0001091A5032091A6033091A703600F711F1E
:1025B000821F931FEECF77D2882311F00C945525FC
:1025C000E1DFCB01089580E00895CF939C01205E68
:1025D0003245C1E02032310538F4FB01C581C1111B
:1025E00003C08F710E94FF068C2FCF91089508952C
:1025F00090E080E00E945E3021E0833E9E4F09F033
:1026000020E0822F089563EE7EEF90E080E00C944E
:102610007D306FEF7FEF90E080E00C947D30CF93C2
:10262000DF93EC0182E090E00E9451308883DF91DB
:10263000CF910895FC01608182E090E00C946330BA
:1026400083E090E00E94513090E00895682F83E08D
:1026500090E00C946330CF93DF93EC0184E090E042
:102660000E945E3099838883DF91CF910895FC01A9
:102670006081718184E090E00C947D304F925F9294
:102680006F927F928F929F92AF92BF920F93CF9350
:10269000DF93EC0188E090E00E9459302B013C016F
:1026A000688359828A837B821C821D821E821F82DC
:1026B00083E290E00E945130282F30E040E050E06B
:1026C00060E070E080E090E000E20E949A2F242910
:1026D000352946295729288339834A835B836C83AC
:1026E0007D838E839F83DF91CF910F91BF90AF90B9
:1026F0009F908F907F906F905F904F9008950F9371
:10270000CF93DF93EC01488159816A817B8188E016
:1027100090E00E947530288139814A815B816C810B
:102720007D818E819F8100E20E94B52F622F83E21E
:1027300090E00E946330DF91CF910F910895AB013B
:10274000BC018FE090E00C947530AB01BC0183E1DB
:1027500090E00C947530682F8EE090E00C9463301C
:102760000895FECF08950895FECF0895E82FF0E074
:10277000EF54FC4F80810895089580EA8A95F1F71F
:10278000089500C00895F9CF08950895FECF0895E3
:10279000EF92FF921F93CF93DF9300D000D0CDB77D
:1027A000DEB781D1182F6091B903882309F445C0A1
:1027B00019821A821B821C82862F90E09E012F5F55
:1027C0003F4F7901B9018F549C4F93D18823E1F099
:1027D0008091A80390E044E050E0B7018F549C4FF3
:1027E0000E943B3021E020932902892BC1F410E0A4
:1027F000BBDF812F0F900F900F900F90DF91CF9143
:102800001F91FF90EF90089580912902882379F31A
:1028100084E0F70111928A95E9F710922902E0917C
:10282000A803F0E0EF54FC4F89819A81AB81BC8111
:1028300080839183A283B383DBCF70E06F547C4F9E
:102840008091A80390E08F549C4FD8D19FDFD1CFC7
:10285000F894E82FE295EF70F0E031A1282F2F7067
:1028600081E090E001C0880F2A95EAF7982F9095B3
:10287000932391A392A1892B82A378940895CF9357
:10288000DF9384E9E5DF86E6E3DF87E9E1DF86ECD5
:10289000DFDFCFE4D1E089918F3F09F0D9DF81E01C
:1028A000C635D807C1F7DF91CF910895B0E0A0E019
:1028B000ECE5F4E10C946D2FEC01D62E062F10E020
:1028C000C8018A5A9E4F7C01FC0180818F3F09F428
:1028D00041C0F894E82FE295EF70F0E091A18F707D
:1028E00021E030E001C0220F8A95EAF7892F822B80
:1028F00081A382A12095282322A3789442DFEFE4CC
:10290000F1E031E0C12C21912F3F49F1A22FA29596
:10291000AF70B0E090968C9190E02F7002C09595CA
:1029200087952A95E2F780FD1AC0832FC82A330FB6
:1029300081E0E635F80739F7F70180818F3F09F02C
:1029400087DF61E0C11001C060E08D2D1CDFC00F8A
:10295000D11FC882CDB7DEB7E8E00C94892F80E0A4
:10296000E5CF809106018091060194E0811190E00D
:102970009093B90384E0891B8093A80380DF88E0EB
:10298000E1EBF3E0DF01982F1D929A95E9F7E9EA70
:10299000F3E0DF011D928A95E9F784E03CD0E1CEB7
:1029A000A8E0B0E0E6EDF4E10C94702F8E010F5F2B
:1029B0001F4F88E0F80111928A95E9F7F12C6F2DED
:1029C000C80174DFF394F4E0FF12F9CF48E050E05F
:1029D000B80189EA93E00E943B3021E0009709F4B6
:1029E00020E0892B41F088E0F801A9EAB3E00190EA
:1029F0000D928A95E1F76091B90370E06F547C4FB6
:102A000044E089EA93E008D0182FC2DE812B289693
:102A1000E5E00C948C2F0895B0E0A0E0E2E1F5E150
:102A20000C946D2F6C017B01042FC22F222379F0AF
:102A300081E080932C020E94552590932B02809375
:102A40002A0280E0CDB7DEB7E8E00C94892FD09160
:102A50002C02DD23B1F380912A0290912B020E9477
:102A6000D624059770F310E0A801B601C7010E94B3
:102A70003B30892B31F0A801B601C7010E944830D4
:102A8000CD2F10922C028C2FDDCFCF930E94C32E1E
:102A9000C82F811102C00E94BF2E8C2FCF910895A4
:102AA00080913002089580912F020895FCCF0895FF
:102AB000ECDF80932F02FADF80933002F1DF809306
:102AC0000601EEDF69E1882331F080E019D3EBDF06
:102AD000811144C0089589E1F9CFE5DF811101C07A
:102AE00040C0089581E0909131029A3008F080E072
:102AF00008950F931F93CF93DF93EC018B01809187
:102B000031028A30B0F4B801CE0176D0C82F8111DD
:102B100022C0809131028F3FB9F40E9455259093D5
:102B20002E0280932D028C2FDF91CF911F910F9158
:102B3000089580912D0290912E020E94D624843F08
:102B4000914008F7C0E0EFCF8F5F809331028A3069
:102B500020F7C1E0E8CF10923102E5CF0C944C276A
:102B600008950C944F270895B0E0A0E0EAEBF5E15A
:102B70000C946E2F7901C82F880FDD0B411551057C
:102B8000A9F0FE0193E0EE0FFF1F9A95E1F7E95FD0
:102B9000FE4F818192818E5C9D4F208130E04217F3
:102BA000530708F49A01A9010E944830CE010E94FF
:102BB0003028D82E8823D1F001151105B9F083E013
:102BC000CC0FDD1F8A95E1F7FE01E95FFE4F4381DF
:102BD00050E00417150708F4A801C95FDE4F6C81A7
:102BE0007D816E5C7D4FC7010E9448308D2DCDB731
:102BF000DEB7E7E00C948A2F2AC1089546C10895F4
:102C0000A4E0B0E0E6E0F6E10C94712F609152028E
:102C10007091530280915402909155020E94DF24DA
:102C200011E0643671058105910508F1ABDC6E5F3A
:102C30007F4F8F4F9F4F69837A838B839C8310E0F4
:102C400000E030E020E044E050E0BE016F5F7F4FE5
:102C500082E08ADF182F882351F00E94612560935B
:102C60005202709353028093540290935502812F25
:102C70002496E4E00C948D2FB0E0A0E0E2E4F6E1CD
:102C80000C946B2F7C015B016A012CDF01E010E0EA
:102C9000882311F00AE010E0C1E0D0E0B501C701DF
:102CA000F6010995811104C021960C171D072CF41B
:102CB000CDB7DEB7EAE00C94872FCC9F9001CD9F73
:102CC000300D300D112490E080E045E34A95F1F796
:102CD0000000019682179307C1F7E0CFABE0B0E0A8
:102CE000E4E7F6E10C94712FCE010196A1D61B8585
:102CF000609156027091570280915802909159024A
:102D00000E94DF24643671058105910510F41123BA
:102D1000B9F010E000E030E020E04BE050E0BE0110
:102D20006F5F7F4F83E020DF882361F00E94612581
:102D30006093560270935702809358029093590201
:102D400074D681E02B96E4E00C948D2FA5E0B0E0E2
:102D5000ECEAF6E10C946B2F5B01E0905A01F090E5
:102D60005B0101E010E09E012B5F3F4F50E040E02F
:102D700070E060E080E0F8DE182F882309F44AC094
:102D800067018FEFC81AD80A60914E0270914F0206
:102D900080915002909151020E94DF2464367105A7
:102DA0008105910578F104E010E09E012F5F3F4F0F
:102DB00050E040E070E060E081E0D6DEF82E64E0B4
:102DC00070E0C6010E94122211E09D81981310E06C
:102DD0001F2159F10E94612560934E0270934F02AA
:102DE000809350029093510289819A81AB81BC817A
:102DF00080934A0290934B02A0934C02B0934D02F1
:102E000011E013C064E070E0C6010E9412229D81AF
:102E10008913C9CFF70181819281A381B48189830C
:102E20009A83AB83BC831111DFCF80914A029091CA
:102E30004B02A0914C02B0914D02F5018083918329
:102E4000A283B383812F2596EAE00C94872F0F93FA
:102E50001F93CF93DF93EC018B0146EA56E10CDF21
:102E6000811106C080E0DF91CF911F910F910895ED
:102E700040E056E1B801CE01FFDE882399F34EE62B
:102E800056E1B801CE01F8DEEECFABE0B0E0EBE406
:102E9000F7E10C946D2F00915A0110915B01C8016C
:102EA000019624E0FB01DC0101900D922A95E1F7E7
:102EB00064E070E00E941222F801808365817681CF
:102EC00087819085C0904602D0904702E0904802EA
:102ED000F09049026C157D058E059F0549F06093C1
:102EE00046027093470280934802909349022EDB7A
:102EF0008BE0F8013996DE01119601900D928A95CA
:102F0000E1F7F801138A8B85882321F060E0CE0178
:102F100001966AD62B96E8E00C94892FAFC80895E5
:102F20000E94EF240E94B8297AD80E94D02995D80F
:102F30000E94D9290E94DC29F1DF0E94F22979D868
:102F4000F9CF909399018093980108950F931F935F
:102F5000CF938C01FB01C581CC2309F43CC00E94B6
:102F6000B40E8272F801E052F847EB30F10530F40C
:102F7000E554FF4C0C94322F07D6C0E08C2FCF9134
:102F80001F910F910895882321F0F2D5F6CF882361
:102F9000E1F3E2D5F2CF882321F05CD2EECF882393
:102FA000E1F34DD2EACF882321F06ED2E6CF882319
:102FB000E1F35DD2E2CF882321F080D2DECF8823F7
:102FC000E1F36FD2DACF882321F014D1D6CF882352
:102FD000E1F300D1D2CFC1E0D1CFEF92FF920F93B6
:102FE0001F93CF93DF939B01682F31110EC04423B1
:102FF00029F0E82FF0E0EB5EFB4F6491762F862FEF
:10300000CDB7DEB7E6E00C948B2FC32FD0E0E82FCE
:10301000F0E0442321F0EB5EFB4FE491F0E046E06A
:10302000249FC00111240FEF10E0B8010E94E92E87
:10303000AB01822F90E0880F991F25E5249FB001F6
:10304000259F700D1124861B970B982F990F980FB1
:10305000B8016C1B7D0B6E9FD0016F9FB00D7E9FE2
:10306000B00D11248B2F939F90011124232F332710
:10307000B801621B730B6E9F90016F9F300D7E9F96
:10308000300D11247801E91AF108EC9EB001ED9E93
:10309000700DFC9E700D1124672F7727061B170BF0
:1030A0000E9FE0010F9FD00D1E9FD00D11247D2F8C
:1030B0009E2F4230510599F048F44115510569F0B1
:1030C0004130510581F07B2F832F07C044305105DB
:1030D00069F080F046305105B1F7692F91CF9B2FF1
:1030E0008D2F7E2FFACF7E2F932FF7CF9D2F7B2F03
:1030F0008E2FF3CF732F9B2FFBCF41E06ECF089520
:10310000EAE2F1E0808361830895F7CF089590911A
:103110002A01291B922FE0918901F0918A01242F25
:10312000462F682F892F90E009950895CF93DF935C
:10313000762FE901682F842FE8DF962F672F9E01F5
:10314000482F892FE4DFDF91CF910895493708F0A8
:1031500048E7ECCF8091BA03982F9C7F61F483708D
:1031600084608093BA038091BD03893718F088E7A3
:103170008093BD0308958C3AB0F38370886AF1CFD1
:10318000EAEBF3E085E0808311828FEF828388E7AA
:1031900083831482E0E6F3E08281836082838AEB9A
:1031A00093E00C94C70F8091BA0380FF03C086950B
:1031B0008695089580E008959091BE03933018F4A9
:1031C0009F5F9093BE03882321F08AEB93E00C94D9
:1031D000C70F089581E0F0CF9091BE03992319F0B5
:1031E00091509093BE03882321F08AEB93E00C94D6
:1031F000C70F089581E0F0CF0F931F93CF93809175
:10320000BA0380FF09C0E0918D01F0918E0109950C
:10321000CF911F910F910895C0912C0100918901C8
:1032200010918A0180912D01C81768F780912A01B9
:103230009C2F981B892F20E040E060E090E0F8018F
:103240000995CF5FEFCFEF92FF920F931F93CF932C
:10325000DF93D82F162F042F8091BA0380FF0BC065
:10326000C0912C01E0908901F0908A0180912D019C
:10327000C81730F0C1DFCDB7DEB7E6E00C948B2F76
:1032800080912A019C2F981B892F202F412F6D2F71
:1032900090E0F7010995CF5FE9CF762F9091BA03BF
:1032A00090FF0BC0493708F048E7682F842F2DDFC7
:1032B000962F672F482F892FC6CF0895CF93DF937E
:1032C000EC01EC81F0E0E05FFC4F4491EAEBF3E0CD
:1032D00062818181E2DF8C818F5F8C83DF91CF916E
:1032E0000895CF93DF93EC01EAEBF3E04381628131
:1032F0008C81D3DF8C818F5F8C83DF91CF91089598
:10330000CF93DF93EC014091BD039C81892F8170A5
:1033100090FD842F692F627091FD642F92FF40E031
:1033200092DF8C8190E00196877099278C83DF91E2
:10333000CF910895B0E0A0E0E0EAF9E10C946E2F9F
:10334000D82FF62E142FE22E9091BA0390FF36C09C
:103350002091BB03281308C08091BC03861304C0CE
:103360008091BD03841729F080916203826080936D
:103370006203E92FE695E695AE2FB0E0A45ABE4F62
:103380008C91809360039C7F9430E9F4812F1937EE
:1033900008F088E76D2F7F2DB8DE962F672F482F16
:1033A000892F51DFD093BB03F092BC031093BD0370
:1033B000EE2021F08AEB93E00E94C70FCDB7DEB775
:1033C000E7E00C948A2F823019F41091BD03EACF04
:1033D000863051F1893041F1893121F7E9518E2F41
:1033E0008170D82EE695F0E0E05FFB4FC49100E0DD
:1033F00060912E01061710F0FFDED4CF0C9FC001A4
:10340000112470E00E94E92E8D2FD1100BC0860F81
:1034100020912C01200F3327331F412F6F2D96DE73
:103420000F5FE6CF861BF4CFD22FBCCFEAEBF3E0E1
:103430009181282F438162818AE0890F7BCF81E0CF
:10344000F5CFEAEBF3E09181282F4381628186EF8B
:10345000890F70CF81E0F5CFEAEBF3E0628121E1E3
:10346000620F08F46FEF282F4381818163CF81E0E1
:10347000F3CFEAEBF3E0628121E1621B08F460E044
:10348000282F4381818156CF81E0F3CFEAEBF3E02F
:10349000438121E1420F08F44FEF282F628181819F
:1034A00049CF81E0F3CFEAEBF3E0438121E1421B16
:1034B00008F440E0282F628181813CCF81E0F3CF86
:1034C00020E038CFEF92FF921F93CF93DF93EC0170
:1034D00010E0EE24EA94F12C60912E01161768F0AA
:1034E0008BDE9A818C8190FF1DC08F5F8C83DF9172
:1034F000CF911F91FF90EF90089520912C01210F03
:103500003327331F70E0C7010E94FD2E962F8C8158
:103510004091BD036091BC03199F800D112416DEFC
:103520001F5FDACF8150E2CFB0E0A0E0EAE9FAE134
:103530000C94692FEC018A81BB24BA9480FD02C0EF
:10354000BB24B3948C8181110AC081E0B81225C0DC
:1035500080912E01815080935B0281E08C83A12CAD
:10356000E0908901F0908A0192E3992E80912E01DA
:10357000A816B0F041DE80915B02F1E0BF1256C0A8
:1035800081114FC080912E01815080935B021C827B
:10359000CDB7DEB7ECE00C94852F10925B02DDCF47
:1035A00080912C0190912A01891B8A0D20E040E036
:1035B00060E090E0F701099504E010E0812CCA2C4E
:1035C000D12C80915B02880D83332CF1692D0E94F0
:1035D000DC2E892F082E000C990BC816D906A9F4E9
:1035E00020912C012C0D3D2D311D8091BD03809F1C
:1035F000A001819F500D11245595479555954795EC
:103600006091BC038091BB03A1DD8B0C01501109BB
:10361000C1F6A394ABCF87FFDDCF90912E01890F28
:10362000D9CF815080935B02BC82B2CF90E00196EB
:1036300060912E0170E00E94FD2E80935B028C83CE
:10364000A7CFEF92FF921F93CF93DF93EC018C8172
:10365000811109C081E08C8310925A0292E090930C
:1036600029018093280110912C01E0908901F090AC
:103670008A0180912D01181770F110E0E090890106
:10368000F0908A0160912E01161790F1B5DD8091BE
:10369000280120915A02280F20935A029091290163
:1036A000980F90932901191654F4022E000C330B35
:1036B00040912E014150550B2417350734F0819568
:1036C00080932801813009F41C82DF91CF911F91F2
:1036D000FF90EF90089580912A01912F981B892FD8
:1036E00020E040E060E090E0F70109951F5FC1CF66
:1036F000E12FF0E070E0CF010E94FD2E20912C011F
:10370000820F20915A02022E000C330BE217F307AE
:103710009CF020912901022E000C330B2E173F073D
:103720005CF0282F30E04091BD036091BC03809194
:10373000BB030CDD1F5FA6CF90912A01891B20E0FF
:1037400040E060E090E0F7010995F4CFB0E0A0E040
:10375000ECEAFBE10C94692FEC014C81042F10E0A2
:103760009801D8010E943E2F9B01AC010E94532F6B
:103770004B015C01E0E2F0E0E01BF10BA5E5B0E0FD
:10378000AC019B010E94532F6B017C019F01DF0163
:103790000E94382F9B01AC010E945D2F9B01AC0160
:1037A000280D391D4A1D5B1DC701B6010E94102F4F
:1037B000F22E822F90E039E23F1518F143E0249F6A
:1037C0009001112435952795122F109500E085E57D
:1037D000E82EEF1880912E01081718F10DDD9C815D
:1037E00081E0992319F0903219F48FEF809327012B
:1037F00080912701890F8C83CDB7DEB7ECE00C9464
:10380000852F25E530E0A901481B590BCA019A0113
:10381000220F331F280F391F37FFD4CF2F5F3F4FA1
:10382000D1CF8E2D01FD8F2D20912C01200F33271C
:10383000331F412F6091BC0389DC0F5FCBCF0F9307
:103840001F93CF93DF938C01D0E0C0E090912E01C5
:103850009C171D0609F06CF4CFDCF801848190E020
:103860000196817099278483DF91CF911F910F91E9
:103870000895F801448120912C012C0F3D2F311D1A
:103880006091BC038091BB0396959C171D0641F087
:103890003CF0442339F04091BD0358DC2196D6CF4B
:1038A0004423C9F340E0F9CFB0E0A0E0EAE5FCE151
:1038B0000C94652FFC016280448081E08483E0E108
:1038C000F3E07490EFE8F3E0E491C091BD03C69596
:1038D000C158D0E0CC0FDD1FCD2FDD27812C25E096
:1038E000922EAA24AA94B12C55245A94E719EE2EAC
:1038F000F12C80912E01881630F07EDCCDB7DEB73A
:10390000E0E10C94812FC82CD12C82E0861568F060
:103910009C9CF0019D9CF00D1124E15AFD4F80917B
:10392000BB0380838091BC03818341101BC09C9C9E
:10393000F0019D9CF00D1124E15AFD4F138212827B
:1039400020912C012C0D3D2D311D9C9CF0019D9C46
:10395000F00D1124E15AFD4F428161818081F6DB37
:103960008394C7CF9C9C80019D9C100D1124015A0B
:103970001D4FF80183818823F1F081508383859D59
:10398000C0011124648170E00E94E92EFB01FF2731
:10399000E05FFC4F8491E82FE719E59DC0011124F9
:1039A000B7010E94E92E8091BD03689FB0011124E8
:1039B000F8017283C5CF0E941730B5010E94FD2E19
:1039C0008C179D070CF0BCCFF2E0F61598F40E941E
:1039D0001730B5010E94FD2EF80180830E94173038
:1039E0002091BC032695622F70E00E94FD2E280FC7
:1039F000F80121839C9CF0019D9CF00D1124E15A5B
:103A0000FD4F12828091BD03893C58F088EC9C9C4C
:103A1000F0019D9CF00D1124E15AFD4F84838383B6
:103A20008FCF8431A0F784E1F2CF10926203089522
:103A300028E0EAEBF3E0DC0101900D922A95E1F732
:103A4000209160033091610340916203FC01208763
:103A5000318742870895E0E6F3E011828281846035
:103A600082830895EAEBF3E080818E7F8083F3DF29
:103A7000E0E6F3E0828181608283BECBEAEBF3E093
:103A800080818E7F8083CF010E94C70FE4DFE0E654
:103A9000F3E0828181608283AFCB6091BA03669547
:103AA000669570E04BE050E08FE291E00E942E308E
:103AB000892B19F481E0809361030E94DB129093BB
:103AC0005A03809359038091620384608093620358
:103AD00008959091BA0390FF29C09370811127C077
:103AE00094609093BA038091620381608093620333
:103AF000662321F08AEB93E00E94C70F6091BA031E
:103B00006695669570E04BE050E08FE291E00E9490
:103B10002E30892BA1F09FDF81E080935C034091E0
:103B2000BD036091BC038091BB03CACC08958B3266
:103B300010F0986AD6CF880F880F982BD2CFADDFC0
:103B4000EBCF682F9091BA039695969581E0890FF7
:103B50008B3208F081E0BDCF81E0F3CF682F9091E8
:103B6000BA03969596958FEF890F09F48AE2B1CF43
:103B700081E0F4CF61E0ADCFEAEBF3E080818160DA
:103B8000808386958695F6CF8091BA0380FF01C029
:103B900075CFF2CF60E09DCF80915F03811123C08C
:103BA0008AEB93E00E94C50F80916203836080934B
:103BB00062038091BA038C7F29F4E2DA8AEB93E006
:103BC0000E94C50FC7DA47DFE0918701F0918801B5
:103BD00009958091BA0380FF03C086958695DADF48
:103BE00081E080935F0308951F93CF93DF93EC01EF
:103BF000162F8A8580FF0CC0888180FF22C08091AB
:103C0000BA0381608093BA0388818695869561DFC7
:103C10008A8581FF05C0212F4B816A8189818ADBDA
:103C20008A8582FF04C08985882369F036DF8A850A
:103C300083FF03C081E080935C03DF91CF911F91EC
:103C4000089510DFE5CF07DFF2CFEF92FF920F93D9
:103C50001F93CF93DF9380916103882309F464C09D
:103C600080916003E091BA03E695E695E81BE09346
:103C70005B03823009F05DC0F0E0E45FFC4FE4914B
:103C8000CE2FD0E00EE519E180915C03882361F02E
:103C900010925C030E94DB1290935A0380935903A5
:103CA00010925E0310925D030E94DB12E0915903B3
:103CB000F0915A039C012E1B3F0B2F3F3F47A0F56D
:103CC00020915E022223B1F010925E0220915C02EC
:103CD00030915D02821B930B8F3F9F4758F4205D0C
:103CE0003A4830935D0220935C02809162038860C1
:103CF00080936203E0905D03F0905E03EC0FFD1F84
:103D0000F0935A03E093590389E593E0F80109958C
:103D100080915D0390915E03892B31F4E114F104ED
:103D200019F081E080935E02CDB7DEB7E6E00C9437
:103D30008B2F863049F4F0E0E75FFC4FE491CE2F03
:103D4000D0E001E719E1A0CF893051F4E695F0E029
:103D5000EA5FFC4FE491CE2FD0E002E61AE194CF67
:103D60008F3051F4E695F0E0ED5FFC4FE491CE2FFB
:103D7000D0E004E91AE188CF853149F4F0E0E05061
:103D8000FD4FE491CE2FD0E001E21BE17DCFC8E2F0
:103D9000D0E006EA1BE1883109F476CF833239F4AA
:103DA000EEEFF2E0C591D49100E819E16DCFC4EFD8
:103DB000D1E00FE11CE1843209F466CFC0EDD7E019
:103DC0000FE718E1853209F05FCF8E2F63E00E9484
:103DD000D02EE92FF0E0E550FD4FE491CE2FD0E05A
:103DE00004E51CE151CF089530CF0895AB0124E6DE
:103DF00030E0BC0188E731D721E0892B09F020E0D1
:103E0000822F0895AB0124E630E0BC0188E765D736
:103E100021E0892B09F020E0822F08950F931F9352
:103E20009B0104E610E0AC0160E488E798D721E04C
:103E3000892B09F020E0822F1F910F910895DBC696
:103E400008950895E2ECF3E080E092E0DF019C0148
:103E50001D9221503040E1F7F093C905E093C80569
:103E60008FEF9FEF90938F0380938E030895CF93EE
:103E7000E8DF0E940F0680938A0380FD0FC080E870
:103E800080938903DCDF6BE070E080E395E0BADFCC
:103E9000811106C0C0E08C2FCF91089580E2F0CF51
:103EA00080918A0365E070E081FD23C08BE295E09C
:103EB000A9DF882379F36DE070E089E195E0A2DF66
:103EC000C82F882339F3FDD5605A75418F4F9F4F16
:103ED0006093C4057093C5058093C6059093C7058C
:103EE000B1DF81E080938D0380938C0310928B036C
:103EF000D2CF86E295E0DCCF2091890336E0839F24
:103F0000C0011124629F800D911D1124811522E0B2
:103F1000920714F090E080E08E539C4F9093C90577
:103F20008093C80508952091C8053091C9052C5B80
:103F3000334040918903642F70E0C9010E94E92E4B
:103F4000481B463010F4240F311D211582E038073C
:103F500010F030E020E02E533C4F3093C905209301
:103F6000C80508951F93CF93DF93162F8A3031F43D
:103F700081E06FD0DF91CF911F9108958D3011F4C2
:103F800080E0F7CFC091C805D091C90596E0FE0149
:103F9000A3E6B3E001900D929A95E1F7803EB0F070
:103FA00086E0FE0111928A95E9F711111BC0C091BC
:103FB000C805D091C90546E050E0BE0183E693E014
:103FC0000E943B30892BE1F4AEDFD4CFF6E08F9F27
:103FD000B0011124655C7A4F46E050E0CE010E94AA
:103FE0002530E3CFE091C805F091C9059F012A5F14
:103FF0003F4F2E173F07D9F2808180958193F9CFEB
:10400000C25CD340CE0125E0969587952A95E1F7CD
:1040100021E030E0A90102C0440F551F8A95E2F764
:10402000CA0140918E0350918F03842B952B2596C6
:1040300045E0D695C7954A95E1F702C0220F331F98
:10404000CA95E2F7822B932B90938F0380938E0374
:10405000BBCFCF93382FE091C805F091C905E25C42
:10406000F34020918903622F70E0CF010E94E92E76
:10407000281B822F332361F066E00E94D02EC82FC8
:10408000C15010F4CF91089560E080E26BDFF8CF6B
:104090009F01280F311D2115324018F080E0F0E01B
:1040A000E0E08E0F9F2F911D8E539C4F9093C9057A
:1040B0008093C805E7CF1F93CF93DF93EC01162FB2
:1040C000FE018491811104C0DF91CF911F91089569
:1040D000612F48DF2196F4CFEEDF81E0BACF8091E7
:1040E0008D03811103C080918C030895EAD4605A36
:1040F00075418F4F9F4F6093C4057093C5058093A2
:10410000C6059093C70580918C038111ECCF62E0C6
:1041100070E087E195E076DE882329F381E08093E3
:104120008C03E1CFA6E0B0E0E8E9F0E20C94632F65
:10413000182F80918E0390918F03892B01F180912C
:104140008D038823E1F080918B03811118C0C7DFB4
:104150001C821B8222242394312C03E067E9E62E83
:1041600061E0F62E77E0672E80918E0390918F03A9
:10417000009729F0BC81BB2349F0111107C0269696
:10418000E2E10C947F2F2B812F5F2B833B81C32E89
:10419000D12C210102C0440C551C3A95E2F7920142
:1041A00028233923232B79F380918A0380FD3CC097
:1041B0008B818295880F807680933C01960136959D
:1041C00027953695279520933F01815E80933D0189
:1041D0002093400167E070E08AE391E007DE8823E6
:1041E00071F2C60135E0880F991F3A95E1F72091E9
:1041F0008A0320FD27C060E270E08E539C4F0EDEE4
:10420000882309F4BCCFC2018095909540908E031D
:1042100050908F034822592250928F0340928E0370
:104220004C814F5F4C83A0CF8B81880F880F880F04
:1042300080933C0110923F01895F80933D01009380
:104240004001C8CFA9E6B3E0E0E21D92EA95E9F7A4
:1042500023E931E03E832D832FE8C22E21E0D22EC8
:10426000AD81BE816D91BE83AD83F60121916F0159
:10427000280F392F311DA9014E535C4F5A834983B2
:10428000E62FF0E0E759FC4F30E020E0762C721A80
:10429000922C022E01C0990C0A94EAF769817A8166
:1042A000A12CDB01BD90BD01B920472D4A194770F3
:1042B000842E042E000C550BBB2D01C0BB0F8A941D
:1042C000EAF78B2E5195419551094770552701C04A
:1042D000B6944A95EAF78B28B0808B288082A39405
:1042E00048E0A412DECF2F5F3F4F319628303105D2
:1042F00069F6AD81BE81EA16FB0609F0B1CF60E236
:1043000070E089E693E07BCF80918C0390918D03E0
:10431000911103C091E089270895882361F062E03C
:1043200070E085E195E06EDD811103C080918C0322
:10433000089510928C0380918C03ECCF0C94190695
:1043400008950F931F9380918D03882349F18091E5
:10435000C2059091C3052AD3C29748F0A6D3909383
:10436000C3058093C20560E080E0C6DDE7DF80E042
:10437000D9DE80918C03882399F0A3D30091C405E2
:104380001091C5052091C6053091C705601B710BC2
:10439000820B930B6F3F7F4F8F4F9F4708F4B4DF23
:1043A0001F910F910895539A0895FC01EE0FFF1F7E
:1043B000E80FF91FE653FA4F618340832283089583
:1043C000EAECF5E0818360834283339696E0E03641
:1043D000F907C1F708953BB1377F2BB128604FB77C
:1043E000F8948AEC95E0FC015191CF0168E02BB97B
:1043F000000000C057FF3BB9550F000000C000C0CF
:1044000000C03BB900C06A9591F7F6E080369F077F
:1044100051F74FBF8FE594E00197F1F700C000001E
:1044200008950895FC01680F791F8FEF91E3E61757
:10443000F70709F408952191822728E030E087FFEB
:1044400006C0880F892721503109C9F7F0CF880F9E
:10445000FACFCF93DF93EB0186319C4701F50E94A1
:10446000B40E9D81992391F08A7A91E009F490E04D
:1044700090939003811108C089E20AD20E943C0FF8
:1044800080E0DF91CF91089585E3F7CF809190038D
:10449000811103C089E202D2F1CF85E3FCCF81E034
:1044A000F0CFCF93DF93EC01FB018581882309F4E2
:1044B000CEC09E0130572332310508F0AEC082EAEB
:1044C00093E00E94C10FFE01E150F047E232F10596
:1044D00020F4EA53FF4C0C94322F8091A2038160A8
:1044E0008093A20393C08091A30388608093A30369
:1044F0008DC08091A2038260F3CF8091A20384607B
:10450000EFCF8091A2038860EBCF8091A3038160FD
:10451000EDCF8091A3038260E9CF8091A2038061F7
:10452000DFCF8091A2038062DBCF8091A203806401
:10453000D7CF0E94660A8091A2038068D1CF809174
:10454000A2038C60CDCF8091A3038360CFCF8091F5
:10455000A2038E7FC5CF8091A303877FC7CF8091B1
:10456000A2038D7FBDCF8091A2038B7FB9CF8091B5
:10457000A203877FB5CF8091A3038E7FB7CF8091B1
:10458000A3038D7FB3CF8091A2038F7EA9CF8091AB
:10459000A2038F7DA5CF8091A2038F7BA1CF0E9424
:1045A000660A8091A2038F779BCF8091A203837FBD
:1045B00097CF8091A3038C7F99CF8091A20382FB38
:1045C000992790F921E0922790FB82F990FB83F9DB
:1045D00087CF8091A303982F909591708E7F892B20
:1045E00090FB81F983CF9091A203892F8F7B96FF57
:1045F000806476CF0E94660A9091A203892F97FB70
:1046000087F980586DCF81E00E94C90F82EA93E05C
:104610000E94C30F0E94660A80E0DF91CF91089547
:1046200080E0F2CF9091A203892F8F7E94FF80616A
:1046300057CF9091A203892F8E7F90FF816050CF3A
:104640009091A303892F877F93FF88604FCF81E0EC
:10465000E4CF0F931F93CF93DF93C42FD22FFC018E
:1046600085818823C1F0409393031FD290939203D6
:104670008093910380E28C0F883040F4C77081E012
:1046800001C0880FCA95EAF70E947E08DF91CF919A
:104690001F910F91089510919303141331C08091CD
:1046A00091039091920382D18A3A910548F5C0E234
:1046B000CD0F1D17B9F080E2810F883040F41770DC
:1046C00081E001C0880F1A95EAF70E948308C8307C
:1046D00048F481E09D2F977001C0880F9A95EAF702
:1046E0000E947E08802F0E947708C83078F6D77025
:1046F00081E001C0880FDA95EAF70E948308C6CFEF
:1047000080E28C0F883010F6C77081E001C0880FFE
:10471000CA95EAF7F2CF0F93DB0188519C478730A7
:10472000910598F5FC01E851FF4C0C94322F06E2FC
:1047300021EE41EE6AE17CE7CD018BDF80E00F9155
:10474000089507E225EE45EE6BE17CE7F5CF06E242
:1047500021EE40EE68E17CE7EFCF07E225EE44EE84
:1047600069E17CE7E9CF06E221EE42EE6CE17CE70D
:10477000E3CF07E225EE46EE6DE17CE7DDCF08E210
:1047800021E045EE6EE17CE7D7CF15968C9188232A
:1047900019F010929303D3CF81E0D1CF9093960379
:1047A0008093950308950E945315811103C0809151
:1047B00094030895E0919503F0919603309739F0B2
:1047C0000190F081E02D309711F00995089580E077
:1047D0000895E9CF0895E0919503F09196033097FD
:1047E00031F00280F381E02D309709F009950895AA
:1047F00040910401509105019A012E5F3F4F485F9F
:104800005F4F80E02417350709F40895F90191916D
:104810009F019923B9F38F5FF5CF882371F0209121
:10482000040130910501F9013296285F3F4F9191C3
:10483000981729F0E217F307D1F780E0089581E097
:1048400008959C01FC0132969FEF80E0419146174C
:1048500051F09F3F19F4411101C0982F8F5F8630AE
:10486000A9F79F3F09F40895290F311D97FD3A9547
:10487000F90162830895FC0132960896219126136E
:1048800003C0DF0111971C92E817F907B9F70895E3
:10489000682F8091040190910501D3CF682F8091FA
:1048A000040190910501E7CFE0910401F091050129
:1048B000329686E0DF011D928A95E9F70895089502
:1048C000FECF089581110CC081E080934401609176
:1048D0004101709142018091430190914401F0CFD8
:1048E00082E0F3CF83E080934401609141017091B5
:1048F00042018091430190914401E2CFE3CF0895BA
:1049000081E0809344016091410170914201809166
:10491000430190914401D4CFF3CF089591E08111E8
:1049200001C090E090934301609141017091420178
:104930008091430190914401C3CF80914301089538
:104940008093420160914101709142018091430145
:1049500090914401B5CF8091420108958093410127
:104960006091410170914201809143019091440115
:10497000A7CF80914101089508950895FECF08952D
:1049800008950895F9CF0895CF93FADF0E94D014C7
:10499000F8DFC0E08C2F0E94B613811105C0CF5FF5
:1049A000C830C1F7CF91089581E0FCCFCF93DF935A
:1049B000EC017BD08C1B9D0BDF91CF910895CF92A2
:1049C000DF92EF92FF926B017C017BD06C197D0925
:1049D0008E099F09FF90EF90DF90CF90089585B7E3
:1049E000806885BF85B7806885BF08951F921FB610
:1049F0001F9211248F939F93AF93BF93809197033E
:104A0000811113C08091600690916106A0916206A9
:104A1000B09163064196A11DB11D809360069093ED
:104A20006106A0936206B0936306BF91AF919F9118
:104A30008F911F901FBE1F9018958091680684303B
:104A400031F10E9494071092970388E190E020E4EE
:104A50000FB6F894A895809360000FBE2093600075
:104A600083B7817F846083BF83B7816083BF78947D
:104A7000889583B78E7F83BF0FB6F894A8958091F1
:104A80006000886180936000109260000FBE0895FE
:104A90000E94660A0C949A0782E084BD93E095BD5B
:104AA0009AEF97BD80936E0008952FB7F894809188
:104AB000600690916106A0916206B09163062FBFD7
:104AC00008952FB7F8946091600670916106809107
:104AD0006206909163062FBF089578941F921FB6C7
:104AE0001F9211248F939F93AF93BF938091600681
:104AF00090916106A0916206B09163060196A11D96
:104B0000B11D8093600690936106A0936206B093F6
:104B10006306BF91AF919F918F911F901FBE1F9011
:104B2000189587E797E7909301088093000888E13C
:104B30009AE00FB6F894A895809360000FBE90930A
:104B40006000FFCF88E19AE00FB6F894A8958093B3
:104B500060000FBE90936000FFCFEF92FF920F9323
:104B60001F93CF93DF93182FEB011092BC0084EAC0
:104B70008093BC009ADF7C018091BC0087FF26C037
:104B80008091B900887F883029F08091B900887FB2
:104B9000803171F51093BB0084E88093BC0085DF01
:104BA0008C018091BC0087FF1DC02091B900287F37
:104BB00090E080E0283189F081E090E0203411F429
:104BC00090E080E091958195910907C0C701EEDEE4
:104BD000C817D90788F68EEF9FEFCDB7DEB7E6E0AE
:104BE0000C948B2FC801E2DEC817D907D0F6F3CF9B
:104BF0008FEF9FEFF2CF1092B9008CE08093B80056
:104C000008950F931F93CF93DF93EB018093BB0025
:104C100084E88093BC0049DF8C018091BC0087FF51
:104C200011C02091B900287F81E090E0283211F472
:104C300090E080E0919581959109DF91CF911F914E
:104C40000F910895CF3FDC0741F3C801AFDEC817CD
:104C5000D90718F78EEF9FEFF0CFB0E0A0E0E3E3C5
:104C6000F6E20C94682F782E5B016A0189011DDF42
:104C70004C01C1E0D0E00431110558F0C5E0D0E0AE
:104C80000F3F100731F0C80164E170E00E94E92E87
:104C9000EB01BE01872D61DF7C0197FF08C00F3F4C
:104CA0001007B9F3C40182DE0817190790F7E50170
:104CB000CA0CDB1CCC15DD0511F0F7FE09C084E938
:104CC0008093BC00C701CDB7DEB7EDE00C94842F14
:104CD000B801899196DF7C01EDCFB0E0A0E0E3E779
:104CE000F6E20C94682F782E5B016A018901DDDE03
:104CF0004C01C1E0D0E00431110558F0C5E0D0E02E
:104D00000F3F100731F0C80164E170E00E94E92E06
:104D1000EB01BE01872D21DF7C0197FF08C00F3F0B
:104D20001007B9F3C40142DE0817190790F7E5012F
:104D3000CA0CDB1CCC15DD0511F0F7FE09C084E9B7
:104D40008093BC00C701CDB7DEB7EDE00C94842F93
:104D5000FE018491B80155DF7C012196EBCFB0E0D4
:104D6000A0E0E5EBF6E20C94672F682E762E5A0150
:104D700069019BDE4C01C1E0D0E00431110558F01F
:104D8000C5E0D0E00F3F100731F0C80164E170E0EA
:104D90000E94E92EEB01BE01862DDFDE7C0197FF2C
:104DA0001BC00F3F1007B9F3C40100DE0817190735
:104DB00090F784E98093BC00C701CDB7DEB7EEE081
:104DC0000C94832FB80189911CDF7C01CC16DD0681
:104DD00081F3F7FEF7CFEDCFB801872D12DF7C010D
:104DE000E501CA0CDB1CF2CF8EE14A9B02C0815068
:104DF000E1F74A9BFECF08955A9880E28A95F1F731
:104E00005A9A0895FC013BE03A95F1F798E020E0CA
:104E100080E031E040E14A95F1F7880F4A9B02C0FB
:104E20008160232742E04A95F1F7000040E14A956E
:104E3000F1F7915079F790E19A95F1F799B132E055
:104E40003A95F1F7000040E14A95F1F792FB992776
:104E500090F992272081920F90830895A1E0B0E00D
:104E6000E4E3F7E20C946F2F19828C017C01E60ECB
:104E7000F11C0E151F0541F481E09981911180E02C
:104E80002196E6E00C948B2FAFDFCE010196BADFBE
:104E9000F80181938F01EDCF529A5A9A0895529852
:104EA0005A9AEA9AE9E6F0E080818F7C808308953F
:104EB0006150770B91E001C0990F6A95EAF720E005
:104EC00031E0911108C0222391F05A9A80E28A952C
:104ED000F1F75A980895492F482339F05A9A232711
:104EE00040E24A95F1F79695ECCF5A98F9CF5A9847
:104EF000EDCFFF920F931F93CF93DF93EC018C01C3
:104F0000060F111DC017D10729F4CDB7DEB7E5E0B4
:104F10000C948C2FF99070DF68E08F2DC9DFF2CFF1
:104F20001F920F920FB60F9211240F931F932F937E
:104F30003F934F935F936F937F938F939F93AF9321
:104F4000BF93EF93FF93CF93DF930F92CDB7DEB76D
:104F500019824ADFCE01019655DF082F0695069586
:104F60000695282F22952570902F9570290F922F46
:104F7000937026952695920F982797708981982B84
:104F800009F058C0053008F055C080E18A95F1F766
:104F90005A9A529A82E08A95F1F700C05A9888E0AE
:104FA000089F80011124D801A95FBE4F1696ED918C
:104FB000FC9117973097A9F060915A0170915B01AD
:104FC00014962D913C911597260F371F11968D91B0
:104FD0009C911297680F791F13964C9113978C919F
:104FE0000995F801E95FFE4F6381662349F020913E
:104FF0005A0130915B0184819581820F931F79DF83
:10500000FBDE80E18A95F1F75A9852985A9A80E12E
:105010008A95F1F7F801E95FFE4F6081662349F058
:1050200020915A0130915B0181819281820F931FFF
:1050300015DFDADE0F90DF91CF91FF91EF91BF91F5
:10504000AF919F918F917F916F915F914F913F9120
:105050002F911F910F910F900FBE0F901F901895D9
:105060000F931F93CF93DF93EC0105970CF049C08A
:10507000F894529A5A9885E08A95F1F700009C2F8F
:10508000969595708C2F8570980F892F83709695C3
:10509000969523E0CC0FDD1F2A95E1F7980F8E013E
:1050A000092BAADE00C068E0802F02DF80E18A952C
:1050B000F1F752985A9A4A9B1DC087E090E04A99AE
:1050C0001BC0FE01E95FFE4F63816623F1F0209172
:1050D0005A0130915B0184819581820F931FBEDE5E
:1050E000811113C0529A5A9A7894DF91CF911F91EF
:1050F0000F91089500C0DFCF019729F4529A5A9A70
:10510000789480E0F2CF00C0DACF6EDE80E28A953C
:10511000F1F75A98529A80E18A95F1F7C95FDE4F0C
:105120006881662349F020915A0130915B018981A1
:105130009A81820F931FDDDE5FDE789481E0D5CF08
:105140000895089508959B01BA01909168069430DE
:10515000E1F48F708093E9009FEF8091E800915017
:1051600085FD06C085ED8A95F1F700009111F5CF18
:105170008091E80085FF09C050E040E0C90195D169
:105180008091E8008E778093E8000895CF93DF93B5
:10519000EC01D3DB48E050E0BE0181E0D4DF88E0E1
:1051A000FE01A8E9B3E001900D928A95E1F7DF9145
:1051B000CF91089580916706811107C004D35BD316
:1051C0008091E20084608093E20008951092670667
:1051D000089596DB81E0A2CB6091640681E06111C5
:1051E00001C080E07FCB9091680681E0943009F0A7
:1051F00080E06091640682CB42E061EC81E05FD2A6
:105200009091680681E0943009F080E06091640636
:1052100059CB80916A06833009F45EC030F4813046
:10522000C1F1823009F494C008958A3009F483C032
:105230008B3009F46BC0893009F04DC0809169064C
:10524000813209F048C080916D0690916E06892BDD
:1052500009F041C08091E800877F8093E800809149
:10526000E80082FF34C09091F3008091F200029731
:1052700031F48091F100813011F0863019F4809181
:10528000F1005EDB8091E8008B778093E8004BD2E1
:1052900022C080916906813AF1F48091E800877F0D
:1052A0008093E80080916D0690916E06892B59F4E9
:1052B00068E088E993E070E045D18091E8008B7761
:1052C0008093E800089560E090E080E0F4CF809162
:1052D00068068111C4CF089580916906813AD9F793
:1052E00080916D0690916E06892BA9F78091E80058
:1052F000877F8093E8008091E80080FFFCCF1DDB72
:105300008093F1008091E8008E77BFCF809169068D
:10531000813209F780916D0690916E06892BD9F63E
:105320008091E800877F8093E800FDD180916B0633
:10533000F5DA0C94660A80916906813261F68091F3
:10534000E800877F8093E800EED180916C0606CB61
:1053500080916906813A09F0BECF8091E800877F8D
:105360008093E8008091E80080FFFCCF02DBC8CF8B
:1053700084B7877F84BF0FB6F894A89580916000AA
:10538000886180936000109260000FBE80E890E01A
:105390000FB6F89480936100909361000FBEBCCA71
:1053A00012D269D2E2EEF0E080818460808378944A
:1053B000CCC485E491E0F2C980916806853029F477
:1053C00080916806853011F063CB089536DBDCDA16
:1053D0008823B1F380916606882391F350D00E9410
:1053E000660AEECF08959A0140916F0650917006BB
:1053F00000C0492F552743305105C9F058F44130BA
:10540000510599F142305105A9F190E080E050E05A
:1054100040E01DC04132510509F142325105A9F762
:1054200084E490E04BEE5AE0672B79F710C099279F
:105430008130910581F0009729F0029731F7EBE771
:10544000FAE002C0E3EBFAE0849190E0AF01F901E9
:10545000518340830895E3E9FAE0F6CF89E090E0D4
:1054600049EC5AE0672B89F6F2CF82E190E049EDF2
:105470005AE0EDCF82E290E047EB5AE0E8CF80E1DE
:1054800089BD82E189BD09B400FEFDCF8091D800BD
:105490008F7D8093D8008091E00082608093E0004F
:1054A0008091E00081FDFCCF0895AF92BF92CF9232
:1054B000DF92FF920F931F93CF93DF936C01EB0169
:1054C0008A0150D1F82E811123C00115110539F040
:1054D000F80180819181C81BD90BC80ED91EB12C4F
:1054E000A12C2097A9F08091E80085FD21C0809132
:1054F000E8008E778093E80001151105A1F0F8010E
:1055000080819181A80EB91EB182A08285E0F82E1B
:105510008F2DDF91CF911F910F91FF90DF90CF9052
:10552000BF90AF9008951ED18823D9F2F82EF0CF06
:10553000F60181916F018093F1002197FFEFAF1A7F
:10554000BF0ACFCFFC0180916F069091700686173D
:105550009707A0F06115710529F49091E8009E77F6
:105560009093E80090E06115710551F4911108C025
:105570008091E80082FF34C080E00895BC01F2CF42
:10558000809168068823C1F18530C1F18091E800DF
:1055900083FD30C08091E80082FDEACF8091E80071
:1055A00080FFE1CF8091F3002091F200382F611548
:1055B000710519F02830310558F091E02830310597
:1055C00009F090E02091E8002E772093E800CBCFFF
:1055D00081918093F100615071092F5F3F4FE7CFB8
:1055E00080916806882341F0853041F08091E80081
:1055F00083FFBECF81E0089582E0089583E008959F
:10560000FC0180916F069091700686179707A0F0B5
:105610006115710529F48091E8008E778093E80088
:1056200090E06115710551F4911108C08091E80076
:1056300082FF35C080E00895BC01F2CF80916806FA
:105640008823C9F18530C9F18091E80083FD31C01C
:105650008091E80082FDEACF8091E80080FFE1CFF1
:105660008091F3002091F200382F6115710519F037
:105670002830310558F091E02830310509F090E0EC
:105680008091E8008E778093E800CBCF849180935F
:10569000F1003196615071092F5F3F4FE6CF809145
:1056A0006806882341F0853041F08091E80083FF4F
:1056B000BDCF81E0089582E0089583E00895982F9A
:1056C000973028F08F708093E90081E008959093DF
:1056D000E900242F762F50E0981731F07091EC00FC
:1056E0002091ED005091F00021FD02C09F5FE8CFB6
:1056F0003091EB003E7F3093EB003091ED003D7F29
:105700003093ED003091EB0031603093EB007093FB
:10571000EC002093ED005093F0002091EE0027FD67
:10572000E5CF80E008958091690687FF13C08091DE
:10573000E80082FF06C08091E8008B778093E80044
:1057400004C0809168068111F2CF089580916806A7
:105750008823D9F38091E80080FFF8CF8091E8009A
:105760008E77ECCF2091E4003091E50095E6A90119
:105770002091EC00822F817020FF06C08091E8000C
:1057800080FF06C080E008952091E80022FD1AC045
:1057900080916806882389F0853089F08091EB003C
:1057A00085FD0FC02091E4003091E50042175307BA
:1057B000F9F29150E1F684E0089582E0089583E0E3
:1057C000089581E0089567D06ED0E0EEF0E080812A
:1057D00081608083E8EDF0E080818F77808319BC61
:1057E000A7EDB0E08C918E7F8C9380818F7E80833B
:1057F0001092670608950F931F93CF93DF934BD0BA
:1058000052D0C8EDD0E088818F7788838881806806
:10581000888388818F7D888319BC109268061092D6
:105820006406109266061092650600EE10E0F8011C
:1058300080818B7F808388818160888342E060E003
:1058400080E03DDFE1EEF0E080818E7F8083E2EE5C
:10585000F0E0808181608083808188608083F801AE
:1058600080818E7F8083888180618883DF91CF9162
:105870001F910F910895E8EDF0E080818F7E808385
:10588000E7EDF0E080818160808384E082BF81E089
:1058900080936706B0CFE8EDF0E080818E7F808353
:1058A0001092E20008951092DA001092E10008953B
:1058B0001F920F920FB60F9211242F933F934F9385
:1058C0005F936F937F938F939F93AF93BF93EF9368
:1058D000FF938091E10082FF0AC08091E20082FF85
:1058E00006C08091E1008B7F8093E1002DD28091F2
:1058F000DA0080FF18C08091D80080FF14C080912A
:10590000DA008E7F8093DA008091D90080FF91C009
:1059100080E189BD82E189BD09B400FEFDCF81E04F
:105920008093680647DC8091E10080FF18C0809179
:10593000E20080FF14C08091E2008E7F8093E2003D
:105940008091E20080618093E2008091D8008062C3
:105950008093D80019BC85E0809368063DDC809177
:10596000E10084FF2AC08091E20084FF26C080E12C
:1059700089BD82E189BD89B5982F917080FFFBCFE9
:105980008091D8008F7D8093D8008091E1008F7E38
:105990008093E1008091E2008F7E8093E20080910D
:1059A000E20081608093E20080916406882309F41C
:1059B00045C084E08093680616DC8091E10083FF97
:1059C00027C08091E20083FF23C08091E100877FA0
:1059D0008093E10082E080936806109264068091D3
:1059E000E1008E7F8093E1008091E2008E7F8093C2
:1059F000E2008091E20080618093E20042E060E09A
:105A000080E05DDE8091F00088608093F000E1DB53
:105A1000FF91EF91BF91AF919F918F917F916F9186
:105A20005F914F913F912F910F900FBE0F901F905C
:105A3000189519BC10926806C9DB75CF8091E300F8
:105A400087FD93E090936806B7CF1F920F920FB631
:105A50000F9211242F933F934F935F936F937F93F4
:105A60008F939F93AF93BF93CF93DF93EF93FF9366
:105A7000D091E900DF708091EC00C82FC17080FDEB
:105A8000C0E81092E9008091F000877F8093F000D9
:105A900078941ED01092E9008091F0008860809385
:105AA000F000CD2BCF70C093E900FF91EF91DF9113
:105AB000CF91BF91AF919F918F917F916F915F91A6
:105AC0004F913F912F910F900FBE0F901F901895FF
:105AD000AAE2B0E0EDE6FDE205C289E696E020919B
