:100000000C94B0010C94CD010C94CD010C94CD0155
:100010000C94CD010C94CD010C94CD010C94CD0128
:100020000C94CD010C94CD010C9416240C94EA246C
:100030000C94761E0C94CD010C94CD010C94CD0142
:100040000C94CD010C94CD010C94CD010C94CD01F8
:100050000C94CD010C94EE1E0C94CD010C94CD01AA
:100060000C94CD010C94CD010C94CD010C94CD01D8
:100070000C94CD010C94CD010C94CD010C94CD01C8
:100080000C94CD010C94CD010C94CD010C94CD01B8
:100090000C94CD010C94CD010C94CD010C94CD01A8
:1000A0000C94CD010C94CD010C94CD0100002400E2
:1000B000250026002A00000021002200230029003C
:1000C00000001E001F0020002B00D100C15227009D
:1000D000372228000000010001000100007C000020
:1000E00001000100010057000000010001000100B3
:1000F0005600597C0100010001002E004445425584
:10010000473A2064697361626C65642E0A00444555
:100110004255473A20656E61626C65642E0A006C38
:1001200065645F7461736B3A20253032580A004F62
:100130006E6573686F743A206163746976653A20FE
:1001400025640A000A0025303862003A2000253074
:100150003258000A722F632030313233343536374B
:100160000A00290A002575002F002575005D28006A
:10017000256400200025640020002564002000255F
:1001800064007C0025303258006D6F7573656B65B7
:1001900079205B62746E7C782079207620685D28F7
:1001A0007265702F61636C293A205B000A0025306C
:1001B000325820006B6579626F6172645F7265709E
:1001C0006F72743A2025303258207C20007375738A
:1001D00070656E64696E67206B6579626F617264C9
:1001E0000D0A005B575D005B535D005B525D005B79
:1001F000445D005B435D001003640075006D0062A8
:10020000007000610064000000160369006D006367
:100210000068006900700077006F006F00640000E4
:10022000000403090409025400030100A0FA0904B0
:100230000000010301010009211101000122440015
:100240000705810308000109040100010300000003
:10025000092111010001227B000705820320000112
:10026000090402000103000000092111010001221C
:1002700015000705830320000112010002000000A1
:1002800008AFDE13090700010200010631FF0974FF
:10029000A1010975150026FF00952075088102C08F
:1002A00005010902A10185020901A1000509190141
:1002B00029081500250195087501810205010930FD
:1002C00009311581257F9502750881060938158148
:1002D000257F950175088106050C0A3802158125D0
:1002E0007F950175088106C0C005010980A10185BF
:1002F0000319012AB700150126B700950175108171
:1003000000C0050C0901A101850419012AA00215EC
:100310000126A002950175108100C005010906A102
:1003200001050719E029E7150025019508750181E8
:10033000029501750881010507190029FF1500269E
:10034000FF009506750881000508190129051500AB
:100350002501950575019102950175039101C00074
:1003600011241FBECFEFDAE0DEBFCDBF11E0A0E069
:10037000B1E0E8E7FFE402C005900D92A23BB107AF
:10038000D9F722E0A2EBB1E001C01D92A13AB20779
:10039000E1F70E9431130C947B270C940000FF932B
:1003A000EF93E091B201F091B301309709F0099514
:1003B000EF91FF910895FC018591803011F0EFDFFE
:1003C000FBCF0895FF27E0E230E247FF0CC04195E4
:1003D00097FF09C0EDE26095709580959095611D3D
:1003E000711D811D911D27FF02C0219530E350E250
:1003F000AA27660F771F881F991FAA1FA41710F03E
:10040000A41B63955A95A9F7AA3008F0A95FA05DCF
:10041000AF93F395611571058105910541F7ED32B3
:1004200011F4EF93F395F21718F43F93F395FBCF84
:100430008F91B5DFFA95E1F70895E991F9918591EA
:10044000803021F0853219F0AADFF9CF089520E03D
:10045000E89455915532C1F3503311F46894559195
:100460005A3348F4505390F3220F022E220F220FDA
:10047000200D250FF4CF0EF42195899199915336D3
:1004800019F3533729F1533559F1BC0188279927BE
:10049000E8945C3621F48991999168945591543689
:1004A00039F446EF7EF077FF0DC08FEF9FEF0AC063
:1004B00055374AE039F0583540E121F0523642E0F4
:1004C00009F00895FF93EF937DDFEF91FF91B7CF90
:1004D000FF93EF93FC0181918030B9F360DFFBCF94
:1004E000FF93EF9368DFF1CFDF93CF93CDB7DEB704
:1004F0002596A3DFCF91DF910895239A219A0E9438
:100500005A0E08950E94C203882311F02B9829984F
:100510000895CF93DF93EC010E94810480FF0AC00D
:100520002B9A81FF09C0299ACE010E94AB08DF9166
:10053000CF9108952B98F5CF2998F6CF2B9A299A29
:100540002FEF87EE93E0215080409040E1F700C00C
:1005500000002B9829982FEF87EE93E021508040E0
:100560009040E1F700C000002B9A299A2FEF87EE08
:1005700093E0215080409040E1F700C000002B98AC
:1005800029980E94AF1108951F93CF93DF93182FDE
:10059000C62F0E94EF02D82F8823B9F0111115C081
:1005A0008091C6019091C7010E948104811107C00A
:1005B00080EDC11107C08FEC0E94DD0506C0CC2381
:1005C00049F08EE20E94DD05DC2F8D2FDF91CF9167
:1005D0001F9108958DE2F0CF81E008950895CF93A3
:1005E000C62F81110EC08091C6019091C7010E9453
:1005F0008104811109C080EDC11101C08FEC0E94FE
:10060000DD0581E0CF9108958EE2C111F8CF8DE232
:10061000F6CF8230B8F46430A8F4453098F450E056
:1006200095E0699F400D511D1124FA0194E1899FC5
:10063000E00DF11D1124EE0FFF1FE455FF4F8591D2
:100640009491089581E090E008950E94090308952F
:1006500081E008950E94280308950E9428030895C8
:1006600081E008950E94280308950E94EC020895F5
:10067000089508950E943803089508950895A6E006
:10068000B0E0E5E4F3E00C94C52649835A839E83E9
:100690003091B90189819A8131111AC03E81332389
:1006A00099F0222389F00E949109182F682F8981DF
:1006B0009A810E946D0969817A81812F0E943B1085
:1006C0002696E3E00C94E1260E947F09182FF3CFD1
:1006D0000E94910969817A81F1CFFC01262F408126
:1006E000518162817381848195810E943F030895C5
:1006F000CF93DF93EC0161E00E946D03BE010E9485
:100700002A03882359F061E0CE010E946D03BE01E7
:100710000E942D038170DF91CF91089580E0FACF80
:100720000F931F93CF93DF93EC0160E00E946D0362
:100730008C01BE010E943903BE01C8010E943A0328
:10074000DF91CF911F910F91089521E030E0A90131
:1007500002C0440F551F8A95E2F7CA010E948D0816
:100760000895CF93C82F81E090E00C2E02C0880F2F
:10077000991F0A94E2F70E94040E8C2F0E94A50391
:10078000CF91089581E008950E94C2030895CF9308
:10079000C82F0E943B088C2F0E94C4038C2F0E94FC
:1007A00082022FEF84E39CE0215080409040E1F7EB
:1007B00000C00000CF91089581E00E94C7030E940D
:1007C000121F089580E00E94C7030E94231F08950E
:1007D000A2E0B0E0EEEEF3E00C94C4268C0161E000
:1007E0000E946D039A838983B801CE0101960E940D
:1007F000E314811105C080E02296E4E00C94E02629
:10080000B80189819A810E9432038823A1F3B8013B
:1008100089819A810E943503882369F3B80189810F
:100820009A810E943B1C882331F3B80189819A8107
:100830000E94E1178823F9F2B80189819A810E9408
:10084000B9148823C1F2B80189819A810E943D11AF
:10085000882389F2F8018581882379F089819A813A
:100860008330FCE79F07A1F160F48130ECE79E073D
:1008700089F1C0F481159C4791F0C8010E943003B2
:10088000BBCF8B35ECE79E0759F18C35FCE79F0712
:1008900021F18A359C4789F70E94B90DEECF0E945D
:1008A000DC03A9CF90913202892F8E7F90FF816067
:1008B0008093320280FF09C08EE091E09F938F9376
:1008C0000E9474020F900F9096CF8CEF90E0F6CFBD
:1008D0000E94F80D0E94E2038ECF0E94AF0DCDCF93
:1008E0000E94BD0DCACF0E943D030E94491E0E9476
:1008F000D30408950E94D7040E943E030E944E1E16
:100900000895292F332740E02115310511F0C90141
:1009100048E09C0164E0369527956A95E1F721153A
:10092000310511F04C5FC9019C013695279536952C
:1009300027952115310511F04E5FC90196958795D0
:10094000892B09F04F5F842F0895829590E09C01D8
:10095000220F331F220F331F2C7C95958795959579
:1009600087958373282B30E0C901880F991F8A7AF5
:10097000359527952575822B089581E00895089572
:10098000CF93DF93D82F0E94BD04C82F882319F07E
:100990008D2F0E94BF048C2FDF91CF910895089571
:1009A0000E94C004089580E00E94D00408950E942F
:1009B000841C0E94D0040895CF930E94841CC82FE9
:1009C0008091B4018C1701F1C093B4010E94E21E22
:1009D0006093B5017093B6018093B7019093B8010D
:1009E000809132028570853061F41F92CF938FE140
:1009F00091E09F938F930E9474020F900F900F903D
:100A00000F908C2F0E94D004CF910895ADE0B0E0FC
:100A1000ECE0F5E00C94C626488759876A877B8707
:100A20008C879D8791110E94DE0C1F8286E0FE015B
:100A30003896DE01119601900D928A95E1F78D812D
:100A400081110DC029813A814B815C816D817E814C
:100A50008F810E94280C2D96E2E00C94E226CE01B4
:100A600001960E9478038111EDCFF5CFFC0124811E
:100A7000213021F4808191810E94C3090895662369
:100A800029F00E943E190E94111A08950E94981997
:100A9000FACFCF93C82F882399F08CEF8C0F813A2F
:100AA00088F48C2F0E94581D882329F08C2F0E94D7
:100AB0009B1D0E944D0D8C2F0E94931D0E944D0D79
:100AC000CF91089580E28C0F883048F4C77081E0A0
:100AD00001C0880FCA95EAF70E94C10CEFCFEBE581
:100AE000EC0FE33040F4F0E0E25BFE4F808190E0F9
:100AF0000E94F51CE5CFE8E5EC0FEB3150F4F0E097
:100B0000EE0FFF1FE85EFE4F808191810E941C1D49
:100B1000D7CF83E38C0F833198F661E08C2F0E944E
:100B20003F05CECF882381F19CEF980F913A28F4AE
:100B30000E949B1D0E944D0D089590E2980F9830E1
:100B400050F4877091E001C0990F8A95EAF7892FD8
:100B50000E94C70CEFCF9BE5980F933028F490E0EC
:100B600080E00E94F51C089598E5980F9B3128F4C9
:100B700090E080E00E941C1D089593E3980F93314C
:100B800018F460E00E943F0508951F93CF93DF9310
:100B9000182FEB010E944905209739F4812F0E94FC
:100BA0009205DF91CF911F9108958FE99FE0019702
:100BB000F1F700C000002197EFCF70E060E08933CB
:100BC00011F460E570E00E94C5050895882321F0C6
:100BD0000E94C10C0E944D0D0895882321F00E94AF
:100BE000C70C0E944D0D0895B0E0A0E0EAEFF5E0DB
:100BF0000C94BF266C01D62FC72FFC0115810681EE
:100C000002950F700E94B70CE82E8823F9F0E12EB0
:100C10001123E1F08C2F807F803461F080E28D0F12
:100C2000883008F18C2F807E803221F4D230D8F0C9
:100C30000023C9F08091870282FF15C082E00E94E4
:100C4000720D0E94B70C91E0E82EE926BC2EB294FA
:100C50009FE0B922FBE0FB15B8F1EB2DF0E0E35883
:100C6000F84D0C94B026E12CF1CF0C2F0F70C07F03
:100C700011F00295007F112399F0002359F080E2D2
:100C80008D0F883010F0D11107C0802F0E94C10C49
:100C90000E944D0D8D2F48C0802F0E94D10CF8CF9F
:100CA0008D2F0E949205002379F080E28D0F88300D
:100CB00010F0D11104C0802F0E94C70C03C0802FF8
:100CC0000E94D70C0E944D0DEB2DE850FF0B34977E
:100CD00008F06BC10E94841C0E94D004CDB7DEB71F
:100CE000E9E00C94DB262C2F2F70F22EC07FC0324F
:100CF00019F0F29480EFF822DD2341F0D130C9F1F0
:100D0000112309F443C00023E9F0C4CF8091870286
:100D100082FD14C0112359F0FF2029F08F2D0E946D
:100D2000C10C0E944D0D80E00E944905CDCF80E0AE
:100D30000E949205FF2041F28F2DBECF112369F052
:100D4000011104C08F2D0E94E605BECF013009F0CD
:100D5000BBCF8F2D0E94F50CB7CF0111B5CF8F2DD2
:100D60000E94ED058F2D0E94010D8F2D0E94E50C34
:100D7000ABCF112321F0033008F0A6CFE3CF023030
:100D800008F0A2CF8F2D0E94ED059ECF0023D1F356
:100D9000D93349F43FEF87EE93E0315080409040E3
:100DA000E1F700C000008D2F0E9492058DCF8C2F9F
:100DB00086958695837069F0813009F085CF8D2FF7
:100DC0009C2F9370111102C080E090E00E941C1DC6
:100DD0007BCF8D2F9C2F9370111102C080E090E08B
:100DE0000E94F51C71CF612F8D2F0E943F056CCFA3
:100DF0008C2F8370A1F5111167CF4D2F4295469529
:100E00004770440F440F2D2F2F7030E0042E02C086
:100E1000220F331F0A94E2F790E080E0D4FF09C06C
:100E20008FE090E002C0880F991F4A95E2F7809505
:100E30009095C695C695C370822B932BC23049F00E
:100E400058F4C13019F00E9499083ECF0E949008D2
:100E50003BCF0E94A20838CF0E948D0835CF8695DF
:100E6000112311F08C2F8170882309F42DCF4D2F81
:100E7000429546954770440F440F2D2F2F7030E058
:100E8000042E02C0220F331F0A94E2F790E080E0A4
:100E9000D4FF09C08FE090E002C0880F991F4A95E7
:100EA000E2F780959095C695C695C370822B932BDB
:100EB000C23049F058F4C13019F00E94060904CF3D
:100EC0000E94FD0801CF0E940F09FECE0E94B108CA
:100ED000FBCECF70112329F08C2F0E94CB088D2FD1
:100EE00032CF8D2F0E94ED058C2F0E94DB08ECCEB7
:100EF000D23F41F160F4D03FB9F0D13F81F01123EE
:100F000009F443C00111C6CE8C2F8F711FC0D33F8F
:100F100001F1D43FA1F78091870282FD24C08C2F7C
:100F20008F71112311F312C0112341F0023008F028
:100F3000CBCE8C2F8F710E94ED08C6CE033008F007
:100F4000C3CEF7CF8C2F8F711111CFCF0E94CB085A
:100F5000BBCE112329F08C2F8F710E94BF08B4CE15
:100F60000E94BA08B1CE112331F063E08C2F8F714B
:100F70000E94540DA9CE81E00E94720D023008F447
:100F8000A3CE82E00E94720D9FCE002359F0D93388
:100F900009F009CFEFEFF7EE23E0E150F0402040F9
:100FA000E1F7FFCE8C2F8F71A0CFEE2009F496CE03
:100FB0000E94B30C80FD92CEF60115820E94AD0C0A
:100FC0000E94CB08C6010E9402080E94AD0C0E943C
:100FD000DB0884CE0F931F93CF93DF93EC016881DE
:100FE00079818D810E94CE098C010E9418090E948E
:100FF0008C08B801CE010E94F405DF91CF911F91BA
:101000000F910895CF93DF93EC018C81882399F0A1
:10101000CE010E94E803811111C00E94B70C882301
:1010200051F08D81882339F08091870282FF03C0BF
:1010300082E00E94720DDF91CF910895CE010E944F
:10104000EA07CE010E949003F6CF90E080E00E9474
:10105000F51C90E080E00E941C1D0E94DE0C0E94A6
:101060004D0D0E94C71A0E94111A08950E94A31DD7
:101070000E94250808950E94CE0C0E94360808950B
:1010800092959F70963091F058F4925F9F709230D5
:1010900058F4803F19F030F4883E30F481E0089530
:1010A0009A5FF4CF843FD1F380E00895883EB0F397
:1010B000813FD1F7F3CFFC012481222339F08081D5
:1010C00091810E94C3090E944008089580E008951C
:1010D000A6E0B0E0EEE6F8E00C94C6262696E2E044
:1010E0000C94E226A7E0B0E0E8E7F8E00C94C6260E
:1010F0002796E2E00C94E22608950E947C08089569
:101100000E947D0808950E947C080E9480089093A8
:10111000C9018093C801089508950E948308089525
:101120002091C8013091C901822B932B0E94830822
:1011300008952091C8013091C901822393230E9410
:10114000830808952091C8013091C901822793270F
:101150000E94830808950E947C0808950E947C08DC
:1011600008950E94AE080E9489029093C70180935F
:10117000C601089590E080E00E94B108089521E042
:1011800030E0A90102C0440F551F8A95E2F7CA0159
:101190000E94B108089521E030E002C0220F331F01
:1011A0008A95E2F78091C6019091C701822B932B1B
:1011B0000E94B108089521E030E002C0220F331FE1
:1011C0008A95E2F7209530958091C6019091C701EC
:1011D000822393230E94B108089521E030E002C0E9
:1011E000220F331F8A95E2F78091C6019091C701C3
:1011F000822793270E94B10808952091C60130915B
:10120000C701822B932B0E94B10808952091C6013B
:101210003091C701822393230E94B1080895209141
:10122000C6013091C701822793270E94B108089513
:101230000895262F277091E001C0990F2A95EAF7AB
:1012400023E0769567952A95E1F7660F771F660F7D
:10125000771FFA01E60FF71F50E040E0682F70E0BB
:101260008191DF0111979B01042E02C036952795CD
:101270000A94E2F7217021952827292328272C9307
:101280004F5F5F4F4430510559F70895A82FA7705D
:1012900023E0969587952A95E1F7880F991F880F87
:1012A000991FFB01E80FF91F50E040E080E0219119
:1012B00030E00A2E02C0369527950A94E2F7217095
:1012C0003327042E01C0220F0A94EAF7822B4F5FC6
:1012D0005F4F4430510559F70895262F943070F42C
:1012E000853060F4682F70E085E0989F600D711D77
:1012F00011244AEB51E0822F0E9419090895292FE9
:10130000943068F4853058F490E06AEB71E035E091
:10131000239F800D911D11240E944609089580E0AD
:101320000895B0E0A0E0E7E9F9E00C94BF267C0165
:101330000091C6011091C7018091C8019091C90127
:10134000082B192BCFE0D0E0CC24C394D12CBC2E99
:10135000C6010C2E02C0880F991F0A94E2F7802361
:101360009123892B49F4219790F7B12C8B2DCDB780
:10137000DEB7E9E00C94DB26B7018C2F0E94471002
:10138000019789F3F3CFCF93DF93EC010E9491098A
:10139000BE010E944710DF91CF9108951F93CF9314
:1013A000DF93EB019091B901992339F0CB010E94B1
:1013B000C309DF91CF911F910895882369F0CB0174
:1013C0000E949109182F682FCE010E946D09BE015D
:1013D000812F0E944710EDCFCB010E947F09182F6B
:1013E000F6CF1F93CF93DF93C091CA0117E080918E
:1013F000CB018C1304C0DF91CF911F910895D0E0F1
:101400001C9FF0011D9FF00D1124E453FE4F20811D
:101410003181428153816481758186810E94720885
:101420002196C770E4CF20910402309105024091CB
:1014300006025091070260910802709109028091A2
:101440000A020E9472080895CF93DF9380910A02E6
:10145000807F09F04DC080910902882309F448C0BB
:10146000E091CA015091CB01C0910502D0910402D4
:10147000609106027091070247E05E17C9F18E2F56
:1014800090E0E49FF0011124E453FE4F24812223D5
:1014900091F1489FF001499FF00D1124DF01A45301
:1014A000BE4F11962C9111972C1325C02C912D1302
:1014B00022C015962C91159721111DC012962D91C1
:1014C0003C91261B370B283C3105A8F480910A0279
:1014D0008F70806180930A02EE52FE4F80818F7080
:1014E0008061808384E092E00E9402080E94F109FA
:1014F000DF91CF910895FC013196E770BECF482F60
:101500002091CA019091CB0157E0291302C080E0DD
:10151000089530E0529FF001539FF00D1124E453E1
:10152000FE4F8181681306C08081481303C0858106
:101530008111EECF2F5F3F4F2770E7CFA4E1B0E0DE
:10154000E4EAFAE00C94BC268C0186E0F801DE01A6
:101550001F9601900D928A95E1F7F8018481E5804C
:1015600094E0A92E92E0B92E9091080291111FC02B
:101570008823D1F0EE20A9F0C8010E945B08F82E64
:10158000882379F087E0F801D50101900D928A95C2
:10159000E1F7C5010E9436050E94240A0E94130A41
:1015A0005FC0C8010E940208FF24F39459C0C080A4
:1015B000D18082809380F0900902209106023091C0
:1015C0000702A401421B530BFF2009F4F9C0483C59
:1015D000510508F0A7C0882309F442C09091050284
:1015E00080910A02282F207F09F05CC09D1116C04F
:1015F00090910402C91212C0E1104EC08F70806138
:1016000080930A020E94130A84E092E00E9402087A
:1016100080910A02F8018683F12C22C0E1103CC0BF
:101620006D2D8C2D0E947F0A6D2D8C2D0E947F0ABE
:10163000E82E8111F1CFCF86D88A8F8598890E94B4
:10164000C309292F22952F70243078F49F702230FF
:10165000A8F09923B9F0F8019681907F99F4FE2CB7
:101660008F2D6496ECE00C94D8262A5F2F702230E0
:1016700068F0C8010E940208EF2CF1CF992311F005
:10168000882369F3805E883050F3F3CF803F38F3CE
:10169000815F833070F7E3CF80910A02816080938D
:1016A0000A02BACF9D1113C090910402C9120FC053
:1016B000E1100DC08683C8010E94020887E0F8018E
:1016C000A4E0B2E001900D928A95E1F767CFC801DE
:1016D0000E945B08882309F464CFEE2009F461CFEF
:1016E00080910A02803288F0209104023091050234
:1016F000398728879B868A86909108029C871D8659
:101700008E87CE0108960E94020887E0F801A4E0C7
:10171000B2E001900D928A95E1F70E94240A0E949E
:10172000130A42CF90910A02292F207FA1F4682D3D
:101730009A8A898AA6017A899E2D0E94680884E087
:1017400092E00E94020887E0F50111928A95E9F77C
:101750000E94130A61CF882309F482CF8091050289
:101760008D1110C080910402C8120CC0E1100AC093
:101770009683C8010E94020887E0F50111928A95BC
:10178000E9F76ECFC8010E945B08882309F409CFEE
:10179000EE2009F406CF80910A02803208F4B5CF1A
:1017A00020910402309105023A8329839C828B8226
:1017B000909108029D831E828F83CE010196A3CF54
:1017C000483C5105B8F5882309F4EECEFE2CEE20F6
:1017D00009F4E7CE809105028D111EC080910402AC
:1017E000C8121AC080910A0280FD0DC0982F907F08
:1017F00051F08683903F09F45ECF982F907F905FE1
:101800008F70892B57CF87E0F801A4E0B2E00190F8
:101810000D928A95E1F724CFC8010E945B088111DF
:1018200074CF80910A02816080930A02C8010E94ED
:10183000020816CF682D9A8A898AA6017A899E2D78
:101840000E94680887E0F50111928A95E9F7A6CE13
:10185000AEE0B0E0EEE2FCE00C94C52628873987C4
:101860004A875B876C877D878E87CE0108960E94AA
:101870009E0A8823B1F06C85662341F0288539855E
:101880004A855B857D858E850E94720817E0809170
:10189000CA019091CB0189133DC02E96E3E00C94D0
:1018A000E12687E0FE013896DE01119601900D9247
:1018B0008A95E1F78C85882349F32091CB0130E0AC
:1018C000C9010196877099274091CA0148171906E6
:1018D00099F097E0929FD001939FB00D1124A453EB
:1018E000BE4FFE01319601900D929A95E1F78093DB
:1018F000CB010E94F109CACF0E943B081092CB0194
:101900001092CA0187E0E4E0F2E0DF011D928A95BF
:10191000E9F7BCCF819FC001112484539E4F0E94E0
:101920009E0A882309F4B9CFE091CA011E9FF001F5
:101930001124E453FE4F208131814281538164811F
:10194000758186810E9472088091CA0190E001969B
:10195000877099278093CA019ACF80911302869548
:1019600086958695089580911302877008959091C9
:101970001302977081E009F480E0089580911F02BE
:10198000089590911F02892B80931F0208958095DE
:1019900090911F02982390931F02089510921F02A6
:1019A000089590911E02892B80931E0208958095C0
:1019B00090911E02982390931E02089510921E0289
:1019C000089508950E94E10C089590911402292F22
:1019D000282331F080958923809314020E94E20C21
:1019E000089508950E94F10C089590911502292FF1
:1019F0002823281729F0982B909315020E94F20CA7
:101A0000089590911502292F282331F0809589237C
:101A1000809315020E94F20C08958091150288238C
:101A200029F01092150280E00E94F20C08950F93A5
:101A30001F93CF93DF930091000110910101C0919A
:101A40001F0280911E02C82B80911502882331F05D
:101A5000C82B0E94431D81110E940D0DF801C08307
:101A6000C0910001D091010148E050E06BE072E0CC
:101A7000CE010E942327892B59F088E0FE01ABE0BC
:101A8000B2E001900D928A95E1F7CE010E94931C7D
:101A9000DF91CF911F910F9108950E94170D089526
:101AA00008950E94500D08959091870292FF11C0F1
:101AB00098E0899F90011124622B609313020E9489
:101AC000CB08809113028695869586950E94510DCC
:101AD00008950E94CB0808951092130280E00E949E
:101AE000510D0895909113028095892380931302DC
:101AF000282F277069F4891759F09091870292FF77
:101B000007C08695869586950E94DB080E946C0D1D
:101B10000895CF93C82F8091870282FB992790F96F
:101B20009C17D9F0C0FB82F98093870286E892E087
:101B30000E940A0E82E00E94720D8091320280FFA4
:101B40000CC01F92CF938FE291E09F938F930E94DE
:101B500074020F900F900F900F90CF910895809185
:101B6000870282FB882780F991E089270E94890DEE
:101B7000089581E00E94890D089580E00E94890DFA
:101B8000089560E070E0CB010E94A211089560E02A
:101B900070E0CB010E949B110E94C10D0895A3E04B
:101BA000B0E0E5EDFDE00C94C6260E944F110E94C6
:101BB0005B111B82CE0103960E94741181E090E0BC
:101BC0009093C9018093C8010E9481111A821982E1
:101BD0008A8184618A83CE0101960E9493110E94BA
:101BE000C70D2396E2E00C94E2260E94CF0D0895E3
:101BF0000E94621108950E94501108950E94691177
:101C000008950E947B1108950E94811108950E94F9
:101C1000871108950E94931108950E94A9110895B3
:101C2000A6E0B0E0E6E1FEE00C94C4260E94D61ED9
:101C30008C0180912002909121028017910781F000
:101C400019821A820E94D61E682F49815A81792FE3
:101C500080E090E00E94060510932102009320028C
:101C60002696E4E00C94E0260E94E21E60932E0289
:101C700070932F02809330029093310260932A0276
:101C800070932B0280932C0290932D0208950E9452
:101C9000E21E60932E0270932F0280933002909385
:101CA000310260932602709327028093280290935A
:101CB000290208950895089508950E945C0E0E94D7
:101CC0007D0208950E94EE02089508950E94650E17
:101CD0000E94620E089580EE90E20E9448130E94D6
:101CE0005B0E0E945D0E089581E008950E94740EBF
:101CF00008950E94740E08950895089508950E940D
:101D00007C0E0E947D0E0E947E0E08950E94FB0DA7
:101D1000811102C00E94F50D82E392E00E94FE0D47
:101D200086E892E00E94070E0E94B6140E94010EFF
:101D30000E948D088091C6019091C7010E9489027E
:101D400008950E94CD1E0E9450130E94A1120E946D
:101D5000860E0E94CF040E94660E0895A6E0B0E0B1
:101D6000E4EBFEE00C94BD260E94760E81110FC0BC
:101D70000E94100E0E94B71381110E94470E0E940C
:101D8000E91A0E94DC042696EBE00C94D9260E9406
:101D9000B71282E2A82E82E0B82E750110E0F7019A
:101DA00001917F01812F0E94B4111F5F143009F44B
:101DB00041C00817A1F38091320281FD0E94BA113F
:101DC0000E94790EC82E10E099249394812F0E94CE
:101DD000B411082FF50181915F01081729F1F12C49
:101DE000EE24E394D02ED8268D2D8E21A9F0CC2080
:101DF00099F0F9821A830E94D61E9C838B839D8260
:101E000091E0802F8E2109F490E049815A816B8105
:101E10007C818D810E940605F394EE0CF5E0FF12A3
:101E2000E3CFF501319700831F5F143079F60E94EC
:101E3000340EA0CF0813BFCF9BCF1F93CF93DF9358
:101E40000E944C10EC01C11580E5D807F0F5C115D2
:101E500080E4D80708F09CC0C03ED10520F5CD3CF9
:101E6000D10508F082C0C83AD10578F4C53AD10549
:101E700008F073C0C130D10519F1209709F1C430C1
:101E8000D105F0F4D0E0C0E01BC0C33CD105D0F7D1
:101E9000C85AD0E0CC0FDD1FCF5ADE4F0990D88151
:101EA000C02DD4640DC0C11580E2D80708F0D1C0A0
:101EB000C11581E0D80708F05AC0C83ED10510F717
:101EC000CE01DF91CF911F910895C03682E5D807EA
:101ED00018F5C03482E5D80708F06BC0C03282E53F
:101EE000D80708F05FC0C11582E5D80708F497C08D
:101EF0002C2F2695269580E2289F900111248C2F67
:101F00008370C1E0D0E002C0CC0FDD1F8A95E2F7FC
:101F1000C22BD32BDD68D4CFC03A82E5D80760F45A
:101F2000C03882E5D80708F459C0CF71D0E0DC2F63
:101F3000CC27C46FD06AC4CFC03C82E5D80708F470
:101F400062C0C03E82E5D80708F09CCFDC2FCC27CA
:101F5000CC27DF71C06FD06AB3CFC55AD0E0C95764
:101F6000DE4FC881D0E0D064ABCFD065A9CF8D2F34
:101F70000E94EE10182FCE0199270E944C10C12FFD
:101F8000D0E0DC2FCC27CC27DF71C82BD92B98CF02
:101F9000CE0199270E944C10CC27DF70C82BD92B7B
:101FA000D06A8ECFCF71D0E0DC2FCC27C16FD06A42
:101FB00087CF2C2F26952695277080E2289F9001A9
:101FC00011248C2F8370C1E0D0E002C0CC0FDD1F44
:101FD0008A95E2F7C22BD32BDC6872CF2C2F269583
:101FE0002695277080E2289F900111248C2F837002
:101FF000C1E0D0E002C0CC0FDD1F8A95E2F7C22B12
:10200000D32BDA685DCF8C2F8F710E94EE10C82F12
:10201000D0E0DC2FCC27CC27DF71D06251CF8C2FC2
:102020008F710E94EE1055E0D695C7955A95E1F74D
:10203000CF70D0E0DC2FCC27282F30E084FF05C004
:1020400044E0220F331F4A95E1F7C22BD32BD0690E
:1020500037CF8D2F8F710E94EE10182FCE01992748
:102060000E944C10C12FD0E0DC2FCC27CC27DF7191
:10207000C82BD92BD2CF462F743030F4653020F4E2
:10208000672F0E942503089590E080E008950E9444
:102090003B100E941D0F089582389105B9F1B0F4EC
:1020A0008133910509F47DC048F48932910509F422
:1020B0006DC08A32910509F47BC00895853391057E
:1020C00009F45FC08933910509F10895833E9105B4
:1020D000D9F138F4803E910529F1823E910579F1DC
:1020E0000895863E9105D9F1873E910509F43EC0D9
:1020F000843E910541F52091870221FF24C0809103
:10210000860284FD19C087EE90E008952091860232
:10211000237009F05AC02091870223FF14C089E27E
:1021200090E008952091860220FD38C0309187020A
:1021300030FF09C024FF43C090E080E00895209163
:10214000860222FDF7CF08952091860222FD3AC033
:102150003091870230FD39C024FFF5CFEDCF2091BB
:10216000860223FFF0CF24FDE7CFCDCF209186025A
:1021700023FD2EC03091870231FFEECF84EE90E038
:1021800008952091860225FFDECFC9CF20918602D7
:1021900025FD21C02091870223FFD5CF89E390E060
:1021A000D2CF2091860226FFCECF8AE290E008951A
:1021B0002091860226FFC7CF81E390E0089583EE49
:1021C00090E0089582EE90E0089580EE90E008950A
:1021D00086EE90E0089585E390E008959091860260
:1021E00092FF10C041E0282F2471243009F040E014
:1021F00031E0282F2871283009F030E0431711F022
:102200002CE0822793FF10C041E0282F2471243155
:1022100009F040E031E0282F2871283109F030E042
:10222000431711F02CE082273091870230FF10C055
:1022300051E0282F2171213009F050E041E0282F92
:102240002871283009F040E0541711F029E0822766
:1022500031FF10C041E0282F2171213109F040E009
:1022600031E0282F2871283109F030E0431711F0B0
:1022700029E0822794FD877E0895CF939C01205EFC
:102280003245C1E02032310538F4FB01C581C1116E
:1022900003C08F710E94B1038C2FCF9108950895D0
:1022A00090E080E00E94412721E0833E9E4F09F0AC
:1022B00020E0822F089563EE7EEF90E080E00E94A0
:1022C000652708956FEF7FEF90E080E00E9465271B
:1022D0000895CF93DF93EC0182E090E00E943927CC
:1022E0008883DF91CF910895FC01608182E090E0C6
:1022F0000E944727089583E090E00E94392790E0EC
:102300000895682F83E090E00E9447270895CF93B7
:10231000DF93EC0184E090E00E9441279983888359
:10232000DF91CF910895FC016081718184E090E09C
:102330000E9465270895AB01BC018FE090E00E94E8
:1023400059270895AB01BC0183E190E00E94592711
:102350000895682F8EE090E00E9447270895089521
:1023600008950E94B0110895E82FF0E0E457FD4F62
:1023700080810895B0E0A0E0E0ECF1E10C94BC268F
:1023800083E591E09F938F930E9474028CE8E82E7E
:1023900082E0F82E0F900F90912C812C9EE4A92EB4
:1023A00091E0B92E2BE4C22E21E0D22E06E411E0FA
:1023B000C4E4D1E09F928F92BF92AF920E947402C8
:1023C000DF92CF920E947402F70181917F010E94F7
:1023D000A5041F928F931F930F930E947402DF93A3
:1023E000CF930E9474029FEF891A990AEDB7FEB746
:1023F0003C960FB6F894FEBF0FBEEDBFF4E08F160B
:102400009104C1F6CDB7DEB7ECE00C94D82680EA93
:102410008A95F1F7089500C008950E940712089563
:10242000F894E82FE295EF70F0E031A1282F2F709B
:1024300081E090E001C0880F2A95EAF7982F9095E7
:10244000932391A392A1892B82A378940895CF938B
:10245000DF9384EF0E94101285EF0E94101286EF26
:102460000E94101287EF0E941012CAE8D1E08991F1
:102470008F3F11F00E94101281E0CF38D807B9F7D2
:10248000DF91CF910895B0E0A0E0E9E4F2E10C948F
:10249000C026EC01D62E062F10E0C80181579E4FB2
:1024A0007C01FC0180818F3F09F444C0F894E82F3F
:1024B000E295EF70F0E091A18F7021E030E001C073
:1024C000220F8A95EAF7892F822B81A382A120957A
:1024D000282322A378940E940B12EAE8F1E031E06D
:1024E000C12C21912F3F59F1A22FA295AF70B0E0DE
:1024F00090968C9190E02F7002C0959587952A95C3
:10250000E2F780FD1CC0832FC82A330F81E0EF382B
:10251000F80739F7F70180818F3F11F00E94101200
:1025200061E0C11001C060E08D2D0E940D12C00F4E
:10253000D11FC882CDB7DEB7E8E00C94DC2680E07E
:10254000E3CF0E94271284E0ECE8F2E0DF01982F4D
:102550001D929A95E9F7E8E8F2E0DF011D928A956D
:10256000E9F784E00E94F4120E949E020895A4E01C
:10257000B0E0EDEBF2E10C94C52619821A821B82C1
:102580001C8210E0612FCE0101960E9443121F5F52
:102590001430C1F744E050E0BE016F5F7F4F88E820
:1025A00092E00E94232721E0009709F420E0892B84
:1025B00061F089819A81AB81BC818093880290937C
:1025C0008902A0938A02B0938B0244E06CE872E027
:1025D00088E892E00E94F512182F0E94B111812F15
:1025E0002496E3E00C94E1260895B0E0A0E0EBEF40
:1025F000F2E10C94C0266C017B01042FC22F222330
:1026000079F081E0809335020E94D61E90933402C7
:102610008093330280E0CDB7DEB7E8E00C94DC268F
:10262000D0913502DD23B1F38091330290913402D1
:102630000E94651E059770F310E0A801B601C7015E
:102640000E942327892B31F0A801B601C7010E94FF
:102650003027CD2F109235028C2FDDCF0E94AE0E89
:1026600008950E946F1E0E9442210E946B0E0E94DC
:102670005C210E94A10E0E9469210E946E210E948D
:102680002E130E9494210E94771F0E947F0EF5CF87
:102690009093B3018093B20108950E94740E08953F
:1026A000E7E3F2E088E0DF011D928A95E9F70E94F6
:1026B0003F140895FC01228130E02F5F3F4F2370CB
:1026C0003327938181E09217130609F080E0089583
:1026D0000F931F93CF93DF93EC01162F042F0E94CB
:1026E0005A13811117C08A81FE01E80FF11D1F776F
:1026F00064816078612B00FB67F964838F5F83706E
:102700008A8388818F5F888381E0DF91CF911F91D9
:102710000F91089580E0F9CFFC01A38182818A178F
:10272000B1F0AE0FBF2FB11D14968C9187FB992786
:1027300090F98F77DB018C93DA019C9383818F5F13
:102740008370838381818F5F818381E0089580E03E
:102750000895462F682F87E392E00E94681308953A
:10276000AB01BC0187E392E00E948C130895A2E0C4
:10277000B0E0EDEBF3E10C94C4268091360288239F
:1027800051F0109236028091390280933A02809182
:102790003702809338020E947E140E944D13182F36
:1027A000882389F010E005C069818A810E94C402F3
:1027B000102FBE016F5F7F4FCE0102960E94B013B3
:1027C000082F8111F1CF812F2296E4E00C94E026AE
:1027D0008FE891E00197F1F700C00000089520E92B
:1027E000611124E93AB12F7081E090E001C0880FB7
:1027F0002A95EAF7982F909593239AB99BB1892B44
:102800008BB9089520E9611124E989B190E02F7016
:1028100002C0959587952A95E2F7817008950895ED
:10282000CF93DF93C0E080913F02C81760F00E9411
:10283000E813C0E080913F02C81778F00E940F149F
:10284000DF91CF91089560E08C2F0E94EF1361E03B
:102850008C2F0E94EF13CF5FE6CF60E08C2F0E9499
:102860000214D82F61E08C2F0E940214EC2FF0E0AC
:10287000EF5BFD4F880F8D2B8083CF5FDBCF81E037
:1028800080933F020E94101408951F93CF93DF930B
:10289000182FE42FEE0F6E2BC82FD0E0DE01AF5BB8
:1028A000BD4FEC918E2F8370681721F1EE0FEE0F64
:1028B000E62BEC93EF70F0E0ED56FE4FC05CDD4F81
:1028C00080819881890F8883843024F060E0812F93
:1028D0000E94A91388818D3F24F461E0812F0E941A
:1028E000A9138881082E000C990B64E070E00E9407
:1028F0009C268883DF91CF911F910895CF93DF931A
:10290000C0E080913F02C81718F0DF91CF91089581
:1029100061E08C2F0E940214D82F60E08C2F0E945F
:1029200002144D2F682F8C2F0E944514CF5FE9CFE2
:102930000E94F80D089583E00E94B41181700895FB
:102940000E94B7122FEF86E791E02150804090401F
:10295000E1F700C000000E94B7120E949B14882378
:1029600021F00E9498140E94121F08950E94A01442
:102970000895CF93DF93EB0186319C4711F50E94B8
:10298000BE0C9D81992399F08A7A91E009F490E038
:1029900090934202811109C089E20E94931D0E9416
:1029A0004D0D80E0DF91CF91089585E3F6CF8091C2
:1029B0004202811104C089E20E949B1DF0CF85E391
:1029C000FBCF81E0EFCFB0E0A0E0E9EEF4E10C94C2
:1029D000B826EC01E881F981CF01815A92454F97E1
:1029E00020F480EAE82782E5F827DB0115964C9071
:1029F000442009F45EC2EF3FF105A9F0A0F0E935EB
:102A0000FC4721F010924302A42D07C0809143029D
:102A100091E0892780934302A0E08A2FCDB7DEB7EB
:102A2000E0E10C94D426A0914302AA2309F4E9C062
:102A300010924302E03CF105F0F5E038F10508F0B2
:102A4000AAC0E034F10508F070C021E030E040E0B9
:102A500050E060E070E080E090E00E2F0E94ED26F4
:102A6000B09144022B2BB09145023B2BB091460212
:102A70004B2BB09147025B2BB09148026B2BB0916E
:102A800049027B2BB0914A028B2BB0914B029B2BBE
:102A900020934402309345024093460250934702EC
:102AA000609348027093490280934A0290934B02CC
:102AB000F983E883B2CFEF3FF10509F030F621E06A
:102AC00030E040E050E060E070E080E090E08F01B6
:102AD000005C11090E94ED26B0915C022B2BB09195
:102AE0005D023B2BB0915E024B2BB0915F025B2BE2
:102AF000B09160026B2BB09161027B2BB0916202AE
:102B00008B2BB09163029B2B20935C0230935D0270
:102B100040935E0250935F02609360027093610283
:102B20008093620290936302C3CF21E030E040E0E3
:102B300050E060E070E080E090E08F010054110907
:102B40000E94ED26B0914C022B2BB0914D023B2BF5
:102B5000B0914E024B2BB0914F025B2BB0915002C3
:102B60006B2BB09151027B2BB09152028B2BB09109
:102B700053029B2B20934C0230934D0240934E0204
:102B800050934F026093500270935102809352020F
:102B9000909353028DCF21E030E040E050E060E0C0
:102BA00070E080E090E08F01005811090E94ED264E
:102BB000B09154022B2BB09155023B2BB091560291
:102BC0004B2BB09157025B2BB09158026B2BB091FD
:102BD00059027B2BB0915A028B2BB0915B029B2B3D
:102BE000209354023093550240935602509357025B
:102BF000609358027093590280935A0290935B023B
:102C000057CFE034F10508F06BC07090440280901B
:102C1000450290904602D0914702C0914802B0917F
:102C2000490250904A0260904B0221E030E040E0BF
:102C300050E060E070E080E090E00E2F0E94ED2612
:102C400059016A017B018C01272D2A21382D3B2156
:102C5000492D4C215D2F5D216C2F6E217B2F7F2113
:102C6000852D8023962D91230E94062709F0CCCE36
:102C7000E03CF10508F08EC0E038F10508F0EBC04B
:102C8000E034F10508F0B9C021E030E040E050E068
:102C900060E070E080E090E00E2F0E94ED2620952D
:102CA0003095409550956095709580959095272129
:102CB000382149215D236C237B2385219621209394
:102CC000440230934502409346025093470260937A
:102CD00048027093490280934A0290934B029DCE22
:102CE000E038F105E0F470904C0280904D02909035
:102CF0004E02D0914F02C0915002B09151025090BB
:102D000052026090530221E030E040E050E060E089
:102D100070E080E090E08F01005411098FCFE03C1B
:102D2000F105E0F4709054028090550290905602A4
:102D3000D0915702C0915802B091590250905A0256
:102D400060905B0221E030E040E050E060E070E045
:102D500080E090E08F010058110970CF70905C0204
:102D600080905D0290905E02D0915F02C0916002FF
:102D7000B0916102509062026090630221E030E005
:102D800040E050E060E070E080E090E08F01005CA7
:102D9000110954CFEF3FF10511F008F075CF8F0105
:102DA000005C110921E030E040E050E060E070E0BC
:102DB00080E090E00E94ED2620953095409550955A
:102DC00060957095809590952721382149215D2344
:102DD0006C237B238521962120935C0230935D0236
:102DE00040935E0250935F026093600270936102B1
:102DF000809362029093630210CE8F0100541109F8
:102E000021E030E040E050E060E070E080E090E001
:102E10000E94ED26209530954095509560957095CF
:102E2000809590952721382149215D236C237B23B0
:102E30008521962120934C0230934D0240934E02FF
:102E400050934F026093500270935102809352024C
:102E500090935302E2CD8F010058110921E030E038
:102E600040E050E060E070E080E090E00E94ED26FD
:102E700020953095409550956095709580959095EA
:102E80002721382149215D236C237B23852196212D
:102E900020935402309355024093560250935702A8
:102EA000609358027093590280935A0290935B0288
:102EB000B4CDA1E0EF3FF10509F0B8F5E034F1053C
:102EC000B0F58090440290904502D0914602C091A6
:102ED0004702B0914802A091490260904A02709066
:102EE0004B0221E030E040E050E060E070E080E044
:102EF00090E00E2F0E94ED2659016A017B018C01A2
:102F0000282D2A21392D3B214D2F4C215C2F5D216D
:102F10006B2F6E217A2F7F21A1E0862D8023972DA4
:102F200091230E94062709F4A0E0A17076CDE03835
:102F3000F105E0F480904C0290904D02D0914E0249
:102F4000C0914F02B0915002A09151026090520284
:102F5000709053028F010054110921E030E040E0ED
:102F600050E060E070E080E090E0C4CFE03CF1052C
:102F7000A0F48090540290905502D0915602C091D6
:102F80005702B0915802A091590260905A02709075
:102F90005B028F0100581109E0CF80905C02909095
:102FA0005D02D0915E02C0915F02B0916002A0917B
:102FB000610260906202709063028F01005C1109EF
:102FC000CCCFCF93DF93EC01FB018581882309F4FB
:102FD000CEC09E0130572332310508F0AEC086E8DE
:102FE00092E00E94070EFE01E150F047E232F10547
:102FF00020F4E757F84D0C94B0268091860281604A
:103000008093860293C080918702886080938702B4
:103010008DC0809186028260F3CF809186028460A9
:10302000EFCF809186028860EBCF8091870281602C
:10303000EDCF809187028260E9CF80918602806126
:10304000DFCF809186028062DBCF80918602806430
:10305000D7CF0E943B08809186028068D1CF8091B3
:1030600086028C60CDCF809187028360CFCF809124
:1030700086028E7FC5CF80918702877FC7CF8091E0
:1030800086028D7FBDCF809186028B7FB9CF8091E4
:103090008602877FB5CF809187028E7FB7CF8091E0
:1030A00087028D7FB3CF809186028F7EA9CF8091DA
:1030B00086028F7DA5CF809186028F7BA1CF0E9453
:1030C0003B08809186028F779BCF80918602837F19
:1030D00097CF809187028C7F99CF8091860282FB67
:1030E000992790F921E0922790FB82F990FB83F9D0
:1030F00087CF80918702982F909591708E7F892B32
:1031000090FB81F983CF90918602892F8F7B96FF68
:10311000806476CF0E943B0890918602892F97FBAE
:1031200087F980586DCF81E00E940D0E86E892E00D
:103130000E940A0E0E943B0880E0DF91CF91089523
:1031400080E0F2CF90918602892F8F7E94FF80617C
:1031500057CF90918602892F8E7F90FF816050CF4C
:1031600090918702892F877F93FF88604FCF81E0FE
:10317000E4CF282F35EB2303C001112497FF04C0AF
:1031800080589109892F089580589F4FFBCF8091D7
:103190006A0280FF0DC06091070170E0660F771F23
:1031A0006038710570F56115710569F1862F089514
:1031B00081FF07C06091070184E0689FB00111247E
:1031C000EFCF6091070182FD0AC0809169028823D8
:1031D000A9F02091060160910701821710F088E0A4
:1031E000ECCF869FC001112433E0880F991F3A95D8
:1031F000E1F7622F70E00E949C26D2CF68E070E079
:10320000D5CF8FE7089581E0089580916A0280FF0D
:103210000CC06091030170E0759567957595679591
:103220006115710549F1862F089581FF06C06091EF
:10323000030170E075956795F3CF6091030182FDFE
:103240000BC0909168029923A1F0609102018091D6
:103250000301961738F0682F70E06038710500F3AD
:103260008FE70895899FC001112470E00E949C2679
:10327000F4CF61E070E0D7CF81E008958D3C31F468
:103280000E94C718819580936E0208958E3C19F4B0
:103290000E94C718F8CF8F3C31F40E94C71881955F
:1032A00080936D020895803D19F40E94C718F8CFED
:1032B000893D29F40E94051980936F0208958A3D83
:1032C00021F40E9405198195F7CF8B3D31F40E94BE
:1032D000051981958093700208958C3D19F40E9420
:1032E0000519F8CF9FE2980F983070F4815D990B23
:1032F00021E030E001C0220F8A95EAF780916C024C
:10330000822B80936C0208958D3D31F480916A0286
:10331000816080936A0208958E3D21F480916A0253
:103320008260F7CF8F3DB9F780916A028460F1CF58
:1033300040916D028D3C59F480916E0287FF0DC063
:1033400010926E0241110BC01092690208C08E3CAF
:1033500081F480916E0218169CF3442381F08091D1
:103360006F0290917002892B09F05AC01092680286
:1033700008958F3C49F447FFF0CF10926D02809181
:103380006E028111ECCFE0CF803D19F41416ACF33E
:10339000E4CF90916F02893D29F41916F4F610924A
:1033A0006F02DBCF8A3D19F497FFD7CFF8CF90910A
:1033B00070028B3D29F497FFD0CF10927002CDCFD1
:1033C0008C3D19F41916CCF3C8CF9FE2980F9830B2
:1033D00090F4815D990B21E030E0B90102C0660FE5
:1033E000771F8A95E2F7CB01809590916C02892333
:1033F00080936C02B2CF8D3D31F480916A028E7F52
:1034000080936A02AACF8E3D21F480916A028D7F5B
:10341000F7CF8F3D09F0A1CF80916A028B7FF0CF6B
:1034200008958091320283FF96C089E891E09F93CE
:103430008F930E94740280916C021F928F9384E894
:1034400091E09F938F930E94740282E891E09F9392
:103450008F930E94740280916D02282F082E000C19
:10346000330B3F938F938FE791E09F938F930E944D
:1034700074028DE791E09F938F930E947402809174
:103480006E02282F082E000C330B3F938F938AE790
:1034900091E09F938F930E94740288E791E09F933D
:1034A0008F930E94740280916F02282F082E000CC7
:1034B000330B3F938F9385E791E09F938F930E9407
:1034C000740283E791E09F938F930E94740280912E
:1034D0007002282F082E000C330B3F938F9380E748
:1034E00091E09F938F930E9474028DE691E09F93E9
:1034F0008F930E9474028DB79EB780960FB6F89492
:103500009EBF0FBE8DBF809169021F928F938AE686
:1035100091E09F938F930E94740288E691E09F93BD
:103520008F930E94740280916A021F928F9385E6A6
:1035300091E09F938F930E94740282E691E09F93A3
:103540008F930E9474028DB79EB70C960FB6F894B5
:103550009EBF0FBE8DBF0E94D61E9C0190916D0232
:1035600080916E02982B21F03093670220936602BF
:1035700090916F0280917002982B21F03093650238
:10358000209364028BE692E00E94E31C089586E09B
:10359000EBE6F2E0DF011D928A95E9F710926902ED
:1035A0001092680210926A020895FC0182818111D2
:1035B0000EC0838181110BC08481811108C091E00C
:1035C0008581811101C090E0892F8170089581E08B
:1035D000FCCFA6E0B0E0EFEEFAE10C94C52686E061
:1035E000EBE6F2E0DE01119601900D928A95E1F78B
:1035F00010926D0210926E0210926F021092700281
:103600008B819C81892B89F0809166029091670261
:103610000E94651EAC01909169029923C9F18091C5
:1036200008018417150608F440C08D819E81892BFE
:1036300091F080916402909165020E94651EAC0138
:1036400090916802992309F46AC08091040184175B
:10365000150608F472C0BE016F5F7F4F8BE692E0E3
:103660000E94AE1D811105C08BE692E00E94D51A22
:1036700081110E94111A86E0FE013196ABE6B2E09C
:1036800001900D928A95E1F72696E3E00C94E126ED
:10369000209109018AE0289F900111242417350701
:1036A00020F69F5F9093690202C09F3FD1F71B8174
:1036B000112359F00E94C7189FEF11160CF491E0E6
:1036C000899F802D112480936D021C81112359F054
:1036D0000E94C7189FEF11160CF491E0899F802D6E
:1036E000112480936E0280916D02882309F49DCF8E
:1036F00010916E02112309F498CF0E94B918882303
:1037000051F080936D02812F0E94B918882329F00F
:1037100080936E028ACF81E0F4CF81E0F9CF2091CF
:1037200005018AE0289F900111242417350708F02D
:1037300092CF9F5F9093680202C09F3FD1F71D8197
:10374000112359F00E9405199FEF11160CF491E016
:10375000899F802D112480936F021E81112359F0BF
:103760000E9405199FEF11160CF491E0899F802D9E
:1037700011248093700280916F02882309F46BCF2B
:1037800010917002112309F466CF0E94B9188823A2
:1037900051F080936F02812F0E94B918882329F07D
:1037A0008093700258CF81E0F4CF81E0F9CF0F937E
:1037B0001F93CF93DF93C42FD22FFC0185818823E1
:1037C000C9F0409373020E94D61E909372028093B8
:1037D000710280E28C0F883040F4C77081E001C034
:1037E000880FCA95EAF70E94E605DF91CF911F91F5
:1037F0000F91089510917302141332C080917102D9
:10380000909172020E94651E883C910548F5C0E2C5
:10381000CD0F1D17B9F080E2810F883040F417708A
:1038200081E001C0880F1A95EAF70E94ED05C830C3
:1038300048F481E09D2F977001C0880F9A95EAF7B0
:103840000E94E605802F0E94DD05C83070F6D77013
:1038500081E001C0880FDA95EAF70E94ED05C5CF37
:1038600080E28C0F883008F6C77081E001C0880FB5
:10387000CA95EAF7F2CF0F93DB0188519C47873056
:103880009105A0F5FC01E555F84D0C94B02606E233
:1038900021EE41EE6AE17CE7CD010E94D71B80E07A
:1038A0000F91089507E225EE45EE6BE17CE7F4CF3A
:1038B00006E221EE40EE68E17CE7EECF07E225EE7E
:1038C00044EE69E17CE7E8CF06E221EE42EE6CE1EE
:1038D0007CE7E2CF07E225EE46EE6DE17CE7DCCF48
:1038E00008E221E045EE6EE17CE7D6CF15968C919B
:1038F000882319F010927302D3CF81E0D1CF909337
:103900007902809378020895E0917802F09179022B
:10391000309739F00190F081E02D309711F0099542
:10392000089580E00895EF92FF920F931F93CF9335
:10393000DF93EC01E0917802F09179023097F1F198
:103940000280F381E02D3097C9F109958091320210
:1039500082FF34C080FF0DC088811F928F9384EB5B
:1039600091E09F938F930E9474020F900F900F909D
:103970000F907E0186E0E80EF11C0EEA11E08091C6
:10398000320280FF0BC08A811F928F931F930F9387
:103990000E9474020F900F900F900F902196CE15F9
:1039A000DF0569F78091320280FF08C08CEA91E060
:1039B0009F938F930E9474020F900F90CDB7DEB744
:1039C000E6E00C94DE26E0917802F09179023097DF
:1039D00059F026813781232B39F022E0DC012C932A
:1039E0000680F781E02D09950895A3E0B0E0EBEFA4
:1039F000FCE10C94C62620917602309177022817BC
:103A00003907B1F09093770280937602E0917802C3
:103A1000F0917902309761F00084F185E02D3097C4
:103A200039F023E029839B838A83CE01019609958F
:103A30002396E2E00C94E226A3E0B0E0E2E2FDE1AE
:103A40000C94C6262091740230917502281739070C
:103A5000B1F09093750280937402E0917802F09136
:103A60007902309761F00084F185E02D309739F0CC
:103A700024E029839B838A83CE01019609952396AE
:103A8000E2E00C94E22640910001509101019A017C
:103A90002E5F3F4F485F5F4F80E02417350709F4E2
:103AA0000895F90191919F019923B9F38F5FF5CFA3
:103AB000882371F02091000130910101F9013296C3
:103AC000285F3F4F9191981729F0E217F307D1F73C
:103AD00080E0089581E008959C01FC0132969FEFFB
:103AE00080E04191461751F09F3F19F4411101C008
:103AF000982F8F5F8630A9F79F3F09F40895290F0B
:103B0000311D97FD3A95F90162830895FC013296C3
:103B100008962191261303C0DF0111971C92E81724
:103B2000F907B9F70895682F80910001909101017C
:103B30000E946C1D0895682F8091000190910101F1
:103B40000E94861D0895E0910001F09101013296D6
:103B500086E0DF011D928A95E9F70895DC01FB01FB
:103B600011969C9111978181981322C012968C9185
:103B70001297882319F0928189131AC013968C9199
:103B80001397882319F09381891312C015968C918D
:103B90001597882319F0958189130AC014969C9172
:103BA000992321F081E02481291303C080E001C022
:103BB00081E08170089508950E94DB1D08958111B0
:103BC0000EC081E080930D0160910A0170910B019C
:103BD00080910C0190910D010E94DC1D089582E0FE
:103BE000F1CF83E080930D0160910A0170910B0188
:103BF00080910C0190910D010E94DC1D08950E949E
:103C0000DF1D089581E080930D0160910A0170919C
:103C10000B0180910C0190910D010E94DC1D089513
:103C20000E94021E089591E0811101C090E09093DE
:103C30000C0160910A0170910B0180910C0190912F
:103C40000D010E94DC1D089580910C010895809360
:103C50000B0160910A0170910B0180910C01909110
:103C60000D010E94DC1D089580910B010895809341
:103C70000A0160910A0170910B0180910C019091F1
:103C80000D010E94DC1D089580910A010895089598
:103C900008950E94481E0895089508950E94471EA1
:103CA0000895CF930E944C1E0E94B7120E944D1E91
:103CB000C0E08C2F0E94B411811105C0CF5FC430C9
:103CC000C1F7CF91089581E0FCCFCF93DF93EC0152
:103CD0000E94D61E8C1B9D0BDF91CF91089585B756
:103CE000806885BF85B7806885BF08951F921FB61D
:103CF0001F9211248F939F93AF93BF9380917A0269
:103D0000811113C08091900290919102A091920232
:103D1000B09193024196A11DB11D809390029093A2
:103D20009102A0939202B0939302BF91AF919F91A1
:103D30008F911F901FBE1F9018958091980284301C
:103D400031F10E94730410927A0288E190E020E43D
:103D50000FB6F894A895809360000FBE2093600082
:103D600083B7817F846083BF83B7816083BF78948A
:103D7000889583B78E7F83BF0FB6F894A8958091FE
:103D80006000886180936000109260000FBE08950B
:103D90000E943B080E947A04089582E084BD93E06B
:103DA00095BD9AEF97BD80936E0008952FB7F89454
:103DB0008091900290919102A0919202B091930211
:103DC0002FBF08952FB7F8946091900270919102DF
:103DD00080919202909193022FBF089578941F9240
:103DE0001FB61F9211248F939F93AF93BF9380911F
:103DF000900290919102A0919202B091930201964B
:103E0000A11DB11D8093900290939102A093920204
:103E1000B0939302BF91AF919F918F911F901FBE5E
:103E20001F90189587E797E7909301088093000803
:103E300088E19AE00FB6F894A895809360000FBED1
:103E400090936000FFCF88E19AE00FB6F894A895B0
:103E5000809360000FBE90936000FFCF08959B0198
:103E6000BA01909198029430E9F48F708093E90040
:103E70009FEF8091E800915085FD06C085ED8A9501
:103E8000F1F700009111F5CF8091E80085FF0AC09D
:103E900050E040E0C9010E940A228091E8008E773C
:103EA0008093E800089543E050E0BC0182E00E9466
:103EB0002F1F089546E050E0BC0182E00E942F1FB2
:103EC0000895CF93DF93EC010E94241E48E050E058
:103ED000BE0181E00E942F1F88E0FE01AEE7B2E044
:103EE00001900D928A95E1F7DF91CF9108950895A1
:103EF00083EF91E09F938F930E94740280919702C9
:103F00000F900F90811109C00E949A230E94F723FD
:103F10008091E20084608093E20008958FEE91E04A
:103F20009F938F930E947402109297020F900F90AC
:103F300008958BEE91E09F938F930E9474020E94EC
:103F4000021E81E00E94131E0F900F90089587EECD
:103F500091E09F938F930E9474026091940281E09C
:103F6000611101C080E00E94F11D0F900F90089533
:103F700083EE91E09F938F930E9474029091980238
:103F800081E0943009F080E0609194020E94FF1D6E
:103F90000F900F90089520917C022F5F822F62E393
:103FA0000E949026992319F020937C020895109284
:103FB0007C0280917D028823F1F080919802843008
:103FC000C1F49091E9009F702091EC00822F8170E4
:103FD00020FD80E8892B93E09093E9009091EB001D
:103FE00090FF04C09091EE0097FD08C08F70809301
:103FF000E90010927D0208951092F1009091E8007E
:1040000095FDFACF9091E80090FFF0CF9091E800F5
:104010009E779093E800EACF42E061EC81E00E9455
:10402000162342E261EC82E00E94162342E261EC38
:1040300083E00E9416239091980281E0943009F069
:1040400080E0609194020E94DF1D089580919A02A1
:10405000833009F461C030F48130D1F1823009F449
:104060009EC008958A3009F48AC08B3009F46FC06D
:10407000893009F050C080919902813209F04BC01B
:1040800080919D0290919E02029708F044C0809119
:10409000E800877F8093E8008091E80082FF37C0C6
:1040A0009091F3008091F200029731F48091F10039
:1040B000813011F0863021F48091F1000E94271E9A
:1040C0008091E8008B778093E8000E944A2323C008
:1040D00080919902813AF9F48091E800877F80937A
:1040E000E80080919D0290919E02892B61F468E026
:1040F0008EE792E070E00E9459228091E8008B7771
:104100008093E800089560E090E080E0F3CF809134
:1041100098028111C1CF089580919902813AD9F70F
:1041200080919D0290919E02892BA9F78091E800D1
:10413000877F8093E8008091E80080FFFCCF0E9499
:10414000241E8093F1008091E8008E77BCCF80918F
:104150009902813201F780919D0290919E02892BF4
:10416000D1F68091E800877F8093E8000E944A237F
:1041700080919B020E94131E0E943B08089580912B
:104180009902813241F68091E800877F8093E800B0
:104190000E944A2380919C020E94371E08958091BC
:1041A0009902813A09F0B7CF8091E800877F809328
:1041B000E8008091E80080FFFCCF0E94441EC1CF40
:1041C0009FB7F89410927D029FBF9091980294300F
:1041D00009F048C02091E9002F703091EC00932F36
:1041E000917030FD90E8922B23E02093E90020911C
:1041F000EB0020FF34C02091EE0027FF30C020915B
:104200007B02222321F02091E80025FF28C0109294
:104210007B0226E03091E80035FF14C08093F10066
:104220008091E80085FD27C08091E80080FFFCCFE9
:104230008091E8008E778093E8009F709093E9006A
:1042400080E0089530919802343049F43091EB00C9
:1042500035FD05C0215041F481E080937B029F70C1
:104260009093E9008FEF0895EFE9FFE03197F1F7C0
:1042700000C00000CFCF8FB7F89421E020937D02DB
:104280008FBFDBCF84B7877F84BF0FB6F894A89524
:1042900080916000886180936000109260000FBE82
:1042A00080E890E00FB6F8948093610090936100ED
:1042B0000FBE0E94101E08950E949A230E94F723A9
:1042C000E2EEF0E080818460808378940E9475261D
:1042D00008958EE091E00E947F1C089580919802DD
:1042E000853091F48091320280FF08C08DEC91E01E
:1042F0009F938F930E9474020F900F908091980269
:10430000853019F00E94C81E08950E949D1E0E94CB
:10431000511E882399F380919602882379F30E9495
:10432000F4210E943B08EACF08959A0140919F0230
:104330005091A0020E949D210895492F5527433096
:10434000510521F168F44130510509F443C0423070
:10435000510509F444C090E080E050E040E026C000
:104360004132510551F142325105A9F763307105CF
:1043700090F7FB01EE0FFF1FEA55FE4F4081518180
:104380006D557E4FFB01808190E010C099278130F0
:10439000910581F0009729F00297E9F6E7EFF1E047
:1043A00002C0E1E2F2E0849190E0AF01F9015183B3
:1043B00040830895E9E0F2E0F6CF6330710558F6E6
:1043C000660F771FFB01E455FE4F4081518189E064
:1043D00090E0ECCF82E190E049E752E0E7CF84E55E
:1043E00090E045E252E0E2CF80E189BD82E189BD03
:1043F00009B400FEFDCF8091D8008F7D8093D80056
:104400008091E00082608093E0008091E00081FD77
:10441000FCCF0895AF92BF92CF92DF92FF920F939D
:104420001F93CF93DF936C01EB018A010E946923F4
:10443000F82E811123C00115110539F0F801808192
:104440009181C81BD90BC80ED91EB12CA12C209765
:10445000A9F08091E80085FD22C08091E8008E7768
:104460008093E80001151105A1F0F8018081918188
:10447000A80EB91EB182A08285E0F82E8F2DDF91A3
:10448000CF911F910F91FF90DF90CF90BF90AF9091
:1044900008950E9469238823D1F2F82EEFCFF60108
:1044A00081916F018093F1002197FFEFAF1ABF0A4E
:1044B000CECFFC0180919F029091A00286179707B2
:1044C000A0F06115710529F49091E8009E77909312
:1044D000E80090E06115710551F4911108C08091D8
:1044E000E80082FF34C080E00895BC01F2CF8091E3
:1044F00098028823C1F18530C1F18091E80083FDE5
:1045000030C08091E80082FDEACF8091E80080FF12
:10451000E1CF8091F3002091F200382F61157105F1
:1045200019F02830310558F091E02830310509F0B4
:1045300090E02091E8002E772093E800CBCF819186
:104540008093F100615071092F5F3F4FE7CF809159
:104550009802882341F0853041F08091E80083FF84
:10456000BECF81E0089582E0089583E00895FC01C4
:1045700080919F029091A00286179707A0F0611585
:10458000710529F48091E8008E778093E80090E02F
:104590006115710551F4911108C08091E80082FF06
:1045A00035C080E00895BC01F2CF80919802882345
:1045B000C9F18530C9F18091E80083FD31C0809157
:1045C000E80082FDEACF8091E80080FFE1CF809192
:1045D000F3002091F200382F6115710519F0283091
:1045E000310558F091E02830310509F090E08091D4
:1045F000E8008E778093E800CBCF84918093F10020
:104600003196615071092F5F3F4FE6CF809198023C
:10461000882341F0853041F08091E80083FFBDCFD1
:1046200081E0089582E0089583E00895982F9730FF
:1046300028F08F708093E90081E008959093E9005D
:10464000242F762F50E0981731F07091EC002091D4
:10465000ED005091F00021FD02C09F5FE8CF309146
:10466000EB003E7F3093EB003091ED003D7F3093C7
:10467000ED003091EB0031603093EB007093EC0073
:104680002093ED005093F0002091EE0027FDE5CF40
:1046900080E008958091990287FF13C08091E8001F
:1046A00082FF06C08091E8008B778093E80004C009
:1046B000809198028111F2CF089580919802882309
:1046C000D9F38091E80080FFF8CF8091E8008E77E1
:1046D000ECCF2091E4003091E50095E6A90120910E
:1046E000EC00822F817020FF06C08091E80080FFDF
:1046F00006C080E008952091E80022FD1AC0809154
:104700009802882389F0853089F08091EB0085FD3F
:104710000FC02091E4003091E50042175307F9F2F1
:104720009150E1F684E0089582E0089583E00895D1
:1047300081E008950E9409240E941124E0EEF0E037
:10474000808181608083E8EDF0E080818F778083D5
:1047500019BCA7EDB0E08C918E7F8C9380818F7E09
:1047600080831092970208950F931F93CF93DF9346
:104770000E9409240E941124C8EDD0E088818F771F
:10478000888388818068888388818F7D888319BC2D
:104790001092980210929402109296021092950232
:1047A00000EE10E0F80180818B7F8083888181603A
:1047B000888342E060E080E00E941623E1EEF0E0B2
:1047C00080818E7F8083E2EEF0E080818160808353
:1047D000808188608083F80180818E7F80838881DA
:1047E00080618883DF91CF911F910F910895E8ED4B
:1047F000F0E080818F7E8083E7EDF0E08081816052
:10480000808384E082BF81E0809397020E94B4237A
:104810000895E8EDF0E080818E7F80831092E200C1
:1048200008951092DA001092E10008951F920F92FD
:104830000FB60F9211242F933F934F935F936F9373
:104840007F938F939F93AF93BF93EF93FF93809149
:10485000E10082FF0BC08091E20082FF07C08091DF
:10486000E1008B7F8093E1000E94CB1F8091DA00F2
:1048700080FF19C08091D80080FF15C08091DA00B8
:104880008E7F8093DA008091D90080FF96C080E10E
:1048900089BD82E189BD09B400FEFDCF81E080932E
:1048A00098020E94781F8091E10080FF19C08091DA
:1048B000E20080FF15C08091E2008E7F8093E200CD
:1048C0008091E20080618093E2008091D800806254
:1048D0008093D80019BC85E0809398020E94A71F9E
:1048E0008091E10084FF2BC08091E20084FF27C00B
:1048F00080E189BD82E189BD89B5982F917080FFE3
:10490000FBCF8091D8008F7D8093D8008091E1000B
:104910008F7E8093E1008091E2008F7E8093E200A1
:104920008091E20081608093E2008091940288236C
:1049300009F449C084E0809398020E94B81F8091D6
:10494000E10083FF29C08091E20083FF25C08091B0
:10495000E100877F8093E10082E0809398021092CB
:1049600094028091E1008E7F8093E1008091E200CB
:104970008E7F8093E2008091E20080618093E2006C
:1049800042E060E080E00E9416238091F0008860A1
:104990008093F0000E94991FFF91EF91BF91AF911A
:1049A0009F918F917F916F915F914F913F912F9147
:1049B0000F900FBE0F901F90189519BC109298027F
:1049C0000E948E1F70CF8091E30087FD93E090934B
:1049D0009802B3CF1F920F920FB60F9211242F930C
:1049E0003F934F935F936F937F938F939F93AF9377
:1049F000BF93CF93DF93EF93FF93D091E900DF70E4
:104A00008091EC00C82FC17080FDC0E81092E900D1
:104A10008091F000877F8093F00078940E942E258B
:104A20001092E9008091F00088608093F000CD2B17
:104A3000CF70C093E900FF91EF91DF91CF91BF91CB
:104A4000AF919F918F917F916F915F914F913F9126
:104A50002F910F900FBE0F901F901895AAE2B0E013
:104A6000E4E3F5E20C94C52689E992E02091F10097
:104A7000FC012193CF01F2E0813A9F07B9F70E9430
:104A800026208091E80083FF1EC1809199029091B9
:104A90009A029A3008F017C1E92FF0E0EE54F84D71
:104AA0000C94B026803899F0823809F00CC18091BE
:104AB0009D028F70873008F006C18093E9008091D5
:104AC000EB0085FB882780F91092E90006C08091F1
:104AD000950290919602911182609091E800977FE3
:104AE0009093E8008093F1001092F1008091E8002B
:104AF0008E77E5C0882309F4D3C0823009F0E3C083
:104B000080919B028111D6C080919D028F702FEF02
:104B1000280F263008F0D7C08093E9002091EB00E1
:104B200020FFC8C0933031F48091EB008062809305
:104B3000EB00C0C09091EB0090619093EB0021E0FE
:104B400030E001C0220F8A95EAF72093EA00109224
:104B5000EA008091EB008860EACF8111B4C0109127
:104B60009B021F778091E3008078812B8093E30084
:104B70008091E800877F8093E8000E944A2380911B
:104B8000E80080FFFCCF8091E30080688093E30021
:104B900082E0111183E08093980295C080588230A2
:104BA00008F091C080919B0290919C028C3D23E083
:104BB0009207A1F583E08A838AE289834FB7F8944C
:104BC000DE01139620E03EE051E2E32FF0E0509347
:104BD0005700E49120FF03C0E295EF703F5FEF7054
:104BE0008E2F90E0EA30C0F0C7968D939D932F5F93
:104BF000243159F74FBF8091E800877F8093E80008
:104C00006AE270E0CE0101960E9459228091E8008C
:104C10008B778093E80057C0C096E7CF60919D02E4
:104C200070919E02AE014F5F5F4F0E949521BC01C3
:104C3000892B09F448C09091E800977F9093E80091
:104C400089819A810E94B722E1CF8038E1F5809175
:104C5000E800877F8093E800809194028093F100C0
:104C600045CF811130C090919B02923060F58091C8
:104C7000E800877F8093E800909394020E944A2383
:104C800080919402882311F084E005C08091E300B4
:104C900087FDFACF81E0809398020E940C2013C018
:104CA00080919B02813079F481E0933009F080E0BB
:104CB000809396021092E9008091E800877F8093AC
:104CC000E8000E944A238091E80083FF0AC0809197
:104CD000E800877F8093E8008091EB0080628093FA
:104CE000EB00AA96E3E00C94E126CF938091980222
:104CF0008823A1F0C091E900CF709091EC00892F3A
:104D0000817090FD80E8C82B1092E9008091E80046
:104D100083FD0E942E25CF70C093E900CF910895A6
:104D2000991B79E004C0991F961708F0961B881FFD
:104D30007A95C9F78095089597FB072E16F400948D
:104D400007D077FD09D00E940F2707FC05D03EF45D
:104D5000909581959F4F0895709561957F4F089527
:104D6000EE0FFF1F0590F491E02D09942F923F92D2
:104D70004F925F926F927F928F929F92AF92BF926B
:104D8000CF92DF92EF92FF920F931F93CF93DF9317
:104D9000CDB7DEB7CA1BDB0B0FB6F894DEBF0FBE74
:104DA000CDBF09942A88398848885F846E847D84C1
:104DB0008C849B84AA84B984C884DF80EE80FD80C3
:104DC0000C811B81AA81B981CE0FD11D0FB6F89439
:104DD000DEBF0FBECDBFED010895002E083090F06C
:104DE000982F872F762F652F542F432F322F22276E
:104DF0000850F4CF220F331F441F551F661F771F23
:104E0000881F991F0A95B2F7002D08952A153B05B2
:104E10004C055D056E057F05800791070895AA1B67
:104E2000BB1B51E107C0AA1FBB1FA617B70710F095
:104E3000A61BB70B881F991F5A95A9F780959095C7
:104E4000BC01CD010895FB01DC0104C08D910190EE
:104E5000801921F441505040C8F7881B990B0895E0
:104E6000FB01DC0102C001900D9241505040D8F787
:104E70000895F999FECF92BD81BDF89A992780B522
:104E80000895A8E1B0E042E050E00C946D27262F91
:104E9000F999FECF92BD81BDF89A019700B4021630
:104EA00039F01FBA20BD0FB6F894FA9AF99A0FBEDE
:104EB00008950396272F0E9448270E944727252FF1
:104EC0000E944827242F0C9448270196272F0E94E0
:104ED00048270C944727DC01CB01FC01F999FECF50
:104EE00006C0F2BDE1BDF89A319600B40D92415072
:104EF0005040B8F70895F894FFCF3506350673068D
:104F00007306D706F30664066406F8066907780791
:104F100078073718A9183F1809180D1843181118E1
:104F2000471853181D18A2182118571825185B1870
:104F3000831829185F188A182F1865186D18151806
:104F40004B1819184F183318691879189318A018A6
:104F500003183B18B018581C5E1C471C521C641CDC
:104F60006A1C701C52257A2563267A256326AD2596
:084F7000CE256326252631261B
:104F78001602280850011E0A140100000100341E00
:104F8800611F2E1F5A1F531FE200E900EA00B500F7
:104F9800B600B700CD008301CC008A0192019401CC
:104FA8002102230224022502260227022A02B30034
:104FB800B4006F0070009F01CB019F02A0028182A4
:104FC80083E200E900EA00B500B600B700CD00832F
:104FD80001CC008A019201940121022302240225B6
:104FE80002260227022A02B300B4006F0070009F55
:104FF80001CB019F02A0028182836697C63435F4F3
:10500800F5F6F700FF0100010000FFFF00000100B6
:1050180001FF00447B151B03A0028B0237025002DC
:0250280069021B
:00000001FF
