:100000000C94B9050C94E1050C94E1050C94E10500
:100010000C9486200C94E1050C94E1050C94E10508
:100020000C94E1050C94E1050C9419150C94D5146D
:100030000C9463200C94E1050C94E1050C94E1050B
:100040000C94E1050C94E1050C94E1050C94E10598
:100050000C94E1050C94F5150C94E1050C94E10564
:100060000C94E1050C94E1050C94E1050C94E10578
:100070000C94E1050C94E1050C94E1050C94E10568
:100080000C94E1050C94E1050C94E1050C94E10558
:100090000C94E1050C94E1050C94E1050C94E10548
:1000A0000C94E1050C94E1050C94E105362F231C1A
:1000B0004241403F373E141B101112133D3C3B3A66
:1000C00039383534333231302D2C2B252627202159
:1000D000221D1E1F18191A1516172E243C393431EB
:1000E000211E191600F6010002F6010001F60100BA
:1000F000642700000DF601002DF601000AF601004C
:1001000012F6010018F6010095F4010029F601002D
:100110004CF4010014F601000FF601007B260000EC
:1001200009F601004DF401004EF401004FF6010004
:100130000CF60100B6F3010033F601004CF60100A5
:1001400022F601000EF6010048F6010049F6010012
:100150004AF60100A9F4010040F401000C27000058
:1001600094F4010034F6010005F60100AFF401003B
:1001700015F601001CF601001EF601000BF6010049
:100180004FF4010031F6010008F6010007F6010006
:100190004BF401000026000014F3010080F401007C
:1001A00091030000920300009303000094030000F9
:1001B00095030000960300009703000098030000D9
:1001C000990300009A0300009B0300009C030000B9
:1001D0009D0300009E0300009F030000A003000099
:1001E000A1030000A3030000A4030000A503000076
:1001F000A6030000A7030000A8030000A903000055
:10020000B1030000B2030000B3030000B403000018
:10021000B5030000B6030000B7030000B8030000F8
:10022000B9030000BA030000BB030000BC030000D8
:10023000BD030000BE030000BF030000C0030000B8
:10024000C1030000C3030000C4030000C503000095
:10025000C6030000C7030000C8030000C903000074
:10026000C20300006422000065220000602200003A
:10027000B10000002B0014001A0008001500170040
:10028000290004001600070009000A00E1001D0013
:100290001B00060019000500E000E200E3002A52FE
:1002A00027524B7E1C0018000C00120013002A007D
:1002B0000B000D000E000F0034002800110010008C
:1002C000360037003800E5004C7E2852477EE700B4
:1002D0004734E400010001000100000000000000BC
:1002E000010034003600370013001C000100040038
:1002F0001200080018000C000100380014000D0066
:100300000E001B00010001000100010001000100BE
:1003100009000A00060015000F00010007000B008D
:100320001700110016000100050010001A00190046
:100330001D00010001000100010001000100010099
:100340000100010001000000000000000100140095
:100350001A00090013000A0001000400150016002D
:100360001700070001001D001B0006001900050012
:100370000100010001000100010001000D000F005B
:1003800018001C00340001000B00110008000C00D4
:10039000120001000E001000360037003800010086
:1003A0000100010001000100010001000100010045
:1003B000010000000000000001001400070015000B
:1003C0001A0005000100040016000B0017000A00C7
:1003D00001001D001B0010000600190001000100B3
:1003E00001000100010001000D00090018001300C8
:1003F000340001001C001100080012000C00010074
:100400000E000F0036003700380001000100010027
:1004100001000100010001000100010001000000D5
:1004200000000000010014001A00070009000E007F
:10043000010004001600080017000A0001001D005A
:100440001B00060019000500010001000100010069
:10045000010001000D00180015000F00340001001C
:100460001C0011000C0012000B0001001300100012
:1004700036003700380001000100010001000100D2
:100480000100010001000100010000000000000067
:1004900001000000000033803F80418001002F8078
:1004A0004080328043803180010034804480458028
:1004B00046803080010001000100010001000100C0
:1004C0004280368037803D803E80010035803C8010
:1004D00038803980340001003B803A803600370094
:1004E00038000100010001000100010001000100CD
:1004F00001000100010000000000000001000000F8
:100500005F804B80578059800100478058804A8027
:100510005B80498001004C805C805D805E8048800B
:100520000100010001000100010001005A804E801D
:100530004F805580568001004D80548050805180FE
:10054000340001005380528036003700380001002B
:100550000100010001000100010001000100010093
:10056000010000000000000035021E021F022002F0
:10057000210222023500250231002D002E00380014
:100580002402230231022D022E0238020100010052
:100590001B0001000100010004021E001F002000DA
:1005A00007020100050221002200230008020100C9
:1005B0000602240025002600090201000100274848
:1005C0003600370033020100010001000100000085
:1005D0000000000000003A003B003C003D004900E4
:1005E00039003E003F00400041004600010042004B
:1005F00043004400450048000100010001000100E3
:100600000100010000004B0052004E004B004C0066
:100610000000500051004F004E000100000000009B
:100620004A004D000000010001000100010001002E
:1006300001000100010001000100000000000000B5
:1006400035021E021F02200221022202350025026D
:1006500031002D002E0038002402230231022D0229
:100660002E0238020100010001000100010001001A
:10067000230224022502608061800100628026023C
:10068000270236023702010063802F0030002F025C
:1006900030020100010001000100010033020100ED
:1006A0000100010001000000000000000000000047
:1006B000000000000000000000000000000000003A
:1006C000000000000000000000000000000000002A
:1006D0000100010001000100010001000000000014
:1006E000000000000000000000000000000000000A
:1006F00000000000000000000000000000000000FA
:1007000001000100010001000100010001000100E1
:100710000100000000000000098017800A800480AA
:100720000D80018010801280028021801580008061
:1007300011802080278005801E801F801C801D80E6
:10074000228001002E8029800E80078014800B807B
:100750000C80138003802B800880168018801980FD
:100760002C8006800F802D8023801A802A8028808C
:100770000100268025801B8001000100010000008F
:100780000000000000001E081F08200821082208A1
:10079000290000002B0229002B00000000000000AF
:1007A000AA00A800A9002C00000000000000000022
:1007B0000000000023082408250826082708000058
:1007C0000000B6000000B700000000002C00AC00E4
:1007D000AE00AB00000000000000000000000000C0
:1007E0000000000001000100010000000000000006
:1007F000027C407E497E0000007C000000004E7EAE
:100800000000417E00004D7E000000000000427E9E
:1008100000008577010000000000000000000000DB
:10082000000083770000000000004F7E0000000001
:10083000437E487E00000000447E4A7E00000000A7
:1008400000000000000000000000000000000100A7
:100850000100010001000000000000000000000095
:100860000000000000000000000000000000000088
:100870000000000000000000000000000000000078
:100880007E0F00D4FFFFFFC70000007800000000CB
:10089000000000002A2B28000000000000000000DB
:1008A0000000000000000029000000002C1E342081
:1008B000212224342627252E362D3738271E1F20A7
:1008C0002122232425263333362E37381F040506EC
:1008D0000708090A0B0C0D0E0F1011121314151630
:1008E0001718191A1B1C1D2F3130232D350405062E
:1008F0000708090A0B0C0D0E0F1011121314151610
:100900001718191A1B1C1D2F3130354C050109020F
:10091000A10185020901A100050919012908150095
:1009200025019508750181020501093009311581FC
:10093000257F95027508810609381581257F950167
:1009400075088106050C0A38021581257F95017509
:10095000088106C0C005010980A101850319012A8B
:10096000B700150126B700950175108100C0050C70
:100970000901A101850419012AA002150126A0027E
:10098000950175108100C005010906A1010507192F
:10099000E029E7150025019508750181029501758B
:1009A0000881010507190029FF150026FF0095069B
:1009B000750881000508190129051500250195050F
:1009C00075019102950175039101C009023B000276
:1009D0000100A0FA0904000001030101000921112E
:1009E00001000122440007058103080001090401F8
:1009F000000103000000092111010001227B000712
:100A00000582032000011201000200000008EF1718
:100A100048600100010200011603500072006F00DF
:100A20006D00650074006800690075006D000000CD
:100A300010035000720069007900610064006900D1
:100A400000000403090441542B424C454849444DDD
:100A50004F555345425554544F4E3D0041542B423F
:100A60004C454849444D4F5553454D4F56453D25FE
:100A7000642C25642C25642C25640041542B424CA5
:100A800045484944434F4E54524F4C4B45593D30D5
:100A900078253034780041542B424C454B4559421F
:100AA0004F415244434F44453D253032782D30303C
:100AB0002D253032782D253032782D253032782D85
:100AC000253032782D253032782D2530327800418E
:100AD000542B474150474554434F4E4E0041542BF1
:100AE0004556454E54454E41424C453D30783200C6
:100AF00041542B4556454E54454E41424C453D30A0
:100B0000783100670B280B4E0B400B0F0B240B4169
:100B1000542B424C45504F5745524C4556454C3D41
:100B20002D31320041545A0041542B474150494E17
:100B300054455256414C533D31302C33302C2C000F
:100B400041542B424C45484944454E3D31004154A7
:100B50002B4741504445564E414D453D50726F6DB7
:100B600065746869756D004154453D30004F4B0018
:100B7000A72911241FBECFEFDAE0DEBFCDBF11E001
:100B8000A0E0B1E0E0E4F3E602C005900D92A636E5
:100B9000B107D9F724E0A6E6B1E001C01D92A83D57
:100BA000B207E1F715E0C9EBD5E004C02197FE01DB
:100BB0000E949D2BC83BD107C9F70E9403210C94CA
:100BC0003F310C940000482F20912E039091F502A4
:100BD00057E0291302C080E0089530E0529FF001F1
:100BE000539FF00D1124EA50FD4F8181681306C018
:100BF0008081481303C085818111EECF2F5F3F4F65
:100C00002770E7CFE8EDF0E080818E7F808310923F
:100C1000E2001092DA001092E100A0EEB0E08C91B8
:100C200081608C9380818F77808319BCA7EDB0E0C1
:100C30008C918E7F8C9380818F7E80831092D602E0
:100C400008952091E4003091E50095E6A9012091F6
:100C5000EC00822F817020FF06C08091E80080FFA9
:100C600006C080E008952091E80022FD1AC080911E
:100C7000E302882389F0853089F08091EB0085FDBF
:100C80000FC02091E4003091E50042175307F9F2BC
:100C90009150E1F684E0089582E0089583E008959C
:100CA00081E008958091E50287FF13C08091E800FC
:100CB00082FF06C08091E8008B778093E80004C033
:100CC0008091E3028111F2CF08958091E30288239D
:100CD000D9F38091E80080FFF8CF8091E8008E770B
:100CE000ECCF982F9093E900242F762F50E08917AE
:100CF00031F07091EC002091ED005091F00021FD59
:100D000007C09F5F973071F78093E90081E00895F5
:100D10003091EB003E7F3093EB003091ED003D7F52
:100D20003093ED003091EB0031603093EB00709325
:100D3000EC002093ED005093F0002091EE0027FD91
:100D4000E0CF80E00895B0E0A0E0E9EAF6E00C949E
:100D50005C2BC8EDD0E088818F7E8883E7EDF0E0E2
:100D600080818160808384E082BF81E08093D602AD
:100D700088818E7F888302EE10E0F8011082109245
:100D8000DA0081EEC82ED12CF601108288818F778F
:100D9000888388818068888388818F7D888319BC57
:100DA0001092E3021092E4021092E2021092E10229
:100DB00090EEE92EF12CF70180818B7F8083888172
:100DC0008160888342E060E080E00E947106F60165
:100DD00080818E7F8083F801808181608083808123
:100DE00088608083F70180818E7F80838881806125
:100DF0008883CDB7DEB7E8E00C94782BFC018091B6
:100E0000EB029091EC0286179707A0F0611571052F
:100E100029F49091E8009E779093E80090E06115A6
:100E2000710551F4911108C08091E80082FF34C02F
:100E300080E00895BC01F2CF8091E3028823C1F1E4
:100E40008530C1F18091E80083FD30C08091E800D9
:100E500082FDEACF8091E80080FFE1CF8091F3002E
:100E60002091F200382F6115710519F028303105F5
:100E700058F091E02830310509F090E02091E80029
:100E80002E772093E800CBCF81918093F1006150C1
:100E900071092F5F3F4FE7CF8091E302882341F034
:100EA000853041F08091E80083FFBECF81E0089556
:100EB00082E0089583E0089508958091D80208950E
:100EC0009C01FC0132969FEF80E04191461751F062
:100ED0009F3F19F4411101C0982F8F5F8630A9F709
:100EE0009F3F09F40895290F311D97FD3A95F901A7
:100EF00062830895A3E0B0E0E0E8F7E00C94622B91
:100F00002091CE023091CF0228173907A1F090939B
:100F1000CF028093CE02E091F302F091F402309779
:100F200051F023E029839B838A830084F185E02D9F
:100F3000CE01019609952396E2E00C947E2BE09178
:100F4000F302F091F402309729F00190F081E02D46
:100F50000995089580E0089552985A9A08955A98EC
:100F6000529A089553985B9A089580E0089590915D
:100F7000B20192FF10C041E0282F2471243009F003
:100F800040E031E0282F2871283009F030E0431785
:100F900011F02CE0822793FF10C041E0282F24712C
:100FA000243109F040E031E0282F2871283109F080
:100FB00030E0431711F02CE082273091B30130FF6D
:100FC00010C051E0282F2171213009F050E041E09C
:100FD000282F2871283009F040E0541711F029E03B
:100FE000822731FF10C041E0282F2171213109F003
:100FF00040E031E0282F2871283109F030E0431714
:1010000011F029E0822794FD877E089582389105AA
:10101000B9F1B0F48133910509F47DC048F4893207
:10102000910509F46DC08A32910509F47BC00895D9
:101030008533910509F45FC08933910509F108955D
:10104000833E9105D9F138F4803E910529F1823E25
:10105000910579F10895863E9105D9F1873E910574
:1010600009F43EC0843E910541F52091B30121FF72
:1010700024C08091B20184FD19C087EE90E00895EC
:101080002091B201237009F05AC02091B30123FFCF
:1010900014C089E290E008952091B20120FD38C08B
:1010A0003091B30130FF09C024FF43C090E080E0DD
:1010B00008952091B20122FDF7CF08952091B20149
:1010C00022FD3AC03091B30130FD39C024FFF5CF85
:1010D000EDCF2091B20123FFF0CF24FDE7CFCDCF9C
:1010E0002091B20123FD2EC03091B30131FFEECF2C
:1010F00084EE90E008952091B20125FFDECFC9CFA4
:101100002091B20125FD21C02091B30123FFD5CF4D
:1011100089E390E0D2CF2091B20126FFCECF8AE2C0
:1011200090E008952091B20126FFC7CF81E390E0BF
:10113000089583EE90E0089582EE90E0089580EEA9
:1011400090E0089586EE90E0089585E390E008959C
:10115000972F7930B8F46630A8F48E30B0F470E090
:1011600026E0929F600D711D1124FB0196E3899F7B
:10117000E00DF11D1124EE0FFF1FEC58FD4F85917E
:101180009491089580E090E0089581E0FCCF1F9352
:10119000CF93DF930E940608EC01C11580E5D807C4
:1011A000F0F5C11580E4D80708F09CC0C03ED10519
:1011B00020F5CD3CD10508F082C0C83AD10578F4BD
:1011C000C53AD10508F073C0C130D10519F1209797
:1011D00009F1C430D105F0F4D0E0C0E01BC0C33C3D
:1011E000D105D0F7C85AD0E0CC0FDD1FCA5EDE4F64
:1011F0000990D881C02DD4640DC0C11580E2D807F4
:1012000008F0D1C0C11581E0D80708F05AC0C83E27
:10121000D10510F7CE01DF91CF911F910895C0360F
:1012200082E5D80718F5C03482E5D80708F06BC00E
:10123000C03282E5D80708F05FC0C11582E5D80743
:1012400008F497C02C2F2695269580E2289F9001C0
:1012500011248C2F8370C1E0D0E002C0CC0FDD1FC1
:101260008A95E2F7C22BD32BDD68D4CFC03A82E552
:10127000D80760F4C03882E5D80708F459C0CF71A8
:10128000D0E0DC2FCC27C46FD06AC4CFC03C82E54D
:10129000D80708F462C0C03E82E5D80708F09CCFAA
:1012A000DC2FCC27CC27DF71C06FD06AB3CFC55AF3
:1012B000D0E0CD5EDE4FC881D0E0D064ABCFD0654A
:1012C000A9CF8D2F0E94B707182FCE0199270E9412
:1012D0000608C12FD0E0DC2FCC27CC27DF71C82B2C
:1012E000D92B98CFCE0199270E940608CC27DF7012
:1012F000C82BD92BD06A8ECFCF71D0E0DC2FCC2772
:10130000C16FD06A87CF2C2F26952695277080E253
:10131000289F900111248C2F8370C1E0D0E002C07F
:10132000CC0FDD1F8A95E2F7C22BD32BDC6872CF7E
:101330002C2F26952695277080E2289F9001112456
:101340008C2F8370C1E0D0E002C0CC0FDD1F8A95E6
:10135000E2F7C22BD32BDA685DCF8C2F8F710E94FE
:10136000B707C82FD0E0DC2FCC27CC27DF71D062A5
:1013700051CF8C2F8F710E94B70755E0D695C79536
:101380005A95E1F7CF70D0E0DC2FCC27282F30E042
:1013900084FF05C044E0220F331F4A95E1F7C22BBA
:1013A000D32BD06937CF8D2F8F710E94B707182F9D
:1013B000CE0199270E940608C12FD0E0DC2FCC2750
:1013C000CC27DF71C82BD92BD2CF80959091AB0160
:1013D00098239093AB01089580912E039091F5028C
:1013E000981301C008958F5F8770FACFB0E0A0E036
:1013F000ECEFF9E00C945B2B7C010091B0011091B3
:10140000B1018091AE019091AF01082B192BCFE073
:10141000D0E0CC24C394D12CBC2EC6010C2E02C02B
:10142000880F991F0A94E2F780239123892B49F4AE
:10143000219790F7B12C8B2DCDB7DEB7E9E00C9456
:10144000772BB7018C2F0E94A8080E94C70801972C
:1014500079F3F1CFCF93DF93EC010E94F609BE013F
:101460000E94A8080E94C708DF91CF910895993083
:1014700078F5863068F5E82FF0E086E0989FE00D7B
:10148000F11D11249E2F977083E0F695E7958A95BC
:10149000E1F7EE0FFF1FEE0FFF1FE358FE4F50E086
:1014A00040E080E0219130E0092E02C0369527957A
:1014B0000A94E2F721703327042E01C0220F0A9408
:1014C000EAF7822B4F5F5F4F4430510559F708957B
:1014D00080E00895993098F5863088F5E82FF0E09F
:1014E00086E0989FE00DF11D11248E2F877041E05A
:1014F00001C0440F8A95EAF783E0F695E7958A954F
:10150000E1F7EE0FFF1FEE0FFF1FE358FE4F30E035
:1015100020E070E05191DF011197CB01022E02C053
:10152000969587950A94E2F78170819585278423A3
:1015300085278C932F5F3F4F2430310559F708954D
:101540009093AF018093AE010895FC012481222382
:10155000C1F0808191810E942A0A92959F709630F5
:1015600091F058F4925F9F70923058F4803F19F0D8
:1015700030F4883E30F481E008959A5FF4CF843FE0
:10158000D1F380E00895883EB0F3813FD1F7F3CFE7
:101590009FE2980F9330B0F4482F415D550B81E0E6
:1015A00090E002C0880F991F4A95E2F72091DC0174
:1015B0003091DD01662339F0822B932B9093DD016E
:1015C0008093DC0108958095909582239323F6CF34
:1015D000292F332740E02115310511F0C90148E0DA
:1015E0009C0164E0369527956A95E1F72115310550
:1015F00011F04C5FC9019C013695279536952795CA
:101600002115310511F04E5FC90196958795892BFB
:1016100009F04F5F842F0895A6E0B0E0E2E1FBE01F
:101620000C94612B49835A8349815A819923A1F0F3
:10163000222391F0CA010E94F609182F682F898190
:101640009A810E946A0A69817A81812F0E94A80882
:101650002696E3E00C947D2BCA010E94370A182FCE
:10166000F2CF9C019A9581159F4130F4832F8170B0
:1016700031FF03C08260089580E008959C012078C6
:1016800031702038314079F492609C0120723470BE
:101690002032344031F09C012074347020343440C6
:1016A00021F4986008959D7FF0CF977F08950E9460
:1016B0003E0B9093B1018093B001089521E030E09A
:1016C00002C0220F331F8A95E2F720953095809152
:1016D000B0019091B101822393230E94570B08958A
:1016E0009091A001809589238093A001282F2770D5
:1016F00069F4891759F09091B30192FF07C086955C
:10170000869586950E945E0B1092A001089521E0B7
:1017100030E002C0220F331F8A95E2F78091B001BA
:101720009091B101822B932B0E94570B0895ECEB03
:10173000F0E0A4918A2F90E0DC01AA0FBB1FA80F54
:10174000B91FA152BE4F11961C9211971C9212966E
:101750001C92319680E0EC3DF80759F7E0EBF0E0A1
:10176000A4918A2F90E0DC01AA0FBB1FA80FB91F1C
:10177000A152BE4F11961C9211971C9212961C9268
:10178000319680E0EC3BF80759F7ECEAF0E0A491E1
:101790008A2F90E0DC01AA0FBB1FA80FB91FA1522E
:1017A000BE4F11961C9211971C9212961C92319664
:1017B00080E0E03BF80759F70895809101018130FE
:1017C00041F0882319F0823069F108950E94970B47
:1017D00008950E94970BECEDF0E044EE50E027E016
:1017E000A4918A2F90E0DC01AA0FBB1FA80FB91F9C
:1017F000A152BE4F11962C9311972C9312962C93B5
:1018000031964E175F0761F78FE080937302109255
:10181000720210927402809343021092420210925C
:1018200044020895ECEBF0E027E0A4918A2F90E0C9
:10183000DC01AA0FBB1FA80FB91FA152BE4F119602
:101840002C9311972C9312962C93319680E0EC3DBB
:10185000F80759F7E0EBF0E02FE0A4918A2F90E031
:10186000DC01AA0FBB1FA80FB91FA152BE4F1196D2
:101870001C9211972C9312961C92319690E0EC3B9F
:10188000F90759F7ECEAF0E02FE0A4918A2F90E0F5
:10189000DC01AA0FBB1FA80FB91FA152BE4F1196A2
:1018A0001C9211971C9212962C93319680E0E03B8B
:1018B000F80759F7ECEDF0E08FE0A4912A2F30E023
:1018C000D901AA0FBB1FA20FB31FA152BE4F119681
:1018D0008C9311971C9212961C92319690E0E43EE4
:1018E000F90759F780937302809372021092740281
:1018F000809343028093420292CF0F931F93CF9322
:10190000DF938B01EA019091E302943061F58093BB
:10191000E9008FEF9091E800815095FD06C09AE6AE
:101920009A95F1F700C08111F5CF8091E80085FF0D
:101930001AC00E942106811111C08091E80085FD26
:1019400006C08091E8008E778093E800F2CFF8011E
:1019500081918F018093F100219779F78091E800C0
:101960008E778093E800DF91CF911F910F910895BA
:1019700043E050E0BC0182E00E947D0C089546E007
:1019800050E0BC0182E00E947D0C0895CF93DF936C
:10199000EC0148E050E0BC0181E00E947D0C88E051
:1019A000FE01A9EDB2E001900D928A95E1F7DF9179
:1019B000CF9108958AE1815059F49FB7F89420910E
:1019C000C9028091CA02821313C080E09FBF0895AC
:1019D0003FB7F8942091CA029091C9023FBF2913E2
:1019E000ECCFEFECF7E03197F1F700C00000E3CF68
:1019F00030E0F901E755FD4F80812F5F3F4F2F7198
:101A000033272093C902E2CF52985A9A82E08A95EE
:101A1000F1F700C089B182FB882780F908955398B7
:101A20005B9A82E08A95F1F700C089B183FB882731
:101A300080F90895CF93DF93C2E3D0E00E940F0DA9
:101A4000811102C0209721F4CE01DF91CF9108953A
:101A500082E08A95F1F700C02197F0CFCF93DF9312
:101A6000EC010E940F0D882311F0209721F4CE0184
:101A7000DF91CF91089582E08A95F1F700C0219718
:101A8000F0CFEF92FF920F931F93CF93DF93E82E47
:101A9000EB985B98539A0E94AC0787EC90E0019713
:101AA000F1F700C000000E94AF070E94B20780E17A
:101AB00097E20E942E0D892BE9F1D0E0C0E011E001
:101AC000F12C01E0C7010C2E02C0959587950A9470
:101AD000E2F780FF36C010270E94AC070E941A0D63
:101AE000892B41F182E390E00E942E0D892B11F1A8
:101AF0002196C830D10531F788E28A95F1F7112394
:101B000019F10E94AC070E941A0D892B99F082E30B
:101B100090E00E942E0D892B69F098E29A95F1F7DA
:101B20000E94AC07C2E3D0E00E94040D8823A9F014
:101B3000209769F40E94B2070E94AC07EB9A80E0FC
:101B40002FC00E94AF07CACF0E94AF07DCCF22E0B0
:101B50002A95F1F700C02197E7CFCD2B59F382E307
:101B600090E00E942E0D892B29F30E941A0DC2E3EA
:101B7000D0E0892BF9F20E94040D811108C0209752
:101B8000C9F282E08A95F1F700C02197F4CFCD2BFE
:101B900089F20E94B2070E94AC07EB9A0E94DA0C0D
:101BA000CDB7DEB7E6E00C947A2B35B13F7D25B199
:101BB00020624FB7F8948FED91E0FC015191CF0175
:101BC00068E025B957FF35B9550F000000C035B999
:101BD0006A95B9F7F2E0883A9F0779F74FBF8FE22D
:101BE00092E00197F1F700C000000895869581709A
:101BF00090917101981769F080937101882359F0D1
:101C00008FE08093FB011092FA011092FC010E9478
:101C1000D50D80E008951092FB01F5CFEFEDF1E0D6
:101C2000138A128A148A168A158A178A0E94D50D79
:101C30000895EFEDF1E0138A128A148A8FE0868B03
:101C4000858B878B0E94D50D0895EFEDF1E0138A07
:101C5000128A8FE0848B168A158A178A0E94D50D06
:101C600008951092E0011092DF011092E1011092AC
:101C7000E3011092E2011092E4011092E601109249
:101C8000E5011092E7018091A802813071F088236C
:101C9000B1F0823011F0843079F48FE08093E60166
:101CA0008093E5018093E70107C08FE08093E00116
:101CB0008093DF018093E1010E94D50D08958FE0AC
:101CC0008093E3018093E2018093E401F5CF0E94C9
:101CD000DD0B1092FE011092FD011092FF01109297
:101CE000010210920002109202021092040210925D
:101CF000030210920502109207021092060210923F
:101D0000080210920D0210920C0210920E02109214
:101D10000A021092090210920B028091B001909178
:101D2000B1010E94E80A90910001981709F454C08B
:101D300080930001853018F40E94D50D08958550D8
:101D4000883020F5E82FF0E0EF5BFE4C0C949D2BE3
:101D50008FE08093FE018093FF01EECF8FE08093B0
:101D60000102EACF8FE080930502E6CF8FE08093F7
:101D70000602E2CF8FE080930C0280930E02DCCF4C
:101D80008FE080930A0280930902D6CF87E0809388
:101D9000FE018093FD018093FF01809301028093F7
:101DA00000028093020280930402809303028093D6
:101DB00005028093070280930602809308028093B5
:101DC0000D0280930C0280930E0280930A0280938E
:101DD000090280930B02B0CF08958091AE019091DB
:101DE000AF010E94E80A811110C08FE08093E901E1
:101DF0001092E8011092EA011092EC011092EB01AE
:101E00001092ED010E94D50D08951092E9011092F3
:101E1000E8011092EA018FE08093EC01EFCF80910E
:101E2000CD02811109C08091E30087FD04C00E94AA
:101E3000492883E0089582E008950E940F0F8330BF
:101E400029F48DEE92E00E9482290895E091F30238
:101E5000F091F402309749F082E08093ED02068021
:101E6000F781E02D8DEE92E009950895A3E0B0E0B2
:101E7000ECE3FFE00C94602B8C018091D0029091F8
:101E8000D1028017910759F01093D1020093D0022C
:101E90000E940F0F833039F4C8010E9466292396EF
:101EA000E4E00C947C2BE091F302F091F402309783
:101EB000B1F384E089831B830A830084F185E02DDC
:101EC000CE0101960995EBCF8093A802682F8CE094
:101ED00090E00E94D42E0895CF93DF93C1E0D0E02C
:101EE00002C0CC0FDD1F8A95E2F76C2F83E090E0F3
:101EF0000E94D42ECE010E94A00A0E94ED0EDF9116
:101F0000CF9108959091B30192FB222720F92817D1
:101F100079F080FB92F99093B3016091B2017091D6
:101F2000B30184E090E00E94F22E82E00E94700BE8
:101F300008952091AB018091A201282B8091A101ED
:101F4000882381F0282B30E08AE691E0FC01419162
:101F5000CF0141113F5FF1E080379F07B9F73111A1
:101F60001092A1012093680148E050E063EA71E01B
:101F700088E691E00E94A92E892BF1F088E0E8E63E
:101F8000F1E0A3EAB1E001900D928A95E1F70E9499
:101F90000F0F833029F488E691E00E943E290895CE
:101FA000E091F302F091F402309731F00280F38176
:101FB000E02D88E691E009950895882341F0809509
:101FC0009091A20189238093A2010E94990F089504
:101FD000882339F09091A201982B9093A2010E943E
:101FE000990F0895882321F00E94E5090E94990F16
:101FF0000895882339F09091AB01982B9093AB0111
:102000000E94990F08958823D1F19CEF980F913A7F
:1020100078F4EAE6F1E09191891303C0DF011197AA
:102020001C9291E0E037F907B1F70E94990F0895EB
:1020300090E2980F983050F4877091E001C0990FAA
:102040008A95EAF7892F0E94E509EFCF9BE5980F63
:10205000933028F490E080E00E947A07089598E594
:10206000980F9B3128F490E080E00E94360F08958D
:1020700093E3980F933118F460E00E94C80A089522
:10208000CF93C82F8823B1F08CEF8C0F813A00F5E5
:10209000EAE6F1E080E791E0DF012D91C21761F0FF
:1020A0008A179B07D1F76C2F88E691E00E946007A2
:1020B0000E94990FCF9108952191C21303C0DF01AF
:1020C00011971C928E179F07B9F70E94990FEBCFBB
:1020D00080E28C0F883068F4C77021E030E001C0E6
:1020E000220FCA95EAF78091AB01822B8093AB0156
:1020F000DFCFEBE5EC0FE33040F4F0E0ED5EFE4FB8
:10210000808190E00E947A07D5CFE8E5EC0FEB31B3
:1021100050F4F0E0EE0FFF1FEA5EFE4F80819181E8
:102120000E94360FC7CF83E38C0F833118F661E02E
:102130008C2F0E94C80ABECF1F93CF93DF93182F16
:10214000EB010E944010209739F4812F0E94031068
:10215000DF91CF911F9108958FEC97E00197F1F7F0
:1021600000C000002197EFCF70E060E0893311F4E8
:1021700060E570E00E949C100895B0E0A0E0E3EC00
:10218000F0E10C945D2BE82FF0E0E457F74FD4908A
:10219000282F26952695269530E0F901E458F74F2B
:1021A0000491877010E0082E02C0159507950A94D7
:1021B000E2F701701127F901E459F74FE490F12C8F
:1021C000082E02C0F594E7940A94E2F791E0E92220
:1021D000FF24F901E45AF74FC491D0E002C0D5952D
:1021E000C7958A95E2F7C170DD270115110519F031
:1021F00081EE0E944010E114F10419F086EE0E9475
:10220000401070E060E08D2D0E949C10E114F104FC
:1022100019F086EE0E9403100115110519F081EEE8
:102220000E940310CD2B19F08CE20E94B410CDB7A0
:10223000DEB7E7E00C94792B9091A802923071F40C
:102240008A3050F490E009966AE070E00E943E2BDC
:10225000875A0E94B41008958650FBCF96EF980FCE
:10226000963020F0805D0E94BD100895895AFBCF02
:102270008F929F92AF92BF92EF92FF920F931F9314
:10228000CF93DF934B015C01D091A8028CE1E82E43
:10229000F12C07E010E021E0D501C4010E2C04C0B0
:1022A000B695A795979587950A94D2F7C82FCF70C2
:1022B000222339F0D43051F4CA3040F080E00E943B
:1022C0001C118C2F0E941C1120E005C0C111F9CFF8
:1022D00004301105B4F30150110984E0E81AF10843
:1022E0000F3F1007C9F6DF91CF911F910F91FF901B
:1022F000EF90BF90AF909F908F900895CF92DF9214
:10230000EF92FF920F931F93CF938C017B016C018F
:1023100080EEC81AD108C8010E94310BC82F98E07E
:10232000C916D104D0F40E94F90F802F0E944010EA
:10233000E114F104A9F4802F0E94031088E0C8166C
:10234000D104C0F48C2F0E94F20FCF911F910F91F6
:10235000FF90EF90DF90CF9008950E94E80FE5CFB7
:102360008FEC97E00197F1F700C0000091E0E91AC7
:10237000F108DECF8C2F0E94DD0FE7CF0F931F9364
:10238000CF93DF938A01E9018823A1F0C1E0FB012B
:10239000C083FA018081882341F08CE00E94870B82
:1023A00082EE0E944010C0937001DF91CF911F9187
:1023B0000F910895FB01108280917001882369F0CC
:1023C00082EE0E9403108CE00E945E0BF801808177
:1023D0008111EBCF10927001E8CF8881811106C086
:1023E0008CE20E9440108CE20E9403101882DDCF24
:1023F0001092AB01EAE6F1E086E0DF011D928A95DA
:10240000E9F790E080E00E947A0790E080E00E9487
:10241000360F1092A2010E94990F0895AAE2B0E02F
:10242000E4E1F2E10C94612B85EE92E02091F10061
:10243000FC012193CF01F2E08D3E9F07B9F7809117
:10244000E602833009F470C0B8F4813009F447C063
:10245000823009F4B1C08091E80083FF7EC2809190
:10246000E5029091E6029A3008F077C2E92FF0E099
:10247000E75BFE4C0C949D2B8A3009F48CC08B30AA
:1024800009F46FC0893039F78091E502813219F77C
:102490008091E9029091EA020297E8F68091E800C3
:1024A000877F8093E8008091E80082FF38C0909198
:1024B000F3008091F200029731F48091F1008130B5
:1024C00011F0863021F48091F1008093D802809140
:1024D000E8008B778093E8000E945206BCCF809181
:1024E000E502813A09F0B7CF8091E800877F8093B9
:1024F000E8008091E9029091EA02892B61F468E09A
:1025000089ED92E070E00E94FE068091E8008B77F2
:102510008093E800A0CF60E090E080E0F3CF80916E
:10252000E3028111C0CF97CF8091E502813A09F093
:1025300092CF8091E9029091EA02892B09F08BCF2A
:102540008091E800877F8093E8008091E80080FF19
:10255000FCCF80910F018093F1008091E8008E778D
:10256000B9CF8091E502813209F075CF8091E902FF
:102570009091EA02892B09F06ECF8091E800877F65
:102580008093E8000E9452068091E70280930F0139
:102590000E94F81160CF8091E502813209F05BCF93
:1025A0008091E800877F8093E8000E945206809126
:1025B000E8028093D7024FCF8091E502813A09F07B
:1025C0004ACF8091E800877F8093E8008091E800FF
:1025D00080FFFCCF8091D702BECF803899F082383F
:1025E00009F0BBC18091E9028F70873008F0B5C156
:1025F0008093E9008091EB0085FB882780F9109299
:10260000E90006C08091E1029091E202911182609E
:102610009091E800977F9093E8008093F1001092EA
:10262000F1008091E8008E7794C1882309F482C17B
:10263000823009F092C18091E702811185C18091B9
:10264000E9028F702FEF280F263008F086C18093A3
:10265000E9002091EB0020FF77C1933031F48091A5
:10266000EB0080628093EB006FC19091EB00906172
:102670009093EB0021E030E001C0220F8A95EAF749
:102680002093EA001092EA008091EB008860EACF84
:10269000811163C11091E7021F778091E300807878
:1026A000812B8093E3008091E800877F8093E8008E
:1026B0000E9452068091E80080FFFCCF8091E300E9
:1026C00080688093E30082E0111183E08093E3024D
:1026D00044C18058823008F040C18091E702909157
:1026E000E8028C3D23E09207A1F583E08A838AE229
:1026F00089834FB7F894DE01139620E03EE051E263
:10270000E32FF0E050935700E49120FF03C0E295DF
:10271000EF703F5FEF708E2F90E0EA30C0F0C79609
:102720008D939D932F5F243159F74FBF8091E8001F
:10273000877F8093E8006AE270E0CE0101960E94F4
:10274000FE068091E8008B778093E80006C1C09672
:10275000E7CF4091E9025091EA02292F3327233035
:10276000310509F444C078F52130310509F46FC012
:102770008BE390E0EBECF9E02230310509F0EDC09D
:102780002091E800277F2093E8002091EB02309110
:10279000EC028217930708F49C0140E021153105F3
:1027A00009F064C0411162C08091E80082FDC9CF88
:1027B0008091E302882329F2853019F28091E800A4
:1027C00083FFF2CFBECF21323105A9F1223231058C
:1027D00009F0C3C04115510509F443C0413051050A
:1027E00009F0BBC08BE790E0ECE0F9E0C9CF992796
:1027F00081309105C1F0009759F0029709F0ADC002
:10280000E8E1FAE0E4918E2F90E0E8E1FAE007C019
:10281000E2E4FAE0E4918E2F90E0E2E4FAE000973F
:1028200009F49BC0ADCFE0E3FAE0E4918E2F90E095
:10283000E0E3FAE0F4CF4115510571F04130510564
:1028400009F08BC089E090E0E6EFF9E099CF82E1F2
:1028500090E0E6E0FAE094CF89E090E0EDEDF9E079
:102860008FCF84E490E0E7E8F9E08ACF8091E3023B
:10287000882309F466CF853009F463CF8091E8009E
:1028800083FD5FCF8091E80082FD8ECF8091E800CC
:1028900080FF84CF9091F3008091F20021153105E3
:1028A00019F08830910550F041E0089709F040E0B8
:1028B0008091E8008E778093E80070CF4491409338
:1028C000F1003196215031090196E8CF803809F0A6
:1028D00044C08091E800877F8093E8008091E40203
:1028E0008093F1009ECE811138C01091E702123022
:1028F000A0F58091E800877F8093E8001093E402C0
:102900000E945206112311F084E005C08091E3007B
:1029100087FDFACF81E08093E30242E061EC81E041
:102920000E94710642E261EC82E00E947106809191
:10293000E30213C08091E702813079F481E09330A3
:1029400009F080E08093E2021092E9008091E800B3
:10295000877F8093E8000E9452068091E80083FF01
:102960000AC08091E800877F8093E8008091EB00A7
:1029700080628093EB00AA96E3E00C947D2B0E948A
:10298000F8112FE78AE196E0215080409040E1F76E
:1029900000C0000088E19AE00FB6F894A8958093F3
:1029A00060000FBE90936000FFCF1F920F920FB692
:1029B0000F9211242F933F934F935F936F937F93C5
:1029C0008F939F93AF93BF93CF93DF93EF93FF9337
:1029D000D091E900DF708091EC00C82FC17080FDBC
:1029E000C0E81092E9008091F000877F8093F000AA
:1029F00078940E940E121092E9008091F000886095
:102A00008093F000CD2BCF70C093E900FF91EF9140
:102A1000DF91CF91BF91AF919F918F917F916F91F6
:102A20005F914F913F912F910F900FBE0F901F908C
:102A300018951F920F920FB60F9211242F933F9368
:102A40004F935F936F937F938F939F93AF93BF93B6
:102A5000EF93FF938091E10082FF09C08091E20033
:102A600082FF05C08091E1008B7F8093E10080911F
:102A7000DA0080FF23C08091D80080FF1FC08091C2
:102A8000DA008E7F8093DA008091D90019BC80FF34
:102A9000A0C082E089BD09B400FEFDCF81E0809333
:102AA000E3028091D602811109C00E9402060E94B1
:102AB000A3068091E20084608093E2008091E100AF
:102AC00080FF17C08091E20080FF13C08091E20078
:102AD0008E7F8093E2008091E20080618093E2002B
:102AE0008091D80080628093D80019BC85E08093E3
:102AF000E3028091E10084FF30C08091E20084FF16
:102B00002CC019BC82E089BD89B5982F917080FFD7
:102B1000FBCF8091D8008F7D8093D8008091E10019
:102B20008F7E8093E1008091E2008F7E8093E200AF
:102B30008091E20081608093E2008091E40288232A
:102B400009F44CC084E08093E3020E94F8110E94D3
:102B50009F070E94F60D8091E3028091E10083FFC0
:102B600027C08091E20083FF23C08091E100877F2E
:102B70008093E10082E08093E3021092E40280916E
:102B8000E1008E7F8093E1008091E2008E7F809350
:102B9000E2008091E20080618093E20042E060E028
:102BA00080E00E9471068091F00088608093F000C0
:102BB000FF91EF91BF91AF919F918F917F916F9115
:102BC0005F914F913F912F910F900FBE0F901F90EB
:102BD00018951092E3021092D60270CF8091E30014
:102BE00087FD93E09093E302B0CF78941F921FB6D5
:102BF0001F9211248F939F93AF93BF938091D20222
:102C00009091D302A091D402B091D5020196A11D5A
:102C1000B11D8093D2029093D302A093D402B093BB
:102C2000D502BF91AF919F918F911F901FBE1F90B2
:102C300018959C014FB7F8948091D2029091D302DD
:102C4000A091D402B091D5024FBF821B930B08957F
:102C50002FB7F8948091D2029091D302A091D40220
:102C6000B091D5022FBF08950F931F93CF93DF9399
:102C7000C62FD42F022FFC0185818823A9F06093F1
:102C800031030E9428169093300380932F03C7705E
:102C900081E001C0880FCA95EAF70E94F90FDF9121
:102CA000CF911F910F91089580913103681332C025
:102CB00080912F03909130030E941916883C910552
:102CC00048F510E21D0FCD17B9F080E28C0F883067
:102CD00040F4C77081E001C0880FCA95EAF70E94EE
:102CE000F20F183048F481E09D2F977001C0880FD3
:102CF0009A95EAF70E94F90F802F0E94B4101830BD
:102D000070F6D77081E001C0880FDA95EAF70E946B
:102D1000F20FC5CFC77081E001C0880FCA95EAF7EE
:102D2000F6CFB0E0A0E0E7E9F6E10C945A2B8C0175
:102D3000FC018481882309F428C121E0408151816C
:102D40006281738195810E940C0BEC018091680176
:102D500081FB992790F99093780185FB882780F96A
:102D6000809377018091B0019091B1010E94E80AAF
:102D7000809376018091750190917401891751F1CA
:102D80009E012B543E472230310520F1F8019581F8
:102D9000992301F1882369F080917301811106C0A4
:102DA0008CE20E9440108CE20E94031081E080932C
:102DB000730180917401882369F0809172018111FF
:102DC00006C08CE20E9440108CE20E94031081E059
:102DD00080937201809176018C3089F4CB32F2E0DD
:102DE000DF0729F1CE018D7F899709F12097F9F04E
:102DF000F8018581882399F182EE0E940310C13485
:102E0000FEE7DF0709F494C108F06AC0F801858184
:102E1000CA34D105D0F5C834D10558F5C733D1052A
:102E200009F475C100F5C633D10509F43DC1F801B7
:102E30008581882309F4D3C1C433FCE7DF0709F493
:102E40008BC208F0BCC1C2333CE7D30709F4C4C14C
:102E5000C3338CE7D80709F0C2C181E0BEC182EE5E
:102E60000E944010CCCF9E012A5331092D303105EC
:102E7000F0F681117BC080917601883009F076C030
:102E80008C2F0E9440108C2F3FC1C43ED10509F405
:102E9000FAC0B8F4C03ED10509F4F5C0C13ED10571
:102EA00031F6909176019550923008F0C0CF88238A
:102EB00009F4DDC085E00E94870B86E00E945E0B6E
:102EC000B6CFC53ED10569F3C034FEE7DF0709F090
:102ED000AECF882309F44AC080E00E946C0F46C040
:102EE000C9342EE7D20709F452C130F5C4348EE755
:102EF000D80709F429C180F4F8018581C234FEE7BE
:102F0000DF0709F41CC1C3342EE7D20709F08FCFC5
:102F1000882361F183E0E1CFC7343EE7D30709F4AA
:102F20001AC1C8348EE7D80709F081CF81E00E942A
:102F3000640F0E94310E1AC0CC349EE7D90709F401
:102F40008FC040F5CA34FEE7DF0709F422C1CB3455
:102F50002EE7D20709F06BCF23E731E044E751E0D9
:102F600065E771E0F80185810E94BE118091A001A2
:102F7000877059F0F8018581882339F08091B30179
:102F800082FF03C082E00E94700BCDB7DEB7EAE09B
:102F90000C94762BCD343EE7D30709F4FCC0CF3434
:102FA0008EE7D80709F043CF8FE08093E00180934C
:102FB000DF018093E1018093E3018093E20180933C
:102FC000E4018093E6018093E5018093E70180931B
:102FD000E9011092E8011092EA018093EC0110924D
:102FE000EB011092ED011092EF018093EE0110922F
:102FF000F0011092F2011092F1018093F30180939D
:10300000F5018093F4018093F6018093FB01109207
:10301000FA011092FC018093FE011092FD01809351
:10302000FF0180930102109200021092020210929E
:10303000040210920302809305021092070280930B
:1030400006021092080210920D0280930C028093E7
:103050000E0280930A028093090210920B02A9C00B
:1030600022E731E045E751E064E771E07BCF9091E2
:10307000780180917701981709F4D9CE86E00E94F3
:10308000870B85E01BCF882369F080916801982F1A
:10309000917082958170981709F4C9CE8DE00E94D5
:1030A000870BC5CE8DE00ACF882309F45FCF8091CE
:1030B000780181111DC080917701882309F185EE87
:1030C0000E94031083E30E94401083E30E940310D8
:1030D00080917801882319F081EE0E944010809140
:1030E0007701882309F442CF85EE0E9440103ECF3D
:1030F00081EE0E94031080917701882319F3DFCFBE
:1031000086E30E94401086E30E9403102FCF88239D
:1031100009F42CCF80916801827229F083E30E9428
:10312000401083E3F1CF87E30E94401087E3ECCFA8
:10313000F8018581882309F419CF81E0CECE882358
:1031400009F414CF82E0C9CEF8018581882309F4FF
:103150000DCF84E0C2CEF80185818823A1F0809153
:103160007801811104C080917701882329F085E0DE
:103170000E94870B86E004C086E00E94870B85E0F2
:103180000E945E0BF3CE85E00E945E0BF3CF84E0DD
:10319000CECE80E0CCCEF8018581882309F4E6CE3E
:1031A000809101018F5F833038F4809301010E9488
:1031B000DD0B0E94D50DDACE10920101F8CFC63397
:1031C0009CE7D90709F4CCC008F4C8C0C733FCE7B2
:1031D000DF0729F485E001C080E00E94640FD7FF7B
:1031E0001EC1F8018581882309F497C0EC2FC11511
:1031F000F0ECDF07E0F08091A2019091AB01892B08
:103200009091A101892B8272FF24F394811101C056
:10321000F12C0E949F0786958170FE01F81629F017
:10322000EE0FEF2FEE1FFF0BF195EF77FF2724E056
:10323000E29FF0011124EC51FF4FC590D590E5902D
:10324000F490C114D10431E1E306F10408F065C043
:10325000C114D10481E0E806F10428F08091A802AD
:10326000823009F45AC00E949F0780937A0190919E
:10327000A802913029F481FF03C089E30E94B410B1
:103280008091AB01809379011092AB011092A20161
:103290008091A802823009F486C008F063C08823B8
:1032A00009F476C0813009F477C0C114D10491E0EB
:1032B000E906F10408F48AC08091A802811186C051
:1032C000E1E0EE1AF108C701B6014AE0969587954C
:1032D000779567954A95D1F778528F4F9F4F0E9407
:1032E0003811F3E0DF22EE24FF24C701B601745247
:1032F0008F4F9F4F0E9438118091A802823009F4AD
:1033000083C008F066C0882309F46FC0813009F4D7
:1033100070C0809179018093AB01F8018581882389
:1033200009F43EC410923103CE019057839708F000
:1033300021C484E090E00E94BE2E9093B30180935C
:10334000B201FE01E150F047E232F10508F090C011
:10335000ED5AFE4C0C949D2B82E03FCF83E03DCF95
:1033600084E03BCF843069F1853009F09ECF70E076
:1033700060E08BE191E00E947E1170E060E085E208
:1033800090E00E947E1170E060E088E290E008C06A
:1033900082EE0E94401089CF70E060E088E193E007
:1033A0000E947E1182CF80917A0180FD03C083E567
:1033B0000E94B41082EE0E94401087E50E94B41073
:1033C00074CF86EE0E94B41088E1F8CFC701B60131
:1033D00091CF843011F1853009F09BCF70E060E02F
:1033E00088E290E00E947E1194CF82EE0E9403104A
:1033F00090CF8CE20E94B41080917A0181FF89CF36
:1034000089E30E94B41085CF82EE0E940310809160
:103410007A0180FD7ECF83E5F4CF88E2F2CFFE0112
:10342000E851FC47E730F10508F077CFEB58FE4C48
:103430000C949D2B26E241EE61EEC8010E943416E9
:1034400095CD27E245EE65EEF8CF26E241EE60EE3F
:10345000F4CF27E245EE64EEF0CF26E241EE62EED5
:10346000ECCF27E245EE66EEE8CF28E241E0EBCF75
:103470008091B20181608093B20195C08091B301C7
:1034800088608093B3018FC08091B2018260F3CFD6
:103490008091B2018460EFCF8091B2018860EBCF60
:1034A0008091B3018160EDCF8091B3018260E9CF5B
:1034B0008091B2018061DFCF8091B2018062DBCF69
:1034C0008091B2018064D7CF0E94F8118091B2013F
:1034D0008068D1CF8091B2018C60CDCF8091B30153
:1034E0008360CFCF8091B2018E7FC5CF8091B30131
:1034F000877FC7CF8091B2018D7FBDCF8091B20110
:103500008B7FB9CF8091B201877FB5CF8091B30116
:103510008E7FB7CF8091B3018D7FB3CF8091B20101
:103520008F7EA9CF8091B2018F7DA5CF8091B2010E
:103530008F7BA1CF0E94F8118091B2018F779BCF32
:103540008091B201837F97CF8091B3018C7F99CF17
:103550008091B20182FB992790F921E0922790FB9C
:1035600082F990FB83F987CF8091B301982F9095D2
:1035700091708E7F892B90FB81F983CF9091B2015E
:10358000892F8F7B96FF806476CF0E94F8119091EF
:10359000B201892F97FB87F980586DCF61E08EE0EB
:1035A00090E00E94D42E6091B2017091B30184E04A
:1035B00090E00E94F22E0E94F811D8CC60E0EFCF8C
:1035C0009091B201892F8F7E94FF806154CF9091AA
:1035D000B201892F8E7F90FF81604DCF9091B30112
:1035E000892F877F93FF88604CCF85E3E2C20E94DA
:1035F0000E0E1092CD02BACC0E94190E82E080937A
:10360000CD02B4CC0E94250E83E0F9CFC330FCE795
:10361000DF0709F487C008F05BC0C1153CE7D3079A
:1036200009F464C0C130DC4709F482C0F801858127
:10363000C081D181882309F489C0CE010E94F60996
:10364000F82E682FCE010E946A0ABE018F2D0E94BB
:10365000A8080E94C708D82FC92FA82EF801C58036
:10366000B680B2943FE0B3228091A001877009F147
:10367000EC2CCC20F9F0892F807F803469F080E237
:103680008D0F8830B0F0892F807E803229F4F1E0F0
:10369000FD1778F4BB2069F08091B30182FF09C067
:1036A00082E00E94700B8091A0018770EE24E39469
:1036B0008111E12CDC2ED2942FE0D2222BE02D15AB
:1036C00008F4A9C0ED2DF0E0E458FE4C0C949D2BBD
:1036D000CB359CE7D907C1F1CC35ECE7DE0751F1DA
:1036E000CA35DC4709F0A2CF81E02BC00E94F81157
:1036F0002FE73AE186E0215030408040E1F700C0FA
:10370000000087E797E7909301088093000888E11D
:103710009AE00FB6F894A895809360000FBE90933E
:103720006000FFCF6FEF7FEF90E080E00E94F22E0D
:103730000E94BF148091B30182FB882780F991E039
:1037400089270E94820F72CF80E0FBCFCE010E94BA
:10375000370AF82E7ACF3C2F3F70F32EC07F19F036
:10376000F29490EFF922CC20B9F0FF2069F080E2CA
:103770008D0F883010F0A11009C08091AB01F82A9C
:10378000F092AB010E94990F8D2F43C08091A2014E
:10379000F82AF092A201F6CF8D2F0E940310FF208D
:1037A000D1F1D05ED83010F0A11004C08F2D0E944E
:1037B000E50906C0F0948091A201F822F092A201DE
:1037C0000E94990F28C08C2F8F70F82EC07FC032B6
:1037D00019F0F29480EFF822AA2059F091E0A9168E
:1037E00009F47AC0CC2009F486C0BB2009F448C093
:1037F000CBCF8091B30182FD3FC0CC20B9F1FF2037
:1038000039F08091AB01F82AF092AB010E94990F38
:1038100080E00E944010ED2DE850FF0B349720F41B
:103820000E949F070E94F60DEE20A9F08091A00152
:1038300080FD11C0F80115828695869586950E94B7
:10384000870BC8010E9491168091A00186958695EC
:1038500086950E945E0B20E0F801408151816281D3
:103860007381848195810E940C0B8FCB80E00E9434
:103870000310FF2081F29ACFCC20A1F0B11004C038
:103880008F2D0E94F90FC7CFE1E0BE12C4CF809107
:10389000A1019F2D9823F91609F4BDCFF82AF092C3
:1038A000A101B9CFB110B7CF8F2D0E94F20F909127
:1038B000A1018F2D892329F08F2D80958923809355
:1038C000A10180917C019F2D982309F4A4CFF0944D
:1038D000F822F0927C019FCFCC2029F0F5E0FB1577
:1038E00008F499CFCDCF24E02B1508F494CF8F2D79
:1038F0000E94F20F90CFBB20D1F339E3A31209C08D
:103900008FEF93EFE1E081509040E040E1F700C09D
:1039100000008D2F0E9403107ECF8C2F86958695F8
:10392000837069F0813009F076CF8D2F9C2F9370D2
:10393000C11002C080E090E00E94360F6CCF8D2F46
:103940009C2F9370C11002C080E090E00E947A0723
:1039500062CF6C2D8D2F0E94C80A5DCF8C2F837093
:1039600009F03FC0C11057CF4D2F42954695477083
:10397000440F440F2D2F2F7030E0042E02C0220F71
:10398000331F0A94E2F790E080E0D4FF09C08FE093
:1039900090E002C0880F991F4A95E2F780959095B4
:1039A000C695C695C370C23099F078F44091AE01C7
:1039B0005091AF01C13039F0822B932B8423952392
:1039C0000E94A00A28CF242B352B822B932BF8CFD3
:1039D000822B932B2091AE013091AF018227932748
:1039E000EFCF8695CC2011F08C2F8170882309F4BD
:1039F00012CF4D2F429546954770440F440F2D2FFF
:103A00002F7030E0042E02C0220F331F0A94E2F719
:103A100090E080E0D4FF09C08FE090E002C0880F02
:103A2000991F4A95E2F780959095C695C695C37003
:103A3000C23099F078F44091B0015091B101C13099
:103A400039F0822B932B842395230E94570BE3CECE
:103A5000242B352B822B932BF8CF822B932B209169
:103A6000B0013091B10182279327EFCFCF70CC20E6
:103A700029F08C2F0E94870B8D2F03CF8D2F0E9452
:103A8000F20F8C2F0E945E0BC6CE8D2FF2EFAF1679
:103A900099F1FA1570F020EFA216D1F031EFA316CC
:103AA00091F0CC2009F456C0B1106ECE8C2F8F71DE
:103AB00027C093EFA91639F1E4EFAE12F2CF90913F
:103AC000B30192FD2EC08C2F8F71CC20D9F218C07B
:103AD000CC2069F0F4E0FB1508F49DCECF7181E0B5
:103AE00090E002C0880F991FCA95E2F7B8CF25E091
:103AF0002B1508F490CEF2CF8C2F8F71C110C2CF4E
:103B00000E94870B88CE90E080E0CC2009F49DCF06
:103B1000CF7181E090E002C0880F991FCA95E2F74B
:103B200094CFCC2061F08C2F8F7192FFE9CF98E079
:103B3000899F9001112423602093A001E1CF81E0AF
:103B40000E94700BE1E0EB1508F065CE82E00E9468
:103B5000700B61CEBB2059F0893309F0DACEFFEF4C
:103B600023EF31E0F15020403040E1F7D0CE8C2FF0
:103B70008F7188CFC631FCE7DF0749F58091AB0133
:103B80008A7A91E009F490E090937B0169E28111D7
:103B900065E388E691E00E9460070E94990FE6C9FC
:103BA000C631DC4709F042CD80917B0181111DCDEA
:103BB00089E2EAE6F1E020E731E09191891303C060
:103BC000DF0111971C922E173F07B9F7E6CFFE01D0
:103BD000E058F747E831F10508F018CDE857FE4CFA
:103BE0000C949D2BCF93DF9380919F01807F09F0F0
:103BF0004DC080919E01882309F448C0E0912E03B6
:103C00005091F502C0919A01D091990160919B0168
:103C100070919C0147E05E17C9F18E2F90E0E49F00
:103C2000F0011124EA50FD4F2481222391F1489F95
:103C3000F001499FF00D1124DF01AA50BD4F1196EC
:103C40002C9111972C1325C02C912D1322C0159661
:103C50002C91159721111DC012962D913C91261B78
:103C6000370B283C3105A8F480919F018F7080614B
:103C700080939F01E450FD4F80818F70806180832D
:103C800089E991E00E9491160E94EC09DF91CF91A1
:103C90000895FC013196E770BECFA4E1B0E0E3E502
:103CA000FEE10C94582B8C0186E0F801DE011F9692
:103CB00001900D928A95E1F7F8018481E58099E9F8
:103CC000A92E91E0B92E90919D01911128C08823D1
:103CD00019F1EE20F1F0C8010E94A50AF82E882300
:103CE000C1F087E0F801D50101900D928A95E1F7C6
:103CF00080919D01813031F48091990190919A01D8
:103D00000E942A0A0E94F21D8F2D6496ECE00C940A
:103D1000742BC8010E949116FF24F394F5CFD08034
:103D2000C18082809380F0909E0120919B01309110
:103D30009C01A401421B530BFF2009F4D9C0483C4D
:103D4000510508F092C08823F9F290919A01809170
:103D50009F01282F207F09F056C0C91214C09091EE
:103D60009901D91210C0E11048C08F708061809312
:103D70009F0189E991E00E94911680919F01F801CD
:103D80008683F12CC1CFE11038C06C2D8D2D0E949F
:103D9000E3056C2D8D2D0E94E305E82E8111F1CFF6
:103DA000DF86C88A8F8598890E942A0A292F229542
:103DB0002F70243058F49F70223088F0992399F0A6
:103DC000F8019681907F79F4FE2C9ECF2A5F2F70A8
:103DD000223068F0C8010E949116EF2CF5CF99238C
:103DE00011F0882389F3805E883070F3F3CF803F31
:103DF00058F3815F833070F7E7CF80919F01816036
:103E000080939F01BECFC91207C090919901D9122A
:103E100003C0EE2009F48DC0C8010E94A50A8823C2
:103E200009F477CFEE2009F474CF80919F0180329E
:103E300088F02091990130919A01398728879B86D3
:103E40008A8690919D019C871D868E87CE0108965B
:103E50000E94911687E0F801A9E9B1E001900D9266
:103E60008A95E1F70E94F21D57CF90919F01292F6B
:103E7000207F51F489E991E00E94911687E0F501D5
:103E800011928A95E9F77DCF882309F43DCF80917F
:103E90009A018C1110C080919901D8120CC0E110C8
:103EA0000AC09683C8010E94911687E0F50111921D
:103EB0008A95E9F729CFC8010E94A50A882309F449
:103EC00028CFEE2009F425CF80919F01803210F297
:103ED0002091990130919A013A8329839C828B82A7
:103EE00090919D019D831E828F83CE010196B0CF5C
:103EF000483C5105D0F6882309F40ECFFE2CEE2065
:103F000009F407CF80919A018C1120C0809199010A
:103F1000D8121CC080919F0180FD0FC0982F907F08
:103F200061F08683903F31F0982F907F905F8F7083
:103F3000892B8683C8010E94911687E0F801A9E9C0
:103F4000B1E001900D928A95E1F7DECEC8010E94A2
:103F5000A50A81117FCF80919F01816080939F018D
:103F6000C8010E949116D0CEABE1B0E0EAEBFFE1D0
:103F70000C94602B4E8B5F8B688F798F8A8F9B8F11
:103F8000192F91111092A2011D8A86E0FE017696EA
:103F9000DE011F9601900D928A95E1F70A8D0023AC
:103FA00041F021E04F85588969897A89C8010E94CA
:103FB0000C0B0B8B1C8B87E0FE013F96DE011896E5
:103FC00001900D928A95E1F7CE0108960E944D1E50
:103FD00081112AC087E0FE013896DE01119601901A
:103FE0000D928A95E1F78C858823F1F02091F502F6
:103FF00030E0C90101968770992740912E03481738
:104000001906E9F097E0929FD001939FB00D11241B
:10401000AA50BD4FFE01319601900D929A95E1F79D
:104020008093F5020E94EC0917E080912E03909195
:10403000F502891312C06B96E4E00C947C2B0E946D
:10404000F8111092F50210922E0387E0E9E9F1E0F1
:10405000DF011D928A95E9F7E7CF819FC001112406
:104060008A509D4F0E944D1E882329F380912E0374
:1040700090E001968770992780932E03D6CFA6E013
:10408000B0E0E5E4F0E20C94602B0E9428168C016D
:104090008091AC019091AD018017910781F0198258
:1040A0001A820E942816682F49815A81792F80E050
:1040B00090E00E94B41F1093AD010093AC012696CE
:1040C000E4E00C947C2B1F921FB61F9211248F9357
:1040D0009F93AF93BF938091D2029091D302A0910E
:1040E000D402B091D5024196A11DB11D8093D20298
:1040F0009093D302A093D402B093D502BF91AF9115
:104100009F918F911F901FBE1F9018951F920F9225
:104110000FB60F9211242F933F934F935F936F939A
:104120007F938F939F93AF93BF93EF93FF930E94DF
:104130000F0D811137C08091CC028F5F8093CC022C
:104140008A3058F4823008F03EC0813039F1109244
:10415000CC021092CB0281E047C08A3009F447C0FC
:104160008B30A9F70E94040D882389F35091CB026C
:104170004FB7F8948091CA0290E09C012F5F3F4FA7
:104180002F7133276091C902621731F087559D4F17
:10419000FC0150832093CA024FBFD9CF0E94040D67
:1041A0008111D5CFFF91EF91BF91AF919F918F91E9
:1041B0007F916F915F914F913F912F910F900FBE23
:1041C0000F901F9018958091CB0286958093CB021B
:1041D0000E94040D882331F38091CB028068809384
:1041E000CB0280910E018F5F80930E01DBCF0E9486
:1041F000040D90910E01882319F090FFA8CFD2CF23
:1042000090FDA5CFCFCFCDB7DEB728970FB6F894E6
:10421000DEBF0FBECDBF85B7806885BF85B780681C
:1042200085BF84B7877F84BF0FB6F894A895809127
:104230006000886180936000109260000FBE80E88B
:1042400090E00FB6F89480936100909361000FBEE8
:1042500085EB97E09093670180936601259A0E9411
:1042600002060E94A3068091E20084608093E2002F
:1042700078948091E3028823A1F01091E9001F70E7
:104280009091EC00892F817090FD80E8182B10929E
:10429000E9008091E80083FD0E940E121F701093C8
:1042A000E90082E084BD93E095BD9DE797BD8093D2
:1042B0006E004BE551E0A5E5B1E061E070E08D9165
:1042C000E82FE295EF70F0E011A18F709B0101C023
:1042D000220F8A95EAF7922F9095912391A382A1BC
:1042E000822B82A34A175B0751F780B3806E80BB95
:1042F00081B38F7181BB4EE551E0ABE5B1E061E088
:1043000070E08D91E82FE295EF70F0E011A18F70D1
:104310009B0101C0220F8A95EAF7922F9095912375
:1043200091A382A1822B82A34A175B0751F7A8EBC6
:10433000B1E0E1ECF1E011921D9221E0EA3CF207DC
:10434000D1F78FEF94E3ACE081509040A040E1F7CB
:1043500000C0000081E00E94640FEFEDF1E01182E7
:10436000108212823396B2E0E83AFB07C1F78FE081
:1043700080935E0210925D0210925F0210925B02C7
:1043800010925A0280935C02809358021092570256
:10439000109259020E94310E0E94670E0E94ED0E8B
:1043A0000E94D50D8091E30087FFB7C10E94190ECE
:1043B00082E08093CD0290E080E00E94BE2E853E98
:1043C0009E4F09F461C065EE7EEF90E080E00E94B0
:1043D000F22E60E082E090E00E94D42E81E090E036
:1043E0009093AF018093AE0161E083E090E00E9482
:1043F000D42E60E074E184E090E00E94F22E60E050
:1044000086E090E00E94D42E60E087E090E00E9479
:10441000D42E40E050E0BA0188E090E00E94E62E01
:1044200060E083E290E00E94D42E60E08CE090E0B7
:104430000E94D42E60E08DE090E00E94D42E19827C
:104440001A821B821C821D821E821F82188648E0EF
:1044500050E067E170E0CE0101960E94C42E40E07A
:1044600050E0BA018FE190E00E94E62E40E050E07B
:10447000BA018FE090E00E94E62E40E050E0BA01E1
:1044800083E190E00E94E62E82E090E00E94B62E4A
:104490008093CA0184E090E00E94BE2E9093B30105
:1044A0008093B20183E090E00E94B62E90E00E94DB
:1044B000A00A8CE090E00E94B62E8093A8020E9491
:1044C000B2070E94AC078091690080688093690000
:1044D000EB9AFFEF23ED80E3F15020408040E1F7BD
:1044E00000C000008FEF0E94410D0E94DA0C0E9474
:1044F000DA0C84EF0E94410D8091B401811103C058
:1045000085EF0E94410D8AEE0E94410D8091B40119
:10451000811103C084EF0E94410D1092B40182EE1C
:104520000E94410D81E80E94410D8AE40E94410DE4
:1045300089E40E94410D82EE0E94410D81E80E94B3
:10454000410D8DE40E94410D86E00E94410D82EEF6
:104550000E94410D81E80E94410D80E60E94410DBC
:1045600081E60E94410D82EE0E94410D8CE20E9484
:10457000410D0E94DA0C80FF0CC082EE0E94410DBA
:1045800087E40E94410D8CE20E94410D81E00E946F
:10459000410D0E94262882E091E09093F4028093DE
:1045A000F30201E010E0FF24F39441EC842E41E09B
:1045B000942E54ED652E51E0752E2CE4C22E21E090
:1045C000D22E38EBA32E31E0B32EE12CD5016D9124
:1045D0005D01FD011292B8E0EB12A7C02BE531E0BE
:1045E00090E080E0D9015D919D01A52FA295AF706B
:1045F000B0E09096AC9170815F70280102C0440CCD
:10460000551C5A95E2F7A2014A2309F08CC0402FAD
:10461000082E01C0440F0A94EAF7472B4083019605
:1046200083309105F9F6641741F0F092B7010E94CA
:1046300028169093B6018093B501E3942FEFC21A28
:10464000D20A89E0E812C2CF8091B701882399F09D
:104650008091B5019091B6010E941916069758F005
:10466000A1ECB1E0E8EBF1E081918D938E169F060D
:10467000D9F71092B7010E94670E9BECC92E91E00A
:10468000D92EA1ECB1E0F60191918D916E167F06C5
:1046900009F47CC09817C1F381ECA82E81E0B82EF4
:1046A000E12CD5015D905D01F60121906F0125148B
:1046B00019F1412C332433942524822D8321A1F038
:1046C0004982EA820E9428169C838B83FD8291E0B6
:1046D000852D832109F490E09E8349815A816B8165
:1046E0007C818D810E94B41F4394330CF6E04F12FD
:1046F000E4CFF60131975082E394B9E04B2EE410F9
:10470000D0CF8FB7F8944091D2025091D3026091EC
:10471000D4027091D5028FBF3DC00E9449280E94EB
:10472000250E83E046CE40E078CF81B38F71D6016D
:104730009C91892B81BBBDE0BA95F1F7000025E57E
:1047400031E090E080E0D9015D919D01A52FA29517
:10475000AF70B0E09096AC9170815F70280102C09C
:10476000440C551C5A95E2F7A2014A2369F4402FE4
:10477000082E01C0440F0A94EAF7472B40830196A4
:104780008630910501F74FCF40E0F7CF981384CFE3
:104790000E943F202FB7F8949091CA028091C902DD
:1047A0002FBF981709F4A2C00E94DA0C8093EE0282
:1047B0000E94DA0C8093EF020E94DA0C9091EE02D4
:1047C0002091DC01922B2091EF023091DB013927FF
:1047D00037704091F102422B342B382B09F47CC006
:1047E0009093DB01392F307494FF12C1311103C053
:1047F000203809F027FF21E82093EF0295FF0EC132
:1048000097FD03C0803809F087FF81E8292F2770C2
:104810002093EE0281958093F0028091DA0192FF5D
:1048200003C1811110C00E9428169093D901809372
:10483000D801F092DA011092D7011092D6011092AD
:10484000D5011092D4019091EF022091F002892FAE
:10485000822BD9F1A2E05A2E5092DA014091D40174
:104860005091D501420F511D27FD5A952091D60137
:104870003091D701290F311D97FD3A958827992747
:10488000841B950B97FD0196959587958093F10272
:10489000B90137FF02C06F5F7F4F759567956093D1
:1048A000F202880F990B840F951F9093D501809386
:1048B000D401660F770B261B370B3093D70120935B
:1048C000D6011092EF021092F0028091EE028B7FDF
:1048D0008093EE020E941D0F1092EF021092F002E0
:1048E0001092F1021092F2021092EE020E948728BA
:1048F0000E949F079091DE01891779F08093DE0175
:104900009FB7F8944091D2025091D3026091D402A3
:104910007091D5029FBF0E94F60D80910C0190917D
:104920000D01019690930D0180930C018133954701
:1049300008F443CE10920D0110920C010E94072939
:10494000660F771F881F991F0E941B3023E333E3F4
:1049500043E550E40E94D23020E030E040E85AE3E2
:104960000E94D2305B016C012DEC3CEC4CE450E435
:104970000E94752F60E087FD21C026E636E646E8F6
:1049800050E4C601B5010E94CD306FEF1816B4F0A7
:104990002DEC3CEC4CE450E4C601B5010E94082F1C
:1049A0002CEF3FEF4FE75FE30E947A2F20E030E0EB
:1049B0004FE753E40E94D2300E94EC2FE8E76E9F4D
:1049C000C00111246FEF70E00E943E2BCB012CE35D
:1049D000C22ED12CB6010E94892BFB01AC012FE025
:1049E000249FC001259F900D1124B6010E94892BA0
:1049F000962FE130F105D9F13297E9F190E020935B
:104A0000F8016093F7019093F9010E94D50DD5CD7F
:104A1000311102C027FFF0CE2FE7EECE97FD02C086
:104A200087FFF4CE8FE7F2CE8130F1F48091D80188
:104A30009091D9010E9419168C329140A8F480916E
:104A4000EE0284608093EE020E941D0F8FEF90E7CC
:104A5000A2E081509040A040E1F700C000008091AA
:104A6000EE028B7F8093EE021092DA012ECF261B8E
:104A700090E06FE0C4CF6FE020E0C1CFEF92FF92F3
:104A80000F931F93CF93DF93EC018B0122E030E073
:104A900040E060E084E30E949B2A0E9428167C018B
:104AA00088810E94B02A8E3F9105E1F40E94102B6C
:104AB00082E48A95F1F700C022E030E040E060E057
:104AC00084E30E949B2AC7010E9419168017910750
:104AD00038F3C0E00E94102B8C2FCDB7DEB7E6E094
:104AE0000C947A2B6B816F7770E06D5F7F4FCE01F6
:104AF00001960E94E02AC1E0EDCFEF92FF920F9362
:104B00001F93CF93DF93EC017B010E9428168C0149
:104B1000669922C082E08A95F1F700C0C8010E9420
:104B200019168E159F05A0F3C0E08C2FCDB7DEB708
:104B3000E6E00C947A2B63E070E0CE0101960E94CF
:104B4000F82A6B816F77613128F470E0CE0104960A
:104B50000E94F82AC1E020C022E030E040E060E09E
:104B600084E30E949B2A0E94C82A88838E3F18F300
:104B70000E94102B82E48A95F1F700C022E030E019
:104B800040E060E084E30E949B2AC8010E9419165D
:104B90008E159F0540F3C0E00E94102BC6CFA4E104
:104BA000B0E0E5EDF5E20C94612B182FE0913703AE
:104BB00080913603E81719F1669B25C066E970E01D
:104BC000CE0101960E947D258823C9F08C8187FD46
:104BD0000CC08091370390913603891781F090E0E3
:104BE00001968170992780933703112341F09091AA
:104BF000370380913603981711F06699DFCF6496DA
:104C0000E3E00C947D2BF0E0EE0FFF1FEE5CFC4F19
:104C1000808191810E9419168D32914080F380919C
:104C2000370390913603891751F390E00196817014
:104C3000992780933703E3CFA8E2B0E0E2E2F6E2FF
:104C40000C94552B8C017B016A014901FC010190F8
:104C50000020E9F7CF0101975C01672B61F090918B
:104C6000360380913703981721F081E00E94CF2509
:104C7000F6CFF701108240E1742E5AE0652E60E90C
:104C8000562EA501401B510B41315105C4F07D8AC0
:104C90001E8A6F8A588EF801DE015996872D019081
:104CA0000D928A95E1F7B401CE0145960E943E250A
:104CB000811102C010E03AC0005F1F4FE2CF80E1D7
:104CC0008D8B1E8A8AE08F8B842F8F77888F552754
:104CD000B801CE0149960E94E32BB401CE0145965E
:104CE0000E943E25182F882329F3E114F10419F5B9
:104CF0000E9428167C018091360390E09C012F5F72
:104D00003F4F2170332740913703421304C080E0A6
:104D10000E94CF25F0CF880F991FFC01EE5CFC4F5D
:104D2000F182E082209336030E942816812FA896F4
:104D3000EFE00C94712B5701AC0CBD1C87016CE2A9
:104D400071E0CE0101960E947D25882309F4B2CF3F
:104D50008981803219F0F7011082ACCF8C818F7776
:104D6000CA2CC01A8C1508F4C82ECC2051F0D12CB6
:104D7000A601BE016B5F7F4FC8010E94E32B0C0DA3
:104D80001D1D8C8187FDDBCFF801108201501109B8
:104D9000E016F10630F4F80180818A30A9F38D30F5
:104DA00099F36AE070E0C7010E94F72B009721F0A9
:104DB0007C01FFEFEF1AFF0A6DE67BE0C7010E945E
:104DC000CA2B11E0892B09F4B1CF74CFB0E0A0E079
:104DD000ECEEF6E20C94582B7C015B014A01CDB657
:104DE000DEB60E94DA2B01962DB73EB7281B390B91
:104DF0000FB6F8943EBF0FBE2DBF0DB71EB70F5FA5
:104E00001F4FB701C8010E94D32B26E930E0A4014F
:104E1000B501C8010E941C260FB6F894DEBE0FBE75
:104E2000CDBEECE00C94742BAAE7B0E0EAE1F7E227
:104E30000C94582B6C019091360380913703981392
:104E400039C08091C9049091C804891799F12AE06A
:104E5000289FC0011124885C9C4FFC01DE01AF58E3
:104E6000BF4F01900D922A95E1F7FC01E08015817A
:104E70000681F780908481840E9428169093D5043F
:104E80008093D404F1E0EF1609F45CC0EE20B9F091
:104E900022E0E21609F472C08091C9049091C8041E
:104EA000891741F090E0019668E270E00E943E2B85
:104EB0008093C904C658DF4FECE00C94742B66E96C
:104EC0007AE0CE0101965C010E94D32B1F928F9253
:104ED0001F929F921F92FF921F920F931F921F93F8
:104EE000E6968FADE6971F928F93E5968FADE59787
:104EF0001F928F93BF92AF921F9280E38F938E0188
:104F00000F5B1F4F1F930F930E940A2C960150E0D6
:104F100040E070E060E0C8010E941C260FB6F894E3
:104F2000DEBF0FBECDBF8111B7CFFFE729EA33E067
:104F3000F15020403040E1F700C0000081E00E94C5
:104F4000CF25B8CF6BE77AE08E010F5F1F4FC80106
:104F50000E94D32BE6968FADE6978F93E5968FADA3
:104F6000E5978F931F930F931F9280E38F93005CBD
:104F70001F4F1F930F930E940A2CC8CF6CE57AE055
:104F8000CE0101965C010E94D32B802F002E000CD5
:104F9000990B9F930F93812F012E000C990B9F93D8
:104FA0001F93E6968FADE697282F082E000C330B43
:104FB0003F938F93E5968FADE597282F082E000C31
:104FC000330B3F938F93BF92AF921F9280E38F93E7
:104FD0008E010F5B1F4F1F930F930E940A2C9601A7
:104FE00050E040E070E060E0C8010E941C260FB66F
:104FF000F894DEBF0FBECDBF882309F496CF66E4D8
:105000007AE0C8010E94D32BF0FE05C06EE571E086
:10501000C8010E94EC2BF1FE05C060E671E0C801FA
:105020000E94EC2B62E671E0F2FC04C0F11005C0B6
:1050300064E671E0C8010E94EC2B960150E040E06C
:1050400070E060E0C8010E941C266DCFCF93DF9313
:10505000CAECD4E019821A8218826E9876980E945F
:105060000B2A549A5C9A5C988FE19EE40197F1F7C1
:1050700000C000005C9A9FEF29E688E19150204033
:105080008040E1F700C0000081E08983DF91CF918B
:1050900008958091CA040895A2E8B0E0E2E5F8E23C
:1050A0000C94602B8091CB04882361F11092CC0486
:1050B00003E01BE042E050E0B801CE018F579F4F64
:1050C0000E94C12B40E850E0BE016F5F7F4FCF5779
:1050D000DF4F88819981C158D0400E94E6268823FD
:1050E00079F00E5F1F4F8BE00F30180719F781E042
:1050F0008093CC040E9428169093D5048093D40406
:105100008091CC04CE57DF4FE4E00C947C2BA0E3DD
:10511000B0E0EDE8F8E20C94622B8091CC048111B0
:1051200005C00E944C28882309F46DC081E00E94CC
:10513000CF258AE090E00E9414278091D4049091BA
:10514000D5040E941916893E9340C8F18091CD0480
:10515000811117C040E350E0BE016F5F7F4F80EFC9
:105160009AE00E94E626882349F040E350E0BE0121
:105170006F5F7F4F8DED9AE00E94E62681E080937D
:10518000CD040E9428169093D5048093D40440E364
:1051900050E0BE016F5F7F4F8FEC9AE00E94E626E1
:1051A000882369F0CE0101960E94A32B21E0892B70
:1051B00009F420E08091CA0428132093CA04809146
:1051C000CE049091CF040E94191681319742D8F0F5
:1051D0009091360380913703981315C00E942816CA
:1051E0009093CF048093CE0485E30E94062A092E73
:1051F000000CAA0BBB0B8093D0049093D104A09316
:10520000D204B093D304E096E2E00C947E2B60913C
:10521000D0047091D1048091D2049091D304089568
:105220000F931F93CF93DF939C01FB018C010057D9
:105230001E4FD801CC91D0E0CE01019668E270E01B
:105240000E943E2BD901AF56BE4F9C919817A1F0FA
:105250009AE09C9FD0019D9FB00D1124A20FB31F17
:1052600001900D929A95E1F7F801808381E0DF913A
:10527000CF911F910F91089580E0F9CFAAE0B0E09F
:10528000E4E4F9E20C94622BFC01198280818C83A6
:1052900082818D8383818E8384818F8385818887BA
:1052A0008681898787818A87BE016F5F7F4F88E308
:1052B00093E00E941029811105C086E990E00E94C8
:1052C0001427F2CF2A96E2E00C947E2BAAE0B0E0FD
:1052D000ECE6F9E20C94622B21E029839D838C8318
:1052E000BE016F5F7F4F88E393E00E941029811118
:1052F00005C086E990E00E941427F2CF2A96E2E0EA
:105300000C947E2BAAE0B0E0E8E8F9E20C94622B62
:10531000FC0182E0898382818C8383818D838481F7
:105320008E8385818F8381818887BE016F5F7F4FE8
:1053300088E393E00E941029811105C086E990E07E
:105340000E941427F2CF2A96E2E00C947E2B109252
:10535000C8041092C904E2E3F3E0148215820895B0
:10536000873901F178F48633F9F030F48433F1F0C1
:105370008533F1F08FE108958439E1F08639D1F772
:1053800081E20895843FC1F030F4803FB9F0813F5D
:1053900089F781E00895863F99F0A0F0873F51F7A3
:1053A00087E0089582E2089585E2089583E20895F2
:1053B00084E2089580E2089584E0089580E00895ED
:1053C00086E0089585E0089595E890937A00982FF7
:1053D0009072906890937B008F7190911001892B4F
:1053E00080937C0080917A00806480937A00809121
:1053F0007A0086FDFCCF8091780020917900909111
:105400007A009F7790937A00922F08950E94B02996
:105410000E94E4290895289A219A229A23982B9889
:1054200080E58CBD0895FC01809112018F3F09F049
:1054300080C080818F3F09F47CC01092D7048181A5
:10544000882319F080E28093D70482819091D70459
:10545000823009F445C0833009F446C0946081303D
:1054600009F43FC08381948121E030E02817390797
:10547000E8F19091D7042031310509F453C0C8F503
:105480002230310509F447C02830310509F447C0FE
:105490008CB59091D704892B8CBD8091D60488233C
:1054A00019F08DB581608DBD908190931201858139
:1054B00080931101E92FE295EF70F0E041A19F7018
:1054C00021E030E001C0220F9A95EAF7942F922B49
:1054D00091A3811129C082A1282B22A381E00895E4
:1054E00098609093D704BECF9C60FBCF220F331FF0
:1054F000BDCF2034310549F02038310541F020324C
:10550000310531F681E08093D604926001C093604A
:105510009093D704BDCF81E08093D604B9CF81E0CA
:105520008093D6049160F4CF92A12095292322A3E1
:10553000089580E00895A6E0B0E0E1EAFAE20C9474
:10554000622B89836A834B833D832C8381E08E8326
:10555000CE0101960E94132A2696E2E00C947E2B3F
:10556000CF93DF938EBD0E942816EC010DB407FE89
:1055700005C08EB590E0DF91CF9108950E94281666
:105580008C1B9D0B8436910588F38EEF9FEFF3CF34
:10559000CF93DF931EBC0E942816EC010DB407FECA
:1055A00005C08EB590E0DF91CF9108950E94281636
:1055B0008C1B9D0B8436910588F38EEF9FEFF3CF04
:1055C0000F931F93CF93DF93EC018C01060F171FEE
:1055D000C017D10719F490E080E005C089910E94BE
:1055E000B02A97FFF5CFDF91CF911F910F910895CA
:1055F0000F931F93CF93DF93EC018C01060F171FBE
:10560000C017D10739F490E080E0DF91CF911F916E
:105610000F9108950E94C82A97FDF7CF8993F0CF84
:10562000209112012F3F31F1E22FE295EF70F0E06F
:1056300031A12F7081E090E001C0880F2A95EAF730
:10564000232F282B21A32091110192A1222399F02D
:10565000892B82A38FEF809312018DB58E7F8DBD34
:105660009CB58091D704809589238CBD1092D70476
:105670001092D604089580958923EBCF97FB072ECF
:1056800016F4009407D077FD09D00E94892B07FCFF
:1056900005D03EF4909581959F4F08957095619542
:1056A0007F4F08952F923F924F925F926F927F9219
:1056B0008F929F92AF92BF92CF92DF92EF92FF9222
:1056C0000F931F93CF93DF93CDB7DEB7CA1BDB0BCE
:1056D0000FB6F894DEBF0FBECDBF09942A88398873
:1056E00048885F846E847D848C849B84AA84B9847A
:1056F000C884DF80EE80FD800C811B81AA81B98186
:10570000CE0FD11D0FB6F894DEBF0FBECDBFED0199
:105710000895AA1BBB1B51E107C0AA1FBB1FA617F8
:10572000B70710F0A61BB70B881F991F5A95A9F74A
:1057300080959095BC01CD010895EE0FFF1F059057
:10574000F491E02D0994FC0188279927E894219190
:105750002032E9F3293010F02E30C8F32B3241F01B
:105760002D3239F4689404C00E94022C820F911DDE
:10577000219120532A30C0F31EF4909581959F4FBC
:105780000895FB01DC0102C005900D92415050408C
:10579000D8F70895FB01DC018D9105908019011067
:1057A000D9F3990B0895FB01DC0105900D920020BF
:1057B000E1F70895FC0105900020E9F780959095A8
:1057C0008E0F9F1F0895FB01DC0102C001900D9216
:1057D00041505040D8F70895FB01DC010D900020A6
:1057E000E9F7119701900D920020E1F70895FC016F
:1057F00081E090E00190061609F4CF010020D1F776
:10580000019708957AE0979F902D879F802D910DA5
:1058100011240895AEE0B0E0E0E1FCE20C94602BCE
:105820000D891E898F89988D26E02C831A83098320
:1058300097FF02C080E090E801979E838D83AE01C0
:10584000455E5F4F698D7A8DCE0101960E943A2C9C
:105850004D815E8157FD0AC02F813885421753075D
:105860000CF49A01020F131FF80110822E96E4E047
:105870000C947C2BABE0B0E0E0E4FCE20C94522B07
:105880007C013B018A01FC0117821682838181FF22
:10589000B9C19AE0292ECE0101965C01F7019381EE
:1058A000F30193FD859193FF81913F01882309F4D2
:1058B00046C1853239F493FD859193FF81913F0173
:1058C000853229F4B70190E00E941B2EE7CF912C7E
:1058D000412C512CFFE1F51538F08B3209F188F499
:1058E000803201F1833221F157FC3AC020ED280FBC
:1058F0002A3040F556FE1FC0929C200D1124922E96
:1059000006C08D3291F0803379F7689450F8F30136
:1059100093FD859193FF81913F018111DBCF20C0E1
:10592000689451F8689452F8F2CF689453F8EFCF26
:10593000689454F8ECCF429C200D1124422E6894B8
:1059400055F8E5CF8E3229F456FCF9C0689456F824
:10595000DECF8C3619F4689457F8D9CF8836B9F26F
:10596000982F9F7D95549330C0F08336A1F18337F3
:10597000C1F1833509F05BC0F801C190D1908F016E
:10598000692D70E056FC02C06FEF7FEFC6010E94E8
:10599000052E4C01689457F80AC00C5F1F4F2FE387
:1059A000298388248394912C6501E89457F853FC4B
:1059B00004C04814190409F018F5342C811491041A
:1059C00031F5332009F46ACFB70180E290E00E94FC
:1059D0001B2E3A94F6CFF801808189830E5F1F4F0A
:1059E000E0CFF801C190D1908F01692D70E056FC95
:1059F00002C06FEF7FEFC6010E94102E4C01D5CF81
:105A0000B70180E290E00E941B2E4A94D2CFF601AB
:105A100057FC859157FE81916F01B70190E00E947C
:105A20001B2E31103A94F1E08F1A9108C7CF8436BB
:105A300019F0893609F074C0F80157FE6AC0619107
:105A40007191819191918F01252D2F76D22E97FF03
:105A500009C090958095709561957F4F8F4F9F4FAE
:105A60006894D7F82AE030E0A5010E944B2EC82E9A
:105A7000CA188C2C5D2CD6FE0CC0E89450F8C914C2
:105A800040F4D4FE05C0D2FC03C0FD2DFE7E5F2E87
:105A9000892C54FE8FC0FE01EC0DF11D80818033F6
:105AA00009F081C0252D297E522E852D8870382E33
:105AB00053FC8FC050FE89C09C2C841418F44C0CED
:105AC000942C981854FE8BC0B70180E390E00E949C
:105AD0001B2E52FE09C088E790E051FE02C088E507
