:100000007BC50000B1C50000AFC50000ADC5000054
:10001000ABC50000A9C50000A7C50000A5C500002C
:10002000A3C50000A1C500000C94D0250C949D260A
:100030000C944F2099C5000097C5000095C500009D
:1000400093C5000091C500008FC500008DC500005C
:100050008BC500000C94C62087C5000085C5000034
:1000600083C5000081C500007FC500007DC500007C
:100070007BC5000079C5000077C5000075C500008C
:1000800073C5000071C500006FC500006DC500009C
:100090006BC5000069C5000067C5000065C50000AC
:1000A00063C5000061C500005FC5000025303258FF
:1000B0003A20253031366225730A00722F632030D2
:1000C0003132333435363738394142434445460AB4
:1000D0000014001A0008002B001500180017001C5F
:1000E00000120013002F000C003000000031004C03
:1000F000001E001F002000290021002400220023F0
:1001000000260027002D0025002E0000002A0049AF
:10011000000000E300E200E0000000000000002C0E
:1001200000E6000000E40000002152510050004FA2
:100130000000001D001B00E1000600110019000571
:10014000003600370038001000E5005200000000C3
:1001500000040016000700390009000D000A000B1A
:10016000000F00330034000E0000000000280000E3
:100170000001000100010001000100010001000177
:100180000047004800010046000100000001000196
:10019000003A003B003C0035003D0040003E003F7F
:1001A00000420043004400410045000000010001FE
:1001B000000000010001000100000000000000013B
:1001C00000010000000100000021520100010001B7
:1001D0000000000100010001000100010001000118
:1001E000004D004E00010001000100010000000070
:1001F00000010001000100010001000100010001F7
:10020000004B00010001004A000000000001000056
:10021000006C65645F7461736B3A20253032580A54
:10022000004F6E6573686F743A2061637469766518
:100230003A2025640A0044454255473A20646973D0
:1002400061626C65642E0A0044454255473A206558
:100250006E61626C65642E0A00313A0964656C61F6
:1002600079282A31306D73293A2025750A323A09E6
:10027000696E74657276616C286D73293A202575F4
:100280000A333A096D61785F73706565643A2025B9
:10029000750A343A0974696D655F746F5F6D6178D2
:1002A0003A2025750A353A09776865656C5F6D6196
:1002B000785F73706565643A2025750A363A097768
:1002C0006865656C5F74696D655F746F5F6D61789B
:1002D0003A2025750A00703A097072696E742076AA
:1002E000616C7565730A643A0973657420646566A8
:1002F00061756C74730A75703A092B310A646E3A31
:10030000092D310A6C743A092B31300A72743A099A
:100310002D31300A4553432F713A09717569740ABA
:100320000A7370656564203D2064656C7461202AE1
:10033000206D61785F7370656564202A202872657E
:1003400070656174202F2074696D655F746F5F6DD7
:100350006178290A77686572652064656C74613A12
:1003600020637572736F723D25642C207768656514
:100370006C3D25640A53656520687474703A2F2FAC
:10038000656E2E77696B6970656469612E6F72673F
:100390002F77696B692F4D6F7573655F6B65797327
:1003A0000A004D3E20004D25753A25733E20003F42
:1003B0000A003D2025750A003F0A006465666175E4
:1003C0006C74730A0025750A003F0A000A092D2083
:1003D00056616C756573202D0A00710A000A092D9B
:1003E000204D6F7573656B6579202D0A003F0043C2
:1003F0003E20004C25640A000A092D2053746174C4
:100400007573202D0A686F73745F6B6579626F6115
:1004100072645F6C65647328293A20253032580A6B
:100420006B6579626F6172645F70726F746F636F16
:100430006C3A20253032580A6B6579626F617264BC
:100440005F69646C653A20253032580A6B65796DB6
:1004500061705F636F6E6669672E6E6B726F3A20B4
:10046000253032580A74696D65725F726561643354
:100470003228293A202530386C580A002573000AA2
:10048000092D20436F6E736F6C65202D0A45534311
:100490002F713A09717569740A6D3A096D6F757338
:1004A000656B65790A000A092D204D616769632033
:1004B0002D0A443A094465627567204D657373617E
:1004C000676520546F67676C650A583A094D617417
:1004D000726978204465627567204D6F64652054A9
:1004E0006F67676C65202D2053686F77206B657987
:1004F0007072657373657320696E206D61747269C3
:100500007820677269640A4B3A094B6579626F61BA
:10051000726420446562756720546F67676C65205C
:100520002D2053686F77206B657970726573732027
:100530007265706F72740A4D3A094465627567207E
:100540004D6F75736520546F67676C650A563A097D
:1005500056657273696F6E0A533A09537461747504
:10056000730A433A09416374697661746520436F85
:100570006E736F6C65204D6F64650A46312D463190
:10058000303A0953776974636820746F204C61793D
:10059000657220302D392028463130203D204C30E6
:1005A000290A302D393A0953776974636820746FCA
:1005B000204C6179657220302D390A4752415645E9
:1005C0003A0953776974636820746F204C617965C8
:1005D0007220302028616C7465726E617465290A1E
:1005E000423A094A756D7020746F20426F6F746CC7
:1005F0006F616465720A4553433A094A756D70200C
:10060000746F20426F6F746C6F6164657220286133
:100610006C7465726E617465290A453A0950726995
:100620006E7420454550524F4D2053657474696E69
:1006300067730A4241434B53504143453A09436C67
:1006400065617220454550524F4D0A4E3A094E4B56
:10065000524F20546F67676C650A006B65796D6156
:10066000705F636F6E6669672E7261773A2025301E
:1006700032580A2E737761705F636F6E74726F6C9D
:100680005F636170736C6F636B3A2025750A2E632C
:100690006170736C6F636B5F746F5F636F6E7472A6
:1006A0006F6C3A2025750A2E737761705F6C6374E6
:1006B0006C5F6C6775693A2025750A2E73776170D7
:1006C0005F7263746C5F726775693A2025750A2ED4
:1006D000737761705F6C616C745F6C6775693A20E9
:1006E00025750A2E737761705F72616C745F726733
:1006F00075693A2025750A2E6E6F5F6775693A2015
:1007000025750A2E737761705F67726176655F6524
:1007100073633A2025750A2E737761705F62616397
:100720006B736C6173685F6261636B737061636547
:100730003A2025750A2E6E6B726F3A2025750A2EA7
:10074000737761705F6573636170655F6361707318
:100750006C6F636B3A2025750A0064656275675F8C
:10076000636F6E6669672E7261773A202530325862
:100770000A2E656E61626C653A2025750A2E6D61E0
:10078000747269783A2025750A2E6B6579626F61FB
:1007900072643A2025750A2E6D6F7573653A2025AF
:1007A000750A006565636F6E6669673A0A64656617
:1007B00061756C745F6C617965723A20256C750A9D
:1007C000003F004E4B524F3A206F66660A004E4B78
:1007D000524F3A206F6E0A000A6D6F7573653A20AA
:1007E0006F66660A000A6D6F7573653A206F6E0A50
:1007F000000A6B6579626F6172643A206F66660AFF
:10080000000A6B6579626F6172643A206F6E0A004C
:100810000A6D61747269783A206F66660A000A6D23
:1008200061747269783A206F6E0A000A64656275B5
:10083000673A206F66660A000A64656275673A2047
:100840006F6E0A000A0A4A756D70696E6720746FD0
:1008500020626F6F746C6F616465722E2E2E2000A3
:10086000433E2000436C656172696E6720454550C8
:10087000524F4D0A00290A002575002F00257500EA
:100880005D28002564002000256400200025640008
:1008900020002564007C0025303258006D6F757390
:1008A000656B6579205B62746E7C78207920762098
:1008B000685D287265702F61636C293A205B000ABD
:1008C000002530325820006E6B726F5F7265706F5A
:1008D00072743A2025303258207C20000A002530DE
:1008E000325820006B6579626F6172645F72657067
:1008F0006F72743A2025303258207C200064656C79
:100900005F6B65795F6269743A2063616E2774205A
:1009100064656C3A20253032580A006164645F6B6C
:1009200065795F6269743A2063616E27742061643F
:10093000643A20253032580A0073757370656E640E
:10094000696E67206B6579626F6172640D0A005B86
:10095000575D005B535D005B525D005B445D005B77
:10096000435D000E0346004300360036003000436E
:100970000000000A034800610073007500000004D5
:1009800003090409025400030100A0FA090400004D
:1009900001030101000921110100012244000705A2
:1009A000810308000109040100010300000009217E
:1009B0001101000122B6000705820320000109048D
:1009C00002000103000000092111010001221500AD
:1009D00007058303200001120100020000000853F4
:1009E000480C660001010200010631FF0974A101F3
:1009F0000975150026FF00952075088102C00501C4
:100A00000902A10185020901A100050919012908AE
:100A1000150025019508750181020501093009318C
:100A20001581257F95027508810609381581257F76
:100A3000950175088106050C0A38021581257F95F8
:100A40000175088106C0C005010980A1018503194F
:100A5000012AB700150126B700950175108100C065
:100A6000050C0901A101850419012AA0021501261E
:100A7000A002950175108100C005010906A101853C
:100A800006050719E029E71500250195087501817C
:100A9000020507190029EF1500250195F075018160
:100AA0000205081901290595057501910295017541
:100AB000039101C005010906A101050719E029E715
:100AC00015002501950875018102950175088101C0
:100AD0000507190029FF150026FF009506750881F6
:100AE00000050819012905150025019505750191D5
:100AF00002950175039101C011241FBECFEFDAE00A
:100B0000DEBFCDBF04B603FE18C08091F5039091FF
:100B1000F603A091F703B091F8038730904BA740FC
:100B2000B04B59F41092F5031092F6031092F703AC
:100B30001092F803E0E0F8E3099512E0A0E0B1E0DC
:100B4000ECEDF2E502C005900D92A83BB107D9F794
:100B500023E0A8EBB2E001C01D92A53FB207E1F788
:100B60000E942C150C94EE284BCAFF93EF93E09152
:100B7000B802F091B902309709F00995EF91FF9111
:100B80000895FC018591803011F0EFDFFBCF0895CF
:100B9000FF27E0E230E247FF0CC0419597FF09C014
:100BA000EDE26095709580959095611D711D811D98
:100BB000911D27FF02C0219530E350E2AA27660F5E
:100BC000771F881F991FAA1FA41710F0A41B6395F5
:100BD0005A95A9F7AA3008F0A95FA05DAF93F395E5
:100BE000611571058105910541F7ED3211F4EF931F
:100BF000F395F21718F43F93F395FBCF8F91B5DF80
:100C0000FA95E1F70895E991F9918591803021F005
:100C1000853219F0AADFF9CF089520E0E8945591C4
:100C20005532C1F3503311F4689455915A3348F456
:100C3000505390F3220F022E220F220F200D250F6A
:100C4000F4CF0EF4219589919991533619F35337C6
:100C500029F1533559F1BC0188279927E8945C366E
:100C600021F48991999168945591543639F446EF5D
:100C70007EF077FF0DC08FEF9FEF0AC055374AE037
:100C800039F0583540E121F0523642E009F008953C
:100C9000FF93EF937DDFEF91FF91B7CFFF93EF933A
:100CA000FC0181918030B9F360DFFBCFFF93EF93BC
:100CB00068DFF1CFDF93CF93CDB7DEB72596A3DF03
:100CC000CF91DF9108950895FECF08950895FECF46
:100CD000089584B18F6184B93E98469A3F9A8AB14B
:100CE000806F8AB95F9A479884B1806684B985B16C
:100CF000806685B9A4ECB2E011961C921E92139600
:100D00001C921E92129715961C921E92149717967B
:100D10001C921E92169719961C921E921897EAEB37
:100D2000F2E01182108213821282158214821782DD
:100D3000168211861086B093D102A093D002F09350
:100D4000CF02E093CE02C0CFAF92BF92DF92EF927C
:100D5000FF920F931F93CF93DF938091CE029091D8
:100D6000CF022091D0023091D1023093CF02209354
:100D7000CE029093D1028093D002D0E0C0E001E097
:100D800010E095B1907EC3FD89C028E08C2F87705C
:100D9000892B822B85B9B8010C2E02C0660F771FF4
:100DA0000A94E2F75B01A094B09490E080E040E008
:100DB0002BB12F70242B20682BB9EAE0EA95F1F7CC
:100DC00000C0A091CE02B091CF02A80FB91F2D9103
:100DD0003C9126233723232B09F0479AF5E3FA9514
:100DE000F1F70000D6B45F982AE02A95F1F700C029
:100DF0002091D0023091D1027901E80EF91EF7015D
:100E0000369B4EC0A081B181AA21BB21B183A083B2
:100E100056B55D19563070F0A091CE02B091CF0258
:100E2000A80FB91F0D90BC91A02D280F391FF901F3
:100E3000B183A083FAE1FA95F1F700C047985F9A71
:100E4000EBE2F1E03197F1F700C00000405F02965D
:100E5000403509F0ADCFA091D002B091D102E09120
:100E6000CE02F091CF021A962D913C918285938506
:100E70002817390711F00E94BA202196C031D105F8
:100E800009F07FCF24DF81E0DF91CF911F910F9197
:100E9000FF90EF90DF90BF90AF90089520E176CF64
:100EA000A081B181A62BB72BB1CF90E0880F991FFD
:100EB0002091D0023091D102820F931FFC018081DA
:100EC00091810895EF92FF920F931F93CF93DF9339
:100ED0008BEB90E09F938F93EDDE0F900F90D0E01F
:100EE000C0E087EAE82E82E0F82E0CEA10E08C2FB2
:100EF000DCDF39D1FF92EF929F938F93DF93CF93F3
:100F00001F930F93D7DE21968DB79EB708960FB625
:100F1000F8949EBF0FBE8DBFC530D10541F7CDB748
:100F2000DEB7E6E00C9497288230C8F46530B8F458
:100F30004031A8F4E62FF0E095E0899FE00DF11D27
:100F4000112484E0EE0FFF1F8A95E1F7E40FF11DF5
:100F5000EE0FFF1FEF52FF4F85919491089581E0AE
:100F600090E00895E1CF089581E00895FDCF0895C0
:100F7000FBCF0895F9CF0895F7CF0895FDCF0895D9
:100F800008950895FDCF089508950895A6E0B0E06E
:100F9000ECECF7E00C947E2849835A839E833091D1
:100FA000D70289819A81311117C03E81332389F09C
:100FB000222379F03FD5182F682F89819A811AD57D
:100FC00069817A81812F0E9471132696E3E00C9447
:100FD0009A2820D5182FF4CF2DD569817A81F3CFA7
:100FE000FC01262F4081518162817381848195812A
:100FF000CDCFCF93DF93EC0161E0F2DFBE01B6DF2E
:10100000882349F061E0CE01EBDFBE01B1DF8170E2
:10101000DF91CF91089580E0FACF0F931F93CF9384
:10102000DF93EC0160E0DCDF8C01BE01AADFBE01D2
:10103000C801A8DFDF91CF911F910F9108950F9301
:101040001F93CF93DF93EC0161E0CADF8C01BE01F7
:1010500091DF811106C080E0DF91CF911F910F9148
:101060000895BE01C8018ADF8823A9F3BE01C80123
:101070000E94E11C882379F3BE01C8010E94A418D4
:10108000882349F3BE01C8010E947D18882319F303
:10109000BE01C8010E9471148823E9F2BE01C80193
:1010A0000E9483148823B9F2BE01C8010E949C14D7
:1010B000D3CF21E030E0A90102C0440F551F8A952B
:1010C000E2F7CA01D0C3CF93C82F81E090E00C2E85
:1010D00002C0880F991F0A94E2F70E9463118C2FB7
:1010E000E8DFCF91089581E00895FDCF0895FBCF0B
:1010F0000895CF93C82F6FD38C2FF7DF8C2FF7DF96
:101100002FEF84E39CE0215080409040E1F700C045
:101110000000CF91089581E0ECDF0C94EA2080E09C
:10112000E8DF0C940E2130DF0E94E91F41C042D05D
:101130002CDF0C94ED1F829590E09C01220F331F51
:10114000220F331F2C7C95958795959587958373F2
:10115000282B30E0C901880F991F8A7A3595279589
:101160002575822B0895CF93DF93D92FE4DFC82F05
:101170008D2FE1DF9C2FDF91CF91089581E00895BD
:1011800081FD02C02E9A08952E980895CF93DF9383
:10119000D82FF4DFC82F882311F08D2FF1DF8C2F8B
:1011A000DF91CF910895269A2E9A0895EFCF089552
:1011B00080E0FCCF0E94321DF9CFCF930E94321DF8
:1011C000C82F8091D2028C17F1F0C093D2020E94F6
:1011D000BA206093D3027093D4028093D502909387
:1011E000D6028091A4038570853059F41F92CF9365
:1011F00081E192E09F938F935DDD0F900F900F90B0
:101200000F908C2FD3DFCF910895ADE0B0E0EBE0ED
:10121000F9E00C947F28488759876A877B878C87F9
:101220009D87911129D71F8286E0FE013896DE0145
:10123000119601900D928A95E1F78D8181110CC074
:1012400029813A814B815C816D817E818F8164D659
:101250002D96E2E00C949B28CE010196CADE811106
:10126000EFCFF6CFFC012481213019F480819181E8
:1012700012C40895662321F00E94FE190C94C91A25
:101280000E94501AFBCFCF93C82F8823B1F08CEF68
:101290008C0F813AA0F48C2F0E94221881110DC06E
:1012A0008C2F0E94691E882321F08C2F0E942D1FF5
:1012B0006ED78C2F0E94161F6AD7CF91089580E2B7
:1012C0008C0F883040F4C77081E001C0880FCA9548
:1012D000EAF7B5D6F1CFEBE5EC0FE33040F4F0E000
:1012E000E05BFE4F808190E00E94FA1DE6CFE8E5CA
:1012F000EC0FEB3150F4F0E0EE0FFF1FE65EFE4F17
:10130000808191810E94211ED8CF83E38C0F83318D
:10131000A0F661E08C2FAEDFD0CF882351F19CEF97
:10132000980F913A18F40E942D1F31C790E2980F40
:10133000983048F4877091E001C0990F8A95EAF7D8
:10134000892F83D6F2CF9BE5980F933020F490E05D
:1013500080E00C94FA1D98E5980F9B3120F490E002
:1013600080E00C94211E93E3980F933110F460E019
:1013700081CF08951F93CF93DF93182FEB0183DF65
:10138000209731F4812FC9DFDF91CF911F9108950C
:101390008FE99FE00197F1F700C000002197F0CF9F
:1013A00070E060E0893311F460E570E0E3CF8823FA
:1013B00011F045D6ECC60895882311F046D6E7C64D
:1013C0000895B0E0A0E0E7EEF9E00C9478286C0115
:1013D000D62FC72FFC011581068102950F7025D6E7
:1013E000E82E8823E9F0E12E1123D1F08C2F807FA5
:1013F000803461F080E28D0F8830F8F08C2F807E91
:10140000803221F4D230C8F00023B9F08091E30398
:1014100082FF13C082E0DFD608D691E0E82EE926ED
:10142000BC2EB2949FE0B922FBE0FB1580F1EB2DBE
:10143000F0E0E051F74D0C946928E12CF1CF0C2F2E
:101440000F70C07F11F00295007F112381F00023FF
:1014500049F080E28D0F883010F0D11105C0802F47
:10146000EED595D68D2F40C0802FF9D5FACF8D2F90
:1014700054DF002361F080E28D0F883010F0D1112D
:1014800003C0802FE2D502C0802FEFD580D6EB2D90
:10149000E850FF0B349708F04CC10E94321D86DEE5
:1014A000CDB7DEB7E9E00C9494282C2F2F70F22EE4
:1014B000C07FC03219F0F29480EFF822DD2341F0B2
:1014C000D13081F1112309F439C00023C9F0CACF0A
:1014D0008091E30382FD10C0112341F0FF2019F039
:1014E0008F2DADD554D680E0CEDED1CF80E015DF94
:1014F000FF2069F28F2DC6CF112359F0011103C0CF
:101500008F2D55DFC4CF013009F0C1CF8F2DC8D545
:10151000BECF0111BCCF8F2D4FDF8F2DCCD58F2D9E
:10152000B1D5B5CF112321F0063008F0B0CFE8CF08
:10153000053008F0ACCF8F2D3FDFA9CF0023D9F3C2
:10154000D93349F43FEF87EE93E03150804090402B
:10155000E1F700C000008D2FE0DE99CF8C2F86953B
:101560008695837069F0813009F091CF8D2F9C2F83
:101570009370111102C080E090E00E94211E87CF7D
:101580008D2F9C2F9370111102C080E090E00E947B
:10159000FA1D7DCF612F8D2F6DDE79CF8C2F83705B
:1015A00081F5111174CF4D2F429546954770440F28
:1015B000440F2D2F2F7030E0042E02C0220F331F56
:1015C0000A94E2F790E080E0D4FF09C08FE090E059
:1015D00002C0880F991F4A95E2F780959095C695AD
:1015E000C695C370822B932BC23039F040F4C130C2
:1015F00011F042D14CCF39D14ACF45D148CF33D168
:1016000046CF8695112311F08C2F8170882309F421
:101610003ECF4D2F429546954770440F440F2D2FD6
:101620002F7030E0042E02C0220F331F0A94E2F71D
:1016300090E080E0D4FF09C08FE090E002C0880F06
:10164000991F4A95E2F780959095C695C695C37007
:10165000822B932BC23039F040F4C13011F067D1A6
:1016600016CF5ED114CF6AD112CF1AD110CFCF705E
:10167000112321F08C2F28D18D2F43CF8D2F9CDE6D
:101680008C2F30D104CFD23F39F160F4D03FB9F084
:10169000D13F81F0112309F43CC00111E3CE8C2F1E
:1016A0008F711EC0D33FF1F0D43FA1F78091E303C7
:1016B00082FD20C08C2F8F71112319F311C01123CB
:1016C00039F0053008F0E3CE8C2F8F711BD1DFCEBF
:1016D000063008F0DCCEF8CF8C2F8F711111D1CFEE
:1016E000F3D0D5CE112321F08C2F8F71E3D0CFCE44
:1016F000DED0CDCE112329F063E08C2F8F7154D52D
:10170000C6CE81E068D5023008F4C1CE82E063D550
:10171000BECE002359F0D93309F01DCFEFEFF7EE1D
:1017200023E0E150F0402040E1F713CF8C2F8F7180
:10173000A8CFEE2009F4B4CE74D480FDB1CEF6016A
:10174000158269D4C1D0C60117D065D4CBD0A8CE3C
:101750000F931F93CF93DF93EC01688179818D8183
:10176000A3D18C01F2D07ED0B801CE012ADEDF9168
:10177000CF911F910F910895CF93DF93EC018C814E
:10178000882381F0CE015BDC81110FC04ED4882309
:1017900049F08D81882331F08091E30382FF02C0FC
:1017A00082E019D5DF91CF910895CE01D1DFCE012E
:1017B00034DCF8CF90E080E00E94FA1D90E080E0F9
:1017C0000E94211E59D4E3D40E947C1B0C94C91A98
:1017D0000E94441FEFCF40D4FBCF92959F7096306C
:1017E00091F058F4925F9F70923058F4803F19F056
:1017F00030F4883E30F481E008959A5FF4CF843F5E
:10180000D1F380E00895883EB0F3813FD1F7F3CF64
:10181000FC012481222321F0808191813CD1DDCF04
:1018200080E00895A6E0B0E0E8E1FCE00C947F28B9
:101830002696E2E00C949B28A7E0B0E0E2E2FCE010
:101840000C947F282796E2E00C949B280895FECF05
:101850000895FDCF0895FADFFCDF90930303809392
:10186000020308950895F7CF08952091020330915F
:101870000303822B932BEFCF2091020330910303BC
:1018800082239323E8CF2091020330910303822720
:101890009327E1CFDBCF0895FDCF0895D7CF0895EB
:1018A000FDDFFADF9093010380930003089590E039
:1018B00080E0F6CF21E030E0A90102C0440F551FBF
:1018C0008A95E2F7CA01ECCF21E030E002C0220F96
:1018D000331F8A95E2F78091000390910103822BD8
:1018E000932BDECF21E030E002C0220F331F8A9518
:1018F000E2F72095309580910003909101038223B7
:101900009323CECF21E030E002C0220F331F8A950F
:10191000E2F7809100039091010382279327C0CFC3
:101920002091000330910103822B932BB9CF20919A
:1019300000033091010382239323B2CF209100034F
:101940003091010382279327ABCF0895262F27706C
:1019500091E001C0990F2A95EAF723E07695679503
:101960002A95E1F7660F771F660F771FFA01E60FDA
:10197000F71F50E040E0682F70E08191DF01119780
:101980009B01042E02C0369527950A94E2F7217038
:1019900021952827292328272C934F5F5F4F443018
:1019A000510559F70895A82FA77023E096958795BC
:1019B0002A95E1F7880F991F880F991FFB01E80FFF
:1019C000F91F50E040E080E0219130E00A2E02C093
:1019D000369527950A94E2F721703327042E01C02B
:1019E000220F0A94EAF7822B4F5F5F4F4430510574
:1019F00059F70895262F953060F4803150F430E186
:101A0000939FB0011124680F711D48ED52E0822FA1
:101A10009DCF0895953060F4803150F440E1949F5B
:101A20009001112468ED72E0820F932F911DBBCFBE
:101A300080E00895B0E0A0E0E0E2FDE00C947828BA
:101A40007C010091000310910103809102039091A9
:101A50000303082B192BCFE0D0E0CC24C394D12C66
:101A6000BC2EC6010C2E02C0880F991F0A94E2F703
:101A700080239123892B49F4219790F7B12C8B2D4A
:101A8000CDB7DEB7E9E00C949428B7018C2F34D69B
:101A9000019791F3F4CFCF93DF93EC01CBDFBE013D
:101AA0002BD6DF91CF9108951F93CF93DF93EB0156
:101AB0009091D702992331F0CB01EDDFDF91CF91E7
:101AC0001F910895882351F0CB01B4DF182F682FA0
:101AD000CE0190DFBE01812F0FD6F0CFCB019ADF70
:101AE000182FF8CF1F93CF93DF93C091040317E013
:101AF000809105038C1304C0DF91CF911F9108954D
:101B0000D0E01C9FF0011D9FF00D1124EA5FFC4FF7
:101B100020813181428153816481758186818CDE8F
:101B20002196C770E5CF20913E0330913F0340914D
:101B300040035091410360914203709143038091AF
:101B400044037ACECF93DF9380914403807F09F0E2
:101B50004BC080914303882309F446C0E0910403FD
:101B600050910503C0913F03D0913E036091400323
:101B70007091410347E05E17B9F18E2F90E0E49F2A
:101B8000F0011124EA5FFC4F2481222381F1489F58
:101B9000F001499FF00D1124DF01AA5FBC4F11969F
:101BA0002C9111972C1323C02C912D1320C0159626
:101BB0002C91159721111BC012962D913C91261B3B
:101BC000370B2F3A310598F4809144038F70806170
:101BD00080934403E45FFC4F80818F708061808339
:101BE0008EE393E0C9DD7EDFDF91CF910895FC01A4
:101BF0003196E770C0CF482F2091040390910503E0
:101C000057E0291302C080E0089530E0529FF001B0
:101C1000539FF00D1124EA5FFC4F8181681306C0C9
:101C20008081481303C085818111EECF2F5F3F4F24
:101C30002770E7CFA4E1B0E0E0E2FEE00C94752865
:101C40008C0186E0F801DE011F9601900D928A95C5
:101C5000E1F7F8018481E5809EE3A92E93E0B92E97
:101C60009091420391111AC08823A9F0EE2089F0C7
:101C7000C801CEDDF82E882361F087E0F801D50198
:101C800001900D928A95E1F7C501ECDA5BDF4BDF3D
:101C900059C0C80171DDFF24F39454C0C080D180C5
:101CA00082809380F0904303209140033091410360
:101CB000A401421B530BFF2009F4E9C04F3A510520
:101CC00008F09CC0882309F43DC090913F038091A7
:101CD0004403282F207F09F056C09D1114C0909115
:101CE0003E03C91210C0E11048C08F70806180931C
:101CF000440319DF8EE393E03FDD80914403F80154
:101D00008683F12C1FC0E11038C06D2D8C2D73DF40
:101D10006D2D8C2D70DFE82E8111F3CFCF86D88A00
:101D20008F859889B8DE292F22952F70243078F47A
:101D30009F702230A0F09923B1F0F8019681907F36
:101D400091F4FE2C8F2D6496ECE00C9491282A5F80
:101D50002F70223060F0C8010FDDEF2CF2CF9923F5
:101D600011F0882371F3805E883058F3F4CF803F00
:101D700040F3815F833078F7E4CF80914403816042
:101D800080934403BECF9D1112C090913E03C912AF
:101D90000EC0E1100CC08683C801EEDC87E0F801BC
:101DA000AEE3B3E001900D928A95E1F770CFC801E0
:101DB0002FDD882309F46DCFEE2009F46ACF8091DE
:101DC0004403803280F020913E0330913F033987F5
:101DD00028879B868A86909142039C871D868E87E2
:101DE000CE010896C9DC87E0F801AEE3B3E00190CC
:101DF0000D928A95E1F7A6DE96DE4DCF90914403D1
:101E0000292F207F89F4682D9A8A898AA6017A89E8
:101E10009E2D08DD8EE393E0AFDC87E0F5011192A3
:101E20008A95E9F780DE6DCF882309F48BCF809106
:101E30003F038D110FC080913E03C8120BC0E1100B
:101E400009C09683C80198DC87E0F50111928A9554
:101E5000E9F778CFC801DCDC882309F41ACFEE203B
:101E600009F417CF80914403803208F4BCCF20914D
:101E70003E0330913F033A8329839C828B82909169
:101E800042039D831E828F83CE010196ABCF4F3AD2
:101E90005105A8F5882309F4FECEFE2CEE2009F4A6
:101EA000F8CE80913F038D111EC080913E03C81271
:101EB0001AC08091440380FD0DC0982F907F51F08F
:101EC0008683903F09F468CF982F907F905F8F7042
:101ED000892B61CF87E0F801AEE3B3E001900D926A
:101EE0008A95E1F72FCFC80193DC81117CCF8091D7
:101EF0004403816080934403C8013EDC23CF682DF6
:101F00009A8A898AA6017A899E2D8CDC87E0F50160
:101F100011928A95E9F7BBCEAEE0B0E0E2E9FFE0CE
:101F20000C947E28288739874A875B876C877D8752
:101F30008E87CE0108967EDE8823A9F06C85662305
:101F400039F0288539854A855B857D858E8574DCE9
:101F500017E0809104039091050389133BC02E96EE
:101F6000E3E00C949A2887E0FE013896DE01119692
:101F700001900D928A95E1F78C85882349F3209191
:101F8000050330E0C9010196877099274091040349
:101F90004817190691F097E0929FD001939FB00DDA
:101FA0001124AA5FBC4FFE01319601900D929A95C3
:101FB000E1F78093050396DDCBCF0DDC109205038E
:101FC0001092040387E0EEE3F3E0DF011D928A95AF
:101FD000E9F7BECF819FC00111248A5F9C4F2ADEA2
:101FE000882309F4BCCFE09104031E9FF001112463
:101FF000EA5FFC4F20813181428153816481758188
:1020000086811ADC8091040390E0019687709927FD
:10201000809304039ECF80916D0386958695869567
:10202000089580916D038770089590916D03977066
:1020300081E009F480E008958091990308959091DA
:102040009903892B80939903089580959091990322
:10205000982390939903089510929903089590916D
:102060009803892B80939803089580959091980305
:1020700098239093980308951092980308950895D3
:10208000FECF089590916E03292F282329F0809583
:10209000892380936E03F4CF08950895FECF0895A9
:1020A00090916F03292F2823281721F0982B9093C4
:1020B0006F03F4CF089590916F03292F282329F0FF
:1020C0008095892380936F03E9CF089580916F03F2
:1020D000882321F010926F0380E0E0CF0895CF9322
:1020E000C091990380919803C82B80916F03882336
:1020F00029F0C82B0E94481E8111E8DF8C2FCF9158
:102100000895CF93DF93C0910201D0910301E7DFDF
:102110008883C0910201D091030148E050E065E658
:1021200073E0CE010E94A628892B59F088E0FE01B9
:10213000A5E6B3E001900D928A95E1F7CE010E94E9
:10214000411DDF91CF910895CF93DF93C09100019E
:10215000D0910101C4DF8983C0910001D0910101B8
:1021600040E250E065E473E0CE010E94A628892B8E
:1021700059F080E2FE01A5E4B3E001900D928A954A
:10218000E1F7CE010E94911DDF91CF9108950E9449
:102190002B1D882329F08091E20387FF01C0D4CF53
:1021A000B0CF0895FECF08959091E30392FF0EC043
:1021B00098E0899F90011124622B60936D0384DB6A
:1021C00080916D03869586958695ECCF7DCB109298
:1021D0006D0380E0E7CF90916D0380958923809314
:1021E0006D03282F277059F4891749F09091E30364
:1021F00092FF05C086958695869574DBE8CF089595
:10220000CF93C82F8091E30382FB992790F99C1705
:10221000C9F0C0FB82F98093E30382EE93E057D0CC
:1022200082E0D9DF8091A40380FF0CC01F92CF937E
:1022300081E292E09F938F930E945A060F900F9035
:102240000F900F90CF9108958091E30382FB882730
:1022500080F991E08927D4CF81E0D2CF80E0D0CF40
:1022600060E070E0CB01EBC360E070E0CB01E1D354
:10227000F7CFA3E0B0E0EFE3F1E10C947F2892D335
:102280009DD31B82CE010396B0D381E090E0909362
:10229000030380930203B5D31A8219828A81846171
:1022A0008A83CE010196BED3DFDF2396E2E00C9451
:1022B0009B28DFCF089588C3089575C308958AC306
:1022C000089599C308959DC30895A0C30895AAC30E
:1022D0000895BBC30895A6E0B0E0E1E7F1E10C94F6
:1022E0007D280E94AE208C0180919A0390919B03DF
:1022F0008017910781F019821A820E94AE20682F00
:1023000049815A81792F80E090E00E94050910935D
:102310009B0300939A032696E4E00C9499280E946C
:10232000BA206093A0037093A1038093A2039093BB
:10233000A30360939C0370939D0380939E039093EB
:102340009F03089508950895FDCF08950895FEDF31
:10235000FBCF0895FECF08950895FEDFFBCF81EBFC
:1023600092E28DD3F0DFF3CF81E00895FDCF0895A1
:10237000FBCF0895089508950895FCDFFCDFFCCF9E
:102380009CDF811101C095DF84EA93E098DF82EE43
:1023900093E09BDF96DF67DA809100039091010361
:1023A0007BCA0E94A5200E946906EADF0E94291DBF
:1023B0000E94D308D2CFA6E0B0E0E1EEF1E10C94A8
:1023C0007328D4DF81110BC086DF0E942A1D0E9472
:1023D0009E1B0E94DD082696EEE00C948F280E943A
:1023E000A40628ED822E23E0922E640110E0F6016F
:1023F000E190F1906F01812F0E9455071F5F15300A
:1024000009F453C0E816F90691F38091A40381FD05
:102410000E946207ADDF682E10E0812F0E945507F1
:102420007C01F401A190B1904F018A159B05B9F18F
:1024300000E0CC24C394D12CAE24BF24C5018C2150
:102440009D21892B19F177247394C7018C219D213B
:10245000892B09F4712C6620A1F0602F812F0E9436
:10246000112081110EC009831A830E94AE20682FAB
:102470008B839C8349815A81792F81E0972D0E941B
:102480000509472D602F812F0E9427200F5FCC0C5C
:10249000DD1C003199F6F4013297F182E0821F5F72
:1024A000153009F0BACF3BDF90CFE816F90609F0F6
:1024B000ACCF8ACF1F93CF93DF9320D1EC01C1150E
:1024C00080E5D807F0F5C11580E4D80708F09AC078
:1024D000C03ED10520F5CD3CD10508F082C0C83AF8
:1024E000D10578F4C53AD10508F073C0C130D105E3
:1024F00019F1209709F1C430D105F0F4D0E0C0E023
:102500001BC0C33CD105D0F7C85AD0E0CC0FDD1FAB
:10251000CD5ADE4F0990D881C02DD4640DC0C115AD
:1025200080E2D80708F0CDC0C11581E0D80708F0D7
:102530005AC0C83ED10510F7CE01DF91CF911F914F
:102540000895C03682E5D80718F5C03482E5D8076B
:1025500008F068C0C03282E5D80708F05CC0C11539
:1025600082E5D80708F493C02C2F2695269580E2A3
:10257000289F900111248C2F8370C1E0D0E002C00D
:10258000CC0FDD1F8A95E2F7C22BD32BDD68D4CFA9
:10259000C03A82E5D80760F4C03882E5D80708F46D
:1025A00056C0CF71D0E0DC2FCC27C46FD06AC4CF27
:1025B000C03C82E5D80708F45FC0C03E82E5D8077A
:1025C00008F09CCFDC2FCC27CC27DF71C06FD06AFE
:1025D000B3CFC55AD0E0C757DE4FC881D0E0D06432
:1025E000ABCFD065A9CF8D2F2BD1182FCE01992736
:1025F00085D0C12FD0E0DC2FCC27CC27DF71C82BB2
:10260000D92B9ACFCE01992779D0CC27DF70C82B50
:10261000D92BD06A91CFCF71D0E0DC2FCC27C16FFE
:10262000D06A8ACF2C2F26952695277080E2289F86
:10263000900111248C2F8370C1E0D0E002C0CC0F38
:10264000DD1F8A95E2F7C22BD32BDC6875CF2C2FC8
:1026500026952695277080E2289F900111248C2FC3
:102660008370C1E0D0E002C0CC0FDD1F8A95E2F795
:10267000C22BD32BDA6860CF8C2F8F71E1D0C82F9B
:10268000D0E0DC2FCC27CC27DF71D06255CF8C2F48
:102690008F71D6D055E0D695C7955A95E1F7CF7092
:1026A000D0E0DC2FCC27282F30E084FF06C044E0A8
:1026B000220F331F4A95E1F73327C22BD32BD06962
:1026C0003BCF8D2F8F71BCD0182FCE01992716D0FC
:1026D000C12FD0E0DC2FCC27CC27DF71C82BD92B22
:1026E000D4CF462F753028F4603118F4672F0C943E
:1026F000B20790E080E00895F4DFDCCE82389105E7
:10270000B9F1B0F48133910509F47DC048F4893200
:10271000910509F46DC08A32910509F47BC00895D2
:102720008533910509F45FC08933910509F1089556
:10273000833E9105D9F138F4803E910529F1823E1E
:10274000910579F10895863E9105D9F1873E91056D
:1027500009F43EC0843E910541F52091E30321FF39
:1027600024C08091E20384FD19C087EE90E00895B3
:102770002091E203237009F05AC02091E30323FF64
:1027800014C089E290E008952091E20320FD38C052
:102790003091E30330FF09C024FF43C090E080E0A4
:1027A00008952091E20322FDF7CF08952091E203DE
:1027B00022FD3AC03091E30330FD39C024FFF5CF4C
:1027C000EDCF2091E20323FFF0CF24FDE7CFCDCF63
:1027D0002091E20323FD2EC03091E30331FFEECFC1
:1027E00084EE90E008952091E20325FFDECFC9CF6B
:1027F0002091E20325FD21C02091E30323FFD5CFE3
:1028000089E390E0D2CF2091E20326FFCECF8AE287
:1028100090E008952091E20326FFC7CF81E390E086
:10282000089583EE90E0089582EE90E0089580EEA2
:1028300090E0089586EE90E0089585E390E0089595
:102840009091E20392FF10C041E0282F24712430C0
:1028500009F040E031E0282F2871283009F030E0FD
:10286000431711F02CE0822793FF10C041E0282F7E
:102870002471243109F040E031E0282F28712831FB
:1028800009F030E0431711F02CE082273091E30388
:1028900030FF10C051E0282F2171213009F050E0A5
:1028A00041E0282F2871283009F040E0541711F03A
:1028B00029E0822731FF10C041E0282F217121310A
:1028C00009F040E031E0282F2871283109F030E08C
:1028D000431711F029E0822794FF02C083FD877E11
:1028E0000895CF939C01205E3245C1E0203231052E
:1028F00038F4FB01C581C11103C08F710E946308C8
:102900008C2FCF9108959C01FB018581882391F044
:102910002B35FCE73F0761F02C359CE7390729F0A0
:102920002A353C4741F498DC01C08EDC80E00895F4
:1029300095DCFCCF81E008959C01FB018581882313
:1029400079F12130FCE73F0741F120F421153C47A4
:1029500049F008952230FCE73F0741F023303C471F
:10296000D9F008950E948B0880E008959091A40307
:10297000892F8E7F90FF81608093A40380FF09C020
:1029800088E492E09F938F930E945A060F900F90D5
:10299000EBCF86E392E0F6CF8EDC0E948F08E4CF87
:1029A00081E00895089590E080E00E94BB2821E036
:1029B000833E9E4F09F020E0822F089563EE7EEF64
:1029C00090E080E00C94DA286FEF7FEF90E080E0F9
:1029D0000C94DA28CF93DF93EC0182E090E00E9420
:1029E000B3288883DF91CF910895FC01608182E054
:1029F00090E00C94C02883E090E00E94B32890E01F
:102A00000895682F83E090E00C94C028CF93DF9363
:102A1000EC0184E090E00E94BB2899838883DF91D9
:102A2000CF910895FC016081718184E090E00C9465
:102A3000DA28AB01BC018FE090E00C94D228AB0106
:102A4000BC0183E190E00C94D228682F8EE090E0E6
:102A50000C94C028B0CC08950E9448200E941323F3
:102A60007EDC0E942B239DDC0E9434230E943723AE
:102A7000F1DF0E9459230E945F217FDCF7CF909302
:102A8000B9028093B8020895809104011F928F9338
:102A9000809105011F928F93809108011F928F935F
:102AA000809109011F928F9380910A011F928F9349
:102AB00080910B011F928F9389E592E09F938F93F2
:102AC0000E945A068DB79EB70E960FB6F8949EBF19
:102AD0000FBE8DBF0895883248F58E3108F07DC055
:102AE0008B3069F130F4873009F4DEC088EB93E075
:102AF000EFC0833109F467C08431C1F78AED93E0F8
:102B00009F938F930E945A060F900F908091A90374
:102B1000882309F40FC11092A9031092A803109200
:102B2000A7031092A6031092A50324C08F3409F4C2
:102B3000D4C008F03EC0893209F38833B9F68DED70
:102B400093E09F938F930E945A069EDF1F9281E02D
:102B50008F931F9288E08F9386ED92E09F938F93DF
:102B60000E945A068DB79EB708960FB6F8949EBF7E
:102B70000FBE8DBF2091A903222309F4D2C08091FA
:102B8000A5039091A603009711F48CE891E09F9320
:102B90008F931F922F9386EA93E09F938F930E94C7
:102BA0005A060F900F900F900F900F900F9081E0AA
:102BB0000895813509F4A5C008F4A5C0823509F04F
:102BC00095CF81E08BC08CEC93E09F938F930E9414
:102BD0005A065ADF0F900F90CDCF8D518093A903E5
:102BE000833009F446C078F48130E1F08230C1F1DD
:102BF0001092A90389EC93E09F938F930E945A0649
:102C00000F900F901BC0853009F445C0D8F1863075
:102C100079F784E091E09093A8038093A70384ED73
:102C200091E008C08BE091E09093A8038093A70304
:102C300080E991E09093A6038093A5038091A90376
:102C4000882309F497CF1F928F9385EC93E09F938D
:102C50008F930E945A060F900F900F900F908ACF7B
:102C60008AE091E09093A8038093A70389E991E01B
:102C7000E1CF89E091E09093A8038093A70385EAD0
:102C800091E0D8CF88E091E09093A8038093A703C8
:102C900082EB91E0CFCF85E091E09093A803809301
:102CA000A70381EC91E0C6CF81E080930B0184E122
:102CB00080930A018AE0809309018EE180930801E4
:102CC00088E08093050188E2809304018BEB93E018
:102CD0009F938F930E945A067DCF8AE0E091A703CD
:102CE000F091A8033097D1F02081082E000C990BA9
:102CF000820F911D8F3F910541F03CF08FEF808353
:102D000007C08FEFEBCF86EFE9CF97FFF8CF1082A8
:102D100080811F928F9382EB93E099CF8FEA93E0AB
:102D2000D7CF82EA93E09F938F930E945A060F9029
:102D30000F903DCF80E00895CF93C82F1F928F93BF
:102D400083EF93E09F938F930E945A0681E090E077
:102D500002C0880F991FCA95E2F70E94330C0E94A7
:102D6000EB0B0F900F900F900F90CF910895A3E071
:102D7000B0E0EDEBF6E10C947828EBEFE80FEF33E1
:102D800008F052C1F0E0E450F74D0C94692899DA4C
:102D90001F921F929F938F9383EA97E09F938F9345
:102DA0000E945A06CE0103968ADA8B8183FB88271C
:102DB00080F91F928F938B8182FB882780F91F9265
:102DC0008F938B81869581701F928F938B818170F9
:102DD0001F928F938B811F928F938AE597E09F9329
:102DE0008F930E945A06CE0101966FDA8A8183FB87
:102DF000882780F91F928F93898187FB882780F924
:102E00001F928F93898186FB882780F91F928F9369
:102E1000898185FB882780F91F928F93898182950C
:102E200081701F928F93898183FB882780F91F927D
:102E30008F93898182FB882780F91F928F938A81E3
:102E4000869581701F928F938A8181701F928F93D4
:102E50008981869581701F928F93898181701F92DD
:102E60008F938A818F9389818F938BE596E09F93CF
:102E70008F930E945A060FB6F894DEBF0FBECDBFE7
:102E800094C084E698E09F938F930E945A0611DACB
:102E90000F900F908AC086EA94E09F938F930E94D0
:102EA0005A06F6CF8091A403807F8093A4038FE716
:102EB00094E09F938F930E945A0680E698E09F9338
:102EC0008F930E945A0681E08093AA030F900F907F
:102ED0000F900F902396E9E00C94942884E498E0F6
:102EE0009F938F930E945A060E948B08D1CF909196
:102EF000A403892F8E7F90FF81608093A40380FFBD
:102F000003C088E398E0C9CF8BE298E09F938F934A
:102F10000E945A068091A403817F8093A403B8CFB6
:102F20009091A403892F8D7F91FF82608093A403E9
:102F300081FF0AC08EE198E09F938F930E945A060A
:102F40008091A4038160E9CF80E198E0A6CF9091C1
:102F5000A403892F8B7F92FF84608093A40382FF58
:102F600003C081E098E0E8CF81EF97E096CF9091A1
:102F7000A403892F877F93FF88608093A40383FF36
:102F800003C085EE97E0D8CF88ED97E086CF89EE35
:102F900091E09F938F938CE794E09F938F930E948F
:102FA0005A060F900F900F900F9081E093CF0E94E0
:102FB000BA20E62ED72EC82EB92E1091E20317FBA9
:102FC000112710F90E94E41FF82EE2D7082F4AD5E6
:102FD000BF92CF92DF92EF921F921F931F92FF92A8
:102FE0001F920F931F928F9388EF93E09F938F937D
:102FF0000E945A0640CF0E94EB0B9091E203892F6A
:1030000097FB87F980588093E20387FF03C08EEC1B
:1030100097E043CF83EC97E040CF80E08DDEC5CFD3
:103020008953FCCF8D51FACF81EC97E09F938F931A
:103030000E945A060F900F9080E04CCF80E00895D8
:10304000FDCF0895CF93C82F8091AA038130B1F0AE
:10305000882339F0823009F44CC01092AA0380E032
:103060000BC00E941C108232D1F78C2FE7DF811138
:103070001DC08C2F7CDE8170CF9108950E941C10A2
:10308000823299F38C2FDCDF811127C0C43139F1F2
:1030900080F4CB3091F0C03131F18DEE93E09F930D
:1030A0008F930E945A060F900F901BC081E090E012
:1030B000E2CFC932A1F0C83381F78FE794E09F9344
:1030C0008F930E945A068FEE93E09F938F930E94F6
:1030D0005A060F900F900F900F9081E0CCCF109276
:1030E000AA0380E0C8CF82E08093AA0388E3F3DCE0
:1030F000F4CF8C2FF0DC81E0BFCFCF93DF93EB01D7
:1031000086319C47F9F40E941C109D81992389F017
:103110008A7A91E009F490E09093AB03811107C0A3
:1031200089E284D634D880E0DF91CF91089585E399
:10313000F8CF8091AB03811103C089E28ED6F2CF24
:1031400085E3FCCF81E0F0CFCF93DF93EC01FB016F
:103150008581882309F4CBC09E0130572332310585
:1031600008F0ABC082EE93E0B0D8FE01E150F0472A
:10317000E232F10520F4E55CF64D0C94692880916B
:10318000E20381608093E20392C08091E303886050
:103190008093E3038CC08091E2038260F3CF80913F
:1031A000E2038460EFCF8091E2038860EBCF8091EF
:1031B000E3038160EDCF8091E3038260E9CF8091EA
:1031C000E2038061DFCF8091E2038062DBCF8091F8
:1031D000E2038064D7CF0E94EB0B8091E20380680A
:1031E000D1CF8091E2038C60CDCF8091E3038360E7
:1031F000CFCF8091E2038E7FC5CF8091E303877F9D
:10320000C7CF8091E2038D7FBDCF8091E2038B7F9A
:10321000B9CF8091E203877FB5CF8091E3038E7FA2
:10322000B7CF8091E3038D7FB3CF8091E2038F7E90
:10323000A9CF8091E2038F7DA5CF8091E2038F7BA0
:10324000A1CF0E94EB0B8091E2038F779BCF8091FF
:10325000E203837F97CF8091E3038C7F99CF8091A6
:10326000E20382FB992790F921E0922790FB82F9F3
:1032700090FB83F987CF8091E303982F909591700D
:103280008E7F892B90FB81F983CF9091E203892F68
:103290008F7B96FF806476CF0E94EB0B9091E203C8
:1032A000892F97FB87F980586DCF81E012D882EE85
:1032B00093E00DD80E94EB0B80E0DF91CF91089551
:1032C00080E0F4CF9091E203892F8F7E94FF80619C
:1032D00059CF9091E203892F8E7F90FF816052CF6A
:1032E0009091E303892F877F93FF886051CF81E01E
:1032F000E4CF282F35EB2303C001112497FF04C02E
:1033000080589109892F089580589F4FFBCF809155
:10331000B20380FF0DC06091090170E0660F771F56
:103320006038710570F56115710569F1862F089592
:1033300081FF07C06091090184E0689FB0011124FA
:10334000EFCF6091090182FD0AC08091B10388230B
:10335000A9F02091080160910901821710F088E01E
:10336000ECCF869FC001112433E0880F991F3A9556
:10337000E1F7622F70E00E945628D2CF68E070E03B
:10338000D5CF8FE7089581E008958091B20380FF43
:103390000CC06091050170E075956795759567950E
:1033A0006115710549F1862F089581FF06C060916E
:1033B000050170E075956795F3CF6091050182FD79
:1033C0000BC09091B0039923A1F06091040180910A
:1033D0000501961738F0682F70E06038710500F32A
:1033E0008FE70895899FC001112470E00E9456283C
:1033F000F4CF61E070E0D7CF81E008958D3C29F4EF
:1034000086DF81958093B60308958E3C11F47FDFAB
:10341000F9CF8F3C29F47BDF81958093B503089524
:10342000803D11F474DFF9CF893D21F4AEDF809344
:10343000B70308958A3D19F4A8DF8195F8CF8B3D35
:1034400029F4A3DF81958093B80308958C3D11F48E
:103450009CDFF9CF9FE2980F983070F4815D990B53
:1034600021E030E001C0220F8A95EAF78091B40391
:10347000822B8093B40308958D3D31F48091B20383
:1034800081608093B20308958E3D21F48091B20350
:103490008260F7CF8F3DB9F78091B2038460F1CF9E
:1034A0004091B5038D3C59F48091B60387FF0DC060
:1034B0001092B60341110BC01092B10308C08E3CAC
:1034C00081F48091B60318169CF3442381F0809117
:1034D000B7039091B803892B09F05AC01092B0033A
:1034E00008958F3C49F447FFF0CF1092B5038091C7
:1034F000B6038111ECCFE0CF803D19F41416ACF384
:10350000E4CF9091B703893D29F41916F4F610928F
:10351000B703DBCF8A3D19F497FFD7CFF8CF90914F
:10352000B8038B3D29F497FFD0CF1092B803CDCFCD
:103530008C3D19F41916CCF3C8CF9FE2980F983040
:1035400090F4815D990B21E030E0B90102C0660F73
:10355000771F8A95E2F7CB0180959091B403892378
:103560008093B403B2CF8D3D31F48091B2038E7F4E
:103570008093B203AACF8E3D21F48091B2038D7F58
:10358000F7CF8F3D09F0A1CF8091B2038B7FF0CFB1
:1035900008958091A40383FF96C08CE998E09F93DF
:1035A0008F930E945A068091B4031F928F9387E9EC
:1035B00098E09F938F930E945A0685E998E09F9325
:1035C0008F930E945A068091B503282F082E000C75
:1035D000330B3F938F9382E998E09F938F930E94E0
:1035E0005A0680E998E09F938F930E945A06809133
:1035F000B603282F082E000C330B3F938F938DE8D2
:1036000098E09F938F930E945A068BE898E09F93CF
:103610008F930E945A068091B703282F082E000C22
:10362000330B3F938F9388E898E09F938F930E948A
:103630005A0686E898E09F938F930E945A068091DD
:10364000B803282F082E000C330B3F938F9383E889
:1036500098E09F938F930E945A0680E898E09F938A
:103660008F930E945A068DB79EB780960FB6F89436
:103670009EBF0FBE8DBF8091B1031F928F938DE7C8
:1036800098E09F938F930E945A068BE798E09F9350
:103690008F930E945A068091B2031F928F9388E7FE
:1036A00098E09F938F930E945A0685E798E09F9336
:1036B0008F930E945A068DB79EB70C960FB6F8945A
:1036C0009EBF0FBE8DBF4AD59C019091B5038091DE
:1036D000B603982B21F03093AF032093AE03909163
:1036E000B7038091B803982B21F03093AD0320935A
:1036F000AC0383EB93E06CC286E0E3EBF3E0DF0125
:103700001D928A95E9F71092B1031092B0031092BE
:10371000B2030895FC01828181110EC08381811161
:103720000BC08481811108C091E08581811101C0A5
:1037300090E0892F8170089581E0FCCFA6E0B0E091
:10374000E4EAFBE10C947E2886E0E3EBF3E0DE01A3
:10375000119601900D928A95E1F71092B50310929F
:10376000B6031092B7031092B8038B819C81892B0A
:1037700081F08091AE039091AF0381D4AC01909120
:10378000B1039923A9F180910A018417150608F461
:103790003CC08D819E81892B89F08091AC039091F2
:1037A000AD036DD4AC019091B003992309F463C0CB
:1037B000809106018417150608F46BC0BE016F5F87
:1037C0007F4F83EB93E079D3811104C083EB93E0C7
:1037D000A1DF8111DEDE86E0FE013196A3EBB3E0CE
:1037E00001900D928A95E1F72696E3E00C949A28D1
:1037F00020910B018AE0289F90011124241735079E
:1038000040F69F5F9093B10302C09F3FD1F71B81A9
:10381000112351F07CDD9FEF11160CF491E0899F8C
:10382000802D11248093B5031C81112351F06FDD8D
:103830009FEF11160CF491E0899F802D1124809345
:10384000B6038091B503882309F4A3CF1091B60382
:10385000112309F49ECF4DDD882349F08093B503F1
:10386000812F47DD882329F08093B60392CF81E032
:10387000F5CF81E0F9CF209107018AE0289F9001E0
:1038800011242417350708F099CF9F5F9093B00358
:1038900002C09F3FD1F71D81112351F076DD9FEFCC
:1038A00011160CF491E0899F802D11248093B703A9
:1038B0001E81112351F069DD9FEF11160CF491E088
:1038C000899F802D11248093B8038091B7038823AA
:1038D00009F474CF1091B803112309F46FCF09DDF7
:1038E000882349F08093B703812F03DD882329F0D3
:1038F0008093B80363CF81E0F5CF81E0F9CF0F93D8
:103900001F93CF93DF93C42FD22FFC01858188238F
:10391000C1F04093BB0322D49093BA038093B903C0
:1039200080E28C0F883040F4C77081E001C0880FBE
:10393000CA95EAF70E94D709DF91CF911F910F91A5
:1039400008951091BB03141331C08091B903909175
:10395000BA0395D38F3A910548F5C0E2CD0F1D17F4
:10396000B9F080E2810F883040F4177081E001C027
:10397000880F1A95EAF70E94DC09C83048F481E004
:103980009D2F977001C0880F9A95EAF70E94D7097A
:10399000802F0E94D009C83078F6D77081E001C02E
:1039A000880FDA95EAF70E94DC09C6CF80E28C0F17
:1039B000883010F6C77081E001C0880FCA95EAF719
:1039C000F2CF0F93DB0188519C478730910598F522
:1039D000FC01E35AF64D0C94692806E221EE41EE13
:1039E0006AE17CE7CD018BDF80E00F91089507E26B
:1039F00025EE45EE6BE17CE7F5CF06E221EE40EEE9
:103A000068E17CE7EFCF07E225EE44EE69E17CE771
:103A1000E9CF06E221EE42EE6CE17CE7E3CF07E27C
:103A200025EE46EE6DE17CE7DDCF08E221E045EED4
:103A30006EE17CE7D7CF15968C91882319F0109210
:103A4000BB03D3CF81E0D1CF9093C1038093C00358
:103A50000895089508959CD291E0813009F090E096
:103A6000892F0895E091C003F091C103309739F098
:103A70000190F081E02D309711F00995089580E0D4
:103A80000895EF92FF920F931F93CF93DF93EC0172
:103A9000E091C003F091C1033097F1F10280F3810E
:103AA000E02D3097C9F109958091A40382FF34C0BD
:103AB00080FF0DC088811F928F9384EE98E09F93C2
:103AC0008F930E945A060F900F900F900F907E01D7
:103AD00086E0E80EF11C0EED18E08091A40380FF53
:103AE0000BC08A811F928F931F930F930E945A06D7
:103AF0000F900F900F900F902196CE15DF0569F76C
:103B00008091A40380FF08C08CED98E09F938F9371
:103B10000E945A060F900F90CDB7DEB7E6E00C94E6
:103B20009728EF92FF920F931F93CF93DF93EC01AF
:103B3000E091C003F091C103309709F444C084813F
:103B40009581892B09F43FC086E088830480F58144
:103B5000E02DCE0109958091A40382FF34C080FF3F
:103B60000DC089811F928F9387EC98E09F938F936C
:103B70000E945A060F900F900F900F907E018EE1D9
:103B8000E80EF11C01EC18E08091A40380FF0BC04B
:103B90008A811F928F931F930F930E945A060F9052
:103BA0000F900F900F902196CE15DF0569F7809149
:103BB000A40380FF08C08FEB98E09F938F930E942F
:103BC0005A060F900F90CDB7DEB7E6E00C94972819
:103BD000E091C003F091C103309759F026813781FD
:103BE000232B39F022E0DC012C930680F781E02DB5
:103BF00009950895A3E0B0E0E0E0FEE10C947F2891
:103C00002091BE033091BF0328173907B1F090937C
:103C1000BF038093BE03E091C003F091C1033097CE
:103C200061F00084F185E02D309739F023E029839D
:103C30009B838A83CE01019609952396E2E00C943A
:103C40009B28A3E0B0E0E7E2FEE10C947F282091FE
:103C5000BC033091BD0328173907B1F09093BD0321
:103C60008093BC03E091C003F091C103309761F0F1
:103C70000084F185E02D309739F024E029839B837F
:103C80008A83CE01019609952396E2E00C949B2845
:103C9000CF93DF93C0910201D09103012296DBDE26
:103CA000882381F08091E20387FF0CC0C09100015E
:103CB000D091010122969EE180E0915028F4DF919D
:103CC000CF91089596E0F8CF29912223B1F38F5F29
:103CD000F4CFCF93C82F811102C080E023C0BBDE98
:103CE000882311F18091E20387FF1EC0EC2FE69537
:103CF000E695E695EE3188F78091000190910101FB
:103D0000E80FF92FF11D228130E0C77081E090E0CB
:103D100002C0880F991FCA95E2F72823392381E052
:103D2000232BD9F2CF910895809102019091030144
:103D3000FC013296089621912C1721F0E817F9071B
:103D4000D1F7CBCF81E0EECF9C01FC0132969FEF03
:103D500080E04191461751F09F3F19F4411101C095
:103D6000982F8F5F8630A9F79F3F09F40895290F98
:103D7000311D97FD3A95F90162830895FC01329651
:103D800008962191261303C0DF0111971C92E817B2
:103D9000F907B9F70895E62FE695E695E695EE3131
:103DA00070F4E80FF92FF11D677021E030E001C0D9
:103DB000220F6A95EAF78281822B8283089580918F
:103DC000A40380FF0CC01F926F938BE199E09F9337
:103DD0008F930E945A060F900F900F900F900895A6
:103DE000E62FE695E695E695EE3178F4E80FF92FA3
:103DF000F11D677021E030E001C0220F6A95EAF7FB
:103E0000209582812823228308958091A40380FF36
:103E10000CC01F926F938DEF98E09F938F930E9439
:103E20005A060F900F900F900F900895CF93C82FC0
:103E300012DE6C2F882359F08091E20387FF07C0C0
:103E40008091000190910101A6DFCF9108958091AA
:103E500002019091030178DFF8CFCF93C82FFBDDEB
:103E60006C2F882359F08091E20387FF07C080916F
:103E7000000190910101B4DFCF910895809102017A
:103E8000909103017BDFF8CFE6DD882379F0809104
:103E9000E20387FF0BC0E0910001F091010132962F
:103EA0008EE1DF011D928A95E9F70895E091020104
:103EB000F0910301329686E0F4CFDC01FB0111960C
:103EC0009C9111978181981322C012968C91129720
:103ED000882319F0928189131AC013968C91139735
:103EE000882319F09381891312C015968C91159728
:103EF000882319F0958189130AC014969C919923FF
:103F000021F081E02481291303C080E001C081E019
:103F1000817008950895FECF089581110CC081E04D
:103F200080930F0160910C0170910D0180910E0141
:103F300090910F01F0CF82E0F3CF83E080930F01E7
:103F400060910C0170910D0180910E0190910F0113
:103F5000E2CFE3CF089581E080930F0160910C01DF
:103F600070910D0180910E0190910F01D4CFF3CF8C
:103F7000089591E0811101C090E090930E0160914D
:103F80000C0170910D0180910E0190910F01C3CF32
:103F900080910E01089580930D0160910C01709144
:103FA0000D0180910E0190910F01B5CF80910D010F
:103FB000089580930C0160910C0170910D01809126
:103FC0000E0190910F01A7CF80910C0108950895E3
:103FD0000895FECF089508950895F9CF08950F9399
:103FE0001F93CF93DF93F7DF0E94A406F5DF02EC67
:103FF00013E0C0E0D0E08C2F0E9455079C01F8012F
:10400000819391938F0191E0232B09F490E0D92BB8
:10401000CF5FC53081F78D2FDF91CF911F910F9129
:104020000895E82FF0E0EE0FFF1FEE53FC4F21E064
:1040300030E002C0220F331F6A95E2F78081918140
:104040002823392381E0232B09F480E008954111CE
:1040500015C0E82FF0E0EE0FFF1FEE53FC4F81E09C
:1040600090E002C0880F991F6A95E2F780959095BD
:104070002081318182239323918380830895CF937C
:10408000DF93EC016BD08C1B9D0BDF91CF910895DA
:1040900085B7806885BF85B7806885BF08951F9202
:1040A0001FB61F9211248F939F93AF93BF9380915C
:1040B000CC03811113C08091E4039091E503A0919A
:1040C000E603B091E7034196A11DB11D8093E4037F
:1040D0009093E503A093E603B093E703BF91AF91FC
:1040E0009F918F911F901FBE1F9018958091EC0398
:1040F000843031F10E9493081092CC0388E190E063
:1041000020E40FB6F894A895809360000FBE20932A
:10411000600083B7817F846083BF83B7816083BF82
:104120007894889583B78E7F83BF0FB6F894A8954F
:1041300080916000886180936000109260000FBEE3
:1041400008950E94EB0B0C94970882E084BD93E0E5
:1041500095BD9AEF97BD80936E0008952FB7F894A0
:104160008091E4039091E503A091E603B091E70309
:104170002FBF08952FB7F8946091E4037091E50381
:104180008091E6039091E7032FBF089578941F92E2
:104190001FB61F9211248F939F93AF93BF9380916B
:1041A000E4039091E503A091E603B091E703019643
:1041B000A11DB11D8093E4039093E503A093E60352
:1041C000B093E703BF91AF919F918F911F901FBE56
:1041D0001F90189581E08093E00080E28093D800E2
:1041E0001092C9008FE19EE40197F1F700C0000032
:1041F00087E090EBDC018093F5039093F603A093A6
:10420000F703B093F80388E19CE00FB6F894A89503
:10421000809360000FBE90936000FFCF88E19CE028
:104220000FB6F894A895809360000FBE909360003D
:10423000FFCF9B01BA019091EC039430E1F48F70B1
:104240008093E9009FEF8091E800915085FD06C0C2
:1042500085ED8A95F1F700009111F5CF8091E80086
:1042600085FF09C050E040E0C90197D28091E80085
:104270008E778093E800089543E050E0BC0182E02F
:10428000D8CF46E050E0BC0182E0D3CF40E250E01E
:10429000BC0182E0CECFCF93DF93EC0179DE48E022
:1042A00050E0BE0181E0C5DF88E0FE01A0EDB3E093
:1042B00001900D928A95E1F7DF91CF9108950895CD
:1042C0008FE599E09F938F930E945A068091EB03AC
:1042D0000F900F90811107C0EED345D48091E2007A
:1042E00084608093E20008958BE599E09F938F931B
:1042F0000E945A061092EB030F900F90089587E5E5
:1043000099E09F938F930E945A0625DE81E031DE6B
:104310000F900F90089583E599E09F938F930E94EB
:104320005A066091E80381E0611101C080E005DE7A
:104330000F900F9008958FE499E09F938F930E94C0
:104340005A069091EC0381E0943009F080E060918E
:10435000E803FFDD0F900F9008952091CE032F5FAB
:10436000822F62E383D6992319F02093CE03089518
:104370001092CE038091CF038823F1F08091EC035B
:104380008430C1F49091E9009F702091EC00822F5D
:10439000817020FD80E8892B93E09093E900909153
:1043A000EB0090FF04C09091EE0097FD08C08F7065
:1043B0008093E9001092CF0308951092F10090913C
:1043C000E80095FDFACF9091E80090FFF0CF909132
:1043D000E8009E779093E800EACF42E061EC81E04C
:1043E000E6D242E261EC82E0E2D242E261EC83E0BA
:1043F000DED29091EC0381E0943009F080E060918E
:10440000E8038BCD8091EE03833009F45EC030F475
:104410008130C1F1823009F494C008958A3009F4E2
:1044200083C08B3009F46BC0893009F04DC0809196
:10443000ED03813209F048C08091F1039091F203BD
:10444000029708F041C08091E800877F8093E800E0
:104450008091E80082FF34C09091F3008091F200D7
:10446000029731F48091F100813011F0863019F417
:104470008091F10090DD8091E8008B778093E800D7
:10448000CAD222C08091ED03813AF1F48091E80014
:10449000877F8093E8008091F1039091F203892B4C
:1044A00059F468E080ED93E070E0C4D18091E800B9
:1044B0008B778093E800089560E090E080E0F4CF8F
:1044C0008091EC038111C4CF08958091ED03813A6E
:1044D000D9F78091F1039091F203892BA9F780918C
:1044E000E800877F8093E8008091E80080FFFCCFA0
:1044F0004FDD8093F1008091E8008E77BFCF8091EF
:10450000ED03813209F78091F1039091F203892B39
:10451000D9F68091E800877F8093E8007CD2809173
:10452000EF0327DD0C94EB0B8091ED03813261F6F4
:104530008091E800877F8093E8006DD28091F0033E
:1045400038CD8091ED03813A09F0BECF8091E8002B
:10455000877F8093E8008091E80080FFFCCF34DD06
:10456000C8CF9FB7F8941092CF039FBF9091EC03F0
:10457000943009F048C02091E9002F703091EC0090
:10458000932F917030FD90E8922B23E02093E90067
:104590002091EB0020FF34C02091EE0027FF30C0B7
:1045A0002091CD03222321F02091E80025FF28C08F
:1045B0001092CD0326E03091E80035FF14C08093BF
:1045C000F1008091E80085FD27C08091E80080FF20
:1045D000FCCF8091E8008E778093E8009F709093E5
:1045E000E90080E008953091EC03343049F43091D3
:1045F000EB0035FD05C0215041F481E08093CD03EF
:104600009F709093E9008FEF0895EFE9FFE03197F5
:10461000F1F700C00000CFCF8FB7F89421E02093CE
:10462000CF038FBFDBCF84B7877F84BF0FB6F894EB
:10463000A89580916000886180936000109260006E
:104640000FBE80E890E00FB6F894809361009093DD
:1046500061000FBE8CCC2FD286D2E2EEF0E08081DA
:10466000846080837894E8C480E191E0EDC9809112
:10467000EC03853089F48091A40380FF08C089E3AE
:1046800099E09F938F930E945A060F900F9080910C
:10469000EC03853011F055CD089528DDA0DC88238A
:1046A000B1F38091EA03882391F361D00E94EB0B70
:1046B000EECF08959A014091F3035091F40300C0A6
:1046C000492F55274330510521F168F441305105F8
:1046D00009F443C04230510509F444C090E080E041
:1046E00050E040E026C04132510551F142325105BF
:1046F000A9F76330710590F7FB01EE0FFF1FE55539
:10470000FD4F4081518168557D4FFB01808190E0D4
:1047100010C099278130910581F0009729F0029708
:10472000E9F6E3E6F9E002C0EFE7F9E0849190E012
:10473000AF01F901518340830895E3E7F9E0F6CF33
:104740006330710558F6660F771FFB01EF54FD4F7C
:104750004081518189E090E0ECCF82E190E047ED2B
:1047600059E0E7CF84E590E043E859E0E2CF80E10B
:1047700089BD82E189BD09B400FEFDCF8091D800DA
:104780008F7D8093D8008091E00082608093E0006C
:104790008091E00081FDFCCF0895AF92BF92CF924F
:1047A000DF92FF920F931F93CF93DF936C01EB0186
:1047B0008A0150D1F82E811123C00115110539F05D
:1047C000F80180819181C81BD90BC80ED91EB12C6C
:1047D000A12C2097A9F08091E80085FD21C080914F
:1047E000E8008E778093E80001151105A1F0F8012B
:1047F00080819181A80EB91EB182A08285E0F82E39
:104800008F2DDF91CF911F910F91FF90DF90CF906F
:10481000BF90AF9008951ED18823D9F2F82EF0CF23
:10482000F60181916F018093F1002197FFEFAF1A9C
:10483000BF0ACFCFFC018091F3039091F403861758
:104840009707A0F06115710529F49091E8009E7713
:104850009093E80090E06115710551F4911108C042
:104860008091E80082FF34C080E00895BC01F2CF5F
:104870008091EC038823C1F18530C1F18091E8007B
:1048800083FD30C08091E80082FDEACF8091E8008E
:1048900080FFE1CF8091F3002091F200382F611565
:1048A000710519F02830310558F091E028303105B4
:1048B00009F090E02091E8002E772093E800CBCF1C
:1048C00081918093F100615071092F5F3F4FE7CFD5
:1048D0008091EC03882341F0853041F08091E8001D
:1048E00083FFBECF81E0089582E0089583E00895BC
:1048F000FC018091F3039091F40386179707A0F0D1
:104900006115710529F48091E8008E778093E800A5
:1049100090E06115710551F4911108C08091E80093
:1049200082FF35C080E00895BC01F2CF8091EC0396
:104930008823C9F18530C9F18091E80083FD31C039
:104940008091E80082FDEACF8091E80080FFE1CF0E
:104950008091F3002091F200382F6115710519F054
:104960002830310558F091E02830310509F090E009
:104970008091E8008E778093E800CBCF849180937C
:10498000F1003196615071092F5F3F4FE6CF809162
:10499000EC03882341F0853041F08091E80083FFEB
:1049A000BDCF81E0089582E0089583E00895982FB7
:1049B000973028F08F708093E90081E008959093FC
:1049C000E900242F762F50E0981731F07091EC0019
:1049D0002091ED005091F00021FD02C09F5FE8CFD3
:1049E0003091EB003E7F3093EB003091ED003D7F46
:1049F0003093ED003091EB0031603093EB00709319
:104A0000EC002093ED005093F0002091EE0027FD84
:104A1000E5CF80E008958091ED0387FF13C080917A
:104A2000E80082FF06C08091E8008B778093E80061
:104A300004C08091EC038111F2CF08958091EC03C2
:104A40008823D9F38091E80080FFF8CF8091E800B7
:104A50008E77ECCF2091E4003091E50095E6A90136
:104A60002091EC00822F817020FF06C08091E80029
:104A700080FF06C080E008952091E80022FD1AC062
:104A80008091EC03882389F0853089F08091EB00D8
:104A900085FD0FC02091E4003091E50042175307D7
:104AA000F9F29150E1F684E0089582E0089583E000
:104AB000089581E0089567D06ED0E0EEF0E0808147
:104AC00081608083E8EDF0E080818F77808319BC7E
:104AD000A7EDB0E08C918E7F8C9380818F7E808358
:104AE0001092EB0308950F931F93CF93DF934BD056
:104AF00052D0C8EDD0E088818F7788838881806824
:104B0000888388818F7D888319BC1092EC03109272
:104B1000E8031092EA031092E90300EE10E0F801B6
:104B200080818B7F808388818160888342E060E020
:104B300080E03DDFE1EEF0E080818E7F8083E2EE79
:104B4000F0E0808181608083808188608083F801CB
:104B500080818E7F8083888180618883DF91CF917F
:104B60001F910F910895E8EDF0E080818F7E8083A2
:104B7000E7EDF0E080818160808384E082BF81E0A6
:104B80008093EB03B0CFE8EDF0E080818E7F8083EF
:104B90001092E20008951092DA001092E100089558
:104BA0001F920F920FB60F9211242F933F934F93A2
:104BB0005F936F937F938F939F93AF93BF93EF9385
:104BC000FF938091E10082FF0AC08091E20082FFA2
:104BD00006C08091E1008B7F8093E100BEDB809175
:104BE000DA0080FF18C08091D80080FF14C0809147
:104BF000DA008E7F8093DA008091D90080FF91C027
:104C000080E189BD82E189BD09B400FEFDCF81E06C
:104C10008093EC0355DB8091E10080FF18C0809108
:104C2000E20080FF14C08091E2008E7F8093E2005A
:104C30008091E20080618093E2008091D8008062E0
:104C40008093D80019BC85E08093EC0364DB8091ED
:104C5000E10084FF2AC08091E20084FF26C080E149
:104C600089BD82E189BD89B5982F917080FFFBCF06
:104C70008091D8008F7D8093D8008091E1008F7E55
:104C80008093E1008091E2008F7E8093E20080912A
:104C9000E20081608093E2008091E803882309F4B8
:104CA00045C084E08093EC0346DB8091E10083FF04
:104CB00027C08091E20083FF23C08091E100877FBD
:104CC0008093E10082E08093EC031092E8038091EE
:104CD000E1008E7F8093E1008091E2008E7F8093DF
:104CE000E2008091E20080618093E20042E060E0B7
:104CF00080E05DDE8091F00088608093F000FFDA54
:104D0000FF91EF91BF91AF919F918F917F916F91A3
:104D10005F914F913F912F910F900FBE0F901F9079
:104D2000189519BC1092EC03DFDA75CF8091E3007F
:104D300087FD93E09093EC03B7CF1F920F920FB6CD
:104D40000F9211242F933F934F935F936F937F9311
:104D50008F939F93AF93BF93CF93DF93EF93FF9383
:104D6000D091E900DF708091EC00C82FC17080FD08
:104D7000C0E81092E9008091F000877F8093F000F6
:104D800078941ED01092E9008091F00088608093A2
:104D9000F000CD2BCF70C093E900FF91EF91DF9130
:104DA000CF91BF91AF919F918F917F916F915F91C3
:104DB0004F913F912F910F900FBE0F901F9018951C
:104DC000AAE2B0E0E5EEF6E299C18DEE93E0209123
:104DD000F100FC012193CF01F3E0853F9F07B9F774
:104DE00011DB8091E80083FF16C18091ED03909163
:104DF000EE039A3008F00FC1E92FF0E0EC59F64DC0
:104E000068C1803899F0823809F005C18091F103BA
:104E10008F70873008F0FFC08093E9008091EB002D
:104E200085FB882780F91092E90006C08091E9038C
:104E30009091EA03911182609091E800977F90939E
:104E4000E8008093F1001092F1008091E8008E77E5
:104E5000DFC0882309F4CDC0823009F0DCC0809126
:104E6000EF038111D0C08091F1038F702FEF280FD5
:104E7000263008F0D0C08093E9002091EB0020FF9D
:104E8000C2C0933031F48091EB0080628093EB00DC
:104E9000BAC09091EB0090619093EB0021E030E07C
:104EA00001C0220F8A95EAF72093EA001092EA00E7
:104EB0008091EB008860EACF8111ADC01091EF03C3
:104EC0001F778091E3008078812B8093E3008091AD
:104ED000E800877F8093E8009EDD8091E80080FFF6
:104EE000FCCF8091E30080688093E30082E01111A1
:104EF00083E08093EC038FC08058823008F08BC031
:104F00008091EF039091F0038C3D23E0920799F597
:104F100083E08A838AE289834FB7F894DE0113968F
:104F200020E03EE051E2E32FF0E050935700E4919F
:104F300020FF03C0E295EF703F5FEF708E2F90E08F
:104F4000EA30B8F0C7968D939D932F5F243159F7BF
:104F50004FBF8091E800877F8093E8006AE270E0AD
:104F6000CE01019667DC8091E8008B778093E800A2
:104F700052C0C096E8CF6091F1037091F203AE0188
:104F80004F5F5F4F97DBBC01892B09F444C09091C0
:104F9000E800977F9093E80089819A81A9DCE3CFAC
:104FA0008038C9F58091E800877F8093E800809180
:104FB000E8038093F10049CF81112DC09091EF0358
:104FC000923048F58091E800877F8093E8009093C5
:104FD000E80321DD8091E803882311F084E005C017
:104FE0008091E30087FDFACF81E08093EC03F5D94F
:104FF00012C08091EF03813071F481E0933009F0A9
:1050000080E08093EA031092E9008091E800877FB6
:105010008093E80000DD8091E80083FF0AC0809162
:10502000E800877F8093E8008091EB0080628093A6
:10503000EB00AA96E3E07EC0CF938091EC03882337
:1050400099F0C091E900CF709091EC00892F8170A8
:1050500090FD80E8C82B1092E9008091E80083FD64
:10506000AFDECF70C093E900CF910895991B79E02E
:1050700004C0991F961708F0961B881F7A95C9F7E8
:1050800080950895AA1BBB1B51E107C0AA1FBB1F37
:10509000A617B70710F0A61BB70B881F991F5A95C4
:1050A000A9F780959095BC01CD01089597FB072E37
:1050B00016F4009406D077FD08D0E4DF07FC05D095
:1050C0003EF4909581959F4F0895709561957F4F1F
:1050D0000895EE0FFF1F0590F491E02D09942F9293
:1050E0003F924F925F926F927F928F929F92AF9278
:1050F000BF92CF92DF92EF92FF920F931F93CF93C5
:10510000DF93CDB7DEB7CA1BDB0B0FB6F894DEBF5B
:105110000FBECDBF09942A88398848885F846E8481
:105120007D848C849B84AA84B984C884DF80EE80CB
:10513000FD800C811B81AA81B981CE0FD11D0FB6D4
:10514000F894DEBF0FBECDBFED010895FB01DC0179
:1051500004C08D910190801921F441505040C8F74E
:10516000881B990B0895F999FECF92BD81BDF89ADD
:10517000992780B50895A8E1B0E042E050E020C052
:10518000262FF999FECF92BD81BDF89A019700B400
:10519000021639F01FBA20BD0FB6F894FA9AF99AA0
:1051A0000FBE08950396272FECDFEADF252FE9DFF6
:1051B000242FE7CF0196272FE4DFE2CFDC01CB01DC
:1051C000FC01F999FECF06C0F2BDE1BDF89A319617
:1051D00000B40D9241505040B8F70895F894FFCFB5
:1051E0001F0A1F0A550A550AAE0ACA0A470A470A81
:1051F000CE0A370B430B430B6E1752177717C716A0
:10520000141814184B1714181418A7171418B717D4
:10521000FB171418141814181418D7171418141886
:10522000C7171418901714181418121812181218F7
:105230001218121812181218121812180D18141821
:105240006E17411714181418141814181418141879
:1052500014181418141814180D18141814184B17BF
:1052600014181018101810181018101810181018FA
:10527000101810180D18F91869190119CB18CF1842
:105280000519D31809191519DF186219E318191926
:10529000E7181D194519EB1821194C19F118271990
:1052A0002F19D7180D19DB181119F5182B193B19DF
:1052B00055196019C518FD187019FD1C031DED1C4A
:1052C000F71C091D0F1D151D012729270B2829274C
:0C52D0000B285C277C270B28D027DC274C
:1052DC0070039003280850011E0A140100000100FD
:1052EC00D61F4B21462141213C21E200E900EA0076
:1052FC00B500B600B700CD008301CC008A01920145
:10530C0094012102230224022502260227022A02EA
:10531C00B300B4006F0070009F01CB019F02A0028C
:10532C00818283E200E900EA00B500B600B700CD47
:10533C00008301CC008A01920194012102230224F2
:10534C00022502260227022A02B300B4006F007065
:10535C00009F01CB019F02A0028182833F3F3F004F
:10536C006D6B5F64656C6179006D6B5F696E746504
:10537C007276616C006D6B5F6D61785F73706565E3
:10538C0064006D6B5F74696D655F746F5F6D6178E0
:10539C00006D6B5F776865656C5F6D61785F7370CE
:1053AC00656564006D6B5F776865656C5F74696DCE
:1053BC00655F746F5F6D6178000A092D2056657208
:1053CC0073696F6E202D0A5649443A203078343870
:1053DC0035332822486173752229205049443A20DC
:1053EC00307836363043282246433636304322292D
:1053FC00205645523A203078303130300A425549E7
:10540C004C443A2020284E6F7620313520323032F1
:10541C0035290A4F5054494F4E533A204C5546416A
:10542C00204D4F5553454B45592045585452414BEF
:10543C00455920434F4E534F4C4520434F4D4D4102
:10544C004E44204E4B524F20343039360A4743439A
:10545C003A20382E332E30204156522D4C4942439F
:10546C003A20322E302E30204156525F4152434862
:10547C003A20617672350A0044B615B40AFE09E981
:08548C00099509AE09C70900EA
:00000001FF
