:100000002DC3000063C3000061C300005FC3000094
:100010005DC300005BC3000059C3000057C300006C
:1000200055C3000053C300000C9468230C9435247E
:100030000C94C81E4BC3000049C3000047C3000016
:1000400045C3000043C3000041C300003FC300009C
:100050003DC300000C943F1F39C3000037C30000AC
:1000600035C3000033C3000031C300002FC30000BC
:100070002DC300002BC3000029C3000027C30000CC
:1000800025C3000023C3000021C300001FC30000DC
:100090001DC300001BC3000019C3000017C30000EC
:1000A00015C3000013C3000011C3000029001E0087
:1000B0001F0020002100220023002400250026002C
:1000C00027002D002E002A0035002B0014001A00F6
:1000D0000800150017001C0018000C001200130087
:1000E0002F00300000004C0039000400160007000B
:1000F00009000A000B000D000E000F003300340051
:10010000310028004B00E10064001D001B000600C8
:100110001900050011001000360037003800E50016
:1001200052004E00E000E300E2000000000000008A
:100130002C00000000002152E600E40050005100B5
:100140004F0035003A003B003C003D003E003F00C0
:10015000400041004200430044004500010001000E
:100160000100010001000100010001000100010087
:100170000100010001000100010001000100010077
:100180000100010001000100010001000100010067
:100190000100010001000100010001000100010057
:1001A0000100010001000100010001000100010047
:1001B0000100010001000100010001000100010037
:1001C000000000000000010000000000010001002C
:1001D0000100010001000100010001000100010017
:1001E0000100010001000100010001000100010007
:1001F00001000100010001000100010001000100F7
:1002000001000100010001000100010001000100E6
:1002100001000100010001000100010001000100D6
:1002200001000100010001000100010001000100C6
:1002300001000100010001000100010001000100B6
:1002400001000100010001000100010001000100A6
:10025000010001000100000000000000010000009A
:100260000000010001000100010001000100010087
:100270000100010001000100010001000100010076
:100280000100010001000100010001000100010066
:100290000100010001000100010001000100010056
:1002A0000100010001000100010001000100010046
:1002B0000100010001000100010001000100010036
:1002C0000100010001000100010001000100010026
:1002D0000100010001000100010001000100010016
:1002E0000100010001000100010001000000000008
:1002F00000000100000000000100010001000100F9
:10030000010001001E0F0500047F3F1F64321464CA
:100310003214783C1E1E140A052223252628292A79
:100320002C2D2F3032333536383A3B3D3E40424358
:100330004547494A4C4E5051535557595A5C5E6097
:1003400062646668696B6D6F71737577797B7D7FA9
:1003500081838587898A8C8E90929496989A9C9EA8
:100360009FA1A3A5A7A8AAACAEAFB1B3B4B6B8B9C4
:10037000BBBCBEBFC1C2C3C5C6C7C9CACBCCCDCE2C
:10038000D0D1D2D2D3D4D5D6D7D7D8D9D9DADADB0F
:10039000DBDBDCDCDCDCDCDDDDDDDDDCDCDCDCDC9B
:1003A000DBDBDBDADAD9D9D8D7D7D6D5D4D3D2D2DA
:1003B000D1D0CECDCCCBCAC9C7C6C5C3C2C1BFBEC2
:1003C000BCBBB9B8B6B4B3B1AFAEACAAA8A7A5A32D
:1003D000A19F9E9C9A98969492908E8C8A898785EC
:1003E00083817F7D7B79777573716F6D6B696866CB
:1003F0006462605E5C5A5957555351504E4C4A499D
:1004000047454342403E3D3B3A3836353332302F44
:100410002D2C2A292826252322FFAA7F55400001BA
:1004200001010101010101010202020202020202B4
:100430000203030303030303030404040404040486
:10044000050505050506060606060707070707084A
:10045000080808090909090A0A0A0B0B0B0C0C0CFD
:100460000D0D0D0E0E0E0F0F0F1010111111121297
:1004700013131414151516161717181819191A1A14
:100480001B1B1C1D1D1E1E1F202021222223242475
:10049000252626272829292A2B2C2D2D2E2F3031B1
:1004A0003232333435363738393A3B3C3D3E3F40C3
:1004B0004142434445464748494A4C4D4E4F5051AE
:1004C0005354555658595A5B5D5E5F616264656668
:1004D00068696B6C6D6F7072737577787A7B7D7EEF
:1004E0008082838587888A8C8E8F91939596989A3F
:1004F0009C9EA0A2A3A5A7A9ABADAFB1B3B5B7BA57
:10050000BCBEC0C2C4C6C9CBCDCFD1D4D6D8DBDD2A
:10051000DFE2E4E7E9EBEEF0F3F5F8FAFDFF0E03B6
:1005200041007600650073003600350000001C03B2
:1005300049002F004F0020004B0065007900620049
:100540006F0061007200640073000000040309047E
:1005500009023B00020100A0FA09040000010301A6
:10056000010009211101000122440007058103084F
:10057000000109040100010300000009211101002C
:1005800001227B0007058203200001120100020006
:10059000000008919938900100010200010501094D
:1005A00002A10185020901A1000509190129081507
:1005B00000250195087501810205010930093115F1
:1005C00081257F95027508810609381581257F955B
:1005D0000175088106050C0A38021581257F9501F1
:1005E00075088106C0C005010980A10185031901B4
:1005F0002AB700150126B700950175108100C005C6
:100600000C0901A101850419012AA002150126A0E7
:1006100002950175108100C005010906A1010507B9
:1006200019E029E71500250195087501810295015A
:10063000750881010507190029FF150026FF00959F
:100640000675088100050819012905150025019581
:100650000575019102950175039101C011241FBE1A
:10066000CFEFDAE0DEBFCDBF04B603FE18C0809145
:100670002C0390912D03A0912E03B0912F0387306E
:10068000904BA740B04B59F410922C0310922D03BD
:1006900010922E0310922F03E0E0F8E3099511E089
:1006A000A0E0B1E0EEEDFFE402C005900D92A83E9F
:1006B000B107D9F723E0A8EEB1E001C01D92AC323A
:1006C000B207E1F70E9460120C94A32799CC843002
:1006D000B8F46530A8F44F3098F450E09FE0699F7B
:1006E000400D511D1124FA019BE4899FE00DF11D7D
:1006F0001124EE0FFF1FE455FF4F8591949108954B
:1007000081E090E00895E3CF089581E00895FDCF62
:100710000895FBCF089581E00895F7CF0895F5CFB0
:100720000895FDCF089508950895FDCF0895089583
:100730000895A6E0B0E0EFE9F3E00C947126498358
:100740005A839E833091EF0189819A81311117C0BC
:100750003E81332389F0222379F095D5182F682F15
:1007600089819A816FD569817A81812F0E94540F86
:100770002696E3E00C948D2676D5182FF4CF83D5FA
:1007800069817A81F3CFFC01262F408151816281FA
:10079000738184819581CDCFCF93DF93EC0161E0AC
:1007A000F2DFBE01B4DF882349F061E0CE01EBDF68
:1007B000BE01AFDF8170DF91CF91089580E0FACF65
:1007C0000F931F93CF93DF93EC0160E0DCDF8C018C
:1007D000BE01AADFBE01C801A8DFDF91CF911F9142
:1007E0000F91089521E030E0A90102C0440F551F88
:1007F0008A95E2F7CA015FC4CF93C82F81E090E0E9
:100800000C2E02C0880F991F0A94E2F70E944F0D28
:100810008C2FE8DFCF91089581E00895FDCF0895F2
:10082000FBCF0895CF93C82FFED38C2FF7DF8C2FEB
:10083000F7DF2FEF84E39CE0215080409040E1F708
:1008400000C00000CF91089581E0ECDF0C94631F9D
:1008500080E0E8DF0C94871F0F931F93CF93DF9303
:100860008C0161E090DFEC01F801858181110E942B
:10087000BD18B801CE0151DF811106C080E0DF91C3
:10088000CF911F910F910895B801CE014ADF8823BF
:10089000A9F3B801CE010E94E61C882379F3B801C0
:1008A000CE010E944019882349F3B801CE010E946D
:1008B0001819882319F3B801CE010E9476128823F3
:1008C000E9F2B801CE010E9454108823B9F2F80170
:1008D0008581882361F0C330FCE7DF07D9F050F44D
:1008E000C115ECE7DE07A1F0C130DC47A9F0C80173
:1008F00012DFC5CFCB358CE7D80799F0CC35ECE7C4
:10090000DE0761F0CA35DC4791F70E94170DEFCF83
:100910009BDFB4CF0E94470D9BDFB0CF0E940F0D2D
:10092000E6CF0E94190DE3CF02DF0E949F1E17C081
:1009300018D0FEDE0C94A31E81E008950895CF9395
:10094000DF93D82FF9DFC82F882311F08D2FF6DF22
:100950008C2FDF91CF9108950895F1CF089580E015
:10096000FCCF0E942E1DF9CFCF930E942E1DC82FC1
:100970008091EA018C1771F0C093EA010E94331F45
:100980006093EB017093EC018093ED019093EE0185
:100990008C2FE3DFCF910895ADE0B0E0E2EDF4E01D
:1009A0000C947226488759876A877B878C879D8736
:1009B00091118BD71F8286E0FE013896DE011196D9
:1009C00001900D928A95E1F78D8181110CC02981EA
:1009D0003A814B815C816D817E818F81C6D62D9657
:1009E000E2E00C948E26CE010196D6DE8111EFCF87
:1009F000F6CFFC012481213019F48081918174C4E7
:100A00000895662321F00E949D1A0C94681B0E9491
:100A1000EF1AFBCFCF93C82F8823B9F08238B9F4EF
:100A20000E943D1D81FD11C089E30E94FC1DB5D7C8
:100A30002FEF87EE93E0215080409040E1F700C017
:100A4000000089E30E94021EA8D7CF910895833841
:100A500099F40E943D1D80FDF8CF83E50E94FC1DA6
:100A60009CD72FEF81EE94E0215080409040E1F739
:100A700000C0000083E5E6CF843899F40E943D1D54
:100A800082FDE3CF87E40E94FC1D87D72FEF81EE24
:100A900094E0215080409040E1F700C0000087E4DE
:100AA000D1CF8CEF8C0F813A68F48C2F0E94C11D3E
:100AB000882321F08C2F0E94021E6FD78C2F0E945A
:100AC000FC1DC2CF80E28C0F883040F4C77081E0FB
:100AD00001C0880FCA95EAF7DBD6B6CFEBE5EC0F7D
:100AE000E33040F4F0E0EB59FE4F808190E00E944B
:100AF0005E1DABCFE8E5EC0FEB3150F4F0E0EE0F0C
:100B0000FF1FE15DFE4F808191810E94851D9DCF79
:100B100083E38C0F833108F098CF61E08C2F71DF75
:100B200094CF882309F44DC0823861F40E943D1DA2
:100B300081FF47C089E30E94FC1D2FD789E30E94F3
:100B4000021E2BC7833851F40E943D1D80FF39C01F
:100B500083E50E94FC1D21D783E5F1CF843851F451
:100B60000E943D1D82FF2DC087E40E94FC1D15D709
:100B700087E4E5CF9CEF980F913A08F390E2980F45
:100B8000983048F4877091E001C0990F8A95EAF790
:100B9000892F84D6D6CF9BE5980F933020F490E030
:100BA00080E00C945E1D98E5980F9B3120F490E056
:100BB00080E00C94851D93E3980F933110F460E06E
:100BC00020CF08951F93CF93DF93182FEB0122DFDF
:100BD000209731F4812FA5DFDF91CF911F910895E8
:100BE0008FE99FE00197F1F700C000002197F0CF57
:100BF00070E060E0893311F460E570E0E3CF8823B2
:100C000011F046D6CAC60895882311F047D6C5C646
:100C10000895B0E0A0E0EFE0F6E00C946B266C01E4
:100C2000D62FC72FFC011581068102950F7026D69D
:100C3000E82E8823E9F0E12E1123D1F08C2F807F5C
:100C4000803461F080E28D0F8830F8F08C2F807E48
:100C5000803221F4D230C8F00023B9F08091E30251
:100C600082FF13C082E0B5D609D691E0E82EE926CE
:100C7000BC2EB2949FE0B922FBE0FB1580F1EB2D76
:100C8000F0E0EB55F84D0C943126E12CF1CF0C2F10
:100C90000F70C07F11F00295007F112381F00023B7
:100CA00049F080E28D0F883010F0D11105C0802FFF
:100CB000EFD573D68D2F40C0802FFAD5FACF8D2F68
:100CC00030DF002361F080E28D0F883010F0D11109
:100CD00003C0802FE3D502C0802FF0D55ED6EB2D68
:100CE000E850FF0B349708F04CC10E942E1D35DEF2
:100CF000CDB7DEB7E9E00C9487262C2F2F70F22EAB
:100D0000C07FC03219F0F29480EFF822DD2341F069
:100D1000D13081F1112309F439C00023C9F0CACFC1
:100D20008091E30282FD10C0112341F0FF2019F0F1
:100D30008F2DAED532D680E06DDED1CF80E0F1DEF2
:100D4000FF2069F28F2DC6CF112359F0011103C086
:100D50008F2D55DFC4CF013009F0C1CF8F2DC9D5FC
:100D6000BECF0111BCCF8F2D4FDF8F2DCDD58F2D55
:100D7000B2D5B5CF112321F0063008F0B0CFE8CFBF
:100D8000053008F0ACCF8F2D3FDFA9CF0023D9F37A
:100D9000D93349F43FEF87EE93E0315080409040E3
:100DA000E1F700C000008D2FBCDE99CF8C2F869517
:100DB0008695837069F0813009F091CF8D2F9C2F3B
:100DC0009370111102C080E090E00E94851D87CFD2
:100DD0008D2F9C2F9370111102C080E090E00E9433
:100DE0005E1D7DCF612F8D2F0CDE79CF8C2F837010
:100DF00081F5111174CF4D2F429546954770440FE0
:100E0000440F2D2F2F7030E0042E02C0220F331F0D
:100E10000A94E2F790E080E0D4FF09C08FE090E010
:100E200002C0880F991F4A95E2F780959095C69564
:100E3000C695C370822B932BC23039F040F4C13079
:100E400011F042D14CCF39D14ACF45D148CF33D11F
:100E500046CF8695112311F08C2F8170882309F4D9
:100E60003ECF4D2F429546954770440F440F2D2F8E
:100E70002F7030E0042E02C0220F331F0A94E2F7D5
:100E800090E080E0D4FF09C08FE090E002C0880FBE
:100E9000991F4A95E2F780959095C695C695C370BF
:100EA000822B932BC23039F040F4C13011F067D15E
:100EB00016CF5ED114CF6AD112CF1AD110CFCF7016
:100EC000112321F08C2F28D18D2F43CF8D2F9CDE25
:100ED0008C2F30D104CFD23F39F160F4D03FB9F03C
:100EE000D13F81F0112309F43CC00111E3CE8C2FD6
:100EF0008F711EC0D33FF1F0D43FA1F78091E30280
:100F000082FD20C08C2F8F71112319F311C0112382
:100F100039F0053008F0E3CE8C2F8F711BD1DFCE76
:100F2000063008F0DCCEF8CF8C2F8F711111D1CFA5
:100F3000F3D0D5CE112321F08C2F8F71E3D0CFCEFB
:100F4000DED0CDCE112329F063E08C2F8F712AD50E
:100F5000C6CE81E03ED5023008F4C1CE82E039D55C
:100F6000BECE002359F0D93309F01DCFEFEFF7EED5
:100F700023E0E150F0402040E1F713CF8C2F8F7138
:100F8000A8CFEE2009F4B4CE75D480FDB1CEF60121
:100F900015826AD4C1D0C60117D066D4CBD0A8CEF2
:100FA0000F931F93CF93DF93EC01688179818D813B
:100FB000A4D18C01F2D07ED0B801CE012ADEDF911F
:100FC000CF911F910F910895CF93DF93EC018C8106
:100FD000882381F0CE0140DC81110FC04FD48823DB
:100FE00049F08D81882331F08091E30282FF02C0B5
:100FF00082E0EFD4DF91CF910895CE01D1DFCE0111
:10100000DFDBF8CF90E080E00E945E1D90E080E0A2
:101010000E94851D5AD4C1D40E94811B0C94681B68
:101020000E94081EEFCF41D4FBCF92959F7096305F
:1010300091F058F4925F9F70923058F4803F19F00D
:1010400030F4883E30F481E008959A5FF4CF843F15
:10105000D1F380E00895883EB0F3813FD1F7F3CF1C
:10106000FC012481222321F0808191813DD1DDCFBB
:1010700080E00895A6E0B0E0E0E4F8E00C94722689
:101080002696E2E00C948E26A7E0B0E0EAE4F8E0D1
:101090000C9472262796E2E00C948E260895FECFDB
:1010A0000895FDCF0895FADFFCDF90931B02809333
:1010B0001A0208950895F7CF089520911A023091E9
:1010C0001B02822B932BEFCF20911A0230911B022F
:1010D00082239323E8CF20911A0230911B028227AA
:1010E0009327E1CFDBCF0895FDCF0895D7CF0895A3
:1010F000FDDFFADF9093190280931802089590E0C3
:1011000080E0F6CF21E030E0A90102C0440F551F76
:101110008A95E2F7CA01ECCF21E030E002C0220F4D
:10112000331F8A95E2F78091180290911902822B61
:10113000932BDECF21E030E002C0220F331F8A95CF
:10114000E2F7209530958091180290911902822340
:101150009323CECF21E030E002C0220F331F8A95C7
:10116000E2F7809118029091190282279327C0CF4D
:101170002091180230911902822B932BB9CF209124
:1011800018023091190282239323B2CF20911802C2
:101190003091190282279327ABCF0895262F27700D
:1011A00091E001C0990F2A95EAF723E076956795BB
:1011B0002A95E1F7660F771F660F771FFA01E60F92
:1011C000F71F50E040E0682F70E08191DF01119738
:1011D0009B01042E02C0369527950A94E2F72170F0
:1011E00021952827292328272C934F5F5F4F4430D0
:1011F000510559F70895A82FA77023E09695879574
:101200002A95E1F7880F991F880F991FFB01E80FB6
:10121000F91F50E040E080E0219130E00A2E02C04A
:10122000369527950A94E2F721703327042E01C0E2
:10123000220F0A94EAF7822B4F5F5F4F443051052B
:1012400059F70895262F953068F48F3058F4682F99
:1012500070E08FE0989F600D711D112440EF51E008
:10126000822F9CCF0895292F953058F48F3048F461
:1012700090E060EF71E03FE0239F800D911D11240D
:10128000BACF80E00895B0E0A0E0E9E4F9E00C9482
:101290006B267C01009118021091190280911A02AC
:1012A00090911B02082B192BCFE0D0E0CC24C394E3
:1012B000D12CBC2EC6010C2E02C0880F991F0A9497
:1012C000E2F780239123892B49F4219790F7B12CE1
:1012D0008B2DCDB7DEB7E9E00C948726B7018C2FB4
:1012E000EED5019791F3F4CFCF93DF93EC01CBDFF1
:1012F000BE01E5D5DF91CF9108951F93CF93DF9382
:10130000EB019091EF01992331F0CB01EDDFDF91FB
:10131000CF911F910895882351F0CB01B4DF182F8E
:10132000682FCE018FDFBE01812FC9D5F0CFCB0151
:101330009ADF182FF8CF1F93CF93DF93C0911C0231
:1013400017E080911D028C1304C0DF91CF911F9193
:101350000895D0E01C9FF0011D9FF00D1124E25E66
:10136000FD4F208131814281538164817581868165
:101370008BDE2196C770E5CF20915602309157023F
:10138000409158025091590260915A0270915B024B
:1013900080915C0279CECF93DF9380915C02807F55
:1013A00009F04BC080915B02882309F446C0E091AC
:1013B0001C0250911D02C0915702D09156026091BB
:1013C00058027091590247E05E17B9F18E2F90E0F4
:1013D000E49FF0011124E25EFD4F2481222381F17C
:1013E000489FF001499FF00D1124DF01A25EBD4F1F
:1013F00011962C9111972C1323C02C912D1320C0E2
:1014000015962C91159721111BC012962D913C9188
:10141000261B370B283C310598F480915C028F70B5
:10142000806180935C02EC5DFD4F80818F708061F4
:10143000808386E592E0C8DD7EDFDF91CF9108955D
:10144000FC013196E770C0CF482F20911C0290918B
:101450001D0257E0291302C080E0089530E0529F3A
:10146000F001539FF00D1124E25EFD4F818168135E
:1014700006C08081481303C085818111EECF2F5FA4
:101480003F4F2770E7CFA4E1B0E0E9E4FAE00C9425
:1014900068268C0186E0F801DE011F9601900D920E
:1014A0008A95E1F7F8018481E58096E5A92E92E01E
:1014B000B92E90915A0291111AC08823A9F0EE20FA
:1014C00089F0C801CDDDF82E882361F087E0F801AE
:1014D000D50101900D928A95E1F7C5018ADA5BDFAB
:1014E0004BDF59C0C80170DDFF24F39454C0C080A5
:1014F000D18082809380F0905B02209158023091DD
:101500005902A401421B530BFF2009F4E9C0483CD7
:10151000510508F09CC0882309F43DC09091570202
:1015200080915C02282F207F09F056C09D1114C0C5
:1015300090915602C91210C0E11048C08F708061AE
:1015400080935C0219DF86E592E03EDD80915C02CB
:10155000F8018683F12C1FC0E11038C06D2D8C2D51
:1015600073DF6D2D8C2D70DFE82E8111F3CFCF86C8
:10157000D88A8F859889B8DE292F22952F7024303C
:1015800078F49F702230A0F09923B1F0F801968191
:10159000907F91F4FE2C8F2D6496ECE00C948426C1
:1015A0002A5F2F70223060F0C8010EDDEF2CF2CFE1
:1015B000992311F0882371F3805E883058F3F4CFBB
:1015C000803F40F3815F833078F7E4CF80915C0205
:1015D000816080935C02BECF9D1112C09091560233
:1015E000C9120EC0E1100CC08683C801EDDC87E093
:1015F000F801A6E5B2E001900D928A95E1F770CF6F
:10160000C8012EDD882309F46DCFEE2009F46ACFDE
:1016100080915C02803280F0209156023091570216
:10162000398728879B868A8690915A029C871D86D7
:101630008E87CE010896C8DC87E0F801A6E5B2E007
:1016400001900D928A95E1F7A6DE96DE4DCF90913E
:101650005C02292F207F89F4682D9A8A898AA60145
:101660007A899E2D07DD86E592E0AEDC87E0F50104
:1016700011928A95E9F780DE6DCF882309F48BCF2C
:10168000809157028D110FC080915602C8120BC075
:10169000E11009C09683C80197DC87E0F50111923B
:1016A0008A95E9F778CFC801DBDC882309F41ACFE3
:1016B000EE2009F417CF80915C02803208F4BCCF91
:1016C00020915602309157023A8329839C828B8263
:1016D00090915A029D831E828F83CE010196ABCFDB
:1016E000483C5105A8F5882309F4FECEFE2CEE20D7
:1016F00009F4F8CE809157028D111EC080915602D8
:10170000C8121AC080915C0280FD0DC0982F907F96
:1017100051F08683903F09F468CF982F907F905FB7
:101720008F70892B61CF87E0F801A6E5B2E00190C8
:101730000D928A95E1F72FCFC80192DC81117CCF01
:1017400080915C02816080935C02C8013DDC23CF04
:10175000682D9A8A898AA6017A899E2D8BDC87E07A
:10176000F50111928A95E9F7BBCEAEE0B0E0EBEB64
:10177000FBE00C947126288739874A875B876C8742
:101780007D878E87CE0108967EDE8823A9F06C8542
:10179000662339F0288539854A855B857D858E8568
:1017A00073DC17E080911C0290911D0289133BC0ED
:1017B0002E96E3E00C948D2687E0FE013896DE013C
:1017C000119601900D928A95E1F78C85882349F353
:1017D00020911D0230E0C901019687709927409140
:1017E0001C024817190691F097E0929FD001939F31
:1017F000B00D1124A25EBD4FFE01319601900D92F5
:101800009A95E1F780931D0296DDCBCF0CDC109208
:101810001D0210921C0287E0E6E5F2E0DF011D9256
:101820008A95E9F7BECF819FC0011124825E9D4F4A
:101830002ADE882309F4BCCFE0911C021E9FF00130
:101840001124E25EFD4F2081318142815381648108
:101850007581868119DC80911C0290E00196877069
:10186000992780931C029ECF80916502869586956C
:10187000869508958091650287700895909165021C
:10188000977081E009F480E00895809171020895D5
:1018900090917102892B80937102089580959091A7
:1018A0007102982390937102089510927102089525
:1018B00090917002892B8093700208958095909189
:1018C0007002982390937002089510927002089508
:1018D0000895FECF089590916602292F282329F0BC
:1018E0008095892380936602F4CF08950895FECFF2
:1018F000089590916702292F2823281721F0982B0B
:1019000090936702F4CF089590916702292F2823BE
:1019100029F08095892380936702E9CF089580910B
:101920006702882321F01092670280E0E0CF0895DB
:101930000F931F93CF93DF93009104011091050142
:10194000C091710280917002C82B80916702882338
:1019500029F0C82B0E94AC1D8111E1DFF801C08382
:10196000C0910401D091050148E050E06DE572E0BE
:10197000CE010E943127892B59F088E0FE01ADE5A8
:10198000B2E001900D928A95E1F7CE010E943F1DD1
:10199000DF91CF911F910F910895CACF08950895B7
:1019A000FECF08959091E30292FF0EC098E0899FC8
:1019B00090011124622B60936502AEDB8091650279
:1019C000869586958695ECCFA7CB1092650280E030
:1019D000E7CF909165028095892380936502282F37
:1019E000277059F4891749F09091E30292FF05C0DE
:1019F0008695869586959EDBE8CF08959091E302C3
:101A000092FB222720F9281749F080FB92F9909346
:101A1000E30282EE92E047D082E0DBCF089580912E
:101A2000E30282FB882780F991E08927E7CF81E0F4
:101A3000E5CF80E0E3CF60E070E0CB01F5C360E08C
:101A400070E0CB01EBD3F7CFA3E0B0E0EAE2FDE03A
:101A50000C9472263BD346D31B82CE01039659D3F6
:101A600081E090E090931B0280931A025ED31A8269
:101A700019828A8184618A83CE01019667D33FD619
:101A8000DEDF2396E2E00C948E26DECF089530C38D
:101A900008951DC3089532C3089541C3089545C3F1
:101AA000089548C3089552C3089557C3089596C32F
:101AB0000895C0C30895A6E0B0E0E1E6FDE00C940F
:101AC00070260E94271F8C018091720290917302F0
:101AD0008017910781F019821A820E94271F682FB0
:101AE00049815A81792F80E090E00E94CC041093C4
:101AF0007302009372022696E4E00C948C260E94F6
:101B0000331F6093820270938302809384029093C8
:101B1000850260937E0270937F028093800290938F
:101B20008102089508950895FDCF08950895FEDF78
:101B3000FBCF0895FECF08950895FEDFFBCF82E529
:101B400090E1CFD4F0DFF3CF81E00895FDCF089589
:101B5000FBCF0895089508950895FCDFFCDFFCCFC6
:101B600098DF811101C091DF86E892E094DF82EE78
:101B700092E097DF0E94161990DF9DDA809118029B
:101B800090911902B1CA0E941E1F12D4E9DF0E946F
:101B9000AC040E94FC17D1CFA6E0B0E0E2EDFDE07E
:101BA0000C946626D3DF81110BC085DF0E94BE181E
:101BB0000E94A31B0E94B4042696EEE00C94822699
:101BC00009D424E7822E22E0922E640110E0F6016F
:101BD000E190F1906F01812F38D31F5F153009F428
:101BE00047C0E816F90699F38091860281FD36D345
:101BF000AFDF782E10E066246394812F26D37C011A
:101C0000F401A190B1904F018A159B0561F100E0AC
:101C1000CC24C394D12CAE24BF24C5018C219D219A
:101C2000892BC1F07720B1F009831A830E94271F06
:101C30009C838B836D8221E0C7018C219D21892BA0
:101C400009F420E049815A816B817C818D81922F3A
:101C50000E94CC040F5FCC0CDD1C0F30F1F6F401B8
:101C60003297F182E0821F5F153039F648DF9ECF50
:101C7000E816F90609F0B8CF98CF1F93CF93DF93FA
:101C800020D1EC01C11580E5D807F0F5C11580E43D
:101C9000D80708F09AC0C03ED10520F5CD3CD1054B
:101CA00008F082C0C83AD10578F4C53AD10508F0E9
:101CB00073C0C130D10519F1209709F1C430D105A5
:101CC000F0F4D0E0C0E01BC0C33CD105D0F7C85A47
:101CD000D0E0CC0FDD1FC859DE4F0990D881C02D50
:101CE000D4640DC0C11580E2D80708F0CDC0C1157D
:101CF00081E0D80708F05AC0C83ED10510F7CE01E0
:101D0000DF91CF911F910895C03682E5D80718F56D
:101D1000C03482E5D80708F068C0C03282E5D80731
:101D200008F05CC0C11582E5D80708F493C02C2FD9
:101D30002695269580E2289F900111248C2F837090
:101D4000C1E0D0E002C0CC0FDD1F8A95E2F7C22BC4
:101D5000D32BDD68D4CFC03A82E5D80760F4C03811
:101D600082E5D80708F456C0CF71D0E0DC2FCC272D
:101D7000C46FD06AC4CFC03C82E5D80708F45FC006
:101D8000C03E82E5D80708F09CCFDC2FCC27CC27BB
:101D9000DF71C06FD06AB3CFC55AD0E0C256DE4FF4
:101DA000C881D0E0D064ABCFD065A9CF8D2F2BD127
:101DB000182FCE01992785D0C12FD0E0DC2FCC275A
:101DC000CC27DF71C82BD92B9ACFCE01992779D098
:101DD000CC27DF70C82BD92BD06A91CFCF71D0E040
:101DE000DC2FCC27C16FD06A8ACF2C2F2695269561
:101DF000277080E2289F900111248C2F8370C1E00E
:101E0000D0E002C0CC0FDD1F8A95E2F7C22BD32BA6
:101E1000DC6875CF2C2F26952695277080E2289FA9
:101E2000900111248C2F8370C1E0D0E002C0CC0F50
:101E3000DD1F8A95E2F7C22BD32BDA6860CF8C2F97
:101E40008F71E1D0C82FD0E0DC2FCC27CC27DF71F9
:101E5000D06255CF8C2F8F71D6D055E0D695C795CF
:101E60005A95E1F7CF70D0E0DC2FCC27282F30E057
:101E700084FF06C044E0220F331F4A95E1F7332761
:101E8000C22BD32BD0693BCF8D2F8F71BCD0182F95
:101E9000CE01992716D0C12FD0E0DC2FCC27CC273C
:101EA000DF71C82BD92BD4CF462F753028F46F3073
:101EB00018F4672F0C94830390E080E00895F4DF1A
:101EC000DCCE82389105B9F1B0F48133910509F483
:101ED0007DC048F48932910509F46DC08A329105BC
:101EE00009F47BC008958533910509F45FC08933F7
:101EF000910509F10895833E9105D9F138F4803EAA
:101F0000910529F1823E910579F10895863E91056A
:101F1000D9F1873E910509F43EC0843E910541F513
:101F20002091E30221FF24C08091E20284FD19C0C8
:101F300087EE90E008952091E202237009F05AC0E4
:101F40002091E30223FF14C089E290E008952091DC
:101F5000E20220FD38C03091E30230FF09C024FFC7
:101F600043C090E080E008952091E20222FDF7CF87
:101F700008952091E20222FD3AC03091E30230FD43
:101F800039C024FFF5CFEDCF2091E20223FFF0CF3F
:101F900024FDE7CFCDCF2091E20223FD2EC030916A
:101FA000E30231FFEECF84EE90E008952091E2024B
:101FB00025FFDECFC9CF2091E20225FD21C020916F
:101FC000E30223FFD5CF89E390E0D2CF2091E20254
:101FD00026FFCECF8AE290E008952091E20226FF0C
:101FE000C7CF81E390E0089583EE90E0089582EEFC
:101FF00090E0089580EE90E0089586EE90E00895D8
:1020000085E390E008959091E20292FF10C041E0D4
:10201000282F2471243009F040E031E0282F287166
:10202000283009F030E0431711F02CE0822793FFAD
:1020300010C041E0282F2471243109F040E031E044
:10204000282F2871283109F030E0431711F02CE0D7
:1020500082273091E30230FF10C051E0282F217118
:10206000213009F050E041E0282F2871283009F094
:1020700040E0541711F029E0822731FF10C041E001
:10208000282F2171213109F040E031E0282F2871FB
:10209000283109F030E0431711F029E0822794FD40
:1020A000877E089580E00895CF939C01205E32459D
:1020B000C1E02032310538F4FB01C581C11103C0F4
:1020C0008F710E94FC038C2FCF910895089590E0AA
:1020D00080E00E94542721E0833E9E4F09F020E0DB
:1020E000822F089563EE7EEF90E080E00C947327DA
:1020F0006FEF7FEF90E080E00C947327CF93DF9336
:10210000EC0182E090E00E9447278883DF91CF9125
:102110000895FC01608182E090E00C94592783E0EF
:1021200090E00E94472790E00895682F83E090E0B8
:102130000C945927CF93DF93EC0184E090E00E9448
:10214000542799838883DF91CF910895FC016081A2
:10215000718184E090E00C9473274F925F926F92AC
:102160007F928F929F92AF92BF920F93CF93DF9304
:10217000EC0188E090E00E944F272B013C0168832E
:1021800059828A837B821C821D821E821F8283E287
:1021900090E00E944727282F30E040E050E060E0C8
:1021A00070E080E090E000E20E9499262429352921
:1021B00046295729288339834A835B836C837D832F
:1021C0008E839F83DF91CF910F91BF90AF909F90AF
:1021D0008F907F906F905F904F9008950F93CF9363
:1021E000DF93EC01488159816A817B8188E090E02E
:1021F0000E946B27288139814A815B816C817D81B6
:102200008E819F8100E20E94B426622F83E290E0DB
:102210000E945927DF91CF910F910895AB01BC0126
:102220008FE090E00C946B27AB01BC0183E190E060
:102230000C946B27682F8EE090E00C94592708953A
:10224000FECF08950895FECF0895E82FF0E0EE0F39
:10225000FF1FE251FD4F808191810895089580EA2A
:102260008A95F1F7089500C00895F9CF0895F8947C
:10227000E82FE295EF70F0E031A1282F2F7081E078
:1022800090E001C0880F2A95EAF7982F9095932344
:1022900091A392A1892B82A3789408950F931F9301
:1022A000CF93DF93C0EBD1E089918F3F09F0DFDF5F
:1022B00081E0C53BD807C1F7C1EAD1E000EB11E0EE
:1022C00089918F3F09F0D3DF0C171D07C9F7DF9104
:1022D000CF911F910F910895AF92BF92DF92EF922D
:1022E000FF920F931F93CF93DF938C01D62EC62FAF
:1022F000D0E0CE0180559E4F7C01FC0120812F3F14
:1023000009F449C0F894E22FE295EF70F0E031A1B2
:102310002F7081E090E001C0880F2A95EAF7932F93
:10232000982B91A392A18095892382A378949BDF17
:10233000E1EAF1E041E050E0B12CA12C21912F3FE6
:10234000A1F1A22FA295AF70B0E090968C9190E091
:102350002F7002C0959587952A95E2F780FD25C0DC
:10236000CA01A82AB92A440F551F81E0E03BF807AB
:1023700029F7F70180818F3F09F079DF61E0A1142F
:10238000B10409F460E08D2D70DFCC0FDD1FC00FAC
:10239000D11FB982A882DF91CF911F910F91FF9039
:1023A000EF90DF90BF90AF90089590E080E0D9CF9C
:1023B00075DF8AE0EEEEF2E0DF01982F1D929A952C
:1023C000E9F7E4EEF2E0DF011D928A95E9F785E096
:1023D00039D036CFAAE0B0E0E0EFF1E10C946F26FF
:1023E0008E010F5F1F4F8AE0F80111928A95E9F77D
:1023F000F12C6F2DC80170DFF394F5E0FF12F9CFD7
:102400004AE050E0B80184EE92E00E94312721E0DA
:10241000009709F420E0892B41F08AE0F801A4EE4E
:10242000B2E001900D928A95E1F745E06EEE72E020
:1024300084EE92E008D0182F06DF812F2A96E5E07F
:102440000C948B260895B0E0A0E0E9E2F2E10C9450
:102450006C266C017B01042FC22F222379F081E0CE
:10246000809389020E94271F90938802809387029D
:1024700080E0CDB7DEB7E8E00C948826D0918902E1
:10248000DD23B1F380918702909188020E94B81EEB
:10249000059770F310E0000F111FA801B601C701E6
:1024A0000E943127892B31F0A801B601C7010E9493
:1024B0003E27CD2F109289028C2FDBCF6DCB089554
:1024C0000E94C11E0E94B6203ADB0E94CE205BDB38
:1024D0000E94D7200E94DA20F1DF0E94F0203DDB2D
:1024E000F9CF9093E9018093E80108950F931F932A
:1024F000CF938C01FB01C581CC2309F43BC0C5D926
:102500008272F801E052F847EB30F10530F4EF54F5
:10251000F84D0C94312668D5C0E08C2FCF911F91D7
:102520000F910895882321F053D5F6CF8823E1F346
:1025300043D5F2CF882321F022D2EECF8823E1F3D6
:1025400013D2EACF882321F034D2E6CF8823E1F3F7
:1025500023D2E2CF882321F046D2DECF8823E1F3D5
:1025600035D2DACF882321F0F1D0D6CF8823E1F31A
:10257000DED0D2CFC1E0D1CFEF92FF920F931F9365
:10258000CF93DF939B01682F31110EC0442329F0B4
:10259000E82FF0E0E25EFB4F6491762F862FCDB7F7
:1025A000DEB7E6E00C948A26C32FD0E0E82FF0E0F7
:1025B000442321F0E25EFB4FE491F0E046E0249FEB
:1025C000C00111240FEF10E0B8010E94E825AB0113
:1025D000822F90E0880F991F25E5249FB001259F49
:1025E000700D1124861B970B982F990F980FB80127
:1025F0006C1B7D0B6E9FD0016F9FB00D7E9FB00D49
:1026000011248B2F939F90011124232F3327B8017E
:10261000621B730B6E9F90016F9F300D7E9F300D7C
:1026200011247801E91AF108EC9EB001ED9E700DBD
:10263000FC9E700D1124672F7727061B170B0E9F2A
:10264000E0010F9FD00D1E9FD00D11247D2F9E2FD6
:102650004230510599F048F44115510569F0413077
:10266000510581F07B2F832F07C04430510569F05D
:1026700080F046305105B1F7692F91CF9B2F8D2FF8
:102680007E2FFACF7E2F932FF7CF9D2F7B2F8E2F6C
:10269000F3CF732F9B2FFBCF41E06ECF0895FCCF7C
:1026A000089590910901291B922FE091E201F09188
:1026B000E301242F462F682F892F90E00995089574
:1026C000CF93DF93762FE901682F842FE8DF962FD1
:1026D000672F9E01482F892FE4DFDF91CF91089566
:1026E0008091F802982F9C7F29F4837084608093F6
:1026F000F80208958C3AE8F38370886AF8CFE8EF1F
:10270000F2E085E0808311828FEF828383831482DD
:10271000CF01CDC99091FC02933018F49F5F909344
:10272000FC02882319F088EF92E0C1C9089581E086
:10273000F1CF9091FC02992319F091509093FC02F3
:10274000882319F088EF92E0B2C9089581E0F1CFB3
:102750000F931F93CF938091F80280FF09C0E091FF
:10276000E601F091E7010995CF911F910F9108952E
:10277000C0910B010091E2011091E30180910C01E5
:10278000C81768F7809109019C2F981B892F20E0BA
:1027900040E060E090E0F8010995CF5FEFCFEF9265
:1027A000FF920F931F93CF93DF93D82F162F042FF1
:1027B0008091F80280FF0BC0C0910B01E090E20114
:1027C000F090E30180910C01C81730F0C1DFCDB764
:1027D000DEB7E6E00C948A26809109019C2F981BB5
:1027E000892F202F412F6D2F90E0F7010995CF5FA2
:1027F000E9CF762F9091F80290FF08C0682F842FC0
:102800004EDF962F672F482F892FC9CF0895CF937A
:10281000DF93EC01EC81F0E0E75EFC4F4491E8EFE0
:10282000F2E062818181E5DF8C818F5F8C83DF91B3
:10283000CF910895CF93DF93EC01E8EFF2E043816D
:1028400062818C81D6DF8C818F5F8C83DF91CF9109
:102850000895CF93DF93EC014091FB029C81892F77
:10286000817090FD842F692F627091FD642F92FF1B
:1028700040E095DF8C8190E00196877099278C83EA
:10288000DF91CF910895B0E0A0E0E9E4F4E10C9489
:102890006D26D82FF62E042FE22E9091F80290FF8D
:1028A00021C0E92FE695E695AE2FB0E0AB54BE4FC0
:1028B0008C918093C0029C7F9430C9F46D2F7F2D42
:1028C000842FEDDE962F672F482F892F68DFD09356
:1028D000F902F092FA020093FB02EE2019F088EF61
:1028E00092E0E5D8CDB7DEB7E7E00C9489268230D8
:1028F00019F40091FB02EBCF863019F4D091F90264
:10290000E6CF8930D9F3893111F7E9518E2F8170E3
:10291000D82EE695F0E0E75EFB4FC49110E06091A1
:102920000D01161710F014DFD2CF1C9FC001112427
:1029300070E00E94E8258D2FD1100BC0860F2091EA
:102940000B01210F3327331F402F6F2DB9DE1F5F7F
:10295000E6CF861BF4CFE8EFF2E09181282F438188
:10296000628188E0890F8FCF81E0F5CFE8EFF2E058
:102970009181282F4381628188EF890F84CF81E084
:10298000F5CFE8EFF2E0628121E1620F08F46FEF2A
:10299000282F4381818177CF81E0F3CFE8EFF2E008
:1029A000628121E1621B08F460E0282F438181816C
:1029B0006ACF81E0F3CFE8EFF2E0438121E1420FFB
:1029C00008F44FEF282F628181815DCF81E0F3CF42
:1029D000E8EFF2E0438121E1421B08F440E0282FB8
:1029E0006281818150CF81E0F3CF20E04CCFEF9224
:1029F000FF921F93CF93DF93EC0110E0EE24EA9453
:102A0000F12C60910D01161768F0A2DE9A818C817D
:102A100090FF1DC08F5F8C83DF91CF911F91FF903E
:102A2000EF90089520910B01210F3327331F70E0A1
:102A3000C7010E94FC25962F8C814091FB0260917A
:102A4000FA02199F800D11243BDE1F5FDACF8150FF
:102A5000E2CFB0E0A0E0EFE2F5E10C946A26FC01E1
:102A60008281DFEF80FFD1E0C0E00091E2011091B0
:102A7000E30129E0A22E80910D01C81790F068DED5
:102A800080918B02D13009F04FC0811102C080913A
:102A90000D01815080938B02CDB7DEB7EAE00C9434
:102AA000862680910B0190910901891B8C0F20E0F3
:102AB00040E060E090E0F801099594E0E92EF12C07
:102AC000B12CCC2ED12C80918B028B0D8A3034F11D
:102AD0006A2D0E94DB25892F082E000C990BC81641
:102AE000D906A9F420910B012C0D3D2D311D8091AB
:102AF000FB028E9DA0018F9D500D11245595479589
:102B0000559547956091FA028091F902D9DDBD0E85
:102B1000F1E0EF1AF108B9F6CF5FADCF87FFDCCF58
:102B200090910D01890FD8CF90E0019660910D0131
:102B300070E00E94FC25AECF0F931F93CF93C091FE
:102B40000B010091E2011091E30180910C01C81783
:102B500048F1C0E00091E2011091E30160910D01A4
:102B6000C61768F1F5DD2091070180918A02820F76
:102B700080938A0290910801920F90930801191690
:102B800054F4082E000C990B40910D014150550B47
:102B9000841795071CF0219520930701CF911F9171
:102BA0000F910895809109019C2F981B892F20E097
:102BB00040E060E090E0F8010995CF5FC6CFEC2FD0
:102BC000F0E070E0CF010E94FC2520910B01820F04
:102BD00020918A02022E000C330BE217F3079CF0BF
:102BE00020910801022E000C330B2E173F075CF0DA
:102BF000282F30E04091FB026091FA028091F902A7
:102C00005FDDCF5FABCF90910901891B20E040E0F1
:102C100060E090E0F8010995F4CFB0E0A0E0E3E1D6
:102C2000F6E10C946826EC014C81042F10E0980129
:102C3000D8010E943D269B01AC010E9452264B0107
:102C40005C01E0E2F0E0E01BF10BA5E5B0E0AC01D7
:102C50009B010E9452266B017C019F01DF010E94B3
:102C600037269B01AC010E945C269B01AC01280D1C
:102C7000391D4A1D5B1DC701B6010E940F26F22EA9
:102C8000822F90E039E23F1518F143E0249F900134
:102C9000112435952795122F109500E085E5E82E33
:102CA000EF1880910D01081718F152DD9C8181E029
:102CB000992319F0903219F48FEF809306018091D7
:102CC0000601890F8C83CDB7DEB7ECE00C94842627
:102CD00025E530E0A901481B590BCA019A01220FD2
:102CE000331F280F391F37FFD4CF2F5F3F4FD1CF6E
:102CF0008E2D01FD8F2D20910B01200F3327331FC7
:102D0000412F6091FA02DCDC0F5FCBCF0F931F9352
:102D1000CF93DF938C01D0E0C0E090910D019C1720
:102D20001D0609F06CF414DDF801848190E0019631
:102D3000817099278483DF91CF911F910F9108951E
:102D4000F801448120910B012C0F3D2F311D609122
:102D5000FA028091F90296959C171D0641F03CF00D
:102D6000442339F04091FB02ABDC2196D6CF4423BB
:102D7000C9F340E0F9CFB0E0A0E0E1ECF6E10C945B
:102D80006426FC016280448081E08483E9E1F3E011
:102D90007490E8E9F3E0E491C091FB02C695C15854
:102DA000D0E0CC0FDD1FCD2FDD27812C25E0922E2A
:102DB000AA24AA94B12C55245A94E719EE2EF12C8A
:102DC00080910D01881630F0C3DCCDB7DEB7E0E1AD
:102DD0000C948026C82CD12C82E0861568F09C9C2F
:102DE000F0019D9CF00D1124E457FD4F8091F902F4
:102DF00080838091FA02818341101BC09C9CF0016A
:102E00009D9CF00D1124E457FD4F138212822091F6
:102E10000B012C0D3D2D311D9C9CF0019D9CF00D56
:102E20001124E457FD4F42816181808149DC839404
:102E3000C7CF9C9C80019D9C100D112404571D4FF1
:102E4000F80183818823F1F081508383859DC0013F
:102E50001124648170E00E94E825FB01FF27E75EF2
:102E6000FC4F8491E82FE719E59DC0011124B701BB
:102E70000E94E8258091FB02689FB0011124F801AF
:102E80007283C5CF0E941627B5010E94FC258C17BE
:102E90009D070CF0BCCFF2E0F61598F40E941627BF
:102EA000B5010E94FC25F80180830E94162720911D
:102EB000FA022695622F70E00E94FC25280FF80187
:102EC00021839C9CF0019D9CF00D1124E457FD4F43
:102ED00012828091FB02893C58F088EC9C9CF001A6
:102EE0009D9CF00D1124E457FD4F848383838FCF85
:102EF0008431A0F784E1F2CFE8EFF2E080818E7FA9
:102F00008083CF010E94570D1092C10221CC6091A5
:102F1000F8026695669570E04BE050E08EE091E037
:102F20000E942427892B19F481E08093C1028FD756
:102F30009093BA028093B90208959091F80290FF9D
:102F400025C09370811123C094609093F80266238A
:102F500021F088EF92E00E94570D6091F80266958B
:102F6000669570E04BE050E08EE091E00E942427EF
:102F7000892BA9F01092C10281E08093BC0240919C
:102F8000FB026091FA028091F9022FCD08958B32F5
:102F900010F0986ADACF880F880F982BD6CFB7DF5A
:102FA000EBCF682F9091F8029695969581E0890F66
:102FB0008B3208F081E0C1CF81E0F3CF682F909190
:102FC000F802969596958FEF890F09F48AE2B5CFAE
:102FD00081E0F4CF61E0B1CFE8EFF2E08081816081
:102FE000808386958695F6CF8091F80280FF01C098
:102FF00083CFF2CF60E0A1CF8091BF0281111FC0CB
:1030000088EF92E00E94550D8091F8028C7F29F4A0
:1030100076DB88EF92E00E94550D62DB1092C102D0
:10302000E091E001F091E10109958091F80280FFC3
:1030300003C086958695DEDF81E08093BF02089508
:103040000F931F93CF93DF938091C1028823B1F137
:103050008091C002E091F802E695E695E81BE093C6
:10306000BB02823081F5F0E0EB5EFC4FE491CE2FA5
:10307000D0E007E014E18091BC02882359F010925F
:10308000BC02E5D69093BA028093B9021092BE02B8
:103090001092BD02DCD6E091B902F091BA028E1B0B
:1030A0009F0B8F3F9F4750F4EC0FFD1FF093BA0228
:1030B000E093B90289EB92E0F8010995DF91CF9195
:1030C0001F910F910895863049F4F0E0EE5EFC4FB9
:1030D000E491CE2FD0E00AE114E1CDCF893051F454
:1030E000E695F0E0E15FFC4FE491CE2FD0E007EFF2
:1030F00014E1C1CF8F3051F4E695F0E0E45FFC4F6E
:10310000E491CE2FD0E009E215E1B5CF853149F445
:10311000F0E0E75FFC4FE491CE2FD0E00CE915E141
:10312000AACFC8E2D0E00DE016E1883109F4A3CFC0
:10313000833239F4E7E0F3E0C591D49109E214E178
:103140009ACFC4EFD1E006E816E1843209F493CFB8
:10315000C0EDD7E00EE413E1853209F08CCF8E2F5D
:1031600063E00E94CF25E92FF0E0EC5FFC4FE49193
:10317000CE2FD0E00BEB16E17ECF089561CF0895FE
:10318000209A0895FC01EE0FFF1FE80FF91FE05091
:10319000FD4F6183408322830895E0E0F3E0818363
:1031A00060834283339693E0EB31F907C1F70895CA
:1031B00035B13E7F25B121604FB7F89480E093E0B0
:1031C000FC015191CF0168E025B9000000C057FF14
:1031D00035B9550F000000C000C000C035B900C0AF
:1031E0006A9591F7F3E08B319F0751F74FBF8FE559
:1031F00094E00197F1F700C0000008950C94470D8A
:10320000089580E022D881700895E4D82FEF86E7F2
:1032100091E0215080409040E1F700C00000DAD8F2
:10322000F0DF882311F0EADF4EC60895EECF08954F
:10323000CF93DF93EB0186319C4701F50E94450C4B
:103240009D81992391F08A7A91E009F490E090931E
:10325000C202811108C089E2CFD40E94CD0C80E067
:10326000DF91CF91089585E3F7CF8091C20281115C
:1032700003C089E2C7D4F1CF85E3FCCF81E0F0CF72
:10328000CF93DF93EC01FB018581882309F4CEC045
:103290009E0130572332310508F0AEC082EE92E035
:1032A0000E94510DFE01E150F047E232F10520F499
:1032B000E454F84D0C9431268091E20281608093B1
:1032C000E20293C08091E30288608093E3028DC0A4
:1032D0008091E2028260F3CF8091E2028460EFCFBE
:1032E0008091E2028860EBCF8091E3028160EDCFB4
:1032F0008091E3028260E9CF8091E2028061DFCFBA
:103300008091E2028062DBCF8091E2028064D7CFBD
:103310000E9413088091E2028068D1CF8091E2027E
:103320008C60CDCF8091E3028360CFCF8091E202A9
:103330008E7FC5CF8091E302877FC7CF8091E20265
:103340008D7FBDCF8091E2028B7FB9CF8091E20269
:10335000877FB5CF8091E3028E7FB7CF8091E30264
:103360008D7FB3CF8091E2028F7EA9CF8091E20260
:103370008F7DA5CF8091E2028F7BA1CF0E941308A1
:103380008091E2028F779BCF8091E202837F97CF7B
:103390008091E3028C7F99CF8091E20282FB992792
:1033A00090F921E0922790FB82F990FB83F987CF77
:1033B0008091E302982F909591708E7F892B90FBDE
:1033C00081F983CF9091E202892F8F7B96FF8064F1
:1033D00076CF0E9413089091E202892F97FB87F91C
:1033E00080586DCF81E00E94590D82EE92E00E94DC
:1033F000530D0E94130880E0DF91CF91089580E083
:10340000F2CF9091E202892F8F7E94FF806157CF97
:103410009091E202892F8E7F90FF816050CF909132
:10342000E302892F877F93FF88604FCF81E0E4CF4D
:10343000282F35EB2303C001112497FF04C08058C7
:103440009109892F089580589F4FFBCF8091C90221
:1034500080FF0DC060911E0170E0660F771F60381D
:10346000710570F56115710569F1862F089581FF69
:1034700007C060911E0184E0689FB0011124EFCF66
:1034800060911E0182FD0AC08091C8028823A9F0C4
:1034900020911D0160911E01821710F088E0ECCF91
:1034A000869FC001112433E0880F991F3A95E1F7F8
:1034B000622F70E00E94FC25D2CF68E070E0D5CF8B
:1034C0008FE7089581E008958091C90280FF0CC0C4
:1034D00060911A0170E0759567957595679561150E
:1034E000710549F1862F089581FF06C060911A0188
:1034F00070E075956795F3CF60911A0182FD0BC05E
:103500009091C7029923A1F06091190180911A014D
:10351000961738F0682F70E06038710500F38FE778
:103520000895899FC001112470E00E94FC25F4CF0A
:1035300061E070E0D7CF81E008958D3C29F486DF0B
:1035400081958093CD0208958E3C11F47FDFF9CFF1
:103550008F3C29F47BDF81958093CC020895803DD8
:1035600011F474DFF9CF893D21F4AEDF8093CE02F0
:1035700008958A3D19F4A8DF8195F8CF8B3D29F491
:10358000A3DF81958093CF0208958C3D11F49CDFD9
:10359000F9CF9FE2980F983070F4815D990B21E08C
:1035A00030E001C0220F8A95EAF78091CB02822B8E
:1035B0008093CB0208958D3D31F48091C9028160E2
:1035C0008093C90208958E3D21F48091C9028260E2
:1035D000F7CF8F3DB9F78091C9028460F1CF409158
:1035E000CC028D3C59F48091CD0287FF0DC0109222
:1035F000CD0241110BC01092C80208C08E3C81F46C
:103600008091CD0218169CF3442381F08091CE0264
:103610009091CF02892B09F05AC01092C7020895E9
:103620008F3C49F447FFF0CF1092CC028091CD023D
:103630008111ECCFE0CF803D19F41416ACF3E4CF48
:103640009091CE02893D29F41916F4F61092CE021B
:10365000DBCF8A3D19F497FFD7CFF8CF9091CF02F7
:103660008B3D29F497FFD0CF1092CF02CDCF8C3D68
:1036700019F41916CCF3C8CF9FE2980F983090F444
:10368000815D990B21E030E0B90102C0660F771F20
:103690008A95E2F7CB0180959091CB0289238093A4
:1036A000CB02B2CF8D3D31F48091C9028E7F8093E1
:1036B000C902AACF8E3D21F48091C9028D7FF7CF38
:1036C0008F3D09F0A1CF8091C9028B7FF0CF089583
:1036D000BED39C019091CC028091CD02982B21F019
:1036E0003093C6022093C5029091CE028091CF0202
:1036F000982B21F03093C4022093C3028AEC92E00D
:10370000CBC186E0EAECF2E0DF011D928A95E9F791
:103710001092C8021092C7021092C9020895FC01CB
:10372000828181110EC0838181110BC0848181113E
:1037300008C091E08581811101C090E0892F8170DE
:10374000089581E0FCCFA6E0B0E0E9EAFBE10C944B
:10375000712686E0EAECF2E0DE01119601900D920E
:103760008A95E1F71092CC021092CD021092CE020F
:103770001092CF028B819C81892B81F08091C502B0
:103780009091C602F5D2AC019091C8029923A9F19B
:1037900080911F018417150608F43CC08D819E811D
:1037A000892B89F08091C3029091C402E1D2AC01CF
:1037B0009091C702992309F463C080911B0184177B
:1037C000150608F46BC0BE016F5F7F4F8AEC92E074
:1037D0002AD2811104C08AEC92E0A1DF811178DF46
:1037E00086E0FE013196AAECB2E001900D928A9536
:1037F000E1F72696E3E00C948D26209120018AE0E3
:10380000289F900111242417350740F69F5F90935D
:10381000C80202C09F3FD1F71B81112351F016DE71
:103820009FEF11160CF491E0899F802D1124809355
:10383000CC021C81112351F009DE9FEF11160CF40C
:1038400091E0899F802D11248093CD028091CC023C
:10385000882309F4A3CF1091CD02112309F49ECF40
:10386000E7DD882349F08093CC02812FE1DD8823B6
:1038700029F08093CD0292CF81E0F5CF81E0F9CF9E
:1038800020911C018AE0289F9001112424173507FC
:1038900008F099CF9F5F9093C70202C09F3FD1F776
:1038A0001D81112351F010DE9FEF11160CF491E0F1
:1038B000899F802D11248093CE021E81112351F007
:1038C00003DE9FEF11160CF491E0899F802D1124E7
:1038D0008093CF028091CE02882309F474CF109197
:1038E000CF02112309F46FCFA3DD882349F0809321
:1038F000CE02812F9DDD882329F08093CF0263CFF4
:1039000081E0F5CF81E0F9CF0F931F93CF93DF9341
:10391000C42FD22FFC0185818823C1F04093D202AD
:1039200096D29093D1028093D00280E28C0F88309F
:1039300040F4C77081E001C0880FCA95EAF70E9481
:10394000FF05DF91CF911F910F9108951091D20241
:10395000141331C08091D0029091D10209D2883CD9
:10396000910548F5C0E2CD0F1D17B9F080E2810F37
:10397000883040F4177081E001C0880F1A95EAF78B
:103980000E940406C83048F481E09D2F977001C062
:10399000880F9A95EAF70E94FF05802F0E94F8058C
:1039A000C83078F6D77081E001C0880FDA95EAF761
:1039B0000E940406C6CF80E28C0F883010F6C770D4
:1039C00081E001C0880FCA95EAF7F2CF0F93DB01BF
:1039D00088519C478730910598F5FC01E252F84DDB
:1039E0000C94312606E221EE41EE6AE17CE7CD013E
:1039F0008BDF80E00F91089507E225EE45EE6BE145
:103A00007CE7F5CF06E221EE40EE68E17CE7EFCF00
:103A100007E225EE44EE69E17CE7E9CF06E221EE1C
:103A200042EE6CE17CE7E3CF07E225EE46EE6DE186
:103A30007CE7DDCF08E221E045EE6EE17CE7D7CF01
:103A400015968C91882319F01092D202D3CF81E081
:103A5000D1CF9093D8028093D7020895E091D702F6
:103A6000F091D802309739F00190F081E02D309735
:103A700011F00995089580E00895F0CF0895E09140
:103A8000D702F091D802309731F00280F381E02D17
:103A9000309709F009950895E091D702F091D80286
:103AA000309759F026813781232B39F022E0DC0151
:103AB0002C930680F781E02D09950895A3E0B0E0EE
:103AC000E4E6FDE10C9472262091D5023091D602F5
:103AD00028173907B1F09093D6028093D502E09170
:103AE000D702F091D802309761F00084F185E02D83
:103AF000309739F023E029839B838A83CE01019696
:103B000009952396E2E00C948E26A3E0B0E0EBE862
:103B1000FDE10C9472262091D3023091D402281733
:103B20003907B1F09093D4028093D302E091D70289
:103B3000F091D802309761F00084F185E02D309744
:103B400039F024E029839B838A83CE01019609956D
:103B50002396E2E00C948E264091040150910501D9
:103B60009A012E5F3F4F485F5F4F80E02417350773
:103B700009F40895F90191919F019923B9F38F5F99
:103B8000F5CF882371F02091040130910501F901EE
:103B90003296285F3F4F9191981729F0E217F3076B
:103BA000D1F780E0089581E008959C01FC013296F0
:103BB0009FEF80E04191461751F09F3F19F441116A
:103BC00001C0982F8F5F8630A9F79F3F09F40895B1
:103BD000290F311D97FD3A95F90162830895FC0183
:103BE000329608962191261303C0DF0111971C928B
:103BF000E817F907B9F70895682F809104019091AB
:103C00000501D3CF682F8091040190910501E7CF82
:103C1000E0910401F0910501329686E0DF011D92EA
:103C20008A95E9F70895DC01FB0111969C911197A3
:103C30008181981322C012968C911297882319F0D3
:103C4000928189131AC013968C911397882319F0C7
:103C50009381891312C015968C911597882319F0BA
:103C6000958189130AC014969C91992321F081E0D3
:103C70002481291303C080E001C081E08170089590
:103C80000895FECF089581110CC081E08093240136
:103C90006091210170912201809123019091240172
:103CA000F0CF82E0F3CF83E0809324016091210183
:103CB000709122018091230190912401E2CFE3CF02
:103CC000089581E080932401609121017091220187
:103CD0008091230190912401D4CFF3CF089591E0F6
:103CE000811101C090E090932301609121017091B6
:103CF00022018091230190912401C3CF809123015F
:103D00000895809322016091210170912201809198
:103D1000230190912401B5CF8091220108958093D1
:103D200021016091210170912201809123019091E4
:103D30002401A7CF80912101089508950895FECF11
:103D4000089508950895F9CF0895CF93FADF0E945A
:103D5000EA11F8DFC0E08C2F0E942511892B31F485
:103D6000CF5FC530C1F780E0CF91089581E0FCCFEF
:103D7000CF93DF93EC016BD08C1B9D0BDF91CF9128
:103D8000089585B7806885BF85B7806885BF089529
:103D90001F921FB61F9211248F939F93AF93BF93CF
:103DA0008091D902811113C080911B0390911C0353
:103DB000A0911D03B0911E034196A11DB11D8093DA
:103DC0001B0390931C03A0931D03B0931E03BF918C
:103DD000AF919F918F911F901FBE1F90189580915A
:103DE0002303843031F10E9494041092D90288E1B7
:103DF00090E020E40FB6F894A895809360000FBE81
:103E00002093600083B7817F846083BF83B7816024
:103E100083BF7894889583B78E7F83BF0FB6F8945D
:103E2000A895809160008861809360001092600086
:103E30000FBE08950E9413080C94980482E084BD7C
:103E400093E095BD9AEF97BD80936E0008952FB7CC
:103E5000F89480911B0390911C03A0911D03B091D5
:103E60001E032FBF08952FB7F89460911B03709124
:103E70001C0380911D0390911E032FBF0895789419
:103E80001F921FB61F9211248F939F93AF93BF93DE
:103E900080911B0390911C03A0911D03B0911E0300
:103EA0000196A11DB11D80931B0390931C03A09349
:103EB0001D03B0931E03BF91AF919F918F911F90EF
:103EC0001FBE1F90189581E08093E00080E28093F0
:103ED000D8001092C9008FE19EE40197F1F700C06D
:103EE000000087E090EBDC0180932C0390932D037E
:103EF000A0932E03B0932F0388E19CE00FB6F894B3
:103F0000A895809360000FBE90936000FFCF88E17A
:103F10009CE00FB6F894A895809360000FBE909334
:103F20006000FFCF08959B01BA0190912303943064
:103F3000E1F48F708093E9009FEF8091E800915049
:103F400085FD06C085ED8A95F1F700009111F5CF4A
:103F50008091E80085FF09C050E040E0C901B5D17B
:103F60008091E8008E778093E800089543E050E068
:103F7000BC0182E0D8CF46E050E0BC0182E0D3CF64
:103F8000CF93DF93EC01BADE48E050E0BE0181E060
:103F9000CADF88E0FE01AAEDB2E001900D928A9599
:103FA000E1F7DF91CF91089580912203811107C03D
:103FB0001AD371D38091E20084608093E200089567
:103FC0001092220308957DDE81E089CE60911F0367
:103FD00081E0611101C080E066CE9091230381E011
:103FE000943009F080E060911F0369CE42E061ECFB
:103FF00081E075D242E261EC82E071D290912303BC
:1040000081E0943009F080E060911F033CCE809104
:104010002503833009F45EC030F48130C1F1823071
:1040200009F494C008958A3009F483C08B3009F4F0
:104030006BC0893009F04DC080912403813209F0B2
:1040400048C08091280390912903029708F041C04D
:104050008091E800877F8093E8008091E80082FFEC
:1040600034C09091F3008091F200029731F4809176
:10407000F100813011F0863019F48091F10041DEB9
:104080008091E8008B778093E8005DD222C0809118
:104090002403813AF1F48091E800877F8093E8005F
:1040A0008091280390912903892B59F468E08AEDC7
:1040B00092E070E057D18091E8008B778093E80020
:1040C000089560E090E080E0F4CF809123038111B7
:1040D000C4CF089580912403813AD9F780912803B1
:1040E00090912903892BA9F78091E800877F80931D
:1040F000E8008091E80080FFFCCF00DE8093F100B3
:104100008091E8008E77BFCF80912403813209F738
:104110008091280390912903892BD9F68091E8009A
:10412000877F8093E8000FD280912603D8DD0C941E
:10413000130880912403813261F68091E800877F23
:104140008093E80000D280912703E9CD8091240379
:10415000813A09F0BECF8091E800877F8093E80024
:104160008091E80080FFFCCFE5DDC8CF84B7877F72
:1041700084BF0FB6F894A895809160008861809301
:104180006000109260000FBE80E890E00FB6F894D7
:1041900080936100909361000FBE9FCD24D27BD2AB
:1041A000E2EEF0E08081846080837894DEC485E272
:1041B00091E04FCC80912303853029F48091230333
:1041C000853011F037CE08950ADEBFDD8823B1F3C4
:1041D00080912103882391F362D00E941308EECFCF
:1041E00008959A0140912A0350912B0300C0492F52
:1041F00055274330510519F168F44130510509F450
:1042000044C04230510509F445C090E080E050E0E0
:1042100040E025C04132510549F142325105A9F72C
:1042200084E490E048E156E061157105C1F08BE748
:1042300090E04DE955E06130710589F0E6CF9927AE
:104240008130910581F0009729F00297F1F6EEE1B7
:10425000F5E002C0ECE4F5E0849190E0AF01F901F3
:10426000518340830895EEE2F5E0F6CF89E090E0D7
:1042700042E655E06115710591F389E090E04BE766
:1042800055E06130710559F3C0CF82E190E04BE811
:1042900055E0E5CF8BE390E040E555E0E0CF80E1ED
:1042A00089BD82E189BD09B400FEFDCF8091D800AF
:1042B0008F7D8093D8008091E00082608093E00041
:1042C0008091E00081FDFCCF0895AF92BF92CF9224
:1042D000DF92FF920F931F93CF93DF936C01EB015B
:1042E0008A0150D1F82E811123C00115110539F032
:1042F000F80180819181C81BD90BC80ED91EB12C41
:10430000A12C2097A9F08091E80085FD21C0809123
:10431000E8008E778093E80001151105A1F0F801FF
:1043200080819181A80EB91EB182A08285E0F82E0D
:104330008F2DDF91CF911F910F91FF90DF90CF9044
:10434000BF90AF9008951ED18823D9F2F82EF0CFF8
:10435000F60181916F018093F1002197FFEFAF1A71
:10436000BF0ACFCFFC0180912A0390912B038617BF
:104370009707A0F06115710529F49091E8009E77E8
:104380009093E80090E06115710551F4911108C017
:104390008091E80082FF34C080E00895BC01F2CF34
:1043A000809123038823C1F18530C1F18091E80019
:1043B00083FD30C08091E80082FDEACF8091E80063
:1043C00080FFE1CF8091F3002091F200382F61153A
:1043D000710519F02830310558F091E02830310589
:1043E00009F090E02091E8002E772093E800CBCFF1
:1043F00081918093F100615071092F5F3F4FE7CFAA
:1044000080912303882341F0853041F08091E800BA
:1044100083FFBECF81E0089582E0089583E0089590
:10442000FC0180912A0390912B0386179707A0F037
:104430006115710529F48091E8008E778093E8007A
:1044400090E06115710551F4911108C08091E80068
:1044500082FF35C080E00895BC01F2CF8091230334
:104460008823C9F18530C9F18091E80083FD31C00E
:104470008091E80082FDEACF8091E80080FFE1CFE3
:104480008091F3002091F200382F6115710519F029
:104490002830310558F091E02830310509F090E0DE
:1044A0008091E8008E778093E800CBCF8491809351
:1044B000F1003196615071092F5F3F4FE6CF809137
:1044C0002303882341F0853041F08091E80083FF89
:1044D000BDCF81E0089582E0089583E00895982F8C
:1044E000973028F08F708093E90081E008959093D1
:1044F000E900242F762F50E0981731F07091EC00EE
:104500002091ED005091F00021FD02C09F5FE8CFA7
:104510003091EB003E7F3093EB003091ED003D7F1A
:104520003093ED003091EB0031603093EB007093ED
:10453000EC002093ED005093F0002091EE0027FD59
:10454000E5CF80E008958091240387FF13C0809118
:10455000E80082FF06C08091E8008B778093E80036
:1045600004C0809123038111F2CF08958091230329
:104570008823D9F38091E80080FFF8CF8091E8008C
:104580008E77ECCF2091E4003091E50095E6A9010B
:104590002091EC00822F817020FF06C08091E800FE
:1045A00080FF06C080E008952091E80022FD1AC037
:1045B00080912303882389F0853089F08091EB0076
:1045C00085FD0FC02091E4003091E50042175307AC
:1045D000F9F29150E1F684E0089582E0089583E0D5
:1045E000089581E0089567D06ED0E0EEF0E080811C
:1045F00081608083E8EDF0E080818F77808319BC53
:10460000A7EDB0E08C918E7F8C9380818F7E80832C
:104610001092220308950F931F93CF93DF934BD0F3
:1046200052D0C8EDD0E088818F77888388818068F8
:10463000888388818F7D888319BC10922303109210
:104640001F03109221031092200300EE10E0F801E6
:1046500080818B7F808388818160888342E060E0F5
:1046600080E03DDFE1EEF0E080818E7F8083E2EE4E
:10467000F0E0808181608083808188608083F801A0
:1046800080818E7F8083888180618883DF91CF9154
:104690001F910F910895E8EDF0E080818F7E808377
:1046A000E7EDF0E080818160808384E082BF81E07B
:1046B00080932203B0CFE8EDF0E080818E7F80838D
:1046C0001092E20008951092DA001092E10008952D
:1046D0001F920F920FB60F9211242F933F934F9377
:1046E0005F936F937F938F939F93AF93BF93EF935A
:1046F000FF938091E10082FF0AC08091E20082FF77
:1047000006C08091E1008B7F8093E1002DD28091E3
:10471000DA0080FF18C08091D80080FF14C080911B
:10472000DA008E7F8093DA008091D90080FF91C0FB
:1047300080E189BD82E189BD09B400FEFDCF81E041
:104740008093230331DC8091E10080FF18C08091C9
:10475000E20080FF14C08091E2008E7F8093E2002F
:104760008091E20080618093E2008091D8008062B5
:104770008093D80019BC85E08093230327DC8091C7
:10478000E10084FF2AC08091E20084FF26C080E11E
:1047900089BD82E189BD89B5982F917080FFFBCFDB
:1047A0008091D8008F7D8093D8008091E1008F7E2A
:1047B0008093E1008091E2008F7E8093E2008091FF
:1047C000E20081608093E20080911F03882309F456
:1047D00045C084E08093230300DC8091E10083FFE7
:1047E00027C08091E20083FF23C08091E100877F92
:1047F0008093E10082E08093230310921F03809155
:10480000E1008E7F8093E1008091E2008E7F8093B3
:10481000E2008091E20080618093E20042E060E08B
:1048200080E05DDE8091F00088608093F000CBDB5B
:10483000FF91EF91BF91AF919F918F917F916F9178
:104840005F914F913F912F910F900FBE0F901F904E
:10485000189519BC10922303B3DB75CF8091E30048
:1048600087FD93E090932303B7CF1F920F920FB66B
:104870000F9211242F933F934F935F936F937F93E6
:104880008F939F93AF93BF93CF93DF93EF93FF9358
:10489000D091E900DF708091EC00C82FC17080FDDD
:1048A000C0E81092E9008091F000877F8093F000CB
:1048B00078941ED01092E9008091F0008860809377
:1048C000F000CD2BCF70C093E900FF91EF91DF9105
:1048D000CF91BF91AF919F918F917F916F915F9198
:1048E0004F913F912F910F900FBE0F901F901895F1
:1048F000AAE2B0E0EDE7F4E2F4C184E293E02091B3
:10490000F100FC012193CF01F3E08C329F07B9F74E
:104910007EDB8091E80083FF16C180912403909193
:1049200025039A3008F00FC1E92FF0E0EB51F84D64
:1049300098C1803899F0823809F005C18091280328
:104940008F70873008F0FFC08093E9008091EB0002
:1049500085FB882780F91092E90006C0809120032A
:1049600090912103911182609091E800977F90933C
:10497000E8008093F1001092F1008091E8008E77BA
:10498000DFC0882309F4CDC0823009F0DCC08091FB
:1049900026038111D0C0809128038F702FEF280F3C
:1049A000263008F0D0C08093E9002091EB0020FF72
:1049B000C2C0933031F48091EB0080628093EB00B1
:1049C000BAC09091EB0090619093EB0021E030E051
:1049D00001C0220F8A95EAF72093EA001092EA00BC
:1049E0008091EB008860EACF8111ADC01091260361
:1049F0001F778091E3008078812B8093E300809182
:104A0000E800877F8093E8009EDD8091E80080FFCA
:104A1000FCCF8091E30080688093E30082E0111175
:104A200083E0809323038FC08058823008F08BC0CE
:104A300080912603909127038C3D23E0920799F5FE
:104A400083E08A838AE289834FB7F894DE01139664
:104A500020E03EE051E2E32FF0E050935700E49174
:104A600020FF03C0E295EF703F5FEF708E2F90E064
:104A7000EA30B8F0C7968D939D932F5F243159F794
:104A80004FBF8091E800877F8093E8006AE270E082
:104A9000CE01019667DC8091E8008B778093E80077
:104AA00052C0C096E8CF6091280370912903AE01EF
:104AB0004F5F5F4F96DBBC01892B09F444C0909196
:104AC000E800977F9093E80089819A81A9DCE3CF81
:104AD0008038C9F58091E800877F8093E800809155
:104AE0001F038093F10049CF81112DC090912603BF
:104AF000923048F58091E800877F8093E80090939A
:104B00001F0321DD80911F03882311F084E005C07D
:104B10008091E30087FDFACF81E08093230366DA7A
:104B200012C080912603813071F481E0933009F046
:104B300080E0809321031092E9008091E800877F54
:104B40008093E80000DD8091E80083FF0AC0809137
:104B5000E800877F8093E8008091EB00806280937B
:104B6000EB00AA96E3E0D9C00895CF938091230388
:104B7000882399F0C091E900CF709091EC00892FC3
:104B8000817090FD80E8C82B1092E9008091E800C8
:104B900083FDAEDECF70C093E900CF910895991BDD
:104BA00079E004C0991F961708F0961B881F7A9524
:104BB000C9F78095089587FB082E062687FD819505
:104BC00067FD6195ECDF0EF4919507FC81950895E2
:104BD000AA1BBB1B51E107C0AA1FBB1FA617B70723
:104BE00010F0A61BB70B881F991F5A95A9F780953F
:104BF0009095BC01CD01089597FB072E16F4009403
:104C000006D077FD08D0E4DF07FC05D03EF4909590
:104C100081959F4F0895709561957F4F0895A1E20A
:104C20001A2EAA1BBB1BFD010DC0AA1FBB1FEE1F26
:104C3000FF1FA217B307E407F50720F0A21BB30B71
:104C4000E40BF50B661F771F881F991F1A9469F7ED
:104C500060957095809590959B01AC01BD01CF0149
:104C60000895EE0FFF1F0590F491E02D099405D0F3
:104C7000332312F48A1B9B0B10C0A29FB001B39F79
:104C8000C001A39F700D811D1124911DB29F700D55
:104C9000811D1124911D0895F0DFB7FF0895821B37
:104CA000930B0895EADFA59F900DB49F900DA49FEC
:104CB000800D911D11240895B7FFF4CFF3DF821BFF
:104CC000930B08952F923F924F925F926F927F9233
:104CD0008F929F92AF92BF92CF92DF92EF92FF920C
:104CE0000F931F93CF93DF93CDB7DEB7CA1BDB0BB8
:104CF0000FB6F894DEBF0FBECDBF09942A8839885D
:104D000048885F846E847D848C849B84AA84B98463
:104D1000C884DF80EE80FD800C811B81AA81B9816F
:104D2000CE0FD11D0FB6F894DEBF0FBECDBFED0183
:104D30000895002E083090F0982F872F762F652F3A
:104D4000542F432F322F22270850F4CF220F331F26
:104D5000441F551F661F771F881F991F0A95B2F7BA
:104D6000002D089597FD1094002E083098F00850FB
:104D7000232F342F452F562F672F782F892F912DD2
:104D8000F4CF15949795879577956795579547959F
:104D9000379527950A95AAF71124002D08958F922B
:104DA0009F92AF92BF92CF92DF92EF92FF92CF93FA
:104DB000DF93EC01688179818A819B81611571059E
:104DC0008105910521F464E279ED8BE597E02DE111
:104DD00033EF41E050E09BD049015A019B01AC0107
:104DE000A7EAB1E45FDF6B017C01ACEEB4EFA50193
:104DF000940164DFDC01CB018C0D9D1DAE1DBF1D38
:104E0000B7FF03C00197A109B04888839983AA839B
:104E1000BB839F77DF91CF91FF90EF90DF90CF9092
:104E2000BF90AF909F908F900895B9CF80E091E0B0
:104E3000B6CFB0E0A0E08093000190930101A09371
:104E40000201B09303010895FC014150504030F03D
:104E500001900616D1F73197CF0108958827992739
:104E60000895FB01DC0104C08D910190801921F4AB
:104E700041505040C8F7881B990B0895FB01DC0195
:104E800002C001900D9241505040D8F70895F99911
:104E9000FECF92BD81BDF89A992780B50895A6E10D
:104EA000B0E044E050E025C0A8E1B0E042E050E0CE
:104EB00020C0262FF999FECF92BD81BDF89A0197A7
:104EC00000B4021639F01FBA20BD0FB6F894FA9A52
:104ED000F99A0FBE08950396272FECDFEADF252FFE
:104EE000E9DF242FE7CF0196272FE4DFE2CFDC01B3
:104EF000CB01FC01F999FECF06C0F2BDE1BDF89AE5
:104F0000319600B40D9241505040B8F70895052EE7
:104F100097FB16F400940FD057FD05D080DE07FCF8
:104F200002D046F408C050954095309521953F4FEA
:104F30004F4F5F4F089590958095709561957F4F85
:104F40008F4F9F4F0895F894FFCF470647067D0681
:104F50007D06D606F2066F066F06F6065F076B073C
:104F60006B078B12921296129A129E12A212A6121E
:104F7000AA12AE12B212B6129619081A9E19681920
:104F80006C19A2197019A619B2197C19011A801985
:104F9000B6198419BA19E2198819BE19E9198E19B6
:104FA000C419CC197419AA197819AE199219C8190B
:104FB000D819F219FF1962199A190F1A021D081D42
:104FC000F21CFC1C0E1D141D1A1D9924C124A325BE
:0E4FD000C124A325F4241425A32568257425E7
:104FDE00010000006802010102000900090901191F
:104FEE001A1B1C1D1E1F202122280850011E0A14E8
:104FFE0001000001008C1EC01F921FBB1FB61FE2D6
:10500E0000E900EA00B500B600B700CD008301CC80
:10501E00008A019201940121022302240225022614
:10502E000227022A02B300B4006F0070009F01CB6A
:10503E00019F02A002818283E200E900EA00B5002E
:10504E00B600B700CD008301CC008A019201940115
:10505E002102230224022502260227022A02B3007D
:10506E00B4006F0070009F01CB019F02A0028182ED
:10507E0083909192939535F0F1F4F5F6F7676636D5
:10508E0094969734C600010202020206060609092A
:10509E00090909090F0F0F0F0F0F151515181919FB
:1050AE001919191919191919232425252525252505
:0850BE00C018C218CD18D81863
:00000001FF
