:10000000AFC20000E6C20000E4C20000E2C200008D
:10001000E0C20000DEC20000DCC20000DAC2000064
:10002000D8C20000D6C200000C9478230C9460243F
:100030000C942D23CEC20000CCC20000CAC2000026
:10004000C8C20000C6C20000C4C20000C2C2000094
:10005000C0C200000C945423BCC20000BAC200000D
:10006000B8C20000B6C20000B4C20000B2C20000B4
:10007000B0C20000AEC20000ACC20000AAC20000C4
:10008000A8C20000A6C20000A4C20000A2C20000D4
:10009000A0C200009EC200009CC200009AC20000E4
:1000A00098C2000096C2000094C200000D000E002D
:1000B00000000E000F00000005010902A1018502E9
:1000C0000901A10005091901290815002501950854
:1000D000750181020501093009311581257F9502DD
:1000E0007508810609381581257F950175088106F7
:1000F000050C0A38021581257F950175088106C017
:10010000C005010980A10185031A81002A8F00160C
:100110008100268F00950175108100C0050C090132
:10012000A101850419012AA002150126A00295014A
:1001300075108100C005010906A101850605071992
:10014000E029E715002501950875018102050719C9
:100150000029EF1500250195F075018102050819A8
:10016000012905950575019102950175039101C05D
:1001700005010906A101050719E029E71500250178
:10018000950875018102950175088101050719001F
:1001900029FF150026FF009506750881000508193E
:1001A0000129051500250195057501910295017537
:1001B000039101C009023B00020100A0FA090400FA
:1001C000000103010100092111010001224400077F
:1001D0000581030800010904010001030000000972
:1001E000211101000122B80007058203200001123D
:1001F00001000200000008EDFE6060010001020045
:100200000110035600610075006C00740033003566
:100210000000001803700072006F006A0065006340
:100220000074006300610069006E000000040309AF
:10023000042223252628292A2C2D2F303233353627
:10024000383A3B3D3E4042434547494A4C4E505167
:10025000535557595A5C5E6062646668696B6D6F8E
:1002600071737577797B7D7F81838587898A8C8E91
:1002700090929496989A9C9E9FA1A3A5A7A8AAAC99
:10028000AEAFB1B3B4B6B8B9BBBCBEBFC1C2C3C5D3
:10029000C6C7C9CACBCCCDCED0D1D2D2D3D4D5D675
:1002A000D7D7D8D9D9DADADBDBDBDCDCDCDCDCDDA8
:1002B000DDDDDDDCDCDCDCDCDBDBDBDADAD9D9D88C
:1002C000D7D7D6D5D4D3D2D2D1D0CECDCCCBCAC924
:1002D000C7C6C5C3C2C1BFBEBCBBB9B8B6B4B3B153
:1002E000AFAEACAAA8A7A5A3A19F9E9C9A989694EE
:1002F00092908E8C8A89878583817F7D7B797775C3
:1003000073716F6D6B6968666462605E5C5A5957A1
:10031000555351504E4C4A4947454342403E3D3B60
:100320003A3836353332302F2D2C2A2928262523EA
:1003300022FFAA7F554000010101010101010101D5
:100340000202020202020202020303030303030386
:100350000304040404040404050505050506060653
:100360000606070707070708080808090909090A10
:100370000A0A0B0B0B0C0C0C0D0D0D0E0E0E0F0FB5
:100380000F10101111111212131314141515161643
:100390001717181819191A1A1B1B1C1D1D1E1E1FB2
:1003A0002020212222232424252626272829292A01
:1003B0002B2C2D2D2E2F3031323233343536373829
:1003C000393A3B3C3D3E3F40414243444546474825
:1003D000494A4C4D4E4F50515354555658595A5BFB
:1003E0005D5E5F616264656668696B6C6D6F70729B
:1003F000737577787A7B7D7E8082838587888A8C07
:100400008E8F91939596989A9C9EA0A2A3A5A7A93A
:10041000ABADAFB1B3B5B7BABCBEC0C2C4C6C9CB31
:10042000CDCFD1D4D6D8DBDDDFE2E4E7E9EBEEF0E7
:10043000F3F5F8FAFDFF1E0F0500047F3F1F64323D
:1004400014643214783C1E1E140A0514001A0008A5
:1004500000150017001C0018000C00120013002AE1
:100460000004001600070009000A000B000D000E32
:10047000000F00340000001D001B000600190005DD
:100480000011001000360037003800000000002B7B
:100490000421522A2200002C002252007C0000007D
:1004A0000000004B004A0052004D00B600540024EA
:1004B000002500260056004C004E00500051004F11
:1004C00000B7005500210022002300570000000162
:1004D00000010001000100010027001E001F002094
:1004E00000630000000000010001000100000001A5
:1004F000003D143D140000000000003502350031BD
:10050000003102010001002D022E0001001A011726
:10051000011E021F022002210222022302240225C0
:10052000023300330200003A003B003C003D003E35
:10053000003F004000410042004300000000000175
:100540000001000100000001005300010000000054
:100550000000004E004B00010001000100010000FE
:1005600011241FBECFEFDAE0DEBFCDBF04B603FE1D
:1005700019C08091030490910404A0910504B091E6
:1005800006048730904BA740B04B61F410920304EF
:10059000109204041092050410920604E0E0F8E3BF
:1005A000099500C024E0A6EEB1E001C01D92A33081
:1005B000B207E1F711E0A0E0B1E0EAE2FDE402C039
:1005C00005900D92A63EB107D9F70E94561E0C94D5
:1005D000362616CD8093FF039093000408958093F0
:1005E000010490930204089521E030E002C0220F3C
:1005F000331F8A95E2F78091010490910204822BC7
:10060000932BEDCF21E030E002C0220F331F8A95FB
:10061000E2F72095309580910104909102048223A5
:100620009323DDCFCF93C1E061FDC4E060FDCC0F2B
:1006300062FDC29593E0769567959A95E1F7660F0E
:10064000771F660F771F460F571FFA0140E050E0F3
:1006500090E06191DF019C01042E02C03695279540
:100660000A94E2F72695220B26272C2326272E9381
:100670004F5F5F4F4430510561F7CF910895A82F28
:10068000A77023E0969587952A95E1F7880F991F23
:10069000880F991F680F791FFB0140E050E080E050
:1006A000219130E00A2E02C0369527950A94E2F790
:1006B0002170042E01C0220F0A94EAF7822B4F5FAB
:1006C0005F4F4430510561F70895282F862F9430ED
:1006D00068F42B3050F4622F70E02BE0929F600D95
:1006E000711D112444E553E09DCF08959C5F923025
:1006F000E0F7622F70E040E553E0F6CF292F943009
:1007000058F48B3080F490E064E573E03BE0239F85
:10071000800D911D1124B3CF2C5F223020F460E5B1
:1007200073E090E0F8CF80E00895E091FE029091B0
:10073000FD02E91302C080E008959F0159E0E59FA2
:10074000F0011124E150FD4F5181561306C0508134
:10075000581303C05581541305C02F5F3F4FF90153
:10076000E770E7CF81E008958091FE022091FD02BD
:10077000281301C0089501968770FACF90918403E1
:100780008095892380938403282F277061F489172B
:1007900051F09091860392FF06C0869586958695C6
:1007A00031DF109284030895809181039091870333
:1007B000892B909182039115C9F0892B90911E018C
:1007C000913021F49091850397FD11C096E02AEEB7
:1007D00031E040E09150F90150812F5F3F4F5111BE
:1007E0004F5F9111F7CF41111092820308959EE15E
:1007F00022EF31E0EECF8095982F809181038923FD
:10080000809381030895972F7430C8F46B3088F576
:10081000833090F570E02BE0929F600D711D1124E4
:100820009CE2899F600D711D1124FB01EE0FFF1FDB
:10083000E55BFB4F85919591282F822F08957D3F91
:1008400059F4611116C08330B8F494E0899FF00127
:100850001124ED5AFA4FEECF7C3F59F4611109C0D3
:10086000833050F494E0899FF0011124EB5AFA4F41
:10087000E1CF20E090E0E1CF21E0FCCF803E910588
:10088000D1F1C8F48133910509F481C048F489326B
:10089000910509F471C08A32910509F47FC0089569
:1008A00089339105E1F082389105C9F085339105CE
:1008B00009F45DC00895843E9105D1F148F4823E6B
:1008C000910531F1833E910541F181EE90E008956B
:1008D000863E9105C1F1873E9105F1F10895209181
:1008E0008503237009F064C02091860323FF14C0A0
:1008F00089E290E008952091850320FD45C0309164
:10090000860330FF09C024FD24C083EE90E00895E3
:100910002091850322FDF7CF08952091850322FDC4
:1009200044C03091860330FD43C024FFF5CF11C091
:100930002091860321FFF0CF8091850384FD09C0BB
:1009400087EE90E008952091850323FFE5CF24FFF3
:10095000F7CF80E090E008952091850323FD2BC020
:100960003091860331FFE1CF84EE90E0089520912D
:10097000850325FFD1CFBCCF2091850325FD1EC067
:100980002091860323FFC8CF89E390E0089520914A
:10099000850326FFC1CF8AE290E008952091850368
:1009A00026FFBACF81E390E0089582EE90E00895AB
:1009B00080EE90E0089586EE90E0089585E390E063
:1009C00008959091850392FF10C041E0282F247173
:1009D000243009F040E031E0282F2871283009F058
:1009E00030E0431711F02CE0822793FF10C041E064
:1009F000282F2471243109F040E031E0282F28719C
:100A0000283109F030E0431711F02CE082273091B3
:100A1000860330FF10C051E0282F2171213009F0EA
:100A200050E041E0282F2871283009F040E05417A9
:100A300011F029E0822731FF10C041E0282F2171F9
:100A4000213109F040E031E0282F2871283109F0E8
:100A500030E0431711F029E0822794FF02C083FDA4
:100A6000877E08950F931F93CF93DF9307DFEC01E9
:100A7000D23508F04DC0D03508F0C3C0C03ED10516
:100A800030F5CD3CD10508F09AC0C83AD10578F4CC
:100A9000C53AD10508F090C0C130D10599F1CE0119
:100AA0000497813A910570F1C0E0D0E02BC0CE01EF
:100AB000885A91094B97C0F7C85AD0E0CC0FDD1F78
:100AC000C758DE4F0990D881C02DD4641BC0D034E4
:100AD00090F4D03208F0A8C0C83ED10598F0CE01FD
:100AE00091509F3108F78D2F6CDF082F8C2F90E0ED
:100AF000C5DE902B54C08C2F90E0C0DEDF70C82F75
:100B0000D92BD06ACE01DF91CF911F910F9108951B
:100B1000C03882E5D807B8F5C03682E5D80708F0B6
:100B200056C0C03482E5D807C8F4C03282E5D80781
:100B300008F047C08C2F8695869520E2829FC001E1
:100B40001124C37021E030E002C0220F331FCA9588
:100B5000E2F7E901C82BD92BDD68D4CF8C2F86951D
:100B60008695877020E2829FC0011124C37021E026
:100B700030E002C0220F331FCA95E2F7E901C82B0B
:100B8000D92BDC68BFCFC03C82E5D80750F48C2F4E
:100B90008F71C03AD24580F5982F84EF906AEC01AE
:100BA000B1CFCE01805C9245809708F07DCFDC2FDD
:100BB000DF71C0EFD06AA6CFA497D064A3CFD06571
:100BC000A1CF8C2F8F71D82FC1EFD06A9BCF8C2FE4
:100BD00086958695877020E2829FC0011124C3709C
:100BE00021E030E002C0220F331FCA95E2F7E9018D
:100BF000C82BD92BDA6886CFE4DEC0E0D82FD062CC
:100C000081CF8C2F8F71DDDE93E0CC0FDD1F9A95A5
:100C1000E1F7DF70282F84FF04C090E1899F9001E5
:100C20001124C22FD0696ECF8D2F8F71CADE082F8D
:100C30008C2F90E023DE902BEC01E1CFCF92DF925E
:100C4000FF920F931F93CF93DF936C0100910104E8
:100C5000109102048091FF0390910004082B192B3E
:100C6000CFE0D0E081E090E00C2E02C0880F991F09
:100C70000A94E2F780239123892B61F4219790F75E
:100C8000F12C8F2DDF91CF911F910F91FF90DF906D
:100C9000CF900895FC2EB6018C2FB5DDE3DE0197D1
:100CA00069F3EFCF1F93CF93DF93FC01278130854A
:100CB0002115310589F48581C081D181811589F0A3
:100CC000611579F0CE01BADF182F682FCE01FDDC57
:100CD000BE01812F98DD9C01C901DF91CF911F9149
:100CE0000895CE010BDD182FF3CFCF93DF93EC01E6
:100CF000A5DFBE0188DDB6DEDF91CF910895FC014E
:100D000084818115A9F087819085009799F0AADEEA
:100D100092959F709630C9F088F4925F9F709230E0
:100D200038F491E0803F79F058F491E0883E58F033
:100D300090E009C080819181D8DFEACF9A5FEECF41
:100D400091E0843FA9F7892F089591E0813F09F050
:100D500090E021E0883E08F020E0922BF4CF80E084
:100D60000895F894E82FE295EF70F0E041A18F70BC
:100D700021E001C0220F8A95EAF7922F90959423E3
:100D800091A392A1822F892B82A37894089508952C
:100D9000CF92DF92EF92FF921F93CF93DF93462F74
:100DA000172FE82FF0E0EA5CFC4F71110CC0E491C2
:100DB0008E2F7E2F6E2FDF91CF911F91FF90EF909E
:100DC000DF90CF900895F491EF2F86E0689FE001C7
:100DD00011242FEF30E0CE01B9010E94C224DB01C3
:100DE000CA01880F991F65E56A9FA0016B9F500D8E
:100DF0001124841B482F440F480FC901811B9109FE
:100E0000F89F7001F99FF00C11248F2D149FB001F1
:100E10001124672F70E06901C61AD70AB601F69F40
:100E20006001F79FD00C1124A330B10549F1B9013D
:100E3000641B7109AB01149FB001159F700D112443
:100E4000672F70E0261B370BF29FA001F39F500D18
:100E50001124752FCC3FD34050F4A130B105A1F03F
:100E6000129709F0A7CFEF2D852F7F2FA3CFA430A6
:100E7000B10569F0169709F49DCF7F2D8D2D9ACF7E
:100E80007D2DEF2D8F2F96CF7F2FED2D93CFE52F3B
:100E90007F2DF8CFCF93762FC22F682F842F78DF46
:100EA000472F282F8C2F90E003D2CF910895CF9316
:100EB000DF938091790380FD0BC0C0E0D0E020E09B
:100EC00040E060E0CE01F4D12196CC30D105B9F7F5
:100ED00090D5DF91CF910895FF920F931F93CF93F9
:100EE000DF93182F062FF42E8091790380FF0CC01A
:100EF000C0E0D0E02F2D402F612FCE01D9D1219617
:100F0000CC30D105B9F7D3DFCDB7DEB7E5E00C942F
:100F1000F725762F9091790390FF08C0682F842FD2
:100F200037DF962F672F482F892FD6CF0895CF937D
:100F3000DF93EC01E9E7F3E0438162818C81E9DF33
:100F40008C818F5F8C83DF91CF910895CF93DF9356
:100F5000EC01EC81F0E0EF5CFD4F4491E9E7F3E058
:100F600062818181D6DF8C818F5F8C83DF91CF910D
:100F70000895FF920F931F93CF93DF93EC01F12C11
:100F800000E010E08C81980140917C0360917B032C
:100F90008F0D80DF0F5F1F4F85E1F80E0C301105BC
:100FA00089F785DF8C819A8190FF07C08F5F8C83E2
:100FB000CDB7DEB7E5E00C94F7258150F8CFEF927E
:100FC000FF920F931F93CF93DF93FC018281EE2456
:100FD000E39480FF02C0EE24EA94C0E0D0E020E079
:100FE00040E060E0CE0164D104E010E0F12C80919B
:100FF0008F028F0D8D308CF16CE00E94B524892F0B
:10100000082E001C00088C170D0679F440917C0313
:101010000403A001112455954795559547959E01C8
:1010200060917B0380917A0335DFFE0C0150104004
:10103000F1F62196CC30D10591F639DF80918F02FF
:101040009E2D913071F4811591F0815080938F0223
:10105000CDB7DEB7E6E00C94F62587FFD1CF845FED
:10106000CFCF90E00196BE010E94D624EFCF8BE057
:10107000EDCFCF93DF93C0E0D0E020E040E060E030
:10108000CE0116D12196CC30D105B9F7C0E0D0E021
:1010900080918E02082E001C0008C817D0055CF154
:1010A00080910601082E001C00088C170D061CF10B
:1010B0009E0140917C0360917B0380917A03EADE7C
:1010C0002196CC30D10521F7F2DE80910501909177
:1010D0008E02980F90938E0220910601280F209384
:1010E0000601121614F49B301CF0819580930501C3
:1010F000DF91CF91089520E040E060E0CE01D8D0AC
:10110000DFCFA0E0B0E0E7E8F8E00C94D625EC01F2
:10111000FC812F2F30E0D9010E9405269B01AC01F4
:101120000E94BE257B018C0180E290E08F1B91091B
:10113000FC01A5E59701A8010E94BE255B016C0199
:101140009F01DF010E94A3249B010E94EF249B01C9
:10115000AC012E0D3F1D401F511FB501C6010E945D
:101160001426022F30E00A3280F5A901440F551FE2
:10117000420F531F55954795142F1095E12CF12CD4
:1011800085E5801BD82E8D2DE1FC802F9701412F06
:1011900060917B037FDE8FEFE81AF80A8CE0E81697
:1011A000F10489F784DE9C8181E0911519F0903279
:1011B00019F48FEF8093040180910401890F8C83CF
:1011C000CDB7DEB7EAE00C94F22585E590E0821B0E
:1011D000930BAC01440F551F480F591F5AF64F5F30
:1011E0005F4FC8CFCF93DF93EC0120917C039C81AC
:1011F000892F817090FD822F692F627091FD622F7F
:10120000492F447092FD422F67DE8C8101968770D2
:101210008C83DF91CF9108950F931F93CF93DF932A
:10122000EC0120E030E060917B0380917A039C81A7
:1012300089010F5F1F4F263031053CF4911541F0B5
:1012400040917C0327DE9801EECF40917C03911101
:1012500040E020DE98010C30110529F728DE8C8152
:10126000019681708C83DF91CF911F910F9108952A
:101270004AB187E9861B8F7021E001C0220F8A9551
:10128000EAF7922F909594239AB99BB1822F892BDC
:101290008BB9089589B190E027E9261B2F7002C011
:1012A000959587952A95E2F781700895559A089546
:1012B000FC01EE0FFF1FE80FF91FE25DFD4F618398
:1012C000408322830895109290031092910380919D
:1012D0002501811104C010922401109226018091F1
:1012E0002C01811104C010922B0110922D01089540
:1012F000AC018091930360919203982F691301C010
:101300000895292F30E0F901EE0FFF1FE857FC4F39
:101310000190F081E02DE417F507B9F4E0E0F0E08A
:101320004230510540F467E0649FF001659FF00D85
:101330001124E05EFE4F41E044839813E1CF2F5F1C
:101340003F4F23702093930308952395922F93701A
:10135000D5CF382F25EB3203C001112497FF04C0ED
:1013600080589109892F089580589F4FFBCF809115
:101370006E0380FD14C081FD14C082FD16C08091F3
:101380006D03811581F08E3180F420E5829FC001CC
:1013900011246EE170E00E94D624862F089584E126
:1013A000089588E2089588E0089580E50895809181
:1013B0006E0380FD17C081FD17C082FD19C08091AA
:1013C0006C03811599F0883298F428E0829FC0015F
:1013D000112468E270E00E94D6246115710551F075
:1013E000862F089562E0FCCF64E0FACF61E0F8CF89
:1013F00068E0F6CF81E00895E091F302F091F40205
:10140000309739F00190F081E02D309711F0099577
:10141000089580E00895A3E0B0E0E1E1FAE00C94E3
:10142000DE252091290230912A0228173907B1F0D0
:101430008093290290932A02E091F302F091F40242
:10144000309761F00084F185E02D309739F023E08A
:1014500029838A839B83CE01019609952396E2E036
:101460000C94FA25A3E0B0E0E8E3FAE00C94DE2562
:10147000209127023091280228173907B1F0809374
:10148000270290932802E091F302F091F402309742
:1014900061F00084F185E02D309739F024E0298354
:1014A0008A839B83CE01019609952396E2E00C94F2
:1014B000FA2590911E01913099F0AAEEB1E0EFEF7C
:1014C00090E02C91821759F01196EF3F19F42111F9
:1014D00001C0E92F9F5F9630A1F7EF3FC1F4089557
:1014E0009091850397FFE9CFE82FE695E695E6957D
:1014F000803FA8F7F0E0E051FE4F877021E001C087
:10150000220F8A95EAF78281822B82830895FE2F2B
:10151000FF0FFF0BE851FE4FF8CF90911E01913065
:1015200021F49091850397FD0CC0EAEEF1E09191D2
:10153000891302C0DF011E9291E0E03FF907B9F77D
:101540000895E82FE695E695E695803FC8F7F0E028
:10155000E051FE4F9DEF81FD97EF80FF959582FD55
:101560009295828189238283089580911D01089537
:101570002FB7F8948091230290912402A091250224
:10158000B09126022FBF0895F3DF9C019091710363
:1015900080917203982B21F02093BB023093BC0200
:1015A0009091730380917403982B21F02093B902DA
:1015B0003093BA02E091F302F091F402309759F0BF
:1015C0000680F781E02D309731F082E080936F0341
:1015D0008FE693E009950895611509F440C0E82F5E
:1015E000ED5CE33148F4F0E0E85CF94D0C94E9245B
:1015F000BEDE819580937203C7CFB9DEFBCFB7DE25
:10160000819580937103F8CFB2DEFBCFD0DE80935B
:101610007303F2CFCCDE8195FACFC9DE819580933A
:101620007403EACFC4DEFBCF815D990B21E001C0DA
:10163000220F8A95EAF780917003822B80937003C2
:10164000DBCF80916E03816080936E03D5CF809154
:101650006E038260F9CF80916E038460F5CF409174
:1016600071038D3C59F48091720387FF0DC0109275
:101670007203411559F410926D0308C08E3C81F439
:101680008091720318169CF3411581F080917303C9
:1016900090917403892B09F0AFCF10926C03ACCFFB
:1016A0008F3C41F447FFF0CF109271038091720399
:1016B0008115E0CF803D19F41416B4F3E5CF909175
:1016C0007303893D29F41916FCF610927303DCCFDD
:1016D0008A3D19F497FFD8CFF8CF909174038B3DD2
:1016E00029F497FFD1CF10927403CECF8C3D19F41B
:1016F0001916CCF3C9CF982F915D983078F4815D9D
:10170000990B21E001C0220F8A95EAF7822F80957C
:1017100090917003892380937003B6CF8D3D31F48F
:1017200080916E038E7F80936E03AECF8E3D21F449
:1017300080916E038D7FF7CF8F3D09F0A5CF80910B
:101740006E038B7FF0CF2FB7F894609123027091D6
:10175000240280912502909126022FBF0895FC015A
:101760002091190230911A022617370748F06115A7
:10177000710529F49091E8009E779093E8009B0111
:1017800090E02115310541F4911106C08091E800E7
:1017900082FF32C080E00895809195028115C1F1E9
:1017A0008530C1F18091E80083FD30C08091E80070
:1017B00082FDECCF8091E80080FFE3CF8091F300C1
:1017C0004091F200582F2115310519F0483051058C
:1017D00058F091E04830510509F090E04091E80060
:1017E0004E774093E800CDCF81918093F100215056
:1017F00031094F5F5F4FE7CF80919502811541F02E
:10180000853041F08091E80083FFC0CF81E00895EA
:1018100082E0089583E00895982F9093E900891756
:1018200071F07091EC002091ED005091F00021FDDD
:1018300009C09F5F973089F78093E9000895762F5C
:10184000242F50E03091EB003E7F3093EB0030913D
:10185000ED003D7F3093ED003091EB00316030932F
:10186000EB007093EC002093ED005093F00020917A
:10187000EE0027FDDECF08958091130287FF13C08D
:101880008091E80082FF06C08091E8008B7780930A
:10189000E8000895809195028111F2CF089580911A
:1018A00095028115D9F38091E80080FFF8CF8091EF
:1018B000E8008E77ECCF2091E4003091E50095E6CA
:1018C000A9012091EC00822F817020FF06C0809139
:1018D000E80080FF06C080E008952091E80022FD26
:1018E0001AC080919502811589F0853089F0809128
:1018F000EB0085FD0FC02091E4003091E500421718
:101900005307F9F29150E1F684E0089582E00895DA
:1019100083E0089581E00895CF93DF93C8EDD0E090
:1019200088818F7E8883E7EDF0E08081816080830D
:1019300084E082BF81E08093120288818E7F888359
:10194000E2EE10821092DA00A1EEB0E01C928881E3
:101950008F77888388818068888388818F7D88835A
:1019600019BC1092950210921102109294021092DA
:101970001002A0EE8C918B7F8C938881816088838C
:1019800042E060E080E048DFA1EEB0E08C918E7F25
:101990008C93E2EEF0E080818160808380818860BA
:1019A0008083E0EE80818E7F808388818061888360
:1019B000DF91CF910895E8EDF0E080818E7F808304
:1019C0001092E2001092DA001092E100A0EEB0E076
:1019D0008C9181608C9380818F77808319BCA7ED77
:1019E0008C918E7F8C9380818F7E808310921202E7
:1019F00008953BB13F7D2BB120624FB7F8948EE242
:101A000092E0FC010196508168E02BB9000000C013
:101A100057FF3BB9550F000000C000C000C03BB9E4
:101A200000C06A9591F752E08235950751F74FBF94
:101A30008FE594E00197F1F700C00000089581E080
:101A40008093E00080E28093D8001092C9008FE17B
:101A50009EE40197F1F700C00000A7E0B0EBCD01D4
:101A60008093030490930404A0930504B0930604A8
:101A700088E19CE00FB6F894A895809360000FBEB3
:101A800090936000FFCF0F931F93CF93DF93EB01F1
:101A90008A0190919502943059F58093E9008FEF77
:101AA0009091E80095FD06C095ED9A95F1F700003C
:101AB0008150B1F78091E80085FF1AC0FCDE8111EA
:101AC00012C08091E80085FD06C08091E8008E7705
:101AD0008093E800F3CF88818093F100015010409B
:101AE00011F02196EECF8091E8008E778093E80088
:101AF000DF91CF911F910F910895CF93DF93EC0168
:101B000048E050E0BC0181E0BEDF88E0FE01ABE1CF
:101B1000B2E001900D928A95E1F7DF91CF9108959F
:101B200040E250E0BC0182E0AECF46E050E0BC01B4
:101B300082E0A9CF43E050E0BC0182E0A4CF9091C5
:101B4000860392FB222720F9281779F080FB92F96F
:101B500090938603609185037091860384E090E002
:101B60000E948E2582E00C94BE03089580911E0190
:101B7000813069F58091850387FF29C00E94D403D5
:101B80008093F10140E250E063ED72E080EF91E07C
:101B90000E945525892BD1F080E2E0EFF1E0A3ED22
:101BA000B2E001900D928A95E1F7E091F302F09195
:101BB000F402309759F00480F581E02D309731F030
:101BC00086E08093F00180EF91E0099508950E94EE
:101BD000D4038093E80148E050E065EF72E088EEBE
:101BE00091E00E945525892B89F388E0E8EEF1E029
:101BF000A5EFB2E001900D928A95E1F7E091F30232
:101C0000F091F402309711F30280F381E02D3097C8
:101C1000E9F288EE91E0D9CFCF93C82F8115A1F0DA
:101C20008238A1F4E9DB81FD0FC089E342DC9EDF4D
:101C30008FEF97EE23E0815090402040E1F700C005
:101C4000000089E36ADC92DFCF910895833889F43C
:101C5000D3DB80FDF9CF83E52CDC88DF8FEF91EEBD
:101C600024E0815090402040E1F700C0000083E56F
:101C7000E9CF843889F4C0DB82FDE6CF87E419DC44
:101C800075DF8FEF91EE24E0815090402040E1F726
:101C900000C0000087E4D6CF8450813A68F5809177
:101CA0001E01813021F48091850387FD0EC0EAEE8C
:101CB000F1E080EF91E02081C217D1F031968E17CC
:101CC0009F07C9F78C2FF5DBBECFEC2FE695E69585
:101CD000E695F0E0E051FE4F828190E04C2F477096
:101CE00021E001C0220F4A95EAF78223892B51F3A4
:101CF0008C2F13DC3BDFE6CF8C2F805E883060F4C6
:101D0000C77081E001C0880FCA95EAF7C0918103CE
:101D1000C82BC093810397CF8C2F855A833028F42A
:101D20008C2F8452990B77DB8FCFEC2FE85AEB3155
:101D300048F4F0E0EE0FFF1FE155FE4F80819181E6
:101D400091DB82CF8C2F8D5C833108F07DCF61E0F9
:101D50008C2F42DC79CF811509F446C0823849F4D2
:101D60004BDB81FF41C089E3A4DB00DF89E3D5DBE6
:101D7000FDCE833841F440DB80FF36C083E599DB3C
:101D8000F5DE83E5F4CF843841F436DB82FF2CC0E6
:101D900087E48FDBEBDE87E4EACF982F9450913A0B
:101DA00030F3982F905E983058F4982F81E091FD91
:101DB00084E090FD880F92FD82950E94FB03D8CFAE
:101DC000982F955A933018F480E090E024CB982F08
:101DD000985A9B3118F480E090E044CB982F9D5C9A
:101DE000933110F460E0F8CB0895811531F09091B3
:101DF0008103982B90938103B9CE0895811519F032
:101E00000E94FB03B3CE08951092810380911E01BE
:101E1000813001F58091850387FF1CC0E2EFF1E07E
:101E20008EE111928A95E9F780E090E0F4DA80E0A3
:101E300090E018DB1092870399DEEFE6F3E086E08E
:101E400011928A95E9F710926D0310926C0310922B
:101E50006E039ACBEAEEF1E086E0E3CFD5DF88E1CE
:101E60009CE00FB6F894A895809360000FBE909305
:101E70006000FFCFAAE2B0E0E0E4FFE00C94DD25D3
:101E800083E192E0FC0101962091F100208322E0A1
:101E90008B319207B9F780911402893009F457C049
:101EA000C8F4823009F4B2C0833009F482C08130B2
:101EB00081F18091E80083FFE6C080911302909148
:101EC00014029A3008F0DFC0E92FF0E0E55BF94D2D
:101ED0000C94E9248A3009F489C08B3051F7809141
:101EE0001302813231F78091170290911802892BE9
:101EF00001F78091E800877F8093E800BDDC81E0F6
:101F000090911502911101C080E080931E017CDF49
:101F1000D0CF80911302813A61F68091E800877FEB
:101F20008093E8008091170290911802892B59F054
:101F300060E080E090E070E012DC8091E8008B7758
:101F40008093E800B6CF68E08BE192E0F4CF809117
:101F50001302813209F0ADCF8091170290911802DF
:101F6000029708F0A6CF8091E800877F8093E80071
:101F70008091E80082FF18C02091F3008091F20068
:101F8000922F029731F48091F100813011F0863068
:101F900021F48091F10080931D018091E8008B77FE
:101FA0008093E80069DC85CF809195028111E0CFB4
:101FB00080CF80911302813A09F07BCF8091170284
:101FC00090911802892B09F074CF8091E800877FE7
:101FD0008093E8008091E80080FFFCCF80911E0193
:101FE0008093F1008091E8008E77DACF8091130220
:101FF000813209F05ECF8091E800877F8093E8000E
:102000003BDC8091160280931C0153CF8091130218
:10201000813A09F04ECF8091E800877F8093E800F5
:102020008091E80080FFFCCF80911C01D9CF8038DF
:1020300089F0823841F5809117028F70873018F54A
:102040008093E9008091EB0085FB882780F910924E
:10205000E90006C080919402880F90911002892BAC
:102060009091E800977F9093E8008093F1001092A0
:10207000F1008091E8008E7723C0811116C0809115
:102080001502813009F18091E80083FF0AC0809138
:10209000E800877F8093E8008091EB008062809366
:1020A000EB00AA96E3E00C94F925823061F7809169
:1020B0001502811579F01092E9008091E800877F80
:1020C0008093E800D9DBDFCF933009F080E0809384
:1020D0009402F1CF809117028F70282F2150263063
:1020E00090F68093E9002091EB0020FFE4CF93303D
:1020F00031F48091EB0080628093EB00DCCF909113
:10210000EB0090619093EB0021E001C0220F8A95D3
:10211000EAF72093EA001092EA008091EB008860D1
:10212000EBCF8111B0CF809115028F77182F80915E
:10213000E3008078812B8093E3008091E800877F23
:102140008093E80099DB8091E80080FFFCCF8091CC
:10215000E30080688093E30083E0111101C082E016
:102160008093950290CF8058823008F08CCF2091D8
:102170001502309116022C3D83E0380789F583E083
:102180008A838AE289834FB7F894DE01139620E0B0
:102190003EE051E2E32FF0E050935700849120FF9E
:1021A00003C082958F703F5F8F708A30B8F0895C72
:1021B0008D931D922F5F243169F74FBF8091E80006
:1021C000877F8093E8006AE270E0CE010196C7DA6B
:1021D0008091E8008B778093E80055CF805DE8CF51
:1021E000832F90E08330910519F160F481309105DF
:1021F00009F46CC08230910509F045CF8BE3E4EB24
:10220000F1E029C020911702309118028132910526
:1022100009F453C08232910509F035CF21303105E0
:1022200008F45CC009F02FCF88EBE8EBF0E013C0B6
:10223000822F90E0213099F182309105B9F1009719
:1022400009F021CFEDE2F2E0E4918E2FEDE2F2E031
:10225000009709F418CF2091E800277F2093E80029
:102260002091190230911A028217930708F49C01F9
:1022700040E021153105B1F5411134C08091E800ED
:1022800082FDA6CF80919502811509F4A1CF8530FA
:1022900009F49ECF8091E80083FFF0CF99CFE3E16E
:1022A000F2E0E4918E2FE3E1F2E0D2CFE1E0F2E060
:1022B000E4918E2FE1E0F2E0CBCF2130310550F0F8
:1022C00009F0E1CE89E0EFEDF1E0C5CF82E1EFEE7C
:1022D000F1E0C1CF89E0E6ECF1E0BDCF84E4E0E7D6
:1022E000F1E0B9CF80919502811509F471CF853065
:1022F00009F46ECF8091E80083FD6ACF8091E800F9
:1023000082FDBCCF8091E80080FFB3CF4091F30005
:102310008091F200942F2115310519F08830910534
:1023200050F041E0089709F040E08091E8008E7796
:102330008093E8009ECF44914093F1003196215064
:1023400031090196E8CF803809F09DCE8091E800F0
:10235000877F8093E800809111028093F10089CEFD
:10236000811191CE80911502182F823008F08BCE0A
:102370008091E800877F8093E800109311027CDA57
:10238000111599F084E08093950242E061EC81E0C0
:1023900043DA42E261EC82E03FDA809195028430D8
:1023A00051F482E080931F016ECE8091E30087FD9F
:1023B000E9CF81E0E8CF81E0F5CF8F929F92AF9295
:1023C000BF92CF92DF92EF92FF920F9388E090E05E
:1023D0000E946A254B015C016093790390927A0315
:1023E00080937B03B0927C0310927D0310927E0356
:1023F00010927F031092800383E290E00E94622596
:102400009401A5018092790330937A03A0927B0313
:1024100050937C0380937D0310927E0310927F0380
:10242000109280030F91FF90EF90DF90CF90BF90BC
:10243000AF909F908F9008950F93CF93DF93C9E74C
:10244000D3E0488159816A817B8188E090E00E94D5
:1024500086256C81262F60E070E0CB01622F83E23D
:102460000E947425DF91CF910F91089585E08093AC
:10247000790310927A038FEF80937B0380937C0320
:1024800010927D0389E793E0D7CF80917D0383305D
:1024900018F48F5F80937D0389E793E0CDCF80911F
:1024A0007D03811519F0815080937D0389E793E0C6
:1024B000C3CFA0E0B0E0EFE5F2E10C94D625D82F31
:1024C000B62E042FA22E9091790390FF23C0192FCE
:1024D00016951695E12FF0E0E15DFE4F8081809327
:1024E00077039C7F9430D9F46D2F7B2D842F0E942D
:1024F000C806962F672F482F892F0E946C07D0930C
:102500007A03B0927B0300937C03A11419F089E74E
:1025100093E092DFCDB7DEB7EAE00C94F22582308B
:1025200019F400917C03EBCF863019F4D0917A0333
:10253000E6CF8930D9F3893111F71951E12FE695AA
:10254000F0E0EF5CFC4FC4916D017601C6016CE0D8
:1025500070E00E94C224862F8D0F10FF02C08D2FC5
:10256000861B9701402F6B2D0E944A078FEFE81AB8
:10257000F80ACC0ED11C8CE0E816F10439F70E9461
:102580005707BDCFE9E7F3E0818121E04381628114
:10259000885F8FCFE9E7F3E0818121E043816281A9
:1025A000885087CFE9E7F3E0628128E0620F08F402
:1025B0006FEF21E0438181817CCFE9E7F3E0628125
:1025C00028E0621B08F460E021E04381818171CF43
:1025D000E9E7F3E0438128E0420F08F44FEF21E000
:1025E0006281818166CFE9E7F3E0438128E0421B05
:1025F00008F440E021E0628181815BCFA8E0B0E097
:10260000E4E0F3E10C94D625FE013196DF0188E089
:102610001D928A95E9F79AE6E92E91E0F92E8F014D
:10262000BE2EA12EF70181917F018F3F09F444C096
:10263000F894E82FE295EF70F0E021A18F7041E06F
:1026400001C0440F8A95EAF7922F942B91A392A18F
:10265000842F8095892382A3789400C0EEE6F1E070
:1026600021E030E0C12CD12C41914F3F79F0A42FD3
:10267000A295AF70A05EB0E08C9190E04F7002C068
:10268000959587954A95E2F780FF3EC080E090E0FF
:10269000C82AD92A220F331F81E0E937F80721F72A
:1026A000F70182918F3F11F00E94B10680EA8A956E
:1026B000F1F7F801C082D1820E5F1F4F8EE6E81657
:1026C00081E0F80609F0AECF48E050E06B2D7A2D9E
:1026D00089EC92E00E945525892BC1F088E0EB2D12
:1026E000FA2DA9ECB2E001900D928A95E1F781E014
:1026F0008093C0020E94B80A8093BE029093BF02EA
:102700002896EAE00C94F225C901C2CF8091C0025C
:102710008115B1F30091BE021091BF020E94B80A68
:10272000801B910B059760F348E050E069EC72E084
:1027300081EC92E00E945525892B49F088E0E9EC74
:10274000F2E0A1ECB2E001900D928A95E1F71092CF
:10275000C002D6CFA0E0B0E0E0EBF3E10C94D425CA
:10276000FC018281A82EB48081E08483E1E3F2E061
:102770000491E0EBF2E0E491E0907C03E6948FE7D3
:10278000E80EF12CEE0CFF1CEF2CF12CC2E5D2E090
:102790006D011FEFE01B8E2F90E04C018A2D8330DE
:1027A00030F480917A03888380917B038983B11010
:1027B00017C01B821A8296014A81698188810E9412
:1027C0004A078FEFC81AD80A25968CE0C816D1049C
:1027D00029F70E945707CDB7DEB7ECE00C94F0253F
:1027E0008B818115E1F081508B83189FC0011124EA
:1027F0006C8170E00E94C22470E0FB01EF5CFD4F31
:102800008491801B189FC0011124B4010E94C2242E
:1028100080917C03689FB00111247A83CCCF0E9401
:102820003C256FEF70E00E94D6248E159F051CF6A4
:102830008A2D833090F00E943C256FEF70E00E945B
:10284000D62488830E943C2520917B032695622F05
:1028500070E00E94D624280F29831A8280917C037D
:10286000893C20F088EC8C838B83A5CF8431D8F70A
:1028700084E1F9CF609179036695669570E04BE04D
:1028800050E087E091E00E944825892B19F481E00F
:10289000809378030E94B80A8093A7029093A802BD
:1028A00008959091790390FF2CC0811559F18B32D6
:1028B00058F58F73880F880F909179039370892B47
:1028C00080937903611519F089E793E0B5DD609194
:1028D00079036695669570E04BE050E087E091E003
:1028E0000E944825892B91F01092780381E0809313
:1028F000AA0220E040917C0360917B0380917A03DF
:10290000D8CD089581E0D6CF8AE2D4CFB3DFEECF21
:1029100080917903869586958F5F8B3208F081E0F0
:1029200061E0BFCF8091790386958695815009F447
:102930008AE261E0B6CFFF920F931F93CF93DF93AC
:10294000C62FD42FF22E8115A9F0609375030E9433
:10295000B80A80932B0290932C0281E0C1FD84E0A1
:10296000C0FD880FC2FD829540DACDB7DEB7E5E045
:102970000C94F72580917503681330C000912B02E9
:1029800010912C020E94B80A801B910B883C910583
:1029900028F51D2F105ECD1791F0C77001E0802F34
:1029A00001C0880FCA95EAF729DA183040F48D2F54
:1029B000877001C0000F8A95EAF7802F16DA8F2DF5
:1029C0002BD98F2DC8D981E0D1FD84E0D0FD880FAF
:1029D000D2FD8295183048F611DAC7CF81E0C1FDEB
:1029E00084E0C0FD880FC2FD8295F6CFA0E0B0E084
:1029F000ECEFF4E10C94D8257C01FC018481811575
:102A000021F161E0C7010E945206EC01F7018581C6
:102A1000FE01E851FC47E730F10598F5EB5AF94D16
:102A20000C94E92426E241EE61EE85DF8091840377
:102A3000877059F0F7018581811539F080918603FF
:102A400082FF03C082E00E94BE03CDB7DEB7E8E09C
:102A50000C94F42527E245EE65EEE7CF26E241EE41
:102A600060EEE3CF27E245EE64EEDFCF26E241EEF3
:102A700062EEDBCF27E245EE66EED7CF28E241E0FB
:102A8000EBCF811509F4C1C3109275039E01305735
:102A90002332310508F0C7C384E090E00E946F251F
:102AA0008093850390938603FE01E150F047E23264
:102AB000F10520F4E45AF94D0C94E9248091850342
:102AC000816080938503609185037091860384E023
:102AD00090E00E948E2598D9A9CF809186038860C6
:102AE00080938603F0CF809185038260EACF809146
:102AF00085038460E6CF809185038860E2CF809172
:102B000086038160EDCF809186038260E9CF80915A
:102B100085038061D6CF809185038062D2CF80917A
:102B200085038064CECF70D9809185038068C9CF3A
:102B3000809185038C60C5CF809186038360D0CF60
:102B4000809185038E7FBDCF80918603877FC8CF1C
:102B5000809185038D7FB5CF809185038B7FB1CF29
:102B600080918503877FADCF809186038E7FB8CF1C
:102B7000809186038D7FB4CF809185038F7EA1CF16
:102B8000809185038F7D9DCF809185038F7B99CF29
:102B90003BD9809185038F7794CF80918503837F84
:102BA00090CF809186038C7F9BCF90918503892F56
:102BB0008B7F92FF8460877F92FF886082CF8091B5
:102BC0008603982F909590FB80F990FB81F988CF30
:102BD00090918503892F8F7B96FF806472CF14D9E3
:102BE00090918503892F97FB87F980586ACF61E020
:102BF0008EE090E00E94742566CF60E0F9CF90915E
:102C00008503892F8F7E94FF80615BCF9091850330
:102C1000892F8E7F90FF816054CF90918603892FFA
:102C2000877F93FF88605CCF89E2FAC29272FE01CF
:102C3000E052F847EB30F10508F043C0E258F94D97
:102C40000C94E9248091790380FF0BC08E7F8093E0
:102C5000790389E793E0F0DB109278030E9457072D
:102C6000E5CE81608093790361E08695869519DED3
:102C7000DDCE911521F056DED9CE9115E1F348DE77
:102C8000D5CE911521F086DCD1CE9115E1F37ADC19
:102C9000CDCE911521F091DCC9CE9115E1F382DC06
:102CA000C5CE911521F09FDCC1CE9115E1F390DCEA
:102CB000BDCE911521F0F3DBB9CE9115E1F3E5DB43
:102CC000B5CE9E01205E324520323105A0F481113F
:102CD00024C0CF7181E090E002C0880F991FCA958F
:102CE000E2F7EC01682F83E090E00E947425CE01AA
:102CF0000E94EA029BCE811571F1CB359CE7D90782
:102D000009F1CC359CE7D90791F0CA359CE7D90782
:102D1000B9F0C1309CE7D907E9F0C3309CE7D90787
:102D200099F0C115DC47B9F46FD80E941F0D80914E
:102D30008603002482FF0394802D0E949F0D76CE8F
:102D400081E0FBCF80E0F9CF6FEF7FEF80E090E094
:102D50000E948E2583D8F701278130852115310502
:102D6000D9F1C9010E943205D82FC92FF701058179
:102D7000C680C2948FE0C82280918403877001F1DD
:102D8000D02E0115F1F0892F807F803461F08D2FD6
:102D9000805E8830A8F0892F807E803221F4D23086
:102DA00078F0C11469F08091860382FF09C082E047
:102DB0000E94BE03809184038770DD24D394811127
:102DC000D12CEC2FE295EF70C03C08F07BC0F0E016
:102DD000E757F94D0C94E92400811181811569F0C0
:102DE000C8010E941E06C82F682FC8010E946503F3
:102DF000B8018C2F0E940304B5CFC8010E947E0346
:102E0000C82FF6CF1C2F1F70C03110F01295107F05
:102E10000115B9F0111569F08D2F805E883010F022
:102E2000D11109C080918103812B809381030E947D
:102E3000B60D8D2F3FC080918703812B8093870330
:102E4000F6CF8D2F0E94AB0E1115E1F18D2F805E14
:102E5000883010F0D11104C0812F0E94FB0306C0FE
:102E60001095809187038123809387030E94B60D7C
:102E700029C01C2F1F70C07FC03211F01295107F27
:102E8000D13040F009F465C0011509F470C0C114D7
:102E9000A9F1CFCF8091860382FD2CC0011569F086
:102EA000111539F080918103812B809381030E9459
:102EB000B60D80E00E940C0E05C080E00E94AB0EB3
:102EC0001111CACFD11409F4BBC08091840380FDD5
:102ED000B7C0F70115828695869586950E94F40203
:102EE000C70184DD809184038695869586950E942E
:102EF0000203A6C0011599F0C11004C0812F0E94E1
:102F0000F50EE0CF8C2D8130E9F680918203912F70
:102F100098231917B9F2812B80938203D3CFC11064
:102F2000D1CF812F0E94FE0E90918203812F8923A1
:102F300029F0812F809589238093820380918303D8
:102F4000912F982309F4BECF109518231093830373
:102F5000B9CF8C2D011521F0863008F0B3CFCECF3C
:102F6000853008F0AFCF812F0E94FE0EABCFC11489
:102F7000D1F3D93349F48FEF97EE23E0815090409D
:102F80002040E1F700C000008D2F0E94AB0E9ACFC9
:102F90008C2F869586958370813060F009F092CFF2
:102FA0008D2F9C2F9370011102C080E090E00E9451
:102FB000320A88CF8D2F9C2F9370011102C080E0C0
:102FC00090E00E940B0A7ECF602F8D2F0E94EC0AAA
:102FD00079CF8C2F837009F046C001112FC04D2F7F
:102FE000429546954770440F440F2D2F2F7030E0C7
:102FF000042E02C0220F331F0A94E2F780E090E013
:10300000D4FF09C08FE090E002C0880F991F4A9555
:10301000E2F780959095C695C695C370C230D1F001
:10302000C330A9F04091FF0350910004C13069F012
:10303000822B932B842395230E94EA020E94FC0991
:1030400060E0C7010E94520600CD242B352B822B55
:10305000932BF2CF822B932B2091FF03309100040E
:1030600082279327E9CF011591F1C0FFE7CF4D2FBC
:10307000429546954770440F440F2D2F2F7030E036
:10308000042E02C0220F331F0A94E2F780E090E082
:10309000D4FF09C08FE090E002C0880F991F4A95C5
:1030A000E2F780959095C695C695C370C230C1F081
:1030B000C33099F04091010450910204C13059F09D
:1030C000822B932B842395230E94EF02B7CF82306B
:1030D00008F4B4CFCCCF242B352B822B932BF4CFF9
:1030E000822B932B20910104309102048227932795
:1030F000EBCFCF70011539F08C2F0E94F4028D2F89
:103100000E94F50E9BCF8D2F0E94FE0E8C2F0E94E9
:10311000020394CFD23FA1F170F4D03FC9F0D13F68
:1031200091F0011509F45DC0C11409F457C08D2F49
:103130000E940C0E83CFD33F51F1D43F91F7909171
:10314000860392FD32C08C2F8F71011501F31CC0D4
:103150008C2D011599F0853008F070CFCF7181E08A
:1031600090E002C0880F991FCA95E2F7EC018091A8
:103170000104909102048C279D27A6CF8630ECCFC6
:103180008C2F8F710111C3CF0E94F40257CF80E0C2
:1031900090E0011509F498CFCF7181E090E002C072
:1031A000880F991FCA95E2F78FCF011561F08C2F18
:1031B0008F7192FFE9CF982F990F990F990F936014
:1031C00090938403E1CF81E00E94BE038C2D823076
:1031D00008F434CF82E00E94BE0330CF8C2F8F7171
:1031E000D3CFC11479F0D93349F48FEF97EE23E0B0
:1031F000815090402040E1F700C000008D2F0E94D8
:10320000AB0E1CCF8C2F8F7182CFC6319CE7D907B4
:1032100009F057CD80917603811509F405CD85E33A
:103220000E948D0A14C090918103C6312CE7D20709
:1032300009F0FCCC9A7A81E0911101C080E0809382
:10324000760385E3911101C089E20E94590A0E9428
:10325000B60DECCB80914D03803170F480914C031E
:10326000811551F0E091FE022091FD02309148035A
:10327000409147032E1301C00895BF0189E0E89FE4
:10328000F0011124DF01A150BD4F14968C911497C9
:10329000811551F111968C911197831325C08C9152
:1032A000841322C015968C91159781111DC012961A
:1032B0008D919D91A0914903B0914A038A1B9B0B6C
:1032C000883C910588F480914D038F7080618093D4
:1032D0004D03EB5FFC4F80818F708061808387E4BA
:1032E00093E084DB0C94B4036F5F7F4FFB01E770C6
:1032F000C1CFAFE0B0E0EFE7F9E10C94D3258C014A
:1033000086E0F801DE011A9601900D928A95E1F7A8
:10331000F801F580C48087E4882E83E0982E7090B1
:103320004B0371101FC0C114D1F0F11409F431C165
:10333000C8010E947F06811509F42BC189E0F801BC
:10334000D40101900D928A95E1F78C2D813031F4F2
:1033500080914703909148030E9475067BDFFF240C
:10336000F3945CC0E080A280B380D0904C03809145
:10337000490390914A039501281B390BD11409F494
:10338000E2C0283C310508F0B0C0C11441F390916F
:103390004803C18080914D03803108F05FC0C9129D
:1033A0001CC0909147039E1118C040914E0350914C
:1033B0004F03278130854217530779F4F11048C035
:1033C0008F70806180934D0387E493E00FDB8091E1
:1033D0004D03F8018683F12C21C0F11039C040E083
:1033E0006C2D8E2D0E94950340E06C2D8E2D0E9439
:1033F0009503F82E8111EFCF8A859B850E94750673
:10340000292F22952F70903470F49F70223098F0FD
:103410009115A9F0F8019681903188F48F2D2F969F
:10342000EDE00C94EF252A5F2F70223060F0C80188
:10343000DDDAFD2CF3CF911511F0811579F3805E63
:10344000883060F3F4CF803F48F3815F8330F9CF59
:1034500080914D03816080934D03BDCFC9121BC085
:10346000909147039E1117C040914E0350914F0316
:10347000278130854217530771F4F1100CC0868301
:10348000C801B4DA89E0F801A7E4B3E001900D9235
:103490008A95E1F764CFC8010E947F06811509F47F
:1034A00078C0F11409F475C080914D038032A0F00A
:1034B000209147033091480329833A83AB82BC8231
:1034C0007D821E828F8380914E0390914F03888767
:1034D0009987CE0101968ADA89E0F801A7E4B3E082
:1034E00001900D928A95E1F739CF80914D0380319B
:1034F00048F487E493E07ADAF40189E011928A953E
:10350000E9F769CFC11409F42ACF209148039181CA
:103510002913C1CF909147039E11BDCF40914E0317
:1035200050914F03278130854217530709F0B3CFDD
:10353000F110B1CF8683C80159DAF40189E0119204
:103540008A95E9F70CCF283C3105B0F6C11409F48F
:1035500006CFF114F1F090914803818198130FC0C8
:10356000809147038E110BC020914E0330914F0381
:10357000878190852817390711F489E085CFC80124
:103580000E947F068111A8CF80914D0381608093B6
:103590004D03C8012BDAE3CEA2E1B0E0E2EDFAE19F
:1035A0000C94DC250A871B872C873D874E875F8715
:1035B000688B798B8A8BCE010A969BDE81112EC097
:1035C0002091FD023091FE0289E0AE01465F5F4F1F
:1035D000FA0149505109DA0101900D928A95E1F7FB
:1035E0008E858115D9F0822F90E08395877090E0C9
:1035F000AC0134171506E1F099E0929FD001112437
:10360000A150BD4F9E012F5F3F4FF90101900D92D8
:103610009A95E1F74093FD020E94B4038091FE0267
:103620009091FD02891311C06296E4E00C94F82594
:103630000E94040F1092FD021092FE02E7E4F3E0F4
:1036400089E011928A95E9F7E9CF29E0829FC001CC
:10365000112481509D4F4DDE811531F38091FE0282
:103660009091FF02019687708093FE02D7CFA9E068
:10367000B0E0EDE3FBE10C94DA257C01FC018281F2
:103680009381892B91F0FE01319687E011928A9502
:10369000E9F70E94B80A9C01F701728183810981D0
:1036A0001A8144E05E816F8177DFF70115822996E8
:1036B000E6E00C94F625EF92FF920F931F93CF93C1
:1036C000DF938091FC03E0912D02CDE0811130C0A9
:1036D000CDB7DEB7E6E00C94F625DE2FDF5FD093A2
:1036E0002D02EE2EF12CCE9FF0011124EC56FC4F52
:1036F00084818115E1F087819085892B21F4818572
:103700009285019651F40081118122813381448197
:1037100055816681778180853FDFCE9DF001CF9D09
:10372000F00D1124EC56FC4F148210928703ED2FFC
:103730008091FC03E81788F21092FC0310922D028E
:10374000C7CF4F925F927F928F929F92AF92BF921C
:10375000CF92DF92EF92FF920F931F93CF93DF935D
:10376000C091930391E0E92EF12C809192038C1388
:1037700013C0A1DF0E946309DF91CF911F910F91C8
:10378000FF90EF90DF90CF90BF90AF909F908F9081
:103790007F905F904F900895D0E0FE01EE0FFF1FE5
:1037A000E857FC4F00811181A0E0B0E00230110524
:1037B00040F487E0809FD001819FB00D1124A05E6E
:1037C000BE4F14968C911497811159C07090FC03D0
:1037D00044E953E020E030E0A12C271508F04CC06C
:1037E000FA0143845484CD90DD90129799249A94E1
:1037F000892CB12C8B2D90E0F601EB0DF11DEB0D1A
:10380000F11D659175914616570609F0C401672BA5
:1038100019F0B3944C01EECF8F3F9807A9F1B7018F
:1038200001C0660F8A95EAF7A62AC7010B2C02C0D1
:10383000880F991F0A94E2F70197A816190611F547
:1038400012968D919D914DE0429FF001439FF00DA6
:103850001124EC56FC4F8783908784E08483108288
:1038600011820187128781E011968C9315978B2D19
:10387000813011F4CD01FBDEC8010E947809C395A7
:10388000C37073CFFA0114822F5F3F4F435F5F4FC6
:10389000A4CF1092FD031092FE0310922E0180918E
:1038A0009203809393030E94630905CFAEE1B0E0D9
:1038B000ECE5FCE10C94CE254B8B5C8B6D8B7E8B09
:1038C0008F8B792E988F911110928703188A198AFD
:1038D0001A8A86E0FE017396DE011A9601900D9217
:1038E0008A95E1F76F886114E1F06E867F8661E06A
:1038F000CE010A960E94520661E0CE010A960E940D
:10390000520661E0CE010A960E9452066C0180E5E3
:10391000C8168CE7D80689F4711421F181E08093F0
:103920002E016E867F860A851B852C853D85A30129
:10393000688979898A8930DEC3C081E5C8168CE739
:10394000D80621F4711471F0A4DFEBCF82E5C8161C
:103950008CE7D80639F4711429F080912E01811179
:10396000F3CFDCCF00E211E0412CA12CB12C4501BA
:103970008394F801208131816FEF80E09FEFE82E82
:10398000F12CF901E80FF11DE80FF11D459155915A
:10399000C416D50611F0E62EF92E452B21F08F5FC7
:1039A0006E2D9F2DECCF9FEFE916FE0409F448C160
:1039B000F801448150902E014111512CF8013580BD
:1039C0009681711409F403C1511409F400C1311036
:1039D00014C021E00E2C01C0220F0A94EAF7922BAA
:1039E000968320919003309191032233310528F47E
:1039F00022E32093900310929103940102C0220FBE
:103A0000331F8A95E2F7C9010197F801268128172B
:103A1000190609F0C3C0E090FD03F090FE03E11425
:103A2000F10409F451C00E94B80A8E199F09C39786
:103A300008F44AC081E0F8018483482AC501019650
:103A4000095F1F4F21E0A22EB12C029709F091CF00
:103A5000711409F4F7C0411409F4F4C00E94B80AC3
:103A60008093FD039093FE038091FC03883040F522
:103A7000982F9F5F9093FC0399E0FE013A969E0178
:103A80002F5F3F4FD90101900D929A95E1F76D821A
:103A90007E822DE0829FC00111248C569C4F29E02C
:103AA000AE014F5F5F4FFA01DC0101900D922A9544
:103AB000E1F72FEF3FEFFC0121873287C386D486E1
:103AC0006E96E2E10C94EA25909193038091920323
:103AD000292FA0E0B0E037E061E0981709F44DC06D
:103AE000492F50E0998F1A8EFA01EE0FFF1FE85709
:103AF000FC4F40815181A0E0B0E04230510538F4E4
:103B0000349FD001359FB00D1124A05EBE4F4D9162
:103B10005D9112974D8F5E8FE12C70E0F12CED8D51
:103B2000FE8DEF0DF11DEF0DF11D25903590211447
:103B30003104D9F0F801408151814B8F5C8F70E0E6
:103B400007C0E1E02416350609F0E0E0EE2A7F5FC9
:103B5000EB8DFC8DE70FF11DE70FF11D45915591A0
:103B60004115510571F7F394DACFE11469F17F152E
:103B7000B8F4F80191E09483D80120939303A0173F
:103B8000B10761F090E0FC01EE0FFF1FE857FC4F1A
:103B9000A082B1820196837080939203852D4DCFD0
:103BA000109761F014966C931497A017B10721F346
:103BB000291304C0A9014395242F2370498D5A8DE0
:103BC0004395942F937089CFA0E0B0E0F7CF292FD1
:103BD00030E031101FC0B40102C0660F771F8A9514
:103BE000E2F7CB0101972817390771F0512CC40176
:103BF00002C0880F991FEA94E2F77C01E094F80173
:103C000086818E218683CACF411589F3C5010E9422
:103C10007809ECCFA9010E2C02C0559547950A945E
:103C2000E2F7C901019782239323892B31F440FFE6
:103C300004C0C8011CDD532CDACF4170542ED7CFFD
:103C400080E0FBCE9091930380919203981731F01E
:103C500078DD842D813009F433CF63CE2CDD1092D2
:103C6000FD031092FE030E946309F3CFA6E0B0E0CB
:103C7000EBE3FEE1A1C70E94B80A8C018091D1025A
:103C80009091D2028017910771F019821A820E94D6
:103C9000B80ABC0149815A8180E090E007DE0093B8
:103CA000D1021093D2022696E4E0A2C7CDB7DEB7C8
:103CB00068970FB6F894DEBF0FBECDBF85B780689A
:103CC00085BF85B7806885BF84B7877F84BF0FB6FF
:103CD000F894A895809160008861809360001092AC
:103CE00060000FBE80E890E00FB6F894809361000A
:103CF000909361000FBE81E080931F018FEA96E0F0
:103D00008093E6019093E7010E94DB0C0E948C0CEB
:103D10008091E20084608093E20078948091950223
:103D2000811599F08091E9001091EC008F7010FBE3
:103D3000112717F9182B1092E9008091E80083FDF4
:103D40000E943A0F1F701093E90082E084BD93E057
:103D500095BD9AEF97BD80936E00E0EBF2E088E0AE
:103D600011928A95E9F781E08093AF0260E080E0EC
:103D70000E94380961E080E00E9438098FE891E0F4
:103D80000197F1F700C0000010E08091AF02181712
:103D900008F478C03AE6E32E31E0F32E0EE611E0A7
:103DA000F70181917F018F3F11F00E94B1060E153E
:103DB0001F05B1F70EE611E0F80181918F018F3FE9
:103DC00011F00E94B10681E009371807A9F7E1EC6C
:103DD000F2E088E011928A95E9F7E9ECF2E088E0F8
:103DE00011928A95E9F780E090E079D6833E9E4F64
:103DF00029F163EE7EEF80E090E090D660E082E013
:103E000090E072D681E090E08093FF03109200046E
:103E100061E083E069D660E074E184E090E07ED602
:103E20000E94361260E070E0AB018FE090E06ED649
:103E300060E070E0AB0183E190E068D682E090E062
:103E400041D680939E0284E090E049D6809385031A
:103E5000909386030E94FE128FEF96E721E0815037
:103E600090402040E1F700C000000E94FE128091C7
:103E7000C10280FF19C06FEF7FEF80E090E04ED667
:103E80000E941F0D60E0812F0E944A09082F61E007
:103E9000812F0E944A09E12FF0E0E255FD4F880F83
:103EA000802B80831F5F71CF83E090E00BD690E082
:103EB0000E94EA0280919002811128C089E793E074
:103EC0000E94DD1180917903843008F0B4C00E9413
:103ED000361289E793E00E94DD11809179038430E6
:103EE00008F0A9C0837084608093790310927803EE
:103EF0000E9456098091790380FF05C060E0869595
:103F000086950E94511481E08093900282E191E0B5
:103F10008093F3029093F40244244394CE010196DB
:103F20008D8B9E8B8091950200E110E422E1F22EB0
:103F3000853009F4F3C00E94FE129FE9292E92E019
:103F4000392E81EC92E08B8B9C8BFC01D1012D9161
:103F50003D918081918142E0A73AB40709F4FAC00B
:103F600032962817390799F306E912E0512CEB89AC
:103F7000FC89C190D190EB8BFC8BF10181919191E7
:103F80001F018C159D0509F44CC08C259D258F8B38
:103F9000988FE12CF12C5701A3948F89988D8A2159
:103FA0009B21892B89F146018A209B20B1E06B2E51
:103FB000712C0E2C02C0660C771C0A94E2F7F801F3
:103FC0008081918186219721892B99F4E9825A82F7
:103FD0000E94B80A8B839C834D8291E081149104E6
:103FE00009F490E09E8349815A816B817C818D81A7
:103FF0005DDC892849F460947094F8018081918196
:104000008621972180839183AA0CBB1C8FEFE81A2D
:10401000F80A8BE0E816F10409F0BFCFF101D29263
:10402000C29253940E5F1F4F852D843009F09FCFAD
:104030000E94A30B94C0809179038C3A08F456CF68
:104040008370886A51CF80919502843009F436C01C
:10405000109278038091930281110DC040929302D7
:1040600080917903982F9170909392028E7F809324
:1040700079030E9457071092910288E190E00FB6F1
:10408000F894A895809360000FBE1093600083B7EA
:10409000817F846083BF83B7816083BF7894889574
:1040A00083B78E7F83BF0FB6F894A8958091600088
:1040B000886180936000109260000FBE0E94FE1223
:1040C000E1ECF2E0A6E9B2E080E0219131912D939C
:1040D0003D9391E0232B09F490E0892B29EC32E009
:1040E0002E173F0791F78115C9F080919402811531
:1040F000A9F009BDF9BC09B400FEFDCF8091D8003C
:104100008F7D8093D8008091E00082608093E000F2
:104110008091E00081FDFCCF0E94040F8091950208
:10412000853009F490CF0E94040F0E94FC09109280
:10413000930280919202811551F080917903816000
:104140008093790360E0869586950E9451140E94C1
:104150003A14F1CE2817390709F006CF87DD809190
:104160002E01811511F10091FD031091FE0301153F
:104170001105D9F00E94B80A801B910B2091900381
:10418000309191032817390780F49091930380911F
:104190009203981709F462C0D4DA10929003109237
:1041A00091031092FD031092FE0380917803811514
:1041B00009F444C080917703E0917903E695E69590
:1041C000E81BE093A902853109F4A8C008F059C0A2
:1041D000893009F497C008F045C0823009F47CC0EA
:1041E000863009F484C000ED17E0F7ECEF2EF6E01E
:1041F000FF2E8091AA02811561F01092AA020E94FE
:10420000B80A8093A7029093A8021092AB02109272
:10421000AC020E94B80A2091A7023091A802821B2A
:10422000930B8F3F9F4750F4200F311F2093A7021D
:104230003093A80287EA92E0F70109958091B802CD
:10424000811551F08091B2021092B8028093B302AE
:104250008091B0028093B10200E0BDC02CDA0E94D0
:1042600063099FCF8F3009F0BECFE695F0E0E25CA6
:10427000FB4FE4910E2F10E05FEDE52E57E0F52E99
:10428000B8CF04EF11E09CE0E92E99E0F92E8432DA
:1042900009F4AFCF78F4883109F44BC0833209F0C8
:1042A000A2CFE9E3F4E00591159132EFE32E38E077
:1042B000F32E9FCF853209F096CF8E2F63E049D33E
:1042C000E92FF0E0EA5CFB4FE4910E2F10E02AEAC0
:1042D000E22E23E1F22E8DCFF0E0E95BFB4FE4917B
:1042E0000E2F10E0E6EAEE2EE7E0FE2E82CFF0E0A1
:1042F000EC5BFB4FE4910E2F10E077E9E72E77E0BF
:10430000F72E77CFE695F0E0EF5BFB4FE4910E2FB1
:1043100010E069EBE62E67E0F62E6BCFF0E0E55C8F
:10432000FB4FE4910E2F10E049E3E42E48E0F42E19
:1043300060CF08E210E081E8E82E88E0F82E59CF3F
:10434000F090B3021091B20261E0802F0E944A09FE
:10435000E82E60E0802F0E944A09EE0C8E29202F63
:1043600030E0D901A255BD4FEC919E2F9370891773
:1043700089F1EE0FEE0FE82BEC93EF70F0E0E65AC8
:10438000FE4F23553D4F8081F9019081890F823086
:104390000CF449C0412F50E0BA016395637070E09E
:1043A000F616170679F040555D4F902F9F77FA016A
:1043B00094831F5F13701093B2029091B0029F5FBD
:1043C0009093B002982F990F990B62E070E0EED2B3
:1043D000F90180830F5F8091AF02081708F4B0CF16
:1043E00090E01DEF8091B3022091B202281709F4EA
:1043F0004EC0E82FF0E0EC54FD4FE080FE2CE89436
:10440000F7F88F5F83708093B3028091B1028F5F62
:104410008093B102E7FC17C0FF828CEF88870E946F
:10442000B80A03E015C08F3F6CF6412F50E0BA0187
:104430006395637070E0F616170621F240555D4FE4
:10444000902F9068B4CFFF8218870E94B80A02E0CC
:10445000BC0189879A870B874C864F815885802FAE
:1044600091E024DAFD86E7FE0FC01E870E94B80A9D
:10447000BC018F87988B098B1A8A4D855E85802FAA
:1044800090E014DA91E0AECF8CEF8E87EFCF9111F0
:104490000E94A30B86E0EFE6F3E0AD89BE890190B0
:1044A0000D928A95E1F7B090700300917103D0905E
:1044B0007203C090730310917403109271031092F1
:1044C00072031092730310927403802F8D2909F4E4
:1044D00041C0E090BB02F090BC020E94B80A8E1965
:1044E0009F099C0190916D03911509F4B1C025318C
:1044F000310580F19F3F19F09F5F90936D03011587
:1045000059F00E94B70991E010160CF09FEF899FB7
:10451000802D112480937103D11459F00E94B709A2
:1045200091E01D140CF09FEF899F802D1124809342
:10453000720380917103811569F0F0907203F11498
:1045400049F00E94A909809371038F2D0E94A90947
:1045500080937203812F8C2909F441C0E090B90245
:10456000F090BA020E94B80A8E199F099C0190919E
:104570006C03911509F467C02135310580F19F3F27
:1045800019F09F5F90936C03C11459F00E94D709F2
:1045900091E01C140CF09FEF899F802D11248093D3
:1045A0007303111559F00E94D70991E011160CF010
:1045B0009FEF899F802D1124809374038091730352
:1045C000811569F0F0907403F11449F00E94A90973
:1045D000809373038F2D0E94A909809374038091A7
:1045E00070038B1119C080917103811511F00813AC
:1045F00013C020917203211511F02D110DC090915F
:104600007403911511F0191307C030917303311120
:1046100003C0822B892B11F00E94C40A86E0ED8929
:10462000FE89AFE6B3E001900D928A95E1F70E9412
:10463000FC099091BD02891709F474CC8093BD02E6
:104640000E94A30B6FCC2B30310508F09ACFC7CF57
:104650002B30310508F050CF7DCF1F921FB61F922F
:1046600011248F939F93AF93BF93809191028111F7
:1046700013C08091230290912402A0912502B09151
:1046800026024196A11DB11D80932302909324021E
:10469000A0932502B0932602BF91AF919F918F9175
:1046A0001F901FBE1F90189578941F921FB61F92DF
:1046B00011248F939F93AF93BF9380912302909186
:1046C0002402A0912502B09126020196A11DB11DE0
:1046D0008093230290932402A0932502B093260294
:1046E000BF91AF919F918F911F901FBE1F90189502
:1046F0001F920F920FB60F9211242F933F934F9357
:104700005F936F937F938F939F93AF93BF93EF9339
:10471000FF938091E10082FF09C08091E20082FF57
:1047200005C08091E1008B7F8093E1008091DA00E9
:1047300080FF24C08091D80080FF20C08091DA00E3
:104740008E7F8093DA008091D90080FFA9C080E13C
:1047500089BD82E189BD09B400FEFDCF81E080936F
:10476000950280911202811109C00E94DB0C0E9407
:104770008C0C8091E20084608093E2008091E100E3
:1047800080FF1AC08091E20080FF16C08091E20095
:104790008E7F8093E2008091E20080618093E2004E
:1047A0008091D80080628093D80019BC85E0809306
:1047B000950283E080931F018091E10084FF2FC068
:1047C0008091E20084FF2BC080E189BD82E189BD38
:1047D00009B400FEFDCF8091D8008F7D8093D80072
:1047E0008091E1008F7E8093E1008091E2008F7ED6
:1047F0008093E2008091E20081608093E2008091EA
:104800001102811509F452C084E0809395028091D1
:104810009502843009F052C082E080931F0180919C
:10482000E10083FF2CC08091E20083FF28C08091CB
:10483000E100877F8093E10082E0809395021092EF
:1048400011028091E1008E7F8093E1008091E2006F
:104850008E7F8093E2008091E20080618093E2008D
:1048600042E060E080E00E940C0C8091F0008860E3
:104870008093F00081E080931F0180931E01FF91DF
:10488000EF91BF91AF919F918F917F916F915F91C8
:104890004F913F912F910F900FBE0F901F90189541
:1048A00019BC109295021092120268CF8091E30019
:1048B00087FF02C083E0A9CF81E0A7CF81E0ADCF21
:1048C0001F920F920FB60F9211241F932F933F93B5
:1048D0004F935F936F937F938F939F93AF93BF9308
:1048E000CF93DF93EF93FF93E9EEF0E08081109197
:1048F000EC008F7010FB112717F9182B1082C0EFF6
:10490000D0E08881877F888378940E943A0FE9EE0F
:10491000F0E010828881886088831F701083FF9187
:10492000EF91DF91CF91BF91AF919F918F917F9147
:104930006F915F914F913F912F911F910F900FBEFB
:104940000F901F90189561D1332312F48A1B9B0B93
:1049500047C0992778E0880F991F961708F0961B93
:10496000881F7A95C9F78095089587FB082E06263B
:1049700087FD819567FD6195ECDF0EF4919507FC4D
:1049800081950895AA1BBB1B51E107C0AA1FBB1F3D
:10499000A617B70710F0A61BB70B881F991F5A95CB
:1049A000A9F780959095BC01CD01089597FB072E3E
:1049B00016F4009406D077FD08D0E4DF07FC05D09C
:1049C0003EF4909581959F4F0895709561957F4F26
:1049D0000895EE0FFF1F0590F491E02D099415D175
:1049E000B7FF0895821B930B0895AAE0B0E0EAEFA9
:1049F000F4E2E4C089879A87FC0160817181828139
:104A0000938100977040604021F464E279ED8BE57A
:104A100097E02DE133EF41E050E094D029833A83D1
:104A20004B835C839B01AC01A7EAB1E4A7D06D8303
:104A30007E838F839887ACEEB4EF29813A814B81D6
:104A40005C81A8D02D813E814F815885260F371F6C
:104A5000481F591FC901DA01B7FF03C00197A10917
:104A6000B048E985FA8580839183A283B3839F77D9
:104A70002A96E2E0BFC0B9CF80E091E0B6CF809344
:104A80000001909301011092020110920301089518
:104A9000FC014150504030F001900616D1F731979B
:104AA000CF010895882799270895FB01DC0104C0F0
:104AB0008D910190801921F441505040C8F7881B16
:104AC000990B0895F999FECF92BD81BDF89A992767
:104AD00080B50895A6E1B0E044E050E025C0A8E12B
:104AE000B0E042E050E020C0262FF999FECF92BD01
:104AF00081BDF89A019700B4021639F01FBA20BDA3
:104B00000FB6F894FA9AF99A0FBE08950396272FD4
:104B1000ECDFEADF252FE9DF242FE7CF0196272FEF
:104B2000E4DFE2CFDC01CB01FC01F999FECF06C046
:104B3000F2BDE1BDF89A319600B40D92415050405B
:104B4000B8F70895052E97FB16F400940FD057FD83
:104B500005D06AD007FC02D046F408C050954095B5
:104B6000309521953F4F4F4F5F4F08959095809519
:104B7000709561957F4F8F4F9F4F089546D0A59FA9
:104B8000900DB49F900DA49F800D911D1124089548
:104B9000B7FFF4CFF3DF821B930B08952F923F9260
:104BA0004F925F926F927F928F929F92AF92BF923D
:104BB000CF92DF92EF92FF920F931F93CF93DF93E9
:104BC000CDB7DEB7CA1BDB0B0FB6F894DEBF0FBE46
:104BD000CDBF09942A88398848885F846E847D8493
:104BE0008C849B84AA84B984C884DF80EE80FD8095
:104BF0000C811B81AA81B981CE0FD11D0FB6F8940B
:104C0000DEBF0FBECDBFED010895A29FB001B39FDF
:104C1000C001A39F700D811D1124911DB29F700DC5
:104C2000811D1124911D0895A1E21A2EAA1BBB1B00
:104C3000FD010DC0AA1FBB1FEE1FFF1FA217B30768
:104C4000E407F50720F0A21BB30BE40BF50B661F7E
:104C5000771F881F991F1A9469F760957095809542
:104C600090959B01AC01BD01CF010895F894FFCF51
:104C7000F80AFD0AFF0A040B140B140B140B140B97
:104C8000140B140B140B140B060B0A0B0D0B120B4D
:104C9000210B270B2B0B17103D1043103D10431019
:104CA0009110B3104310A311B0112E153215121527
:104CB0002A1536153A153E15A0150616A8157315B2
:104CC0007715AC157B15B015BC158715FF158B1521
:104CD000C0158F15C415E8159315C815EF1598154F
:104CE000CD15D5157F15B4158315B8159C15D1159F
:104CF000DF15F715FD156D15A4150D1622163916BD
:104D00003D164116451649164D165116551659169B
:104D10005D160217021739173917C817E4176217FB
:0A4D20006217E91779188A188A183B
:104D2A000100000001010201191A1B1C1D1E1F208F
:104D3A002122B50A7D0D900D950D9A0D00000100F6
:104D4A00B2003802000000AC002D00000000010093
:104D5A0001020202020606060909090909090F0FDA
:104D6A000F0F0F0F151515181919191919191919DE
:104D7A001919232425252525252500FF01000100D1
:104D8A0000FFFF0000010001FF00349430673193F7
:104D9A00F0F1F4F5F6F7663635E200E900EA00B517
:104DAA0000B600B700CD008301CC008A01920194BD
:104DBA00012102230224022502260227022A02B323
:104DCA0000B4006F0070009F01CB019F02A002E2B5
:104DDA0000E900EA00B500B600B700CD008301CCB7
:104DEA00008A01920194012102230224022502264B
:104DFA000227022A02B300B4006F0070009F01CBA1
:064E0A00019F02A002005E
:00000001FF
