:100000000C9440020C9478020C9478020C947802C0
:100010000C9478020C9478020C9478020C94780278
:100020000C9478020C9478020C9427200C94FB20FA
:100030000C944A1B0C9478020C9478020C9478026D
:100040000C9478020C9478020C9478020C94780248
:100050000C9478020C94C21B0C9478020C947802D5
:100060000C9478020C9478020C9478020C94780228
:100070000C9478020C9478020C9478020C94780218
:100080000C9478020C9478020C9478020C94780208
:100090000C9478020C9478020C9478020C947802F8
:1000A0000C9478020C9478020C947802167C1E0052
:1000B0001F0020002100220023002400250026002C
:1000C00027002D002E002A004A002B0014001A00E1
:1000D0000800150017001C0018000C001200130087
:1000E0002F00300031004B003921040016000700BA
:1000F00009000A000B000D000E000F003300340051
:10010000000028004E00E1001D001B000600190041
:100110000500215211001000360037003800E500BC
:1001200052004C00E0000000E300E20000002C0060
:100130000000E6000000E400000000005000510054
:100140004F00167C3A003B003C003D003E003F0063
:10015000400041004200430044004500007C4A004A
:100160000100010001000100010001000100010087
:1001700001000100460047004800007C4B00392187
:100180000100010001000100010001000100010067
:100190000100010001000000037C4E00E1000100AD
:1001A0000100010001000100010001000100010047
:1001B00001000100A900A8000100010000000100E9
:1001C000010000000100000001000000010000002B
:1001D0000000AC00AA00AB0001000100010001001A
:1001E0000100010001000100010001000100010007
:1001F00001000100010001000100010001000100F7
:1002000001000100010001000100010001000100E6
:1002100001000100010001000100010001000100D6
:1002200001000100010001000100010000000100C7
:1002300001000100010001000100010001000100B6
:1002400001000100010001000100010001000100A6
:100250000100000001000100000001000000010099
:100260000000010000000000010001000100010089
:100270000100010001000100010001000100010076
:100280000100010001000100010001000100010066
:100290000100010001000100010001000100010056
:1002A0000100010001000100010001000100010046
:1002B0000100010001000100010001000100010036
:1002C0000100000001000100010001000100010027
:1002D0000100010001000100010001000100010016
:1002E0000100010001000100000001000100000008
:1002F00001000000010000000100000000000100FA
:10030000010001001C034D0061006A006100200033
:1003100053006F006C0064006500720065006400AB
:10032000000010034B0042004400460061006E00D4
:10033000730000000403090409023B00020100A04D
:10034000FA09040000010301010009211101000163
:10035000224400070581030800010904010001038C
:1003600000000009211101000122B60007058203E7
:100370002000011201000200000008424B696001E8
:10038000000102000105010902A10185020901A184
:100390000005091901290815002501950875018135
:1003A000020501093009311581257F950275088103
:1003B0000609381581257F950175088106050C0A07
:1003C00038021581257F950175088106C0C0050199
:1003D0000980A101850319012AB700150126B7007C
:1003E000950175108100C0050C0901A10185041952
:1003F000012AA002150126A002950175108100C0F6
:1004000005010906A1018506050719E029E7150080
:1004100025019508750181020507190029EF1500CE
:10042000250195F075018102050819012905950539
:1004300075019102950175039101C005010906A19D
:1004400001050719E029E7150025019508750181C7
:10045000029501750881010507190029FF1500267D
:10046000FF0095067508810005081901290515008A
:100470002501950575019102950175039101C00053
:1004800011241FBECFEFDAE0DEBFCDBF04B603FEFE
:1004900018C08091CA029091CB02A091CC02B09179
:1004A000CD028730904BA740B04B59F41092CA024E
:1004B0001092CB021092CC021092CD02E0E0F8E351
:1004C000099511E0A0E0B1E0E8EDF7E402C0059085
:1004D0000D92A03AB107D9F722E0A0EAB1E001C03D
:1004E0001D92AA3CB207E1F70E94BB120C94AB2309
:1004F0000C9400008430B8F46530A8F44F3098F4C0
:1005000050E09FE0699F400D511D1124FA019BE4CA
:10051000899FE00DF11D1124EE0FFF1FE455FF4FE1
:1005200085919491089581E090E008950E947A0267
:10053000089581E008950E94990208950E94990209
:10054000089581E008950E94990208950E949902F9
:1005500008950E94A6020895089508950E94AC028D
:10056000089508950895A6E0B0E0E9EBF2E00C9458
:100570002B2349835A839E833091A70189819A81D5
:1005800031111AC03E81332399F0222389F00E9451
:100590001309182F682F89819A810E94EF086981B9
:1005A0007A81812F0E94E20F2696E3E00C94472384
:1005B0000E940109182FF3CF0E94130969817A81E3
:1005C000F1CFFC01262F40815181628173818481AA
:1005D00095810E94B3020895CF93DF93EC0161E00F
:1005E0000E94E102BE010E949B02882359F061E053
:1005F000CE010E94E102BE010E949E028170DF9145
:10060000CF91089580E0FACF0F931F93CF93DF939C
:10061000EC0160E00E94E1028C01BE010E94AD028B
:10062000BE01C8010E94AE02DF91CF911F910F91D0
:10063000089521E030E0A90102C0440F551F8A95BA
:10064000E2F7CA010E940C080895CF93C82F81E0F9
:1006500090E00C2E02C0880F991F0A94E2F70E94C6
:10066000A80D8C2F0E941903CF91089581E0089561
:100670000E94360308950E9436030895CF93C82F31
:100680000E94BA078C2F0E9438038C2F0E943B03D4
:100690002FEF84E39CE0215080409040E1F700C0C0
:1006A0000000CF91089581E00E943E030E94E61B66
:1006B000089580E00E943E030E940A1C08950F9353
:1006C0001F93CF93DF938C0161E00E94E102EC0164
:1006D000B8010E94A302811106C080E0DF91CF9192
:1006E0001F910F910895B801CE010E94A90288239D
:1006F000A1F3B801CE010E94B813882371F3B801A9
:10070000CE010E94A318882341F3B801CE010E94B4
:10071000E314882311F3B801CE010E94B914882391
:10072000E1F2B801CE010E94E6108823B1F2F8018F
:100730008581882361F0C330FCE7DF07E9F058F4D6
:10074000C115ECE7DE07A9F0C130DC47B9F0C801FC
:100750000E94A102C3CFCB358CE7D807A9F0CC35D6
:10076000ECE7DE0771F0CA35DC4789F70E94580DC7
:10077000EECF0E945303B1CF0E949C0D0E945903FB
:10078000ACCF0E944E0DE3CF0E945C0DE0CF0E94E3
:10079000B1020E941C1B80E00E9497130E94F70385
:1007A00008950E94DD120E94FB030E94B2020E9483
:1007B000211B089581E0089581FD02C05C9A08958F
:1007C0005C980895CF93DF93D82F0E94DA03C82F47
:1007D000882319F08D2F0E94DC038C2FDF91CF919D
:1007E0000895549A5C9A08950E94E203089580E067
:1007F0000E94F40308950E94F4180E94F4030895DF
:10080000CF930E94F418C82F8091A2018C1779F021
:10081000C093A2010E94B61B6093A3017093A40130
:100820008093A5019093A6018C2F0E94F403CF9191
:100830000895ADE0B0E0EFE1F4E00C942C2348879C
:1008400059876A877B878C879D8791110E94600CEE
:100850001F8286E0FE013896DE01119601900D920E
:100860008A95E1F78D8181110DC029813A814B81F3
:100870005C816D817E818F810E94AA0B2D96E2E0C2
:100880000C944823CE0101960E94EC028111EDCF19
:10089000F5CFFC012481213021F4808191810E94D7
:1008A00045090895662329F00E9440160E941317F7
:1008B00008950E949A16FACFCF93C82F8823C9F0C3
:1008C0008238C9F40E94031981FD13C089E30E9494
:1008D000331A0E94F40C2FEF87EE93E021508040F2
:1008E0009040E1F700C0000089E30E944D1A0E9489
:1008F000F40CCF9108958338A1F40E94031980FD70
:10090000F8CF83E50E94331A0E94F40C2FEF81EE9A
:1009100094E0215080409040E1F700C0000083E562
:10092000E4CF8438A1F40E94031982FDE2CF87E46A
:100930000E94331A0E94F40C2FEF81EE94E02150B4
:1009400080409040E1F700C0000087E4CECF8CEFFC
:100950008C0F813A70F48C2F0E94A719882329F0FC
:100960008C2F0E944D1A0E94F40C8C2F0E94331A77
:10097000BECF80E28C0F883048F4C77081E001C0A0
:10098000880FCA95EAF70E94430CB1CFEBE5EC0F54
:10099000E33040F4F0E0E05BFE4F808190E00E94A5
:1009A0003719A7CFE8E5EC0FEB3150F4F0E0EE0F8C
:1009B000FF1FE65EFE4F808191810E945E1999CFF4
:1009C00083E38C0F833108F094CF61E08C2F0E9479
:1009D00052048FCF882309F456C0823879F40E94DC
:1009E000031981FF50C089E30E94331A0E94F40C5E
:1009F00089E30E944D1A0E94F40C0895833859F43B
:100A00000E94031980FF3FC083E50E94331A0E94B1
:100A1000F40C83E5EECF843859F40E94031982FF69
:100A200032C087E40E94331A0E94F40C87E4E1CFBD
:100A30009CEF980F913AE8F290E2980F983050F4BA
:100A4000877091E001C0990F8A95EAF7892F0E947B
:100A5000490CD1CF9BE5980F933028F490E080E0CB
:100A60000E943719089598E5980F9B3128F490E07B
:100A700080E00E945E19089593E3980F933118F473
:100A800060E00E94520408951F93CF93DF93182FC4
:100A9000EB010E945C04209739F4812F0E94EA0444
:100AA000DF91CF911F9108958FE99FE00197F1F7B2
:100AB00000C000002197EFCF70E060E0893311F4AF
:100AC00060E570E00E9444050895882321F00E94AB
:100AD000430C0E94F40C0895882321F00E94490CD5
:100AE0000E94F40C0895B0E0A0E0E9E7F5E00C9472
:100AF00025236C01D62FC72FFC0115810681029595
:100B00000F700E94390CE82E8823F9F0E12E112392
:100B1000E1F08C2F807F803461F080E28D0F88308F
:100B200008F18C2F807E803221F4D230D8F000235F
:100B3000C9F08091A30282FF15C082E00E94240DBB
:100B40000E94390C91E0E82EE926BC2EB2949FE079
:100B5000B922FBE0FB15B8F1EB2DF0E0E355FC4DBD
:100B60000C94FC22E12CF1CF0C2F0F70C07F11F000
:100B70000295007F112399F0002359F080E28D0F38
:100B8000883010F0D11107C0802F0E94430C0E94C2
:100B9000F40C8D2F48C0802F0E94530CF8CF8D2F5E
:100BA0000E94EA04002379F080E28D0F883010F073
:100BB000D11104C0802F0E94490C03C0802F0E94D5
:100BC000590C0E94F40CEB2DE850FF0B349708F001
:100BD0006BC10E94F4180E94F403CDB7DEB7E9E0C0
:100BE0000C9441232C2F2F70F22EC07FC03219F0AD
:100BF000F29480EFF822DD2341F0D130C9F11123C6
:100C000009F443C00023E9F0C4CF8091A30282FD20
:100C100014C0112359F0FF2029F08F2D0E94430C9E
:100C20000E94F40C80E00E945C04CDCF80E00E9422
:100C3000EA04FF2041F28F2DBECF112369F001118C
:100C400004C08F2D0E946505BECF013009F0BBCFD7
:100C50008F2D0E94770CB7CF0111B5CF8F2D0E9439
:100C60006C058F2D0E94830C8F2D0E94670CABCFDB
:100C7000112321F0063008F0A6CFE3CF053008F0AD
:100C8000A2CF8F2D0E946C059ECF0023D1F3D933C4
:100C900049F43FEF87EE93E0315080409040E1F718
:100CA00000C000008D2F0E94EA048DCF8C2F869506
:100CB0008695837069F0813009F085CF8D2F9C2F48
:100CC0009370111102C080E090E00E945E197BCF0A
:100CD0008D2F9C2F9370111102C080E090E00E9434
:100CE000371971CF612F8D2F0E9452046CCF8C2F3A
:100CF0008370A1F5111167CF4D2F4295469547702E
:100D0000440F440F2D2F2F7030E0042E02C0220F0D
:100D1000331F0A94E2F790E080E0D4FF09C08FE02F
:100D200090E002C0880F991F4A95E2F78095909550
:100D3000C695C695C370822B932BC23049F058F4E8
:100D4000C13019F00E9418083ECF0E940F083BCF17
:100D50000E94210838CF0E940C0835CF86951123B8
:100D600011F08C2F8170882309F42DCF4D2F4295DF
:100D700046954770440F440F2D2F2F7030E0042EFE
:100D800002C0220F331F0A94E2F790E080E0D4FF04
:100D900009C08FE090E002C0880F991F4A95E2F7E2
:100DA00080959095C695C695C370822B932BC230C3
:100DB00049F058F4C13019F00E94880804CF0E940D
:100DC0007F0801CF0E949108FECE0E943308FBCE1F
:100DD000CF70112329F08C2F0E944D088D2F32CF18
:100DE0008D2F0E946C058C2F0E945D08ECCED23FA7
:100DF00041F160F4D03FB9F0D13F81F0112309F403
:100E000043C00111C6CE8C2F8F711FC0D33F01F19B
:100E1000D43FA1F78091A30282FD24C08C2F8F7153
:100E2000112311F312C0112341F0053008F0CBCE8D
:100E30008C2F8F710E946F08C6CE063008F0C3CE8B
:100E4000F7CF8C2F8F711111CFCF0E944D08BBCEE1
:100E5000112329F08C2F8F710E944108B4CE0E947B
:100E60003C08B1CE112331F063E08C2F8F710E94CA
:100E7000060DA9CE81E00E94240D023008F4A3CE15
:100E800082E00E94240D9FCE002359F0D93309F04F
:100E900009CFEFEFF7EE23E0E150F0402040E1F71B
:100EA000FFCE8C2F8F71A0CFEE2009F496CE0E943A
:100EB000350C80FD92CEF60115820E942F0C0E9407
:100EC0004D08C6010E9481070E942F0C0E945D08F8
:100ED00084CE0F931F93CF93DF93EC0168817981C8
:100EE0008D810E9450098C010E949A080E940B0873
:100EF000B801CE010E947305DF91CF911F910F9130
:100F00000895CF93DF93EC018C81882399F0CE0173
:100F10000E945F03811111C00E94390C882351F097
:100F20008D81882339F08091A30282FF03C082E083
:100F30000E94240DDF91CF910895CE010E94690790
:100F4000CE010E940403F6CF90E080E00E943719A2
:100F500090E080E00E945E190E94600C0E94F40CF8
:100F60000E942F170E94131708950E94671A0E946B
:100F7000A40708950E94500C0E94B5070895929509
:100F80009F70963091F058F4925F9F70923058F4B1
:100F9000803F19F030F4883E30F481E008959A5F84
:100FA000F4CF843FD1F380E00895883EB0F3813FD1
:100FB000D1F7F3CFFC012481222339F08081918184
:100FC0000E9445090E94BF07089580E00895A6E0A9
:100FD000B0E0EDEEF7E00C942C232696E2E00C94C2
:100FE0004823A7E0B0E0E7EFF7E00C942C23279626
:100FF000E2E00C94482308950E94FB0708950E94A4
:10100000FC0708950E94FB070E94FF079093D301FD
:101010008093D201089508950E94020808952091B6
:10102000D2013091D301822B932B0E9402080895A4
:101030002091D2013091D301822393230E94020890
:1010400008952091D2013091D301822793270E94E5
:10105000020808950E94FB0708950E942A08089537
:101060000E94FB0708950E9430080E942D0890936B
:10107000D1018093D001089590E080E00E94330870
:10108000089521E030E0A90102C0440F551F8A9560
:10109000E2F7CA010E943308089521E030E002C05F
:1010A000220F331F8A95E2F78091D0019091D101F0
:1010B000822B932B0E943308089521E030E002C078
:1010C000220F331F8A95E2F7209530958091D00149
:1010D0009091D101822393230E943308089521E047
:1010E00030E002C0220F331F8A95E2F78091D001D1
:1010F0009091D101822793270E943308089520916F
:10110000D0013091D101822B932B0E943308089596
:101110002091D0013091D101822393230E94330882
:1011200008952091D0013091D101822793270E9408
:10113000330808950895262F277091E001C0990F74
:101140002A95EAF723E0769567952A95E1F7660FE9
:10115000771F660F771FFA01E60FF71F50E040E098
:10116000682F70E08191DF0111979B01042E02C06E
:10117000369527950A94E2F721702195282729238F
:1011800028272C934F5F5F4F4430510559F708953E
:10119000A82FA77023E0969587952A95E1F7880FE9
:1011A000991F880F991FFB01E80FF91F50E040E0DD
:1011B00080E0219130E00A2E02C0369527950A94EE
:1011C000E2F721703327042E01C0220F0A94EAF7B8
:1011D000822B4F5F5F4F4430510559F70895262FFA
:1011E000953070F48F3060F4682F70E08FE0989F36
:1011F000600D711D112448EA51E0822F0E949B0866
:101200000895292F953068F48F3058F490E068EAFB
:1012100071E03FE0239F800D911D11240E94C808BA
:10122000089580E00895B0E0A0E0E9E1F9E00C94D1
:1012300025237C010091D0011091D1018091D20130
:101240009091D301082B192BCFE0D0E0CC24C3948C
:10125000D12CBC2EC6010C2E02C0880F991F0A94F7
:10126000E2F780239123892B49F4219790F7B12C41
:101270008B2DCDB7DEB7E9E00C944123B7018C2F5D
:101280000E94EE0F019789F3F3CFCF93DF93EC0128
:101290000E941309BE010E94EE0FDF91CF910895C5
:1012A0001F93CF93DF93EB019091A701992339F01E
:1012B000CB010E944509DF91CF911F9108958823AA
:1012C00069F0CB010E941309182F682FCE010E94EC
:1012D000EF08BE01812F0E94EE0FEDCFCB010E94DF
:1012E0000109182FF6CF1F93CF93DF93C091D4013C
:1012F00017E08091D5018C1304C0DF91CF911F912D
:101300000895D0E01C9FF0011D9FF00D1124EA52BA
:10131000FE4F2081318142815381648175818681B4
:101320000E94F1072196C770E4CF20910E02309100
:101330000F024091100250911102609112027091BF
:101340001302809114020E94F1070895CF93DF9356
:1013500080911402807F09F04DC080911302882390
:1013600009F448C0E091D4015091D501C0910F0219
:10137000D0910E02609110027091110247E05E1749
:10138000C9F18E2F90E0E49FF0011124EA52FE4F44
:101390002481222391F1489FF001499FF00D1124EF
:1013A000DF01AA52BE4F11962C9111972C1325C024
:1013B0002C912D1322C015962C91159721111DC02B
:1013C00012962D913C91261B370B283C3105A8F431
:1013D000809114028F70806180931402E452FE4F5A
:1013E00080818F70806180838EE092E00E9481070F
:1013F0000E947309DF91CF910895FC013196E77047
:10140000BECF482F2091D4019091D50157E02913E8
:1014100002C080E0089530E0529FF001539FF00D2C
:101420001124EA52FE4F8181681306C0808148135F
:1014300003C085818111EECF2F5F3F4F2770E7CF2B
:10144000A4E1B0E0E6E2FAE00C9422238C0186E00D
:10145000F801DE011F9601900D928A95E1F7F801DF
:101460008481E5809EE0A92E92E0B92E909112022F
:1014700091111FC08823D1F0EE20A9F0C8010E946D
:10148000DA07F82E882379F087E0F801D50101907A
:101490000D928A95E1F7C5010E9449040E94A609B0
:1014A0000E9495095FC0C8010E948107FF24F39440
:1014B00059C0C080D18082809380F0901302209127
:1014C000100230911102A401421B530BFF2009F4BA
:1014D000F9C0483C510508F0A7C0882309F442C070
:1014E00090910F0280911402282F207F09F05CC098
:1014F0009D1116C090910E02C91212C0E1104EC08B
:101500008F708061809314020E9495098EE092E0B2
:101510000E94810780911402F8018683F12C22C079
:10152000E1103CC06D2D8C2D0E94010A6D2D8C2D7B
:101530000E94010AE82E8111F1CFCF86D88A8F85CB
:1015400098890E944509292F22952F70243078F41C
:101550009F702230A8F09923B9F0F8019681907F0E
:1015600099F4FE2C8F2D6496ECE00C943E232A5FB8
:101570002F70223068F0C8010E948107EF2CF1CF54
:10158000992311F0882369F3805E883050F3F3CFFC
:10159000803F38F3815F833070F7E3CF809114028E
:1015A000816080931402BACF9D1113C090910E02F6
:1015B000C9120FC0E1100DC08683C8010E948107C7
:1015C00087E0F801AEE0B2E001900D928A95E1F774
:1015D00067CFC8010E94DA07882309F464CFEE20A0
:1015E00009F461CF80911402803288F020910E02BC
:1015F00030910F02398728879B868A869091120244
:101600009C871D868E87CE0108960E94810787E001
:10161000F801AEE0B2E001900D928A95E1F70E94E8
:10162000A6090E94950942CF90911402292F207F8C
:10163000A1F4682D9A8A898AA6017A899E2D0E9432
:10164000E7078EE092E00E94810787E0F5011192A2
:101650008A95E9F70E94950961CF882309F482CF22
:1016600080910F028D1110C080910E02C8120CC023
:10167000E1100AC09683C8010E94810787E0F50146
:1016800011928A95E9F76ECFC8010E94DA07882384
:1016900009F409CFEE2009F406CF809114028032BC
:1016A00008F4B5CF20910E0230910F023A832983BE
:1016B0009C828B82909112029D831E828F83CE0129
:1016C0000196A3CF483C5105B8F5882309F4EECE26
:1016D000FE2CEE2009F4E7CE80910F028D111EC082
:1016E00080910E02C8121AC08091140280FD0DC0B4
:1016F000982F907F51F08683903F09F45ECF982F0A
:10170000907F905F8F70892B57CF87E0F801AEE014
:10171000B2E001900D928A95E1F724CFC8010E94B2
:10172000DA07811174CF80911402816080931402D2
:10173000C8010E94810716CF682D9A8A898AA6015E
:101740007A899E2D0E94E70787E0F50111928A951C
:10175000E9F7A6CEAEE0B0E0E0EBFBE00C942B2383
:10176000288739874A875B876C877D878E87CE017C
:1017700008960E94200A8823B1F06C85662341F008
:10178000288539854A855B857D858E850E94F10790
:1017900017E08091D4019091D50189133DC02E9618
:1017A000E3E00C94472387E0FE013896DE011196B2
:1017B00001900D928A95E1F78C85882349F3209159
:1017C000D50130E0C9010196877099274091D40175
:1017D0004817190699F097E0929FD001939FB00D9A
:1017E0001124AA52BE4FFE01319601900D929A9596
:1017F000E1F78093D5010E947309CACF0E94BA070E
:101800001092D5011092D40187E0EEE0F2E0DF0102
:101810001D928A95E9F7BCCF819FC00111248A529D
:101820009E4F0E94200A882309F4B9CFE091D40189
:101830001E9FF0011124EA52FE4F20813181428126
:1018400053816481758186810E94F1078091D40162
:1018500090E00196877099278093D4019ACF809168
:101860003D02869586958695089580913D02877004
:10187000089590913D02977081E009F480E0089509
:1018800080916902089590916902892B8093690281
:101890000895809590916902982390936902089524
:1018A00010926902089590916802892B80936802D2
:1018B0000895809590916802982390936802089506
:1018C00010926802089508950E94630C0895909103
:1018D0003E02292F282331F08095892380933E02F0
:1018E0000E94640C089508950E94730C08959091CD
:1018F0003F02292F2823281729F0982B90933F0285
:101900000E94740C089590913F02292F282331F0F2
:101910008095892380933F020E94740C08958091E2
:101920003F02882329F010923F0280E00E94740C4D
:101930000895CF93C091690280916802C82B80916D
:101940003F02882331F0C82B0E94851981110E9423
:101950008F0C8C2FCF910895CF93DF93C09102010C
:10196000D09103010E94990C8883C0910201D0910B
:10197000030148E050E065E372E0CE010E9453238A
:10198000892B59F088E0FE01A5E3B2E001900D92A9
:101990008A95E1F7CE010E940619DF91CF91089553
:1019A000CF93DF93C0910001D09101010E94990C67
:1019B0008983C0910001D091010140E250E065E1CE
:1019C00072E0CE010E945323892B59F080E2FE0180
:1019D000A5E1B2E001900D928A95E1F7CE010E9457
:1019E0001319DF91CF9108950E94EC18882339F0E4
:1019F0008091A20287FF03C00E94D00C08950E942C
:101A0000AC0C089508950E94020D08959091A302D0
:101A100092FF11C098E0899F90011124622B60937E
:101A20003D020E944D0880913D02869586958695DF
:101A30000E94030D08950E944D08089510923D02E2
:101A400080E00E94030D089590913D0280958923C6
:101A500080933D02282F277069F4891759F09091DF
:101A6000A30292FF07C08695869586950E945D0821
:101A70000E941E0D08959091A30292FB222720F947
:101A8000281759F080FB92F99093A30282EA92E022
:101A90000E94AE0D82E00E94240D08958091A30261
:101AA00082FB882780F991E089270E943B0D0895E9
:101AB00081E00E943B0D089580E00E943B0D089557
:101AC00060E070E0CB010E945D11089560E070E07D
:101AD000CB010E9456110E94600D0895A4E0B0E071
:101AE000E4E7FDE00C942C230E94F8100E940411FE
:101AF0001C82CE0104960E941D1181E090E090931B
:101B0000D3018093D2010E942A111A8219828A81FC
:101B100084618A83CE0101960E943C111B82CE0112
:101B200003960E944F110E94660D2496E2E00C94E9
:101B300048230E946E0D08950E940B1108950E9483
:101B4000F91008950E94121108950E942411089519
:101B50000E942A1108950E94301108950E943C119C
:101B600008950E94441108950E944F1108950E9403
:101B700064110895A6E0B0E0E0ECFDE00C942A23A7
:101B80000E94AA1B8C0180916A0290916B028017BF
:101B9000910781F019821A820E94AA1B682F49813D
:101BA0005A81792F80E090E00E94190410936B0213
:101BB00000936A022696E4E00C9446230E94B61B2A
:101BC00060937A0270937B0280937C0290937D02F3
:101BD00060937602709377028093780290937902F3
:101BE0000895089508950E94F10D089508950E94A2
:101BF000F60D0E94F30D089508950E94FC0D0895BE
:101C000008950E94000E0E94FD0D089584EE90E15B
:101C10000E94D0120E94F20D0E94F70D089581E0FB
:101C200008950E940F0E08950E940F0E08950895C2
:101C3000089508950E94170E0E94180E0E94190E12
:101C400008950E949F0D811102C00E94990D8EE798
:101C500092E00E94A20D82EA92E00E94AB0D0E94E7
:101C6000B6140E94A50D0E940C088091D00190919D
:101C7000D1010E942D0808950E94A11B0E942B12E1
:101C80000E94210E0E94F1030E948A140E94DD121C
:101C90000E94010E0895A6E0B0E0E1E5FEE00C949C
:101CA00020230E94110E81110CC00E94BA0D0E94C7
:101CB00089140E9451170E9400042696EEE00C94AD
:101CC0003C230E9441122CE6822E22E0922E6401D7
:101CD00010E0F601E190F1906F01812F0E947211E6
:101CE0001F5F153009F44BC0E816F90691F3809197
:101CF0007E0281FD0E947B110E94140E782E10E05E
:101D000066246394812F0E9472117C01F401A190DA
:101D1000B1904F018A159B0561F100E0CC24C3947A
:101D2000D12CAE24BF24C5018C219D21892BC1F06B
:101D30007720B1F009831A830E94AA1B9C838B83AE
:101D40006D8221E0C7018C219D21892B09F420E0BF
:101D500049815A816B817C818D81922F0E94190467
:101D60000F5FCC0CDD1C0F30F1F6F4013297F182DD
:101D7000E0821F5F153031F60E94DE0D98CFE81625
:101D8000F90609F0B4CF91CF1F93CF93DF930E9450
:101D9000F30FEC01C11580E5D807F0F5C11580E41B
:101DA000D80708F09CC0C03ED10520F5CD3CD10538
:101DB00008F082C0C83AD10578F4C53AD10508F0D8
:101DC00073C0C130D10519F1209709F1C430D10594
:101DD000F0F4D0E0C0E01BC0C33CD105D0F7C85A36
:101DE000D0E0CC0FDD1FCD5ADE4F0990D881C02D39
:101DF000D4640DC0C11580E2D80708F0D1C0C11568
:101E000081E0D80708F05AC0C83ED10510F7CE01CE
:101E1000DF91CF911F910895C03682E5D80718F55C
:101E2000C03482E5D80708F06BC0C03282E5D8071D
:101E300008F05FC0C11582E5D80708F497C02C2FC1
:101E40002695269580E2289F900111248C2F83707F
:101E5000C1E0D0E002C0CC0FDD1F8A95E2F7C22BB3
:101E6000D32BDD68D4CFC03A82E5D80760F4C03800
:101E700082E5D80708F459C0CF71D0E0DC2FCC2719
:101E8000C46FD06AC4CFC03C82E5D80708F462C0F2
:101E9000C03E82E5D80708F09CCFDC2FCC27CC27AA
:101EA000DF71C06FD06AB3CFC55AD0E0C757DE4FDD
:101EB000C881D0E0D064ABCFD065A9CF8D2F0E9470
:101EC0009510182FCE0199270E94F30FC12FD0E053
:101ED000DC2FCC27CC27DF71C82BD92B98CFCE0194
:101EE00099270E94F30FCC27DF70C82BD92BD06A1B
:101EF0008ECFCF71D0E0DC2FCC27C16FD06A87CFD7
:101F00002C2F26952695277080E2289F900111247A
:101F10008C2F8370C1E0D0E002C0CC0FDD1F8A950A
:101F2000E2F7C22BD32BDC6872CF2C2F2695269597
:101F3000277080E2289F900111248C2F8370C1E0CC
:101F4000D0E002C0CC0FDD1F8A95E2F7C22BD32B65
:101F5000DA685DCF8C2F8F710E949510C82FD0E06A
:101F6000DC2FCC27CC27DF71D06251CF8C2F8F7123
:101F70000E94951055E0D695C7955A95E1F7CF7018
:101F8000D0E0DC2FCC27282F30E084FF05C044E0D0
:101F9000220F331F4A95E1F7C22BD32BD06937CFDD
:101FA0008D2F8F710E949510182FCE0199270E94B6
:101FB000F30FC12FD0E0DC2FCC27CC27DF71C82B4B
:101FC000D92BD2CF462F753030F46F3020F4672FE5
:101FD0000E949602089590E080E008950E94E20F2A
:101FE0000E94C40E089582389105B9F1B0F481338E
:101FF000910509F47DC048F48932910509F46DC05A
:102000008A32910509F47BC008958533910509F45E
:102010005FC08933910509F10895833E9105D9F197
:1020200038F4803E910529F1823E910579F10895B9
:10203000863E9105D9F1873E910509F43EC0843E64
:10204000910541F52091A30221FF24C08091A202B5
:1020500084FD19C087EE90E008952091A2022370BC
:1020600009F05AC02091A30223FF14C089E290E036
:1020700008952091A20220FD38C03091A30230FFC4
:1020800009C024FF43C090E080E008952091A2029F
:1020900022FDF7CF08952091A20222FD3AC030918F
:1020A000A30230FD39C024FFF5CFEDCF2091A2026D
:1020B00023FFF0CF24FDE7CFCDCF2091A20223FD57
:1020C0002EC03091A30231FFEECF84EE90E0089550
:1020D0002091A20225FFDECFC9CF2091A20225FDCB
:1020E00021C02091A30223FFD5CF89E390E0D2CF76
:1020F0002091A20226FFCECF8AE290E0089520919F
:10210000A20226FFC7CF81E390E0089583EE90E01E
:10211000089582EE90E0089580EE90E0089586EEB6
:1021200090E0089585E390E008959091A20292FFD7
:1021300010C041E0282F2471243009F040E031E044
:10214000282F2871283009F030E0431711F02CE0D7
:10215000822793FF10C041E0282F2471243109F019
:1021600040E031E0282F2871283109F030E0431792
:1021700011F02CE082273091A30230FF10C051E013
:10218000282F2171213009F050E041E0282F2871DB
:10219000283009F040E0541711F029E0822731FF80
:1021A00010C041E0282F2171213109F040E031E0D9
:1021B000282F2871283109F030E0431711F029E069
:1021C000822794FD877E089580E00895CF939C0137
:1021D000205E3245C1E02032310538F4FB01C58173
:1021E000C11103C08F710E9425038C2FCF910895D8
:1021F000089590E080E00E94712321E0833E9E4F8D
:1022000009F020E0822F089563EE7EEF90E080E0F9
:102210000E94952308956FEF7FEF90E080E00E9489
:1022200095230895CF93DF93EC0182E090E00E9424
:1022300069238883DF91CF910895FC01608182E05A
:1022400090E00E947723089583E090E00E94692344
:1022500090E00895682F83E090E00E94772308952E
:10226000CF93DF93EC0184E090E00E947123998387
:102270008883DF91CF910895FC016081718184E0B2
:1022800090E00E9495230895CF93DF93EC0186E0C0
:1022900090E00E9469238883DF91CF910895FC012B
:1022A000608186E090E00E9477230895AB01BC0135
:1022B0008FE090E00E9489230895AB01BC0183E187
:1022C00090E00E9489230895682F8EE090E00E949C
:1022D0007723089508950E946A11089508950E9431
:1022E0006E110895E82FF0E0EE0FFF1FE255FD4F4D
:1022F000808191810895089580EA8A95F1F7089583
:1023000000C008950E947C110895F894E82FE2958A
:10231000EF70F0E031A1282F2F7081E090E001C034
:10232000880F2A95EAF7982F9095932391A392A16D
:10233000892B82A3789408950F931F93CF93DF93F3
:10234000CBE9D1E089918F3F11F00E94851181E0A6
:10235000C03AD807B9F7CCE8D1E00BE911E0899190
:102360008F3F11F00E9485110C171D07C1F7DF91F7
:10237000CF911F910F910895AF92BF92DF92EF928C
:10238000FF920F931F93CF93DF938C01D62EC62F0E
:10239000D0E0CE0185569E4F7C01FC0120812F3F6D
:1023A00009F44CC0F894E22FE295EF70F0E031A10F
:1023B0002F7081E090E001C0880F2A95EAF7932FF3
:1023C000982B91A392A18095892382A378940E944F
:1023D0008011ECE8F1E041E050E0B12CA12C21911A
:1023E0002F3FB1F1A22FA295AF70B0E090968C91E3
:1023F00090E02F7002C0959587952A95E2F780FDB1
:1024000027C0CA01A82AB92A440F551F81E0EB3919
:10241000F80729F7F70180818F3F11F00E9485119D
:1024200061E0A114B10409F460E08D2D0E948211D5
:10243000CC0FDD1FC00FD11FB982A882DF91CF91D1
:102440001F910F91FF90EF90DF90BF90AF90089594
:1024500090E080E0D7CF0E949C118AE0EEEAF2E0A3
:10246000DF01982F1D929A95E9F7E4EAF2E0DF0187
:102470001D928A95E9F785E00E947C120E946B11FB
:102480000895AAE0B0E0E7E4F2E10C9429238E017C
:102490000F5F1F4F8AE0F80111928A95E9F7F12C3E
:1024A0006F2DC8010E94BC11F394F5E0FF12F8CF24
:1024B0004AE050E0B80184EA92E00E94532321E010
:1024C000009709F420E0892B41F08AE0F801A4EAA2
:1024D000B2E001900D928A95E1F745E06EEA72E074
:1024E00084EA92E00E947D12182F0E946F11812FC2
:1024F0002A96E5E00C9445230895B0E0A0E0E3E8D7
:10250000F2E10C9426236C017B01042FC22F2223BD
:1025100079F081E0809381020E94AA1B909380024F
:1025200080937F0280E0CDB7DEB7E8E00C944223D1
:10253000D0918102DD23B1F380917F0290918002DE
:102540000E94391B039770F310E0000F111FA801C0
:10255000B601C7010E945323892B31F0A801B601AF
:10256000C7010E946023CD2F109281028C2FDBCFF8
:102570000E944B0E08950E94431B0E945E1D0E9404
:10258000060E0E94781D0E943C0E0E94851D0E942E
:102590008A1D0E94B8120E94A41D0E941A0EF7CF35
:1025A0009093A1018093A00108958DE18093B802DA
:1025B00088EB92E00E94B40D089588EB92E00E94AF
:1025C000B10D8091B80282FF0E94D5128091B802AD
:1025D000803220F0877088618093B8029091B802B1
:1025E000892F817090FF04C0892F869586958695E6
:1025F0000E94E81308958091B802982F96959695B9
:102600009695933040F49F5F990F990F990F8770BB
:10261000892B8093B8028091B80281608093B802C0
:1026200088EB92E00E94B40D8091B8028695869561
:1026300086950E94E81308958091B802982F987F9C
:1026400089F088508093B802887F91E009F490E087
:102650008091B80290FB80F98093B80288EB92E0F9
:102660000E94B40D8091B8028695869586950E9449
:10267000E81308958091B80280FD13C081608093B3
:10268000B802813019F489E08093B80288EB92E0B7
:102690000E94B40D8091B8028695869586950E9419
:1026A000E81308958091B80280FF0AC08E7F80935E
:1026B000B80288EB92E00E94B40D80E00E94E8131B
:1026C00008958091B80280FF03C00E9452130895BC
:1026D0000E943A1308959091B802892F86958695A5
:1026E00086958F5F8F7197708430F0F4880F880F14
:1026F000880F892B8093B8028091B802887F91E07F
:1027000009F490E08091B80290FB80F98093B802C0
:1027100088EB92E00E94B40D8091B8028695869570
:1027200086950E94E81308959093B802E5CF84300F
:1027300008F083E09091B8029770282F220F220FA3
:10274000220F922B9093B802987F21E009F420E0A9
:102750009091B80220FB90F99093B8020E94E81380
:1027600008950E94971388EB92E00E94B40D08959B
:102770009C01FB018581882349F12230F8E73F075E
:10278000F9F040F42115E8E73E0769F021303847B9
:1027900079F00895243098E7390779F058F025301A
:1027A000384789F0089583E00E94B11380E00895CE
:1027B00080E0FACF0E941C13F9CF0E94FB12F6CFE3
:1027C0000E946113F3CF0E946B13F0CF81E0089554
:1027D0008F929F92AF92BF92EF92FF920F931F93AF
:1027E000CF93DF938430B0F5811135C09091800094
:1027F0009F7790938000A0918600B0918700282F4A
:1028000030E00E94022323E030E040E050E00E94EC
:10281000DA2289019A0180918600909187006CE00C
:1028200070E00E94B22260177107C8F0C80169E029
:1028300070E00E94B2227093890060938800DF915B
:10284000CF911F910F91FF90EF90BF90AF909F900D
:102850008F90089583E0909180009068CACF809116
:10286000860090918700E0908600F0908700E091CC
:102870008600F0918700C6E0D0E0BE010E94B2223F
:10288000060F171F211D311D4801590185E0880CD5
:10289000991CAA1CBB1C8A95D1F7C701BE010E94D6
:1028A000B2229F0150E040E0260F371F411D511D0D
:1028B000C501B4010E94DA2249015A01E091860063
:1028C000F0918700CA01B9010E94A2229B01AC01CC
:1028D000DF010E9411239B01AC01C501B4010E94DC
:1028E000A2222FE096958795779567952A95D1F73F
:1028F000009186001091870030E020E0061717074E
:102900002807390708F097CF6091860070918700FB
:1029100092CF0895259A2D9882E88093800089E1CE
:10292000809381008FEF9FEF9093870080938600C4
:102930000E94DD1208950E949C0D089580E00E947F
:102940007211817008950E9441128FEB9DE50197ED
:10295000F1F700C000000E9441120E949E148823DB
:1029600021F00E949B140E94E61B08950E94A3146C
:102970000895CF93DF93EB0186319C4711F50E94B8
:10298000400C9D81992399F08A7A91E009F490E0B6
:1029900090938202811109C089E20E94331A0E9439
:1029A000F40C80E0DF91CF91089585E3F6CF80911C
:1029B0008202811104C089E20E944D1AF0CF85E3A2
:1029C000FBCF81E0EFCFCF93DF93EC01FB0185815B
:1029D000882309F4CEC09E0130572332310508F018
:1029E000AEC082EA92E00E94AB0DFE01E150F047DA
:1029F000E232F10520F4E754FC4D0C94FC22809166
:102A0000A20281608093A20293C08091A302886099
:102A10008093A3028DC08091A2028260F3CF809147
:102A2000A2028460EFCF8091A2028860EBCF8091F8
:102A3000A3028160EDCF8091A3028260E9CF8091F3
:102A4000A2028061DFCF8091A2028062DBCF809101
:102A5000A2028064D7CF0E94BA078091A202806848
:102A6000D1CF8091A2028C60CDCF8091A3028360F0
:102A7000CFCF8091A2028E7FC5CF8091A302877FA6
:102A8000C7CF8091A2028D7FBDCF8091A2028B7FA4
:102A9000B9CF8091A202877FB5CF8091A3028E7FAC
:102AA000B7CF8091A3028D7FB3CF8091A2028F7E9A
:102AB000A9CF8091A2028F7DA5CF8091A2028F7BAA
:102AC000A1CF0E94BA078091A2028F779BCF8091FD
:102AD000A202837F97CF8091A3028C7F99CF8091B0
:102AE000A20282FB992790F921E0922790FB82F9BC
:102AF00090FB83F987CF8091A302982F90959170D6
:102B00008E7F892B90FB81F983CF9091A202892F30
:102B10008F7B96FF806476CF0E94BA079091A202C5
:102B2000892F97FB87F980586DCF81E00E94B70D00
:102B300082EA92E00E94AE0D0E94BA0780E0DF9127
:102B4000CF91089580E0F2CF9091A202892F8F7EDD
:102B500094FF806157CF9091A202892F8E7F90FFC2
:102B6000816050CF9091A302892F877F93FF886067
:102B70004FCF81E0E4CF282F35EB2303C001112490
:102B800097FF04C080589109892F089580589F4F5E
:102B9000FBCF8091890280FF0DC06091090170E038
:102BA000660F771F6038710570F56115710569F161
:102BB000862F089581FF07C06091090184E0689F16
:102BC000B0011124EFCF6091090182FD0AC080910C
:102BD00088028823A9F020910801609109018217D9
:102BE00010F088E0ECCF869FC001112433E0880FFD
:102BF000991F3A95E1F7622F70E00E94C622D2CF6A
:102C000068E070E0D5CF8FE7089581E00895809166
:102C1000890280FF0CC06091050170E07595679591
:102C2000759567956115710549F1862F089581FFA6
:102C300006C06091050170E075956795F3CF6091CE
:102C4000050182FD0BC0909187029923A1F060914C
:102C5000040180910501961738F0682F70E0603804
:102C6000710500F38FE70895899FC001112470E07A
:102C70000E94C622F4CF61E070E0D7CF81E00895D2
:102C80008D3C31F40E94C915819580938D02089581
:102C90008E3C19F40E94C915F8CF8F3C31F40E9484
:102CA000C915819580938C020895803D19F40E9486
:102CB000C915F8CF893D29F40E94071680938E022A
:102CC00008958A3D21F40E9407168195F7CF8B3D28
:102CD00031F40E940716819580938F0208958C3DF0
:102CE00019F40E940716F8CF9FE2980F983070F4FD
:102CF000815D990B21E030E001C0220F8A95EAF74F
:102D000080918B02822B80938B0208958D3D31F44C
:102D10008091890281608093890208958E3D21F41B
:102D2000809189028260F7CF8F3DB9F78091890247
:102D30008460F1CF40918C028D3C59F480918D02DA
:102D400087FF0DC010928D0241110BC010928802B6
:102D500008C08E3C81F480918D0218169CF34423A8
:102D600081F080918E0290918F02892B09F05AC0D8
:102D70001092870208958F3C49F447FFF0CF1092DC
:102D80008C0280918D028111ECCFE0CF803D19F44F
:102D90001416ACF3E4CF90918E02893D29F41916F4
:102DA000F4F610928E02DBCF8A3D19F497FFD7CF4D
:102DB000F8CF90918F028B3D29F497FFD0CF1092DE
:102DC0008F02CDCF8C3D19F41916CCF3C8CF9FE2FA
:102DD000980F983090F4815D990B21E030E0B901B3
:102DE00002C0660F771F8A95E2F7CB01809590911C
:102DF0008B02892380938B02B2CF8D3D31F4809179
:102E000089028E7F80938902AACF8E3D21F4809122
:102E100089028D7FF7CF8F3D09F0A1CF8091890284
:102E20008B7FF0CF08950E94AA1B9C0190918C0289
:102E300080918D02982B21F0309386022093850299
:102E400090918E0280918F02982B21F03093840212
:102E5000209383028AE892E00E942519089586E073
:102E6000EAE8F2E0DF011D928A95E9F71092880204
:102E700010928702109289020895FC0182818111CB
:102E80000EC0838181110BC08481811108C091E043
:102E90008581811101C090E0892F8170089581E0C2
:102EA000FCCFA6E0B0E0E7E5F7E10C942B2386E049
:102EB000EAE8F2E0DE01119601900D928A95E1F7C1
:102EC00010928C0210928D0210928E0210928F023C
:102ED0008B819C81892B89F080918502909186025B
:102EE0000E94391BAC01909188029923C9F180910D
:102EF0000A018417150608F440C08D819E81892B34
:102F000091F080918302909184020E94391BAC0160
:102F100090918702992309F46AC080910601841771
:102F2000150608F472C0BE016F5F7F4F8AE892E019
:102F30000E94811A811105C08AE892E00E943D1723
:102F400081110E94131786E0FE013196AAE8B2E0D3
:102F500001900D928A95E1F72696E3E00C944723C1
:102F600020910B018AE0289F900111242417350736
:102F700020F69F5F9093880202C09F3FD1F71B818C
:102F8000112359F00E94C9159FEF11160CF491E01E
:102F9000899F802D112480938C021C81112359F06C
:102FA0000E94C9159FEF11160CF491E0899F802DA6
:102FB000112480938D0280918C02882309F49DCF87
:102FC00010918D02112309F498CF0E94BB1588231C
:102FD00051F080938C02812F0E94BB15882329F029
:102FE00080938D028ACF81E0F4CF81E0F9CF2091E8
:102FF00007018AE0289F900111242417350708F063
:1030000092CF9F5F9093870202C09F3FD1F71D81AF
:10301000112359F00E9407169FEF11160CF491E04E
:10302000899F802D112480938E021E81112359F0D7
:103030000E9407169FEF11160CF491E0899F802DD6
:10304000112480938F0280918E02882309F46BCF24
:1030500010918F02112309F466CF0E94BB158823BB
:1030600051F080938E02812F0E94BB15882329F096
:1030700080938F0258CF81E0F4CF81E0F9CF0F9396
:103080001F93CF93DF93C42FD22FFC018581882318
:10309000C9F0409392020E94AA1B909391028093E0
:1030A000900280E28C0F883040F4C77081E001C04C
:1030B000880FCA95EAF70E946505DF91CF911F91AD
:1030C0000F91089510919202141332C080919002D2
:1030D000909191020E94391B883C910548F5C0E20D
:1030E000CD0F1D17B9F080E2810F883040F41770C2
:1030F00081E001C0880F1A95EAF70E946C05C8307C
:1031000048F481E09D2F977001C0880F9A95EAF7E7
:103110000E946505802F0E945C05C83070F6D7704C
:1031200081E001C0880FDA95EAF70E946C05C5CFEF
:1031300080E28C0F883008F6C77081E001C0880FEC
:10314000CA95EAF7F2CF0F93DB0188519C4787308D
:103150009105A0F5FC01E552FC4D0C94FC2206E221
:1031600021EE41EE6AE17CE7CD010E943F1880E04C
:103170000F91089507E225EE45EE6BE17CE7F4CF71
:1031800006E221EE40EE68E17CE7EECF07E225EEB5
:1031900044EE69E17CE7E8CF06E221EE42EE6CE125
:1031A0007CE7E2CF07E225EE46EE6DE17CE7DCCF7F
:1031B00008E221E045EE6EE17CE7D6CF15968C91D2
:1031C000882319F010929202D3CF81E0D1CF90934F
:1031D00098028093970208950E94F71A91E0813037
:1031E00009F090E0892F0895E0919702F0919802FC
:1031F000309739F00190F081E02D309711F009956A
:10320000089580E008950E94F4180895E0919702CF
:10321000F0919802309731F00280F381E02D3097E1
:1032200009F009950895E0919702F091980230977E
:1032300059F024813581232B39F026E0DC012C93D1
:103240000480F581E02D09950895E0919702F091B1
:103250009802309759F026813781232B39F022E0EC
:10326000DC012C930680F781E02D09950895A3E0F9
:10327000B0E0EDE3F9E10C942C232091950230911C
:10328000960228173907B1F0909396028093950221
:10329000E0919702F0919802309761F00084F185F7
:1032A000E02D309739F023E029839B838A83CE0178
:1032B000019609952396E2E00C944823A3E0B0E040
:1032C000E4E6F9E10C942C232091930230919402CE
:1032D00028173907B1F09093940280939302E091FC
:1032E0009702F0919802309761F00084F185E02D0B
:1032F000309739F024E029839B838A83CE0101969D
:1033000009952396E2E00C944823CF93DF93C09174
:103310000201D091030122960E94F71A813081F4B4
:103320008091A20287FF0CC0C0910001D0910101E1
:1033300022969EE180E0915028F4DF91CF9108958C
:1033400096E0F8CF29912223B1F38F5FF4CFCF938A
:10335000C82F811102C080E024C00E94F71A81307A
:1033600011F58091A20287FF1EC0EC2FE695E6952D
:10337000E695EE3180F78091000190910101E80F10
:10338000F92FF11D228130E0C77081E090E002C08A
:10339000880F991FCA95E2F72823392381E0232B50
:1033A000D1F2CF9108958091020190910301FC0127
:1033B0003296089621912C1721F0E817F907D1F7DA
:1033C000CACF81E0EECF9C01FC0132969FEF80E0F6
:1033D0004191461751F09F3F19F4411101C0982FB8
:1033E0008F5F8630A9F79F3F09F40895290F311D9B
:1033F00097FD3A95F90162830895FC01329608968B
:103400002191261303C0DF0111971C92E817F907D9
:10341000B9F70895E62FE695E695E695EE3168F45E
:10342000E80FF92FF11D677021E030E001C0220F95
:103430006A95EAF78281822B82830895E62FE695CA
:10344000E695E695EE3170F4E80FF92FF11D6770FF
:1034500021E030E001C0220F6A95EAF720958281D1
:10346000282322830895CF93C82F0E94F71A6C2F28
:10347000813061F48091A20287FF08C08091000131
:10348000909101010E940A1ACF9108958091020142
:10349000909103010E94E319F7CFCF93C82F0E94A8
:1034A000F71A6C2F813061F48091A20287FF08C067
:1034B00080910001909101010E941E1ACF91089500
:1034C00080910201909103010E94FD19F7CF0E94A3
:1034D000F71A813079F48091A20287FF0BC0E09146
:1034E0000001F091010132968EE1DF011D928A9573
:1034F000E9F70895E0910201F0910301329686E028
:10350000F4CFDC01FB0111969C91119781819813F6
:1035100022C012968C911297882319F092818913F8
:103520001AC013968C911397882319F093818913ED
:1035300012C015968C911597882319F095818913DF
:103540000AC014969C91992321F081E024812913CB
:1035500003C080E001C081E08170089508950E9459
:10356000AE1A089581110EC081E080930F01609121
:103570000C0170910D0180910E0190910F010E943C
:10358000AF1A089582E0F1CF83E080930F0160913C
:103590000C0170910D0180910E0190910F010E941C
:1035A000AF1A08950E94B21A089581E080930F0126
:1035B00060910C0170910D0180910E0190910F01AD
:1035C0000E94AF1A08950E94D51A089591E08111C2
:1035D00001C090E090930E0160910C0170910D017B
:1035E00080910E0190910F010E94AF1A0895809171
:1035F0000E01089580930D0160910C0170910D01F1
:1036000080910E0190910F010E94AF1A0895809150
:103610000D01089580930C0160910C0170910D01D2
:1036200080910E0190910F010E94AF1A0895809130
:103630000C010895089508950E941B1B0895089594
:1036400008950E941A1B0895CF930E941F1B0E9489
:1036500041120E94201BC0E08C2F0E947211892B06
:1036600031F4CF5FC530C1F780E0CF91089581E09C
:10367000FCCFCF93DF93EC010E94AA1B8C1B9D0B08
:10368000DF91CF91089585B7806885BF85B7806841
:1036900085BF08951F921FB61F9211248F939F9389
:1036A000AF93BF9380919902811113C08091B902A9
:1036B0009091BA02A091BB02B091BC024196A11DAB
:1036C000B11D8093B9029093BA02A093BB02B0934C
:1036D000BC02BF91AF919F918F911F901FBE1F9011
:1036E00018958091C102843031F10E94C703109275
:1036F000990288E190E020E40FB6F894A8958093B1
:1037000060000FBE2093600083B7817F846083BF19
:1037100083B7816083BF7894889583B78E7F83BF9A
:103720000FB6F894A895809160008861809360003E
:10373000109260000FBE08950E94BA070E94D10344
:10374000089582E084BD93E095BD9AEF97BD809384
:103750006E0008952FB7F8948091B9029091BA0243
:10376000A091BB02B091BC022FBF08952FB7F8946F
:103770006091B9027091BA028091BB029091BC0233
:103780002FBF089578941F921FB61F9211248F9314
:103790009F93AF93BF938091B9029091BA02A09189
:1037A000BB02B091BC020196A11DB11D8093B9026C
:1037B0009093BA02A093BB02B093BC02BF91AF91A9
:1037C0009F918F911F901FBE1F90189581E080934D
:1037D000E00080E28093D8001092C9008FE19EE45F
:1037E0000197F1F700C0000087E090EBDC018093C7
:1037F000CA029093CB02A093CC02B093CD0288E191
:103800009CE00FB6F894A895809360000FBE90934B
:103810006000FFCF88E19CE00FB6F894A8958093F4
:1038200060000FBE90936000FFCF9B01BA019091A2
:10383000C1029430E9F48F708093E9009FEF80918A
:10384000E800915085FD06C085ED8A95F1F70000EE
:103850009111F5CF8091E80085FF0AC050E040E06B
:10386000C9010E941B1E8091E8008E778093E800BA
:10387000089543E050E0BC0182E00E94151C0895C9
:1038800046E050E0BC0182E00E94151C089540E231
:1038900050E0BC0182E00E94151C0895CF93DF9395
:1038A000EC010E94F71A48E050E0BE0181E00E945E
:1038B000151C88E0FE01AAE9B2E001900D928A95FC
:1038C000E1F7DF91CF9108958091C002811109C085
:1038D0000E94AB1F0E9408208091E20084608093C8
:1038E000E20008951092C00208950E94D51A81E066
:1038F0000E94E61A08956091BD0281E0611101C045
:1039000080E00E94C41A08959091C10281E0943031
:1039100009F080E06091BD020E94D21A089542E051
:1039200061EC81E00E94271F42E261EC82E00E948C
:10393000271F9091C10281E0943009F080E06091EE
:10394000BD020E94B21A08958091C302833009F427
:1039500061C030F48130D1F1823009F49EC0089505
:103960008A3009F48AC08B3009F46FC0893009F0BD
:1039700050C08091C202813209F04BC08091C602D2
:103980009091C702029708F044C08091E800877FB9
:103990008093E8008091E80082FF37C09091F300A7
:1039A0008091F200029731F48091F100813011F0A2
:1039B000863021F48091F1000E94FA1A8091E8008B
:1039C0008B778093E8000E945B1F23C08091C20226
:1039D000813AF9F48091E800877F8093E800809134
:1039E000C6029091C702892B61F468E08AE992E0EF
:1039F00070E00E946A1E8091E8008B778093E80057
:103A0000089560E090E080E0F3CF8091C1028111E1
:103A1000C1CF08958091C202813AD9F78091C60240
:103A20009091C702892BA9F78091E800877F809346
:103A3000E8008091E80080FFFCCF0E94F71A809395
:103A4000F1008091E8008E77BCCF8091C202813274
:103A500001F78091C6029091C702892BD1F680911F
:103A6000E800877F8093E8000E945B1F8091C4027A
:103A70000E94E61A0E94BA0708958091C20281321C
:103A800041F68091E800877F8093E8000E945B1FE9
:103A90008091C5020E940A1B08958091C202813A5A
:103AA00009F0B7CF8091E800877F8093E80080918C
:103AB000E80080FFFCCF0E94171BC1CF84B7877F2F
:103AC00084BF0FB6F894A8958091600088618093B8
:103AD0006000109260000FBE80E890E00FB6F8948E
:103AE00080936100909361000FBE0E94E31A0895D5
:103AF0000E94AB1F0E940820E2EEF0E0808184600B
:103B0000808378940E948722089580E191E00E944A
:103B1000E71808958091C102853031F48091C10287
:103B2000853019F00E949C1B08950E94711B0E9411
:103B3000241B882399F38091BF02882379F30E9484
:103B4000051E0E94BA07EACF08959A014091C80263
:103B50005091C9020E94AD1D0895492F5527433049
:103B6000510519F168F44130510509F444C042305F
:103B7000510509F445C090E080E050E040E025C0E8
:103B80004132510549F142325105A9F784E490E0F0
:103B90004BE354E061157105C1F086EB90E045E818
:103BA00053E06130710589F0E6CF992781309105A6
:103BB00081F0009729F00297F1F6E4E0F3E002C00B
:103BC000E4E3F3E0849190E0AF01F9015183408395
:103BD0000895E2E2F3E0F6CF89E090E04AE453E0B2
:103BE0006115710591F389E090E043E653E061309F
:103BF000710559F3C0CF82E190E043E753E0E5CF90
:103C00008BE390E048E353E0E0CF80E189BD82E1BF
:103C100089BD09B400FEFDCF8091D8008F7D8093CF
:103C2000D8008091E00082608093E0008091E00005
:103C300081FDFCCF0895AF92BF92CF92DF92FF92A9
:103C40000F931F93CF93DF936C01EB018A010E94C6
:103C50007A1FF82E811123C00115110539F0F801E2
:103C600080819181C81BD90BC80ED91EB12CA12C03
:103C70002097A9F08091E80085FD22C08091E8009E
:103C80008E778093E80001151105A1F0F80180817D
:103C90009181A80EB91EB182A08285E0F82E8F2DE9
:103CA000DF91CF911F910F91FF90DF90CF90BF9048
:103CB000AF9008950E947A1F8823D1F2F82EEFCF9B
:103CC000F60181916F018093F1002197FFEFAF1A08
:103CD000BF0ACECFFC018091C8029091C90286171D
:103CE0009707A0F06115710529F49091E8009E777F
:103CF0009093E80090E06115710551F4911108C0AE
:103D00008091E80082FF34C080E00895BC01F2CFCA
:103D10008091C1028823C1F18530C1F18091E80012
:103D200083FD30C08091E80082FDEACF8091E800F9
:103D300080FFE1CF8091F3002091F200382F6115D0
:103D4000710519F02830310558F091E0283031051F
:103D500009F090E02091E8002E772093E800CBCF87
:103D600081918093F100615071092F5F3F4FE7CF40
:103D70008091C102882341F0853041F08091E800B4
:103D800083FFBECF81E0089582E0089583E0089527
:103D9000FC018091C8029091C90286179707A0F094
:103DA0006115710529F48091E8008E778093E80011
:103DB00090E06115710551F4911108C08091E800FF
:103DC00082FF35C080E00895BC01F2CF8091C1022E
:103DD0008823C9F18530C9F18091E80083FD31C0A5
:103DE0008091E80082FDEACF8091E80080FFE1CF7A
:103DF0008091F3002091F200382F6115710519F0C0
:103E00002830310558F091E02830310509F090E074
:103E10008091E8008E778093E800CBCF84918093E7
:103E2000F1003196615071092F5F3F4FE6CF8091CD
:103E3000C102882341F0853041F08091E80083FF82
:103E4000BDCF81E0089582E0089583E00895982F22
:103E5000973028F08F708093E90081E00895909367
:103E6000E900242F762F50E0981731F07091EC0084
:103E70002091ED005091F00021FD02C09F5FE8CF3E
:103E80003091EB003E7F3093EB003091ED003D7FB1
:103E90003093ED003091EB0031603093EB00709384
:103EA000EC002093ED005093F0002091EE0027FDF0
:103EB000E5CF80E008958091C20287FF13C0809112
:103EC000E80082FF06C08091E8008B778093E800CD
:103ED00004C08091C1028111F2CF08958091C10286
:103EE0008823D9F38091E80080FFF8CF8091E80023
:103EF0008E77ECCF2091E4003091E50095E6A901A2
:103F00002091EC00822F817020FF06C08091E80094
:103F100080FF06C080E008952091E80022FD1AC0CD
:103F20008091C102882389F0853089F08091EB006F
:103F300085FD0FC02091E4003091E5004217530742
:103F4000F9F29150E1F684E0089582E0089583E06B
:103F5000089581E008950E941A200E942220E0EE38
:103F6000F0E0808181608083E8EDF0E080818F77F0
:103F7000808319BCA7EDB0E08C918E7F8C938081FB
:103F80008F7E80831092C00208950F931F93CF936A
:103F9000DF930E941A200E942220C8EDD0E0888181
:103FA0008F77888388818068888388818F7D8883E4
:103FB00019BC1092C1021092BD021092BF02109261
:103FC000BE0200EE10E0F80180818B7F8083888143
:103FD0008160888342E060E080E00E94271FE1EE7C
:103FE000F0E080818E7F8083E2EEF0E0808181606E
:103FF0008083808188608083F80180818E7F8083C8
:10400000888180618883DF91CF911F910F910895FE
:10401000E8EDF0E080818F7E8083E7EDF0E0808145
:104020008160808384E082BF81E08093C0020E942F
:10403000C51F0895E8EDF0E080818E7F80831092A7
:10404000E20008951092DA001092E10008951F92A4
:104050000F920FB60F9211242F933F934F935F93BC
:104060006F937F938F939F93AF93BF93EF93FF9340
:104070008091E10082FF0BC08091E20082FF07C0C7
:104080008091E1008B7F8093E1000E9486228091E5
:10409000DA0080FF19C08091D80080FF15C08091A0
:1040A000DA008E7F8093DA008091D90080FF96C07D
:1040B00080E189BD82E189BD09B400FEFDCF81E0C8
:1040C0008093C1020E94641C8091E10080FF19C0AE
:1040D0008091E20080FF15C08091E2008E7F809386
:1040E000E2008091E20080618093E2008091D8003C
:1040F00080628093D80019BC85E08093C1020E9441
:104100007B1C8091E10084FF2BC08091E20084FF42
:1041100027C080E189BD82E189BD89B5982F917062
:1041200080FFFBCF8091D8008F7D8093D800809155
:10413000E1008F7E8093E1008091E2008F7E80938A
:10414000E2008091E20081608093E2008091BD02F4
:10415000882309F449C084E08093C1020E94841C32
:104160008091E10083FF29C08091E20083FF25C098
:104170008091E100877F8093E10082E08093C1021B
:104180001092BD028091E1008E7F8093E1008091CA
:10419000E2008E7F8093E2008091E2008061809354
:1041A000E20042E060E080E00E94271F8091F00082
:1041B00088608093F0000E94751CFF91EF91BF9181
:1041C000AF919F918F917F916F915F914F913F91AF
:1041D0002F910F900FBE0F901F90189519BC109241
:1041E000C1020E94721C70CF8091E30087FD93E0B2
:1041F0009093C102B3CF1F920F920FB60F9211246A
:104200002F933F934F935F936F937F938F939F93DE
:10421000AF93BF93CF93DF93EF93FF93D091E900D8
:10422000DF708091EC00C82FC17080FDC0E8109253
:10423000E9008091F000877F8093F00078940E94DD
:104240003F211092E9008091F00088608093F00097
:10425000CD2BCF70C093E900FF91EF91DF91CF910B
:10426000BF91AF919F918F917F916F915F914F918E
:104270003F912F910F900FBE0F901F901895AAE2BB
:10428000B0E0E5E4F1E20C942B2382EC92E0209183
:10429000F100FC012193CF01F2E08A3C9F07B9F7BE
:1042A0000E94A41C8091E80083FF1EC18091C2027D
:1042B0009091C3029A3008F017C1E92FF0E0EE5157
:1042C000FC4D0C94FC22803899F0823809F00CC126
:1042D0008091C6028F70873008F006C18093E90094
:1042E0008091EB0085FB882780F91092E90006C0D9
:1042F0008091BE029091BF02911182609091E8007E
:10430000977F9093E8008093F1001092F1008091E4
:10431000E8008E77E5C0882309F4D3C0823009F025
:10432000E3C08091C4028111D6C08091C6028F7013
:104330002FEF280F263008F0D7C08093E900209196
:10434000EB0020FFC8C0933031F48091EB00806215
:104350008093EB00C0C09091EB0090619093EB00D4
:1043600021E030E001C0220F8A95EAF72093EA00AD
:104370001092EA008091EB008860EACF8111B4C00E
:104380001091C4021F778091E3008078812B809385
:10439000E3008091E800877F8093E8000E945B1F24
:1043A0008091E80080FFFCCF8091E30080688093DB
:1043B000E30082E0111183E08093C10295C0805830
:1043C000823008F091C08091C4029091C5028C3D6A
:1043D00023E09207A1F583E08A838AE289834FB7BD
:1043E000F894DE01139620E03EE051E2E32FF0E086
:1043F00050935700E49120FF03C0E295EF703F5FB8
:10440000EF708E2F90E0EA30C0F0C7968D939D93A9
:104410002F5F243159F74FBF8091E800877F809349
:10442000E8006AE270E0CE0101960E946A1E809167
:10443000E8008B778093E80057C0C096E7CF609183
:10444000C6027091C702AE014F5F5F4F0E94A51D6B
:10445000BC01892B09F448C09091E800977F9093A4
:10446000E80089819A810E94C81EE1CF8038E1F579
:104470008091E800877F8093E8008091BD0280935F
:10448000F10045CF811130C09091C402923060F5A7
:104490008091E800877F8093E8009093BD020E949E
:1044A0005B1F8091BD02882311F084E005C08091DC
:1044B000E30087FDFACF81E08093C1020E948F1C48
:1044C00013C08091C402813079F481E0933009F007
:1044D00080E08093BF021092E9008091E800877F1E
:1044E0008093E8000E945B1F8091E80083FF0AC070
:1044F0008091E800877F8093E8008091EB008062E4
:104500008093EB00AA96E3E00C9447230895CF93A1
:104510008091C1028823A1F0C091E900CF709091F1
:10452000EC00892F817090FD80E8C82B1092E90083
:104530008091E80083FD0E943F21CF70C093E90085
:10454000CF910895DB018F939F930E941123BF9118
:10455000AF91A29F800D911DA39F900DB29F900DD2
:1045600011240895AA1BBB1B51E107C0AA1FBB1F42
:10457000A617B70710F0A61BB70B881F991F5A95EF
:10458000A9F780959095BC01CD01089597FB072E62
:1045900016F4009407D077FD09D00E94B22207FCE0
:1045A00005D03EF4909581959F4F08957095619543
:1045B0007F4F0895A1E21A2EAA1BBB1BFD010DC05F
:1045C000AA1FBB1FEE1FFF1FA217B307E407F507C3
:1045D00020F0A21BB30BE40BF50B661F771F881F9F
:1045E000991F1A9469F760957095809590959B0135
:1045F000AC01BD01CF010895EE0FFF1F0590F491AE
:10460000E02D0994A29FB001B39FC001A39F700D3C
:10461000811D1124911DB29F700D811D1124911DCA
:1046200008950E940223A59F900DB49F900DA49F12
:10463000800D911D112408952F923F924F925F9209
:104640006F927F928F929F92AF92BF92CF92DF92A2
:10465000EF92FF920F931F93CF93DF93CDB7DEB707
:10466000CA1BDB0B0FB6F894DEBF0FBECDBF09949B
:104670002A88398848885F846E847D848C849B84F2
:10468000AA84B984C884DF80EE80FD800C811B8100
:10469000AA81B981CE0FD11D0FB6F894DEBF0FBE2F
:1046A000CDBFED010895FB01DC0104C08D910190A7
:1046B000801921F441505040C8F7881B990B089588
:1046C000FB01DC0102C001900D9241505040D8F72F
:1046D0000895F999FECF92BD81BDF89A992780B5CA
:1046E0000895A8E1B0E042E050E00C949D23262F0D
:1046F000F999FECF92BD81BDF89A019700B40216D8
:1047000039F01FBA20BD0FB6F894FA9AF99A0FBE85
:1047100008950396272F0E9478230E947723252F40
:104720000E947823242F0C9478230196272F0E942F
:1047300078230C947723DC01CB01FC01F999FECF9F
:1047400006C0F2BDE1BDF89A319600B40D92415019
:104750005040B8F70895F894FFCFB405B405F205BA
:10476000F20556067206E305E3057706E806F70646
:10477000F7063915AB1541150B150F154515131512
:10478000491555151F15A4152315591527155D1520
:1047900085152B1561158C15311567156F151715B6
:1047A0004D151B15511535156B157B159515A21556
:1047B00005153D15B215C018C618AF18BA18CC1893
:1047C000D218D81863218B2174228B217422BE2128
:0847D000DF217422362242228F
:1047D80040026002280850011E0A1401000001006E
:1047E800071B4E1C471C401C391CE200E900EA006C
:1047F800B500B600B700CD008301CC008A01920154
:1048080094012102230224022502260227022A02F9
:10481800B300B4006F0070009F01CB019F02A0029B
:10482800818283E200E900EA00B500B600B700CD56
:10483800008301CC008A0192019401210223022401
:10484800022502260227022A02B300B4006F007074
:10485800009F01CB019F02A0028182836667F7F661
:10486800F5F4F13031323337929395F03696349728
:00000001FF
