:100000000C949C020C94D4020C94D4020C94D40250
:100010000C94D4020C94D4020C94D4020C94D40208
:100020000C94D4020C94D4020C9451280C942529DD
:100030000C9448230C94D4020C94D4020C94D40253
:100040000C94D4020C94D4020C94D4020C94D402D8
:100050000C94D4020C94EB230C94D4020C94D40290
:100060000C94D4020C94D4020C94D4020C94D402B8
:100070000C94D4020C94D4020C94D4020C94D402A8
:100080000C94D4020C94D4020C94D4020C94D40298
:100090000C94D4020C94D4020C94D4020C94D40288
:1000A0000C94D4020C94D4020C94D40229001E00A7
:1000B0001F0020002100220023002400250026002C
:1000C00027002D002E002A004A002B0014001A00E1
:1000D0000800150017001C0018000C001200130087
:1000E0002F00300031004D003900040016000700D9
:1000F00009000A000B000D000E000F003300340051
:10010000280000003500E1001D001B00060019005A
:10011000050011001000360037003800E5004C00E3
:10012000520000000000E000E200000000002C008F
:1001300000000000E6000000E40000005000510054
:100140004F00167C3A003B003C003D003E003F0063
:100150004000410042004300440045004C004B0079
:10016000010020782178237824782578267827784C
:1001700028780100460047004800007C4E0001003E
:1001800029782A7801000100010001000100010026
:10019000010001000100037C00003500E1000100C6
:1001A0000100010001000100010001000100010047
:1001B000010001004C00A900000000000100010046
:1001C000000000000100000000000100000001002C
:1001D0000000AC00AA00AB00167C3A003B003C00DB
:1001E0003D003E003F00400041004200430044000B
:1001F00045004C004B0001002078217823782478BA
:10020000257826782778287801004600470048009E
:10021000007C4E00010029782A78010001000100CD
:10022000010001000100010001000100037C000049
:100230003500E100010001000100010001000100A2
:10024000010001000100010001004C00A9000000B4
:10025000000001000100000000000100000000009B
:100260000100000001000000AC00AA00AB00167CF9
:100270003A003B003C003D003E003F004000410092
:1002800042004300440045004C004B000100207830
:100290002178237824782578267827782878010013
:1002A000460047004800007C4E00010029782A786B
:1002B0000100010001000100010001000100010036
:1002C0000100037C00003500E10001000100010095
:1002D0000100010001000100010001000100010016
:1002E0004C00A90000000000010001000000000017
:1002F0000100000000000100000001000000AC004F
:10030000AA00AB000001010101010101010102028B
:1003100002020202020202030303030303030304B3
:10032000040404040404050505050506060606067E
:10033000070707070708080808090909090A0A0A38
:100340000B0B0B0C0C0C0D0D0D0E0E0E0F0F0F10DA
:100350001011111112121313141415151616171764
:10036000181819191A1A1B1B1C1D1D1E1E1F2020D0
:10037000212222232424252626272829292A2B2C1A
:100380002D2D2E2F30313232333435363738393A3D
:100390003B3C3D3E3F404142434445464748494A35
:1003A0004C4D4E4F50515354555658595A5B5D5E03
:1003B0005F616264656668696B6C6D6F707273759E
:1003C00077787A7B7D7E8082838587888A8C8E8F02
:1003D00091939596989A9C9EA0A2A3A5A7A9ABAD30
:1003E000AFB1B3B5B7BABCBEC0C2C4C6C9CBCDCF1E
:1003F000D1D4D6D8DBDDDFE2E4E7E9EBEEF0F3F5CC
:10040000F8FAFDFF1E0342006100670075006500F9
:10041000740074006500360036002000520047006A
:100420004200000010034B004200440066006100DF
:100430006E00730000000403090409023B0002017E
:1004400000A0FA09040000010301010009211101C3
:10045000000122440007058103080001090401008E
:100460000103000000092111010001226D000705B0
:1004700082032000011201000200000008424B0626
:100480000101000102000105010980A10185031994
:10049000012AB700150126B700950175108100C02B
:1004A000050C0901A101850419012AA002150126E4
:1004B000A002950175108100C005010906A1018502
:1004C00006050719E029E715002501950875018142
:1004D000020507190029EF1500250195F075018126
:1004E0000205081901290595057501910295017507
:1004F000039101C005010906A101050719E029E7DB
:100500001500250195087501810295017508810185
:100510000507190029FF150026FF009506750881BB
:10052000000508190129051500250195057501919A
:1005300002950175039101C011241FBECFEFDAE0CF
:10054000DEBFCDBF04B603FE18C08091FD059091BB
:10055000FE05A091FF05B09100068730904BA740A3
:10056000B04B59F41092FD051092FE051092FF0554
:1005700010920006E0E0F8E3099512E0A0E0B1E097
:10058000E6E1F8E502C005900D92A23CB107D9F76B
:1005900025E0A2ECB2E001C01D92AD3FB207E1F749
:1005A0000E9402120C94992B0C940000CF930E948D
:1005B0005316C82F882359F00E94A92181FF07C034
:1005C0002FEF4FEF6FEF8FE190E00E94CF158C2F50
:1005D000CF9108958430B8F46530A8F44F3098F482
:1005E00050E09FE0699F400D511D1124FA019BE4EA
:1005F000899FE00DF11D1124EE0FFF1FE455FF4F01
:1006000085919491089581E090E008950E94EA0216
:10061000089581E008950E940903089581E00895F6
:100620000E94090308950E941003089508950E94EE
:1006300016030895A6E0B0E0E0E2F3E00C94092B85
:1006400049835A839E833091C90289819A813111ED
:100650001AC03E81332399F0222389F00E94980822
:10066000182F682F89819A810E94740869817A8184
:10067000812F0E94AD0F2696E3E00C94252B0E945B
:100680008608182FF3CF0E94980869817A81F1CFEC
:10069000FC01262F40815181628173818481958183
:1006A0000E941A030895CF93DF93EC0161E00E944A
:1006B0004803BE010E940B03DF91CF910895CF93B1
:1006C000DF93EC0160E00E944803BE010E94170323
:1006D000DF91CF91089581E008950E946B03089502
:1006E000CF93C82F0E9449078C2F0E946D032FEFD4
:1006F00084E39CE0215080409040E1F700C000007E
:10070000CF91089581E00E9470030E940F24089504
:1007100080E00E9470030E94332408950F931F937A
:10072000CF93DF938C0161E00E944803EC01B80194
:100730000E941303811106C080E0DF91CF911F91C9
:100740000F910895B801CE010E9453218823A1F38F
:10075000B801CE010E941320882371F3B801CE01A5
:100760000E94E91F882341F3B801CE010E943E1F79
:10077000882311F3F8018581882361F0C330FCE7F9
:10078000DF07E9F058F4C115ECE7DE07A9F0C13046
:10079000DC47B9F0C8010E940E03CFCFCB358CE700
:1007A000D807A9F0CC35ECE7DE0771F0CA35DC4795
:1007B00089F70E94DF0CEECF0E948203BDCF0E941A
:1007C000E70C0E948803B8CF0E94D50CE3CF0E94AB
:1007D000E30CE0CF0E9424230E94691D0E941904AB
:1007E00081E00E94E71D08950E941D0480E00E94A0
:1007F000E71D0E9429230895089581E00895089532
:10080000CF93DF93D82F0E94FD03C82F882319F0C0
:100810008D2F0E94FF038C2FDF91CF9108950895B3
:10082000CF93C82F0E94FC038C2F0E940004CF910D
:10083000089580E00E94100408950E949C210E9467
:1008400010040895CF930E949C21C82F8091C40268
:100850008C1779F0C093C4020E94B4236093C50240
:100860007093C6028093C7029093C8028C2F0E9497
:100870001004CF910895ADE0B0E0E1E4F4E00C9411
:100880000A2B488759876A877B878C879D879111B8
:100890000E94E50B1F8286E0FE013896DE0111966C
:1008A00001900D928A95E1F78D8181110DC029810A
:1008B0003A814B815C816D817E818F810E942F0BFB
:1008C0002D96E2E00C94262BCE0101960E94530354
:1008D0008111EDCFF5CFFC012481213021F48081FD
:1008E00091810E94CA080895CF93C82F882399F058
:1008F0008CEF8C0F813A88F48C2F0E943122882350
:1009000029F08C2F0E94D1220E94790C8C2F0E94FA
:10091000BA220E94790CCF91089580E28C0F883022
:1009200048F4C77081E001C0880FCA95EAF70E94B9
:10093000C80BEFCFEBE5EC0FE33040F4F0E0EF59FC
:10094000FD4F808190E00E94C521E5CFC85ACB3190
:1009500010F7EC2FF0E0EE0FFF1FE55DFD4F8081FB
:1009600091810E94EA21D7CF882339F19CEF980F1B
:10097000913A28F40E94D1220E94790C089590E2C5
:10098000980F983050F4877091E001C0990F8A95C4
:10099000EAF7892F0E94CE0BEFCF9BE5980F93309B
:1009A00028F490E080E00E94C5210895885A8B3198
:1009B00020F490E080E00E94EA2108951F93CF93F5
:1009C000DF93182FEB010E947404209739F4812FD4
:1009D0000E94B404DF91CF911F9108958FE99FE0A9
:1009E0000197F1F700C000002197EFCF70E060E0C1
:1009F000893311F460E570E00E94DE0408958823D5
:100A000021F00E94C80B0E94790C0895882321F0E0
:100A10000E94CE0B0E94790C0895B0E0A0E0E3E1C3
:100A2000F5E00C94032B6C01D62FC72FFC01158128
:100A3000068102950F700E94BE0BE82E8823F9F004
:100A4000E12E1123E1F08C2F807F803461F080E271
:100A50008D0F883008F18C2F807E803221F4D230C7
:100A6000D8F00023C9F08091050582FF15C082E00F
:100A70000E94A90C0E94BE0B91E0E82EE926BC2E34
:100A8000B2949FE0B922FBE0FB15B8F1EB2DF0E04A
:100A9000E556F44D0C94F42AE12CF1CF0C2F0F7095
:100AA000C07F11F00295007F112399F0002359F0C7
:100AB00080E28D0F883010F0D11107C0802F0E9486
:100AC000C80B0E94790C8D2F5AC0802F0E94D80B22
:100AD000F8CF8D2F0E94B404002379F080E28D0FAF
:100AE000883010F0D11104C0802F0E94CE0B03C0BB
:100AF000802F0E94DE0B0E94790CEB2DE850FF0B3B
:100B0000349720F40E949C210E941004EE2089F06A
:100B10000E94BA0B80FD0DC0F60115820E94B40B35
:100B20000E94D207C6010E9414070E94B40B0E94C3
:100B3000E207CDB7DEB7E9E00C941F2B2C2F2F7006
:100B4000F22EC07FC03219F0F29480EFF822DD233C
:100B500041F0D130D1F1112309F444C00023F1F068
:100B6000B2CF8091050582FD15C0112359F0FF20F9
:100B700029F08F2D0E94C80B0E94790C80E00E9402
:100B80007404BBCF80E00E94B404FF2009F4B5CF09
:100B90008F2DABCF112369F0011104C08F2D0E945E
:100BA000FF04ABCF013009F0A8CF8F2D0E94FC0BC2
:100BB000A4CF0111A2CF8F2D0E9406058F2D0E9478
:100BC000080C8F2D0E94EC0B98CF112321F00630DA
:100BD00008F093CFE3CF053008F08FCF8F2D0E9420
:100BE00006058BCF0023D1F3D93349F43FEF87EECD
:100BF00093E0315080409040E1F700C000008D2F1D
:100C00000E94B4047ACF8C2F86958695837069F004
:100C1000813009F072CF8D2F9C2F9370111102C07B
:100C200080E090E00E94EA2168CF8D2F9C2F937086
:100C3000111102C080E090E00E94C5215ECF8C2F90
:100C40008370A1F5111159CF4D2F429546954770EC
:100C5000440F440F2D2F2F7030E0042E02C0220FBE
:100C6000331F0A94E2F790E080E0D4FF09C08FE0E0
:100C700090E002C0880F991F4A95E2F78095909501
:100C8000C695C695C370822B932BC23049F058F499
:100C9000C13019F00E94A20730CF0E9499072DCFD2
:100CA0000E94AB072ACF0E94960727CF8695112373
:100CB00011F08C2F8170882309F41FCF4D2F42959E
:100CC00046954770440F440F2D2F2F7030E0042EAF
:100CD00002C0220F331F0A94E2F790E080E0D4FFB5
:100CE00009C08FE090E002C0880F991F4A95E2F793
:100CF00080959095C695C695C370822B932BC23074
:100D000049F058F4C13019F00E940D08F6CE0E9447
:100D10000408F3CE0E941608F0CE0E94BA07EDCE6A
:100D2000CF70112329F08C2F0E94D2078D2F37CF3F
:100D30008D2F0E9406058C2F0E94E207DECED23F47
:100D400041F160F4D03FB9F0D13F81F0112309F4B3
:100D500043C00111B8CE8C2F8F711FC0D33F01F15A
:100D6000D43FA1F78091050582FD24C08C2F8F719F
:100D7000112311F312C0112341F0053008F0BDCE4C
:100D80008C2F8F710E94F407B8CE063008F0B5CED4
:100D9000F7CF8C2F8F711111CFCF0E94D207ADCE1C
:100DA000112329F08C2F8F710E94C607A6CE0E94B6
:100DB000C107A3CE112331F063E08C2F8F710E9405
:100DC0008B0C9BCE81E00E94A90C023008F495CEDA
:100DD00082E00E94A90C91CE002359F0D93309F08A
:100DE0000ECFEFEFF7EE23E0E150F0402040E1F7C7
:100DF00004CF8C2F8F71A0CF0F931F93CF93DF93CE
:100E0000EC01688179818D810E94D5088C010E9456
:100E10001F080E949507B801CE010E940D05DF91C1
:100E2000CF911F910F910895CF93DF93EC018C81A7
:100E3000882399F0CE010E948E03811111C00E9477
:100E4000BE0B882351F08D81882339F080910505F0
:100E500082FF03C082E00E94A90CDF91CF91089528
:100E6000CE010E94FC06CE010E945F03F6CF90E007
:100E700080E00E94C52190E080E00E94EA210E946B
:100E8000E50B0E94790C08950E94E8220E94370722
:100E900008950E94D50B0E944407089592959F7073
:100EA000963091F058F4925F9F70923058F4803FE2
:100EB00019F030F4883E30F481E008959A5FF4CF61
:100EC000843FD1F380E00895883EB0F3813FD1F7AD
:100ED000F3CFFC012481222339F0808191810E948B
:100EE000CA080E944E07089580E00895A6E0B0E089
:100EF000ECE7F7E00C940A2B2696E2E00C94262B04
:100F0000A7E0B0E0E6E8F7E00C940A2B2796E2E0D1
:100F10000C94262B08950E948A0708950E948B073F
:100F20009093F5028093F402089508950E948E072D
:100F300008952091F4023091F502822B932B0E94A8
:100F40008E0708952091F4023091F50282239323B5
:100F50000E948E0708952091F4023091F5028227B5
:100F600093270E948E0708950E948A0708950E9481
:100F7000B40708950E94B7079093F3028093F2029A
:100F8000089590E080E00E94BA07089521E030E0E3
:100F9000A90102C0440F551F8A95E2F7CA010E94B9
:100FA000BA07089521E030E002C0220F331F8A956E
:100FB000E2F78091F2029091F302822B932B0E9430
:100FC000BA07089521E030E002C0220F331F8A954E
:100FD000E2F7209530958091F2029091F3028223FE
:100FE00093230E94BA07089521E030E002C0220F47
:100FF000331F8A95E2F78091F2029091F3028227E3
:1010000093270E94BA0708952091F2023091F302CB
:10101000822B932B0E94BA0708952091F2023091FF
:10102000F302822393230E94BA0708952091F202CB
:101030003091F302822793270E94BA0708950895FA
:10104000262F277091E001C0990F2A95EAF723E037
:10105000769567952A95E1F7660F771F660F771FDC
:10106000FA01E60FF71F50E040E0682F70E0819131
:10107000DF0111979B01042E02C0369527950A9433
:10108000E2F7217021952827292328272C934F5FE9
:101090005F4F4430510559F70895A82FA77023E0FA
:1010A000969587952A95E1F7880F991F880F991FC4
:1010B000FB01E80FF91F50E040E080E0219130E0B3
:1010C0000A2E02C0369527950A94E2F7217033273D
:1010D000042E01C0220F0A94EAF7822B4F5F5F4F64
:1010E0004430510559F70895262F953070F48F300C
:1010F00060F4682F70E08FE0989F600D711D1124DF
:101100004AEC52E0822F0E9420080895292F953042
:1011100068F48F3058F490E06AEC72E03FE0239F6F
:10112000800D911D11240E944D08089580E00895BE
:10113000B0E0A0E0EEE9F8E00C94032B7C01009114
:10114000F2021091F3028091F4029091F502082BC3
:10115000192BCFE0D0E0CC24C394D12CBC2EC601F7
:101160000C2E02C0880F991F0A94E2F78023912366
:10117000892B49F4219790F7B12C8B2DCDB7DEB791
:10118000E9E00C941F2BB7018C2F0E94B90F019737
:1011900089F3F3CFCF93DF93EC010E949808BE014F
:1011A0000E94B90FDF91CF9108951F93CF93DF93E2
:1011B000EB019091C902992339F0CB010E94CA0832
:1011C000DF91CF911F910895882369F0CB010E9490
:1011D0009808182F682FCE010E947408BE01812F35
:1011E0000E94B90FEDCFCB010E948608182FF6CFD1
:1011F0001F93CF93DF93C091F60217E08091F7021F
:101200008C1304C0DF91CF911F910895D0E01C9FF3
:10121000F0011D9FF00D1124E850FD4F2081318118
:10122000428153816481758186810E948007219665
:10123000C770E4CF209130033091310340913203E5
:1012400050913303609134037091350380913603DC
:101250000E9480070895CF93DF9380913603807FAB
:1012600009F04DC080913503882309F448C0E0910E
:10127000F6025091F702C0913103D0913003609192
:1012800032037091330347E05E17C9F18E2F90E06F
:10129000E49FF0011124E850FD4F2481222391F1B5
:1012A000489FF001499FF00D1124DF01A850BD4F68
:1012B00011962C9111972C1325C02C912D1322C01F
:1012C00015962C91159721111DC012962D913C91C8
:1012D000261B370B283C3105A8F4809136038F700C
:1012E000806180933603E250FD4F80818F70806172
:1012F000808380E393E00E9414070E94F808DF9146
:10130000CF910895FC013196E770BECF482F209110
:10131000F6029091F70257E0291302C080E0089589
:1013200030E0529FF001539FF00D1124E850FD4F23
:101330008181681306C08081481303C085818111B3
:10134000EECF2F5F3F4F2770E7CFA4E1B0E0EBEA8D
:10135000F9E00C94002B8C0186E0F801DE011F9669
:1013600001900D928A95E1F7F8018481E58090E380
:10137000A92E93E0B92E9091340391111FC08823B8
:10138000D1F0EE20A9F0C8010E946907F82E882349
:1013900079F087E0F801D50101900D928A95E1F787
:1013A000C5010E946B040E942B090E941A095FC0AC
:1013B000C8010E941407FF24F39459C0C080D18053
:1013C00082809380F0903503209132033091330373
:1013D000A401421B530BFF2009F4F9C0483C5105FE
:1013E00008F0A7C0882309F442C09091310380918E
:1013F0003603282F207F09F05CC09D1116C0909104
:101400003003C91212C0E1104EC08F70806180930A
:1014100036030E941A0980E393E00E94140780912A
:101420003603F8018683F12C22C0E1103CC06D2DFB
:101430008C2D0E9486096D2D8C2D0E948609E82E28
:101440008111F1CFCF86D88A8F8598890E94CA08EA
:10145000292F22952F70243078F49F702230A8F025
:101460009923B9F0F8019681907F99F4FE2C8F2D85
:101470006496ECE00C941C2B2A5F2F70223068F0ED
:10148000C8010E941407EF2CF1CF992311F0882393
:1014900069F3805E883050F3F3CF803F38F3815F8B
:1014A000833070F7E3CF80913603816080933603F9
:1014B000BACF9D1113C090913003C9120FC0E11033
:1014C0000DC08683C8010E94140787E0F801A0E3DD
:1014D000B3E001900D928A95E1F767CFC8010E94B1
:1014E0006907882309F464CFEE2009F461CF809165
:1014F0003603803288F020913003309131033987F0
:1015000028879B868A86909134039C871D868E87C8
:10151000CE0108960E94140787E0F801A0E3B3E02B
:1015200001900D928A95E1F70E942B090E941A09F9
:1015300042CF90913603292F207FA1F4682D9A8AFB
:10154000898AA6017A899E2D0E94760780E393E01E
:101550000E94140787E0F50111928A95E9F70E942D
:101560001A0961CF882309F482CF809131038D114C
:1015700010C080913003C8120CC0E1100AC09683DD
:10158000C8010E94140787E0F50111928A95E9F7D6
:101590006ECFC8010E946907882309F409CFEE20A5
:1015A00009F406CF80913603803208F4B5CF20913C
:1015B0003003309131033A8329839C828B8290914E
:1015C00034039D831E828F83CE010196A3CF483CB6
:1015D0005105B8F5882309F4EECEFE2CEE2009F46F
:1015E000E7CE809131038D111EC080913003C81267
:1015F0001AC08091360380FD0DC0982F907F51F066
:101600008683903F09F45ECF982F907F905F8F7014
:10161000892B57CF87E0F801A0E3B3E001900D924A
:101620008A95E1F724CFC8010E946907811174CF20
:1016300080913603816080933603C8010E941407AD
:1016400016CF682D9A8A898AA6017A899E2D0E94D2
:10165000760787E0F50111928A95E9F7A6CEAEE00C
:10166000B0E0E5E3FBE00C94092B288739874A8733
:101670005B876C877D878E87CE0108960E94A509BF
:101680008823B1F06C85662341F0288539854A8529
:101690005B857D858E850E94800717E08091F6022C
:1016A0009091F70289133DC02E96E3E00C94252B10
:1016B00087E0FE013896DE01119601900D928A9521
:1016C000E1F78C85882349F32091F70230E0C901C6
:1016D0000196877099274091F6024817190699F0EC
:1016E00097E0929FD001939FB00D1124A850BD4F59
:1016F000FE01319601900D929A95E1F78093F702E1
:101700000E94F808CACF0E9449071092F70210926F
:10171000F60287E0E0E3F3E0DF011D928A95E9F746
:10172000BCCF819FC001112488509D4F0E94A50904
:10173000882309F4B9CFE091F6021E9FF00111242D
:10174000E850FD4F20813181428153816481758150
:1017500086810E9480078091F60290E00196877052
:1017600099278093F6029ACF80915F03869586959C
:101770008695089580915F038770089590915F0327
:10178000977081E009F480E0089580918B030895BB
:1017900090918B03892B80938B0308958095909172
:1017A0008B03982390938B03089510928B030895D5
:1017B00090918A03892B80938A0308958095909154
:1017C0008A03982390938A03089510928A030895B8
:1017D00008950E94E80B089590916003292F282313
:1017E00031F080958923809360030E94E90B08956E
:1017F00008950E94F80B089590916103292F2823E2
:10180000281729F0982B909361030E94F90B0895F3
:1018100090916103292F282331F0809589238093AB
:1018200061030E94F90B089580916103882329F0D8
:101830001092610380E00E94F90B0895CF93C0914C
:101840008B0380918A03C82B80916103882331F038
:10185000C82B0E940F2281110E94140C8C2FCF9153
:101860000895CF93DF93C0911302D09114020E9488
:101870001E0C8883C0911302D091140248E050E0FE
:1018800067E573E0CE010E94312B892B59F088E087
:10189000FE01A7E5B3E001900D928A95E1F7CE0134
:1018A0000E94AC21DF91CF910895CF93DF93C09137
:1018B0001102D09112020E941E0C8983C091110264
:1018C000D091120240E250E067E373E0CE010E9443
:1018D000312B892B59F080E2FE01A7E3B3E00190A0
:1018E0000D928A95E1F7CE010E94B721DF91CF9149
:1018F000089580912702882339F08091040587FF9D
:1019000003C00E94550C08950E94310C089508955B
:101910000E94870C08959091050592FF11C098E0F0
:10192000899F90011124622B60935F030E94D2076C
:1019300080915F038695869586950E94880C089510
:101940000E94D207089510925F0380E00E94880CE5
:10195000089590915F038095892380935F03282FDA
:10196000277069F4891759F09091050592FF07C017
:101970008695869586950E94E2070E94A30C08959D
:101980009091050592FB222720F9281769F080FB2A
:1019900092F99093050580910405909105050E94A8
:1019A000080D82E00E94A90C08958091050582FB34
:1019B000882780F991E089270E94C00C089581E072
:1019C0000E94C00C089580E00E94C00C08956FEF43
:1019D0007FEF90E080E00E94932B089590E080E0FC
:1019E0000E945F2B21E0853E9E4F09F020E0822F70
:1019F000089582E090E00E94572B089583E090E0E4
:101A00000E94572B089584E090E00E945F2B089578
:101A1000BC0184E090E00E94932B0895AB01BC01CF
:101A20008FE090E00E94872B0895AB01BC0183E119
:101A300090E00E94872B089560E070E0CB010E9447
:101A4000150D089560E070E0CB010E940E0D0E941C
:101A50001C0D0895A8E0B0E0E0E3FDE00C940A2B33
:101A600065EE7EEF90E080E00E94932B60E082E0E4
:101A700090E00E94752B81E090E09093F5028093B6
:101A8000F40261E083E090E00E94752B60E074E175
:101A900084E090E00E94932B60E086E090E00E945A
:101AA000752B60E087E090E00E94752B40E050E0ED
:101AB000BA0188E090E00E94872B60E083E290E02A
:101AC0000E94752B60E08CE090E00E94752B60E036
:101AD0008DE090E00E94752B19821A821B821C8275
:101AE0001D821E821F82188648E050E067E170E088
:101AF000CE0101960E94652B40E050E0BA018FE1D3
:101B000090E00E94872B0E94220D2896E2E00C9420
:101B1000262B0E942A0D0895682F8EE090E00E94E7
:101B2000752B0895A6E0B0E0E8E9FDE00C94082BE1
:101B30000E94A8238C0180918C0390918D038017C3
:101B4000910781F019821A820E94A823682F498187
:101B50005A81792F80E090E00E943B0410938D031E
:101B600000938C032696E4E00C94242B0E94B4236B
:101B700060939C0370939D0380939E0390939F03B7
:101B8000609398037093990380939A0390939B03B7
:101B90000895089508950E94C90D089508950E941A
:101BA000CE0D08958FEA90E10E9417120E94CA0D8F
:101BB0000E94CB0D089581E008950E94DB0D0895E9
:101BC0000E94DB0D0895089508950E94E30D0E9480
:101BD000E40D08950E94EE0C811102C00E94890D4F
:101BE0000E94F90C8093A0030E94030D90930505B9
:101BF000809304050E94E61F0E94FE0C90E00E9464
:101C000096078091F2029091F3020E94B70708951F
:101C10000E949F230E9472110E94EA0D0E940F04ED
:101C20000E94CE1D0E94CF0D0895A6E0B0E0EBE12A
:101C3000FEE00C94FE2A0E94DD0D81110AC00E9474
:101C4000920D0E94691D0E9422042696EEE00C94DB
:101C50001A2B0E9488112EE8822E23E0922E640116
:101C600010E0F601E190F1906F01812F0E94B91010
:101C70001F5F153009F44EC0E816F90691F3809104
:101C8000A00381FD0E94C2100E94E00D682E10E0AA
:101C9000812F0E94B9107C01F401A190B1904F01F5
:101CA0008A159B0589F100E0CC24C394D12CAE2485
:101CB000BF24C5018C219D21892BE9F077247394E1
:101CC000C7018C219D21892B09F4712C662071F0AC
:101CD00009831A830E94A823682F8B839C834981E0
:101CE0005A81792F81E0972D0E943B04472D602F68
:101CF000812F0E943A160F5FCC0CDD1C0F30C9F605
:101D0000F4013297F182E0821F5F153009F60E94DC
:101D1000B60D97CFE816F90609F0B1CF90CF1F9313
:101D2000CF93DF930E94BE0FEC01C11580E5D80769
:101D3000F0F5C11580E4D80708F09CC0C03ED1057D
:101D400020F5CD3CD10508F082C0C83AD10578F421
:101D5000C53AD10508F073C0C130D10519F12097FB
:101D600009F1C430D105F0F4D0E0C0E01BC0C33CA1
:101D7000D105D0F7C85AD0E0CC0FDD1FCC59DD4FCC
:101D80000990D881C02DD4640DC0C11580E2D80758
:101D900008F0D1C0C11581E0D80708F05AC0C83E8C
:101DA000D10510F7CE01DF91CF911F910895C03674
:101DB00082E5D80718F5C03482E5D80708F06BC073
:101DC000C03282E5D80708F05FC0C11582E5D807A8
:101DD00008F497C02C2F2695269580E2289F900125
:101DE00011248C2F8370C1E0D0E002C0CC0FDD1F26
:101DF0008A95E2F7C22BD32BDD68D4CFC03A82E5B7
:101E0000D80760F4C03882E5D80708F459C0CF710C
:101E1000D0E0DC2FCC27C46FD06AC4CFC03C82E5B1
:101E2000D80708F462C0C03E82E5D80708F09CCF0E
:101E3000DC2FCC27CC27DF71C06FD06AB3CFC55A57
:101E4000D0E0C656DD4FC881D0E0D064ABCFD065BE
:101E5000A9CF8D2F0E946010182FCE0199270E94C4
:101E6000BE0FC12FD0E0DC2FCC27CC27DF71C82BD1
:101E7000D92B98CFCE0199270E94BE0FCC27DF70B7
:101E8000C82BD92BD06A8ECFCF71D0E0DC2FCC27D6
:101E9000C16FD06A87CF2C2F26952695277080E2B8
:101EA000289F900111248C2F8370C1E0D0E002C0E4
:101EB000CC0FDD1F8A95E2F7C22BD32BDC6872CFE3
:101EC0002C2F26952695277080E2289F90011124BB
:101ED0008C2F8370C1E0D0E002C0CC0FDD1F8A954B
:101EE000E2F7C22BD32BDA685DCF8C2F8F710E9463
:101EF0006010C82FD0E0DC2FCC27CC27DF71D06258
:101F000051CF8C2F8F710E94601055E0D695C795E8
:101F10005A95E1F7CF70D0E0DC2FCC27282F30E0A6
:101F200084FF05C044E0220F331F4A95E1F7C22B1E
:101F3000D32BD06937CF8D2F8F710E946010182F4F
:101F4000CE0199270E94BE0FC12FD0E0DC2FCC27F5
:101F5000CC27DF71C82BD92BD2CF462F753030F468
:101F60006F3020F4672F0E940603089590E080E010
:101F700008950E94AD0F0E948F0E0895823891053A
:101F8000B9F1B0F48133910509F47DC048F4893288
:101F9000910509F46DC08A32910509F47BC008955A
:101FA0008533910509F45FC08933910509F10895DE
:101FB000833E9105D9F138F4803E910529F1823EA6
:101FC000910579F10895863E9105D9F1873E9105F5
:101FD00009F43EC0843E910541F52091050521FF9D
:101FE00024C08091040584FD19C087EE90E0089517
:101FF00020910405237009F05AC02091050523FFA4
:1020000014C089E290E008952091040520FD38C0B5
:102010003091050530FF09C024FF43C090E080E007
:1020200008952091040522FDF7CF0895209104051D
:1020300022FD3AC03091050530FD39C024FFF5CFAF
:10204000EDCF2091040523FFF0CF24FDE7CFCDCFC6
:102050002091040523FD2EC03091050531FFEECF00
:1020600084EE90E008952091040525FFDECFC9CFCE
:102070002091040525FD21C02091050523FFD5CF22
:1020800089E390E0D2CF2091040526FFCECF8AE2EB
:1020900090E008952091040526FFC7CF81E390E0EA
:1020A000089583EE90E0089582EE90E0089580EE2A
:1020B00090E0089586EE90E0089585E390E008951D
:1020C0009091040592FF10C041E0282F2471243024
:1020D00009F040E031E0282F2871283009F030E085
:1020E000431711F02CE0822793FF10C041E0282F06
:1020F0002471243109F040E031E0282F2871283183
:1021000009F030E0431711F02CE0822730910505EB
:1021100030FF10C051E0282F2171213009F050E02C
:1021200041E0282F2871283009F040E0541711F0C1
:1021300029E0822731FF10C041E0282F2171213191
:1021400009F040E031E0282F2871283109F030E013
:10215000431711F029E0822794FD877E089580E0DF
:10216000089508950E94B110089508950E94B51031
:102170000895E82FF0E0EE0FFF1FE05FFA4F808137
:1021800091810895089580EA8A95F1F7089500C035
:1021900008950E94C3100895F894E82FE295EF7017
:1021A000F0E031A1282F2F7081E090E001C0880F6E
:1021B0002A95EAF7982F9095932391A392A1892BC2
:1021C00082A3789408950F931F93CF93DF93CCEA63
:1021D000D2E089918F3F11F00E94CC1082E0C13B88
:1021E000D807B9F7CDE9D2E00CEA12E089918F3F28
:1021F00011F00E94CC100C171D07C1F7DF91CF9191
:102200001F910F910895AF92BF92DF92EF92FF92CC
:102210000F931F93CF93DF938C01D62EC62FD0E060
:10222000CE0184559D4F7C01FC0120812F3F09F494
:102230004CC0F894E22FE295EF70F0E031A12F70DE
:1022400081E090E001C0880F2A95EAF7932F982B40
:1022500091A392A18095892382A378940E94C710AC
:10226000EDE9F2E041E050E0B12CA12C21912F3FAB
:10227000B1F1A22FA295AF70B0E090968C9190E052
:102280002F7002C0959587952A95E2F780FD27C0AB
:10229000CA01A82AB92A440F551F82E0EC3AF80770
:1022A00029F7F70180818F3F11F00E94CC1061E087
:1022B000A114B10409F460E08D2D0E94C910CC0F67
:1022C000DD1FC00FD11FB982A882DF91CF911F916E
:1022D0000F91FF90EF90DF90BF90AF90089590E046
:1022E00080E0D7CF0E94E3108AE0E0E1F5E0DF0173
:1022F000982F1D929A95E9F7E6E0F5E0DF011D922F
:102300008A95E9F785E00E94C3110E94B2100895F2
:10231000AAE0B0E0EEE8F1E10C94072B8E010F5F2C
:102320001F4F8AE0F80111928A95E9F7F12C6F2D81
:10233000C8010E940311F394F5E0FF12F8CF4AE0C0
:1023400050E0B80186E095E00E94312B21E0009733
:1023500009F420E0892B41F08AE0F801A6E0B5E01D
:1023600001900D928A95E1F745E060E175E086E025
:1023700095E00E94C411182F0E94B610812F2A9652
:10238000E5E00C94232B0895B0E0A0E0EAECF1E145
:102390000C94042B6C017B01042FC22F222379F0B3
:1023A00081E08093A3030E94A8239093A2038093CB
:1023B000A10380E0CDB7DEB7E8E00C94202BD091EC
:1023C000A303DD23B1F38091A1039091A2030E94A6
:1023D000C023059770F310E0000F111FA801B6018C
:1023E000C7010E94312B892B31F0A801B601C7012A
:1023F0000E943E2BCD2F1092A3038C2FDBCF0E9487
:10240000150E08950E9441230E947F250E94D20D3F
:102410000E9499250E94080E0E94A6250E94AB25C5
:102420000E94FF110E94CE250E94E50DF7CF9093E8
:10243000C3028093C2020895EF92FF920F931F93FD
:10244000CF93DF93EB01E82FD1110EC0442321F08D
:10245000F0E0EC5FFC4FE4916E2F7E2F8E2FCDB716
:10246000DEB7E6E00C94222B0D2F10E0282F30E091
:10247000442329F02C5F3C4FF901249130E0F6E031
:10248000CF9FC0011124EFEFF0E0BF010E94CC2AE2
:10249000AB018C2F90E0880F991FA5E5A49FB00198
:1024A000A59F700D1124861B970B982F990F980FDD
:1024B000BF01601B710B629FD001639FB00D729FC3
:1024C000B00D11248B2F9D9FB0011124672F77270A
:1024D000EF01C61BD70BBE01629FE001639FD00DC9
:1024E000729FD00D11247F01E91AF108E09EB0011E
:1024F000E19E700DF09E700D1124672F7727E61B6B
:10250000F70BE29F8001E39F100DF29F100D112445
:10251000E12F722F4230510599F048F441155105D1
:1025200069F04130510581F0EB2F8D2F07C0443009
:10253000510569F080F046305105B1F76E2F8FCF0D
:10254000E22F7B2F812FFACFE22F7D2FF7CFEB2FBA
:10255000822F712FF3CF7B2F822FED2FEFCF41E012
:102560000E941C12089530E020E0869F212D969F46
:10257000200D311D1124C9010895AC01823091054F
:1025800008F408959FEF413E8EE1580740F49A0108
:1025900095E0369527959A95E1F798E0920F61E0DE
:1025A000E62FE90FFF27FF1F9F0135952795822F03
:1025B000229FF001239FF00DF00D11244E175F07AD
:1025C00038F49FEF920F961758F78FEF860F089504
:1025D0002F3FE9F361E0620FF6CF40911B0250916B
:1025E0001C0225E038E0429FC001439F900D529F9E
:1025F000900D1124875E994C90931C0280931B02CE
:10260000890F0895E82F86FDE0952E2F2F7086FD07
:102610002F5FE695E695E695E670F0E0EF54FD4F06
:102620009181929F902D212D112492959F7022953A
:10263000207F922B2081920F87FD919580E8890F52
:102640000895E42FF0E0EE0FFF1FE55BFE4F4081A1
:1026500034EE439F412D1124E82FF0E050E0445E1A
:102660005F4FDA01A21BB1099D01B7FF03C031958D
:102670002195310993E0220F331F9A95E1F7AF01BD
:10268000421B530B9A0157FD20E0582F259F212D07
:102690001124822F0895622F0895E42FF0E0EE0FA9
:1026A000FF1FE55BFE4F6081621B0895E42FF0E0A1
:1026B000EE0FFF1FE45BFE4F6081621B0895322F17
:1026C00050E0FA01EE0FFF1FE45BFE4F9081905245
:1026D00097FD9195440F551FFA01E55BFE4F208150
:1026E000231B330B290F311D97FD3A95620F089577
:1026F000EF920F93972F23E0029FB001112475955D
:1027000067956E0D792F0F91EF9008950F93CF93EA
:10271000DF93D72FC82F47FD419588E390E0841BB6
:10272000910947FD9395889FB001899F700D700DA9
:102730001124229FC001239F900D900D1124860F1C
:10274000971F0E94BD12982F990F890F682F600F55
:102750007D2F8C2FDF91CF910F9108950F931F93B1
:10276000522F10E0F801EE0FFF1FE45BFE4FA08137
:10277000A052BB0B9D015203F001539FF00D112499
:10278000000F111FD801A55BBE4F0C910057110B14
:1027900040039001419F300D11242E0F3F1F37FF42
:1027A00002C021583F4F220F232F221F330B620FED
:1027B0001F910F9108950F931F93522F10E0F8016E
:1027C000EE0FFF1FE45BFE4FA081A052BB0B9D01EB
:1027D0005203F001539FF00D1124000F111FD80177
:1027E000A55BBE4F0C910057110B40039001419F18
:1027F000300D11242E0F3F1F37FF02C0215C3F4FC9
:1028000096E0359527959A95E1F7620F1F910F9104
:1028100008950F931F9310E0F801EE0FFF1FE55B83
:10282000FE4F9081905797FD9195000F111FF80171
:10283000E45BFE4F00810052110B2003F001219F49
:10284000F00D112408E310E0091B110997FD139501
:1028500040039001419F300D1124E20FF31F9F01AF
:10286000220F331F2E0F3F1F37FF02C021583F4F4B
:10287000220F232F221F330B620F1F910F910895F8
:102880000F931F93CF93DF938B01D82FC42F822FE9
:102890000E940213EC2FF0E0EE0FFF1FE55BFE4FEE
:1028A00090819058890F87FD8195880F682F2CE0C3
:1028B000629F612D1124600F712F8D2FDF91CF91B9
:1028C0001F910F910895E42FF0E0EE0FFF1FE55BDD
:1028D000FE4F9081921B97FD9195292F38E1239F00
:1028E000212D1124620F089520911E0530E1230F40
:1028F00008F42FEF60E1822F90E00E94B312BC0138
:1029000088EB9BE00E94CC2A90E080E008959091B3
:102910009904892B809399040895FC019B010097E9
:1029200029F480E077FF2BC080E80895AC0197FF81
:1029300004C044275527481B590BB901640F751F64
:1029400037FD10C0241B350BC901A5E0880F991F66
:10295000AA95E1F70E94E02A80E2861BF7FF0FC0EC
:1029600081950895CB0165E0880F991F6A95E1F77D
:10297000BA01621B730B0E94E02A80E6EECF089535
:102980000F931F93CF93DF93D62FC72F182FC90113
:10299000212F201B022FBA010E948D14982F990F0E
:1029A000990F891B800F282F219F212D1124822F01
:1029B0006D2F7C2FDF91CF911F910F910895EF9292
:1029C0000F931F93CF93DF93D62FC72F182FC901D3
:1029D0000E19010FBA010E948D14081B202F219F90
:1029E000212D1124822F6D2F7C2FDF91CF911F91EC
:1029F0000F91EF9008950F93CF93DF93D72FC82FA8
:102A0000C901BA010E948D14682F600F7D2F8C2F91
:102A1000DF91CF910F910895EF920F93CF93DF93B2
:102A2000D72FC82FC9010E19BA010E948D14602F2B
:102A3000681B7D2F8C2FDF91CF910F91EF90089520
:102A400048E050E067E170E08AE195E00E94652B84
:102A50001092990408950E94AF120895B0E0A0E08A
:102A6000E4E3F5E10C94FD2A782E662E862F90E0A3
:102A70002FE0729E80011124F801E050FF4FE80F13
:102A8000F91FC081CF3FA9F1B12CA12C812CD0E03E
:102A90009E01220F331FA901455B5E4F6A01E901C8
:102AA000C45BDE4F01561B4F080F191F7501912C97
:102AB00088E2582EF701E050FF4F80818F3F59F098
:102AC00078101CC069101AC0F801208130E2230F71
:102AD00008F42FEF208393944FEFE41AF40A5FE099
:102AE0009512E8CF83948FE0A80EB11CE5E08E121A
:102AF000DDCFCDB7DEB7EFE00C94192B90E0F601F7
:102B00002081FC01EE0FFF1FE55BFE4F3081231B90
:102B1000330B4881880F991FFC01E45BFE4F8081D5
:102B2000481B550B229FB001239F700D700D11247F
:102B3000449FC001459F900D900D1124860F971F53
:102B40000E94BD12893238F6252D382F231B08F438
:102B500020E0F701E156FB4F213108F020E1308100
:102B6000320F08F43FEF3083B6CFEAE1F5E081E2BF
:102B700080838091280290912902A0912A0281836A
:102B80009283A3838FE784838FEF85830E94201530
:102B90000895E091BF02F091C00209950895E09177
:102BA000BB02F091BC0209950895B0E0A0E0EBED06
:102BB000F5E10C94052B8C01FC01E153FE4F808163
:102BC000682349F1D0901C05D0911D05C0911B05CB
:102BD000EC2EF12C0E94ED12282FC7018C549F4F30
:102BE00068E671E00E94E02A8E199F0997FD03961E
:102BF000959587959595879523706C2F289F600DE7
:102C000011247D2D8D2F0E942B15462F282F672FE5
:102C1000C8010E94CF15CDB7DEB7E7E00C94212B99
:102C20001F93CF93DF93EC01FC01E153FE4F8081B2
:102C30006823B1F00E94ED12182F0E94ED1220E8D7
:102C4000829FC00111247FE7790F612F80911D05BC
:102C50000E942B15462F282F672FCE010E94CF15DB
:102C6000DF91CF911F910895E091BD02F091BE02D6
:102C7000099508951F93CF93DF93C82FD62F142F54
:102C80000E94DB0D882359F0112349F080911A0529
:102C90008C7F8C3621F46D2F8C2F0E942E15DF91A6
:102CA000CF911F91089581E008959EE0899F802D26
:102CB0001124980F933408F092E40895B0E0A0E056
:102CC000E4E6F6E10C94FE2A5C014B01FC018081F4
:102CD0000E945516C82F192F60911E056695809188
:102CE0002205909123050E94B312F82ED0E0C1175F
:102CF00048F081E0123408F080E0CDB7DEB7EEE0B6
:102D00000C941A2BFE01E153FE4F8081F501918155
:102D10008923C9F1CE01880F991F80509F4FFC0174
:102D2000E55BFF4F2081422F4057550B6A01845BC2
:102D30009F4FFC018081282F2052330B3901449F83
:102D40009001459F300D300D1124669CC001679C99
:102D5000900D900D1124820F931F0E94BD12082F19
:102D600060911B0570911C0580911D05EF2C93014E
:102D7000A601F40109950E942B15462F282F672FD5
:102D8000CE010E94CF152196B2CF6FED74E10E9463
:102D90005E16089568E773E10E945E1608956CE080
:102DA00075E10E945E160895B0E0A0E0EAEDF6E15C
:102DB0000C94032B6C017B01FC0180810E94551651
:102DC000C82F192F60911E0566958091220590915C
:102DD00023050E94B312B82ED0E0C11748F081E05D
:102DE000123408F080E0CDB7DEB7E9E00C941F2B79
:102DF000FE01E153FE4F8081F6019181892311F19B
:102E0000CE01880F991F80509F4FFC01E45BFF4F5C
:102E100020812052330B855B9F4FFC01408140573E
:102E2000550B60911B0570911C0580911D050B2DA4
:102E3000F70109950E942B15462F282F672FCE01E9
:102E40000E94CF152196C9CF60EC74E10E94D41680
:102E5000089566E873E10E94D41608956BEF74E15B
:102E60000E94D4160895B0E0A0E0E9E3F7E10C94E5
:102E7000042B7C018B01FC0180810E945516C82F18
:102E8000D92E60911E056695669521E0620F08F4C3
:102E90006FEF80912205909123050E94B312C82EF6
:102EA000D0E0CD1550F081E091E49D1508F480E06C
:102EB000CDB7DEB7E8E00C94202BFE01E153FE4FC6
:102EC0008081F7019181892391F060911B057091B8
:102ED0001C0580911D052C2D4C2FF80109950E9491
:102EE0002B15462F282F672FCE010E94CF15219634
:102EF000D8CF61E273E10E94331708956BE473E168
:102F00000E94331708956DE473E10E94331708950A
:102F100066E573E10E94331708956FE573E10E943F
:102F20003317089560E474E10E943317089563E64F
:102F300074E10E9433170895B0E0A0E0E2EAF7E1FF
:102F40000C94002B5C016B01FC0180810E945516E2
:102F5000C82FF92E60911E05669566958091220511
:102F6000909123050E94B312182F80E4810F0E94D4
:102F7000021390E8992E980E812F0E94021320E8E8
:102F8000822E880ED0E0CF1550F081E091E49F159D
:102F900008F480E0CDB7DEB7ECE00C941C2BFE010A
:102FA000E153FE4F8081F50191818923A1F0609169
:102FB0001B0570911C0580911D05E12E0C2F282DFD
:102FC000492DF60109950E942B15462F282F672FB2
:102FD000CE010E94CF152196D6CF6EEA73E10E94F2
:102FE0009C1708956BED73E10E949C17089569E0AA
:102FF00074E10E949C170895B0E0A0E0E2E0F8E1DF
:103000000C94042B7C01FC0180810E945516C82F72
:10301000192F60911B0570911C0580911D050E9460
:103020002B15062FD72EC82ED0E0C11748F081E00F
:10303000123408F080E0CDB7DEB7E8E00C94202B26
:10304000FE01E153FE4F8081F7019181892331F028
:103050002C2D402F6D2DCE010E94CF152196E5CF4E
:10306000B0E0A0E0E6E3F8E10C94012B7C01FC0168
:1030700080810E945516C82F192FD0901C050091F1
:103080001D05D0911B056D2F7D2D802F0E942B15C6
:10309000C62EB72EA82E60911E056D0F7D2D802F98
:1030A0000E942B15062FD72E982ED0E0C11748F07E
:1030B00081E0123408F080E0CDB7DEB7EBE00C948D
:1030C0001D2BFE01E153FE4F9081F7018181892381
:1030D00059F0292D402F6D2D90FD03C02A2D4C2D28
:1030E0006B2DCE010E94CF152196E0CFB0E0A0E07D
:1030F000ECE7F8E10C94042B7C01FC0180810E9438
:103100005516092FD0901C05C0901D0520911E0555
:1031100010E4129F112D1124C82FD0E0C01748F0E1
:1031200081E0023408F080E0CDB7DEB7E8E00C942F
:10313000202BFE01E153FE4F8081F701918189230D
:10314000D9F0FE01EE0FFF1FE55BFE4F6081169F79
:10315000B001112495E0759567959A95E1F78091F6
:103160001B05680F7D2D8C2D0E942B15462F282FB7
:10317000672FCE010E94CF152196D0CFB0E0A0E0FE
:10318000E4ECF8E10C94042B8C01FC0180810E949A
:103190005516C82FF92EE0901B05D0911C05D09034
:1031A0001D0560911E0566956695669580912205C0
:1031B000909123050E94B3120E940213805887FD4C
:1031C0008195880F282F3D2D239F212D1124822F9B
:1031D0006E2D7D2F0E942B15E62ED72EC82ED0E007
:1031E000CF1550F081E021E42F1508F480E0CDB731
:1031F000DEB7E8E00C94202BFE01E153FE4F808106
:10320000F8019181892331F02C2D4E2D6D2DCE01A9
:103210000E94CF152196E4CFCF92DF92FF920F93B9
:103220001F93CF93DF938C01FC0180810E94551680
:10323000F92EF801928191112BC060911E0520E1B9
:10324000620F08F46FEF80912205909123050E9490
:10325000B3126AE070E00E94CC2A892B61F40E94CC
:10326000ED12F2E48F9FC0011124F8016181892FD2
:1032700090E00E94D51581E0F1E4FF1508F480E0AC
:10328000DF91CF911F910F91FF90DF90CF90089524
:10329000C82FD0E0CF2CD12CCC15DD0564F7F80178
:1032A0006181CE010E94D5152196F6CFCF92DF9293
:1032B000FF920F931F93CF93DF938C01FC018081CA
:1032C0000E945516F92EF801928191112BC0609140
:1032D0001E0520E1620F08F46FEF809122059091A6
:1032E00023050E94B31265E070E00E94CC2A892B6E
:1032F00061F40E94ED12F2E48F9FC0011124F801E5
:103300006181892F90E00E94101681E0F1E4FF15A1
:1033100008F480E0DF91CF911F910F91FF90DF9033
:10332000CF900895C82FD0E0CF2CD12CCC15DD053F
:1033300064F7F8016181CE010E9410162196F6CF44
:10334000B0E0A0E0E6EAF9E10C94042B8C01FC016A
:1033500080810E945516C82FF92ED0901C05E09050
:103360001D05D0911B0560911E05669566956695B5
:1033700080912205909123050E94B3120E940213AE
:10338000805887FD8195880F682F2CE0629F612D02
:1033900011246D0F7D2D8E2D0E94AF12E62ED72E9B
:1033A000C82ED0E0CF1550F081E091E49F1508F4CD
:1033B00080E0CDB7DEB7E8E00C94202BFE01E153AE
:1033C000FE4F8081F8019181892331F02C2D4E2D03
:1033D0006D2DCE010E94CF152196E4CFB0E0A0E084
:1033E000E4EFF9E10C94FE2A7C01DC018C910E944F
:1033F0005516682E992EF7018281882361F040E0EE
:1034000060E080E00E943416EFE9F4E08BE4DF0135
:103410001D928A95E9F7F7018081811115C080918D
:10342000EB049091EC040E94C02321E089319105C6
:1034300008F420E02093EA04499730F00E94A82382
:103440009093EC048093EB04B12C00E0A12C8FE06E
:10345000782E9AEA892E05C08DE08A1508F457C0A7
:1034600000E0802F90E07B9CE00111249E01205021
:103470003F4F6901C80ED91ED601EC91E61508F43C
:103480003EC0E91508F03BC0A394F0E0E153FE4FC5
:103490002081F7013181232309F431C0C156DB4F6C
:1034A000C80FD91F1881212F35E5231B08F420E010
:1034B000682D621B70911C05282D210F08F42FEF39
:1034C00030911D05822F880F820F8E5F282F239F3A
:1034D000212D1124822F0E942B15462FD6019C915D
:1034E000282F672F892F90E00E94CF158091EA0442
:1034F000882329F021E0121B08F410E018830F5FE5
:103500000F3009F0AECFB39435E0B312A5CF81E010
:1035100091E4991508F480E0CDB7DEB7EEE00C94A5
:103520001A2BB0E0A0E0E7E9FAE10C94FC2AF82EAF
:10353000809119028F1124C090911A0593702091E7
:103540001A0230E081E09217130609F480E08170DE
:103550008093180280911F0590911702981739F0F7
:103560008093170240E060E080E00E9434162BE177
:103570002F1590F0EF2DF0E0E955F44D0C94F42A5E
:1035800081E0E5CFC0911802CC2309F4DEC040E011
:1035900060E080E00E943416C0E0D7C086E192E08F
:1035A0000E94FC17C82FD1C086E192E00E9430181B
:1035B000F9CF86E192E00E947618F4CF86E192E09E
:1035C0000E94BE18EFCF86E192E00E947917EACF01
:1035D00086E192E00E942417E5CF86E192E00E9406
:1035E000C516E0CF86E192E00E947E17DBCF86E130
:1035F00092E00E948317D6CF86E192E00E9488175E
:10360000D1CF86E192E00E948D17CCCF86E192E087
:103610000E94CA16C7CF86E192E00E942917C2CF46
:1036200086E192E00E942E17BDCF86E192E00E94D3
:10363000CF16B8CF86E192E00E94ED17B3CF86E1B6
:1036400092E00E94F217AECF86E192E00E94F71757
:10365000A9CF86E192E00E940C19A4CF86E192E006
:103660000E9456199FCF86E192E00E94A0199ACF3E
:1036700086E192E00E94921795CF86E192E00E9447
:10368000971790CF809116020E945516192F4091DE
:1036900022055091230560912405709125058091A4
:1036A000950490919604A0919704B0919804841782
:1036B0009507A607B70708F044C00E94ED1292E4F0
:1036C000899FE0011124CD2FDD27FE01E153FE4F3C
:1036D0008081909117028923A1F10E94ED1281FF50
:1036E0004CC000E070E080E0602F0E942B15462F58
:1036F000282F672FCE010E94CF1520911E0530E1A3
:10370000230F08F42FEF60E1822F90E00E94B312A4
:10371000BC0184EF91E00E94CC2A80912205909117
:103720002305A0912405B0912505860F971FA11DA3
:10373000B11D8093950490939604A0939704B09341
:103740009804C1E0123408F027CF809116028F5FF1
:1037500080931602C1110CC082E080931502809103
:103760001802811105C0F11003C083E08093150297
:10377000CDB7DEB7E0E10C94182B0E94ED12082FB4
:103780000E94ED12E0E88E9FC00111247FE7790FBF
:1037900080911D05A9CF40919104509192046091B0
:1037A0009304709194048091220590912305A09137
:1037B0002405B091250584179507A607B70708F4D7
:1037C000EBCE8091180281111DC0809116020E94DB
:1037D0005516092FA82EB12CF3E08F9FE00111247C
:1037E000C553DC4FA01608F443C0C1E0023408F012
:1037F000C0E0023408F4A9CF20E0802F8150990B5B
:103800006C015FC040E060E080E00E9434160BEC89
:1038100013E0D0E0C0E00E94ED1281FF0BC0F80180
:1038200010821182128221960D5F1F4FC234D10582
:1038300091F7CBCF0E94ED12E82E0E94ED12F0E836
:103840008F9FC00111247FE7790F6E01CC0CDD1C26
:10385000CC0EDD1EC60185539C4F6C016E2D8091F0
:103860001D050E94AF12F601608371838283DBCF56
:10387000F501E153FE4F808190911702892331F0C9
:103880002A8148816981C5010E94CF152396FFEFE7
:10389000AF1ABF0AA7CFFC01EE0FFF1FE80FF91FF9
:1038A000E553FC4F0196DC01AA0FBB1FA80FB91FFF
:1038B000A553BC4F8D919D91AC9180839183A28340
:1038C0002F5F822F90E08C159D052CF30E94ED1246
:1038D0008601000F111F81FF21C00C0D1D1DF80175
:1038E000E553FC4F1082118212820E9474140091E1
:1038F0002205109123052091240530912505DC0136
:10390000CB01800F911FA21FB31F8093910490934E
:103910009204A0939304B093940417CF0E94ED12E5
:10392000D82F0E94ED12E0E88E9FC00111247FE79E
:10393000790F0C0D1D1D05531C4F6D2F80911D051A
:103940000E94AF12F801608371838283CECF809191
:103950001802882329F040E060E080E00E943416DD
:10396000809116020E945516E92E40912205509131
:10397000230560912405709125058091C7039091DE
:10398000C803A091C903B091CA0384179507A6077D
:10399000B70708F070C060911B0570911C058091FD
:1039A0001D050E942B15762E672E582E04EA13E073
:1039B000C0E0D1E05E014E01680186E0482EF601CC
:1039C00021916F01F40181914F0190E0222309F4CC
:1039D00058C0252D472D662D0E94CF15F5018685EF
:1039E000252D472D662D90E00E94CF15F601808190
:1039F000319780834A94F1E0AF1AB1084110DFCFCC
:103A00008E8190E0F8012681222309F445C0252DFE
:103A1000472D662D0E94CF158885252D472D662DB3
:103A200090E00E94CF150E94ED12837091E009F0A2
:103A300090E0F8019683095F1F4F2F96F1E0CB3499
:103A4000DF0709F0B7CF0E9474140091220510918E
:103A500023052091240530912505DC01CB01800F41
:103A6000911FA21FB31F8093C7039093C803A09315
:103A7000C903B093CA03C1E021E42E1508F065CE56
:103A80008BCD20E040E060E00E94CF15F5018685F7
:103A900020E040E060E0A7CF20E040E060E00E944E
:103AA000CF15888520E040E060E0BACF86E192E063
:103AB0000E94EE1977CD81E008950E945B1D089564
:103AC000FC01808181500E945516692F0E945D1D66
:103AD0000895CF930E94B42360939A0470939B043B
:103AE00080939C0490939D0420919E04C0E021113A
:103AF00008C020911A05C22FC37019F0C22FC695B5
:103B0000C695209115022130B1F0222331F02230E8
:103B100011F1233059F1CF9108951092160260935C
:103B2000220570932305809324059093250581E059
:103B300080931502F0CF8C2F0E94911ACC2359F359
:103B400080911502823011F40E94D60286E192E043
:103B50000E94601DE0CFC093190280911A05837006
:103B600080931A020E94C91583E0E2CF80919904E4
:103B700081110E942015609122057091230580918A
:103B80002405909125050E94CF23603171058105A0
:103B9000910508F4C0CF10921502BDCFE091B90293
:103BA000F091BA02099581E08093990448E050E0D1
:103BB00067E170E08AE195E00E94472B109299043A
:103BC00080911A058C7F11F40E94B5150895CF934A
:103BD000C82F882391F080919E0481110EC00E940D
:103BE000911A1092190280911A05837080931A021B
:103BF0000E94C91583E080931502C0939E04CF9163
:103C00000895EAE1F5E0908121E0922790831092F7
:103C100015020E948714089581E00E94011E0895F4
:103C200090911A05937051F0811109C0946090939E
:103C30001A0510921502862F0E94871408958C3160
:103C400010F09C66F4CF282F220F220F922BEFCF7B
:103C500061E00E94101E0895682F90911A059695B4
:103C6000969581E0890F8C3108F081E00E94101E4A
:103C7000089581E00E942C1E0895682F90911A05E6
:103C8000969596958FEF890F09F48BE10E94101E8F
:103C9000089581E00E943D1E089590911A05937049
:103CA00061F080931B0560931C05473908F046E9D5
:103CB00040931D05822F0E9487140895AAE1B5E064
:103CC0001196EC911197F0E0282F13964C911397D1
:103CD00012966C91CF0108960E944D1E089581E0C6
:103CE0000E945E1E0895EAE1F5E09181282F43814C
:103CF0006281E92FE850FF0BCF010E944D1E08950D
:103D000081E00E94731E0895EAE1F5E0628128E0F7
:103D1000620F08F46FEF9181282F4381892F90E083
:103D20000E944D1E089581E00E94841E0895EAE1DC
:103D3000F5E0628128E0621B08F460E09181282FA1
:103D40004381892F90E00E944D1E089581E00E94DA
:103D5000971E0895EAE1F5E0438128E0420F08F458
:103D60004FEF9181282F6281892F90E00E944D1E94
:103D7000089581E00E94AA1E0895EAE1F5E04381DA
:103D800028E0421B08F440E09181282F6281892FAE
:103D900090E00E944D1E089581E00E94BD1E08958E
:103DA000EAE1F5E024813AE0230F08F42FEF2483C1
:103DB0000E948714089581E00E94D01E0895EAE1D0
:103DC000F5E024813AE0231B08F420E024830E94DC
:103DD0008714089581E00E94DF1E0895FC01EE0F14
:103DE000FF1FDF01A80FB91FAA5DBA4F11963C91C2
:103DF0001197361307C03C91341304C012963C91BE
:103E0000321751F031E03093ED04E80FF91FEA5D0D
:103E1000FA4F6183408322830895FF920F931F938B
:103E2000CF93DF93182F062FF42ED0E0C0E02F2D74
:103E3000402F612FCE010E94EE1E2196C234D10583
:103E4000B1F7CDB7DEB7E5E00C94232B8091ED04FC
:103E5000882341F062E470E086E295E00E949D1FB5
:103E60001092ED0408950E949B1F1092ED04089596
:103E7000FA01811101C0FB01099508951F93CF93A9
:103E8000DF93EC01FB011581111110C00E94C50BDD
:103E90008272FE01E052F847E531F10508F049C0B1
:103EA000ED53F44D0C94F42A0E940C1E812FDF91E7
:103EB000CF911F91089549E45EE169E37EE10E949C
:103EC000381FF4CF49E35EE169E47EE1F8CF40E8D2
:103ED0005EE16FE67EE1F3CF4FE65EE160E87EE112
:103EE000EECF46EA5EE163E97EE1E9CF43E95EE1D8
:103EF00066EA7EE1E4CF4CEC5EE169EB7EE1DFCF88
:103F000049EB5EE16CEC7EE1DACF4AEE5EE16BED0F
:103F10007EE1D5CF4BED5EE16AEE7EE1D0CF81E070
:103F20000E94281EC3CF84E0FBCF89E0F9CF8EE04A
:103F3000F7CF11E0BBCF6E9A08954EB14F7B5EB1C3
:103F40005064EFB7F8949B01220F331F260F371FE1
:103F5000280F391F2817390741F4EFBF8FE594E088
:103F60000197F1F700C000000895DC016D91CD01CB
:103F700078E05EB9000000C067FF4EB9660F000030
:103F800000C000C000C04EB900C07A9591F7E2CFE2
:103F90000E94E70C089580E00E94B9108170089596
:103FA0000E9488112FEF86E791E0215080409040D9
:103FB000E1F700C000000E9488110E94CB1F8823F7
:103FC00021F00E94C81F0E940F2408950E94D01F54
:103FD0000895CF93DF93EB0186319C4711F50E9442
:103FE000C50B9D81992399F08A7A91E009F490E0BC
:103FF0009093EE04811109C089E20E94BA220E94C6
:10400000790C80E0DF91CF91089585E3F6CF809120
:10401000EE04811104C089E20E94D122F0CF85E331
:10402000FBCF81E0EFCFCF93DF93EC01FB018581E4
:10403000882309F4D2C09E0130572332310508F09D
:10404000B2C00E94030D9093050580930405FE0104
:10405000E150F047E232F10520F4E852F44D0C94BF
:10406000F42A8091040581608093040593C08091B7
:1040700005058860809305058DC0809104058260E8
:10408000F3CF809104058460EFCF809104058860B0
:10409000EBCF809105058160EDCF809105058260B1
:1040A000E9CF809104058061DFCF809104058062B3
:1040B000DBCF809104058064D7CF0E9449078091AF
:1040C00004058068D1CF809104058C60CDCF8091AC
:1040D00005058360CFCF809104058E7FC5CF809189
:1040E0000505877FC7CF809104058D7FBDCF809167
:1040F00004058B7FB9CF80910405877FB5CF809170
:1041000005058E7FB7CF809105058D7FB3CF809158
:1041100004058F7EA9CF809104058F7DA5CF809166
:1041200004058F7BA1CF0E944907809104058F77FA
:104130009BCF80910405837F97CF809105058C7F6D
:1041400099CF8091040582FB992790F921E092276D
:1041500090FB82F990FB83F987CF80910505982F1A
:10416000909591708E7F892B90FB81F983CF9091F0
:104170000405892F8F7B96FF806476CF0E944907C4
:1041800090910405892F97FB87F980586DCF81E0C6
:104190000E948C0D80910405909105050E94080DE8
:1041A0000E94490780E0DF91CF91089580E0F0CF31
:1041B00090910405892F8F7E94FF806155CF909157
:1041C0000405892F8E7F90FF81604ECF9091050569
:1041D000892F877F93FF88604DCF81E0E4CF0F93D5
:1041E0001F93CF93DF93C42FD22FFC0185818823A7
:1041F000C9F04093F1040E94A8239093F0048093A7
:10420000EF0480E28C0F883040F4C77081E001C079
:10421000880FCA95EAF70E94FF04DF91CF911F91A2
:104220000F9108951091F104141332C08091EF049E
:104230009091F0040E94C023883C910548F5C0E2AB
:10424000CD0F1D17B9F080E2810F883040F4177050
:1042500081E001C0880F1A95EAF70E940605C83070
:1042600048F481E09D2F977001C0880F9A95EAF776
:104270000E94FF04802F0E94F604C83070F6D770A9
:1042800081E001C0880FDA95EAF70E940605C5CFE4
:1042900080E28C0F883008F6C77081E001C0880F7B
:1042A000CA95EAF7F2CF0F93DB0188519C4787301C
:1042B0009105A0F5FC01E650F44D0C94F42A06E2B9
:1042C00021EE41EE6AE17CE7CD010E94EF2080E023
:1042D0000F91089507E225EE45EE6BE17CE7F4CF00
:1042E00006E221EE40EE68E17CE7EECF07E225EE44
:1042F00044EE69E17CE7E8CF06E221EE42EE6CE1B4
:104300007CE7E2CF07E225EE46EE6DE17CE7DCCF0D
:1043100008E221E045EE6EE17CE7D6CF15968C9160
:10432000882319F01092F104D3CF81E0D1CF90937C
:10433000F7048093F6040895E091F604F091F704F1
:10434000309729F00190F081E02D0995089580E0E3
:1043500008950E949C210895E091F604F091F704DD
:10436000309721F00280F381E02D09950895E091C6
:10437000F604F091F704309739F026E0DC012C9335
:104380000480F581E02D09950895A3E0B0E0EBEC01
:10439000F1E20C940A2B2091F4043091F5042817D3
:1043A0003907A1F09093F5048093F404E091F604AA
:1043B000F091F704309751F023E029839B838A839F
:1043C0000084F185E02DCE01019609952396E2E067
:1043D0000C94262BA3E0B0E0E0EFF1E20C940A2B62
:1043E0002091F2043091F30428173907A1F090933B
:1043F000F3048093F204E091F604F091F70430970F
:1044000051F024E029839B838A830084F185E02D89
:10441000CE01019609952396E2E00C94262B20917B
:104420001302309114022E5F3F4F809127028823A0
:1044300079F08091040587FF0BC020911102309123
:1044400012022E5F3F4F9EE180E0915018F40895D4
:1044500096E0FACFF90141919F014423B1F38F5FB8
:10446000F4CF882321F190912702992311F19091A3
:10447000040597FF1EC0E82FE695E695E695EE3118
:10448000B0F42091110230911202E20FF32FF11DCE
:10449000228130E0877041E050E002C0440F551F98
:1044A0008A95E2F72423352381E0232B91F480E0E1
:1044B00008952091130230911402F9013296285F79
:1044C0003F4F9191981721F0E217F307D1F7EFCF03
:1044D00081E008959C01FC0132969FEF80E04191BC
:1044E000461751F09F3F19F4411101C0982F8F5F7B
:1044F0008630A9F79F3F09F40895290F311D97FDD4
:104500003A95F90162830895FC013296089621914B
:10451000261303C0DF0111971C92E817F907B9F7BA
:104520000895E62FE695E695E695EE3168F4E80FF6
:10453000F92FF11D677021E030E001C0220F6A956C
:10454000EAF78281822B82830895E62FE695E6952D
:10455000E695EE3170F4E80FF92FF11D677021E058
:1045600030E001C0220F6A95EAF720958281282366
:1045700022830895682F80912702882359F0809123
:10458000040587FF07C080911102909112020E94DA
:104590009122089580911302909114020E946A2240
:1045A0000895682F80912702882359F0809104058F
:1045B00087FF07C080911102909112020E94A522EC
:1045C000089580911302909114020E94842208950C
:1045D00080912702882379F08091040587FF0BC022
:1045E000E0911102F091120232968EE1DF011D92EC
:1045F0008A95E9F70895E0911302F091140232963A
:1046000086E0F4CF08950E9402230895811106C028
:1046100081E08093F8040E940323089582E0F9CF9B
:1046200083E08093F8040E94032308950E940623E8
:10463000089581E08093F8040E94032308950E9466
:1046400019230895089508950E9423230895089535
:1046500008950E9422230895CF930E9427230E9449
:1046600088110E942823C0E08C2F0E94B910892B4A
:1046700031F4CF5FC530C1F780E0CF91089581E07C
:10468000FCCF85B7806885BF85B7806885BF0895F2
:104690001F921FB61F9211248F939F93AF93BF93C6
:1046A0008091F904811113C08091EC059091ED0582
:1046B000A091EE05B091EF054196A11DB11D80932B
:1046C000EC059093ED05A093EE05B093EF05BF9137
:1046D000AF919F918F911F901FBE1F901895809151
:1046E000F405843031F10E94EA031092F90488E164
:1046F00090E020E40FB6F894A895809360000FBE78
:104700002093600083B7817F846083BF83B781601B
:1047100083BF7894889583B78E7F83BF0FB6F89454
:10472000A89580916000886180936000109260007D
:104730000FBE08950E9449070E94F403089582E085
:1047400084BD93E095BD9AEF97BD80936E00089568
:104750002FB7F8948091EC059091ED05A091EE05AE
:10476000B091EF052FBF08952FB7F8946091EC0535
:104770007091ED058091EE059091EF052FBF0895A2
:104780009C014FB7F8948091EC059091ED05A091B4
:10479000EE05B091EF054FBF821B930B0895CF92AA
:1047A000DF92EF92FF922FB7F894C090EC05D09073
:1047B000ED05E090EE05F090EF052FBFA701960103
:1047C000261B370B480B590BCA01B901FF90EF901C
:1047D000DF90CF90089578941F921FB61F921124F6
:1047E0008F939F93AF93BF938091EC059091ED05CC
:1047F000A091EE05B091EF050196A11DB11D80932A
:10480000EC059093ED05A093EE05B093EF05BF91F5
:10481000AF919F918F911F901FBE1F90189581E0BF
:104820008093E00080E28093D8001092C9008FE16D
:104830009EE40197F1F700C0000087E090EBDC01F7
:104840008093FD059093FE05A093FF05B0930006AD
:1048500088E19CE00FB6F894A895809360000FBEA5
:1048600090936000FFCF88E19CE00FB6F894A89584
:10487000809360000FBE90936000FFCF809102058F
:10488000089508959B01BA019091F4059430E9F4DC
:104890008F708093E9009FEF8091E800915085FD33
:1048A00006C085ED8A95F1F700009111F5CF809152
:1048B000E80085FF0AC050E040E0C9010E9445269B
:1048C0008091E8008E778093E800089543E050E0FF
:1048D000BC0182E00E944224089540E250E0BC0105
:1048E00082E00E9442240895CF93DF93EC0148E0D8
:1048F00050E0BC0181E00E94422488E0FE01AAEF62
:10490000B4E001900D928A95E1F7DF91CF9108957F
:104910008091F305811109C00E94D5270E94322899
:104920008091E20084608093E20008951092F30584
:1049300008950E94192308956091F00581E06111A6
:1049400001C080E00E94102308959091F40581E059
:10495000943009F080E06091F0050E9416230895DC
:1049600042E061EC81E00E94512742E261EC82E08A
:104970000E9451279091F40581E0943009F080E085
:104980006091F0050E94062308958091F60583301A
:1049900009F461C030F48130D1F1823009F49EC055
:1049A00008958A3009F48AC08B3009F46FC08930C9
:1049B00009F050C08091F505813209F04BC080911B
:1049C000F9059091FA05029708F044C08091E8003B
:1049D000877F8093E8008091E80082FF37C0909144
:1049E000F3008091F200029731F48091F100813060
:1049F00011F0863021F48091F100809302058091BE
:104A0000E8008B778093E8000E94852723C080917F
:104A1000F505813AF9F48091E800877F8093E800FA
:104A20008091F9059091FA05892B61F468E08AEF8D
:104A300094E070E00E9494268091E8008B77809348
:104A4000E800089560E090E080E0F3CF8091F40505
:104A50008111C1CF08958091F505813AD9F78091F0
:104A6000F9059091FA05892BA9F78091E800877FD5
:104A70008093E8008091E80080FFFCCF80912702BE
:104A80008093F1008091E8008E77BCCF8091F5058E
:104A9000813201F78091F9059091FA05892BD1F6C1
:104AA0008091E800877F8093E8000E9485278091AD
:104AB000F705809327020E94490708958091F50524
:104AC000813241F68091E800877F8093E8000E9460
:104AD00085278091F8058093030508958091F50559
:104AE000813A09F0B7CF8091E800877F8093E80092
:104AF0008091E80080FFFCCF80910305C1CF84B78F
:104B0000877F84BF0FB6F894A89580916000886174
:104B100080936000109260000FBE80E890E00FB6B6
:104B2000F89480936100909361000FBE0E941F2350
:104B300008950E94D5270E943228E2EEF0E080819D
:104B40008460808378940E94B12A08958DE192E078
:104B50000E94972108958091F405853031F4809169
:104B6000F405853019F00E949A2308950E946F235E
:104B70008091F205882399F30E942C23882379F3EE
:104B80000E942F260E9449072FEF83E294EF2150C5
:104B900080409040E1F700C00000E1CF08959A0105
:104BA0004091FB055091FC050E94D7250895492F9F
:104BB00055274330510519F168F44130510509F486
:104BC00044C04230510509F445C090E080E050E017
:104BD00040E025C04132510549F142325105A9F763
:104BE00084E490E044EF54E061157105C1F08DE676
:104BF00090E047E854E06130710589F0E6CF9927ED
:104C00008130910581F0009729F00297F1F6E4E0F8
:104C1000F4E002C0E6E3F4E0849190E0AF01F90132
:104C2000518340830895E4E2F4E0F6CF89E090E018
:104C30004CE454E06115710591F389E090E045E69C
:104C400054E06130710559F3C0CF82E190E045E74F
:104C500054E0E5CF8BE390E04AE354E0E0CF80E11D
:104C600089BD82E189BD09B400FEFDCF8091D800E5
:104C70008F7D8093D8008091E00082608093E00077
:104C80008091E00081FDFCCF0895AF92BF92CF925A
:104C9000DF92FF920F931F93CF93DF936C01EB0191
:104CA0008A010E94A427F82E811123C00115110545
:104CB00039F0F80180819181C81BD90BC80ED91E2B
:104CC000B12CA12C2097A9F08091E80085FD22C08D
:104CD0008091E8008E778093E80001151105A1F01E
:104CE000F80180819181A80EB91EB182A08285E071
:104CF000F82E8F2DDF91CF911F910F91FF90DF90B4
:104D0000CF90BF90AF9008950E94A4278823D1F23E
:104D1000F82EEFCFF60181916F018093F10021977A
:104D2000FFEFAF1ABF0ACECFFC018091FB05909137
:104D3000FC0586179707A0F06115710529F490917D
:104D4000E8009E779093E80090E06115710551F4BA
:104D5000911108C08091E80082FF34C080E008957E
:104D6000BC01F2CF8091F4058823C1F18530C1F1F7
:104D70008091E80083FD30C08091E80082FDEACF99
:104D80008091E80080FFE1CF8091F3002091F20054
:104D9000382F6115710519F02830310558F091E070
:104DA0002830310509F090E02091E8002E7720931B
:104DB000E800CBCF81918093F100615071092F5FA2
:104DC0003F4FE7CF8091F405882341F0853041F0D3
:104DD0008091E80083FFBECF81E0089582E00895CE
:104DE00083E00895FC018091FB059091FC058617F6
:104DF0009707A0F06115710529F48091E8008E777E
:104E00008093E80090E06115710551F4911108C09C
:104E10008091E80082FF35C080E00895BC01F2CFA8
:104E20008091F4058823C9F18530C9F18091E800AB
:104E300083FD31C08091E80082FDEACF8091E800D7
:104E400080FFE1CF8091F3002091F200382F6115AF
:104E5000710519F02830310558F091E028303105FE
:104E600009F090E08091E8008E778093E800CBCF46
:104E700084918093F1003196615071092F5F3F4F0B
:104E8000E6CF8091F405882341F0853041F0809190
:104E9000E80083FFBDCF81E0089582E0089583E0BC
:104EA0000895982F973028F08F708093E90081E063
:104EB00008959093E900242F762F50E0981731F051
:104EC0007091EC002091ED005091F00021FD02C0A6
:104ED0009F5FE8CF3091EB003E7F3093EB00309145
:104EE000ED003D7F3093ED003091EB003160309369
:104EF000EB007093EC002093ED005093F0002091B4
:104F0000EE0027FDE5CF80E008958091F50587FF4D
:104F100013C08091E80082FF06C08091E8008B7783
:104F20008093E80004C08091F4058111F2CF0895C8
:104F30008091F4058823D9F38091E80080FFF8CFB1
:104F40008091E8008E77ECCF2091E4003091E5006D
:104F500095E6A9012091EC00822F817020FF06C008
:104F60008091E80080FF06C080E008952091E8006D
:104F700022FD1AC08091F405882389F0853089F0DC
:104F80008091EB0085FD0FC02091E4003091E50099
:104F900042175307F9F29150E1F684E0089582E058
:104FA000089583E0089581E008950E9444280E94B6
:104FB0004C28E0EEF0E0808181608083E8EDF0E055
:104FC00080818F77808319BCA7EDB0E08C918E7FB4
:104FD0008C9380818F7E80831092F30508950F93C8
:104FE0001F93CF93DF930E9444280E944C28C8ED62
:104FF000D0E088818F7788838881806888838881E2
:105000008F7D888319BC1092F4051092F0051092E0
:10501000F2051092F10500EE10E0F80180818B7F1F
:10502000808388818160888342E060E080E00E9424
:105030005127E1EEF0E080818E7F8083E2EEF0E0A8
:10504000808181608083808188608083F801808195
:105050008E7F8083888180618883DF91CF911F91CB
:105060000F910895E8EDF0E080818F7E8083E7ED79
:10507000F0E080818160808384E082BF81E0809362
:10508000F3050E94EF270895E8EDF0E080818E7F20
:1050900080831092E20008951092DA001092E100ED
:1050A00008951F920F920FB60F9211242F933F93E2
:1050B0004F935F936F937F938F939F93AF93BF9320
:1050C000EF93FF938091E10082FF0BC08091E2009B
:1050D00082FF07C08091E1008B7F8093E1000E94F6
:1050E000B02A8091DA0080FF19C08091D80080FF3B
:1050F00015C08091DA008E7F8093DA008091D9000C
:1051000080FF96C080E189BD82E189BD09B400FEBF
:10511000FDCF81E08093F4050E9488248091E10016
:1051200080FF19C08091E20080FF15C08091E200ED
:105130008E7F8093E2008091E20080618093E200A4
:105140008091D80080628093D80019BC85E080935C
:10515000F4050E949C248091E10084FF2BC0809183
:10516000E20084FF27C080E189BD82E189BD89B565
:10517000982F917080FFFBCF8091D8008F7D809316
:10518000D8008091E1008F7E8093E1008091E20061
:105190008F7E8093E2008091E20081608093E20044
:1051A0008091F005882309F449C084E08093F405D8
:1051B0000E94A5248091E10083FF29C08091E20034
:1051C00083FF25C08091E100877F8093E10082E02A
:1051D0008093F4051092F0058091E1008E7F80931A
:1051E000E1008091E2008E7F8093E2008091E200F6
:1051F00080618093E20042E060E080E00E945127FD
:105200008091F00088608093F0000E949924FF91C3
:10521000EF91BF91AF919F918F917F916F915F912E
:105220004F913F912F910F900FBE0F901F901895A7
:1052300019BC1092F4050E94962470CF8091E3006F
:1052400087FD93E09093F405B3CF1F920F920FB6B2
:105250000F9211242F933F934F935F936F937F93FC
:105260008F939F93AF93BF93CF93DF93EF93FF936E
:10527000D091E900DF708091EC00C82FC17080FDF3
:10528000C0E81092E9008091F000877F8093F000E1
:1052900078940E9469291092E9008091F00088605A
:1052A0008093F000CD2BCF70C093E900FF91EF9178
:1052B000DF91CF91BF91AF919F918F917F916F912E
:1052C0005F914F913F912F910F900FBE0F901F90C4
:1052D0001895AAE2B0E0EFE6F9E20C94092B85EF0D
:1052E00095E02091F100FC012193CF01F5E08D3F85
:1052F0009F07B9F70E94C5248091E80083FF1EC173
:105300008091F5059091F6059A3008F017C1E92FC4
:10531000F0E0EF5FF34D0C94F42A803899F0823876
:1053200009F00CC18091F9058F70873008F006C133
:105330008093E9008091EB0085FB882780F910922B
:10534000E90006C08091F1059091F205911182600B
:105350009091E800977F9093E8008093F10010927D
:10536000F1008091E8008E77E5C0882309F4D3C06E
:10537000823009F0E3C08091F7058111D6C0809199
:10538000F9058F702FEF280F263008F0D7C08093D3
:10539000E9002091EB0020FFC8C0933031F48091E8
:1053A000EB0080628093EB00C0C09091EB009061B5
:1053B0009093EB0021E030E001C0220F8A95EAF7DC
:1053C0002093EA001092EA008091EB008860EACF17
:1053D0008111B4C01091F7051F778091E3008078A8
:1053E000812B8093E3008091E800877F8093E80021
:1053F0000E9485278091E80080FFFCCF8091E30028
:1054000080688093E30082E0111183E08093F405CB
:1054100095C08058823008F091C08091F705909136
:10542000F8058C3D23E09207A1F583E08A838AE2A8
:1054300089834FB7F894DE01139620E03EE051E2F5
:10544000E32FF0E050935700E49120FF03C0E29572
:10545000EF703F5FEF708E2F90E0EA30C0F0C7969C
:105460008D939D932F5F243159F74FBF8091E800B2
:10547000877F8093E8006AE270E0CE0101960E9487
:1054800094268091E8008B778093E80057C0C096FF
:10549000E7CF6091F9057091FA05AE014F5F5F4F5C
:1054A0000E94CF25BC01892B09F448C09091E800E7
:1054B000977F9093E80089819A810E94F226E1CF3C
:1054C0008038E1F58091E800877F8093E800809143
:1054D000F0058093F10045CF811130C09091F70520
:1054E000923060F58091E800877F8093E800909388
:1054F000F0050E9485278091F005882311F084E053
:1055000005C08091E30087FDFACF81E08093F40528
:105510000E94B02413C08091F705813079F481E0B6
:10552000933009F080E08093F2051092E9008091B9
:10553000E800877F8093E8000E9485278091E8003B
:1055400083FF0AC08091E800877F8093E800809104
:10555000EB0080628093EB00AA96E3E00C94252B8D
:105560000895CF938091F4058823A1F0C091E900BC
:10557000CF709091EC00892F817090FD80E8C82B4E
:105580001092E9008091E80083FD0E946929CF70A4
:10559000C093E900CF910895AA1BBB1B51E107C03E
:1055A000AA1FBB1FA617B70710F0A61BB70B881FB3
:1055B000991F5A95A9F780959095BC01CD01089542
:1055C00097FB072E16F4009407D077FD09D00E94B0
:1055D000CC2A07FC05D03EF4909581959F4F089505
:1055E000709561957F4F0895EE0FFF1F0590F49120
:1055F000E02D09942F923F924F925F926F927F928B
:105600008F929F92AF92BF92CF92DF92EF92FF92D2
:105610000F931F93CF93DF93CDB7DEB7CA1BDB0B7E
:105620000FB6F894DEBF0FBECDBF09942A88398823
:1056300048885F846E847D848C849B84AA84B9842A
:10564000C884DF80EE80FD800C811B81AA81B98136
:10565000CE0FD11D0FB6F894DEBF0FBECDBFED014A
:105660000895FB01DC0104C08D910190801921F4A3
:1056700041505040C8F7881B990B0895FB01DC018D
:1056800002C001900D9241505040D8F70895DC01BE
:10569000CB01FC01F999FECF06C0F2BDE1BDF89A3D
:1056A000319600B40D9241505040B8F70895F999E1
:1056B000FECF92BD81BDF89A992780B50895A8E1E3
:1056C000B0E042E050E00C94492BDC01A40FB51F80
:1056D0004150504048F0CB01840F951F2E910E94FD
:1056E000762B41505040D0F70895262FF999FECFE0
:1056F00092BD81BDF89A019700B4021639F01FBA25
:1057000020BD0FB6F894FA9AF99A0FBE0895039641
:10571000272F0E94762B0E94752B252F0E94762B17
:10572000242F0C94762B0196272F0E94762B0C9415
:10573000752BF894FFCF4E054E059E059E0503067A
:105740007D057D057D051F0690069F069F06C21AF2
:10575000CE1AD41AD91ADE1AE31AE81AED1AF21A76
:10576000F71AFC1A011B061B0B1B101B151B1A1B1F
:105770001F1B241B291B2E1B331B381B3D1B421BCD
:10578000CB1BA71C561D541F5B1F621F671F6C1F7E
:10579000711F761F7B1F801F851F8A1F8F1F931FFE
:1057A000951F971F561F561F561F561F561F561FD1
:1057B0006B20DF2073203D204120772045207B2077
:1057C00087205120D82055208B2059208F20B720AA
:1057D0005D209320BE2063209920A12049207F20B6
:1057E0004D20832067209D20AD20C720D620372064
:1057F0006F20E620702176215F216A217C218221A1
:1058000088218D29B5299E2AB5299E2AE829092AA9
:065810009E2A602A6C2AAA
:10581600000102030405060708090A0B0C0D0F1EFA
:105826001D1C1B1A191817161514131211101F20F8
:105836002122232425262728292A2BFF0E3938370B
:10584600363534333231302F2E2D2CFFFF3A3BFFC5
:10585600FF3CFFFF3DFF3EFF3F404100000F001EA3
:10586600002D003C004B005A006900780087009626
:1058760000A500B400C300D200E000E010CE10BCCA
:1058860010AD109E108F10801071106210531044CE
:1058960010351026101710041006201A202920385B
:1058A60020472056206520742083209220A120B016
:1058B60020C920DC30CD30BB30A9309A308B307C0B
:1058C600306D305E304F3040303130223009301587
:1058D60040274060409840AB40C340D240E040047F
:1058E6000404040404040404040404040404040472
:1058F6000404040404040404040404040404040462
:105906000404040404040404040404010404040454
:105916000404040404040404040404040404010147
:1059260001620382030300FF00FFFF39053E247472
:10593600246D24412466240100FF96E200E900EA72
:1059460000B500B600B700CD008301CC008A0192F5
:105956000194012102230224022502260227022A9B
:1059660002B300B4006F0070009F01CB019F02A03C
:1059760002818283E200E900EA00B500B600B700C2
:10598600CD008301CC008A019201940121022302F9
:1059960024022502260227022A02B300B4006F0061
:1059A60070009F01CB019F02A0028182836667F788
:1059B600F63031323390919293959496F0F1F4F556
:1059C60036003131295A1B750A331FEE1E0D1F266C
:0259D6001F00B0
:00000001FF
