:10000000BDC20000F4C20000F2C20000F0C2000055
:10001000EEC20000ECC20000EAC20000E8C200002C
:10002000E6C20000E4C200000C944C250C94182693
:100030000C94B520DCC20000DAC20000D8C2000077
:10004000D6C20000D4C20000D2C20000D0C200005C
:10005000CEC200000C942C21CAC20000C8C200000D
:10006000C6C20000C4C20000C2C20000C0C200007C
:10007000BEC20000BCC20000BAC20000B8C200008C
:10008000B6C20000B4C20000B2C20000B0C200009C
:10009000AEC20000ACC20000AAC20000A8C20000AC
:1000A000A6C20000A4C20000A2C2000029001E00D7
:1000B0001F0020002100220023002400250026002C
:1000C00027002D002E0000002A004A002B0000000F
:1000D00014001A000800150017001C0018000C007E
:1000E000120013002F00300031004B0039000000D7
:1000F00004001600070009000A000B000D000E00A6
:100100000F0033003400280000004E00E100000022
:100110001D001B000600190005001100100036002C
:10012000370038000000E50052004D00E000E30019
:100130000000E200000000002C00000000000000B1
:10014000E6002152E400500051004F0035003A0013
:100150003B003C003D003E003F00400041004200AB
:1001600043004400450000004C004900010000002D
:1001700001005200010001000100010001004600E1
:10018000470048005200010001000100010000008A
:10019000500051004F0001000100010001004A0021
:1001A0004B0050004F000100000001000100000062
:1001B00001000100010001000100010001004D00EB
:1001C0004E005100000001004B0001000100010041
:1001D000000001000000000001000000000000001D
:1001E0000100010001004A004E004D001E0F0500F5
:1001F000047F3F1F643214643214783C1E1E140ABC
:10020000052223252628292A2C2D2F303233353656
:10021000383A3B3D3E4042434547494A4C4E505197
:10022000535557595A5C5E6062646668696B6D6FBE
:1002300071737577797B7D7F81838587898A8C8EC1
:1002400090929496989A9C9E9FA1A3A5A7A8AAACC9
:10025000AEAFB1B3B4B6B8B9BBBCBEBFC1C2C3C503
:10026000C6C7C9CACBCCCDCED0D1D2D2D3D4D5D6A5
:10027000D7D7D8D9D9DADADBDBDBDCDCDCDCDCDDD8
:10028000DDDDDDDCDCDCDCDCDBDBDBDADAD9D9D8BC
:10029000D7D7D6D5D4D3D2D2D1D0CECDCCCBCAC954
:1002A000C7C6C5C3C2C1BFBEBCBBB9B8B6B4B3B183
:1002B000AFAEACAAA8A7A5A3A19F9E9C9A9896941E
:1002C00092908E8C8A89878583817F7D7B797775F3
:1002D00073716F6D6B6968666462605E5C5A5957D2
:1002E000555351504E4C4A4947454342403E3D3B91
:1002F0003A3836353332302F2D2C2A29282625231B
:1003000022FFAA7F55400001010101010101010105
:1003100002020202020202020203030303030303B6
:100320000304040404040404050505050506060683
:100330000606070707070708080808090909090A40
:100340000A0A0B0B0B0C0C0C0D0D0D0E0E0E0F0FE5
:100350000F10101111111212131314141515161673
:100360001717181819191A1A1B1B1C1D1D1E1E1FE2
:100370002020212222232424252626272829292A31
:100380002B2C2D2D2E2F3031323233343536373859
:10039000393A3B3C3D3E3F40414243444546474855
:1003A000494A4C4D4E4F50515354555658595A5B2B
:1003B0005D5E5F616264656668696B6C6D6F7072CB
:1003C000737577787A7B7D7E8082838587888A8C37
:1003D0008E8F91939596989A9C9EA0A2A3A5A7A96B
:1003E000ABADAFB1B3B5B7BABCBEC0C2C4C6C9CB62
:1003F000CDCFD1D4D6D8DBDDDFE2E4E7E9EBEEF018
:10040000F3F5F8FAFDFF16034B00420044003600F6
:100410003700200052006500760032000000100313
:100420004B0042004400660061006E007300000053
:100430000403090409023B00020100A0FA090400B8
:1004400000010301010009211101000122440007FC
:1004500005810308000109040100010300000009EF
:10046000211101000122B6000705820320000112BC
:1004700001000200000008424B6760020001020018
:100480000105010902A10185020901A1000509195F
:10049000012908150025019508750181020501094A
:1004A0003009311581257F950275088106093815B7
:1004B00081257F950175088106050C0A3802158192
:1004C000257F950175088106C0C005010980A1013D
:1004D000850319012AB700150126B700950175108B
:1004E0008100C0050C0901A101850419012AA0029F
:1004F000150126A002950175108100C005010906AD
:10050000A1018506050719E029E7150025019508D1
:10051000750181020507190029EF1500250195F0E5
:1005200075018102050819012905950575019102DA
:10053000950175039101C005010906A1010507197F
:10054000E029E715002501950875018102950175DF
:100550000881010507190029FF150026FF009506EF
:100560007508810005081901290515002501950563
:1005700075019102950175039101C00011241FBE00
:10058000CFEFDAE0DEBFCDBF04B603FE19C0809125
:10059000AF039091B003A091B103B091B203873043
:1005A000904BA740B04B61F41092AF031092B00390
:1005B0001092B1031092B203E0E0F8E3099500C095
:1005C00011E0A0E0B1E0E0E4F3E502C005900D9297
:1005D000A63EB107D9F723E0A6EEB1E001C01D9217
:1005E000AF3AB207E1F70E94BA110C94412908CD45
:1005F0008230F0F46530E0F44031D0F490E0919531
:1006000081959109857090E0860F911D8295929554
:10061000907F9827807F9827840F911DFC01EE0F13
:10062000FF1FE455FF4F85919591282F822F089544
:1006300021E090E0FBCFDCCF089581E0089581E0D8
:100640000895FBCF089581E0089581E00895FDCFDE
:10065000089508950895FDCF089508950895A6E09A
:10066000B0E0E5E3F3E00C944A2849835A839E8383
:100670003091ED0189819A81311117C03E81311588
:1006800089F0211579F021D5182F682F89819A8159
:10069000FCD469817A81812F0E94810E2696E3E045
:1006A0000C94662802D5182FF4CF0FD569817A8172
:1006B000F3CFFC01262F40815181628173818481B7
:1006C0009581CDCFCF93DF93EC0161E0F2DFBE01E6
:1006D000B6DF811529F061E0CE01EBDFBE01B1DFAD
:1006E000DF91CF9108950F931F93CF93DF93EC0188
:1006F00060E0DFDF8C01BE01ADDFBE01C801ABDF12
:10070000DF91CF911F910F9108950F931F93CF9376
:10071000DF93EC0161E0CDDF8C018D8181110E94BE
:100720004218BE01C8018FDF811106C080E0DF9151
:10073000CF911F910F910895BE01C80188DF8115E7
:10074000A9F3BE01C8010E941019811579F3BE01F9
:10075000C8010E94F81D811549F3BE01C8010E941D
:100760006F1A811519F3BE01C8010E94461A81153E
:10077000E9F2BE01C8010E94D0118115B9F2BE0193
:10078000C8010E94840F811589F2BE01C8010E9430
:10079000960F811559F2BE01C8010E94B00FC7CF54
:1007A00021E030E002C0220F331F8A95E2F7C90131
:1007B000A7C3CF93C82F81E090E00C2E02C0880F12
:1007C000991F0A94E2F70E94890C8C2FE9DFCF91E0
:1007D000089581E0089581E00895FBCF0895CF93B7
:1007E000C82F3DD38C2FF7DF8C2FF7DF8FEF94E3EB
:1007F0002CE0815090402040E1F700C00000CF91F4
:10080000089581E0ECDF0C94502180E0E8DF0C9447
:10081000742123DF0E944E2080E00E94F31824D030
:100820000C94DD160E944C1821D00E94921716DFFE
:100830000C94522081E0089581FD02C05C9A0895D5
:100840005C980895CF93DF93D82FF4DFC82F8115DC
:1008500011F08D2FF1DF8C2FDF91CF910895549AF5
:100860005C9A0895EFCF089580E0FCCF0E94461E69
:10087000F9CFCF930E94461EC82F8091E8018C17B4
:1008800071F0C093E8010E9420216093E901709308
:10089000EA018093EB019093EC018C2FE3DFCF9181
:1008A0000895ADE0B0E0E7E5F4E00C944B2848870C
:1008B00059876A877B878C879D87911114D71F8200
:1008C00086E0FE0138969E012F5F3F4FD9010190CF
:1008D0000D928A95E1F78D8181110CC029813A81B1
:1008E0004B815C816D817E818F8148D62D96E2E0BF
:1008F0000C946728CE010196E5DE8111EFCFF6CF8B
:10090000FC012481213019F48081918111C4089562
:10091000611521F00E94CB1B0C94801C0E940B1CC3
:10092000FBCFCF93C82F811581F08450813A78F4A2
:100930008C2F0E94FA1E811521F08C2F0E94971F88
:100940005DD78C2F0E94801F59D7CF9108958C2F8F
:10095000805E883048F481E0C1FD84E0C0FD880FEE
:10096000C2FD8295A1D6F0CF8C2F855A833030F40A
:100970008C2F8452990B0E94861EE7CFEC2FE85AE9
:10098000EB3150F4F0E0EE0FFF1FEF5CFE4F808183
:1009900091810E94AD1ED9CF8C2F8D5C8331A8F63A
:1009A00061E08C2FB5DFD1CF811559F1982F94508C
:1009B000913A18F40E94971F21C7982F905E9830A3
:1009C00050F4982F81E091FD84E090FD880F92FD16
:1009D000829570D6F1CF982F955A933020F480E00D
:1009E00090E00C94861E982F985A9B3120F480E05A
:1009F00090E00C94AD1E982F9D5C933110F460E054
:100A000087CF08951F93CF93DF93182FEB0189DFD2
:100A1000209731F4812FC8DFDF91CF911F91089586
:100A20008FE99FE00197F1F700C000002197F0CF18
:100A300060E570E0893311F060E070E0E3CF81158C
:100A400011F032D6DBC60895811511F033D6D6C623
:100A50000895A0E0B0E0EFE2F5E00C9445286C01C9
:100A6000D62FC72FFC011581068102950F7011D674
:100A7000E82E8115E9F0E12E1115D1F08C2F807F41
:100A8000803461F08D2F805E8830E0F08C2F807E86
:100A9000803221F4D230B0F00115A1F080915003E2
:100AA00082FF10C082E0CED6F4D591E08927E82EEF
:100AB000EC2FE295EF70C03C78F5F0E0ED5BF64D81
:100AC0000C942528E12CF4CF0C2F0F70C03110F0BE
:100AD0000295007F111581F0011549F08D2F805E80
:100AE000883010F0D11105C0802FDED587D68D2F2C
:100AF00040C0802FEAD5FACF8D2F56DF011561F067
:100B00008D2F805E883010F0D11103C0802FD2D598
:100B100002C0802FE0D572D6E11409F4B3C0B5D578
:100B200080FDB0C0F6011582AAD51AD2C60168D1DF
:100B3000A6D524D2A7C08C2F8F70F82EC07FC032CC
:100B400019F0F29480EFF822D13038F079F11115D4
:100B500009F438C00115C9F0CACF8091500382FD55
:100B600010C0111541F0F11419F08F2D9DD546D606
:100B700080E0D7DED1CF80E017DFF11469F28F2D4E
:100B8000C6CF111551F0013018F48F2D58DFC4CFA6
:100B900009F0C2CF8F2DBBD5BFCF0111BDCF8F2D97
:100BA00053DF8F2DBFD58F2DA4D5B6CF111521F0D2
:100BB000063008F0B1CFE9CF053008F0ADCF8F2D6A
:100BC00043DFAACF0115D9F3D93349F48FEF97EE5C
:100BD00023E0815090402040E1F700C000008D2FBD
:100BE000E3DE9ACF8C2F869586958370813060F0F6
:100BF00009F092CF8D2F9C2F9370111102C080E0CD
:100C000090E00E94AD1E88CF8D2F9C2F9370111104
:100C100002C080E090E00E94861E7ECF612F8D2F63
:100C200077DE7ACF8C2F8370C1F5111128C04D2F3C
:100C3000429546954770440F440F2D2F2F7030E09A
:100C4000042E02C0220F331F0A94E2F780E090E0E6
:100C5000D4FF09C08FE090E002C0880F991F4A9529
:100C6000E2F780959095C695C695C370822B932B1D
:100C7000C23079F0C33079F0C13049F04AD10E94D6
:100C8000461EF0DDCDB7DEB7E8E00C9461283AD11E
:100C9000F6CF46D1F4CF34D1F2CF111559F1C0FFC0
:100CA000EECF4D2F429546954770440F440F2D2FA0
:100CB0002F7030E0042E02C0220F331F0A94E2F797
:100CC00080E090E0D4FF09C08FE090E002C0880F80
:100CD000991F4A95E2F780959095C695C695C37081
:100CE000822B932BC23061F0C33061F0C13031F000
:100CF0006AD1C5CF823008F4C2CFD3CF5DD1BFCF88
:100D000069D1BDCF1AD1BBCFCF70111529F08C2F6F
:100D100027D18D2F94DEB3CF8D2F96DE8C2F2ED141
:100D2000AECFD23F31F168F4D03FC1F0D13F89F06E
:100D3000111509F43EC0011509F438C08D2FF1DDFD
:100D40009ECFD33FE1F0D43F99F78091500382FDCD
:100D50001EC08C2F8F71111511F30FC0111539F0B2
:100D6000053008F08CCF8C2F8F7118D188CF0630CA
:100D7000F8CF8C2F8F711111D2CFF2D080CF1115F7
:100D800021F08C2F8F71E3D07ACFDED078CF111580
:100D900029F063E08C2F8F713ED571CF81E052D561
:100DA000023008F46CCF82E04DD569CF8C2F8F7163
:100DB000E4CF011571F0D93349F48FEF97EE23E0BA
:100DC000815090402040E1F700C000008D2FECDD05
:100DD00056CF8C2F8F71A3CF0F931F93CF93DF9399
:100DE000EC01688179818D81ACD18C01FAD087D0FA
:100DF000B801CE012EDEDF91CF911F910F910895A2
:100E0000CF93DF93EC018C81811581F0CE017DDCE5
:100E100081110FC03ED4811549F08D81811531F0CB
:100E20008091500382FF02C082E00CD5DF91CF9108
:100E30000895CE01D1DFCE0156DCF8CF80E090E0FE
:100E40000E94861E80E090E00E94AD1E4CD4D6D455
:100E50000E94991C0C94801C0E94AE1FEFCF32D4CC
:100E6000FBCF282F92959F70963099F060F4925F97
:100E70009F70923030F4203FB1F038F481E0283E8A
:100E800038F080E008959A5FF3CF81E0243FC9F7FE
:100E9000089591E0813F09F090E081E0283E08F05C
:100EA00080E0892B089581E00895FC0124812115BB
:100EB00021F0808191813CD1D4CF80E00895A6E0DB
:100EC000B0E0E5E6F7E00C944B282696E2E00C94BF
:100ED0006728A7E0B0E0EFE6F7E00C944B282796F0
:100EE000E2E00C9467280895FECF0895FDCF0895A1
:100EF000FADFFCDF80931802909319020895089599
:100F0000F7CF08952091180230911902822B932B6C
:100F1000EFCF209118023091190282239323E8CF5A
:100F2000209118023091190282279327E1CFDBCF5D
:100F30000895FDCF0895D7CF0895FDDFFADF8093A0
:100F4000160290931702089580E090E0F6CF21E01A
:100F500030E002C0220F331F8A95E2F7C901EDCFBE
:100F600021E030E002C0220F331F8A95E2F7809122
:100F7000160290911702822B932BDFCF21E030E0F5
:100F800002C0220F331F8A95E2F720953095809199
:100F900016029091170282239323CFCF21E030E0F5
:100FA00002C0220F331F8A95E2F7809116029091BA
:100FB000170282279327C1CF209116023091170282
:100FC000822B932BBACF20911602309117028223E5
:100FD0009323B3CF209116023091170282279327D3
:100FE000ACCF0895CF93C1E061FDC4E060FDCC0FAC
:100FF00062FDC29593E0769567959A95E1F7660F45
:10100000771F660F771F460F571FFA0140E050E029
:1010100090E06191DF019C01042E02C03695279576
:101020000A94E2F72695220B26272C2326272E93B7
:101030004F5F5F4F4430510561F7CF910895A82F5E
:10104000A77023E0969587952A95E1F7880F991F59
:10105000880F991F680F791FFB0140E050E080E086
:10106000219130E00A2E02C0369527950A94E2F7C6
:101070002170042E01C0220F0A94EAF7822B4F5FE1
:101080005F4F4430510561F70895262F953060F485
:10109000803150F430E1939FB0011124680F711D2D
:1010A0004EEE51E0822F9ECF0895953060F480314E
:1010B00050F440E1949F900111246EEE71E0820F94
:1010C000932F911DBCCF80E00895CF92DF92FF92C5
:1010D0000F931F93CF93DF936C0100911602109131
:1010E00017028091180290911902082B192BCFE05A
:1010F000D0E081E090E00C2E02C0880F991F0A9486
:10110000E2F780239123892B61F4219790F7F12C4A
:101110008F2DDF91CF911F910F91FF90DF90CF9096
:101120000895FC2EB6018C2FF7D5019771F3F0CFFF
:10113000CF93DF93EC01C9DFBE01EED5DF91CF91F4
:1011400008951F93CF93DF93EB019091ED019115DB
:1011500031F0CB01EDDFDF91CF911F910895811523
:1011600051F0CB01B2DF182F682FCE018EDFBE0108
:10117000812FD2D5F0CFCB0198DF182FF8CF0F9366
:101180001F9300911A0280911B02801303C01F91CC
:101190000F91089587E0089FF0011124E45EFD4F50
:1011A000208131814281538164817581868191DE04
:1011B0000F5F1F4F0770E7CF209154023091550207
:1011C0004091560250915702609158027091590215
:1011D00080915A027ECE80915A02803170F48091C3
:1011E0005902811551F0E0911A0220911B023091B1
:1011F0005502409154022E1301C00895BF0187E0AB
:10120000E89FF0011124DF01A45EBD4F14968C917C
:101210001497811549F111968C911197831324C06D
:101220008C91841321C015968C91159781111CC047
:1012300012968D919D91A0915602B09157028A1BF2
:101240009B0B883C910580F480915A028F708061DD
:1012500080935A02EE5DFD4F80818F7080618083A4
:1012600084E592E0CDDD8BCF6F5F7F4FFB01E770B0
:10127000C2CFE0911A0290911B02E91302C080E0F4
:1012800008959F0157E0E59FF0011124E45EFD4FB2
:101290005181561306C05081581303C05581541311
:1012A00005C02F5F3F4FF901E770E7CF81E0089558
:1012B0008F929F92AF92BF92DF92EF92FF920F9325
:1012C0001F93CF93DF93CDB7DEB72D970FB6F8946A
:1012D000DEBF0FBECDBF8C0186E0F801DE0118969F
:1012E00001900D928A95E1F7F801F580848194E5EB
:1012F000892E92E0992E90915802911117C0811574
:1013000009F4EFC0F11409F42EC1C801CEDD811536
:1013100009F429C187E0F801D40101900D928A9562
:10132000E1F7C401EDDA57DF47DFDBC0E080A280E0
:10133000B380D09059022091560230915702A501F6
:10134000421B530BD11409F4CFC0483C510508F09F
:101350009EC0811509F4C5C090915502918080917D
:101360005A02803108F065C0991226C0909154024B
:101370009E1122C0F11057C08F70806180935A0275
:101380001BDF84E592E03CDD80915A02F801868300
:10139000F12C8F2D2D960FB6F894DEBF0FBECDBF6A
:1013A000DF91CF911F910F91FF90EF90DF90BF9051
:1013B000AF909F908F900895F11035C040E0692D57
:1013C0008E2D57DF40E0692D8E2D53DFF82E8111D1
:1013D000DFCF88859985ACDE292F22952F70903438
:1013E00050F49F70223078F0911591F0F8019681B9
:1013F000903170F4CECF2A5F2F70223070F0C80188
:10140000FFDCFD2CC6CF911519F0811509F4C1CF71
:10141000805E883008F4BDCFF2CF803F08F4B9CFAA
:10142000815F8330F7CF80915A02816080935A02A6
:10143000AFCF991207C0909154029E1103C0F114CE
:1014400009F473C0C80131DD811509F48CC0F114B1
:1014500009F489C080915A02803280F020915402B0
:101460003091550229833A83AB82BC829091580215
:101470009D831E828F83CE010196C2DC87E0F80136
:10148000A4E5B2E001900D928A95E1F74CCF9091DE
:101490005A02903188F4488559856A857B858C8508
:1014A0009D850DDD84E592E0ABDCF40187E01192CF
:1014B0008A95E9F781DE6CCF811599F0209155026C
:1014C00081812813BFCF809154028E11BBCFF110C0
:1014D000B9CF9683C80194DCF40187E011928A9514
:1014E000E9F7FF24F39455CF483C510508F03EC07E
:1014F0008115B9F3F114B9F19091550281819813D6
:1015000029C0809154028E1125C080915A0280FD1D
:1015100018C08031B0F08683807F803F39F08681AB
:10152000982F907F905F8F70892B8683C80168DC2D
:1015300087E0F801A4E5B2E001900D928A95E1F709
:10154000F3CE87E0F801A4E5B2E001900D928A9510
:10155000E1F7C7CFC801A9DC811190CF80915A0271
:10156000816080935A02C8014BDCBBCF4885598506
:101570006A857B858C859D85A2DC97CFAEE0B0E047
:10158000E4ECFAE00C944A28288739874A875B877D
:101590006C877D878E87CE0108968ADE6C858115E3
:1015A00099F0611539F0288539854A855B857D85F7
:1015B0008E858FDC80911A0290911B0289133DC0A9
:1015C0002E96E3E00C94662887E09E01285F3F4F4B
:1015D000F90127503109D90101900D928A95E1F75F
:1015E000611541F3A0911B028A2F90E083958770CB
:1015F00090E0AC0120911A022417150691F097E0B3
:101600009A9FD0011124A45EBD4F9E012F5F3F4FD2
:10161000F90101900D929A95E1F740931B02AFDD1D
:10162000C9CF1DDC10921B0210921A02E4E5F2E011
:1016300087E011928A95E9F7BDCF17E0189FC001A6
:101640001124845E9D4F34DE811509F4B9CFE091F9
:101650001A021E9FF0011124E45EFD4F20813181AA
:101660004281538164817581868133DC80911A02C5
:1016700090911B020196877080931A029BCF8091F4
:10168000830286958695869508958091830287705A
:10169000089590918302977081E0911101C080E0DC
:1016A00008958091AF0208959091AF02982B909386
:1016B000AF0208958095982F8091AF02892380937F
:1016C000AF0208951092AF0208959091AE02982B48
:1016D0009093AE0208958095982F8091AE02892351
:1016E0008093AE0208951092AE0208950895FECF41
:1016F000089590918402292F282329F08095892329
:1017000080938402F4CF08950895FECF08959091B8
:101710008502292F2823281721F0982B90938502E2
:10172000F4CF089590918502292F282329F08095E0
:10173000892380938502E9CF0895809185028115E0
:1017400021F01092850280E0E0CF0895CF93C09100
:10175000AF028091AE02C82B80918502811529F0DD
:10176000C82B0E94D41E8111E8DF8C2FCF910895E1
:10177000CF93DF93C0910601D0910701E7DF888303
:10178000C0910601D091070148E050E06BE772E09C
:10179000CE010E94D228892B59F088E0FE01ABE7E8
:1017A000B2E001900D928A95E1F7CE010E94551E9C
:1017B000DF91CF910895CF93DF93C0910401D09131
:1017C0000501C4DF8983C0910401D091050140E285
:1017D00050E06BE572E0CE010E94D228892B59F0CF
:1017E00080E2FE01ABE5B2E001900D928A95E1F74F
:1017F000CE010E94621EDF91CF9108950E943F1E8C
:10180000811529F080914F0387FF01C0D4CFB0CF5D
:101810000895FECF08959091500392FF0EC0982F27
:10182000990F990F990F962B9093830299DB8091D2
:101830008302869586958695ECCF92CB1092830293
:1018400080E0E7CF90918302809589238093830283
:10185000282F277059F4891749F09091500392FF6F
:1018600005C086958695869589DBE8CF0895909189
:10187000500392FB222720F9281749F080FB92F9A8
:10188000909350038FE493E048D082E0DBCF08953B
:1018900080915003002482FF0394802DE8CF81E0E3
:1018A000E6CF80E0E4CF80E090E0BC011EC480E0A1
:1018B00090E0BC0114D4F7CFA4E0B0E0E2E6FCE095
:1018C0000C944B2867D372D31C82CE01049685D327
:1018D00081E090E080931802109219028AD3198255
:1018E00084E18A83CE01019695D31B82CE010396B3
:1018F000A3D35BD6DCDF2496E2E00C946728DCCF30
:1019000008955AC3089547C308955CC308956BC3EF
:1019100008956FC3089572C308957CC3089581C369
:1019200008958AC308958EC30895C0C30895E3C37C
:101930000895A6E0B0E0EFE9FCE00C9449280E948D
:1019400014218C018091B0029091B102801791070F
:1019500079F019821A820E941421BC0149815A81AE
:1019600080E090E00E9451040093B0021093B10215
:101970002696E4E00C9465280E9420216093B6022C
:101980007093B7028093B8029093B9026093B20249
:101990007093B3028093B4029093B50208950895B2
:1019A0000895FDCF08950895FEDFFBCF0895FECF83
:1019B00008950895FEDFFBCF82E89FE0ECD4F0DFCE
:1019C000F3CF81E0089581E00895FBCF0895089555
:1019D00008950895FCDFFCDFFCCF95DF811101C085
:1019E0008EDF8AEB92E091DF8FE493E094DF0E9438
:1019F000441A8DDF85DA809116029091170299CAF8
:101A00000E940B2130D4E9DF0E943D1E0E942F046A
:101A10000E94CF190E944C180E946617CBCFA6E0F7
:101A2000B0E0E5E1FDE00C943F28CDDF81110FC06F
:101A300080DF0E943E1E0E9443180E94CE190E9421
:101A4000BA1C0E9439042696EEE00C945B281AD446
:101A500025E4822E23E0922E740110E0F701C0806D
:101A6000D180812F53D31F5F153009F450C022E07D
:101A7000E20EF11CC816D90689F38091BA0281FDE5
:101A80004ED3A3DF682E10E0812F40D37C01F401F8
:101A9000A190B1904F018A159B0599F1A826BF240A
:101AA00000E091E0C92ED12CC5018C219D21892B0C
:101AB00001F177247394C7018C219D21892B09F4AE
:101AC000712C611489F0602F812F0E947620811182
:101AD0000BC009831A830E941421BC0149815A81D9
:101AE00081E0972D0E945104472D602F812F0E9485
:101AF0008D200F5FCC0CDD1C0031B1F6F401F292A9
:101B0000E2921F5F153009F0BFCF36DF92CFC816C3
:101B1000D90609F0B2CF8CCF0F931F93CF93DF93E9
:101B2000FDD0EC01D23508F050C0D03508F0C8C067
:101B3000C03ED10530F5CD3CD10508F09DC0C83A76
:101B4000D10578F4C53AD10508F093C0C130D1056C
:101B5000B1F1CE010497813A910588F1C0E0D0E05F
:101B60002EC0CE01885A91094B97C0F7C85AD0E0D1
:101B7000CC0FDD1FC959DE4F0990D881C02DD46428
:101B80001EC0D034A8F4D03208F0ADC0C83ED10594
:101B9000B0F0CE0191509F3108F78D2F62D1082F00
:101BA0008C2F90E0BBD0D02FDF71C82FD92B07C06E
:101BB0008C2F90E0B3D0DF70C82FD92BD06ACE0124
:101BC000DF91CF911F910F910895C03882E5D8071A
:101BD000B8F5C03682E5D80708F056C0C03482E5B3
:101BE000D807C8F4C03282E5D80708F047C08C2F68
:101BF0008695869520E2829FC0011124C37021E062
:101C000030E002C0220F331FCA95E2F7E901C82B6A
:101C1000D92BDD68D4CF8C2F86958695877020E2EE
:101C2000829FC0011124C37021E030E002C0220F66
:101C3000331FCA95E2F7E901C82BD92BDC68BFCF67
:101C4000C03C82E5D80750F48C2F8F71C03AD24542
:101C500080F5982F84EF906AEC01B1CFCE01805CC3
:101C60009245809708F07ACFDC2FDF71C0EFD06A01
:101C7000A6CFA497D064A3CFD065A1CF8C2F8F71AE
:101C8000D82FC1EFD06A9BCF8C2F86958695877011
:101C900020E2829FC0011124C37021E030E002C025
:101CA000220F331FCA95E2F7E901C82BD92BDA6856
:101CB00086CFD7D0982F80E09F71EC01D0627FCF84
:101CC0008C2F8F71CED053E0CC0FDD1F5A95E1F7EA
:101CD000DF70282F84FF04C090E1899F90011124B8
:101CE000C22FD0696CCF8D2F8F71BBD0082F8C2F56
:101CF00090E014D0302F3F71282F392B3062E9014A
:101D00005ECF462F753028F4603118F4672F0C949D
:101D10001B0380E090E00895F4DFFECE803E910545
:101D2000D1F1C8F48133910509F481C048F48932B6
:101D3000910509F471C08A32910509F47FC00895B4
:101D400089339105E1F082389105C9F08533910519
:101D500009F45DC00895843E9105D1F148F4823EB6
:101D6000910531F1833E910541F181EE90E00895B6
:101D7000863E9105C1F1873E9105F1F108952091CC
:101D80004F03237009F064C02091500323FF14C057
:101D900089E290E0089520914F0320FD45C03091E5
:101DA000500330FF09C024FD24C083EE90E0089565
:101DB00020914F0322FDF7CF089520914F0322FD7C
:101DC00044C03091500330FD43C024FFF5CF11C013
:101DD0002091500321FFF0CF80914F0384FD09C073
:101DE00087EE90E0089520914F0323FFE5CF24FF75
:101DF000F7CF80E090E0089520914F0323FD2BC0A2
:101E00003091500331FFE1CF84EE90E008952091AE
:101E10004F0325FFD1CFBCCF20914F0325FD1EC01E
:101E20002091500323FFC8CF89E390E008952091CB
:101E30004F0326FFC1CF8AE290E0089520914F031F
:101E400026FFBACF81E390E0089582EE90E00895F6
:101E500080EE90E0089586EE90E0089585E390E0AE
:101E6000089590914F0392FF10C041E0282F2471F4
:101E7000243009F040E031E0282F2871283009F0A3
:101E800030E0431711F02CE0822793FF10C041E0AF
:101E9000282F2471243109F040E031E0282F2871E7
:101EA000283109F030E0431711F02CE082273091FF
:101EB000500330FF10C051E0282F2171213009F06C
:101EC00050E041E0282F2871283009F040E05417F5
:101ED00011F029E0822731FF10C041E0282F217145
:101EE000213109F040E031E0282F2871283109F034
:101EF00030E0431711F029E0822794FF02C083FDF0
:101F0000877E089580E00895CF939C01205E32453E
:101F1000C1E02032310538F4FB01C581C11103C095
:101F20008F710E94D9038C2FCF9108959C01FB01E2
:101F30008581811599F02B359CE7390769F02C359F
:101F40009CE7390721F02A353C4721F00895A0DCB1
:101F500080E00895A4DCFCCFA4DCFACF81E00895F2
:101F60009C01FB018581811599F021309CE739079F
:101F700061F023309CE7390739F021153C4749F4DB
:101F80000E94010480E00895BCDC0E940504FACFA1
:101F900081E00895089580E090E00E94EC289C0183
:101FA00081E0233E3E4F09F080E0089563EE7EEF2E
:101FB00080E090E00C940B296FEF7FEF80E090E0E1
:101FC0000C940B29CF93DF93EC0182E090E00E9408
:101FD000DF288883DF91CF910895FC01608182E042
:101FE00090E00C94F12883E090E00E94DF2890E0DC
:101FF0000895682F83E090E00C94F128CF93DF934D
:10200000EC0184E090E00E94EC2888839983DF91C2
:10201000CF910895FC016081718184E090E00C947F
:102020000B29CF93DF93EC0186E090E00E94DF283C
:102030008883DF91CF910895FC01608186E090E074
:102040000C94F1288F929F92AF92BF92CF92DF9221
:10205000EF92FF920F93CF93DF93EC0188E090E033
:102060000E94E7284B015C01688399828A83BB82C6
:102070001C821D821E821F8283E290E00E94DF2864
:102080009401A50188823983AA825B838C831D8297
:102090001E821F82DF91CF910F91FF90EF90DF9012
:1020A000CF90BF90AF909F908F9008950F93CF9354
:1020B000DF93EC01488159816A817B8188E090E05F
:1020C0000E9403296C81262F60E070E0CB01622F13
:1020D00083E20E94F128DF91CF910F910895AB0127
:1020E000BC018FE090E00C940329AB01BC0183E1BB
:1020F00090E00C940329682F8EE090E00C94F12876
:102100000895FECF08950895FECF0895E82FF0E0DA
:10211000EE0FFF1FE55AFC4F8081918108950895CD
:1021200080EA8A95F1F7089500C00895F9CF0895DF
:10213000F894E82FE295EF70F0E041A18F7021E074
:1021400001C0220F8A95EAF7922F9095942391A3CC
:1021500092A1822F892B82A378940895CF93DF9345
:10216000CDEAD1E089918F3F09F0E2DF81E0C23B07
:10217000D807C1F7CDE9D1E089918F3F09F0D8DFC9
:1021800081E0CD3AD807C1F7DF91CF910895AF92A2
:10219000BF92DF92EF92FF920F931F93CF93DF9343
:1021A0005C01D62EC62FD0E08E0103551E4FF801DC
:1021B00080818F3F09F44BC0F894E82FE295EF70CF
:1021C000F0E091A18F7021E001C0220F8A95EAF71B
:1021D000892F822B81A382A12095282322A3789482
:1021E000A3DFEDE9F1E021E030E0E12CF12C4191B9
:1021F0004F3F79F0A42FA295AF70A05EB0E08C9114
:1022000090E04F7002C0959587954A95E2F780FF60
:1022100028C080E090E0E82AF92A220F331F81E0ED
:10222000ED3AF80721F7F80180818F3F09F080DF50
:1022300061E0E114F10409F460E08D2D77DFCC0F4B
:10224000DD1FC5018C0F9D1FEC01E882F982DF9133
:10225000CF911F910F91FF90EF90DF90BF90AF90C3
:102260000895C901D8CF7ADFEBE5F3E08AE0119257
:102270008A95E9F7E1E5F3E08AE011928A95E9F7BA
:102280003CD03FCFAAE0B0E0E8E4F1E10C9448286C
:10229000FE013196DF018AE01D928A95E9F710E090
:1022A0000E2FFF2E612F802F9F2D71DF812F8F5FCB
:1022B000182F8530B9F74AE050E0602F7F2D81E577
:1022C00093E00E94D22841E0892B69F440E06BE55D
:1022D00073E081E593E012D0182F16DF812F2A9644
:1022E000E5E00C9464288AE0E02FFF2DA1E5B3E03F
:1022F00001900D928A95E1F7EACF0895EF92FF924F
:102300000F931F93CF93DF938C017B01C42F411553
:1023100079F081E08093BD020E9414218093BB027A
:102320009093BC0280E0CDB7DEB7E6E00C94632862
:10233000D091BD02D115B1F38091BB029091BC0246
:102340000E94A520059770F34AE050E0B801C7014C
:102350000E94D228892B41F08AE0F801D701019030
:102360000D928A95E1F7CD2F1092BD028C2FDBCF15
:1023700056CB08950E94AE200E94A5221DDB0E942C
:10238000BD223EDB0E94C6220E94C922F1DF0E94CC
:10239000DF2220DBF9CF8093E6019093E7010895D7
:1023A000CF93DF93EC01FB018581811104C081E0B3
:1023B000DF91CF91089575D98272FE01E052F847FE
:1023C000EB30F105A0F7E15BF64D0C94252876D5AE
:1023D00080E0EECF811521F065D5FACF8115E1F3CC
:1023E00055D5F6CF811521F02BD2F2CF8115E1F32F
:1023F0001DD2EECF811521F03DD2EACF8115E1F358
:102400002CD2E6CF811521F04FD2E2CF8115E1F336
:102410003ED2DECF811521F0F4D0DACF8115E1F381
:10242000E1D0D6CFA0E0B0E0E8E1F2E10C9444289E
:10243000062FB72EE82F71110EC0411521F0F0E0E4
:10244000EA5FFC4FE4916E2F7E2F8E2FCDB7DEB763
:10245000E9E00C946028411521F0F0E0EA5FFC4FC0
:10246000E49186E0089FE00111242FEF30E0CE01D7
:10247000B9010E94DC27AB01C801880F991FF5E55F
:10248000F49FB001F59F700D1124861B682F660F15
:10249000680FC9018B199109E89FD001E99FB00D20
:1024A00011248B2FB69E60011124CD2CD12C8901D3
:1024B0000C191D096801E09F7001E19FF00C1124C7
:1024C0004330510551F18901061B1109B09E60018D
:1024D000B19ED00C1124CD2CD12C2C193D09E29F9A
:1024E0008001E39F100D1124712FCC3FD34050F495
:1024F00041305105B1F04230510561F47E2FEB2F90
:10250000812F08C04430510579F04630510511F053
:102510007B2F8F2D6E2FE82F98CF7F2D8E2FEB2FB7
:10252000F9CF7E2FEF2DF6CF8E2FE12F7B2FF2CF1D
:1025300041E078CF0895FCCF089590910B01291BBD
:10254000922FE091DF01F091E001242F462F682FB8
:10255000892F90E009950895CF93DF93762FE901B5
:10256000682F842FE8DF962F672F9E01482F892F31
:10257000E4DFDF91CF910895413F08F040EFECCFC9
:1025800080916503843060F4837084608093650378
:1025900080916803813F18F080EF8093680308956D
:1025A0008C3AB0F38370886AF1CF85E0809365033D
:1025B000109266038FEF8093670380EF8093680328
:1025C0001092690385E693E0B0C990916903933056
:1025D00018F49F5F90936903811519F085E693E0E5
:1025E000A4C9089581E0F1CF90916903911519F084
:1025F000915090936903811519F085E693E095C990
:10260000089581E0F1CF0F931F93CF9380916503DD
:1026100080FF09C0E091E301F091E4010995CF91B9
:102620001F910F910895C0910D018091DF0190914C
:10263000E0018C0180910E01C81760F780910B01B9
:102640009C2F981B20E040E060E0892F90E0F8018B
:102650000995CF5FEFCFEF92FF920F931F93CF9328
:10266000DF93D82F162F042F8091650380FF0CC0B5
:10267000C0910D018091DF019091E0017C0180917A
:102680000E01C81730F0BFDFCDB7DEB7E6E00C941F
:10269000632880910B019C2F981B202F412F6D2FB9
:1026A000892F90E0F7010995CF5FE9CF762F9091C0
:1026B000650390FF0BC0413F08F040EF682F842F67
:1026C0003ADF962F672F482F892FC5CF0895CF93D4
:1026D000DF93EC01EC81F0E0EF5FFD4F4491E5E624
:1026E000F3E062818181E2DF8C818F5F8C83DF91F7
:1026F000CF910895CF93DF93EC01E5E6F3E04381BA
:1027000062818C81D3DF8C818F5F8C83DF91CF914D
:102710000895CF93DF93EC01209168039C81892F6A
:10272000817090FD822F692F627091FD622F492F79
:10273000447092FD422F8FDF8C81019687708C83CD
:10274000DF91CF910895A0E0B0E0E9EAF3E10C94C5
:102750004628182FE62ED42FD22E9091650390FF95
:1027600024C0292F26952695E22FF0E0EE54FE4F47
:102770008081809319039C7F9430E1F4842F413F42
:1027800008F080EF612F7E2DD6DE962F672F482F21
:10279000892F61DF10936603E0926703D09368038B
:1027A000D11419F085E693E0C0D8CDB7DEB7E7E0E5
:1027B0000C946228823019F4D0916803EBCF8630F4
:1027C00019F410916603E6CF8930D9F3893111F7F6
:1027D00087EEF82EF20EEF2DE695F0E0EF5FFC4F5E
:1027E000C49100E060910F01061710F00CDFD2CF0A
:1027F0000C9FC001112470E00E94DC27862F810FFE
:10280000F0FE02C0812F861B20910D01200F33277F
:10281000331F4D2F6E2DB0DE0F5FE4CFE5E6F3E002
:10282000282F438162818181885F8DCF81E0F6CF3F
:10283000E5E6F3E0282F438162818181885083CFD0
:1028400081E0F6CFE5E6F3E0628128E0620F08F46C
:102850006FEF282F4381818176CF81E0F3CFE5E6CA
:10286000F3E0628128E0621B08F460E0282F4381D6
:10287000818169CF81E0F3CFE5E6F3E0438128E091
:10288000420F08F44FEF282F628181815CCF81E0F5
:10289000F3CFE5E6F3E0438128E0421B08F440E093
:1028A000282F628181814FCF81E0F3CF20E04BCF91
:1028B0000F931F93CF938C01C0E060910F01C61757
:1028C00068F0A1DEF8018481928190FF1DC08F5FC6
:1028D000F8018483CF911F910F91089520910D01EC
:1028E0002C0F3327331F70E08FEF90E00E94F0270A
:1028F000F801848140916803C69F800D1124609186
:1029000067033ADECF5FD9CF8150E2CFAF92BF925B
:10291000DF92EF92FF920F931F93CF93DF93FC010F
:102920008281D1E080FDDFEFC0E08091DF019091F6
:10293000E0015C0180910F01C817B8F064DE80915E
:10294000BF02D13009F04DC0811102C080910F014A
:1029500081508093BF02DF91CF911F910F91FF9023
:10296000EF90DF90BF90AF90089580910D0190910E
:102970000B01891B8C0F20E040E060E090E0F50146
:10298000099504E010E0D12CEC2EF12C8091BF02CF
:102990008D0D813104F18F70082E001C00088E15FA
:1029A0000F0499F480910D019701280F311D40917A
:1029B00068030403A0011124559547955595479543
:1029C0006091670380916603D7DDDD0E01501040F2
:1029D000E9F6CF5FAFCF87FFDFCF90910F01890F6F
:1029E000DBCF90E0019660910F0170E00E94F0272C
:1029F000B0CF0F931F93CF93C0910D018091DF0152
:102A00009091E0018C0180910E01C81750F1C0E057
:102A10008091DF019091E0018C0160910F01C61758
:102A200068F1F1DD809109019091BE02980F9093B9
:102A3000BE0220910A01280F20930A01121654F4B5
:102A400020910F012150330B092E001C0008921712
:102A500003061CF0819580930901CF911F910F917E
:102A6000089580910B019C2F981B20E040E060E0CE
:102A7000892F90E0F8010995CF5FC5CFEC2FF0E0EA
:102A800070E0CF010E94F02720910D01820F9091FC
:102A9000BE02092E001C0008E917F0059CF0909179
:102AA0000A01092E001C00089E170F065CF0282F53
:102AB00030E04091680360916703809166035CDDBC
:102AC000CF5FABCF90910B01891B20E040E060E02D
:102AD00090E0F8010995F4CFA0E0B0E0E2E7F5E17D
:102AE0000C944328EC01FC812F2F30E0D9010E9487
:102AF000B2279B01AC010E9431287B018C0180E24E
:102B000090E08F1B9109FC01A5E59701A8010E94A7
:102B100031285B016C019F01DF010E94AC279B0102
:102B20000E942B289B01AC012E0D3F1D401F511F01
:102B3000B501C6010E940328022F30E00A3220F5B9
:102B4000A901440F551F420F531F55954795142F48
:102B50001095F12C85E5801BE82E80910F01F81669
:102B600000F151DD9C8181E0911519F0903219F44A
:102B70008FEF8093080180910801890F8C83CDB776
:102B8000DEB7EAE00C945F2885E590E0821B930BAA
:102B9000AC01440F551F480F591FBAF64F5F5F4FE6
:102BA000D4CF8E2DF1FC802F20910D012F0D3327D6
:102BB000331F412F60916703DFDCF394CECF0F9377
:102BC0001F93CF93DF938C01C0E0D0E090910F0171
:102BD000C917D1055CF017DDF80184810196817079
:102BE0008483DF91CF911F910F910895F801448163
:102BF00080910D019E01280F311D60916703809126
:102C000066039695C917D1053CF4411539F04091FA
:102C10006803B2DC2196DACF4115C9F340E0F9CF61
:102C2000A0E0B0E0E6E1F6E10C943F28FC018281EF
:102C3000882E948081E08483E1E0F2E0A490E0E8D3
:102C4000F2E0E491C0916803C695C158D0E0CC0F82
:102C5000DD1FED2EF12CB12C05E01FEFEA198E2FB0
:102C600090E03C0180910F01B81630F0CCDCCDB77C
:102C7000DEB7EEE00C945B28CB2CD12C882D833072
:102C800058F40B9DF0011124E054FD4F8091660330
:102C9000808380916703818391101BC00C9DF0019C
:102CA0000D9DF00D1124E054FD4F1382128280918E
:102CB0000D019601280F311D0C9DF0010D9DF00DA9
:102CC0001124E054FD4F42816181808155DCB39431
:102CD000C9CF0C9DE0010D9DD00D1124C054DD4FD6
:102CE0008B818115E1F081508B83189FC0011124E5
:102CF0006C8170E00E94DC2770E0FB01EF5FFD4F0C
:102D000084918A19189FC0011124B3010E94DC2705
:102D100080916803689FB00111247A83C8CF0E9414
:102D2000B9286FEF70E00E94F0278E159F050CF018
:102D3000BECF882D833090F00E94B9286FEF70E0ED
:102D40000E94F02788830E94B92820916703269566
:102D5000622F70E00E94F027280F29830C9DF0015C
:102D60000D9DF00D1124E054FD4F128280916803F7
:102D7000893C58F088EC0C9DF0010D9DF00D11245C
:102D8000E054FD4F8483838392CF8431A0F784E1A4
:102D9000F2CF809165038E7F8093650385E693E093
:102DA0000E94950C10921A032ECC809165038E7FA1
:102DB0008093650310921A0326CC10921A03809117
:102DC0001703811109C081E0809317038091650387
:102DD000817080931603E9CF08956091650366952D
:102DE000669570E04BE050E080E191E00E94C528DC
:102DF000892B19F481E080931A030E941421809397
:102E000010039093110308959091650390FF2CC0D7
:102E1000811559F18B3258F58F73880F880F909177
:102E200065039370892B80936503611521F085E616
:102E300093E00E94950C609165036695669570E03D
:102E40004BE050E080E191E00E94C528892B89F099
:102E500010921A0381E080931303409168036091FC
:102E600067038091660322CD089581E0D6CF8AE280
:102E7000D4CFB3DFEFCF682F9091650396959695E9
:102E8000892F8F5F8B3208F081E0BECF81E0F3CFD6
:102E9000682F9091650396959695892F815009F436
:102EA0008AE2B2CF81E0F4CF61E0AECF80916503DA
:102EB00081608093650386958695F6CF8091650342
:102EC00080FF01C066CFF2CF60E09ECF80911803F3
:102ED00081111FC085E693E00E94930C80916503E9
:102EE000843028F462DB85E693E00E94930C48DB93
:102EF00010921A03E091DD01F091DE0109958091B5
:102F0000650380FF03C086958695DEDF81E08093B0
:102F10001803089580916503816080936503869509
:102F20008695D2CF10921703809116038111F2DF9C
:102F300054CF0F931F93CF93DF9380911A03811582
:102F400009F441C080911903E0916503E695E69587
:102F5000E81BE0931203853109F48BC008F044C0EC
:102F6000893009F47CC0A0F5823009F466C086304F
:102F700009F46CC0C0EDD7E00AE912E180911303B7
:102F8000811561F0109213030E94142180931003A5
:102F90009093110310921403109215030E941421B0
:102FA0002091100330911103821B930B8F3F9F4799
:102FB00050F42C0F3D1F209310033093110380E138
:102FC00093E0F8010995DF91CF911F910F9108953A
:102FD0008F3081F6E695F0E0EC50FE4FE491CE2F75
:102FE000D0E006E814E1CACFC4EFD1E00FED15E15F
:102FF000843221F288F4C8E2D0E00CE615E1883191
:1030000009F4BCCF833209F0B5CFEFEEF1E0C59102
:10301000D59109E813E1B2CF853209F0ABCF8E2FFD
:1030200063E00E94D027E92FF0E0E451FE4FE491E5
:10303000CE2FD0E000E116E1A1CFF0E0E350FE4F4B
:10304000E491CE2FD0E007E613E198CFF0E0E65010
:10305000FE4FE491CE2FD0E00AE713E18FCFE69543
:10306000F0E0E950FE4FE491CE2FD0E008E514E106
:1030700085CFF0E0EF50FE4FE491CE2FD0E009EF86
:1030800014E17CCF089555CF08958DE180936D03B1
:103090008DE693E00C94910C8DE693E00E948F0CEA
:1030A00080916D0382FFF1DF80916D03803220F00B
:1030B0008770886180936D0390916D03892F817073
:1030C00090FF04C0892F869586958695D6C09091ED
:1030D0006D03892F869586958695983140F48F5F8C
:1030E000880F880F880F9770892B80936D038091CC
:1030F0006D03816080936D038DE693E00E94910CD7
:1031000080916D03869586958695B7C080916D03F5
:10311000883088F0885080936D0391E0883008F4FF
:1031200090E080916D0390FB80F980936D038DE6B4
:1031300093E00E94910C80916D038695869586950B
:103140009CC080916D0380FD12C0816080936D03EF
:10315000813019F489E080936D038DE693E00E943D
:10316000910C80916D0386958695869586C008950D
:1031700080916D0380FF09C08E7F80936D038DE683
:1031800093E00E94910C80E078C0089580916D03D7
:1031900080FF01C0EDCFD5CF80916D0386958695D8
:1031A00086958F5F8F71843008F080E0880F880FDC
:1031B000880F90916D039770892B80936D0391E038
:1031C000883008F490E080916D0390FB80F9809343
:1031D0006D038DE693E00E94910C80916D038695BE
:1031E000869586954AC0843008F083E020916D036F
:1031F0002770982F990F990F990F922B90936D0329
:1032000021E0983008F420E090916D0320FB90F9C4
:1032100090936D0332C0E7DF8DE693E00C94910C40
:10322000FB012581211539F1833038E79307E9F057
:1032300068F4813038E79307B1F0823038E79307BC
:10324000C1F08115984759F0822F0895843038E7EE
:10325000930769F085309847B9F79EDF02C083E095
:10326000DADF20E0F1CF80E0FBCF50DFFACF2FDFB5
:10327000F8CF8CDFF6CF21E0E7CF0F931F93CF93EA
:10328000DF93843080F581112FC0909180009F776B
:10329000909380002091860030918700A82FB0E0A5
:1032A0000E94B22723E030E040E050E00E94032873
:1032B000E901FA0180918600909187006CE070E04E
:1032C0000E94DC276217730798F0C90169E070E07B
:1032D0000E94DC277093890060938800DF91CF9172
:1032E0001F910F91089583E0909180009068D0CF56
:1032F0008091860090918700209186003091870010
:103300008901209186003091870066E070E00E947C
:10331000DC27C60FD71FE11DF11D85E0CC0FDD1F97
:10332000EE1FFF1F8A95D1F7C80166E070E00E948A
:10333000DC2740E050E0260F371F411D511DBE0124
:10334000CF010E940328E901FA0180918600909143
:1033500087008C01B901CA010E94C1279B01AC0101
:10336000D8010E9431289B01AC01BE01CF010E940F
:10337000C127770FBB27AA27881F991FAA1F209153
:10338000860030918700281739071A061B0620F49B
:103390008091860090918700BC019CCF0895259A6A
:1033A0002D9882E88093800089E1809381008FEFDF
:1033B0009FEF90938700809386006ECE6A9A08955F
:1033C000FC01EE0FFF1FE80FF91FE259FC4F61836C
:1033D000408322830895FF920F931F93CF93DF932F
:1033E000182F062FF42EC0E0D0E02F2D402F612F94
:1033F000CE01E6DF2196C031D105B9F7CDB7DEB7F2
:10340000E5E00C9464283EB13B7F2EB124604FB7B9
:10341000F8948EE693E0FC010196508168E02EB9A5
:10342000000000C057FF3EB9550F000000C000C0AB
:1034300000C03EB900C06A9591F753E08E399507F8
:1034400051F74FBF8FE594E00197F1F700C00000FE
:1034500008950C94810C089580E00E94861081707C
:1034600008950E9442118FEF96E721E0815090402D
:103470002040E1F700C000000E944211EDDF8115FD
:1034800011F0E7DF0DC70895ECCF0895CF93DF93D8
:10349000EB0186319C4709F50E94510B9D819115E6
:1034A00099F08A7A91E0811101C090E090931B031A
:1034B000811541F085E324D50E94FE0B80E0DF9169
:1034C000CF91089589E2F7CF80911B03811519F000
:1034D00085E32DD5F1CF89E2FCCF81E0F0CFCF930A
:1034E000DF93EC01FB018581811509F4CBC09E01BE
:1034F00030572332310508F0ABC08FE493E00E94CF
:103500008B0CFE01E150F047E232F10520F4E65A5F
:10351000F64D0C94252880914F03816080934F03D2
:1035200090C0809150038860809350038AC080913E
:103530004F038260F3CF80914F038460EFCF80917F
:103540004F038860EBCF809150038160EDCF809175
:1035500050038260E9CF80914F038061DFCF80917B
:103560004F038062DBCF80914F038064D7CF0E94EE
:103570002F0780914F038068D1CF80914F038C60DB
:10358000CDCF809150038360CFCF80914F038E7F4A
:10359000C5CF80915003877FC7CF80914F038D7F28
:1035A000BDCF80914F038B7FB9CF80914F03877F31
:1035B000B5CF809150038E7FB7CF809150038D7F20
:1035C000B3CF80914F038F7EA9CF80914F038F7D22
:1035D000A5CF80914F038F7BA1CF0E942F078091B1
:1035E0004F038F779BCF80914F03837F97CF80913D
:1035F00050038C7F99CF90914F03892F8B7F92FF3F
:103600008460877F92FF886089CF80915003982FD4
:10361000909590FB80F990FB81F986CF90914F03B4
:10362000892F8F7B96FF806479CF0E942F0790911E
:103630004F03892F97FB87F9805870CF81E00E9454
:10364000970C8FE493E00E948D0C0E942F0780E07E
:10365000DF91CF91089580E0F2CF90914F03892FB1
:103660008F7E94FF80615ACF90914F03892F8E7F78
:1036700090FF816053CF90915003892F877F93FFF4
:10368000886052CF81E0E4CF382F25EB3203C001B0
:10369000112497FF04C080589109892F08958058FC
:1036A0009F4FFBCF8091220380FF0DC060912001CE
:1036B00070E0660F771F6038710588F56115710538
:1036C00081F1862F089581FF07C06091200184E079
:1036D000689FB0011124EFCF82FF04C060912001E8
:1036E00088E0F6CF909121039115B9F060911F0108
:1036F00080912001961728F098E0899FB00111244D
:10370000DACF899FC001112423E0880F991F2A95E1
:10371000E1F770E00E94F027CECF68E0D2CF8FE7CC
:10372000089581E008958091220380FF0CC060918C
:103730001C0170E075956795759567956115710524
:1037400041F1862F089581FF06C060911C0170E051
:1037500075956795F3CF60911C0182FD0BC0909128
:1037600020039115A1F060911B0180911C01961717
:1037700038F0682F70E06038710500F38FE7089526
:10378000899FC001112470E00E94F027F4CF61E00E
:10379000D8CF81E00895E82FED5CE33198F5F0E0B3
:1037A000E458F64D0C9425287DDF819580932603FF
:1037B000089578DFFBCF76DF819580932503089508
:1037C00071DFFBCFB0DF809327030895ACDF8195D5
:1037D000FACFA9DF8195809328030895A4DFFBCF5A
:1037E000815D990B21E001C0220F8A95EAF7809153
:1037F0002403822B80932403089580912203816007
:10380000809322030895809122038260F9CF8091F2
:1038100022038460F5CF409125038D3C59F48091BB
:10382000260387FF0DC010922603411559F410920C
:10383000210308C08E3C81F48091260318169CF366
:10384000411581F08091270390912803892B09F07D
:1038500056C01092200308958F3C41F447FFF0CFEB
:1038600010922503809126038115E0CF803D19F445
:103870001416B4F3E5CF90912703893D29F4191666
:10388000FCF610922703DCCF8A3D19F497FFD8CFBE
:10389000F8CF909128038B3D29F497FFD1CF109258
:1038A0002803CECF8C3D19F41916CCF3C9CF982F2D
:1038B000915D983078F4815D990B21E001C0220F71
:1038C0008A95EAF7822F809590912403892380932B
:1038D0002403B6CF8D3D31F4809122038E7F8093F7
:1038E0002203AECF8E3D21F4809122038D7FF7CF4E
:1038F0008F3D09F0A5CF809122038B7FF0CF0895F3
:1039000093D49C019091250380912603982B21F05C
:1039100020931E0330931F03909127038091280367
:10392000982B21F020931C0330931D0383E293E036
:10393000DBC1E3E2F3E086E011928A95E9F71092A9
:10394000210310922003109222030895FC0182812A
:1039500081110EC0838181110BC08481811108C047
:1039600091E08581811101C090E0892F81700895D7
:1039700081E0FCCFA6E0B0E0E0ECFCE10C9448284C
:1039800086E0E3E2F3E09E012F5F3F4FD901019013
:103990000D928A95E1F7109225031092260310925A
:1039A0002703109228038B819C81892B022FF32EF1
:1039B000811581F080911E0390911F03C6D3AC0145
:1039C000909121039115A1F1809121018417150691
:1039D00008F43BC08D819E81892B89F080911C0366
:1039E00090911D03B2D3AC0190912003911509F47D
:1039F0005AC080911D018417150608F462C0602F1B
:103A00007F2D83E293E0C2D2811104C083E293E070
:103A10009DDF811175DF86E0E02FFF2DA3E2B3E08B
:103A200001900D928A95E1F72696E5E00C946428C2
:103A3000209122018AE0289F900111242417350744
:103A400048F69F5F9093210302C09F3FD1F71B81EF
:103A5000111551F027DE91E011160CF09FEF899FB0
:103A6000802D1124809325031C81111551F01ADE3D
:103A700091E011160CF09FEF899F802D1124809307
:103A8000260380912503811509F4A4CF1091260304
:103A9000111509F49FCFF8DD80932503812FF4DD04
:103AA0008093260397CF20911E018AE0289F9001E2
:103AB00011242417350708F0A2CF9F5F90932003AD
:103AC00002C09F3FD1F71D81111551F02CDE91E00E
:103AD00011160CF09FEF899F802D112480932703EE
:103AE0008E81182F811551F01EDE91E011160CF019
:103AF0009FEF899F802D11248093280380912703B5
:103B0000811509F47CCF90912803192F911509F4A0
:103B100076CFBADD80932703812FB6DD809328030B
:103B20006ECF0F931F93CF93DF93C42FD22FFC013F
:103B300085818115C9F040932B0376D380932903A7
:103B400090932A038C2F805E883048F481E0C1FD79
:103B500084E0C0FD880FC2FD82950E941F05DF91A1
:103B6000CF911F910F91089510912B03141333C01F
:103B70008091290390912A03E8D2883C910558F559
:103B8000CD2FC05E1D17C1F0812F805E883048F4B4
:103B900081E011FD84E010FD880F12FD82950E94E6
:103BA0002405C83048F481E0D1FD84E0D0FD880FC1
:103BB000D2FD82950E941F05802F0E94180581E08A
:103BC000D1FD84E0D0FD880FD2FD8295C83038F653
:103BD0000E942405C4CF8C2F805E883008F0BFCFB0
:103BE00081E0C1FD84E0C0FD880FC2FD8295F0CF69
:103BF0000F93FC01CB01E851FC47E730F10588F554
:103C0000E157F64D0C94252806E221EE41EE6AE1DB
:103C10007CE787DF80E00F91089507E225EE45EE0F
:103C20006BE17CE7F6CF06E221EE40EE68E17CE74F
:103C3000F0CF07E225EE44EE69E17CE7EACF06E249
:103C400021EE42EE6CE17CE7E4CF07E225EE46EEA2
:103C50006DE17CE7DECF08E221E045EE6EE17CE736
:103C6000D8CFFB018581811110922B0381E0D3CF46
:103C70008093300390933103089508950895EDD112
:103C8000982F81E0913009F080E00895E0913003B1
:103C9000F0913103309739F00190F081E02D3097A9
:103CA00011F00995089580E00895E0913003F091B6
:103CB0003103309731F00280F381E02D309709F025
:103CC00009950895E0913003F0913103309759F050
:103CD00024813581232B39F026E0DC012C930480EC
:103CE000F581E02D09950895E0913003F0913103BD
:103CF000309759F026813781232B39F022E0DC01FF
:103D00002C930680F781E02D09950895A3E0B0E09B
:103D1000ECE8FEE10C944B2820912E0330912F0308
:103D200028173907B1F080932E0390932F03E09169
:103D30003003F0913103309761F00084F185E02D7C
:103D4000309739F023E029838A839B83CE01019643
:103D500009952396E2E00C946728A3E0B0E0E3EB3A
:103D6000FEE10C944B2820912C0330912D03281751
:103D70003907B1F080932C0390932D03E091300329
:103D8000F0913103309761F00084F185E02D309798
:103D900039F024E029838A839B83CE01019609951B
:103DA0002396E2E00C946728CF93DF93C09106013D
:103DB000D091070164DF811521F080914F0387FDC9
:103DC00011C09E012E5F3F4F96E080E09150F901B7
:103DD00040812F5F3F4F41118F5F9111F7CFDF91EE
:103DE000CF91089520910401309105012E5F3F4F3E
:103DF0009EE1EBCFCF93C82F811102C080E02EC08F
:103E00003EDF811521F080914F0387FD0FC0809127
:103E1000060190910701FC013296089620812C172B
:103E2000F9F03196E817F907C9F7E8CF8C2F869596
:103E300086958695C03F10F7E0910401F091050149
:103E4000E80FF11D228130E0C77081E001C0880FCA
:103E5000CA95EAF7282381E0232B81F2CF910895B8
:103E600081E0FCCF9C01FC01329680E09FEF408115
:103E7000461759F031969F3F19F4411101C0982F10
:103E80008F5F8630A1F79F3F09F40895290F311DF8
:103E900097FD3A95F90162830895FC0132960896E0
:103EA0002191261302C0DF011E92E817F907C1F71E
:103EB0000895262F269526952695603F60F4820F5B
:103EC000911DFC01677021E001C0220F6A95EAF79D
:103ED0008281822B82830895262F2695269526950A
:103EE000603F68F4820F911DFC019DEF61FD97EF2B
:103EF00060FF959562FD9295828189238283089562
:103F0000CF93C82FBCDE6C2F811559F080914F03E1
:103F100087FF07C08091040190910501CADFCF910E
:103F2000089580910601909107019CDFF8CFCF930F
:103F3000C82FA5DE6C2F811559F080914F0387FFA4
:103F400007C08091040190910501C6DFCF910895CB
:103F50008091060190910701A0DFF8CF90DE8115D6
:103F600071F080914F0387FF0AC0E0910401F09146
:103F7000050132968EE111928A95E9F70895E09154
:103F80000601F0910701329686E0F5CFDC01FB01D6
:103F900011969C9111978181981322C012968C9151
:103FA0001297811519F0928189131AC013968C917A
:103FB0001397811519F09381891312C015968C916E
:103FC0001597811519F0958189130AC014969C9153
:103FD000911521F081E02481291303C080E001C004
:103FE00081E0817008950895FECF08958F5F8093DA
:103FF0002601609123017091240180912501909107
:104000002601F2CF83E08093260160912301709115
:1040100024018091250190912601E6CFE7CF0895F4
:1040200081E08093260160912301709124018091A9
:10403000250190912601D8CFF3CF089591E0811109
:1040400001C090E0909325016091230170912401BB
:104050008091250190912601C7CF80912501089577
:1040600080932401609123017091240180912501A6
:1040700090912601B9CF8091240108958093230166
:104080006091230170912401809125019091260176
:10409000ABCF80912301089508950895FECF089530
:1040A00008950895F9CF08950F931F93CF93DF9349
:1040B000F7DF0E944211F5DF02E313E0C0E0D0E039
:1040C0008C2F0E9486109C01F801819331938F01FF
:1040D00091E0232B09F490E0D92BCF5FC53081F715
:1040E0008D2FDF91CF911F910F910895E82FF0E070
:1040F000EE0FFF1FEE5CFC4F81E090E002C0880FE6
:10410000991F6A95E2F7BC01808191816823792328
:1041100081E0672B09F480E00895411115C0E82F74
:10412000F0E0EE0FFF1FEE5CFC4F81E090E002C07C
:10413000880F991F6A95E2F78095909520813181CB
:1041400082239323808391830895CF93DF93EC019F
:104150006BD08C1B9D0BDF91CF91089585B7806844
:1041600085BF85B7806885BF08951F921FB61F92CF
:1041700011248F939F93AF93BF9380913C03811140
:1041800013C080919E0390919F03A091A003B091D2
:10419000A1034196A11DB11D80939E0390939F039F
:1041A000A093A003B093A103BF91AF919F918F9172
:1041B0001F901FBE1F9018958091A603843031F187
:1041C0000E94090410923C0388E190E020E40FB6BD
:1041D000F894A895809360000FBE2093600083B789
:1041E000817F846083BF83B7816083BF7894889523
:1041F00083B78E7F83BF0FB6F894A8958091600037
:10420000886180936000109260000FBE08950E9444
:104210002F070C94120482E084BD93E095BD9AEFC1
:1042200097BD80936E0008952FB7F89480919E03F8
:1042300090919F03A091A003B091A1032FBF089577
:104240002FB7F89460919E0370919F038091A00313
:104250009091A1032FBF089578941F921FB61F92CB
:1042600011248F939F93AF93BF9380919E0390915E
:104270009F03A091A003B091A1030196A11DB11DC0
:1042800080939E0390939F03A093A003B093A103F8
:10429000BF91AF919F918F911F901FBE1F90189556
:1042A00081E08093E00080E28093D8001092C90002
:1042B0008FE19EE40197F1F700C00000A7E0B0EBAA
:1042C000CD018093AF039093B003A093B103B0935B
:1042D000B20388E19CE00FB6F894A8958093600043
:1042E0000FBE90936000FFCF88E19CE00FB6F8947A
:1042F000A895809360000FBE90936000FFCF9B0154
:10430000BA019091A6039430D9F48F708093E9009C
:104310009FEF8091E80085FD06C085ED8A95F1F755
:1043200000009150B1F78091E80085FF09C040E09E
:1043300050E0C901B6D18091E8008E778093E80003
:10434000089543E050E0BC0182E0D9CF46E050E060
:10435000BC0182E0D4CF40E250E0BC0182E0CFCF8C
:10436000CF93DF93EC0179DE48E050E0BE0181E0BD
:10437000C6DF88E0FE01ADE3B3E001900D928A95BF
:10438000E1F7DF91CF9108958091A503811107C0D6
:1043900016D366D38091E20084608093E200089592
:1043A0001092A50308953CDE81E048CE6091A203FF
:1043B00081E0611101C080E025CE9091A60381E0EB
:1043C000943009F080E06091A20328CE42E061ECD5
:1043D00081E071D242E261EC82E06DD29091A6035D
:1043E00081E0943009F080E06091A203FFCD8091DC
:1043F000A803893081F148F4823009F496C08330F3
:1044000009F457C0813041F008958A3009F480C022
:104410008B3009F468C008958091A703813A09F0B0
:1044200047C08091E800877F8093E8008091AB03CC
:104430009091AC03892B59F060E080E090E070E04F
:104440007DD18091E8008B778093E800089568E043
:104450008DE393E0F4CF8091A703813249F58091F9
:10446000AB039091AC03029718F58091E800877F29
:104470008093E8008091E80082FF16C02091F3004D
:104480008091F200922F029731F48091F1008130F7
:1044900011F0863019F48091F100E2DD8091E8009E
:1044A0008B778093E8003BC28091A6038111E2CF15
:1044B00008958091A703813AD9F78091AB03909139
:1044C000AC03892BA9F78091E800877F8093E800EF
:1044D0008091E80080FFFCCFC0DD8093F1008091E7
:1044E000E8008E77DECF8091A703813209F78091B3
:1044F000AB039091AC03892BD9F68091E800877FBC
:104500008093E8000CD28091A90398DD0C942F07CA
:104510008091A703813261F68091E800877F8093C4
:10452000E800FDD18091AA03A9CD8091A703813A2B
:1045300009F0BECF8091E800877F8093E8008091EA
:10454000E80080FFFCCFA5DDC8CF84B7877F84BF9C
:104550000FB6F894A8958091600088618093600000
:10456000109260000FBE80E890E00FB6F894809340
:104570006100909361000FBE5FCD21D271D2E2EE57
:10458000F0E08081846080837894CDC487E291E0FC
:104590006FCB8091A603853029F48091A6038530E6
:1045A00011F035CE089508DE7FDD8115B1F38091DD
:1045B000A403811591F35FD00E942F07EECF0895D9
:1045C0009A014091AD035091AE0300C0492F50E0D5
:1045D00043305105C9F070F441305105E9F14230E2
:1045E000510571F48BE390E044E354E0F90140831A
:1045F0005183089541325105E9F04232510519F1D4
:1046000080E090E040E0F2CF482F50E0813061F050
:104610004230510561F0E0E3F4E04115510581F7C6
:10462000849190E0AF01E2CFEEE1F4E0F9CFE6E073
:10463000F4E0F6CF61307105A0F011F789E090E069
:104640004FE554E0D3CF6130710580F0C9F686EBB9
:1046500090E041E854E0CACF82E190E04FE654E0B8
:10466000C5CF89E090E046E454E0C0CF84E490E018
:1046700047E355E0BBCF80E189BD82E189BD09B444
:1046800000FEFDCF8091D8008F7D8093D80080916F
:10469000E00082608093E0008091E00081FDFCCF2B
:1046A0000895AF92BF92CF92DF92FF920F931F9324
:1046B000CF93DF936C01EB018A0150D1F82E811169
:1046C00023C00115110539F0F80180819181C81BC3
:1046D000D90BC80ED91EA12CB12C2097A9F080911E
:1046E000E80085FD21C08091E8008E778093E80086
:1046F00001151105A1F0F801808191818A0D9B1DA2
:104700008083918385E0F82E8F2DDF91CF911F91CB
:104710000F91FF90DF90CF90BF90AF9008951ED182
:104720008115E9F2F82EF0CFF60181916F018093A7
:10473000F10021978FEFA81AB80ACFCFFC01209182
:10474000AD033091AE032617370720F061157105D0
:1047500069F09B0190E02115310571F491110CC0B5
:104760008091E80082FF38C080E008959091E800D1
:104770009E779093E800EDCF8091A6038115C1F15B
:104780008530C1F18091E80083FD30C08091E80060
:1047900082FDE6CF8091E80080FFDDCF8091F300BD
:1047A0004091F200582F2115310519F0483051057C
:1047B00058F091E04830510509F090E04091E80050
:1047C0004E774093E800C7CF81918093F10021504C
:1047D00031094F5F5F4FE7CF8091A603811541F00C
:1047E000853041F08091E80083FFBACF81E00895E1
:1047F00082E0089583E00895FC012091AD0330919B
:10480000AE032617370720F06115710569F09B018B
:1048100090E02115310571F491110CC08091E800F0
:1048200082FF39C080E008958091E8008E77809300
:10483000E800EDCF8091A6038115C9F18530C9F15B
:104840008091E80083FD31C08091E80082FDE6CFD1
:104850008091E80080FFDDCF8091F3004091F2006D
:10486000582F2115310519F04830510558F091E0C5
:104870004830510509F090E08091E8008E778093F0
:10488000E800C7CF84918093F1003196215031091F
:104890004F5F5F4FE6CF8091A603811541F08530D1
:1048A00041F08091E80083FFB9CF81E0089582E074
:1048B000089583E00895982F973028F08F708093A3
:1048C000E90081E008959093E900242F762F50E0CD
:1048D000981731F07091EC002091ED005091F000AC
:1048E00021FD02C09F5FE8CF3091EB003E7F309307
:1048F000EB003091ED003D7F3093ED003091EB0007
:1049000031603093EB007093EC002093ED005093F6
:10491000F0002091EE0027FDE5CF80E00895809122
:10492000A70387FF13C08091E80082FF06C0809133
:10493000E8008B778093E80008958091A6038111A9
:10494000F2CF08958091A6038115D9F38091E800F4
:1049500080FFF8CF8091E8008E77ECCF2091E400C3
:104960003091E50095E6A9012091EC00822F81703D
:1049700020FF06C08091E80080FF06C080E0089517
:104980002091E80022FD1AC08091A603811589F0CC
:10499000853089F08091EB0085FD0FC02091E40007
:1049A0003091E50042175307F9F29150E1F684E0A7
:1049B000089582E0089583E0089581E008955FD02E
:1049C00066D0E0EEF0E0808181608083E8ED808158
:1049D0008F77808319BCA7EDB0E08C918E7F8C938C
:1049E00080818F7E80831092A5030895CF93DF93FB
:1049F00046D04DD0C8EDD0E088818F7788838881FC
:104A00008068888388818F7D888319BC1092A60373
:104A10001092A2031092A4031092A303E0EEF0E020
:104A200080818B7F808388818160888342E060E021
:104A300080E041DFE1EEF0E080818E7F8083E2EE76
:104A4000808181608083808188608083E0EE8081C6
:104A50008E7F8083888180618883DF91CF910895E4
:104A6000E8EDF0E080818F7E8083E7ED80818160DA
:104A7000808384E082BF81E08093A503B7CFE8ED17
:104A8000F0E080818E7F80831092E2000895109282
:104A9000DA001092E10008951F920F920FB60F9264
:104AA00011242F933F934F935F936F937F938F9333
:104AB0009F93AF93BF93EF93FF938091E10082FFA9
:104AC0000AC08091E20082FF06C08091E1008B7FE6
:104AD0008093E10027D28091DA0080FF18C0809196
:104AE000D80080FF14C08091DA008E7F8093DA00B6
:104AF0008091D90080FF8FC080E189BD82E189BDAE
:104B000009B400FEFDCF81E08093A6033DDC8091D7
:104B1000E10080FF18C08091E20080FF14C0809106
:104B2000E2008E7F8093E2008091E20080618093BA
:104B3000E2008091D80080628093D80019BC85E0A3
:104B40008093A60333DC8091E10084FF28C080912C
:104B5000E20084FF24C080E189BD82E189BD09B4FF
:104B600000FEFDCF8091D8008F7D8093D80080918A
:104B7000E1008F7E8093E1008091E2008F7E809340
:104B8000E2008091E20081608093E2008091A203C4
:104B9000811509F445C084E08093A6030EDC809162
:104BA000E10083FF27C08091E20083FF23C0809152
:104BB000E100877F8093E10082E08093A60310925A
:104BC000A2038091E1008E7F8093E1008091E2005A
:104BD0008E7F8093E2008091E20080618093E2000A
:104BE00042E060E080E067DE8091F00088608093C2
:104BF000F000D9DBFF91EF91BF91AF919F918F9121
:104C00007F916F915F914F913F912F910F900FBEC8
:104C10000F901F90189519BC1092A603C1DB77CF97
:104C20008091E30087FF02C083E0B6CF81E0B4CF7C
:104C30001F920F920FB60F9211241F932F933F9341
:104C40004F935F936F937F938F939F93AF93BF9394
:104C5000CF93DF93EF93FF93E9EEF0E08081109123
:104C6000EC008F7010FB112717F9182B1082C0EF82
:104C7000D0E08881877F888378941CD0E9EEF0E0CB
:104C800010828881886088831F701083FF91EF9164
:104C9000DF91CF91BF91AF919F918F917F916F9154
:104CA0005F914F913F912F911F910F900FBE0F90E9
:104CB0001F901895AAE2B0E0EFE5F6E2EBC187EAB3
:104CC00093E0FC0101962091F100208323E08F3ACC
:104CD0009207B9F78CDB8091E80083FF37C08091A1
:104CE000A7039091A8039A3088F5E92FF0E0EA56DF
:104CF000F64DABC1803889F0823841F58091AB0325
:104D00008F70873018F58093E9008091EB0085FB68
:104D1000882780F91092E90006C08091A403880FCB
:104D20009091A303892B9091E800977F9093E800DE
:104D30008093F1001092F1008091E8008E7722C0FC
:104D4000811115C08091A903813001F18091E800A3
:104D500083FF0AC08091E800877F8093E8008091FC
:104D6000EB0080628093EB00AA96E3E0AFC1823053
:104D700069F78091A903811579F01092E90080917B
:104D8000E800877F8093E800CADDE0CF933009F028
:104D900080E08093A403F1CF8091AB038F70282F24
:104DA0002150263098F68093E9002091EB0020FFF7
:104DB000E4CF933031F48091EB0080628093EB007C
:104DC000DCCF9091EB0090619093EB0021E001C06B
:104DD000220F8A95EAF72093EA001092EA00809168
:104DE000EB008860EBCF8111B1CF8091A9038F7761
:104DF000182F8091E3008078812B8093E3008091CD
:104E0000E800877F8093E8008ADD8091E80080FFDA
:104E1000FCCF8091E30080688093E30083E0111170
:104E200001C082E08093A60391CF8058823008F0C1
:104E30008DCF8091A9039091AA038C3D23E0920726
:104E400089F583E08A838AE289834FB7F894DE018B
:104E5000139620E03EE051E2E32FF0E0509357003C
:104E6000849120FF03C082958F703F5F8F708A30DE
:104E7000B8F0895C8D931D922F5F243169F74FBF85
:104E80008091E800877F8093E8006AE270E0CE01BD
:104E9000019654DC8091E8008B778093E80056CF30
:104EA000805DE8CF6091AB037091AC03AE014F5FC2
:104EB0005F4F86DBBC01892B09F448CF9091E80055
:104EC000977F9093E80089819A8196DCE3CF8038C0
:104ED00009F03CCF8091E800877F8093E8008091C3
:104EE000A2038093F10028CF811130CF9091A903C4
:104EF000923008F02BCF8091E800877F8093E80004
:104F00009093A2030CDD8091A203811529F084E027
:104F10008093A6035BDA1ACF8091E30087FDF7CF79
:104F200081E0F6CF0895CF938091A603811591F08B
:104F30008091E900C091EC008F70C0FBCC27C7F9CD
:104F4000C82B1092E9008091E80083FDB3DECF709A
:104F5000C093E900CF91089505D0332312F48A1B42
:104F60009B0B7AC0A29FB001B39FC001A39F700D9D
:104F7000811D1124911DB29F700D811D1124911D61
:104F80000895DB018F939F936CD0BF91AF91A29F47
:104F9000800D911DA39F900DB29F900D1124089537
:104FA000992778E0880F991F961708F0961B881F9D
:104FB0007A95C9F780950895AA1BBB1B51E107C0DC
:104FC000AA1FBB1FA617B70710F0A61BB70B881F99
:104FD000991F5A95A9F780959095BC01CD01089528
:104FE00097FB072E16F4009406D077FD08D0E4DF77
:104FF00007FC05D03EF4909581959F4F08957095DC
:1050000061957F4F0895A1E21A2EAA1BBB1BFD01DB
:105010000DC0AA1FBB1FEE1FFF1FA217B307E40797
:10502000F50720F0A21BB30BE40BF50B661F771FEF
:10503000881F991F1A9469F76095709580959095CF
:105040009B01AC01BD01CF010895EE0FFF1F05903C
:10505000F491E02D099486DFB7FF0895821B930B2E
:10506000089580DFA59F900DB49F900DA49F800DA3
:10507000911D112408952F923F924F925F926F924B
:105080007F928F929F92AF92BF92CF92DF92EF92D8
:10509000FF920F931F93CF93DF93CDB7DEB7CA1B59
:1050A000DB0B0FB6F894DEBF0FBECDBF09942A8884
:1050B000398848885F846E847D848C849B84AA842C
:1050C000B984C884DF80EE80FD800C811B81AA81B9
:1050D000B981CE0FD11D0FB6F894DEBF0FBECDBF84
:1050E000ED010895AAE0B0E0E7E7F8E2D4CF8987C0
:1050F0009A87FC0160817181828193810097704061
:10510000604021F464E279ED8BE597E02DE133EF27
:1051100041E050E094D029833A834B835C839B0128
:10512000AC01A7EAB1E49DDF6D837E838F8398870E
:10513000ACEEB4EF29813A814B815C819ED02D8108
:105140003E814F815885260F371F481F591FC901BF
:10515000DA01B7FF03C00197A109B048E985FA85D4
:1051600080839183A283B3839F772A96E2E0AFCFB7
:10517000B9CF80E091E0B6CF809300019093010118
:1051800010920201109203010895FC014150504019
:1051900030F001900616D1F73197CF010895882796
:1051A00099270895FB01DC0104C08D9101908019BD
:1051B00021F441505040C8F7881B990B0895F99984
:1051C000FECF92BD81BDF89A992780B50895A6E1DA
:1051D000B0E044E050E025C0A8E1B0E042E050E09B
:1051E00020C0262FF999FECF92BD81BDF89A019774
:1051F00000B4021639F01FBA20BD0FB6F894FA9A1F
:10520000F99A0FBE08950396272FECDFEADF252FCA
:10521000E9DF242FE7CF0196272FE4DFE2CFDC017F
:10522000CB01FC01F999FECF06C0F2BDE1BDF89AB1
:10523000319600B40D9241505040B8F70895052EB4
:1052400097FB16F400940FD057FD05D0DCDE07FC69
:1052500002D046F408C050954095309521953F4FB7
:105260004F4F5F4F089590958095709561957F4F52
:105270008F4F9F4F0895B7FFF4CEF3DE821B930B41
:105280000895F894FFCF640564059B059B05F2051E
:105290000E068C058C051206840691069106E71110
:1052A000EA11EE11F211F611FA11FE1102120612B4
:1052B0000A120E12C51A341BCD1A971A9B1AD11A4C
:1052C0009F1AD51AE11AAB1A2D1BAF1AE51AB31A99
:1052D000E91A0E1BB71AED1A151BBD1AF31AFB1AA1
:1052E000A31AD91AA71ADD1AC11AF71A051B1E1B11
:1052F0002B1B911AC91A3B1BD41BD91BDB1BE01BB0
:10530000F01BF01BF01BF01BF01BF01BF01BF01B45
:10531000E21BE61BE91BEE1BFD1B031C071C131EF7
:10532000191E041E0D1E1F1E251E2B1E7A26A026CA
:10533000A626A026A626F3261527A62667277427C5
:10534000010000008602A6020101020010001010F8
:1053500001191A1B1C1D1E1F202122280850011E86
:105360000A1401000001003B20B021AB21A621A1BD
:1053700021E200E900EA00B500B600B700CD0083E5
:1053800001CC008A0192019401210223022402250A
:1053900002260227022A02B300B4006F0070009FA9
:1053A00001CB019F02A002E200E900EA00B500B6CD
:1053B00000B700CD008301CC008A01920194012145
:1053C00002230224022502260227022A02B300B485
:1053D000006F0070009F01CB019F02A002303132AC
:1053E00033919293969734366667F7F6F53790F0D7
:1053F000F1F4000102020202060606090909090980
:10540000090F0F0F0F0F0F15151518191919191965
:1054100019191919192324252525252525DE19E013
:0654200019EB19031A004C
:00000001FF
