:10000000AFC10000CAC10000E2C10000C6C10000CB
:10001000C4C10000C2C100000C949016BEC1000013
:10002000BCC10000BAC10000B8C10000B6C10000E8
:10003000B4C10000B2C100000C940717AEC10000AB
:10004000ACC10000AAC10000A8C10000A6C1000008
:10005000A4C10000A2C10000A0C100009EC1000018
:100060009CC100009AC10000290014001A00080079
:10007000150017001C0018000C00120013002A00C5
:10008000390004001600070009000A000B000D00EB
:100090000E000F000000000033002800E100000007
:1000A00022521D001B00060019000500000005007B
:1000B000110010003600370052000000E500E0009B
:1000C000E2002C0021522C00000050000000000033
:1000D000000051004F00000035021E001F002000EC
:1000E0002100220023002400250026002700010013
:1000F000E300010001000100010001000100010016
:100100000100010000000000340031000100000087
:1001100001000100010001000100010000000100D8
:100120000100010001000100010000003800010091
:100130000100010001002352000001000000000046
:1001400000000100010000002B000100010001007F
:1001500001000100010001002D002E002F003000E1
:100160000100010001000100010001000100010087
:10017000010001000000000001004C00010000002F
:100180000100010001000100010001000000010068
:100190000100010001000100010000000100010058
:1001A0000100007C010001000000010000000000CF
:1001B00000000100010000003A003B003C003D004F
:1001C0003E003F0040004100420043004400450023
:1001D0000100010001000100010001000100010017
:1001E000010001000000000001000100010000000A
:1001F00001000100010001000100010000000100F8
:1002000001000100010001000100000001000100E7
:1002100001000100010001000000010000000000D9
:10022000000001000100000009023B00020100A0E3
:10023000FA09040000010301010009210101000184
:10024000224400070581030800010904010001039D
:10025000000000092101010001227B000705830342
:1002600008000112011001000000085044030001C1
:10027000000102000110037300680069007300614F
:10028000006B00750000001403410044005000653D
:10029000006E0072006F0073006500000004030927
:1002A0000405010902A10185020901A1000509193E
:1002B000012908150025019508750181020501092C
:1002C0003009311581257F95027508810609381599
:1002D00081257F950175088106050C0A3802158174
:1002E000257F950175088106C0C005010980A1011F
:1002F000850319012AB700150126B700950175106D
:100300008100C0050C0901A101850419012AA00280
:10031000150126A002950175108100C0050109068E
:10032000A101050719E029E71500250195087501C8
:1003300081029501750881030507190029FF150041
:1003400026FF009506750881000508190129051585
:10035000002501950575019102950175039103C072
:1003600011241FBECFEFD8E0DEBFCDBF11E0A0E06B
:10037000B1E0EAE3F6E302C005900D92A639B107B9
:10038000D9F722E0A6E9B1E001C01D92A83BB2076F
:10039000E1F70E94E9100C94C71A32CEA82FB92FAA
:1003A00080E090E041E050EA609530E009C02D9196
:1003B00082279795879510F084279527305EC8F39C
:1003C0006F5FA8F30895EADF8D939D930895CF930F
:1003D000CFB7CF93DF93C3954B9BE9F74B9B10C0EF
:1003E0004B9B0EC04B9B0CC04B9B0AC04B9B08C049
:1003F0004B9B06C0C0918F02C395C0938F028EC0E5
:100400006F93C0918E02DD27CA56DD4F2F9365E5AD
:100410004B9B03C02F916F91E1CF0F931F934F938D
:1004200020E040E15F9309B10C7003FB27F93F9393
:1004300050E03BE039C01C7040642F77012F5F5FB4
:100440001EC0406819B11C702F7752501FC0406405
:1004500009B12F770C70D1F15F5F00C023C04062FB
:1004600019B12F771C7091F15F5F00C025C00C702F
:100470001027515012F45D5F0000115027952C3F5A
:1004800019B1C8F61C700127015027952C3FC8F6FA
:100490004227499309B10C7010274F7311502795CB
:1004A0002C3FA8F64695469519B11C7079F00127A6
:1004B000015027952C3F98F66B5A60F3315009B1E3
:1004C000B0F600C012E01CBB00271CC03B503195A9
:1004D000C31BD04012E01CBB0881033C21F10B344C
:1004E00011F120918B021981110F1213EDCF4A8166
:1004F000441F093679F10D3211F0013E29F74F7092
:1005000009F0042F009394023F915F914F911F9146
:100510000F912F916F91CCB3C1FD5DCFDF91CF9142
:10052000CFBFCF91189520919402222369F31091A7
:100530009202112309F049C034300AF448C03093C4
:10054000920220938D0210918E023BE0311B30937A
:100550008E023DC0009192020130BCF50AE54F7059
:1005600049F43091190134FD33C000931901C8E6F4
:10057000D2E032C0433059F0443091F030917302F0
:1005800034FD26C000937302C4E7D2E025C0309149
:10059000AC0234FD1DC00093AC02CDEAD2E01CC019
:1005A00030917F0234FD14C000937F02C0E8D2E096
:1005B00013C0052710E000C000000BB91AC00527C2
:1005C00010E0221F1DC010E021C04AE502C032ED3C
:1005D000432FC4E1D0E032E01AB11C605B9A0BB14A
:1005E0001AB95CE020E865E320FF05270BB92795E1
:1005F00017951C3FF0F66695B8F7B1F720FF052771
:100600000BB9279517951C3FD0F62795179517FF1F
:10061000052700001C3F0BB9B0F629913A9519F750
:10062000037F10919302110FC651D0400BB911F006
:1006300010938B0212E01CBB08601AB1137F402F8D
:10064000437F54E05A95F1F70BB91AB94BB95CCF17
:100650008430C8F46830B8F44730A8F450E097E02C
:10066000699F400D511D112498E3899F400D511D34
:100670001124FA01EE0FFF1FE859FF4F8591959164
:10068000282F822F089521E090E0FBCFE1CF08953D
:1006900081E0089581E00895FBCF089581E00895F9
:1006A00081E00895FDCF089508950895FDCF089540
:1006B00008950895A6E0B0E0E0E6F3E00C94431A54
:1006C00049835A839E8330919D0189819A8131119A
:1006D00017C03E81311589F0211579F001D5182F09
:1006E000682F89819A81DBD469817A81812F0E9468
:1006F000270E2696E3E00C945F1AE2D4182FF4CF6D
:10070000EFD469817A81F3CFFC01262F408151819A
:100710006281738184819581CDCFCF93DF93EC018A
:1007200061E0F2DFBE01B6DF811529F061E0CE01A4
:10073000EBDFBE01B1DFDF91CF9108950F931F93DF
:10074000CF93DF93EC0160E0DFDF8C01BE01ADDF12
:10075000BE01C801ABDFDF91CF911F910F910895CA
:100760000F931F93CF93DF93EC0161E0CDDF8C01FA
:10077000BE0194DF811106C080E0DF91CF911F910F
:100780000F910895BE01C8018DDF8115A9F3BE0147
:10079000C8010E94BA14811579F3BE01C8010E94F4
:1007A0003911811549F3BE01C8010E94121181154A
:1007B00019F3BE01C8010E942A0F8115E9F2BE019A
:1007C000C8010E943C0F8115B9F2BE01C8010E9408
:1007D000560FD3CF21E030E002C0220F331F8A959D
:1007E000E2F7C90197C3CF93C82F81E090E00C2EA8
:1007F00002C0880F991F0A94E2F70E94510C8C2FB7
:10080000E9DFCF91089581E0089581E00895FBCF5D
:100810000895CF93C82F2DD38C2FF7DF8C2FF7DFC0
:100820008FEF94E32CE0815090402040E1F700C02E
:100830000000CF91089581E0ECDF0C942B1780E04D
:10084000E8DF0C943F1734DF0E943E1617C018D023
:1008500030DF0C94421681E008950895CF93DF9322
:10086000D82FF9DFC82F811511F08D2FF6DF8C2FCF
:10087000DF91CF9108950895F1CF089580E0FCCFE6
:100880000E940015F9CFCF930E940015C82F8091C8
:1008900098018C1771F0C09398010E94FB16609329
:1008A000990170939A0180939B0190939C018C2FE6
:1008B000E3DFCF910895ADE0B0E0E1E6F4E00C9421
:1008C000441A488759876A877B878C879D8791114F
:1008D00015D71F8286E0FE0138969E012F5F3F4F9D
:1008E000D90101900D928A95E1F78D8181110CC09B
:1008F00029813A814B815C816D817E818F8149D6CE
:100900002D96E2E00C94601ACE01019606DF81116B
:10091000EFCFF6CFFC012481213019F48081918141
:1009200012C40895611521F00E9490120C94441392
:100930000E94CF12FBCFCF93C82F811581F0845036
:10094000813A78F48C2F0E948C15811521F08C2F20
:100950000E94CE1528D78C2F0E94C81524D7CF917E
:1009600008958C2F805E883048F481E0C1FD84E0DA
:10097000C0FD880FC2FD8295A2D6F0CF8C2F855A7C
:10098000833030F48C2F8452990B0E942E15E7CFC0
:10099000EC2FE85AEB3150F4F0E0EE0FFF1FE65E6B
:1009A000FE4F808191810E945315D9CF8C2F8D5C91
:1009B0008331A8F661E08C2FB5DFD1CF811559F1D5
:1009C000982F9450913A18F40E94CE15ECC6982FA7
:1009D000905E983050F4982F81E091FD84E090FD76
:1009E000880F92FD829571D6F1CF982F955A93304A
:1009F00020F480E090E00C942E15982F985A9B31AB
:100A000020F480E090E00C945315982F9D5C933176
:100A100010F460E087CF08951F93CF93DF93182FD2
:100A2000EB0189DF209731F4812FC8DFDF91CF916F
:100A30001F9108958FE99FE00197F1F700C0000032
:100A40002197F0CF60E570E0893311F060E070E04D
:100A5000E3CF811511F033D6A6C60895811511F0A4
:100A600034D6A1C60895A0E0B0E0E9E3F5E00C9427
:100A70003E1A6C01D62FC72FFC0115810681029505
:100A80000F7012D6E82E8115E9F0E12E1115D1F084
:100A90008C2F807F803461F08D2F805E8830E0F075
:100AA0008C2F807E803221F4D230B0F00115A1F07D
:100AB0008091530282FF10C082E091D6F5D591E07B
:100AC0008927E82EEC2FE295EF70C03C78F5F0E036
:100AD000E753F54E0C942E1AE12CF4CF0C2F0F7027
:100AE000C03110F00295007F111581F0011549F019
:100AF0008D2F805E883010F0D11105C0802FDFD59A
:100B000052D68D2F40C0802FEBD5FACF8D2F56DFD8
:100B1000011561F08D2F805E883010F0D11103C077
:100B2000802FD3D502C0802FE1D53DD6E11409F442
:100B3000B3C0B6D580FDB0C0F6011582ABD51AD2D0
:100B4000C60168D1A7D524D2A7C08C2F8F70F82EEC
:100B5000C07FC03219F0F29480EFF822D13038F023
:100B600079F1111509F438C00115C9F0CACF809187
:100B7000530282FD10C0111541F0F11419F08F2DB0
:100B80009ED511D680E0D7DED1CF80E017DFF114FB
:100B900069F28F2DC6CF111551F0013018F48F2D49
:100BA00058DFC4CF09F0C2CF8F2DBCD5BFCF011104
:100BB000BDCF8F2D53DF8F2DC0D58F2DA5D5B6CFAF
:100BC000111521F0063008F0B1CFE9CF053008F05B
:100BD000ADCF8F2D43DFAACF0115D9F3D93349F417
:100BE0008FEF97EE23E0815090402040E1F700C066
:100BF00000008D2FE3DE9ACF8C2F8695869583702B
:100C0000813060F009F092CF8D2F9C2F93701111DD
:100C100002C080E090E00E94531588CF8D2F9C2F5A
:100C20009370111102C080E090E00E942E157ECFDB
:100C3000612F8D2F77DE7ACF8C2F8370C1F5111144
:100C400028C04D2F429546954770440F440F2D2FD5
:100C50002F7030E0042E02C0220F331F0A94E2F7F7
:100C600080E090E0D4FF09C08FE090E002C0880FE0
:100C7000991F4A95E2F780959095C695C695C370E1
:100C8000822B932BC23079F0C33079F0C13049F018
:100C90004AD10E940015F0DDCDB7DEB7E8E00C9434
:100CA0005A1A3AD1F6CF46D1F4CF34D1F2CF11153A
:100CB00059F1C0FFEECF4D2F429546954770440F36
:100CC000440F2D2F2F7030E0042E02C0220F331F4F
:100CD0000A94E2F780E090E0D4FF09C08FE090E052
:100CE00002C0880F991F4A95E2F780959095C695A6
:100CF000C695C370822B932BC23061F0C33061F074
:100D0000C13031F06AD1C5CF823008F4C2CFD3CF21
:100D10005DD1BFCF69D1BDCF1AD1BBCFCF70111577
:100D200029F08C2F27D18D2F94DEB3CF8D2F96DE17
:100D30008C2F2ED1AECFD23F31F168F4D03FC1F02D
:100D4000D13F89F0111509F43EC0011509F438C0EE
:100D50008D2FF1DD9ECFD33FE1F0D43F99F7809105
:100D6000530282FD1EC08C2F8F71111511F30FC01D
:100D7000111539F0053008F08CCF8C2F8F7118D1F8
:100D800088CF0630F8CF8C2F8F711111D2CFF2D0CF
:100D900080CF111521F08C2F8F71E3D07ACFDED068
:100DA00078CF111529F063E08C2F8F7101D571CFA9
:100DB00081E015D5023008F46CCF82E010D569CF00
:100DC0008C2F8F71E4CF011571F0D93349F48FEF77
:100DD00097EE23E0815090402040E1F700C00000F2
:100DE0008D2FECDD56CF8C2F8F71A3CF0F931F93D8
:100DF000CF93DF93EC01688179818D81ADD18C0136
:100E0000FAD087D0B801CE012EDEDF91CF911F91AD
:100E10000F910895CF93DF93EC018C81811581F0C0
:100E2000CE019EDC81110FC03FD4811549F08D8128
:100E3000811531F08091530282FF02C082E0CFD44D
:100E4000DF91CF910895CE01D1DFCE0177DCF8CFCD
:100E500080E090E00E942E1580E090E00E94531503
:100E60004DD4A1D40E945D130C9444130E94D41558
:100E7000EFCF33D4FBCF282F92959F70963099F007
:100E800060F4925F9F70923030F4203FB1F038F4FC
:100E900081E0283E38F080E008959A5FF3CF81E04A
:100EA000243FC9F7089591E0813F09F090E081E087
:100EB000283E08F080E0892B089581E00895FC0128
:100EC0002481211521F0808191813DD1D4CF80E012
:100ED0000895A6E0B0E0EFE6F7E00C94441A2696F9
:100EE000E2E00C94601AA7E0B0E0E9E7F7E00C94C8
:100EF000441A2796E2E00C94601A0895FECF0895F4
:100F0000FDCF0895FADFFCDF8093BC019093BD0113
:100F100008950895F7CF08952091BC013091BD0147
:100F2000822B932BEFCF2091BC013091BD01822306
:100F30009323E8CF2091BC013091BD0182279327F4
:100F4000E1CFDBCF0895FDCF0895D7CF0895FDDF22
:100F5000FADF8093BA019093BB01089580E090E09E
:100F6000F6CF21E030E002C0220F331F8A95E2F76E
:100F7000C901EDCF21E030E002C0220F331F8A9576
:100F8000E2F78091BA019091BB01822B932BDFCFC6
:100F900021E030E002C0220F331F8A95E2F720954E
:100FA00030958091BA019091BB0182239323CFCFDA
:100FB00021E030E002C0220F331F8A95E2F78091D2
:100FC000BA019091BB0182279327C1CF2091BA012A
:100FD0003091BB01822B932BBACF2091BA01309173
:100FE000BB0182239323B3CF2091BA013091BB017F
:100FF00082279327ACCF0895CF93C1E061FDC4E071
:1010000060FDCC0F62FDC29593E0769567959A9549
:10101000E1F7660F771F660F771F460F571FFA011C
:1010200040E050E090E06191DF019C01042E02C09D
:10103000369527950A94E2F72695220B26272C232E
:1010400026272E934F5F5F4F4430510561F7CF91B4
:101050000895A82FA77023E0969587952A95E1F724
:10106000880F991F880F991F680F791FFB0140E0B7
:1010700050E080E0219130E00A2E02C0369527959D
:101080000A94E2F72170042E01C0220F0A94EAF7B5
:10109000822B4F5F5F4F4430510561F70895262F33
:1010A000983068F4873058F4682F70E087E0989F94
:1010B000600D711D11244EE951E0822F9DCF0895DE
:1010C000292F983058F4873048F490E06EE971E0A9
:1010D00037E0239F800D911D1124BBCF80E0089540
:1010E000CF92DF92FF920F931F93CF93DF936C0108
:1010F0000091BA011091BB018091BC019091BD019A
:10110000082B192BCFE0D0E081E090E00C2E02C03C
:10111000880F991F0A94E2F780239123892B61F4A9
:10112000219790F7F12C8F2DDF91CF911F910F9187
:10113000FF90DF90CF900895FC2EB6018C2F92D5B2
:10114000019771F3F0CFCF93DF93EC01C9DFBE01BC
:1011500089D5DF91CF9108951F93CF93DF93EB0152
:1011600090919D01911531F0CB01EDDFDF91CF9191
:101170001F910895811551F0CB01B2DF182F682F10
:10118000CE018DDFBE01812F6DD5F0CFCB0198DF71
:10119000182FF8CF0F931F930091BE018091BF01CC
:1011A000801303C01F910F91089587E0089FF001FD
:1011B0001124E054FE4F20813181428153816481AA
:1011C0007581868190DE0F5F1F4F0770E7CF2091FA
:1011D000F8013091F9014091FA015091FB016091C1
:1011E000FC017091FD018091FE017DCE8091FE0198
:1011F000803170F48091FD01811551F0E091BE01C4
:101200002091BF013091F9014091F8012E1301C0E6
:101210000895BF0187E0E89FF0011124DF01A05489
:10122000BE4F14968C911497811549F111968C91AB
:101230001197831324C08C91841321C015968C912F
:10124000159781111CC012968D919D91A091FA0164
:10125000B091FB018A1B9B0B883C910580F4809127
:10126000FE018F7080618093FE01EA53FE4F808102
:101270008F708061808388EF91E0CCDD8BCF6F5FD2
:101280007F4FFB01E770C2CFE091BE019091BF019B
:10129000E91302C080E008959F0157E0E59FF00147
:1012A0001124E054FE4F5181561306C0508158134B
:1012B00003C05581541305C02F5F3F4FF901E770FC
:1012C000E7CF81E008958F929F92AF92BF92DF9215
:1012D000EF92FF920F931F93CF93DF93CDB7DEB7BB
:1012E0002D970FB6F894DEBF0FBECDBF8C0186E000
:1012F000F801DE01189601900D928A95E1F7F80148
:10130000F580848198EF892E91E0992E9091FC01CF
:10131000911117C0811509F4EFC0F11409F42EC121
:10132000C801CDDD811509F429C187E0F801D40198
:1013300001900D928A95E1F7C401ECDA57DF47DF9F
:10134000DBC0E080A280B380D090FD012091FA0143
:101350003091FB01A501421B530BD11409F4CFC0FE
:10136000483C510508F09EC0811509F4C5C0909114
:10137000F90191808091FE01803108F065C09912D9
:1013800026C09091F8019E1122C0F11057C08F70B5
:1013900080618093FE011BDF88EF91E03BDD80914F
:1013A000FE01F8018683F12C8F2D2D960FB6F8944F
:1013B000DEBF0FBECDBFDF91CF911F910F91FF9088
:1013C000EF90DF90BF90AF909F908F900895F110B5
:1013D00035C040E0692D8E2D57DF40E0692D8E2D00
:1013E00053DFF82E8111DFCF88859985ACDE292F58
:1013F00022952F70903450F49F70223078F0911520
:1014000091F0F8019681903170F4CECF2A5F2F7061
:10141000223070F0C801FEDCFD2CC6CF911519F00A
:10142000811509F4C1CF805E883008F4BDCFF2CFBA
:10143000803F08F4B9CF815F8330F7CF8091FE0100
:1014400081608093FE01AFCF991207C09091F8019F
:101450009E1103C0F11409F473C0C80130DD811579
:1014600009F48CC0F11409F489C08091FE01803226
:1014700080F02091F8013091F90129833A83AB8201
:10148000BC829091FC019D831E828F83CE010196C8
:10149000C1DC87E0F801A8EFB1E001900D928A95D8
:1014A000E1F74CCF9091FE01903188F44885598541
:1014B0006A857B858C859D850CDD88EF91E0AADCB3
:1014C000F40187E011928A95E9F781DE6CCF8115EE
:1014D00099F02091F90181812813BFCF8091F80103
:1014E0008E11BBCFF110B9CF9683C80193DCF40104
:1014F00087E011928A95E9F7FF24F39455CF483C91
:10150000510508F03EC08115B9F3F114B9F190917D
:10151000F9018181981329C08091F8018E1125C0AD
:101520008091FE0180FD18C08031B0F08683807FFD
:10153000803F39F08681982F907F905F8F70892B44
:101540008683C80167DC87E0F801A8EFB1E001906D
:101550000D928A95E1F7F3CE87E0F801A8EFB1E0AC
:1015600001900D928A95E1F7C7CFC801A8DC8111DF
:1015700090CF8091FE0181608093FE01C8014ADC1A
:10158000BBCF488559856A857B858C859D85A1DC87
:1015900097CFAEE0B0E0EFECFAE00C94431A288766
:1015A00039874A875B876C877D878E87CE0108964F
:1015B0008ADE6C85811599F0611539F028853985A9
:1015C0004A855B857D858E858EDC8091BE019091FC
:1015D000BF0189133DC02E96E3E00C945F1A87E0AB
:1015E0009E01285F3F4FF90127503109D901019031
:1015F0000D928A95E1F7611541F3A091BF018A2F01
:1016000090E08395877090E0AC012091BE01241793
:10161000150691F097E09A9FD0011124A054BE4F77
:101620009E012F5F3F4FF90101900D929A95E1F7CE
:101630004093BF01AFDDC9CF1CDC1092BF011092F7
:10164000BE01E8EFF1E087E011928A95E9F7BDCF9E
:1016500017E0189FC001112480549E4F34DE81157D
:1016600009F4B9CFE091BE011E9FF0011124E054AE
:10167000FE4F208131814281538164817581868151
:1016800032DC8091BE019091BF01019687708093FA
:10169000BE019BCF8091FF01869586958695089522
:1016A0008091FF01877008959091FF01977081E00C
:1016B000911101C080E0089580910B0208959091EE
:1016C0000B02982B90930B0208958095982F809190
:1016D0000B02892380930B02089510920B02089548
:1016E00090910A02982B90930A0208958095982F62
:1016F00080910A02892380930A02089510920A02B7
:1017000008950895FECF089590910002292F28236F
:1017100029F08095892380930002F4CF08950895DD
:10172000FECF089590910102292F2823281721F038
:10173000982B90930102F4CF089590910102292FE4
:10174000282329F08095892380930102E9CF089509
:1017500080910102811521F01092010280E0E0CF1A
:1017600008950F931F93CF938091000190910101F1
:101770008C01C0910B0280910A02C82B809101025A
:10178000811529F0C82B0E9478158111E1DFF8013D
:10179000C08380910001909101010E940F15CF91AB
:1017A0001F910F910895DDCF08950895FECF0895FC
:1017B0009091530292FF0EC0982F990F990F990F95
:1017C000962B9093FF01D6DB8091FF01869586953D
:1017D0008695ECCFCFCB1092FF0180E0E7CF9091C0
:1017E000FF01809589238093FF01282F277059F4EA
:1017F000891749F09091530292FF05C0869586950E
:101800008695C6DBE8CF08959091530292FB22277C
:1018100020F9281749F080FB92F99093530282E552
:1018200092E043D082E0DBCF089580915302002400
:1018300082FF0394802DE8CF81E0E6CF80E0E4CF03
:1018400080E090E0BC0199C380E090E0BC018FD3C0
:10185000F7CFA3E0B0E0EFE2FCE00C94441A40D3F1
:101860004BD31B82CE0103965ED381E090E0809340
:10187000BC011092BD0163D3198284E18A83CE0139
:1018800001966ED3E1DF2396E2E00C94601AE1CF7B
:10189000089538C3089525C308953AC3089549C3E8
:1018A00008954DC3089550C308955AC308956BC356
:1018B0000895A6E0B0E0EFE5FCE00C94421A0E9427
:1018C000EF168C0180910C0290910D028017910708
:1018D00079F019821A820E94EF16BC0149815A815F
:1018E00080E090E00E945B0400930C0210930D02D4
:1018F0002696E4E00C945E1A0E94FB166093120296
:1019000070931302809314029093150260930E0259
:1019100070930F028093100290931102089508951E
:101920000895FDCF08950895FEDFFBCF0895FECF03
:1019300008950895FEDFFBCF88E29FE055D4F0DFE5
:10194000F3CF81E0089581E00895FBCF08950895D5
:1019500008950895FCDFFCDFFCCF9DDF811101C0FD
:1019600096DF86E192E099DF82E592E09CDF58D431
:1019700096DFD0DA8091BA019091BB01E4CA0E944F
:10198000E616A4D3EADF0E94FE140E943B04D2CFE5
:10199000A6E0B0E0EEECFCE00C943B1AD4DF811141
:1019A0000AC087DF0E94FF14A9D60E94430426962E
:1019B000EBE00C94571A99D38AE4A82E82E0B82E53
:1019C000750110E0F7010081812FE8D21F5F183008
:1019D00009F445C09FEFE91AF90A081799F38091B5
:1019E000160281FDE1D2B1DF982E10E0812FD6D210
:1019F000F82EF50181915F01F81661F18F25D82E3F
:101A000000E0EE24E3948D2D8E21F1F0CC24C394DC
:101A10008F2D8E2109F4C12C911489F0602F812F14
:101A20000E94621681110BC009831A830E94EF166F
:101A3000BC0149815A8181E09C2D0E945B044C2DA0
:101A4000602F812F0E9476160F5FEE0C0730D9F6BB
:101A5000F501F2921F5F183049F64EDFA3CF08134D
:101A6000BECF9FCF0F931F93CF93DF93FDD0EC0199
:101A7000D23508F050C0D03508F0C8C0C03ED105FE
:101A800030F5CD3CD10508F09DC0C83AD10578F4B9
:101A9000C53AD10508F093C0C130D105B1F1CE01EE
:101AA0000497813A910588F1C0E0D0E02EC0CE01C4
:101AB000885A91094B97C0F7C85AD0E0CC0FDD1F68
:101AC000C05BDE4F0990D881C02DD4641EC0D034D5
:101AD000A8F4D03208F0ADC0C83ED105B0F0CE01B8
:101AE00091509F3108F78D2F62D1082F8C2F90E0F5
:101AF000BBD0D02FDF71C82FD92B07C08C2F90E01F
:101B0000B3D0DF70C82FD92BD06ACE01DF91CF912F
:101B10001F910F910895C03882E5D807B8F5C036F7
:101B200082E5D80708F056C0C03482E5D807C8F46B
:101B3000C03282E5D80708F047C08C2F869586957D
:101B400020E2829FC0011124C37021E030E002C076
:101B5000220F331FCA95E2F7E901C82BD92BDD68A4
:101B6000D4CF8C2F86958695877020E2829FC00106
:101B70001124C37021E030E002C0220F331FCA9548
:101B8000E2F7E901C82BD92BDC68BFCFC03C82E566
:101B9000D80750F48C2F8F71C03AD24580F5982F1A
:101BA00084EF906AEC01B1CFCE01805C92458097C2
:101BB00008F07ACFDC2FDF71C0EFD06AA6CFA497F0
:101BC000D064A3CFD065A1CF8C2F8F71D82FC1EF58
:101BD000D06A9BCF8C2F86958695877020E2829F56
:101BE000C0011124C37021E030E002C0220F331F76
:101BF000CA95E2F7E901C82BD92BDA6886CFD7D08E
:101C0000982F80E09F71EC01D0627FCF8C2F8F7175
:101C1000CED053E0CC0FDD1F5A95E1F7DF70282FAF
:101C200084FF04C090E1899F90011124C22FD069E4
:101C30006CCF8D2F8F71BBD0082F8C2F90E014D0DC
:101C4000302F3F71282F392B3062E9015ECF462FAC
:101C5000783028F4673018F4672F0C94460380E03E
:101C600090E00895F4DFFECE803E9105D1F1C8F4F6
:101C70008133910509F481C048F48932910509F452
:101C800071C08A32910509F47FC0089589339105A6
:101C9000E1F082389105C9F08533910509F45DC002
:101CA0000895843E9105D1F148F4823E910531F1C9
:101CB000833E910541F181EE90E00895863E9105C5
:101CC000C1F1873E9105F1F10895209152022370F0
:101CD00009F064C02091530223FF14C089E290E010
:101CE00008952091520220FD45C03091530230FFEB
:101CF00009C024FD24C083EE90E008952091520293
:101D000022FDF7CF08952091520222FD44C0309168
:101D1000530230FD43C024FFF5CF11C02091530280
:101D200021FFF0CF8091520284FD09C087EE90E040
:101D300008952091520223FFE5CF24FFF7CF80E0E2
:101D400090E008952091520223FD2BC03091530260
:101D500031FFE1CF84EE90E008952091520225FFFB
:101D6000D1CFBCCF2091520225FD1EC0209153023D
:101D700023FFC8CF89E390E008952091520226FF07
:101D8000C1CF8AE290E008952091520226FFBACF97
:101D900081E390E0089582EE90E0089580EE90E077
:101DA000089586EE90E0089585E390E0089590917F
:101DB000520292FF10C041E0282F2471243009F014
:101DC00040E031E0282F2871283009F030E0431737
:101DD00011F02CE0822793FF10C041E0282F2471DE
:101DE000243109F040E031E0282F2871283109F032
:101DF00030E0431711F02CE082273091530230FF7E
:101E000010C051E0282F2171213009F050E041E04D
:101E1000282F2871283009F040E0541711F029E0EC
:101E2000822731FF10C041E0282F2171213109F0B4
:101E300040E031E0282F2871283109F030E04317C5
:101E400011F029E0822794FF02C083FD877E089568
:101E500080E00895CF939C01205E3245C1E020329E
:101E6000310538F4FB01C581C11103C08F710E9497
:101E7000F3038C2FCF9108959C01FB01858181157F
:101E800099F02B359CE7390769F02C359CE7390729
:101E900021F02A353C4721F00895C7DC80E0089501
:101EA000CBDCFCCFCBDCFACF81E008959C01FB01B9
:101EB0008581811599F021309CE7390761F0233045
:101EC0009CE7390739F021153C4749F40E941B046F
:101ED00080E00895DEDC0E941F04FACF81E00895BF
:101EE000089580E090E00E94941A9C0181E0233ED6
:101EF0003E4F09F080E0089563EE7EEF80E090E0D1
:101F00000C94B31A6FEF7FEF80E090E00C94B31A5B
:101F1000CF93DF93EC0182E090E00E948C1A8883DB
:101F2000DF91CF910895FC01608182E090E00C94F4
:101F3000991A83E090E00E948C1A90E00895682F2F
:101F400083E090E00C94991ACF93DF93EC0184E046
:101F500090E00E94941A88839983DF91CF9108952D
:101F6000FC016081718184E090E00C94B31AAB01B4
:101F7000BC018FE090E00C94AB1AAB01BC0183E193
:101F800090E00C94AB1A682F8EE090E00C94991AB4
:101F90000895FECF08950895FECF0895E82FF0E04C
:101FA000E45AFD4F80810895089580EA8A95F1F7FB
:101FB000089500C00895F9CF0895F894E82FE295A8
:101FC000EF70F0E041A18F7021E001C0220F8A95EF
:101FD000EAF7922F9095942391A392A1822F892BB7
:101FE00082A378940895CF93DF93CDE8D1E08991CF
:101FF0008F3F09F0E2DF81E0C539D807C1F7C6E8B5
:10200000D1E089918F3F09F0D8DF81E0CD38D80742
:10201000C1F7DF91CF910895A0E0B0E0E2E1F0E1F7
:102020000C943E1A6C01E62EC62FD0E08E010357A9
:102030001E4FF80180818F3F09F441C0F894E82FCA
:10204000E295EF70F0E091A18F7021E001C0220FC6
:102050008A95EAF7892F822B81A382A120952823D4
:1020600022A37894A6DFA6E8B1E031E0F12C2D910F
:102070002F3F79F0E22FE295EF70E05EF0E0808193
:1020800090E02F7002C0959587952A95E2F780FF22
:102090001BC080E0F82A330F81E0AD38B80739F76C
:1020A000F80180818F3F09F088DF61E0F11001C005
:1020B00060E08E2D80DFF601EC0FFD1FF082CDB7C2
:1020C000DEB7E8E00C945A1A832FE4CF8CDFECE5FE
:1020D000F2E088E011928A95E9F7E4E5F2E088E021
:1020E00011928A95E9F73CD054CFA8E0B0E0EBE735
:1020F000F0E10C94411AFE013196DF0188E01D9257
:102100008A95E9F710E00E2FFF2E612F802F9F2D6B
:1021100083DF812F8F5F182F8830B9F748E050E0B8
:10212000602F7F2D84E592E00E947F1A41E0892B89
:1021300069F440E06CE572E084E592E012D0182F7B
:102140002BDF812F2896E5E00C945D1A88E0E02FC4
:10215000FF2DA4E5B2E001900D928A95E1F7EACF58
:102160000895EF92FF920F931F93CF93DF938C010B
:102170007B01C42F411571F081E0809319022FD6A5
:10218000809317029093180280E0CDB7DEB7E6E0A7
:102190000C945C1AD0911902D115B1F380911702F9
:1021A00090911802B3D5059778F348E050E0B80154
:1021B000C7010E947F1A892B41F088E0F801D701FE
:1021C00001900D928A95E1F7CD2F109219028C2F74
:1021D000DCCFA5D57ED6B0DB8BD6D1DB98D6A3D607
:1021E000C7D6D1D6B7DBFBCF8093960190939701EA
:1021F00008954FCB089580E0D1DE8170089575DF9A
:102200008FEF96E721E0815090402040E1F700C039
:1022100000006BDFF0DF811511F0EBDF1CC60895C5
:10222000EECF0895CF93DF93EB0186319C47F9F40D
:1022300043DA9D81911591F08A7A91E0811101C074
:1022400090E090931A02811539F085E3A1D4ABDABE
:1022500080E0DF91CF91089589E2F8CF80911A0252
:10226000811519F085E39AD4F2CF89E2FCCF81E0A1
:10227000F0CFCF93DF93EC01FB018581811509F449
:10228000C8C09E0130572332310508F0A8C082E54E
:1022900092E009DBFE01E150F047E232F10520F463
:1022A000EB52F54E0C942E1A80915202816080936D
:1022B00052028FC08091530288608093530289C07C
:1022C000809152028260F3CF809152028460EFCFFE
:1022D000809152028860EBCF809153028160EDCFF4
:1022E000809153028260E9CF809152028061DFCFFA
:1022F000809152028062DBCF809152028064D7CFFE
:102300000E943907809152028068D1CF8091520299
:102310008C60CDCF809153028360CFCF80915202E9
:102320008E7FC5CF80915302877FC7CF80915202A5
:102330008D7FBDCF809152028B7FB9CF80915202A9
:10234000877FB5CF809153028E7FB7CF80915302A4
:102350008D7FB3CF809152028F7EA9CF80915202A0
:102360008F7DA5CF809152028F7BA1CF0E9439072C
:10237000809152028F779BCF80915202837F97CFBB
:10238000809153028C7F99CF90915202892F8B7F3D
:1023900092FF8460877F92FF886089CF809153028B
:1023A000982F909590FB80F990FB81F986CF9091C2
:1023B0005202892F8F7B96FF806479CF0E94390764
:1023C00090915202892F97FB87F9805870CF81E056
:1023D0006EDA82E592E069DA0E94390780E0DF91E7
:1023E000CF91089580E0F4CF90915202892F8F7E93
:1023F00094FF80615CCF90915202892F8E7F90FF75
:10240000816055CF90915302892F877F93FF886019
:1024100054CF81E0E4CF382F25EB3203C0011124E3
:1024200097FF04C080589109892F089580589F4FC5
:10243000FBCF8091210280FF0DC06091070170E009
:10244000660F771F6038710580F56115710579F1A8
:10245000862F089581FF07C06091070184E0689F7F
:10246000B0011124EFCF82FF04C06091070188E022
:10247000F6CF909120029115B1F060910601809104
:102480000701961728F098E0899FB0011124DACF50
:10249000899FC001112423E0880F991F2A95E1F735
:1024A00070E0C9D7CFCF68E0D3CF8FE7089581E040
:1024B00008958091210280FF0CC06091030170E0BB
:1024C00075956795759567956115710539F1862F35
:1024D000089581FF06C06091030170E075956795CE
:1024E000F3CF6091030182FD0BC090911F02911503
:1024F00099F06091020180910301961738F0682FDE
:1025000070E06038710500F38FE70895899FC0017E
:10251000112470E090D7F5CF61E0D9CF81E0089524
:10252000E82FED5CE33190F5F0E0E950F54E96C709
:1025300080DF81958093250208957BDFFBCF79DFD3
:10254000819580932402089574DFFBCFB2DF8093DE
:1025500026020895AEDF8195FACFABDF8195809397
:1025600027020895A6DFFBCF815D990B21E001C012
:10257000220F8A95EAF780912302822B809323020F
:1025800008958091210281608093210208958091B5
:1025900021028260F9CF809121028460F5CF4091C1
:1025A00024028D3C59F48091250287FF0DC01092C2
:1025B0002502411559F41092200208C08E3C81F486
:1025C0008091250218169CF3411581F08091260216
:1025D00090912702892B09F056C010921F0208958E
:1025E0008F3C41F447FFF0CF1092240280912502E6
:1025F0008115E0CF803D19F41416B4F3E5CF909126
:102600002602893D29F41916FCF610922602DCCF29
:102610008A3D19F497FFD8CFF8CF909127028B3DD0
:1026200029F497FFD1CF10922702CECF8C3D19F419
:102630001916CCF3C9CF982F915D983078F4815D4D
:10264000990B21E001C0220F8A95EAF7822F80952D
:1026500090912302892380932302B6CF8D3D31F4DC
:10266000809121028E7F80932102AECF8E3D21F496
:10267000809121028D7FF7CF8F3D09F0A5CF80910A
:1026800021028B7FF0CF0895AAD39C019091240260
:1026900080912502982B21F020931D0230931E0279
:1026A0009091260280912702982B21F020931B0203
:1026B00030931C0282E292E0BFC1E2E2F2E086E0E7
:1026C00011928A95E9F71092200210921F0210923F
:1026D00021020895FC01828181110EC08381811144
:1026E0000BC08481811108C091E08581811101C0F6
:1026F00090E0892F8170089581E0FCCFA6E0B0E0E2
:10270000E3E8F3E1BEC686E0E2E2F2E09E012F5F7D
:102710003F4FD90101900D928A95E1F71092240262
:102720001092250210922602109227028B819C8122
:10273000892B022FF32E811581F080911D0290913B
:102740001E02E4D2AC0190912002911599F1809182
:1027500008018417150608F43AC08D819E81892BE3
:1027600089F080911B0290911C02D0D2AC01909113
:102770001F02911509F459C08091040184171506B0
:1027800008F461C0602F7F2D82E292E017D28111A0
:1027900004C082E292E09EDF811176DF86E0E02FC6
:1027A000FF2DA2E2B2E001900D928A95E1F7269604
:1027B000E5E083C6209109018AE0289F9001112459
:1027C0002417350750F69F5F9093200202C09F3F69
:1027D000D1F71B81111551F02CDE91E011160CF090
:1027E0009FEF899F802D1124809324021C81111555
:1027F00051F01FDE91E011160CF09FEF899F802DA4
:1028000011248093250280912402811509F4A5CF1B
:1028100010912502111509F4A0CFFDDD809324024B
:10282000812FF9DD8093250298CF209105018AE060
:10283000289F900111242417350708F0A3CF9F5F2C
:1028400090931F0202C09F3FD1F71D81111551F0D7
:1028500030DE91E011160CF09FEF899F802D11243E
:10286000809326028E81182F811551F022DE91E08F
:1028700011160CF09FEF899F802D11248093270261
:1028800080912602811509F47DCF90912702192F9E
:10289000911509F477CFBFDD80932602812FBBDD30
:1028A000809327026FCF0F931F93CF93DF93C42F93
:1028B000D22FFC0185818115C9F040932A028FD265
:1028C00080932802909329028C2F805E883048F4F0
:1028D00081E0C1FD84E0C0FD880FC2FD82950E94A9
:1028E0002905DF91CF911F910F91089510912A0230
:1028F000141333C0809128029091290207D2883C9A
:10290000910558F5CD2FC05E1D17C1F0812F805E57
:10291000883048F481E011FD84E010FD880F12FD3D
:1029200082950E942E05C83048F481E0D1FD84E0F4
:10293000D0FD880FD2FD82950E942905802F0E942C
:10294000220581E0D1FD84E0D0FD880FD2FD829583
:10295000C83038F60E942E05C4CF8C2F805E883098
:1029600008F0BFCF81E0C1FD84E0C0FD880FC2FD4B
:102970008295F0CF0F93FC01CB01E851FC47E73083
:10298000F10580F5E65FF44E69C506E221EE41EE01
:102990006AE17CE788DF80E00F91089507E225EE89
:1029A00045EE6BE17CE7F6CF06E221EE40EE68E112
:1029B0007CE7F0CF07E225EE44EE69E17CE7EACF61
:1029C00006E221EE42EE6CE17CE7E4CF07E225EE81
:1029D00046EE6DE17CE7DECF08E221E045EE6EE1F8
:1029E0007CE7D8CFFB018581811110922A0281E01A
:1029F000D3CF80932F0290933002089508950895C5
:102A0000E0912F02F0913002309739F00190F0817F
:102A1000E02D309711F00995089580E00895E09138
:102A20002F02F0913002309731F00280F381E02DD7
:102A3000309709F009950895E0912F02F091300246
:102A4000309759F026813781232B39F022E0DC01C1
:102A50002C930680F781E02D09950895A3E0B0E05E
:102A6000E3E3F5E111C520912D0230912E022817E4
:102A70003907B1F080932D0290932E02E0912F023E
:102A8000F0913002309761F00084F185E02D3097AD
:102A900039F023E029838A839B83CE01019609952F
:102AA0002396E2E00DC5A3E0B0E0E8E5F5E1ECC473
:102AB00020912B0230912C0228173907B1F0809316
:102AC0002B0290932C02E0912F02F091300230976C
:102AD00061F00084F185E02D309739F024E02983FE
:102AE0008A839B83CE01019609952396E2E0E8C490
:102AF00040910001509101019A012E5F3F4F485FC4
:102B00005F4F80E0F90190812F5F3F4F91118F5F00
:102B100042175307B9F70895811591F020910001EC
:102B200030910101F9013296285F3F4F908198174B
:102B300031F03196E217F307C9F780E0089581E09C
:102B400008959C01FC01329680E09FEF408146177A
:102B500059F031969F3F19F4411101C0982F8F5FB2
:102B60008630A1F79F3F09F40895290F311D97FD85
:102B70003A95F90162830895FC01329608962191F5
:102B8000261302C0DF011E92E817F907C1F7089566
:102B9000682F8091000190910101D3CF682F80911F
:102BA000000190910101E8CFE0910001F091010155
:102BB000329686E011928A95E9F70895DC01FB01CF
:102BC00011969C9111978181981322C012968C9135
:102BD0001297811519F0928189131AC013968C915E
:102BE0001397811519F09381891312C015968C9152
:102BF0001597811519F0958189130AC014969C9137
:102C0000911521F081E02481291303C080E001C0E7
:102C100081E0817008950895FECF089591E08111BB
:102C200001C090E090930C0160910A0170910B013A
:102C300080910C0190910D01EFCF80910C010895CE
:102C400080930B0160910A0170910B0180910C013E
:102C500090910D01E1CF80910B01089580930A01BD
:102C600060910A0170910B0180910C0190910D010E
:102C7000D3CF80910A01089508950895FECF089555
:102C800008950895F9CF08950F931F93CF93DF937D
:102C9000F7DF2BDAF6DF01E312E0C0E0D0E08C2FA3
:102CA0007DD9F80181938F0191E0811101C090E0FD
:102CB000D92BCF5FC83099F78D2FDF91CF911F911E
:102CC0000F910895E82FF0E0EF5CFD4F808190E0D8
:102CD00021E030E002C0220F331F6A95E2F728237B
:102CE000392381E0232B09F480E0089541110DC0C0
:102CF000E82FF0E0EF5CFD4F21E001C0220F6A9564
:102D0000EAF720958081282320830895CF93DF93CD
:102D1000EC0165D08C1B9D0BDF91CF910895089538
:102D20001F921FB61F9211248F939F93AF93BF934F
:102D300080913902811113C08091640290916502E3
:102D4000A0916602B09167024196A11DB11D8093CA
:102D5000640290936502A0936602B0936702BF91EC
:102D6000AF919F918F911F901FBE1F9018958091DA
:102D70003C02811531F10E9423041092390288E14E
:102D800090E020E40FB6F894A895809360000FBE01
:102D90002093600083B7817F846083BF83B78160A5
:102DA00083BF7894889583B78E7F83BF0FB6F894DE
:102DB000A895809160008861809360001092600007
:102DC0000FBE08950E9439070C94270482E084BD49
:102DD00093E095BD9AEF97BD80936E0008952FB74D
:102DE000F8948091640290916502A0916602B0917E
:102DF00067022FBF08952FB7F89460916402709115
:102E0000650280916602909167022FBF08957894C1
:102E10001F921FB61F9211248F939F93AF93BF935E
:102E20008091640290916502A0916602B091670260
:102E30000196A11DB11D8093640290936502A09339
:102E40006602B0936702BF91AF919F918F911F90DF
:102E50001FBE1F90189588E198E00FB6F894A895CA
:102E6000809360000FBE90936000A895F894D8E01E
:102E7000CEEF28E3299320E0299314BEFFCF88E109
:102E800098E00FB6F894A895809360000FBE9093D9
:102E90006000FFCF80918F02811561F010928F0248
:102EA0009EDF80933A0290933B0210923C02809105
:102EB0003C02089580913C028111F9CF80913A0241
:102EC00090913B0223DF069790F381E080933C02D0
:102ED000EECF85DF80933A0290933B0280E890E04A
:102EE0000FB6F89480936100909361000FBE08952F
:102EF00089D2539A8FEFA895EFE9FFE03197F1F768
:102F000000C000008150B9F753987894089590D08C
:102F100070DD8FEF90E722E0815090402040E1F794
:102F200000C000000895B6DF81111EC008951FDFA4
:102F3000ABDE8115C9F0F8949AB15B9A892F8C6049
:102F40008AB98BB12CE082278BB98FE738E341E057
:102F5000815030404040E1F700C000008BB1822733
:102F60008BB99AB95B98789495DF8111E0CF2ACF1D
:102F70005FD180919502811529F08091730284FDC3
:102F80000C94C80C08950895FF920F931F93CF934C
:102F9000DF93F82E8B01D42FC5E08F2D813059F4AB
:102FA0008091730284FF0FC06D2FC8013BD1CDB754
:102FB000DEB7E5E082C28091AC0284FF04C06D2FD1
:102FC000C80133D1F4CF34D18FE19EE40197F1F7FA
:102FD00000C00000C15009F7EACF9A0193E036958E
:102FE00027959A95E1F7232B09F4CECF48E050E0DE
:102FF000FCCF43E050E0BC0183E0EFCF46E050E07F
:10300000BC0183E0EACFCF93DF93EC0116DE48E00A
:1030100050E0BE0181E0E1DF88E0FE01A2E4B2E021
:1030200001900D928A95E1F7DF91CF91089508956F
:103030008EE091E00895FC0180818076803251F429
:103040008181893089F140F48230E9F0833031F1B7
:10305000813069F080E008958A30D1F18B30D1F76A
:1030600084819581892BB1F78281D8DDF3CF84816A
:103070009581892B79F782E492E080939002909376
:10308000910288E00895F5DD80933E028EE392E0A0
:10309000809390029093910281E00895CEDD809319
:1030A0003D028DE392E0F4CF8281938181159240BD
:1030B00069F484819581892B49F481E080934102F0
:1030C0008681978180933F02909340028FEF08950D
:1030D0008381C4DDBFCFCF9320913F023091400266
:1030E000232B71F0C0914102C13051F4FC01808169
:1030F000A7DD10923F02109240028C2FCF910895CD
:10310000CFEFFBCF0895FC019381933051F130F460
:103110009130B9F09230E9F080E00895913209F4ED
:103120003FC09232C9F784819581019708F449C064
:1031300099F781EA92E080939002909391028BE755
:10314000089583E692E0809390029093910282E149
:10315000089588E292E080939002909391028BE32D
:1031600008958281813061F0823091F08111D4CF55
:103170008DE992E0809390029093910284E008950B
:1031800087E892E0809390029093910284E1089501
:1031900085E792E0809390029093910280E10895F8
:1031A00084819581019728F009F0B6CF83E592E0FC
:1031B00002C08AE392E0809390029093910289E0AA
:1031C00008958CE193E0809390029093910284E4BF
:1031D00008951F93CF93DF93162FEA01288124FFD0
:1031E0001EC0298138E823272983AE014E5F5F4F37
:1031F000FA019C01810F982FD9012F5F3F4F8C91CD
:103200008193892F821B09F0BAF7612FCA010E94AE
:10321000E3011C5F1883DF91CF911F9108952AE588
:103220002883E3CF43E752E0D4CF4CEA52E0D1CF3A
:10323000CF93DF936091920263508AF080918E0267
:10324000CCE0D0E0C81BD109CA56DD4F80918D0279
:10325000803108F054C0CE0155DF10929202809167
:10326000190184FF3FC0809118018F3FD9F1C82F09
:10327000893008F0C8E0982F9C1B9093180190911A
:10328000680228E89227909368028115E9F08091FE
:1032900090029091910220918C0226FFA7C0FC0120
:1032A0002C2F49E652E03491DA013C934F5F5F4F97
:1032B00031962150C1F701962C2F2150820F911D7C
:1032C00080939002909391026C2F89E692E00E9485
:1032D000E3018C2F8C5FC83019F09FEF9093180199
:1032E0008093190184E199B19C7031F48150D9F730
:1032F0001092930210928B02DF91CF9108958D323C
:1033000009F062C0683009F0A8CF83EC80936802AE
:103310008AE58093190110928C028881807669F089
:10332000CE0189DE8F3FD1F5988197FD8E8190E89F
:1033300090938C028093180190CF9A811092710221
:10334000E981EC30A0F4F0E0EF5EF44E87C025E9AF
:1033500032E081E005C01092720221E732E082E0A3
:10336000209390023093910219C09093930221E729
:1033700032E0F6CF9B81913031F4CE01C4DE90E48F
:1033800090938C02CFCF9230C1F39330B1F391324E
:10339000A1F3923291F390E490938C029F8191116A
:1033A000C9CF9E81981730F6892FC4CF909395028C
:1033B000DECF9BE4909374029093AD0290938002D1
:1033C000D6CF21E732E0C5CF80918C0287FF45CF71
:1033D000CE0181DE8F3F21F48EE1809319013DCF34
:1033E000811509F43ACF1092180137CFDC012C2F48
:1033F00049E652E0FA013D9130834F5F5F4F215023
:10340000C9F759CFCF93DF93E9E6F0E08081886078
:103410008083E99AA4E7B2E08BE48C93ECEAF2E0D3
:103420008183CFE7D2E089838AE58E938083888386
:10343000DF91CF91089597FB072E16F4009406D0E4
:1034400077FD08D048D007FC05D03EF490958195D3
:103450009F4F0895709561957F4F0895EE0FFF1F60
:103460000590F491E02D09942F923F924F925F9234
:103470006F927F928F929F92AF92BF92CF92DF9284
:10348000EF92FF920F931F93CF93DF93CDB7DEB7E9
:10349000CA1BDB0B0FB6F894DEBF0FBECDBF09947D
:1034A0002A88398848885F846E847D848C849B84D4
:1034B000AA84B984C884DF80EE80FD800C811B81E2
:1034C000AA81B981CE0FD11D0FB6F894DEBF0FBE11
:1034D000CDBFED010895AA1BBB1B51E107C0AA1F78
:1034E000BB1FA617B70710F0A61BB70B881F991FA5
:1034F0005A95A9F780959095BC01CD010895FB01DF
:10350000DC0104C08D910190801921F4415050409C
:10351000C8F7881B990B0895F999FECF92BD81BD1C
:10352000F89A992780B50895A8E1B0E042E050E00C
:1035300020C0262FF999FECF92BD81BDF89A019740
:1035400000B4021639F01FBA20BD0FB6F894FA9AEB
:10355000F99A0FBE08950396272FECDFEADF252F97
:10356000E9DF242FE7CF0196272FE4DFE2CFDC014C
:10357000CB01FC01F999FECF06C0F2BDE1BDF89A7E
:10358000319600B40D9241505040B8F70895F89428
:10359000FFCF6E056E05A505A505FC051806960569
:1035A00096051C068E069B069B068E11FB11961136
:1035B000601164119A1168119E11AA117411F4110D
:1035C0007811AE117C11B211D7118011B611DE1134
:1035D0008611BC11C4116C11A2117011A6118A11AF
:1035E000C011CE11E711F2115A1192110212981264
:1035F0009D129F12A412B412B412B412B412B412D7
:10360000B412B412B412A612AA12AD12B212C1129E
:10361000C712CB12D414DA14C514CE14E014E61475
:10362000EC14AB19B719B719B719B719B519BA19F5
:0A363000B719A719D619E119D91925
:10363A000202280850011E0A1401000001002B167C
:10364A0003181718FE17F917FF5AE200E900EA00F3
:10365A00B500B600B700CD008301CC008A01920103
:10366A0094012102230224022502260227022A02A9
:10367A00B300B4006F0070009F01CB019F02A0024B
:10368A00E200E900EA00B500B600B700CD00830108
:10369A00CC008A019201940121022302240225020C
:1036AA00260227022A02B300B4006F0070009F01AD
:1036BA00CB019F02A002916364946061623230314F
:0636CA00903496339700D6
:00000001FF
