:1000000015C200004BC2000049C2000047C20000F8
:1000100045C2000043C2000041C200003FC20000D0
:100020003DC200003BC200000C94302A0C94FD2A13
:100030000C948C2533C2000031C200002FC2000096
:100040002DC200002BC2000029C2000027C2000000
:1000500025C200000C94032621C200001FC200002C
:100060001DC200001BC2000019C2000017C2000020
:1000700015C2000013C2000011C200000FC2000030
:100080000DC200000BC2000009C2000007C2000040
:1000900005C2000003C2000001C20000FFC1000051
:1000A000FDC10000FBC10000F9C10000167C1E006C
:1000B0001F0020002100220023002400250026002C
:1000C00027002D002E002A002B0014001A00080023
:1000D000150017001C0018000C00120013002F0060
:1000E00030003100390004001600070009000A0042
:1000F0000B000D000E000F0033003400000028003C
:10010000E10000001D001B000600190005001100A1
:10011000100036003700E50052003800E000E30030
:100120000000E200000000002C000000000021524E
:100130006500500051004F0035003A003B003C0084
:100140003D003E003F0040004100420043004400AB
:1001500045004C00010042785200437845784678CB
:100160004778487849784A7846004700480049006F
:100170000100500051004F0001000100010001008A
:100180004B784C78010001000000010001000000E4
:100190000100010001000100007C1370010001005A
:1001A000010001004B0001000100010000000100FE
:1001B00000000000010000000000010001004A00F2
:1001C0004E004D0000010101010101010101020287
:1001D00002020202020202030303030303030304F5
:1001E00004040404040405050505050606060606C0
:1001F000070707070708080808090909090A0A0A7A
:100200000B0B0B0C0C0C0D0D0D0E0E0E0F0F0F101B
:1002100010111111121213131414151516161717A5
:10022000181819191A1A1B1B1C1D1D1E1E1F202011
:10023000212222232424252626272829292A2B2C5B
:100240002D2D2E2F30313232333435363738393A7E
:100250003B3C3D3E3F404142434445464748494A76
:100260004C4D4E4F50515354555658595A5B5D5E44
:100270005F616264656668696B6C6D6F70727375DF
:1002800077787A7B7D7E8082838587888A8C8E8F43
:1002900091939596989A9C9EA0A2A3A5A7A9ABAD71
:1002A000AFB1B3B5B7BABCBEC0C2C4C6C9CBCDCF5F
:1002B000D1D4D6D8DBDDDFE2E4E7E9EBEEF0F3F50D
:1002C000F8FAFDFF0A03490044003600330000003D
:1002D0000E03490044004F00420041004F0000005F
:1002E0000403090409023B00020100A0FA0904000A
:1002F000000103010100092111010001224400074E
:100300000581030800010904010001030000000940
:10031000211101000122B60007058203200001120D
:10032000010002000000086469630000010102008E
:100330000105010902A10185020901A100050919B0
:10034000012908150025019508750181020501099B
:100350003009311581257F95027508810609381508
:1003600081257F950175088106050C0A38021581E3
:10037000257F950175088106C0C005010980A1018E
:10038000850319012AB700150126B70095017510DC
:100390008100C0050C0901A101850419012AA002F0
:1003A000150126A002950175108100C005010906FE
:1003B000A1018506050719E029E715002501950823
:1003C000750181020507190029EF1500250195F037
:1003D000750181020508190129059505750191022C
:1003E000950175039101C005010906A101050719D1
:1003F000E029E71500250195087501810295017531
:100400000881010507190029FF150026FF00950640
:1004100075088100050819012905150025019505B4
:1004200075019102950175039101C00011241FBE51
:10043000CFEFDAE0DEBFCDBF04B603FE18C0809177
:10044000500590915105A0915205B0915305873008
:10045000904BA740B04B59F41092500510925105A3
:100460001092520510925305E0E0F8E3099512E06E
:10047000A0E0B1E0E4E3FCE502C005900D92A63EE9
:10048000B107D9F725E0A6EEB2E001C01D92A03574
:10049000B207E1F70E94D5100C94992DB1CD8230AE
:1004A000B8F46530A8F44E3098F450E09EE0699FAF
:1004B000400D511D1124FA0196E4899FE00DF11DB4
:1004C0001124EE0FFF1FE455FF4F8591949108957D
:1004D00081E090E00895E3CF089581E00895FDCF95
:1004E0000895FBCF0895F9CF0895F7CF0895FDCF74
:1004F000089508950895FDCF089508950895A6E0FC
:10050000B0E0E5E8F2E00C94112D49835A839E8314
:100510003091ED0289819A81311117C03E813323D8
:1005200089F0222379F015D5182F682F89819A81B7
:10053000EFD469817A81812F0E94EB0D2696E3E04A
:100540000C942D2DF6D4182FF4CF03D569817A8120
:10055000F3CFFC01262F4081518162817381848118
:100560009581CDCFCF93DF93EC0161E0F2DFBE0147
:10057000B6DF882349F061E0CE01EBDFBE01B1DFD9
:100580008170DF91CF91089580E0FACF0F931F9390
:10059000CF93DF93EC0160E0DCDF8C01BE01AADFCA
:1005A000BE01C801A8DFDF91CF911F910F9108957F
:1005B0000F931F93CF93DF93EC0161E0CADF8C01AF
:1005C000BE0191DF811106C080E0DF91CF911F91C4
:1005D0000F910895BE01C8018ADF8823A9F3BE01E7
:1005E000C8010E94F722882379F3BE01C8010E9446
:1005F000511F882349F3BE01C8010E94291F882387
:1006000019F3BE01C8010E94EB108823E9F2BE0174
:10061000C8010E943C118823B9F2BE01C8010E94A2
:10062000EB0E882389F2BE01C8010E94FD0E8823CB
:1006300059F2BE01C8010E94160FC7CF21E030E079
:10064000A90102C0440F551F8A95E2F7CA0199C358
:10065000CF93C82F81E090E00C2E02C0880F991F25
:100660000A94E2F70E94E30B8C2FE8DFCF91089504
:1006700081E00895FDCF0895FBCF0895CF93C82F53
:1006800038D38C2FF7DF8C2FF7DF2FEF84E39CE03C
:10069000215080409040E1F700C00000CF910895C4
:1006A00081E0ECDF0C94272680E0E8DF0C944B26F9
:1006B00024DF0E9453250E94BE1C1DD081E00C94B3
:1006C000D51D1BD080E00E94D51D18DF0C94572546
:1006D00081E008950895CF93DF93D82FF9DFC82FD5
:1006E000882311F08D2FF6DF8C2FDF91CF910895A5
:1006F0000895F1CF089580E0FCCF0E944623F9CF02
:10070000CF930E944623C82F8091E8028C1771F086
:10071000C093E8020E94F7256093E9027093EA0211
:100720008093EB029093EC028C2FE3DFCF9108953E
:10073000ADE0B0E0EEE9F3E00C94122D4887598764
:100740006A877B878C879D87911125D71F8286E0DA
:10075000FE013896DE01119601900D928A95E1F71F
:100760008D8181110CC029813A814B815C816D8121
:100770007E818F8160D62D96E2E00C942E2DCE01E5
:100780000196F0DE8111EFCFF6CFFC0124812130FC
:1007900019F4808191810EC40895662321F00E948E
:1007A000AE200C9479210E940021FBCFCF93C82F5B
:1007B000882389F08CEF8C0F813A78F48C2F0E947B
:1007C000F523882321F08C2F0E9497246FD78C2F3C
:1007D0000E9480246BD7CF91089580E28C0F8830DF
:1007E00040F4C77081E001C0880FCA95EAF7B6D619
:1007F000F1CFEBE5EC0FE33040F4F0E0EA57FD4FCA
:10080000808190E00E948623E6CFE8E5EC0FEB3193
:1008100050F4F0E0EE0FFF1FE05BFD4F808191810F
:100820000E94AD23D8CF83E38C0F8331A0F661E023
:100830008C2FB3DFD0CF882351F19CEF980F913AE2
:1008400018F40E94972432C790E2980F983048F429
:10085000877091E001C0990F8A95EAF7892F84D6B5
:10086000F2CF9BE5980F933020F490E080E00C9459
:10087000862398E5980F9B3120F490E080E00C945B
:10088000AD2393E3980F933110F460E086CF089581
:100890001F93CF93DF93182FEB0188DF209731F45C
:1008A000812FC9DFDF91CF911F9108958FE99FE0DC
:1008B0000197F1F700C000002197F0CF70E060E0F1
:1008C000893311F460E570E0E3CF882311F046D658
:1008D000EDC60895882311F047D6E8C60895B0E024
:1008E000A0E0E5E7F4E00C940B2D6C01D62FC72FA8
:1008F000FC011581068102950F7026D6E82E88230B
:10090000E9F0E12E1123D1F08C2F807F803461F04B
:1009100080E28D0F8830F8F08C2F807E803221F4B9
:10092000D230C8F00023B9F08091140482FF13C0C4
:1009300082E0E0D609D691E0E82EE926BC2EB294FA
:100940009FE0B922FBE0FB1580F1EB2DF0E0E556CE
:10095000F24D0C94FC2CE12CF1CF0C2F0F70C07FCA
:1009600011F00295007F112381F0002349F080E20D
:100970008D0F883010F0D11105C0802FEFD596D69D
:100980008D2F40C0802FFAD5FACF8D2F54DF002352
:1009900061F080E28D0F883010F0D11103C0802FFC
:1009A000E3D502C0802FF0D581D6EB2DE850FF0BA8
:1009B000349708F04CC10E9446239BDECDB7DEB7CA
:1009C000E9E00C94272D2C2F2F70F22EC07FC0321F
:1009D00019F0F29480EFF822DD2341F0D13081F15B
:1009E000112309F439C00023C9F0CACF809114043F
:1009F00082FD10C0112341F0FF2019F08F2DAED5DC
:100A000055D680E0D3DED1CF80E015DFFF2069F23C
:100A10008F2DC6CF112359F0011103C08F2D55DF43
:100A2000C4CF013009F0C1CF8F2DC9D5BECF011180
:100A3000BCCF8F2D4FDF8F2DCDD58F2DB2D5B5CF1C
:100A4000112321F0063008F0B0CFE8CF053008F0D0
:100A5000ACCF8F2D3FDFA9CF0023D9F3D93349F491
:100A60003FEF87EE93E0315080409040E1F700C0C7
:100A700000008D2FE0DE99CF8C2F869586958370B0
:100A800069F0813009F091CF8D2F9C2F9370111157
:100A900002C080E090E00E94AD2387CF8D2F9C2F75
:100AA0009370111102C080E090E00E9486237DCFF8
:100AB000612F8D2F72DE79CF8C2F837081F511110C
:100AC00074CF4D2F429546954770440F440F2D2FFC
:100AD0002F7030E0042E02C0220F331F0A94E2F779
:100AE00090E080E0D4FF09C08FE090E002C0880F62
:100AF000991F4A95E2F780959095C695C695C37063
:100B0000822B932BC23039F040F4C13011F042D126
:100B10004CCF39D14ACF45D148CF33D146CF869536
:100B2000112311F08C2F8170882309F43ECF4D2FB3
:100B3000429546954770440F440F2D2F2F7030E09B
:100B4000042E02C0220F331F0A94E2F790E080E0E7
:100B5000D4FF09C08FE090E002C0880F991F4A952A
:100B6000E2F780959095C695C695C370822B932B1E
:100B7000C23039F040F4C13011F067D116CF5ED1E8
:100B800014CF6AD112CF1AD110CFCF70112321F018
:100B90008C2F28D18D2F43CF8D2F9CDE8C2F30D1E1
:100BA00004CFD23F39F160F4D03FB9F0D13F81F0AA
:100BB000112309F43CC00111E3CE8C2F8F711EC0AC
:100BC000D33FF1F0D43FA1F78091140482FD20C0FF
:100BD0008C2F8F71112319F311C0112339F00530B7
:100BE00008F0E3CE8C2F8F711BD1DFCE063008F0DA
:100BF000DCCEF8CF8C2F8F711111D1CFF3D0D5CEA1
:100C0000112321F08C2F8F71E3D0CFCEDED0CDCE4B
:100C1000112329F063E08C2F8F7155D5C6CE81E06A
:100C200069D5023008F4C1CE82E064D5BECE00237F
:100C300059F0D93309F01DCFEFEFF7EE23E0E15083
:100C4000F0402040E1F713CF8C2F8F71A8CFEE201A
:100C500009F4B4CE75D480FDB1CEF60115826AD404
:100C6000C1D0C60117D066D4CBD0A8CE0F931F93A6
:100C7000CF93DF93EC01688179818D81A4D18C01C0
:100C8000F2D07ED0B801CE012ADEDF91CF911F9144
:100C90000F910895CF93DF93EC018C81882381F02D
:100CA000CE0186DC81110FC04FD4882349F08D819D
:100CB000882331F08091140482FF02C082E01AD5AB
:100CC000DF91CF910895CE01D1DFCE015FDCF8CF67
:100CD00090E080E00E94862390E080E00E94AD23B7
:100CE0005AD4E4D40E9492210C9479210E94AE241B
:100CF000EFCF41D4FBCF92959F70963091F058F48E
:100D0000925F9F70923058F4803F19F030F4883E23
:100D100030F481E008959A5FF4CF843FD1F380E00E
:100D20000895883EB0F3813FD1F7F3CFFC012481D1
:100D3000222321F0808191813DD1DDCF80E0089593
:100D4000A6E0B0E0E6EAF6E00C94122D2696E2E08A
:100D50000C942E2DA7E0B0E0E0EBF6E00C94122D01
:100D60002796E2E00C942E2D0895FECF0895FDCF36
:100D70000895FADFFCDF9093150380931403089520
:100D80000895F7CF08952091140330911503822B15
:100D9000932BEFCF209114033091150382239323DB
:100DA000E8CF209114033091150382279327E1CFD8
:100DB000DBCF0895FDCF0895D7CF0895FDDFFADF8B
:100DC0009093130380931203089590E080E0F6CF90
:100DD00021E030E0A90102C0440F551F8A95E2F7D7
:100DE000CA01ECCF21E030E002C0220F331F8A9508
:100DF000E2F78091120390911303822B932BDECFA5
:100E000021E030E002C0220F331F8A95E2F72095DF
:100E10003095809112039091130382239323CECFB8
:100E200021E030E002C0220F331F8A95E2F7809163
:100E300012039091130382279327C0CF20911203AE
:100E400030911303822B932BB9CF20911203309151
:100E5000130382239323B2CF209112033091130303
:100E600082279327ABCF0895262F277091E001C0EA
:100E7000990F2A95EAF723E0769567952A95E1F789
:100E8000660F771F660F771FFA01E60FF71F50E016
:100E900040E0682F70E08191DF0111979B01042EE3
:100EA00002C0369527950A94E2F7217021952827EC
:100EB000292328272C934F5F5F4F4430510559F762
:100EC0000895A82FA77023E0969587952A95E1F7B6
:100ED000880F991F880F991FFB01E80FF91F50E039
:100EE00040E080E0219130E00A2E02C0369527953F
:100EF0000A94E2F721703327042E01C0220F0A94CE
:100F0000EAF7822B4F5F5F4F4430510559F7089540
:100F1000262F953068F48E3058F4682F70E08EE0FC
:100F2000989F600D711D11244EEE52E0822F9CCFD0
:100F30000895292F953058F48E3048F490E06EEEE5
:100F400072E03EE0239F800D911D1124BACF80E016
:100F50000895B0E0A0E0EFEAF7E00C940B2D7C01DF
:100F600000911203109113038091140390911503C3
:100F7000082B192BCFE0D0E0CC24C394D12CBC2E6D
:100F8000C6010C2E02C0880F991F0A94E2F7802335
:100F90009123892B49F4219790F7B12C8B2DCDB754
:100FA000DEB7E9E00C94272DB7018C2F1FD60197EF
:100FB00091F3F4CFCF93DF93EC01CBDFBE0116D6D4
:100FC000DF91CF9108951F93CF93DF93EB01909121
:100FD000ED02992331F0CB01EDDFDF91CF911F912D
:100FE0000895882351F0CB01B4DF182F682FCE016C
:100FF0008FDFBE01812FFAD5F0CFCB019ADF182FFA
:10100000F8CF1F93CF93DF93C091160317E0809121
:1010100017038C1304C0DF91CF911F910895D0E086
:101020001C9FF0011D9FF00D1124E85EFC4F2081F4
:101030003181428153816481758186818BDE219665
:10104000C770E5CF20915003309151034091520376
:10105000509153036091540370915503809156034E
:1010600079CECF93DF9380915603807F09F04BC0F8
:1010700080915503882309F446C0E09116035091EE
:101080001703C0915103D0915003609152037091A6
:10109000530347E05E17B9F18E2F90E0E49FF00113
:1010A0001124E85EFC4F2481222381F1489FF00146
:1010B000499FF00D1124DF01A85EBC4F11962C91C1
:1010C00011972C1323C02C912D1320C015962C9111
:1010D000159721111BC012962D913C91261B370BA1
:1010E000283C310598F4809156038F70806180937D
:1010F0005603E25EFC4F80818F708061808380E5C3
:1011000093E0C8DD7EDFDF91CF910895FC01319639
:10111000E770C0CF482F209116039091170357E036
:10112000291302C080E0089530E0529FF001539FE0
:10113000F00D1124E85EFC4F8181681306C08081A8
:10114000481303C085818111EECF2F5F3F4F277079
:10115000E7CFA4E1B0E0EFEAF8E00C94082D8C01B1
:1011600086E0F801DE011F9601900D928A95E1F765
:10117000F8018481E58090E5A92E93E0B92E909145
:10118000540391111AC08823A9F0EE2089F0C801F8
:10119000CDDDF82E882361F087E0F801D5010190BC
:1011A0000D928A95E1F7C501F0DA5BDF4BDF59C09C
:1011B000C80170DDFF24F39454C0C080D1808280C8
:1011C0009380F09055032091520330915303A40172
:1011D000421B530BFF2009F4E9C0483C510508F0BD
:1011E0009CC0882309F43DC090915103809156031F
:1011F000282F207F09F056C09D1114C090915003F4
:10120000C91210C0E11048C08F70806180935603EE
:1012100019DF80E593E03EDD80915603F801868377
:10122000F12C1FC0E11038C06D2D8C2D73DF6D2D9A
:101230008C2D70DFE82E8111F3CFCF86D88A8F8571
:101240009889B8DE292F22952F70243078F49F706A
:101250002230A0F09923B1F0F8019681907F91F4AB
:10126000FE2C8F2D6496ECE00C94242D2A5F2F70B9
:10127000223060F0C8010EDDEF2CF2CF992311F07F
:10128000882371F3805E883058F3F4CF803F40F3B9
:10129000815F833078F7E4CF80915603816080933B
:1012A0005603BECF9D1112C090915003C9120EC0BB
:1012B000E1100CC08683C801EDDC87E0F801A0E5F1
:1012C000B3E001900D928A95E1F770CFC8012EDD51
:1012D000882309F46DCFEE2009F46ACF809156037C
:1012E000803280F020915003309151033987288754
:1012F0009B868A86909154039C871D868E87CE019B
:101300000896C8DC87E0F801A0E5B3E001900D92F3
:101310008A95E1F7A6DE96DE4DCF90915603292FF0
:10132000207F89F4682D9A8A898AA6017A899E2D60
:1013300007DD80E593E0AEDC87E0F50111928A9548
:10134000E9F780DE6DCF882309F48BCF80915103BC
:101350008D110FC080915003C8120BC0E11009C05D
:101360009683C80197DC87E0F50111928A95E9F729
:1013700078CFC801DBDC882309F41ACFEE2009F40A
:1013800017CF80915603803208F4BCCF20915003D0
:10139000309151033A8329839C828B82909154032C
:1013A0009D831E828F83CE010196ABCF483C5105B1
:1013B000A8F5882309F4FECEFE2CEE2009F4F8CE21
:1013C000809151038D111EC080915003C8121AC024
:1013D0008091560380FD0DC0982F907F51F0868339
:1013E000903F09F468CF982F907F905F8F70892B82
:1013F00061CF87E0F801A0E5B3E001900D928A95F6
:10140000E1F72FCFC80192DC81117CCF8091560388
:10141000816080935603C8013DDC23CF682D9A8AF2
:10142000898AA6017A899E2D8BDC87E0F5011192CD
:101430008A95E9F7BBCEAEE0B0E0E1E2FAE00C94C9
:10144000112D288739874A875B876C877D878E8730
:10145000CE0108967EDE8823A9F06C85662339F0DC
:10146000288539854A855B857D858E8573DC17E007
:10147000809116039091170389133BC02E96E3E0E9
:101480000C942D2D87E0FE013896DE011196019017
:101490000D928A95E1F78C85882349F320911703F3
:1014A00030E0C901019687709927409116034817CB
:1014B000190691F097E0929FD001939FB00D1124EF
:1014C000A85EBC4FFE01319601900D929A95E1F70E
:1014D0008093170396DDCBCF0CDC1092170310928C
:1014E000160387E0E0E5F3E0DF011D928A95E9F756
:1014F000BECF819FC0011124885E9C4F2ADE8823C5
:1015000009F4BCCFE09116031E9FF0011124E85EA0
:10151000FC4F2081318142815381648175818681B4
:1015200019DC8091160390E00196877099278093CB
:1015300016039ECF80917F038695869586950895A4
:1015400080917F038770089590917F03977081E069
:1015500009F480E008958091AB0308959091AB0366
:10156000892B8093AB03089580959091AB039823CA
:101570009093AB0308951092AB0308959091AA0342
:10158000892B8093AA03089580959091AA039823AC
:101590009093AA0308951092AA0308950895FECF88
:1015A000089590918003292F282329F0809589237D
:1015B00080938003F4CF08950895FECF089590910D
:1015C0008103292F2823281721F0982B909381033A
:1015D000F4CF089590918103292F282329F0809535
:1015E000892380938103E9CF089580918103882323
:1015F00021F01092810380E0E0CF0895CF93C09155
:10160000AB038091AA03C82B80918103882329F022
:10161000C82B0E94D4238111E8DF8C2FCF9108952D
:10162000CF93DF93C0912902D0912A02E7DF88830C
:10163000C0912902D0912A0248E050E067E773E0A8
:10164000CE010E94392D892B59F088E0FE01A7E7D1
:10165000B3E001900D928A95E1F7CE010E945523E7
:10166000DF91CF910895CF93DF93C0912702D0915E
:101670002802C4DF8983C0912702D091280240E26A
:1016800050E067E573E0CE010E94392D892B59F0B7
:1016900080E2FE01A7E5B3E001900D928A95E1F7A3
:1016A000CE010E946223DF91CF9108950E943F23D3
:1016B000882329F08091130487FF01C0D4CFB0CFD5
:1016C0000895FECF08959091140492FF0EC098E003
:1016D000899F90011124622B60937F0383DB8091AB
:1016E0007F03869586958695ECCF7CCB10927F0301
:1016F00080E0E7CF90917F038095892380937F03DB
:10170000282F277059F4891749F09091140492FFFB
:1017100005C086958695869573DBE8CF08959091F0
:10172000140492FB222720F9281749F080FB92F934
:101730009093140483E194E04AD082E0DBCF0895D3
:101740008091140482FB882780F991E08927E7CFF4
:1017500081E0E5CF80E0E3CF60E070E0CB01D9C36A
:1017600060E070E0CB01CFD3F7CFA3E0B0E0EBEBCC
:10177000FBE00C94122D74D37FD31B82CE01039611
:1017800092D381E090E0909315038093140397D354
:101790001A8219828A8184618A83CE010196A0D33C
:1017A0000E940116DDDF0E94FA152396E2E00C94F8
:1017B0002E2DDBCF089566C3089553C3089568C3E3
:1017C000089577C308957BC308957EC3089588C3A1
:1017D00008958DC3089591C30895A1C30895A6E007
:1017E000B0E0E5EFFBE00C94102D0E94EB258C019E
:1017F0008091AC039091AD038017910781F019821D
:101800001A820E94EB25682F49815A81792F80E046
:1018100090E00E9498031093AD030093AC032696CA
:10182000E4E00C942C2D0E94F7256093BC03709388
:10183000BD038093BE039093BF036093B80370937E
:10184000B9038093BA039093BB0308950895089554
:10185000FDCF08950895FEDFFBCF0895FECF0895D4
:101860000895FEDFFBCF89EE9EE0B0D4F0DFF3CF2A
:1018700081E00895FDCF0895FBCF08950895089560
:101880000895FCDFFCDFFCCF98DF811101C091DF00
:1018900080EC93E094DF83E194E097DF0E94271FC0
:1018A00090DF6FDA809112039091130383CA0E9434
:1018B000E225F3D3E9DF0E9478030E947B1DD1CF9C
:1018C000A6E0B0E0E6E6FCE00C94062DD3DF811143
:1018D0000BC085DF0E94BE1C0E94B4210E948003C1
:1018E0002696EEE00C94222DEAD32EEA822E23E0F7
:1018F000922E640110E0F601E190F1906F01812FCA
:1019000019D31F5F153009F44AC0E816F90699F398
:101910008091C00381FD17D3AFDF682E10E0812FC7
:1019200009D37C01F401A190B1904F018A159B0568
:1019300089F100E0CC24C394D12CAE24BF24C5018E
:101940008C219D21892BE9F077247394C7018C2188
:101950009D21892B09F4712C662071F009831A836B
:101960000E94EB25682F8B839C8349815A81792FB4
:1019700081E0972D0E949803472D602F812F0E94B0
:10198000C4160F5FCC0CDD1C0E30C9F6F401329783
:10199000F182E0821F5F153011F645DF9BCFE8161C
:1019A000F90609F0B5CF95CF1F93CF93DF9320D1E0
:1019B000EC01C11580E5D807F0F5C11580E4D80722
:1019C00008F09AC0C03ED10520F5CD3CD10508F005
:1019D00082C0C83AD10578F4C53AD10508F073C081
:1019E000C130D10519F1209709F1C430D105F0F4C7
:1019F000D0E0C0E01BC0C33CD105D0F7C85AD0E04E
:101A0000CC0FDD1FC757DD4F0990D881C02DD4649E
:101A10000DC0C11580E2D80708F0CDC0C11581E026
:101A2000D80708F05AC0C83ED10510F7CE01DF91A3
:101A3000CF911F910895C03682E5D80718F5C034BC
:101A400082E5D80708F068C0C03282E5D80708F000
:101A50005CC0C11582E5D80708F493C02C2F2695E9
:101A6000269580E2289F900111248C2F8370C1E07D
:101A7000D0E002C0CC0FDD1F8A95E2F7C22BD32B3A
:101A8000DD68D4CFC03A82E5D80760F4C03882E57B
:101A9000D80708F456C0CF71D0E0DC2FCC27C46F34
:101AA000D06AC4CFC03C82E5D80708F45FC0C03E0E
:101AB00082E5D80708F09CCFDC2FCC27CC27DF713C
:101AC000C06FD06AB3CFC55AD0E0C154DD4FC881D2
:101AD000D0E0D064ABCFD065A9CF8D2F2BD1182FFC
:101AE000CE01992785D0C12FD0E0DC2FCC27CC2781
:101AF000DF71C82BD92B9ACFCE01992779D0CC276B
:101B0000DF70C82BD92BD06A91CFCF71D0E0DC2FFA
:101B1000CC27C16FD06A8ACF2C2F269526952770A7
:101B200080E2289F900111248C2F8370C1E0D0E0C7
:101B300002C0CC0FDD1F8A95E2F7C22BD32BDC68E5
:101B400075CF2C2F26952695277080E2289F90012F
:101B500011248C2F8370C1E0D0E002C0CC0FDD1FB8
:101B60008A95E2F7C22BD32BDA6860CF8C2F8F7166
:101B7000E1D0C82FD0E0DC2FCC27CC27DF71D0629A
:101B800055CF8C2F8F71D6D055E0D695C7955A95E5
:101B9000E1F7CF70D0E0DC2FCC27282F30E084FF96
:101BA00006C044E0220F331F4A95E1F73327C22BCA
:101BB000D32BD0693BCF8D2F8F71BCD0182FCE0186
:101BC000992716D0C12FD0E0DC2FCC27CC27DF718E
:101BD000C82BD92BD4CF462F753028F46E3018F48B
:101BE000672F0C946B0290E080E00895F4DFDCCE68
:101BF00082389105B9F1B0F48133910509F47DC0C3
:101C000048F48932910509F46DC08A32910509F4CE
:101C10007BC008958533910509F45FC08933910530
:101C200009F10895833E9105D9F138F4803E91057C
:101C300029F1823E910579F10895863E9105D9F109
:101C4000873E910509F43EC0843E910541F52091FF
:101C5000140421FF24C08091130484FD19C087EE71
:101C600090E0089520911304237009F05AC0209148
:101C7000140423FF14C089E290E008952091130416
:101C800020FD38C03091140430FF09C024FF43C048
:101C900090E080E008952091130422FDF7CF08958D
:101CA0002091130422FD3AC03091140430FD39C054
:101CB00024FFF5CFEDCF2091130423FFF0CF24FDB7
:101CC000E7CFCDCF2091130423FD2EC03091140413
:101CD00031FFEECF84EE90E008952091130425FFAC
:101CE000DECFC9CF2091130425FD21C0209114041B
:101CF00023FFD5CF89E390E0D2CF2091130426FFB4
:101D0000CECF8AE290E008952091130426FFC7CF3A
:101D100081E390E0089583EE90E0089582EE90E0F4
:101D2000089580EE90E0089586EE90E0089585E3B2
:101D300090E008959091130492FF10C041E0282F85
:101D40002471243009F040E031E0282F2871283038
:101D500009F030E0431711F02CE0822793FF10C008
:101D600041E0282F2471243109F040E031E0282F90
:101D70002871283109F030E0431711F02CE0822758
:101D80003091140430FF10C051E0282F2171213010
:101D900009F050E041E0282F2871283009F040E098
:101DA000541711F029E0822731FF10C041E0282F9D
:101DB0002171213109F040E031E0282F28712831CC
:101DC00009F030E0431711F029E0822794FD877E67
:101DD000089580E00895CF939C01205E3245C1E0D4
:101DE0002032310538F4FB01C581C11103C08F7168
:101DF0000E9428038C2FCF9108959C01FB018581BF
:101E0000882391F02B35FCE73F0761F02C359CE7E8
:101E1000390729F02A353C4741F49ADC01C090DCAF
:101E200080E0089597DCFCCF81E008959C01FB01E0
:101E30008581882399F02130FCE73F0761F023304A
:101E40009CE7390739F021153C4749F40E945003BB
:101E500080E00895B0DC0E945403FACF81E0089539
:101E6000089590E080E00E94672D21E0833E9E4F20
:101E700009F020E0822F089563EE7EEF90E080E08D
:101E80000C94952D6FEF7FEF90E080E00C94952DF2
:101E9000CF93DF93EC0182E090E00E945F2D888376
:101EA000DF91CF910895FC01608182E090E00C9475
:101EB0007B2D83E090E00E945F2D90E00895682FD5
:101EC00083E090E00C947B2DCF93DF93EC0184E0D2
:101ED00090E00E94672D99838883DF91CF910895C8
:101EE000FC016081718184E090E00C94952D48E0C4
:101EF00050E067E170E00C944F2D48E050E067E15E
:101F000070E00C946C2DAB01BC018FE090E00C9460
:101F10008D2DAB01BC0183E190E00C948D2D682FD9
:101F20008EE090E00C947B2D0895FECF08950895E7
:101F3000FECF0895E82FF0E0EE0FFF1FE15EFB4FAC
:101F4000808191810895089580EA8A95F1F7089536
:101F500000C00895F9CF0895F894E82FE295EF7046
:101F6000F0E031A1282F2F7081E090E001C0880FB0
:101F70002A95EAF7982F9095932391A392A1892B04
:101F800082A3789408950F931F93CF93DF93C0EDAE
:101F9000D2E089918F3F09F0DFDF82E0C53DD807AD
:101FA000C1F7C2ECD2E000ED12E089918F3F09F059
:101FB000D3DF0C171D07C9F7DF91CF911F910F9148
:101FC0000895AF92BF92DF92EF92FF920F931F930B
:101FD000CF93DF938C01D62EC62FD0E0CE01805355
:101FE0009D4F7C01FC0120812F3F09F449C0F894EA
:101FF000E22FE295EF70F0E031A12F7081E090E0E8
:1020000001C0880F2A95EAF7932F982B91A392A1EC
:102010008095892382A378949BDFE2ECF2E041E093
:1020200050E0B12CA12C21912F3FA1F1A22FA2951C
:10203000AF70B0E090968C9190E02F7002C09595B3
:1020400087952A95E2F780FD25C0CA01A82AB92AFA
:10205000440F551F82E0E03DF80729F7F701808122
:102060008F3F09F079DF61E0A114B10409F460E069
:102070008D2D70DFCC0FDD1FC00FD11FB982A8825C
:10208000DF91CF911F910F91FF90EF90DF90BF9064
:10209000AF90089590E080E0D9CF75DF8AE0EFE15E
:1020A000F4E0DF01982F1D929A95E9F7E5E1F4E05D
:1020B000DF011D928A95E9F785E039D036CFAAE095
:1020C000B0E0E5E6F0E10C940F2D8E010F5F1F4F9D
:1020D0008AE0F80111928A95E9F7F12C6F2DC80179
:1020E00070DFF394F5E0FF12F9CF4AE050E0B80159
:1020F00085E194E00E94392D21E0009709F420E069
:10210000892B41F08AE0F801A5E1B4E001900D923D
:102110008A95E1F745E06FE174E085E194E008D04D
:10212000182F06DF812F2A96E5E00C942B2D0895B9
:10213000B0E0A0E0EEE9F0E10C940C2D6C017B0125
:10214000042FC22F222379F081E08093C3030E94E1
:10215000EB259093C2038093C10380E0CDB7DEB737
:10216000E8E00C94282DD091C303DD23B1F38091D6
:10217000C1039091C2030E946C25059770F310E093
:10218000000F111FA801B601C7010E94392D892B2C
:1021900031F0A801B601C7010E94462DCD2F109243
:1021A000C3038C2FDBCF8CCB08950E9485250E9422
:1021B0007E2759DB0E9496277ADB0E949F270E9488
:1021C000A227F1DF0E94B8275CDBF9CF9093E702EA
:1021D0008093E60208950F931F93CF938C01FB0128
:1021E000C581CC2309F446C0B6D98272F801E05209
:1021F000F847EB30F10538F4E955F24D0C94FC2C1E
:102200000E94F71DC0E08C2FCF911F910F91089570
:10221000882329F00E94491EF5CF8823D9F30E9414
:102220003D1EF0CF882329F00E94781EEBCF882333
:10223000D9F30E946B1EE6CF882329F00E94961ED8
:10224000E1CF8823D9F30E94871EDCCF882329F0B1
:102250000E94B41ED7CF8823D9F30E94A51ED2CFE7
:10226000882329F00E94CC1ECDCF8823D9F30E9469
:10227000C01EC8CFC1E0C7CF1F93CF93DF93EC013F
:10228000FB01158111110FC066D98272FE01E05465
:10229000F847ED30F10508F043C0EE54F24D0C94D0
:1022A000FC2C0E94061E812FDF91CF911F91089573
:1022B0000E94161EF8CF0E94F71DF5CF882329F043
:1022C0000E94491EF0CF8823D9F30E943D1EEBCF18
:1022D000882329F00E94781EE6CF8823D9F30E9434
:1022E0006B1EE1CF882329F00E94961EDCCF882345
:1022F000D9F30E94871ED7CF882329F00E94B41EED
:10230000D2CF8823D9F30E94A51ECDCF882329F0F0
:102310000E94CC1EC8CF8823D9F30E94C01EC3CF11
:1023200011E0C1CFEF92FF920F931F93CF93DF93F2
:102330009B01682F31110EC0442329F0E82FF0E0F3
:10234000EC53FE4F6491762F862FCDB7DEB7E6E0D3
:102350000C942A2DC32FD0E0E82FF0E0442321F085
:10236000EC53FE4FE491F0E046E0249FC0011124BD
:102370000FEF10E0B8010E94972CAB01822F90E084
:10238000880F991F25E5249FB001259F700D11240A
:10239000861B970B982F990F980FB8016C1B7D0B1C
:1023A0006E9FD0016F9FB00D7E9FB00D11248B2FBB
:1023B000939F90011124232F3327B801621B730BC5
:1023C0006E9F90016F9F300D7E9F300D112478011C
:1023D000E91AF108EC9EB001ED9E700DFC9E700DA7
:1023E0001124672F7727061B170B0E9FE0010F9F05
:1023F000D00D1E9FD00D11247D2F9E2F42305105F0
:1024000099F048F44115510569F04130510581F0CA
:102410007B2F832F07C04430510569F080F0463090
:102420005105B1F7692F91CF9B2F8D2F7E2FFACFBA
:102430007E2F932FF7CF9D2F7B2F8E2FF3CF732FD0
:102440009B2FFBCF41E06ECF282F269F020E20E06E
:10245000211D1124822F089530E020E0869F080E70
:10246000211D969F200D311D1124290F311DC901F9
:102470000895AC018230910508F408959FEF413E24
:102480008EE1580740F49A0195E0369527959A9584
:10249000E1F798E0920F61E0E62FE90FFF27FF1FB9
:1024A0009F0135952795822F229FF001239FF00DE4
:1024B000F00D11244E175F0738F49FEF920F961717
:1024C00058F78FEF860F08952F3FE9F361E0620F11
:1024D000F6CFE82F86FDE0952E2F2F7086FD2F5F1B
:1024E000E695E695E695E670F0E0EB52FD4F9181BA
:1024F000929F902D212D112492959F702295207FDF
:10250000922B2081920F87FD919580E8890F089585
:102510001F93CF93DF93D62FC72F182F822F869527
:10252000D8DF805887FD8195612F880F8DDF6D2F53
:102530007C2FDF91CF911F9108950F931F93CF931D
:10254000DF93162FC72FD82F022FE42FF0E0EE0FC6
:10255000FF1FEA5BFE4F64EE808176DF4C2F50E078
:10256000282F30E0245E3F4F201B310937FF03C086
:1025700031952195310983E0220F331F8A95E1F7C8
:10258000CA01821B930B97FD80E06C2F5DDF612FEA
:10259000782F8D2FDF91CF911F910F9108950F9379
:1025A0001F93CF93DF93162FD72FC82F022FE42F1F
:1025B000F0E0EE0FFF1FEA5BFE4F64EE808144DF28
:1025C0004C2F50E0282F30E0245E3F4F201B310974
:1025D00037FF03C031952195310983E0220F331F66
:1025E0008A95E1F7CA01821B930B97FD80E06C2F5F
:1025F0002BDF612F7D2FDF91CF911F910F910895D8
:10260000622F0895E42FF0E0EE0FFF1FEA5BFE4F0C
:102610006081621B0895E42FF0E0EE0FFF1FE95B7D
:10262000FE4F6081621B0895322F50E0FA01EE0FD9
:10263000FF1FE95BFE4F9081905297FD9195440FEB
:10264000551FFA01EA5BFE4F2081231B330B290F34
:10265000311D97FD3A95620F0895EF920F93972FD2
:1026600023E0029FB0011124759567956E0D792FB7
:102670000F91EF9008950F93CF93DF93D72FC82F2B
:1026800047FD419588E390E0841B910947FD9395B0
:10269000889FB001899F700D700D1124229FC00189
:1026A000239F900D900D1124860F971FE2DE982F27
:1026B000990F890F682F600F7D2F8C2FDF91CF919D
:1026C0000F9108950F931F93522F10E0F801EE0F12
:1026D000FF1FE95BFE4FA081A052BB0B9D0152037F
:1026E000F001539FF00D1124000F111FD801AA5BB8
:1026F000BE4F0C910057110B40039001419F300DCC
:1027000011242E0F3F1F37FF02C021583F4F220FC9
:10271000232F221F330B620F1F910F9108950F93E8
:102720001F93522F10E0F801EE0FFF1FE95BFE4FE1
:10273000A081A052BB0B9D015203F001539FF00DED
:102740001124000F111FD801AA5BBE4F0C91005736
:10275000110B40039001419F300D11242E0F3F1F9C
:1027600037FF02C0215C3F4F96E0359527959A953B
:10277000E1F7620F1F910F9108950F931F9310E0DF
:10278000F801EE0FFF1FEA5BFE4F9081905797FD17
:102790009195000F111FF801E95BFE4F0081005277
:1027A000110B2003F001219FF00D112408E310E02C
:1027B000091B110997FD139540039001419F300DAE
:1027C0001124E20FF31F9F01220F331F2E0F3F1F13
:1027D00037FF02C021583F4F220F232F221F330BF8
:1027E000620F1F910F9108951F93CF93DF93C62F10
:1027F000172FD82F822F86956CDE805887FD819504
:102800006CE0880F21DE682F6C0F712F8D2FDF9108
:10281000CF911F9108950F931F93CF93DF93D62FDE
:10282000072F182FC42F822F54DEEC2FF0E0EE0F6D
:10283000FF1FEA5BFE4F90819058890F87FD8195BD
:102840006CE0880F01DE682F6D0F702F812FDF91F4
:10285000CF911F910F9108951F93CF93DF93C62FB0
:10286000172FD82FE42FF0E0EE0FFF1FEA5BFE4F8B
:102870008081821B87FD819568E1E6DD682F6C0F02
:10288000712F8D2FDF91CF911F910895CF93DF93FB
:10289000D62FC72F682F842F8095D6DD6D2F7C2FE4
:1028A000DF91CF9108951F93CF93DF93C62F172FFA
:1028B000D82F60E4842F8095C7DD682F6C0F712FAF
:1028C0008D2FDF91CF911F910895EF92FF920F937B
:1028D000970195E0099F200D311D11242F3F3105EF
:1028E00019F010F02FEF30E02095382F320F08F458
:1028F0003FEF832F0F91FF90EF900895EF92FF929B
:102900000F931F930E0D1F2D111DF90137FF03C0EB
:10291000F195E195F10924E0EE0FFF1F2A95E1F70B
:10292000EF3FF10519F014F0EFEFF0E09A0157FFD7
:1029300003C031952195310994E0220F331F9A95F8
:10294000E1F72E173F070CF4F901E00FF11FEF3FFD
:10295000F10519F010F0EFEFF0E0E095282F3E2F91
:10296000230F08F42FEF822F1F910F91FF90EF900C
:102970000895EF92FF920F93972F093438F4B7011F
:10298000601B71096F3F710519F010F06FEF70E077
:10299000485F5F4F4131510540F0A901485F5F4FEB
:1029A0004131510510F06FEF70E06095482F460FF0
:1029B00008F44FEF842F37FF02C02D5F3F4F35954E
:1029C00027953595279560912A04620F792F0F91ED
:1029D000FF90EF900895EF92FF920F939701201BC5
:1029E00031092F3F310519F010F02FEF30E0322F71
:1029F0003095482F430F08F44FEF842F620F0F914B
:102A0000FF90EF900895EF92FF920F939701201B94
:102A100031092F3F310519F010F02FEF30E02095EC
:102A2000382F320F08F43FEF832F0F91FF90EF9074
:102A300008959091C403892B8093C4030895FC01E9
:102A40009B01009729F480E077FF2BC080E8089570
:102A5000AC0197FF04C044275527481B590BB90107
:102A6000640F751F37FD10C0241B350BC901A5E08D
:102A7000880F991FAA95E1F70E94AB2C80E2861B74
:102A8000F7FF0FC081950895CB0165E0880F991F6E
:102A90006A95E1F7BA01621B730B0E94AB2C80E6CA
:102AA000EECF08950F931F93CF93DF93162FC72F69
:102AB000D82FC901272F201B022FBA01C0DF982F62
:102AC000990F990F891B6C2F800FBEDC612F782F17
:102AD0008D2FDF91CF911F910F9108950F931F9329
:102AE000CF93DF93162FD72FC82FC9012C2F201B70
:102AF000022FBA01A4DF982F990F990F891B6C2F11
:102B0000800FA2DC612F7D2FDF91CF911F910F915C
:102B10000895EF920F931F93CF93DF93162FC72F34
:102B2000D82FC9010E19070FBA0189DF6C2F081BB6
:102B3000802F8ADC612F782F8D2FDF91CF911F910D
:102B40000F91EF900895EF920F931F93CF93DF9320
:102B5000162FD72FC82FC9010E190C0FBA016FDF1E
:102B60006C2F081B802F70DC612F7D2FDF91CF91A0
:102B70001F910F91EF9008950F93CF93DF93D72F6D
:102B8000C82FC901BA015BDF682F600F7D2F8C2F22
:102B9000DF91CF910F910895EF920F93CF93DF9331
:102BA000D72FC82FC9010E19BA0149DF602F681B42
:102BB0007D2F8C2FDF91CF910F91EF900895609131
:102BC00035027091360245E058E0649F9001659FA0
:102BD000300D749F300D1124275E394C309336022E
:102BE00020933502230F289FC0011124892F0895B7
:102BF00029CC089589E294E00E94EB0B1092C40363
:102C00000895E9E2F4E085E3808380914D0290919C
:102C10004E02A0914F0281839283A3838FE7848326
:102C20008FEF8583CF010E94EB0B1092C4030895B0
:102C300080E008950F931F93CF93DF93C82FD62F73
:102C40008A01F6DF9EE0C99FB001112460507F4FDA
:102C50006D0F711DFB0190819F3F29F0F801E80F76
:102C6000F11D90838F5FDF91CF911F910F91089598
:102C7000E091E302F091E402099508950895FF922E
:102C80000F931F93CF93DF93162F042FF22EC09133
:102C9000DF02D091E002F2DF2F2D402F612FFE01E5
:102CA0000995CDB7DEB7E5E00C942B2DB0E0A0E0A0
:102CB000ECE5F6E10C940D2DC82FD0E0FE01E452B6
:102CC000FE4F8081682329F1D0902B0400912C04C1
:102CD00010912A04E12EF12C83E071DF282FC70127
:102CE0008C549F4F68E671E00E94AB2C8E199F09AF
:102CF00097FD03969595879595958795612F289FC4
:102D0000600D11247D2D802F73DF472F282FCE01DA
:102D1000B6DFCDB7DEB7E7E00C94292D0F931F93F4
:102D2000CF93082F10E0F801E452FE4F8081682312
:102D300009F1209135023091360285E098E0289F14
:102D4000B001299F700D389F700D1124675E794C7A
:102D50007093360260933502C72FC60F80E82FDFCD
:102D60007FE7780F6C2F80912C0442DF472F282FAC
:102D7000C80185DFCF911F910F910895E091E10285
:102D8000F091E20209950895CF92DF92FF920F939E
:102D90001F93CF93DF93CDB7DEB728970FB6F89484
:102DA000DEBF0FBECDBF182F062FF42E0E94380CA9
:102DB000882309F44BC0FF2009F456C0AE014F5FD1
:102DC0005F4F602F812F36DFF82E0F2D10E080919E
:102DD000C503800F912F911D09976CF188E090E059
:102DE0006C01C01AD10AB8016A537C4FA60186EC67
:102DF00093E00E94462DB80162537C4FA6018EECF1
:102E000093E00E94462DA601440F551FB801660F9E
:102E1000771F62527C4F8EED93E00E94462DB801E1
:102E20006A527C4FA60186ED93E00E94462D88E011
:102E30008F198093C5031091C503DE01119640E000
:102E4000842F810FF41212C08093C50328960FB609
:102E5000F894DEBF0FBECDBFDF91CF911F910F91D0
:102E6000FF90DF90CF900895F12CAFCF5D91252F8B
:102E700030E090E0BC016B537C4FF901EE0FFF1F77
:102E8000EA5BFE4F0081FB010183220F331FF90132
:102E9000E95BFE4F2081FB012187518B880F991F31
:102EA000FC01EB53FC4F128E118E4F5FC9CF81E0B6
:102EB0000895FDCF0895FBCF0895FBDFFCCF9FE081
:102EC000899F802D1124980F9C3408F09BE408956D
:102ED000B0E0A0E0EEE6F7E10C94062D5C014B01BA
:102EE000FC018081ECDFC82F192F60912D046695BD
:102EF0008091310490913204AFDAF82ED0E0C117FE
:102F000048F081E01B3408F080E0CDB7DEB7EEE09A
:102F10000C94222DFE01E452FE4F8081F501918137
:102F20008923A9F1CE01880F991F80509F4FFC0182
:102F3000EA5BFF4F2081422F4057550B6A01895BA6
:102F40009F4FFC018081282F2052330B3901449F71
:102F50009001459F300D300D1124669CC001679C87
:102F6000900D900D1124820F931F83DA082F60912A
:102F70002A0470912B0480912C04EF2C9301A6015C
:102F8000F401099535DE472F282FCE0178DE2196F2
:102F9000B6CF69E875E19CCF63EA75E199CF6DE240
:102FA00073E196CF6CEC75E193CFB0E0A0E0EBED70
:102FB000F7E10C940B2D6C017B01FC0180817FDF1C
:102FC000C82F192F60912D0466958091310490913E
:102FD000320442DAB82ED0E0C11748F081E01B3449
:102FE00008F080E0CDB7DEB7E9E00C94272DFE01B4
:102FF000E452FE4F8081F60191818923F9F0CE01E0
:10300000880F991F80509F4FFC01E95BFF4F208183
:103010002052330B8A5B9F4FFC0140814057550B78
:1030200060912A0470912B0480912C040B2DF701E0
:103030000995DEDD472F282FCE0121DE2196CCCF4A
:1030400062E575E1B2CF6EE675E1AFCF6BE373E198
:10305000ACCF6CEB75E1A9CFB0E0A0E0E2E3F8E122
:103060000C940C2D7C018B01FC01808128DFC82F82
:10307000D92E60912D046695669521E0620F08F4C3
:103080006FEF8091310490913204E6D9C82ED0E0E0
:10309000CD1550F081E09AE49D1508F480E0CDB79D
:1030A000DEB7E8E00C94282DFE01E452FE4F80814B
:1030B000F7019181892379F060912A0470912B04A2
:1030C00080912C042C2D4C2FF801099591DD472F70
:1030D000282FCE01D4DD2196DBCF68E872E1BCCF8A
:1030E0006DE972E1B9CF6FEC72E1B6CF60E073E1E8
:1030F000B3CF62E073E1B0CF6BE073E1ADCF64E1D9
:1031000073E1AACF64EF73E1A7CF6BE074E1A4CFC2
:103110006CE274E1A1CFB0E0A0E0E1E9F8E10C9449
:10312000082D5C016B01FC018081C9DEC82FF92EDE
:1031300060912D04669566958091310490913204DA
:103140008BD9182F80E4810FC4D990E8992E980E5E
:10315000812FBFD920E8822E880ED0E0CF1550F005
:1031600081E09AE49F1508F480E0CDB7DEB7ECE08B
:103170000C94242DFE01E452FE4F8081F5019181D3
:10318000892389F060912A0470912B0480912C048A
:10319000E12E0C2F282D492DF601099529DD472F09
:1031A000282FCE016CDD2196D9CF62E673E1B3CF33
:1031B0006FE873E1B0CF6DEB73E1ADCFB0E0A0E0AD
:1031C000E4EEF8E10C940B2D8C017B01FC01808175
:1031D00076DEC82FB92E20912D0431E0230F08F49C
:1031E0002FEF30E050E040E06FEF7FEF80E090E0C5
:1031F0000E94E02C6901D0E02C2FCB1550F081E02B
:10320000FAE4FB1508F480E0CDB7DEB7E9E00C94F2
:10321000272DFE01E452FE4F8081F8019181892320
:10322000F1F0409135044150042E000C550B47FF3E
:1032300018C0C60160912D0421E0620F08F46FEF01
:103240000BD9AC0160912A0470912B0480912C045D
:10325000F7010995CDDC472F282FCE0110DD2196EF
:10326000CBCFFA01EB5CFB4F818982130AC0FA01D4
:10327000EE0FFF1FEB5CFB4F818D928D8C159D0532
:10328000C8F241505109D3CF66E474E197CF63E5AA
:1032900074E194CFAAE0B0E0E0E5F9E10C94022DEE
:1032A0008B832B015E834D83FB01808108DE9A8333
:1032B000F0913504FC83282F30E03A872987C90133
:1032C000880F991FFC01EA5BFE4F6F01FB818F2F76
:1032D00090E09C012F5F3F4F38872F83EA81F9856B
:1032E000FE1740F081E0EB3408F080E02A96E2E13E
:1032F0000C941E2DE985FA85E452FE4F8081F2017F
:1033000091818923E1F030902A0410912B042F81C0
:1033100038852B5C3B4F39013B813983212C298136
:103320003C812317A8F060912C04822D8DD8632D49
:10333000712F5EDC472F282F89859A85A0DC89852F
:103340009A8501969A87898792E0C90ED11CC6CFCB
:10335000F30181913F01F601A080A81ABB0881808A
:10336000F3018781881A9908AA9C9001AB9C300DC3
:10337000300D1124889CC001899C900D900D112462
:10338000820F931F76D8082F60912D0421E0620FE1
:1033900008F46FEFF301EE0FFF1FE553F44085894A
:1033A00096895AD87C019401A501632D712F822D35
:1033B000ED81FE810995362E172FF981FF5FF98384
:1033C000282EADCF2091350431E0231B08F420E0F6
:1033D00045E654E1BC01822F5DCF45E654E1BC01D6
:1033E00080E058CF2091350431E0231B08F420E021
:1033F0004EE754E1BC01822F4DCF4EE754E1BC01B2
:1034000080E048CF2091350431E0231B08F420E010
:1034100049EB54E1BC01822F3DCF49EB54E1BC01A3
:1034200080E038CF2091350431E0231B08F420E000
:103430004BEE54E1BC01822F2DCF4BEE54E1BC0189
:1034400080E028CF2091350431E0231B08F420E0F0
:1034500043E055E1BC01822F1DCF43E055E1BC01A3
:1034600080E018CFB0E0A0E0E8E3FAE10C940C2D86
:103470007C01FC01808123DDC82F192F60912A0473
:1034800070912B0480912C04B3DB062FD72EC82E0D
:10349000D0E0C11748F081E01B3408F080E0CDB7E0
:1034A000DEB7E8E00C94282DFE01E452FE4F808147
:1034B000F7019181892329F02C2D4D2D602FCE010C
:1034C000DEDB2196E6CFB0E0A0E0E9E6FAE10C947D
:1034D000092D7C01FC018081F2DCC82F192FD090CE
:1034E0002B0400912C04D0912A046D2F7D2D802F68
:1034F0007FDBC62EB72EA82E60912D046D0F7D2D7B
:10350000802F76DB062FD72E982ED0E0C11748F0FB
:1035100081E01B3408F080E0CDB7DEB7EBE00C941F
:10352000252DFE01E452FE4F9081F7018181892310
:1035300051F0292D4D2D602F90FD03C02A2D4B2DCC
:103540006C2DCE019CDB2196E1CFB0E0A0E0EBEA50
:10355000FAE10C940C2D8C01FC018081B0DCC82FA9
:10356000F92ED0902B04C0902C0460912D0480E49F
:103570000E942412E82ED0E0CF1550F081E09AE4AA
:103580009F1508F480E0CDB7DEB7E8E00C94282D55
:10359000FE01E452FE4F8081F80191818923A1F060
:1035A000FE01EE0FFF1FE95BFE4F808182958F7059
:1035B00060912A048E9D600D11247D2D8C2D18DBC9
:1035C000472F282FCE015BDB2196D6CFB0E0A0E0BD
:1035D000ECEEFAE10C940C2D8C01FC0180816FDC87
:1035E000C82FF92ED0902B04C0902C0460912D048C
:1035F00080E40E942412E82ED0E0CF1550F081E044
:103600009AE49F1508F480E0CDB7DEB7E8E00C94AB
:10361000282DFE01E452FE4F8081F801918189231B
:10362000C1F0FE01EE0FFF1FEA5BFE4F6081E69ED8
:10363000B001112495E0759567959A95E1F7809111
:103640002A04680F7D2D8C2DD3DA472F282FCE0129
:1036500016DB2196D2CF0F931F93CF93DF93EC010C
:103660008881811119C060912D0420E1620F08F456
:103670006FEF80913104909132040E942C126AE025
:1036800070E00E94972C892B39F48BE498DA90E053
:1036900090932E0280932D02888111DC092F182F20
:1036A0009A8191111AC020912D0230912E02821719
:1036B000130609F0A0F40217130689F080F069815F
:1036C000822FF4DA8CE490E090932E0280932D0206
:1036D00006C06981812FEADA1F5F1017D0F381E0FD
:1036E0000B3408F080E0DF91CF911F910F91089586
:1036F0000F931F93CF93DF93EC018881811119C041
:1037000060912D0420E1620F08F46FEF8091310485
:10371000909132040E942C1265E070E00E94972C78
:10372000892B39F48BE44BDA90E090932C02809350
:103730002B028881C4DB092F182F9A8191111AC09E
:1037400020912B0230912C028217130609F0A0F46D
:103750000217130689F080F06981822FDFDA8CE48A
:1037600090E090932C0280932B0206C06981812FF8
:10377000D5DA1F5F1017D0F381E00B3408F080E03A
:10378000DF91CF911F910F910895CF93C82F809112
:1037900033028C1322C0909129049370209134023B
:1037A00030E081E09217130609F480E08170809385
:1037B000320280912E0490913102981731F080935B
:1037C000310240E060E080E0D9DAC83280F4EC2FCA
:1037D000F0E0E154F24D0C94FC2C81E0E7CF8091B5
:1037E0003202882349F040E060E080E0C7DA80E000
:1037F00003C080E392E036DE909130029F5F9093A9
:10380000300281110CC082E080932F02809132023D
:10381000811105C0C11103C083E080932F02CF91B5
:10382000089580E392E04FDEE7CF80E392E08DDE03
:10383000E3CF80E392E0CADEDFCF80E392E04DDCAD
:10384000DBCF80E392E04CDCD7CF80E392E04BDC2F
:10385000D3CF80E392E0F4DBCFCF80E392E0F3DBE1
:10386000CBCF80E392E095DBC7CF80E392E094DB9F
:10387000C3CF80E392E03ADCBFCF80E392E039DC53
:10388000BBCF80E392E038DCB7CF80E392E037DC57
:10389000B3CF80E392E083DBAFCF80E392E0D6DB6F
:1038A000ABCF80E392E0D5DBA7CF80E392E07ADB79
:1038B000A3CF80E392E079DC9FCF80E392E078DCD5
:1038C0009BCF80E392E077DC97CF80E392E0C3DE8A
:1038D00093CF80E392E00CDF8FCF80E392E012DCA5
:1038E0008BCF80E392E011DC87CF80E392E010DCA5
:1038F00083CF80E392E0C8DC7FCF80E392E0C7DC37
:103900007BCF80E392E05EDD77CF80E392E065DD00
:1039100073CF80E392E066DD6FCF80E392E06DDDF0
:103920006BCF80E392E06EDD67CF80E392E075DDE0
:1039300063CF80E392E076DD5FCF80E392E07DDDD0
:103940005BCF80E392E07EDD57CF80E392E085DDC0
:1039500053CF81E00895FDCF0895FBCF0895CF9315
:10396000DF93FC0180818150AADAEC016D2FF3DF37
:103970006D2F8C2FF2DFDF91CF9108954F925F92E0
:103980006F927F928F929F92AF92BF92CF92DF926F
:10399000EF92FF92CF936091EE037091EF038091CD
:1039A000F0039091F1030E9475256B017C010E9448
:1039B000F7254B015C018092EE039092EF03A092F9
:1039C000F003B092F103A091C503E5ECF3E08A2F78
:1039D00090E04FEF5FEF60E070E04C195D096E0919
:1039E0007F09A9132AC08093C5038091F203C0E028
:1039F000811108C080912904C82FC37019F0C82F05
:103A0000C695C69580912F02813009F440C0882365
:103A100039F1823009F448C0833009F44FC0CF91A6
:103A2000FF90EF90DF90CF90BF90AF909F908F90DE
:103A30007F906F905F904F900895218D328D290176
:103A4000712C612C441555056605770520F48150CD
:103A50009F5F3296C6CF2C0D3D1D328F218FF8CF40
:103A6000109230028092310490923204A09233047A
:103A7000B092340489E2E5ECF3E0A5E3B4E0019010
:103A80000D928A95E1F781E080932F02C8CF8C2FA9
:103A90007CDECC2321F280912F02823009F40DDAF2
:103AA00080E392E05CDFBBCFC093330280912904B6
:103AB000837080933402DCD883E0E6CF8091C40326
:103AC000882331F089E294E00E94EB0B1092C4034A
:103AD00060913104709132048091330490913404E8
:103AE0000E947525603171058105910508F497CF15
:103AF00010922F0294CFE091DD02F091DE02099541
:103B0000109235048FEF9FEF90934F0480934E04F3
:103B100090935104809350049093530480935204E3
:103B200090935504809354049093570480935604C3
:103B3000909359048093580490935B0480935A04A3
:103B400090935D0480935C041092C5039093DF030F
:103B50008093DE039093E1038093E0039093E3036B
:103B60008093E2039093E5038093E4039093E7034B
:103B70008093E6039093E9038093E8039093EB032B
:103B80008093EA039093ED038093EC0381E08093AC
:103B9000C40389E294E00E94E90B1092C40380916F
:103BA00029048C7F09F42DC80895CF93C82F88234A
:103BB00081F08091F20381110CC0E7DD1092330295
:103BC0008091290483708093340252D883E08093DB
:103BD0002F02C093F203CF910895E9E2F4E09081BF
:103BE00021E09227908310922F020C94191581E006
:103BF000F4CF80912904837011F410922F028091E8
:103C000029048C7F8160809329040895F2DF81E08C
:103C10000C94191580912904837011F010922F02D1
:103C2000809129048C7F809329040895F3DF81E03B
:103C30000C94191590912904937051F0811109C0C9
:103C400094609093290410922F02862F0C941915DA
:103C50000895883210F09C69F4CF282F220F220F8C
:103C6000922BEFCF682F909129049695969581E03D
:103C7000890F883208F081E0DDCF81E0F3CF682F33
:103C800090912904969596958FEF890F09F487E214
:103C9000D1CF81E0F4CF90912904937061F08093AB
:103CA0002A0460932B04453B08F044EB40932C041A
:103CB000822F0C9419150895A9E2B4E01196EC91A5
:103CC0001197F0E0282F13964C91139712966C9150
:103CD000CF010896E0CF81E0EFCFE9E2F4E09181F7
:103CE000282F43816281E92FE850FF0BCF01D3CF0A
:103CF00081E0F3CFE9E2F4E0628120E1620F08F4B1
:103D00006FEF9181282F4381892F90E0C4CF81E00C
:103D1000F1CFE9E2F4E0628120E1621B08F460E0A7
:103D20009181282F4381892F90E0B5CF81E0F1CF99
:103D3000E9E2F4E0438120E1420F08F44FEF918182
:103D4000282F6281892F90E0A6CF81E0F1CFE9E2B0
:103D5000F4E0438120E1421B08F440E09181282FE8
:103D60006281892F90E097CF81E0F1CFE9E2F4E022
:103D7000248130E1230F08F42FEF24830C941915CC
:103D800081E0F4CFE9E2F4E0248130E1231B08F480
:103D900020E024830C94191581E0F4CF279A08952C
:103DA000FC01EE0FFF1FE80FF91FE25AFB4F618382
:103DB000408322830895EEE5F4E0818360834283AB
:103DC000339695E0EF33F907C1F7089535B13F77A2
:103DD00025B120684FB7F8948EE594E0FC0151912D
:103DE000CF0168E025B9000000C057FF35B9550F75
:103DF000000000C000C000C035B900C06A9591F74E
:103E0000F5E08F339F0751F74FBF8FE594E001979F
:103E1000F1F700C0000008950C94DB0B089580E0DA
:103E20000E949A0F817008950E945F102FEF86E71D
:103E300091E0215080409040E1F700C000000E94D6
:103E40005F10EDDF882311F0E7DF01C70895ECCFA5
:103E50000895CF93DF93EB0186319C4701F50E94D3
:103E6000AB0A9D81992391F08A7A91E009F490E060
:103E70009093F303811108C089E242D50E94560B4A
:103E800080E0DF91CF91089585E3F7CF8091F30330
:103E9000811103C089E24BD5F1CF85E3FCCF81E0EE
:103EA000F0CFCF93DF93EC01FB018581882309F4E8
:103EB000CEC09E0130572332310508F0AEC083E1F9
:103EC00094E00E94E50BFE01E150F047E232F1057B
:103ED00020F4E951F24D0C94FC2C80911304816084
:103EE0008093130493C08091140488608093140419
:103EF0008DC0809113048260F3CF8091130484609D
:103F0000EFCF809113048860EBCF8091140481601F
:103F1000EDCF809114048260E9CF80911304806119
:103F2000DFCF809113048062DBCF80911304806423
:103F3000D7CF0E947906809113048068D1CF8091F9
:103F400013048C60CDCF809114048360CFCF809117
:103F500013048E7FC5CF80911404877FC7CF8091D3
:103F600013048D7FBDCF809113048B7FB9CF8091D7
:103F70001304877FB5CF809114048E7FB7CF8091D3
:103F800014048D7FB3CF809113048F7EA9CF8091CD
:103F900013048F7DA5CF809113048F7BA1CF0E9446
:103FA0007906809113048F779BCF80911304837FD0
:103FB00097CF809114048C7F99CF8091130482FB5A
:103FC000992790F921E0922790FB82F990FB83F9E1
:103FD00087CF80911404982F909591708E7F892BB4
:103FE00090FB81F983CF90911304892F8F7B96FFEB
:103FF000806476CF0E94790690911304892F97FBF5
:1040000087F980586DCF81E00E94ED0B83E194E049
:104010000E94E70B0E94790680E0DF91CF9108951E
:1040200080E0F2CF90911304892F8F7E94FF8061FE
:1040300057CF90911304892F8E7F90FF816050CFCE
:1040400090911404892F877F93FF88604FCF81E080
:10405000E4CF282F35EB2303C001112497FF04C0C0
:1040600080589109892F089580589F4FFBCF8091E8
:10407000FA0380FF0DC060913C0270E0660F771F6D
:104080006038710570F56115710569F1862F089525
:1040900081FF07C060913C0284E0689FB001112459
:1040A000EFCF60913C0282FD0AC08091F903882322
:1040B000A9F020913B0260913C02821710F088E049
:1040C000ECCF869FC001112433E0880F991F3A95E9
:1040D000E1F7622F70E00E94AB2CD2CF68E070E075
:1040E000D5CF8FE7089581E008958091FA0380FF8E
:1040F0000CC06091380270E075956795759567956D
:104100006115710549F1862F089581FF06C0609100
:10411000380270E075956795F3CF6091380282FDA3
:104120000BC09091F8039923A1F060913702809120
:104130003802961738F0682F70E06038710500F388
:104140008FE70895899FC001112470E00E94AB2C75
:10415000F4CF61E070E0D7CF81E008958D3C29F481
:1041600086DF81958093FE0308958E3C11F47FDFF6
:10417000F9CF8F3C29F47BDF81958093FD0308956F
:10418000803D11F474DFF9CF893D21F4AEDF8093D7
:10419000FF0308958A3D19F4A8DF8195F8CF8B3D80
:1041A00029F4A3DF81958093000408958C3D11F4D8
:1041B0009CDFF9CF9FE2980F983070F4815D990BE6
:1041C00021E030E001C0220F8A95EAF78091FC03DC
:1041D000822B8093FC0308958D3D31F48091FA0386
:1041E00081608093FA0308958E3D21F48091FA0353
:1041F0008260F7CF8F3DB9F78091FA038460F1CFE9
:104200004091FD038D3C59F48091FE0387FF0DC062
:104210001092FE0341110BC01092F90308C08E3CAE
:1042200081F48091FE0318169CF3442381F0809161
:10423000FF0390910004892B09F05AC01092F803F3
:1042400008958F3C49F447FFF0CF1092FD03809111
:10425000FE038111ECCFE0CF803D19F41416ACF3CE
:10426000E4CF9091FF03893D29F41916F4F61092DA
:10427000FF03DBCF8A3D19F497FFD7CFF8CF90919A
:1042800000048B3D29F497FFD0CF10920004CDCFCE
:104290008C3D19F41916CCF3C8CF9FE2980F9830D3
:1042A00090F4815D990B21E030E0B90102C0660F06
:1042B000771F8A95E2F7CB0180959091FC038923C3
:1042C0008093FC03B2CF8D3D31F48091FA038E7F51
:1042D0008093FA03AACF8E3D21F48091FA038D7F5B
:1042E000F7CF8F3D09F0A1CF8091FA038B7FF0CFFC
:1042F000089571D49C019091FD038091FE03982B49
:1043000021F03093F7032093F6039091FF038091FF
:104310000004982B21F03093F5032093F4038BEFE6
:1043200093E0E2C186E0EBEFF3E0DF011D928A95B6
:10433000E9F71092F9031092F8031092FA03089526
:10434000FC01828181110EC0838181110BC08481A7
:10435000811108C091E08581811101C090E0892F11
:104360008170089581E0FCCFA6E0B0E0EAEBF1E2D5
:104370000C94112D86E0EBEFF3E0DE011196019035
:104380000D928A95E1F71092FD031092FE031092B0
:10439000FF03109200048B819C81892B81F0809116
:1043A000F6039091F70398D3AC019091F903992308
:1043B000A9F180913D028417150608F43CC08D8157
:1043C0009E81892B89F08091F4039091F50384D329
:1043D000AC019091F803992309F463C080913902EC
:1043E0008417150608F46BC0BE016F5F7F4F8BEF1B
:1043F00093E0CDD2811104C08BEF93E0A1DF811156
:1044000078DF86E0FE013196ABEFB3E001900D92CC
:104410008A95E1F72696E3E00C942D2D20913E023B
:104420008AE0289F900111242417350740F69F5FEA
:104430009093F90302C09F3FD1F71B81112351F0E4
:1044400016DE9FEF11160CF491E0899F802D112448
:104450008093FD031C81112351F009DE9FEF11169B
:104460000CF491E0899F802D11248093FE038091AC
:10447000FD03882309F4A3CF1091FE03112309F44F
:104480009ECFE7DD882349F08093FD03812FE1DD96
:10449000882329F08093FE0392CF81E0F5CF81E05D
:1044A000F9CF20913A028AE0289F90011124241725
:1044B000350708F099CF9F5F9093F80302C09F3FA4
:1044C000D1F71D81112351F010DE9FEF11160CF46E
:1044D00091E0899F802D11248093FF031E81112379
:1044E00051F003DE9FEF11160CF491E0899F802DAF
:1044F0001124809300048091FF03882309F474CF72
:1045000010910004112309F46FCFA3DD882349F033
:104510008093FF03812F9DDD882329F08093000481
:1045200063CF81E0F5CF81E0F9CF0F931F93CF9355
:10453000DF93C42FD22FFC0185818823C1F04093E3
:10454000030449D3909302048093010480E28C0F0A
:10455000883040F4C77081E001C0880FCA95EAF73F
:104560000E946504DF91CF911F910F9108951091E2
:104570000304141331C08091010490910204ACD261
:10458000883C910548F5C0E2CD0F1D17B9F080E2D7
:10459000810F883040F4177081E001C0880F1A95B0
:1045A000EAF70E946A04C83048F481E09D2F9770B2
:1045B00001C0880F9A95EAF70E946504802F0E9437
:1045C0005E04C83078F6D77081E001C0880FDA95B4
:1045D000EAF70E946A04C6CF80E28C0F883010F69A
:1045E000C77081E001C0880FCA95EAF7F2CF0F9338
:1045F000DB0188519C478730910598F5FC01E75F06
:10460000F14D0C94FC2C06E221EE41EE6AE17CE7D0
:10461000CD018BDF80E00F91089507E225EE45EE96
:104620006BE17CE7F5CF06E221EE40EE68E17CE746
:10463000EFCF07E225EE44EE69E17CE7E9CF06E241
:1046400021EE42EE6CE17CE7E3CF07E225EE46EE99
:104650006DE17CE7DDCF08E221E045EE6EE17CE72D
:10466000D7CF15968C91882319F010920304D3CFDD
:1046700081E0D1CF90930904809308040895F2D18A
:1046800091E0813009F090E0892F0895E0910804CD
:10469000F0910904309739F00190F081E02D3097C6
:1046A00011F00995089580E00895E0910804F091D3
:1046B0000904309731F00280F381E02D309709F042
:1046C00009950895E0910804F0910904309759F094
:1046D00024813581232B39F026E0DC012C930480E2
:1046E000F581E02D09950895E0910804F091090401
:1046F000309759F026813781232B39F022E0DC01F5
:104700002C930680F781E02D09950895A3E0B0E091
:10471000ECE8F3E20C94122D20910604309107048A
:1047200028173907B1F09093070480930604E091AD
:104730000804F0910904309761F00084F185E02DC0
:10474000309739F023E029839B838A83CE01019639
:1047500009952396E2E00C942E2DA3E0B0E0E3EB64
:10476000F3E20C94122D20910404309105042817D3
:104770003907B1F09093050480930404E091080494
:10478000F0910904309761F00084F185E02D3097B5
:1047900039F024E029839B838A83CE010196099511
:1047A0002396E2E00C942E2DCF93DF93C091290243
:1047B000D0912A02229663DF882381F0809113042E
:1047C00087FF0CC0C0912702D091280222969EE15B
:1047D00080E0915028F4DF91CF91089596E0F8CFD2
:1047E00029912223B1F38F5FF4CFCF93C82F81118A
:1047F00002C080E023C043DF882311F180911304BD
:1048000087FF1EC0EC2FE695E695E695EE3188F71A
:104810008091270290912802E80FF92FF11D228143
:1048200030E0C77081E090E002C0880F991FCA9500
:10483000E2F72823392381E0232BD9F2CF91089581
:104840008091290290912A02FC01329608962191CA
:104850002C1721F0E817F907D1F7CBCF81E0EECF85
:104860009C01FC0132969FEF80E04191461751F088
:104870009F3F19F4411101C0982F8F5F8630A9F72F
:104880009F3F09F40895290F311D97FD3A95F901CD
:1048900062830895FC01329608962191261303C085
:1048A000DF0111971C92E817F907B9F70895E62F71
:1048B000E695E695E695EE3168F4E80FF92FF11DDF
:1048C000677021E030E001C0220F6A95EAF782812B
:1048D000822B82830895E62FE695E695E695EE31E4
:1048E00070F4E80FF92FF11D677021E030E001C08E
:1048F000220F6A95EAF72095828128232283089562
:10490000CF93C82FBCDE6C2F882359F080911304FD
:1049100087FF07C08091270290912802C8DFCF91BE
:1049200008958091290290912A029ADFF8CFCF93BF
:10493000C82FA5DE6C2F882359F08091130487FFC0
:1049400007C08091270290912802C5DFCF9108957A
:104950008091290290912A029DDFF8CF90DE882372
:1049600079F08091130487FF0BC0E0912702F0914A
:10497000280232968EE1DF011D928A95E9F70895AB
:10498000E0912902F0912A02329686E0F4CFDC0110
:10499000FB0111969C9111978181981322C0129668
:1049A0008C911297882319F0928189131AC013965B
:1049B0008C911397882319F09381891312C015964F
:1049C0008C911597882319F0958189130AC0149644
:1049D0009C91992321F081E02481291303C080E078
:1049E00001C081E0817008950895FECF089581117E
:1049F0000CC081E08093420260913F0270914002BE
:104A00008091410290914202F0CF82E0F3CF83E0A7
:104A10008093420260913F02709140028091410276
:104A200090914202E2CFE3CF089581E08093420269
:104A300060913F0270914002809141029091420248
:104A4000D4CFF3CF089591E0811101C090E090930D
:104A5000410260913F027091400280914102909129
:104A60004202C3CF80914102089580934002609139
:104A70003F02709140028091410290914202B5CF75
:104A800080914002089580933F0260913F027091AF
:104A900040028091410290914202A7CF80913F0253
:104AA000089508950895FECF089508950895F9CFC3
:104AB0000895CF93FADF0E945F10F8DFC0E08C2FDB
:104AC0000E949A0F892B31F4CF5FC530C1F780E087
:104AD000CF91089581E0FCCFCF93DF93EC017BD0A1
:104AE0008C1B9D0BDF91CF910895CF92DF92EF92B7
:104AF000FF926B017C017BD06C197D098E099F09A7
:104B0000FF90EF90DF90CF90089585B7806885BFC4
:104B100085B7806885BF08951F921FB61F92112424
:104B20008F939F93AF93BF9380910A04811113C019
:104B300080913F0590914005A0914105B0914205BB
:104B40004196A11DB11D80933F0590934005A09310
:104B50004105B0934205BF91AF919F918F911F90F6
:104B60001FBE1F90189580914705843031F10E9437
:104B7000580310920A0488E190E020E40FB6F894FC
:104B8000A895809360000FBE2093600083B7817F5B
:104B9000846083BF83B7816083BF7894889583B72F
:104BA0008E7F83BF0FB6F894A895809160008861CE
:104BB00080936000109260000FBE08950E947906F5
:104BC0000C94610382E084BD93E095BD9AEF97BD9C
:104BD00080936E0008952FB7F89480913F059091CF
:104BE0004005A0914105B09142052FBF08952FB710
:104BF000F89460913F057091400580914105909136
:104C000042052FBF089578941F921FB61F9211245A
:104C10008F939F93AF93BF9380913F0590914005F1
:104C2000A0914105B09142050196A11DB11D80934F
:104C30003F0590934005A0934105B0934205BF9175
:104C4000AF919F918F911F901FBE1F90189581E08B
:104C50008093E00080E28093D8001092C9008FE139
:104C60009EE40197F1F700C0000087E090EBDC01C3
:104C70008093500590935105A0935205B09353052E
:104C800088E19CE00FB6F894A895809360000FBE71
:104C900090936000FFCF88E19CE00FB6F894A89550
:104CA000809360000FBE90936000FFCF9B01BA011C
:104CB000909147059430E1F48F708093E9009FEF65
:104CC0008091E800915085FD06C085ED8A95F1F749
:104CD00000009111F5CF8091E80085FF09C050E0F8
:104CE00040E0C901BAD18091E8008E778093E80056
:104CF000089543E050E0BC0182E0D8CF46E050E0A8
:104D0000BC0182E0D3CF40E250E0BC0182E0CECFD4
:104D1000CF93DF93EC01A6DE48E050E0BE0181E0D6
:104D2000C5DF88E0FE01ABE0B4E001900D928A950A
:104D3000E1F7DF91CF91089580914605811107C079
:104D40001AD371D38091E20084608093E2000895C9
:104D500010924605089569DE81E075CE60914305A5
:104D600081E0611101C080E052CE9091470581E061
:104D7000943009F080E06091430555CE42E061EC4B
:104D800081E075D242E261EC82E071D290914705F8
:104D900081E0943009F080E06091430528CE809155
:104DA0004905833009F45EC030F48130C1F18230AE
:104DB00009F494C008958A3009F483C08B3009F453
:104DC0006BC0893009F04DC080914805813209F0EF
:104DD00048C080914C0590914D05029708F041C064
:104DE0008091E800877F8093E8008091E80082FF4F
:104DF00034C09091F3008091F200029731F48091D9
:104E0000F100813011F0863019F48091F1002DDE2F
:104E10008091E8008B778093E8005DD222C080917A
:104E20004805813AF1F48091E800877F8093E8009B
:104E300080914C0590914D05892B59F468E08BE0E9
:104E400094E070E057D18091E8008B778093E80080
:104E5000089560E090E080E0F4CF809147058111F3
:104E6000C4CF089580914805813AD9F780914C05C7
:104E700090914D05892BA9F78091E800877F809359
:104E8000E8008091E80080FFFCCFECDD8093F1002A
:104E90008091E8008E77BFCF80914805813209F775
:104EA00080914C0590914D05892BD9F68091E800B1
:104EB000877F8093E8000FD280914A05C4DD0C946F
:104EC000790680914805813261F68091E800877FFC
:104ED0008093E80000D280914B05D5CD80914805A4
:104EE000813A09F0BECF8091E800877F8093E80087
:104EF0008091E80080FFFCCFD1DDC8CF84B7877FE9
:104F000084BF0FB6F894A895809160008861809363
:104F10006000109260000FBE80E890E00FB6F89439
:104F200080936100909361000FBE8BCD24D27BD221
:104F3000E2EEF0E08081846080837894DEC483E4D4
:104F400092E098CB80914705853029F48091470500
:104F5000853011F033CE089506DEABDD8823B1F342
:104F600080914505882391F362D00E947906EECFA7
:104F700008959A0140914E0550914F0500C0492F68
:104F800055274330510519F168F44130510509F4B2
:104F900044C04230510509F445C090E080E050E043
:104FA00040E025C04132510549F142325105A9F78F
:104FB00084E490E047EE53E061157105C1F086EBA3
:104FC00090E041E353E06130710589F0E6CF992725
:104FD0008130910581F0009729F00297F1F6E4EC19
:104FE000F2E002C0E0EEF2E0849190E0AF01F9015E
:104FF000518340830895E0EDF2E0F6CF89E090E040
:1050000046EF52E06115710591F389E090E04FE0C1
:1050100053E06130710559F3C0CF82E190E04FE178
:1050200053E0E5CF8BE390E044EE52E0E0CF80E147
:1050300089BD82E189BD09B400FEFDCF8091D80011
:105040008F7D8093D8008091E00082608093E000A3
:105050008091E00081FDFCCF0895AF92BF92CF9286
:10506000DF92FF920F931F93CF93DF936C01EB01BD
:105070008A0150D1F82E811123C00115110539F094
:10508000F80180819181C81BD90BC80ED91EB12CA3
:10509000A12C2097A9F08091E80085FD21C0809186
:1050A000E8008E778093E80001151105A1F0F80162
:1050B00080819181A80EB91EB182A08285E0F82E70
:1050C0008F2DDF91CF911F910F91FF90DF90CF90A7
:1050D000BF90AF9008951ED18823D9F2F82EF0CF5B
:1050E000F60181916F018093F1002197FFEFAF1AD4
:1050F000BF0ACFCFFC0180914E0590914F058617D6
:105100009707A0F06115710529F49091E8009E774A
:105110009093E80090E06115710551F4911108C079
:105120008091E80082FF34C080E00895BC01F2CF96
:10513000809147058823C1F18530C1F18091E80055
:1051400083FD30C08091E80082FDEACF8091E800C5
:1051500080FFE1CF8091F3002091F200382F61159C
:10516000710519F02830310558F091E028303105EB
:1051700009F090E02091E8002E772093E800CBCF53
:1051800081918093F100615071092F5F3F4FE7CF0C
:1051900080914705882341F0853041F08091E800F7
:1051A00083FFBECF81E0089582E0089583E00895F3
:1051B000FC0180914E0590914F0586179707A0F04E
:1051C0006115710529F48091E8008E778093E800DD
:1051D00090E06115710551F4911108C08091E800CB
:1051E00082FF35C080E00895BC01F2CF8091470571
:1051F0008823C9F18530C9F18091E80083FD31C071
:105200008091E80082FDEACF8091E80080FFE1CF45
:105210008091F3002091F200382F6115710519F08B
:105220002830310558F091E02830310509F090E040
:105230008091E8008E778093E800CBCF84918093B3
:10524000F1003196615071092F5F3F4FE6CF809199
:105250004705882341F0853041F08091E80083FFC5
:10526000BDCF81E0089582E0089583E00895982FEE
:10527000973028F08F708093E90081E00895909333
:10528000E900242F762F50E0981731F07091EC0050
:105290002091ED005091F00021FD02C09F5FE8CF0A
:1052A0003091EB003E7F3093EB003091ED003D7F7D
:1052B0003093ED003091EB0031603093EB00709350
:1052C000EC002093ED005093F0002091EE0027FDBC
:1052D000E5CF80E008958091480587FF13C0809155
:1052E000E80082FF06C08091E8008B778093E80099
:1052F00004C0809147058111F2CF08958091470540
:105300008823D9F38091E80080FFF8CF8091E800EE
:105310008E77ECCF2091E4003091E50095E6A9016D
:105320002091EC00822F817020FF06C08091E80060
:1053300080FF06C080E008952091E80022FD1AC099
:1053400080914705882389F0853089F08091EB00B2
:1053500085FD0FC02091E4003091E500421753070E
:10536000F9F29150E1F684E0089582E0089583E037
:10537000089581E0089567D06ED0E0EEF0E080817E
:1053800081608083E8EDF0E080818F77808319BCB5
:10539000A7EDB0E08C918E7F8C9380818F7E80838F
:1053A0001092460508950F931F93CF93DF934BD030
:1053B00052D0C8EDD0E088818F778883888180685B
:1053C000888388818F7D888319BC1092470510924D
:1053D0004305109245051092440500EE10E0F801D7
:1053E00080818B7F808388818160888342E060E058
:1053F00080E03DDFE1EEF0E080818E7F8083E2EEB1
:10540000F0E0808181608083808188608083F80102
:1054100080818E7F8083888180618883DF91CF91B6
:105420001F910F910895E8EDF0E080818F7E8083D9
:10543000E7EDF0E080818160808384E082BF81E0DD
:1054400080934605B0CFE8EDF0E080818E7F8083C9
:105450001092E20008951092DA001092E10008958F
:105460001F920F920FB60F9211242F933F934F93D9
:105470005F936F937F938F939F93AF93BF93EF93BC
:10548000FF938091E10082FF0AC08091E20082FFD9
:1054900006C08091E1008B7F8093E1002DD2809146
:1054A000DA0080FF18C08091D80080FF14C080917E
:1054B000DA008E7F8093DA008091D90080FF91C05E
:1054C00080E189BD82E189BD09B400FEFDCF81E0A4
:1054D0008093470531DC8091E10080FF18C0809106
:1054E000E20080FF14C08091E2008E7F8093E20092
:1054F0008091E20080618093E2008091D800806218
:105500008093D80019BC85E08093470527DC809103
:10551000E10084FF2AC08091E20084FF26C080E180
:1055200089BD82E189BD89B5982F917080FFFBCF3D
:105530008091D8008F7D8093D8008091E1008F7E8C
:105540008093E1008091E2008F7E8093E200809161
:10555000E20081608093E20080914305882309F492
:1055600045C084E08093470500DC8091E10083FF23
:1055700027C08091E20083FF23C08091E100877FF4
:105580008093E10082E0809347051092430580916B
:10559000E1008E7F8093E1008091E2008E7F809316
:1055A000E2008091E20080618093E20042E060E0EE
:1055B00080E05DDE8091F00088608093F000CBDBBE
:1055C000FF91EF91BF91AF919F918F917F916F91DB
:1055D0005F914F913F912F910F900FBE0F901F90B1
:1055E000189519BC10924705B3DB75CF8091E30085
:1055F00087FD93E090934705B7CF1F920F920FB6A8
:105600000F9211242F933F934F935F936F937F9348
:105610008F939F93AF93BF93CF93DF93EF93FF93BA
:10562000D091E900DF708091EC00C82FC17080FD3F
:10563000C0E81092E9008091F000877F8093F0002D
:1056400078941ED01092E9008091F00088608093D9
:10565000F000CD2BCF70C093E900FF91EF91DF9167
:10566000CF91BF91AF919F918F917F916F915F91FA
:105670004F913F912F910F900FBE0F901F90189553
:10568000AAE2B0E0E5E4FBE2CCC188E495E0209139
:10569000F100FC012193CF01F5E080359F07B9F7B8
:1056A0007EDB8091E80083FF16C1809148059091D0
:1056B00049059A3008F00FC1E92FF0E0E05FF14DA5
:1056C0009BC1803899F0823809F005C180914C0562
:1056D0008F70873008F0FFC08093E9008091EB0065
:1056E00085FB882780F91092E90006C08091440567
:1056F00090914505911182609091E800977F909379
:10570000E8008093F1001092F1008091E8008E771C
:10571000DFC0882309F4CDC0823009F0DCC080915D
:105720004A058111D0C080914C058F702FEF280F52
:10573000263008F0D0C08093E9002091EB0020FFD4
:10574000C2C0933031F48091EB0080628093EB0013
:10575000BAC09091EB0090619093EB0021E030E0B3
:1057600001C0220F8A95EAF72093EA001092EA001E
:105770008091EB008860EACF8111ADC010914A059D
:105780001F778091E3008078812B8093E3008091E4
:10579000E800877F8093E8009EDD8091E80080FF2D
:1057A000FCCF8091E30080688093E30082E01111D8
:1057B00083E0809347058FC08058823008F08BC00B
:1057C00080914A0590914B058C3D23E0920799F515
:1057D00083E08A838AE289834FB7F894DE011396C7
:1057E00020E03EE051E2E32FF0E050935700E491D7
:1057F00020FF03C0E295EF703F5FEF708E2F90E0C7
:10580000EA30B8F0C7968D939D932F5F243159F7F6
:105810004FBF8091E800877F8093E8006AE270E0E4
:10582000CE01019667DC8091E8008B778093E800D9
:1058300052C0C096E8CF60914C0570914D05AE0105
:105840004F5F5F4F96DBBC01892B09F444C09091F8
:10585000E800977F9093E80089819A81A9DCE3CFE3
:105860008038C9F58091E800877F8093E8008091B7
:1058700043058093F10049CF81112DC090914A05D5
:10588000923048F58091E800877F8093E8009093FC
:10589000430521DD80914305882311F084E005C094
:1058A0008091E30087FDFACF81E08093470566DAB7
:1058B00012C080914A05813071F481E0933009F083
:1058C00080E0809345051092E9008091E800877F91
:1058D0008093E80000DD8091E80083FF0AC080919A
:1058E000E800877F8093E8008091EB0080628093DE
:1058F000EB00AA96E3E0B1C00895CF9380914705ED
:10590000882399F0C091E900CF709091EC00892F25
:10591000817090FD80E8C82B1092E9008091E8002A
:1059200083FDAEDECF70C093E900CF910895AA1B2E
:10593000BB1B51E107C0AA1FBB1FA617B70710F07A
:10594000A61BB70B881F991F5A95A9F780959095AC
:10595000BC01CD01089597FB072E16F4009406D0E4
:1059600077FD08D0E4DF07FC05D03EF490958195E3
:105970009F4F0895709561957F4F0895A1E21A2E6B
:10598000AA1BBB1BFD010DC0AA1FBB1FEE1FFF1FE3
:10599000A217B307E407F50720F0A21BB30BE40B33
:1059A000F50B661F771F881F991F1A9469F760957A
:1059B0007095809590959B01AC01BD01CF01089534
:1059C000052E97FB16F400940FD057FD05D0D6DFB7
:1059D00007FC02D046F408C05095409530952195BB
:1059E0003F4F4F4F5F4F089590958095709561950B
:1059F0007F4F8F4F9F4F0895EE0FFF1F0590F4913B
:105A0000E02D09942F923F924F925F926F927F9276
:105A10008F929F92AF92BF92CF92DF92EF92FF92BE
:105A20000F931F93CF93DF93CDB7DEB7CA1BDB0B6A
:105A30000FB6F894DEBF0FBECDBF09942A8839880F
:105A400048885F846E847D848C849B84AA84B98416
:105A5000C884DF80EE80FD800C811B81AA81B98122
:105A6000CE0FD11D0FB6F894DEBF0FBECDBFED0136
:105A70000895FB01DC0104C08D910190801921F48F
:105A800041505040C8F7881B990B0895FB01DC0179
:105A900002C001900D9241505040D8F70895DC01AA
:105AA000CB01FC01F999FECF06C0F2BDE1BDF89A29
:105AB000319600B40D9241505040B8F70895F999CD
:105AC000FECF92BD81BDF89A992780B50895A8E1CF
:105AD000B0E042E050E0E5CFDC01A40FB51F41503B
