:100000007DC40000B3C40000B1C40000AFC4000050
:10001000ADC40000ABC40000A9C40000A7C4000028
:10002000A5C40000A3C400000C9435260C9402273C
:100030000C94BC209BC4000099C4000097C400002D
:1000400095C4000093C4000091C400008FC4000058
:100050008DC400000C94332189C4000087C40000C3
:1000600085C4000083C4000081C400007FC4000078
:100070007DC400007BC4000079C4000077C4000088
:1000800075C4000073C4000071C400006FC4000098
:100090006DC400006BC4000069C4000067C40000A8
:1000A00065C4000063C4000061C4000029003A0078
:1000B0003B003C003D003E003F004000410042004C
:1000C0004300440045003100460047004800350029
:1000D0001E001F0020002100220023002400250014
:1000E000260027002D002E002A0049004A004B0060
:1000F0002B0014001A000800150017001C0018003F
:100100000C00120013002F00300031004C004D0095
:100110004E00390004001600070009000A000B0019
:100120000D000E000F0033003400310028000000E5
:1001300000000000E10064001D001B000600190023
:10014000050011001000360037003800E50021528C
:10015000000052000000E000E300E20000002C007C
:1001600000002C0000002C000000E600E700650005
:10017000E400500051004F000100010001000100A7
:100180000100010001000100010001000100010067
:100190000100010001000100010001000100010057
:1001A0000100010001000100010001000100010047
:1001B000010001000100AA00A800A900010001003F
:1001C0000100010001000100010001000100010027
:1001D0000100010001000100AC00AE00AB00010015
:1001E0000100010001000100010001000100010007
:1001F00001000100010001000100000000000000FA
:1002000001000100010001000100010001000100E6
:1002100001000100010001000100010000000100D7
:1002200000000100010001000000010000000100C9
:1002300000000100000001000100010001000100B8
:100240000100010044454255473A206469736162E8
:100250006C65642E0A0044454255473A20656E613C
:10026000626C65642E0A006C65645F7461736B3A3E
:1002700020253032580A004F6E6573686F743A203B
:100280006163746976653A2025640A000A002530A6
:1002900033326C62003A200025303258000A722F47
:1002A00063203031323334353637383941424344B4
:1002B000454630313233343536373839414243449C
:1002C00045460A007267626C696768742074696DDC
:1002D00065722064697361626C652E0A00726762E0
:1002E0006C696768742074696D657220656E6162FF
:1002F0006C65642E0A007267626C696768742073AB
:10030000657420687376205B4E4F454550524F4DC3
:100310005D3A2025752C25752C25750A00726762BB
:100320006C696768742073657420687376205B4518
:100330004550524F4D5D3A2025752C25752C25755D
:100340000A007267626C69676874207261696E6224
:100350006F7720736574206873763A2025642C25A6
:10036000642C25642C25750A007267626C696768C5
:10037000742064697361626C65205B454550524F1F
:100380004D5D3A207267626C696768745F636F6E77
:100390006669672E656E61626C65203D2025750A71
:1003A000007267626C6967687420656E61626C6573
:1003B000205B454550524F4D5D3A207267626C6933
:1003C0006768745F636F6E6669672E656E61626CE5
:1003D00065203D2025750A007267626C6967687444
:1003E00020746F67676C65205B454550524F4D5DCB
:1003F0003A207267626C696768745F636F6E6669E2
:10040000672E656E61626C65203D2025750A00725D
:1004100067626C69676874206D6F6465205B4E4F1E
:10042000454550524F4D5D3A2025750A007267626E
:100430006C69676874206D6F6465205B4545505238
:100440004F4D5D3A2025750A007267626C696768D6
:10045000745F696E6974207267626C696768745F43
:10046000636F6E6669672E6D6F6465203D20302E68
:100470002057726974652064656661756C742076B6
:10048000616C75657320746F20454550524F4D2E39
:100490000A007267626C696768745F696E697420CC
:1004A0007374617274210A007267626C69676874A0
:1004B0005F636F6E6669672E7370656564203D20AB
:1004C00025640A007267626C696768745F636F6EA7
:1004D0006669672E76616C203D2025640A0072678C
:1004E000626C696768745F636F6E6669672E7361BB
:1004F00074203D2025640A007267626C6967687425
:100500005F636F6E6669672E687565203D202564A0
:100510000A007267686C696768745F636F6E66690A
:10052000672E6D6F6465203D2025640A0072676246
:100530006C696768745F636F6E6669672E76656C59
:100540006F63696B6579203D2025640A00726762DC
:100550006C696768745F636F6E6669672E656E614C
:10056000626C65203D2025640A007267626C6967D1
:1005700068745F636F6E66696720454550524F4DE2
:100580003A0A001E0F0500047F3F1F6432146432D4
:1005900014783C1E1E140A052223252628292A2CFD
:1005A0002D2F3032333536383A3B3D3E40424345BD
:1005B00047494A4C4E5051535557595A5C5E6062F8
:1005C000646668696B6D6F71737577797B7D7F8108
:1005D000838587898A8C8E90929496989A9C9E9F08
:1005E000A1A3A5A7A8AAACAEAFB1B3B4B6B8B9BB26
:1005F000BCBEBFC1C2C3C5C6C7C9CACBCCCDCED095
:10060000D1D2D2D3D4D5D6D7D7D8D9D9DADADBDB81
:10061000DBDCDCDCDCDCDDDDDDDDDCDCDCDCDCDB18
:10062000DBDBDADAD9D9D8D7D7D6D5D4D3D2D2D161
:10063000D0CECDCCCBCAC9C7C6C5C3C2C1BFBEBC54
:10064000BBB9B8B6B4B3B1AFAEACAAA8A7A5A3A1C5
:100650009F9E9C9A98969492908E8C8A8987858387
:10066000817F7D7B79777573716F6D6B6968666467
:1006700062605E5C5A5957555351504E4C4A494737
:10068000454342403E3D3B3A3836353332302F2DDC
:100690002C2A292826252322FFAA7F554000010164
:1006A0000101010101010102020202020202020231
:1006B0000303030303030303040404040404040501
:1006C00005050505060606060607070707070808C5
:1006D0000808090909090A0A0A0B0B0B0C0C0C0D76
:1006E0000D0D0E0E0E0F0F0F10101111111212130F
:1006F000131414151516161717181819191A1A1B8A
:100700001B1C1D1D1E1E1F202021222223242425E8
:100710002626272829292A2B2C2D2D2E2F30313221
:1007200032333435363738393A3B3C3D3E3F404131
:1007300042434445464748494A4C4D4E4F50515319
:1007400054555658595A5B5D5E5F616264656668D0
:10075000696B6C6D6F7072737577787A7B7D7E8054
:1007600082838587888A8C8E8F91939596989A9CA0
:100770009EA0A2A3A5A7A9ABADAFB1B3B5B7BABCB4
:10078000BEC0C2C4C6C9CBCDCFD1D4D6D8DBDDDF85
:10079000E2E4E7E9EBEEF0F3F5F8FAFDFF0A0025F5
:1007A00030325820006B6579626F6172645F7265E8
:1007B000706F72743A2025303258207C2000737597
:1007C0007370656E64696E67206B6579626F6172C4
:1007D000640D0A005B575D005B535D005B525D007A
:1007E0005B445D005B435D000C0345006F006E00E1
:1007F0003800370000000E034500760079006400E1
:10080000310033000000040309040902540003010D
:1008100000A0FA09040000010301010009211101EF
:1008200000012244000705810308000109040100BA
:100830000103000000092111010001223200070517
:1008400082032000010904020001030000000921C5
:100850001101000122150007058303200001120188
:1008600000020000000805476BAA01000102000118
:100870000631FF0974A1010975150026FF009520B6
:1008800075088102C005010980A101850319012AAB
:10089000B700150126B700950175108100C0050C41
:1008A0000901A101850419012AA002150126A0024F
:1008B000950175108100C005010906A10105071900
:1008C000E029E7150025019508750181029501755C
:1008D0000881010507190029FF150026FF0095066C
:1008E00075088100050819012905150025019505E0
:1008F00075019102950175039101C00011241FBE7D
:10090000CFEFDAE0DEBFCDBF04B603FE18C08091A2
:100910007A0390917B03A0917C03B0917D03873093
:10092000904BA740B04B59F410927A0310927B037E
:1009300010927C0310927D03E0E0F8E3099511E04A
:10094000A0E0B1E0E6E7F5E502C005900D92A23F18
:10095000B107D9F723E0A2EFB1E001C01D92AA3799
:10096000B207E1F70E943A150C946F2A49CBFF9326
:10097000EF93E091F201F091F301309709F00995BE
:10098000EF91FF910895FC018591803011F0EFDF28
:10099000FBCF0895FF27E0E230E247FF0CC041950E
:1009A00097FF09C0EDE26095709580959095611D67
:1009B000711D811D911D27FF02C0219530E350E27A
:1009C000AA27660F771F881F991FAA1FA41710F068
:1009D000A41B63955A95A9F7AA3008F0A95FA05DFA
:1009E000AF93F395611571058105910541F7ED32DE
:1009F00011F4EF93F395F21718F43F93F395FBCFAF
:100A00008F91B5DFFA95E1F70895E991F991859114
:100A1000803021F0853219F0AADFF9CF089520E067
:100A2000E89455915532C1F3503311F468945591BF
:100A30005A3348F4505390F3220F022E220F220F04
:100A4000200D250FF4CF0EF42195899199915336FD
:100A500019F3533729F1533559F1BC0188279927E8
:100A6000E8945C3621F489919991689455915436B3
:100A700039F446EF7EF077FF0DC08FEF9FEF0AC08D
:100A800055374AE039F0583540E121F0523642E01E
:100A900009F00895FF93EF937DDFEF91FF91B7CFBA
:100AA000FF93EF93FC0181918030B9F360DFFBCFBE
:100AB000FF93EF9368DFF1CFDF93CF93CDB7DEB72E
:100AC0002596A3DFCF91DF9108958230B8F4663088
:100AD000A8F4413198F450E091E1699F400D511D17
:100AE0001124FA0196E6899FE00DF11D1124EE0F05
:100AF000FF1FE455FF4F85919491089581E090E0A8
:100B00000895E3CF089581E00895FDCF0895FBCFC8
:100B1000089581E00895F7CF0895F5CF0895FDCFAA
:100B2000089508950895FDCF089508950895A6E0C5
:100B3000B0E0EDE9F5E00C943D2949835A839E83AA
:100B40003091F90189819A81311117C03E81332397
:100B500089F0222379F0DDD5182F682F89819A81B9
:100B6000B7D569817A81812F0E94CA112696E3E068
:100B70000C945929BED5182FF4CFCBD569817A8131
:100B8000F3CFFC01262F40815181628173818481E2
:100B90009581CDCFCF93DF93EC0161E0F2DFBE0111
:100BA000B4DF882349F061E0CE01EBDFBE01AFDFA7
:100BB0008170DF91CF91089580E0FACF0F931F935A
:100BC000CF93DF93EC0160E0DCDF8C01BE01AADF94
:100BD000BE01C801A8DFDF91CF911F910F91089549
:100BE00021E030E0A90102C0440F551F8A95E2F7C9
:100BF000CA01A7C4CF93C82F81E090E00C2E02C099
:100C0000880F991F0A94E2F70E94A80F8C2FE8DF43
:100C1000CF91089581E00895FDCF0895FBCF089509
:100C2000CF93C82F46D48C2FF7DF8C2FF7DF2FEF11
:100C300084E39CE0215080409040E1F700C0000038
:100C4000CF91089581E0ECDF0C94572180E0E8DF3C
:100C50000C947B210F931F93CF93DF938C0161E062
:100C600090DFEC01F801858181110E94131DB8010C
:100C7000CE0151DF811106C080E0DF91CF911F913D
:100C80000F910895B801CE014ADF8823A9F3B80176
:100C9000CE010E94D41E882379F3B801CE010E94B0
:100CA0009A1D882349F3B801CE010E94721D882342
:100CB00019F3B801CE010E9452158823E9F2B80158
:100CC000CE010E94C8128823B9F2F80185818823D9
:100CD00069F0C330FCE7DF0789F158F4C130ECE775
:100CE000DE0771F1B0F4C115DC4789F0C80111DFEE
:100CF000C4CFCB35ECE7DE0741F1CC35FCE7DF07AD
:100D000009F1CA35DC4791F70E94700FEFCF9ADFE7
:100D1000B3CF9091AA02892F8E7F90FF816080933C
:100D2000AA0280FF08C086E592E09F938F93C4DEFD
:100D30000F900F90A1CF84E492E0F7CF0E94A00F14
:100D400085DF9ACF0E94680FD1CF0E94720FCECF5D
:100D5000ECDE0E94912059C05AD0E8DE0C94952018
:100D6000829590E09C01220F331F220F331F2C7CB1
:100D700095958795959587958373282B30E0C901C4
:100D8000880F991F8A7A359527952575822B0895A6
:100D9000CF93DF93D92FE4DFC82F8D2FE1DF9C2F76
:100DA000DF91CF910895B0E0A0E0E9EDF6E00C947A
:100DB00038296B017C01CB01EBDFEC01C701E8DFD7
:100DC0008C01BE0190E080E0CB017727662730E000
:100DD00020E0602B712B822B932BCDB7DEB7E8E0A0
:100DE0000C94542981E008950895CF93DF93D82F70
:100DF000F9DFC82F882311F08D2FF6DF8C2FDF91BC
:100E0000CF9108950895F1CF089580E0FCCF0E941E
:100E10001C1FF9CFCF930E941C1FC82F8091F40193
:100E20008C17F1F0C093F4010E9427216093F50123
:100E30007093F6018093F7019093F8018091AA02D4
:100E40008570853059F41F92CF9387E692E09F9387
:100E50008F9332DE0F900F900F900F908C2FD3DF77
:100E6000CF910895ADE0B0E0E8E3F7E00C943E29BF
:100E7000488759876A877B878C879D8791116BD7B5
:100E80001F8286E0FE013896DE01119601900D92D8
:100E90008A95E1F78D8181110CC029813A814B81BE
:100EA0005C816D817E818F81A6D62D96E2E00C94C7
:100EB0005A29CE0101966EDE8111EFCFF6CFFC01EB
:100EC0002481213019F48081918154C40895CF93F5
:100ED000C82F8823B9F08238B9F40E942B1F81FDF6
:100EE00011C089E30E941B209ED72FEF87EE93E06D
:100EF000215080409040E1F700C0000089E30E944B
:100F0000212091D7CF910895833899F40E942B1F07
:100F100080FDF8CF83E50E941B2085D72FEF81EE5F
:100F200094E0215080409040E1F700C0000083E54C
:100F3000E6CF843899F40E942B1F82FDE3CF87E42B
:100F40000E941B2070D72FEF81EE94E0215080404B
:100F50009040E1F700C0000087E4D1CF8CEF8C0F08
:100F6000813A68F48C2F0E94E01F882321F08C2F97
:100F70000E94212058D78C2F0E941B20C2CF80E2D4
:100F80008C0F883040F4C77081E001C0880FCA958B
:100F9000EAF7C4D6B6CFEBE5EC0FE33040F4F0E06F
:100FA000E35AFE4F808190E00E947D1FABCFC85A6C
:100FB000CB3108F0A7CFEC2FF0E0EE0FFF1FE95D7B
:100FC000FE4F808191810E94A41F9CCF882309F449
:100FD00046C0823861F40E942B1F81FF40C089E324
:100FE0000E941B2020D789E30E9421201CC7833840
:100FF00051F40E942B1F80FF32C083E50E941B200A
:1010000012D783E5F1CF843851F40E942B1F82FF61
:1010100026C087E40E941B2006D787E4E5CF9CEF1B
:10102000980F913A08F390E2980F983048F487703F
:1010300091E001C0990F8A95EAF7892F75D6D6CF2E
:101040009BE5980F933020F490E080E00C947D1F96
:10105000885A8B3120F490E080E00C94A41F08950E
:101060001F93CF93DF93182FEB0131DF209731F4DB
:10107000812FACDFDF91CF911F9108958FE99FE021
:101080000197F1F700C000002197F0CF70E060E019
:10109000893311F460E570E0E3CF882311F03ED688
:1010A000C2C60895882311F03FD6BDC60895B0E0AA
:1010B000A0E0EDE5F8E00C9437296C01D62FC72F9E
:1010C000FC011581068102950F701ED6E82E88233B
:1010D000E9F0E12E1123D1F08C2F807F803461F074
:1010E00080E28D0F8830F8F08C2F807E803221F4E2
:1010F000D230C8F00023B9F080910C0382FF13C0F6
:1011000082E0ADD601D691E0E82EE926BC2EB2945D
:101110009FE0B922FBE0FB1580F1EB2DF0E0EF58EA
:10112000F54D0C94FD28E12CF1CF0C2F0F70C07FF2
:1011300011F00295007F112381F0002349F080E235
:101140008D0F883010F0D11105C0802FE7D56BD6F8
:101150008D2F40C0802FF2D5FACF8D2F37DF00239F
:1011600061F080E28D0F883010F0D11103C0802F24
:10117000DBD502C0802FE8D556D6EB2DE850FF0B0B
:10118000349708F048C10E941C1F3DDECDB7DEB782
:10119000E9E00C9453292C2F2F70F22EC07FC0321F
:1011A00019F0F29480EFF822DD2341F0D13081F183
:1011B000112309F439C00023C9F0CACF80910C0370
:1011C00082FD10C0112341F0FF2019F08F2DA6D50C
:1011D0002AD680E07CDED1CF80E0F8DEFF2069F205
:1011E0008F2DC6CF112359F0011103C08F2D55DF6C
:1011F000C4CF013009F0C1CF8F2DC1D5BECF0111B1
:10120000BCCF8F2D4FDF8F2DC5D58F2DAAD5B5CF54
:10121000112321F0063008F0B0CFE8CF053008F0F8
:10122000ACCF8F2D3FDFA9CF0023D9F3D93349F4B9
:101230003FEF87EE93E0315080409040E1F700C0EF
:1012400000008D2FC3DE99CF8C2F869586958370F5
:1012500069F0813009F091CF8D2F9C2F937011117F
:1012600002C080E090E00E94A41F87CF8D2F9C2FAA
:101270009370111102C080E090E00E947D1F7DCF2D
:101280008C2F837081F5111178CF4D2F42954695A3
:101290004770440F440F2D2F2F7030E0042E02C0F2
:1012A000220F331F0A94E2F790E080E0D4FF09C0D8
:1012B0008FE090E002C0880F991F4A95E2F7809571
:1012C0009095C695C695C370822B932BC23039F08A
:1012D00040F4C13011F03ED150CF35D14ECF41D185
:1012E0004CCF2FD14ACF8695112311F08C2F8170CE
:1012F000882309F442CF4D2F429546954770440FFD
:10130000440F2D2F2F7030E0042E02C0220F331F08
:101310000A94E2F790E080E0D4FF09C08FE090E00B
:1013200002C0880F991F4A95E2F780959095C6955F
:10133000C695C370822B932BC23039F040F4C13074
:1013400011F063D11ACF5AD118CF66D116CF16D16A
:1013500014CFCF70112321F08C2F24D18D2F47CFA4
:101360008D2FA0DE8C2F2CD108CFD23F39F160F425
:10137000D03FB9F0D13F81F0112309F43CC00111F5
:10138000E7CE8C2F8F711EC0D33FF1F0D43FA1F771
:1013900080910C0382FD20C08C2F8F71112319F3D3
:1013A00011C0112339F0053008F0E7CE8C2F8F7172
:1013B00017D1E3CE063008F0E0CEF8CF8C2F8F7136
:1013C0001111D1CFEFD0D9CE112321F08C2F8F71F5
:1013D000DFD0D3CEDAD0D1CE112329F063E08C2F29
:1013E0008F7126D5CACE81E03AD5023008F4C5CE39
:1013F00082E035D5C2CE002359F0D93309F021CF90
:10140000EFEFF7EE23E0E150F0402040E1F717CF97
:101410008C2F8F71A8CFEE2009F4B8CE71D480FD47
:10142000B5CEF601158266D4BDD0C60117D062D400
:10143000C7D0ACCE0F931F93CF93DF93EC0168819D
:1014400079818D81A0D18C01EED07AD0B801CE0106
:101450002EDEDF91CF911F910F910895CF93DF93EF
:10146000EC018C81882381F0CE01F4DB81110FC067
:101470004BD4882349F08D81882331F080910C036F
:1014800082FF02C082E0EBD4DF91CF910895CE01BC
:10149000D1DFCE0193DBF8CF90E080E00E947D1F8A
:1014A00090E080E00E94A41F56D4BDC40E94272073
:1014B000F3CF41D4FBCF92959F70963091F058F4C2
:1014C000925F9F70923058F4803F19F030F4883E5C
:1014D00030F481E008959A5FF4CF843FD1F380E047
:1014E0000895883EB0F3813FD1F7F3CFFC0124810A
:1014F000222321F0808191813DD1DDCF80E00895CC
:10150000A6E0B0E0E6E8FAE00C943E292696E2E098
:101510000C945A29A7E0B0E0E0E9FAE00C943E29E7
:101520002796E2E00C945A290895FECF0895FDCF46
:101530000895FADFFCDF9093310280933002089522
:101540000895F7CF08952091300230913102822B17
:10155000932BEFCF209130023091310282239323DD
:10156000E8CF209130023091310282279327E1CFDA
:10157000DBCF0895FDCF0895D7CF0895FDDFFADFC3
:1015800090932F0280932E02089590E080E0F6CF92
:1015900021E030E0A90102C0440F551F8A95E2F70F
:1015A000CA01ECCF21E030E002C0220F331F8A9540
:1015B000E2F780912E0290912F02822B932BDECFA7
:1015C00021E030E002C0220F331F8A95E2F7209518
:1015D000309580912E0290912F0282239323CECFBB
:1015E00021E030E002C0220F331F8A95E2F780919C
:1015F0002E0290912F0282279327C0CF20912E0296
:1016000030912F02822B932BB9CF20912E02309153
:101610002F0282239323B2CF20912E0230912F02EA
:1016200082279327ABCF0895262F277091E001C022
:10163000990F2A95EAF723E0769567952A95E1F7C1
:10164000660F771F660F771FFA01E60FF71F50E04E
:1016500040E0682F70E08191DF0111979B01042E1B
:1016600002C0369527950A94E2F721702195282724
:10167000292328272C934F5F5F4F4430510559F79A
:101680000895A82FA77023E0969587952A95E1F7EE
:10169000880F991F880F991FFB01E80FF91F50E071
:1016A00040E080E0219130E00A2E02C03695279577
:1016B0000A94E2F721703327042E01C0220F0A9406
:1016C000EAF7822B4F5F5F4F4430510559F7089579
:1016D000262F963068F4813158F4682F70E081E14C
:1016E000989F600D711D11244AEF51E0822F9CCF0D
:1016F0000895292F963058F4813148F490E06AEF2C
:1017000071E031E1239F800D911D1124BACF80E05B
:101710000895B0E0A0E0EFE8FBE00C9437297C01ED
:1017200000912E0210912F0280913002909131028F
:10173000082B192BCFE0D0E0CC24C394D12CBC2EA5
:10174000C6010C2E02C0880F991F0A94E2F780236D
:101750009123892B49F4219790F7B12C8B2DCDB78C
:10176000DEB7E9E00C945329B7018C2F1ED6019700
:1017700091F3F4CFCF93DF93EC01CBDFBE0115D60D
:10178000DF91CF9108951F93CF93DF93EB01909159
:10179000F901992331F0CB01EDDFDF91CF911F915A
:1017A0000895882351F0CB01B4DF182F682FCE01A4
:1017B0008FDFBE01812FF9D5F0CFCB019ADF182F33
:1017C000F8CF1F93CF93DF93C091320217E080913F
:1017D00033028C1304C0DF91CF911F910895D0E0A4
:1017E0001C9FF0011D9FF00D1124EC5CFD4F20812A
:1017F0003181428153816481758186818BDE21969E
:10180000C770E5CF20916C0230916D0240916E025D
:1018100050916F026091700270917102809172021A
:1018200079CECF93DF9380917202807F09F04BC015
:1018300080917102882309F446C0E09132025091F0
:101840003302C0916D02D0916C0260916E02709172
:101850006F0247E05E17B9F18E2F90E0E49FF00130
:101860001124EC5CFD4F2481222381F1489FF0017B
:10187000499FF00D1124DF01AC5CBD4F11962C91F6
:1018800011972C1323C02C912D1320C015962C9149
:10189000159721111BC012962D913C91261B370BD9
:1018A000283C310598F4809172028F70806180939A
:1018B0007202E65CFD4F80818F70806180838CE6D0
:1018C00092E0CCDD7EDFDF91CF910895FC0131966F
:1018D000E770C0CF482F209132029091330257E039
:1018E000291302C080E0089530E0529FF001539F19
:1018F000F00D1124EC5CFD4F8181681306C08081DE
:10190000481303C085818111EECF2F5F3F4F2770B1
:10191000E7CFA4E1B0E0EFE8FCE00C9434298C01BF
:1019200086E0F801DE011F9601900D928A95E1F79D
:10193000F8018481E5809CE6A92E92E0B92E909171
:10194000700291111AC08823A9F0EE2089F0C80115
:10195000CDDDF82E882361F087E0F801D5010190F4
:101960000D928A95E1F7C501AADA5BDF4BDF59C01A
:10197000C80174DDFF24F39454C0C080D1808280FC
:101980009380F090710220916E0230916F02A40159
:10199000421B530BFF2009F4E9C0483C510508F0F5
:1019A0009CC0882309F43DC090916D028091720221
:1019B000282F207F09F056C09D1114C090916C0211
:1019C000C91210C0E11048C08F708061809372020C
:1019D00019DF8CE692E042DD80917202F801868385
:1019E000F12C1FC0E11038C06D2D8C2D73DF6D2DD3
:1019F0008C2D70DFE82E8111F3CFCF86D88A8F85AA
:101A00009889B8DE292F22952F70243078F49F70A2
:101A10002230A0F09923B1F0F8019681907F91F4E3
:101A2000FE2C8F2D6496ECE00C9450292A5F2F70C9
:101A3000223060F0C80112DDEF2CF2CF992311F0B3
:101A4000882371F3805E883058F3F4CF803F40F3F1
:101A5000815F833078F7E4CF809172028160809358
:101A60007202BECF9D1112C090916C02C9120EC0BD
:101A7000E1100CC08683C801F1DC87E0F801ACE618
:101A8000B2E001900D928A95E1F770CFC8012EDD8A
:101A9000882309F46DCFEE2009F46ACF8091720299
:101AA000803280F020916C0230916D023987288756
:101AB0009B868A86909170029C871D868E87CE01B8
:101AC0000896CCDC87E0F801ACE6B2E001900D921C
:101AD0008A95E1F7A6DE96DE4DCF90917202292F0E
:101AE000207F89F4682D9A8A898AA6017A899E2D99
:101AF00007DD8CE692E0B2DC87E0F50111928A9571
:101B0000E9F780DE6DCF882309F48BCF80916D02D9
:101B10008D110FC080916C02C8120BC0E11009C07A
:101B20009683C8019BDC87E0F50111928A95E9F75D
:101B300078CFC801DBDC882309F41ACFEE2009F442
:101B400017CF80917202803208F4BCCF20916C02D2
:101B500030916D023A8329839C828B82909170022E
:101B60009D831E828F83CE010196ABCF483C5105E9
:101B7000A8F5882309F4FECEFE2CEE2009F4F8CE59
:101B800080916D028D111EC080916C02C8121AC026
:101B90008091720280FD0DC0982F907F51F0868356
:101BA000903F09F468CF982F907F905F8F70892BBA
:101BB00061CF87E0F801ACE6B2E001900D928A9522
:101BC000E1F72FCFC80192DC81117CCF80917202A6
:101BD000816080937202C80141DC23CF682D9A8A0C
:101BE000898AA6017A899E2D8BDC87E0F501119206
:101BF0008A95E9F7BBCEAEE0B0E0E1E0FEE00C9400
:101C00003D29288739874A875B876C877D878E8740
:101C1000CE0108967EDE8823A9F06C85662339F014
:101C2000288539854A855B857D858E8573DC17E03F
:101C3000809132029091330289133BC02E96E3E0EB
:101C40000C94592987E0FE013896DE011196019027
:101C50000D928A95E1F78C85882349F32091330210
:101C600030E0C901019687709927409132024817E8
:101C7000190691F097E0929FD001939FB00D112427
:101C8000AC5CBD4FFE01319601900D929A95E1F743
:101C90008093330296DDCBCF0CDC1092330210928E
:101CA000320287E0ECE6F2E0DF011D928A95E9F767
:101CB000BECF819FC00111248C5C9D4F2ADE8823FA
:101CC00009F4BCCFE09132021E9FF0011124EC5CBC
:101CD000FD4F2081318142815381648175818681EC
:101CE00019DC8091320290E00196877099278093E9
:101CF00032029ECF80917B028695869586950895C7
:101D000080917B028770089590917B02977081E0AB
:101D100009F480E0089580918702089590918702E8
:101D2000892B80938702089580959091870298234C
:101D300090938702089510928702089590918602E9
:101D4000892B80938602089580959091860298232E
:101D50009093860208951092860208950895FECF0A
:101D6000089590917C02292F282329F080958923BA
:101D700080937C02F4CF08950895FECF089590914A
:101D80007D02292F2823281721F0982B90937D027C
:101D9000F4CF089590917D02292F282329F0809572
:101DA000892380937D02E9CF089580917D02882365
:101DB00021F010927D0280E0E0CF08950F931F93F1
:101DC000CF93DF930091040110910501C091870228
:101DD00080918602C82B80917D02882329F0C82B30
:101DE0000E94CB1F8111E1DFF801C083C091040183
:101DF000D091050148E050E063E772E0CE010E9417
:101E0000FD29892B59F088E0FE01A3E7B2E001909B
:101E10000D928A95E1F7CE010E942D1FDF91CF919F
:101E20001F910F910895CACF08950895FECF089588
:101E300090910C0392FF0EC098E0899F90011124AD
:101E4000622B60937B02AEDB80917B028695869548
:101E50008695ECCFA7CB10927B0280E0E7CF9091E4
:101E60007B028095892380937B02282F277059F469
:101E7000891749F090910C0392FF05C086958695CD
:101E800086959EDBE8CF0895CF93C82F80910C03F1
:101E900082FB992790F99C17C9F0C0FB82F98093C7
:101EA0000C038BE093E058D082E0D9DF8091AA0246
:101EB00080FF0CC01F92CF9387E792E09F938F9390
:101EC0000E945C050F900F900F900F90CF91089596
:101ED00080910C0382FB882780F991E08927D4CF79
:101EE00081E0D2CF80E0D0CF60E070E0CB0110C4C1
:101EF00060E070E0CB0106D4F7CFA3E0B0E0E3E808
:101F0000FFE00C943E2956D361D31B82CE01039689
:101F100074D381E090E0909331028093300279D3C2
:101F20001A8219828A8184618A83CE01019682D3C2
:101F3000C2D6DEDF2396E2E00C945A29DECF089564
:101F40004BC3089538C308954DC308955CC30895E5
:101F500060C3089563C308956DC3089572C308955F
:101F6000B1C30895DBC30895A6E0B0E0EAEBFFE05B
:101F70000C943C290E941B218C0180918802909135
:101F800089028017910781F019821A820E941B2111
:101F9000682F49815A81792F80E090E00E943207B2
:101FA00010938902009388022696E4E00C94582945
:101FB0000E9427216093A6027093A7028093A80233
:101FC0009093A9026093A2027093A3028093A4024B
:101FD0009093A502089508950895FDCF089508955A
:101FE000FEDFFBCF0895FECF08950895FEDFFBCFFF
:101FF00086E193E252D5F0DFF3CF81E00895FDCF83
:102000000895FBCF0895089508950895FCDFFCDF3F
:10201000FCCF98DF811101C091DF8AEA92E094DF62
:102020008BE093E097DF0E94701D90DF8ADA809149
:102030002E0290912F029ECA0E94122192D4E9DFB3
:102040000E9402070E94011CD1CFA8E0B0E0EBE2A1
:10205000F0E10C942E29D3DF811109C085DF0E94A5
:10206000141D0E940A072896E2E10C944A298BD499
:102070008AE892E098878F837C0110E0F701419015
:102080005190619071907F01812F53D31F5F163063
:1020900009F463C0461657066806790679F38091FD
:1020A000AA0281FD51D3ADDF282E10E033243394F2
:1020B000812F3FD36B017C01EF81F88541905190D6
:1020C00061907190F887EF83C414D504E604F70497
:1020D000F1F100E0812C912C540183944C245D2477
:1020E0006E247F24D301C20188219921AA21BB211A
:1020F000892B8A2B8B2BE9F02220D9F009831A83B4
:102100000E941B219C838B833D8221E0D701C60165
:1021100088219921AA21BB21892B8A2B8B2B09F499
:1021200020E049815A816B817C818D81922F0E94B0
:1021300032070F5F880C991CAA1CBB1C013191F659
:10214000EF81F8853497C082D182E282F3821F5FEB
:10215000163009F0ADCF2CDF82CF46165706680641
:10216000790609F09CCF7ACF1F93CF93DF931FD1CD
:10217000EC01C11580E5D807F0F5C11580E4D8075A
:1021800008F09AC0C03ED10520F5CD3CD10508F03D
:1021900082C0C83AD10578F4C53AD10508F073C0B9
:1021A000C130D10519F1209709F1C430D105F0F4FF
:1021B000D0E0C0E01BC0C33CD105D0F7C85AD0E086
:1021C000CC0FDD1FC05ADE4F0990D881C02DD464DA
:1021D0000DC0C11580E2D80708F0CCC0C11581E060
:1021E000D80708F05AC0C83ED10510F7CE01DF91DC
:1021F000CF911F910895C03682E5D80718F5C034F5
:1022000082E5D80708F068C0C03282E5D80708F038
:102210005CC0C11582E5D80708F493C02C2F269521
:10222000269580E2289F900111248C2F8370C1E0B5
:10223000D0E002C0CC0FDD1F8A95E2F7C22BD32B72
:10224000DD68D4CFC03A82E5D80760F4C03882E5B3
:10225000D80708F456C0CF71D0E0DC2FCC27C46F6C
:10226000D06AC4CFC03C82E5D80708F45FC0C03E46
:1022700082E5D80708F09CCFDC2FCC27CC27DF7174
:10228000C06FD06AB3CFC55AD0E0CA56DE4FC881FE
:10229000D0E0D064ABCFD065A9CF8D2F2AD1182F35
:1022A000CE01992784D0C12FD0E0DC2FCC27CC27BA
:1022B000DF71C82BD92B9ACFCE01992778D0CC27A4
:1022C000DF70C82BD92BD06A91CFCF71D0E0DC2F33
:1022D000CC27C16FD06A8ACF2C2F269526952770E0
:1022E00080E2289F900111248C2F8370C1E0D0E000
:1022F00002C0CC0FDD1F8A95E2F7C22BD32BDC681E
:1023000075CF2C2F26952695277080E2289F900167
:1023100011248C2F8370C1E0D0E002C0CC0FDD1FF0
:102320008A95E2F7C22BD32BDA6860CF8C2F8F719E
:10233000E0D0C82FD0E0DC2FCC27CC27DF71D062D3
:1023400055CF8C2F8F71D5D055E0D695C7955A951E
:10235000E1F7CF70D0E0DC2FCC27282F30E084FFCE
:1023600005C044E0220F331F4A95E1F7C22BD32B5F
:10237000D0693CCF8D2F8F71BCD0182FCE019927FB
:1023800016D0C12FD0E0DC2FCC27CC27DF71C82B93
:10239000D92BD5CF462F763028F4613118F4672F2A
:1023A0000C94810590E080E00895F4DFDDCE823862
:1023B0009105B9F1B0F48133910509F47DC048F479
:1023C0008932910509F46DC08A32910509F47BC008
:1023D00008958533910509F45FC08933910509F1AA
:1023E0000895833E9105D9F138F4803E910529F195
:1023F000823E910579F10895863E9105D9F1873E97
:10240000910509F43EC0843E910541F520910C03ED
:1024100021FF24C080910B0384FD19C087EE90E05A
:10242000089520910B03237009F05AC020910C03EA
:1024300023FF14C089E290E0089520910B0320FD52
:1024400038C030910C0330FF09C024FF43C090E036
:1024500080E0089520910B0322FDF7CF089520918D
:102460000B0322FD3AC030910C0330FD39C024FF2C
:10247000F5CFEDCF20910B0323FFF0CF24FDE7CF65
:10248000CDCF20910B0323FD2EC030910C0331FFE3
:10249000EECF84EE90E0089520910B0325FFDECF70
:1024A000C9CF20910B0325FD21C020910C0323FFF0
:1024B000D5CF89E390E0D2CF20910B0326FFCECF7A
:1024C0008AE290E0089520910B0326FFC7CF81E3B5
:1024D00090E0089583EE90E0089582EE90E00895F4
:1024E00080EE90E0089586EE90E0089585E390E018
:1024F000089590910B0392FF10C041E0282F2471A2
:10250000243009F040E031E0282F2871283009F00C
:1025100030E0431711F02CE0822793FF10C041E018
:10252000282F2471243109F040E031E0282F287150
:10253000283109F030E0431711F02CE08227309168
:102540000C0330FF10C051E0282F2171213009F019
:1025500050E041E0282F2871283009F040E054175E
:1025600011F029E0822731FF10C041E0282F2171AE
:10257000213109F040E031E0282F2871283109F09D
:1025800030E0431711F029E0822794FD877E0895FB
:10259000CF939C01205E3245C1E02032310538F4F2
:1025A000FB01C581C11103C08F710E94FA058C2FF8
:1025B000CF910895089590E080E00E94202A21E0C4
:1025C000833E9E4F09F020E0822F089563EE7EEF58
:1025D00090E080E00C943F2A6FEF7FEF90E080E086
:1025E0000C943F2ACF93DF93EC0182E090E00E94AD
:1025F000132A8883DF91CF910895FC01608182E0E6
:1026000090E00C94252A83E090E00E94132A90E049
:102610000895682F83E090E00C94252ACF93DF93F0
:10262000EC0184E090E00E94202A99838883DF9166
:10263000CF910895FC016081718184E090E00C9459
:102640003F2A4F925F926F927F928F929F92AF92AA
:10265000BF920F93CF93DF93EC0188E090E00E944C
:102660001B2A2B013C01688359828A837B821C824E
:102670001D821E821F8283E290E00E94132A282F6F
:1026800030E040E050E060E070E080E090E000E2A8
:102690000E94652924293529462957292883398309
:1026A0004A835B836C837D838E839F83DF91CF918D
:1026B0000F91BF90AF909F908F907F906F905F90A1
:1026C0004F9008950F93CF93DF93EC014881598188
:1026D0006A817B8188E090E00E94372A28813981D5
:1026E0004A815B816C817D818E819F8100E20E94A5
:1026F0008029622F83E290E00E94252ADF91CF910A
:102700000F910895AB01BC018FE090E00C94372A43
:10271000AB01BC0183E190E00C94372A682F8EE076
:1027200090E00C94252A0895FECF08950895FECFD9
:10273000089594E0899FF0011124EB5DFC4F6081C6
:102740007181828193810895B0E0A0E0EAEAF3E12B
:102750000C9434298DE992E09F938F930E945C053D
:1027600085E2E82E83E0F82E0F900F90912C812CBB
:1027700098E9A92E92E0B92E25E9C22E22E0D22EA8
:102780000EE812E0CCE8D2E09F928F92BF92AF9217
:102790000E945C05DF92CF920E945C05F701619177
:1027A0007191819191917F010E94D3069F938F93A4
:1027B0007F936F931F930F930E945C05DF93CF93DA
:1027C0000E945C059FEF891A990AEDB7FEB73E9605
:1027D0000FB6F894FEBF0FBEEDBFF6E08F16910462
:1027E00099F6CDB7DEB7ECE00C94502980EA8A95D3
:1027F000F1F7089500C00895F9CF0895F894E82FEF
:10280000E295EF70F0E031A1282F2F7081E090E089
:1028100001C0880F2A95EAF7982F9095932391A3EA
:1028200092A1892B82A3789408950F931F93CF933D
:10283000DF93CAEAD1E089918F3F09F0DFDF81E0C1
:10284000C03BD807C1F7C9E9D1E00AEA11E0899194
:102850008F3F09F0D3DF0C171D07C9F7DF91CF9128
:102860001F910F9108958F929F92AF92BF92DF9226
:10287000EF92FF920F931F93CF93DF938C01D62E8D
:10288000C62FD0E0CE0186559E4F7C01FC012081F1
:102890002F3F09F45AC0F894E22FE295EF70F0E070
:1028A00031A12F7081E090E001C0880F2A95EAF7EE
:1028B000932F982B91A392A18095892382A378943A
:1028C00099DFE9E9F1E041E050E060E070E0812C5F
:1028D000912C540181918F3F89F0A82FA295AF7060
:1028E000B0E090962C9130E08F7002C0359527951E
:1028F0008A95E2F7DB01CA0120FF03C080E090E087
:10290000DC01882A992AAA2ABB2A440F551F661F70
:10291000771F81E0EA3AF807E9F6F70180818F3FF7
:1029200009F06CDF61E081149104A104B10409F4A1
:1029300060E08D2D61DFCC0FDD1FCC0FDD1FC00FE0
:10294000D11F88829982AA82BB82DF91CF911F9189
:102950000F91FF90EF90DF90BF90AF909F908F907E
:10296000089563DF88E1E5E2F3E0DF01982F1D922F
:102970009A95E9F7EDE0F3E0DF011D928A95E9F71A
:1029800086E039D0D1CEA8E1B0E0E9ECF4E10C94D6
:102990003B298E010F5F1F4F88E1F80111928A9544
:1029A000E9F7F12C6F2DC8015EDFF394F6E0FF121A
:1029B000F9CF48E150E0B8018DE093E00E94FD2995
:1029C00021E0009709F420E0892B41F088E1F8012B
:1029D000ADE0B3E001900D928A95E1F746E065E243
:1029E00073E08DE093E008D0182FA1DE812F689668
:1029F000E5E00C9457290895B0E0A0E0E2E0F5E1AD
:102A00000C9438296C017B01042FC22F222379F00A
:102A100081E08093AD020E941B219093AC028093D1
:102A2000AB0280E0CDB7DEB7E8E00C945429D0913A
:102A3000AD02DD23B1F38091AB029091AC020E9414
:102A4000AC20059770F384E0089F80011124A80151
:102A5000B601C7010E94FD29892B31F0A801B601FA
:102A6000C7010E940A2ACD2F1092AD028C2FDACF17
:102A7000ECCA08950E94B5200E947823B9DA0E941A
:102A80009023DADA0E9499230E949C23F1DF0E94AE
:102A9000BE230E94C421BADAF7CF9093F30180934A
:102AA000F20108950F931F93CF938C01FB01C58111
:102AB000CC2309F43BC02FD98272F801E052F847C9
:102AC000EB30F10530F4E358F54D0C94FD28F4D6C5
:102AD000C0E08C2FCF911F910F910895882321F092
:102AE0006FD6F6CF8823E1F35FD6F2CF882321F0AB
:102AF0000ED3EECF8823E1F3FFD2EACF882321F073
:102B000020D3E6CF8823E1F30FD3E2CF882321F04F
:102B100032D3DECF8823E1F321D3DACF882321F02B
:102B200081D1D6CF8823E1F36ED1D2CFC1E0D1CF0E
:102B3000EF92FF920F931F93CF93DF939B01682F28
:102B400031110EC0442329F0E82FF0E0E356F94F8D
:102B50006491762F862FCDB7DEB7E6E00C94562928
:102B6000C32FD0E0E82FF0E0442321F0E356F94FE3
:102B7000E491F0E046E0249FC00111240FEF10E043
:102B8000B8010E94B428AB01822F90E0880F991FF2
:102B900025E5249FB001259F700D1124861B970BFE
:102BA000982F990F980FB8016C1B7D0B6E9FD00169
:102BB0006F9FB00D7E9FB00D11248B2F939F9001BE
:102BC0001124232F3327B801621B730B6E9F9001D2
:102BD0006F9F300D7E9F300D11247801E91AF108A6
:102BE000EC9EB001ED9E700DFC9E700D1124672FC0
:102BF0007727061B170B0E9FE0010F9FD00D1E9F1E
:102C0000D00D11247D2F9E2F4230510599F048F4AC
:102C10004115510569F04130510581F07B2F832F1B
:102C200007C04430510569F080F046305105B1F7D6
:102C3000692F91CF9B2F8D2F7E2FFACF7E2F932F31
:102C4000F7CF9D2F7B2F8E2FF3CF732F9B2FFBCF93
:102C500041E06ECF0895FCCF089590910901291BA2
:102C6000922FE091DD01F091DE01242F462F682F95
:102C7000892F90E009950895CF93DF93762FE9018E
:102C8000682F842FE8DF962F672F9E01482F892F0A
:102C9000E4DFDF91CF91089580913D03982F9C7FD1
:102CA00029F48370846080933D0308958C3AE8F39F
:102CB0008370886AF8CFEDE3F3E085E080831182CA
:102CC0008FEF828383831482CF014AC98091AA0245
:102CD00080FF8BC08AE695E09F938F930E945C05EE
:102CE0008091AA020F900F9080FF7FC080913D03DA
:102CF00081701F928F938DE495E09F938F930E9434
:102D00005C058091AA020F900F900F900F9080FFAA
:102D10006CC080913D03869581701F928F938DE2E8
:102D200095E09F938F930E945C058091AA020F907B
:102D30000F900F900F9080FF58C080913D038695B3
:102D400086951F928F9382E195E09F938F930E94C7
:102D50005C058091AA020F900F900F900F9080FF5A
:102D600044C080913E031F928F9388EF94E09F931D
:102D70008F930E945C058091AA020F900F900F9094
:102D80000F9080FF32C080913F031F928F938EED92
:102D900094E09F938F930E945C058091AA020F900C
:102DA0000F900F900F9080FF20C0809140031F92E2
:102DB0008F9384EC94E09F938F930E945C058091A5
:102DC000AA020F900F900F900F9080FF0EC080917D
:102DD00041031F928F9388EA94E09F938F930E9400
:102DE0005C050F900F900F900F9008959091410304
:102DF000933018F49F5F90934103882319F08DE37B
:102E000093E0AEC8089581E0F1CF909141039923FA
:102E100019F0915090934103882319F08DE393E0CA
:102E20009FC8089581E0F1CF0F931F93CF938091B6
:102E30003D0380FF09C0E091E101F091E2010995B5
:102E4000CF911F910F910895C0910B010091DD0169
:102E50001091DE0180910C01C81768F7809109017B
:102E60009C2F981B892F20E040E060E090E0F80163
:102E70000995CF5FEFCFEF92FF920F931F93CF9300
:102E8000DF93D82F162F042F80913D0380FF0BC0B6
:102E9000C0910B01E090DD01F090DE0180910C010A
:102EA000C81730F0C1DFCDB7DEB7E6E00C94562985
:102EB000809109019C2F981B892F202F412F6D2F66
:102EC00090E0F7010995CF5FE9CF762F90913D0310
:102ED00090FF08C0682F842FBEDE962F672F482FE3
:102EE000892FC9CF0895CF93DF93EC01EC81F0E0F7
:102EF000E856FA4F4491EDE3F3E062818181E5DF2A
:102F00008C818F5F8C83DF91CF910895CF93DF9376
:102F1000EC01EDE3F3E0438162818C81D6DF8C81AB
:102F20008F5F8C83DF91CF910895CF93DF93EC0176
:102F3000409140039C81892F817090FD842F692FDF
:102F4000627091FD642F92FF40E095DF8C8190E0EC
:102F50000196877099278C83DF91CF910895B0E017
:102F6000A0E0E5EBF7E10C943329D82FF62E042FDF
:102F7000922E90913D0390FF41C0E92FE695E69592
:102F8000AE2FB0E0A055BE4F8C918093F3029C7F92
:102F90009430C9F56D2F7F2D842F5DDE962F672F1E
:102FA000482F892F68DFD0933E03F0923F030093B0
:102FB0004003992009F47EC08DE393E00E94B00F96
:102FC0008091AA0280FF1AC0809140031F928F93C4
:102FD00080913F031F928F9380913E031F928F93A6
:102FE0008DE193E09F938F930E945C058DB79EB710
:102FF00008960FB6F8949EBF0FBE8DBFCDB7DEB753
:10300000EDE00C944F29823019F400914003CBCFAE
:10301000863019F4D0913E03C6CF8930D9F3893177
:1030200011F6E9518E2F8170882E8E2F8095817038
:10303000E82EE695F0E0E856F94FC49110E082E4FE
:10304000A82E83E0B82E60910D01161710F0ECDE6B
:10305000AACF1C9FC001112470E00E94B4287D2ECD
:10306000811026C0760EC12ED12C8091AA0280FF3D
:1030700014C01F92CF931F92EF921F927F921F92C4
:103080001F93BF92AF920E945C058DB79EB70A96C0
:103090000FB6F8949EBF0FBE8DBF20910B012C0D73
:1030A0003D2D311D402F6F2D872DE6DD1F5FCBCFCE
:1030B000761AD9CF8091AA0280FFA0CF1F920F93DA
:1030C0001F92FF921F92DF9386EF92E09F938F9360
:1030D0000E945C058DB79EB708960FB6F8949EBF08
:1030E0000FBE8DBF8BCFEDE3F3E09181282F43819D
:1030F000628188E0890F33CF81E0F5CFEDE3F3E023
:103100009181282F4381628188EF890F28CF81E048
:10311000F5CFEDE3F3E0628121E1620F08F46FEF98
:10312000282F438181811BCF81E0F3CFEDE3F3E0D2
:10313000628121E1621B08F460E0282F43818181D4
:103140000ECF81E0F3CFEDE3F3E0438121E1420FC5
:1031500008F44FEF282F6281818101CF81E0F3CF06
:10316000EDE3F3E0438121E1421B08F440E0282F26
:1031700062818181F4CE81E0F3CF20E0F0CEEF9246
:10318000FF921F93CF93DF93EC0110E0EE24EA94BB
:10319000F12C60910D01161768F046DE9A818C8142
:1031A00090FF1DC08F5F8C83DF91CF911F91FF90A7
:1031B000EF90089520910B01210F3327331F70E00A
:1031C000C7010E94C828962F8C81409140036091CE
:1031D0003F03199F800D11244FDD1F5FDACF81500F
:1031E000E2CFB0E0A0E0E7EFF8E10C943629FC0173
:1031F0008281DFEF80FFD1E0C0E00091DD0110911E
:10320000DE012CE0A22E80910D01C81790F00CDE9B
:103210008091AF02D13009F04FC0811102C080917E
:103220000D0181508093AF02CDB7DEB7EAE00C9478
:10323000522980910B0190910901891B8C0F20E08C
:1032400040E060E090E0F801099594E0E92EF12C6F
:10325000B12CCC2ED12C8091AF028B0D8D3034F15E
:103260006A2D0E94A728892F082E000C990BC816DA
:10327000D906A9F420910B012C0D3D2D311D809113
:1032800040038E9DA0018F9D500D112455954795AB
:103290005595479560913F0380913E03EDDCBD0E4F
:1032A000F1E0EF1AF108B9F6CF5FADCF87FFDCCFC1
:1032B00090910D01890FD8CF90E0019660910D019A
:1032C00070E00E94C828AECF0F931F93CF93C09198
:1032D0000B010091DD011091DE0180910C01C817F6
:1032E00048F1C0E00091DD011091DE0160910D0117
:1032F000C61768F199DD209107018091AE02820F17
:103300008093AE0290910801920F909308011916D4
:1033100054F4082E000C990B40910D014150550BAF
:10332000841795071CF0219520930701CF911F91D9
:103330000F910895809109019C2F981B892F20E0FF
:1033400040E060E090E0F8010995CF5FC6CFEC2F38
:10335000F0E070E0CF010E94C82820910B01820F9D
:103360002091AE02022E000C330BE217F3079CF003
:1033700020910801022E000C330B2E173F075CF042
:10338000282F30E04091400360913F0380913E033D
:1033900073DCCF5FABCF90910901891B20E040E047
:1033A00060E090E0F8010995F4CFB0E0A0E0EBED2B
:1033B000F9E10C943429EC014C81042F10E09801C0
:1033C000D8010E9409299B01AC010E941E294B01D2
:1033D0005C01E0E2F0E0E01BF10BA5E5B0E0AC0140
:1033E0009B010E941E296B017C019F01DF010E944D
:1033F00003299B01AC010E9428299B01AC01280DE7
:10340000391D4A1D5B1DC701B6010E94DB28F22E43
:10341000822F90E039E23F1518F143E0249F90019C
:10342000112435952795122F109500E085E5E82E9B
:10343000EF1880910D01081718F1F6DC9C8181E0EE
:10344000992319F0903219F48FEF8093060180913F
:103450000601890F8C83CDB7DEB7ECE00C945029C0
:1034600025E530E0A901481B590BCA019A01220F3A
:10347000331F280F391F37FFD4CF2F5F3F4FD1CFD6
:103480008E2D01FD8F2D20910B01200F3327331F2F
:10349000412F60913F03F0DB0F5FCBCF0F931F9362
:1034A000CF93DF938C01D0E0C0E090910D019C1789
:1034B0001D0609F06CF4B8DCF801848190E00196F7
:1034C000817099278483DF91CF911F910F91089587
:1034D000F801448120910B012C0F3D2F311D60918B
:1034E0003F0380913E0396959C171D0641F03CF0EA
:1034F000442339F040914003BFDB2196D6CF4423CB
:10350000C9F340E0F9CFB0E0A0E0E9E8FAE10C94BB
:103510003029FC016280448081E08483E8E9F5E0A1
:103520007490E7E1F6E0E491C0914003C695C1587C
:10353000D0E0CC0FDD1FCD2FDD27812C25E0922E92
:10354000AA24AA94B12C55245A94E719EE2EF12CF2
:1035500080910D01881630F067DCCDB7DEB7E0E171
:103560000C944C29C82CD12C82E0861568F09C9CC8
:10357000F0019D9CF00D1124E055FD4F80913E031C
:10358000808380913F03818341101BC09C9CF0018C
:103590009D9CF00D1124E055FD4F13821282209165
:1035A0000B012C0D3D2D311D9C9CF0019D9CF00DBF
:1035B0001124E055FD4F4281618180815DDB839460
:1035C000C7CF9C9C80019D9C100D112400551D4F60
:1035D000F80183818823F1F081508383859DC001A8
:1035E0001124648170E00E94B428FB01FF27E85693
:1035F000FA4F8491E82FE719E59DC0011124B70126
:103600000E94B42880914003689FB0011124F80102
:103610007283C5CF0E94E229B5010E94C8288C1789
:103620009D070CF0BCCFF2E0F61598F40E94E22959
:10363000B5010E94C828F80180830E94E2292091E8
:103640003F032695622F70E00E94C828280FF801DA
:1036500021839C9CF0019D9CF00D1124E055FD4FB1
:10366000128280914003893C58F088EC9C9CF001C8
:103670009D9CF00D1124E055FD4F848383838FCFF3
:103680008431A0F784E1F2CF60913D0366956695A1
:1036900070E04BE050E08EE091E00E94F029892B31
:1036A00019F481E08093F402C6D59093ED028093E3
:1036B000EC028091AA0280FF08C08DED92E09F93FA
:1036C0008F930E945C050F900F9008951092F40262
:1036D0008091AA0280FF08C084EC92E09F938F93B0
:1036E0000E945C050F900F90089590913D0390FF0C
:1036F00038C09370811136C0946090933D03662367
:10370000C9F18DE393E00E94B00F8091AA0280FF7F
:1037100010C080913D03869586951F928F938DE210
:1037200094E09F938F930E945C050F900F900F90F1
:103730000F9060913D036695669570E04BE050E018
:103740008EE091E00E94F029892B09F1BFDF81E032
:103750008093EF024091400360913F0380913E03CC
:103760000CCD08958B3210F0986AC7CF880F880F60
:10377000982BC3CF8091AA0280FFDBCF80913D03BD
:10378000869586951F928F938FE094E0CACF7CDF59
:10379000DECF682F90913D039695969581E0890F35
:1037A0008B3208F081E0A1CF81E0F3CF682F9091B8
:1037B0003D03969596958FEF890F09F48AE295CF90
:1037C00081E0F4CF61E091CF80913D0381608093EF
:1037D0003D038091AA0280FF0DC01F9281E08F936C
:1037E00081EA93E09F938F930E945C050F900F9066
:1037F0000F900F9080913D0386958695E3CF60E012
:1038000074CF8091F202811138C08091AA0280FFAA
:1038100008C082E994E09F938F930E945C050F900B
:103820000F908DE393E00E94AE0F80913D038C7F5B
:1038300089F48091AA0280FF08C089E494E09F93F4
:103840008F930E945C050F900F9035DA8DE393E023
:103850000E94AE0F21DA3ADA1092F402E091DB0115
:10386000F091DC01099580913D0380FF03C08695AE
:103870008695C5DF81E08093F202089580913D0333
:103880008E7F80933D038DE393E00E94B00F809183
:10389000AA0280FF0FC080913D0381701F928F9319
:1038A00089E693E09F938F930E945C050F900F90A1
:1038B0000F900F900BDFB8CA8091AA0280FF10C052
:1038C00080913D03809581701F928F9388ED93E0E6
:1038D0009F938F930E945C050F900F900F900F9015
:1038E00080913D0380FF01C0C9CF6ECF0F931F931E
:1038F000CF93DF938091F4028823B1F18091F3029A
:10390000E0913D03E695E695E81BE093EE028230F8
:1039100081F5F0E0EC56FA4FE491CE2FD0E003E7CA
:1039200017E18091EF02882359F01092EF0283D4BF
:103930009093ED028093EC021092F1021092F0024B
:103940007AD4E091EC02F091ED028E1B9F0B8F3F39
:103950009F4750F4EC0FFD1FF093ED02E093EC0253
:103960008CEE92E0F8010995DF91CF911F910F91B4
:103970000895863049F4F0E0EF56FA4FE491CE2FE7
:10398000D0E006E817E1CDCF893051F4E695F0E0BC
:10399000E257FA4FE491CE2FD0E00FEB18E1C1CF00
:1039A0008F3051F4E695F0E0E557FA4FE491CE2FD1
:1039B000D0E001EF18E1B5CF853149F4F0E0E857E8
:1039C000FA4FE491CE2FD0E004E619E1AACFC8E285
:1039D000D0E005ED19E1883109F4A3CF833239F441
:1039E000E6E8F5E0C591D49105E917E19ACFC4EF77
:1039F000D1E00EE41AE1843209F493CFC0EDD7E0B0
:103A00000AE216E1853209F08CCF8E2F63E00E9426
:103A10009B28E92FF0E0ED57FA4FE491CE2FD0E04C
:103A200003E81AE17ECF089561CF0895509A089572
:103A3000FC01EE0FFF1FE80FF91FEB5BFC4F6183EA
:103A4000408322830895E5E4F3E081836083428329
:103A5000339693E0E936F907C1F708953BB13E7F0D
:103A60002BB121604FB7F89485E493E0FC015191AC
:103A7000CF0168E02BB9000000C057FF3BB9550FDC
:103A8000000000C000C000C03BB900C06A9591F7BB
:103A9000F3E089369F0751F74FBF8FE594E0019718
:103AA000F1F700C0000008950C94A00F089580E085
:103AB0000E949913862F817008950E94C3142FEFDE
:103AC00086E791E0215080409040E1F700C000007F
:103AD0000E94C314ECDF882311F0E6DFE8C30895E9
:103AE000ECCF0895CF93DF93EB0186319C4701F52E
:103AF0000E948B0E9D81992391F08A7A91E009F4BE
:103B000090E09093F502811108C089E294D20E945E
:103B1000130F80E0DF91CF91089585E3F7CF809177
:103B2000F502811103C089E28CD2F1CF85E3FCCF8D
:103B300081E0F0CFCF93DF93EC01FB0185818823F7
:103B400009F4CEC09E0130572332310508F0AEC0D3
:103B50008BE093E00E94AA0FFE01E150F047E232B1
:103B6000F10520F4E857F54D0C94FD2880910B03E6
:103B7000816080930B0393C080910C0388608093D5
:103B80000C038DC080910B038260F3CF80910B03F7
:103B90008460EFCF80910B038860EBCF80910C03A2
:103BA0008160EDCF80910C038260E9CF80910B039F
:103BB0008061DFCF80910B038062DBCF80910B03AC
:103BC0008064D7CF0E94590A80910B038068D1CFBF
:103BD00080910B038C60CDCF80910C038360CFCF9D
:103BE00080910B038E7FC5CF80910C03877FC7CF59
:103BF00080910B038D7FBDCF80910B038B7FB9CF5D
:103C000080910B03877FB5CF80910C038E7FB7CF58
:103C100080910C038D7FB3CF80910B038F7EA9CF52
:103C200080910B038F7DA5CF80910B038F7BA1CF5C
:103C30000E94590A80910B038F779BCF80910B03D1
:103C4000837F97CF80910C038C7F99CF80910B035A
:103C500082FB992790F921E0922790FB82F990FB53
:103C600083F987CF80910C03982F909591708E7F68
:103C7000892B90FB81F983CF90910B03892F8F7B48
:103C800096FF806476CF0E94590A90910B03892F8A
:103C900097FB87F980586DCF81E00E94B20F8BE0CF
:103CA00093E00E94AC0F0E94590A80E0DF91CF910F
:103CB000089580E0F2CF90910B03892F8F7E94FFBF
:103CC000806157CF90910B03892F8E7F90FF816089
:103CD00050CF90910C03892F877F93FF88604FCF3F
:103CE00081E0E4CF0F931F93CF93DF93C42FD22FA4
:103CF000FC0185818823C1F04093F8029CD2909307
:103D0000F7028093F60280E28C0F883040F4C7708F
:103D100081E001C0880FCA95EAF70E944D08DF9143
:103D2000CF911F910F9108951091F802141331C093
:103D30008091F6029091F7020FD2883C910548F5E8
:103D4000C0E2CD0F1D17B9F080E2810F883040F43A
:103D5000177081E001C0880F1A95EAF70E94520897
:103D6000C83048F481E09D2F977001C0880F9A9564
:103D7000EAF70E944D08802F0E944608C83078F666
:103D8000D77081E001C0880FDA95EAF70E945208E7
:103D9000C6CF80E28C0F883010F6C77081E001C07A
:103DA000880FCA95EAF7F2CF0F93DB0188519C4741
:103DB0008730910598F5FC01E655F54D0C94FD28EA
:103DC00006E221EE41EE6AE17CE7CD018BDF80E087
:103DD0000F91089507E225EE45EE6BE17CE7F5CF04
:103DE00006E221EE40EE68E17CE7EFCF07E225EE48
:103DF00044EE69E17CE7E9CF06E221EE42EE6CE1B8
:103E00007CE7E3CF07E225EE46EE6DE17CE7DDCF10
:103E100008E221E045EE6EE17CE7D7CF15968C9164
:103E2000882319F01092F802D3CF81E0D1CF90937C
:103E3000FE028093FD020895E091FD02F091FE02E2
:103E4000309739F00190F081E02D309711F009950D
:103E5000089580E00895F0CF0895EF92FF920F93B8
:103E60001F93CF93DF93EC01E091FD02F091FE02EE
:103E70003097F1F10280F381E02D3097C9F1099577
:103E80008091AA0282FF34C080FF0DC088811F92FA
:103E90008F9385EA97E09F938F930E945C050F9024
:103EA0000F900F900F907E0186E0E80EF11C0FE955
:103EB00017E08091AA0280FF0BC08A811F928F9326
:103EC0001F930F930E945C050F900F900F900F901F
:103ED0002196CE15DF0569F78091AA0280FF08C000
:103EE0008DE997E09F938F930E945C050F900F9050
:103EF000CDB7DEB7E6E00C945629A3E0B0E0E3E8E6
:103F0000FFE10C943E292091FB023091FC0228171E
:103F10003907B1F09093FC028093FB02E091FD021F
:103F2000F091FE02309761F00084F185E02D30972A
:103F300039F023E029839B838A83CE01019609957A
:103F40002396E2E00C945A29A3E0B0E0EAEAFFE10C
:103F50000C943E292091F9023091FA022817390772
:103F6000B1F09093FA028093F902E091FD02F09192
:103F7000FE02309761F00084F185E02D309739F032
:103F800024E029839B838A83CE0101960995239699
:103F9000E2E00C945A2940910401509105019A01E4
:103FA0002E5F3F4F485F5F4F80E02417350709F4CD
:103FB0000895F90191919F019923B9F38F5FF5CF8E
:103FC000882371F02091040130910501F9013296A6
:103FD000285F3F4F9191981729F0E217F307D1F727
:103FE00080E0089581E008959C01FC0132969FEFE6
:103FF00080E04191461751F09F3F19F4411101C0F3
:10400000982F8F5F8630A9F79F3F09F40895290FF5
:10401000311D97FD3A95F90162830895FC013296AE
:1040200008962191261303C0DF0111971C92E8170F
:10403000F907B9F70895682F80910401909105015F
:10404000D3CF682F8091040190910501E7CFE091D3
:104050000401F0910501329686E0DF011D928A95F8
:10406000E9F708950895FECF089581110CC081E00D
:1040700080931C016091190170911A0180911B01BC
:1040800090911C01F0CF82E0F3CF83E080931C017C
:104090006091190170911A0180911B0190911C018E
:1040A000E2CFE3CF089581E080931C016091190174
:1040B00070911A0180911B0190911C01D4CFF3CF14
:1040C000089591E0811101C090E090931B016091EF
:1040D000190170911A0180911B0190911C01C3CFAD
:1040E00080911B01089580931A01609119017091CC
:1040F0001A0180911B0190911C01B5CF80911A018A
:104100000895809319016091190170911A018091AD
:104110001B0190911C01A7CF80911901089508956A
:104120000895FECF089508950895F9CF0895CF9387
:10413000FADF0E94C314F8DFC0E08C2F0E949913AD
:10414000672B682B692B31F4CF5FC630B1F780E065
:10415000CF91089581E0FCCFCF93DF93EC016BD03A
:104160008C1B9D0BDF91CF91089585B7806885BF2B
:1041700085B7806885BF08951F921FB61F921124CE
:104180008F939F93AF93BF938091FF02811113C0D0
:104190008091690390916A03A0916B03B0916C03C5
:1041A0004196A11DB11D8093690390936A03A0936A
:1041B0006B03B0936C03BF91AF919F918F911F9050
:1041C0001FBE1F90189580917103843031F10E94B9
:1041D000A8061092FF0288E190E020E40FB6F89460
:1041E000A895809360000FBE2093600083B7817F05
:1041F000846083BF83B7816083BF7894889583B7D9
:104200008E7F83BF0FB6F894A89580916000886177
:1042100080936000109260000FBE08950E94590ABA
:104220000C94AC0682E084BD93E095BD9AEF97BDF7
:1042300080936E0008952FB7F89480916903909150
:104240006A03A0916B03B0916C032FBF08952FB741
:10425000F8946091690370916A0380916B03909167
:104260006C032FBF089578941F921FB61F921124DC
:104270008F939F93AF93BF938091690390916A034B
:10428000A0916B03B0916C030196A11DB11D8093A9
:10429000690390936A03A0936B03B0936C03BF917F
:1042A000AF919F918F911F901FBE1F90189581E035
:1042B0008093E00080E28093D8001092C9008FE1E3
:1042C0009EE40197F1F700C0000087E090EBDC016D
:1042D00080937A0390937B03A0937C03B0937D0338
:1042E00088E19CE00FB6F894A895809360000FBE1B
:1042F00090936000FFCF88E19CE00FB6F894A895FA
:10430000809360000FBE90936000FFCF08950895E2
:104310009B01BA01909171039430E1F48F70809306
:10432000E9009FEF8091E800915085FD06C085ED82
:104330008A95F1F700009111F5CF8091E80085FF93
:1043400009C050E040E0C9018DD28091E8008E772D
:104350008093E800089543E050E0BC0182E0D8CFAC
:10436000CF93DF93EC01BCDE48E050E0BE0181E07A
:10437000CFDF88E0FE01A3E0B3E001900D928A95C3
:10438000E1F7DF91CF910895089584EE97E09F9330
:104390008F930E945C05809170030F900F908111A4
:1043A00007C0EED345D48091E20084608093E200A0
:1043B000089580EE97E09F938F930E945C05109282
:1043C00070030F900F9008958CED97E09F938F935B
:1043D0000E945C0568DE81E074DE0F900F90089506
:1043E00088ED97E09F938F930E945C0560916D0329
:1043F00081E0611101C080E048DE0F900F900895C8
:1044000084ED97E09F938F930E945C0590917103D8
:1044100081E0943009F080E060916D0342DE0F90FE
:104420000F900895209101032F5F822F62E383D6BE
:10443000992319F0209301030895109201038091AC
:1044400002038823F1F0809171038430C1F49091CC
:10445000E9009F702091EC00822F817020FD80E8A0
:10446000892B93E09093E9009091EB0090FF04C0BA
:104470009091EE0097FD08C08F708093E900109234
:10448000020308951092F1009091E80095FDFACF93
:104490009091E80090FFF0CF9091E8009E77909384
:1044A000E800EACF42E061EC81E0E6D242E261EC72
:1044B00082E0E2D242E261EC83E0DED290917103CD
:1044C00081E0943009F080E060916D03CECD809161
:1044D0007303833009F45EC030F48130C1F182305F
:1044E00009F494C008958A3009F483C08B3009F42C
:1044F0006BC0893009F04DC080917203813209F0A0
:1045000048C08091760390917703029708F041C0EC
:104510008091E800877F8093E8008091E80082FF27
:1045200034C09091F3008091F200029731F48091B1
:10453000F100813011F0863019F48091F100D3DD63
:104540008091E8008B778093E800CAD222C08091E6
:104550007203813AF1F48091E800877F8093E8004C
:104560008091760390917703892B59F468E083E07A
:1045700093E070E0C4D18091E8008B778093E800ED
:10458000089560E090E080E0F4CF809171038111A4
:10459000C4CF089580917203813AD9F78091760350
:1045A00090917703892BA9F78091E800877F80930A
:1045B000E8008091E80080FFFCCF92DD8093F1005D
:1045C0008091E8008E77BFCF80917203813209F726
:1045D0008091760390917703892BD9F68091E8003A
:1045E000877F8093E8007CD2809174036ADD0C940D
:1045F000590A80917203813261F68091E800877FC9
:104600008093E8006DD2809175037BCD8091720319
:10461000813A09F0BECF8091E800877F8093E8005F
:104620008091E80080FFFCCF77DDC8CF9FB7F8947A
:10463000109202039FBF90917103943009F048C01B
:104640002091E9002F703091EC00932F917030FD94
:1046500090E8922B23E02093E9002091EB0020FFCB
:1046600034C02091EE0027FF30C0209100032223A8
:1046700021F02091E80025FF28C01092000326E0D9
:104680003091E80035FF14C08093F1008091E8007C
:1046900085FD27C08091E80080FFFCCF8091E80075
:1046A0008E778093E8009F709093E90080E00895F2
:1046B00030917103343049F43091EB0035FD05C081
:1046C000215041F481E0809300039F709093E900B2
:1046D0008FEF0895EFE9FFE03197F1F700C0000098
:1046E000CFCF8FB7F89421E0209302038FBFDBCFA9
:1046F00084B7877F84BF0FB6F894A8958091600037
:10470000886180936000109260000FBE80E890E0A6
:104710000FB6F89480936100909361000FBECFCCE8
:104720002FD286D2E2EEF0E080818460808378949C
:10473000E8C48DE191E07BCB80917103853089F4F1
:104740008091AA0280FF08C08EEB97E09F938F9321
:104750000E945C050F900F9080917103853011F0DD
:104760005DCD089530DDE3DC8823B1F380916F03E4
:10477000882391F361D00E94590AEECF08959A01DF
:10478000409178035091790300C0492F5527433059
:10479000510521F168F44130510509F443C042301C
:1047A000510509F444C090E080E050E040E026C0AC
:1047B0004132510551F142325105A9F7633071057B
:1047C00090F7FB01EE0FFF1FEA51FE4F4081518130
:1047D0006D517E4FFB01808190E010C099278130A0
:1047E000910581F0009729F00297E9F6E8EEF7E0ED
:1047F00002C0E6E0F8E0849190E0AF01F901518356
:1048000040830895E6EFF7E0F6CF6330710558F680
:10481000660F771FFB01E451FE4F4081518189E013
:1048200090E0ECCF82E190E04EE558E0E7CF84E500
:1048300090E04AE058E0E2CF80E189BD82E189BDA5
:1048400009B400FEFDCF8091D8008F7D8093D80001
:104850008091E00082608093E0008091E00081FD23
:10486000FCCF0895AF92BF92CF92DF92FF920F9349
:104870001F93CF93DF936C01EB018A0150D1F82E87
:10488000811123C00115110539F0F8018081918152
:10489000C81BD90BC80ED91EB12CA12C2097A9F08A
:1048A0008091E80085FD21C08091E8008E7780939B
:1048B000E80001151105A1F0F80180819181A80E91
:1048C000B91EB182A08285E0F82E8F2DDF91CF91A5
:1048D0001F910F91FF90DF90CF90BF90AF90089500
:1048E0001ED18823D9F2F82EF0CFF60181916F0105
:1048F0008093F1002197FFEFAF1ABF0ACFCFFC01E1
:10490000809178039091790386179707A0F061153D
:10491000710529F49091E8009E779093E80090E06B
:104920006115710551F4911108C08091E80082FF72
:1049300034C080E00895BC01F2CF809171038823D8
:10494000C1F18530C1F18091E80083FD30C08091D4
:10495000E80082FDEACF8091E80080FFE1CF8091FE
:10496000F3002091F200382F6115710519F02830FD
:10497000310558F091E02830310509F090E02091A0
:10498000E8002E772093E800CBCF81918093F1004F
:10499000615071092F5F3F4FE7CF809171038823EA
:1049A00041F0853041F08091E80083FFBECF81E087
:1049B000089582E0089583E00895FC0180917803D2
:1049C0009091790386179707A0F06115710529F476
:1049D0008091E8008E778093E80090E06115710582
:1049E00051F4911108C08091E80082FF35C080E049
:1049F0000895BC01F2CF809171038823C9F18530FD
:104A0000C9F18091E80083FD31C08091E80082FD0A
:104A1000EACF8091E80080FFE1CF8091F300209100
:104A2000F200382F6115710519F02830310558F062
:104A300091E02830310509F090E08091E8008E7710
:104A40008093E800CBCF84918093F1003196615040
:104A500071092F5F3F4FE6CF80917103882341F0AA
:104A6000853041F08091E80083FFBDCF81E008955B
:104A700082E0089583E00895982F973028F08F7092
:104A80008093E90081E008959093E900242F762F28
:104A900050E0981731F07091EC002091ED005091AA
:104AA000F00021FD02C09F5FE8CF3091EB003E7F18
:104AB0003093EB003091ED003D7F3093ED0030916D
:104AC000EB0031603093EB007093EC002093ED002D
:104AD0005093F0002091EE0027FDE5CF80E008958F
:104AE0008091720387FF13C08091E80082FF06C0A7
:104AF0008091E8008B778093E80004C08091710377
:104B00008111F2CF0895809171038823D9F38091A8
:104B1000E80080FFF8CF8091E8008E77ECCF2091FD
:104B2000E4003091E50095E6A9012091EC00822F88
:104B3000817020FF06C08091E80080FF06C080E001
:104B400008952091E80022FD1AC080917103882306
:104B500089F0853089F08091EB0085FD0FC02091B0
:104B6000E4003091E50042175307F9F29150E1F665
:104B700084E0089582E0089583E0089581E0089537
:104B800067D06ED0E0EEF0E0808181608083E8ED58
:104B9000F0E080818F77808319BCA7EDB0E08C9125
:104BA0008E7F8C9380818F7E808310927003089516
:104BB0000F931F93CF93DF934BD052D0C8EDD0E02B
:104BC00088818F77888388818068888388818F7DBA
:104BD000888319BC1092710310926D0310926F03B9
:104BE00010926E0300EE10E0F80180818B7F8083CD
:104BF00088818160888342E060E080E03DDFE1EE13
:104C0000F0E080818E7F8083E2EEF0E08081816041
:104C10008083808188608083F80180818E7F80839B
:104C2000888180618883DF91CF911F910F910895D2
:104C3000E8EDF0E080818F7E8083E7EDF0E0808119
:104C40008160808384E082BF81E080937003B0CF75
:104C5000E8EDF0E080818E7F80831092E20008957D
:104C60001092DA001092E10008951F920F920FB691
:104C70000F9211242F933F934F935F936F937F93E2
:104C80008F939F93AF93BF93EF93FF938091E10036
:104C900082FF0AC08091E20082FF06C08091E1009D
:104CA0008B7F8093E100BEDB8091DA0080FF18C02B
:104CB0008091D80080FF14C08091DA008E7F8093AD
:104CC000DA008091D90080FF91C080E189BD82E146
:104CD00089BD09B400FEFDCF81E08093710355DBEF
:104CE0008091E10080FF18C08091E20080FF14C035
:104CF0008091E2008E7F8093E2008091E2008061EB
:104D00008093E2008091D80080628093D80019BC23
:104D100085E08093710364DB8091E10084FF2AC009
:104D20008091E20084FF26C080E189BD82E189BDD7
:104D300089B5982F917080FFFBCF8091D8008F7D2F
:104D40008093D8008091E1008F7E8093E100809174
:104D5000E2008F7E8093E2008091E2008160809388
:104D6000E20080916D03882309F445C084E08093BC
:104D7000710346DB8091E10083FF27C08091E20050
:104D800083FF23C08091E100877F8093E10082E070
:104D90008093710310926D038091E1008E7F809368
:104DA000E1008091E2008E7F8093E2008091E2003A
:104DB00080618093E20042E060E080E05DDE80910F
:104DC000F00088608093F000FFDAFF91EF91BF91CF
:104DD000AF919F918F917F916F915F914F913F9193
:104DE0002F910F900FBE0F901F90189519BC109225
:104DF0007103DFDA75CF8091E30087FD93E0909334
:104E00007103B7CF1F920F920FB60F9211242F93F9
:104E10003F934F935F936F937F938F939F93AF9342
:104E2000BF93CF93DF93EF93FF93D091E900DF70AF
:104E30008091EC00C82FC17080FDC0E81092E9009D
:104E40008091F000877F8093F00078941ED01092BC
:104E5000E9008091F00088608093F000CD2BCF7046
:104E6000C093E900FF91EF91DF91CF91BF91AF9196
:104E70009F918F917F916F915F914F913F912F9172
:104E80000F900FBE0F901F901895AAE2B0E0EAE4D1
:104E9000F7E2F3C182E793E02091F100FC01219356
:104EA000CF01F3E08A379F07B9F711DB8091E80063
:104EB00083FF16C180917203909173039A3008F0BA
:104EC0000FC1E92FF0E0EF54F54D97C1803899F00C
:104ED000823809F005C1809176038F70873008F021
:104EE000FFC08093E9008091EB0085FB882780F963
:104EF0001092E90006C080916E0390916F039111AA
:104F000082609091E800977F9093E8008093F10091
:104F10001092F1008091E8008E77DFC0882309F4B9
:104F2000CDC0823009F0DCC0809174038111D0C003
:104F3000809176038F702FEF280F263008F0D0C0B5
:104F40008093E9002091EB0020FFC2C0933031F440
:104F50008091EB0080628093EB00BAC09091EB00EF
:104F600090619093EB0021E030E001C0220F8A9520
:104F7000EAF72093EA001092EA008091EB00886043
:104F8000EACF8111ADC0109174031F778091E300C7
:104F90008078812B8093E3008091E800877F809365
:104FA000E8009EDD8091E80080FFFCCF8091E30067
:104FB00080688093E30082E0111183E080937103A5
:104FC0008FC08058823008F08BC08091740390911C
:104FD00075038C3D23E0920799F583E08A838AE28A
:104FE00089834FB7F894DE01139620E03EE051E24A
:104FF000E32FF0E050935700E49120FF03C0E295C7
:10500000EF703F5FEF708E2F90E0EA30B8F0C796F8
:105010008D939D932F5F243159F74FBF8091E80006
:10502000877F8093E8006AE270E0CE01019667DC3A
:105030008091E8008B778093E80052C0C096E8CF5B
:105040006091760370917703AE014F5F5F4F97DBFE
:10505000BC01892B09F444C09091E800977F90939C
:10506000E80089819A81A9DCE3CF8038C9F5809175
:10507000E800877F8093E80080916D038093F100C2
:1050800049CF81112DC090917403923048F58091E1
:10509000E800877F8093E80090936D0321DD809185
:1050A0006D03882311F084E005C08091E30087FD43
:1050B000FACF81E080937103F5D912C08091740317
:1050C000813071F481E0933009F080E080936F03C8
:1050D0001092E9008091E800877F8093E80000DD6E
:1050E0008091E80083FF0AC08091E800877F809369
:1050F000E8008091EB0080628093EB00AA96E3E0E9
:10510000D8C0CF9380917103882399F0C091E900B2
:10511000CF709091EC00892F817090FD80E8C82BB2
:105120001092E9008091E80083FDAFDECF70C0935C
:10513000E900CF910895991B79E004C0991F961753
:1051400008F0961B881F7A95C9F78095089587FB0C
:10515000082E062687FD819567FD6195ECDF0EF42C
:10516000919507FC81950895AA1BBB1B51E107C0CF
:10517000AA1FBB1FA617B70710F0A61BB70B881FE7
:10518000991F5A95A9F780959095BC01CD01089576
:1051900097FB072E16F4009406D077FD08D0E4DFC5
:1051A00007FC05D03EF4909581959F4F089570952A
:1051B00061957F4F0895A1E21A2EAA1BBB1BFD012A
:1051C0000DC0AA1FBB1FEE1FFF1FA217B307E407E6
:1051D000F50720F0A21BB30BE40BF50B661F771F3E
:1051E000881F991F1A9469F760957095809590951E
:1051F0009B01AC01BD01CF010895EE0FFF1F05908B
:10520000F491E02D099405D0332312F48A1B9B0BF3
:1052100010C0A29FB001B39FC001A39F700D811D5C
:105220001124911DB29F700D811D1124911D0895AF
:10523000F0DFB7FF0895821B930B0895EADFA59F67
:10524000900DB49F900DA49F800D911D1124089581
:10525000B7FFF4CFF3DF821B930B08952F923F9299
:105260004F925F926F927F928F929F92AF92BF9276
:10527000CF92DF92EF92FF920F931F93CF93DF9322
:10528000CDB7DEB7CA1BDB0B0FB6F894DEBF0FBE7F
:10529000CDBF09942A88398848885F846E847D84CC
:1052A0008C849B84AA84B984C884DF80EE80FD80CE
:1052B0000C811B81AA81B981CE0FD11D0FB6F89444
:1052C000DEBF0FBECDBFED010895002E083090F077
:1052D000982F872F762F652F542F432F322F222779
:1052E0000850F4CF220F331F441F551F661F771F2E
:1052F000881F991F0A95B2F7002D089597FD109405
:10530000002E083098F00850232F342F452F562FA9
:10531000672F782F892F912DF4CF15949795879526
:105320007795679557954795379527950A95AAF7E5
:105330001124002D08958F929F92AF92BF92CF9229
:10534000DF92EF92FF92CF93DF93EC016881798136
:105350008A819B81611571058105910521F464E2C3
:1053600079ED8BE597E02DE133EF41E050E09BD004
:1053700049015A019B01AC01A7EAB1E45FDF6B016F
:105380007C01ACEEB4EFA501940164DFDC01CB013C
:105390008C0D9D1DAE1DBF1DB7FF03C00197A10958
:1053A000B04888839983AA83BB839F77DF91CF918D
:1053B000FF90EF90DF90CF90BF90AF909F908F9035
:1053C0000895B9CF80E091E0B6CFB0E0A0E080933F
:1053D000000190930101A0930201B093030108958D
:1053E000FC014150504030F001900616D1F7319742
:1053F000CF010895882799270895FB01DC0104C097
:105400008D910190801921F441505040C8F7881BBC
:10541000990B0895FB01DC0102C001900D924150EF
:105420005040D8F70895F999FECF92BD81BDF89A02
:10543000992780B50895A6E1B0E044E050E025C08A
:10544000A8E1B0E042E050E020C0262FF999FECF5D
:1054500092BD81BDF89A019700B4021639F01FBAC7
:1054600020BD0FB6F894FA9AF99A0FBE08950396E4
:10547000272FECDFEADF252FE9DF242FE7CF019686
:10548000272FE4DFE2CFDC01CB01FC01F999FECF4D
:1054900006C0F2BDE1BDF89A319600B40D924150BC
:1054A0005040B8F70895052E97FB16F400940FD0DE
:1054B00057FD05D080DE07FC02D046F408C05095A9
:1054C0004095309521953F4F4F4F5F4F08959095F0
:1054D0008095709561957F4F8F4F9F4F0895F894F9
:1054E000FFCF95089508CB08CB082409BD08BD0857
:1054F000BD084009A909B509B50967156E157215EA
:1055000076157A157E15821586158A158E159215D3
:10551000F01D621EF81DC21DC61DFC1DCA1D001E09
:105520000C1ED61D5B1EDA1D101EDE1D141E3C1E39
:10553000E21D181E431EE81D1E1E261ECE1D041E43
:10554000D21D081EEC1D221E321E4C1E591EBC1DF3
:10555000F41D691EF01EF61EE01EEA1EFC1E021F50
:10556000081F66278E2770288E277028C127E127FD
:06557000702835284128D7
:10557600010000007E02010102000C000C0C011962
:105586001A1B1C1D1E1F202122000001007E20B0B8
:105596002187218621AB21E200E900EA00B500B6A9
:1055A60000B700CD008301CC008A0192019401214D
:1055B60002230224022502260227022A02B300B48D
:1055C600006F0070009F01CB019F02A002818283C1
:1055D600E200E900EA00B500B600B700CD0083019D
:1055E600CC008A01920194012102230224022502A1
:1055F600260227022A02B300B4006F0070009F0142
:10560600CB019F02A002818283F0F1F4F5F6F767E1
:10561600663635349796C6379392313233949195E0
:105626000001020202020606060909090909090F14
:105636000F0F0F0F0F151515181919191919191913
:105646001919192324252525252525161D181D2359
:105656001D2E1D443215B708850870081C0835082C
:025666004E08EC
:00000001FF
