:100000000C9493040C94B0040C94B0040C94B004BD
:100010000C94B0040C94B0040C94B0040C94B00490
:100020000C94B0040C94B0040C94BF240C9493254D
:100030000C94121F0C94B0040C94B0040C94B004F3
:100040000C94B0040C94B0040C94B0040C94B00460
:100050000C94B0040C94991F0C94B0040C94B0044C
:100060000C94B0040C94B0040C94B0040C94B00440
:100070000C94B0040C94B0040C94B0040C94B00430
:100080000C94B0040C94B0040C94B0040C94B00420
:100090000C94B0040C94B0040C94B0040C94B00410
:1000A0000C94B0040C94B0040C94B0041E001F0017
:1000B00020002141220023002400254228782778AF
:1000C000237824780100217822780100B300B10060
:1000D000A900A800B400B200AA000100444542559E
:1000E000473A2064697361626C65642E0A00444576
:1000F0004255473A20656E61626C65642E0A006C59
:1001000065645F7461736B3A20253032580A004F82
:100110006E6573686F743A206163746976653A201E
:1001200025640A000A0025303862003A2000253094
:100130003258000A722F632030313233343536376B
:100140000A00313A0964656C6179282A31306D738F
:10015000293A2025750A323A09696E74657276610A
:100160006C286D73293A2025750A333A096D617838
:100170005F73706565643A2025750A343A097469BD
:100180006D655F746F5F6D61783A2025750A353A49
:1001900009776865656C5F6D61785F73706565642C
:1001A0003A2025750A363A09776865656C5F746987
:1001B0006D655F746F5F6D61783A2025750A007018
:1001C0003A097072696E742076616C7565730A64A1
:1001D0003A097365742064656661756C74730A7599
:1001E000703A092B310A646E3A092D310A6C743A5F
:1001F000092B31300A72743A092D31300A455343C4
:100200002F713A09717569740A0A73706565642003
:100210003D2064656C7461202A206D61785F737085
:10022000656564202A2028726570656174202F201E
:1002300074696D655F746F5F6D6178290A776865B1
:1002400072652064656C74613A20637572736F72B5
:100250003D25642C20776865656C3D25640A5365EF
:100260006520687474703A2F2F656E2E77696B69FC
:1002700070656469612E6F72672F77696B692F4DA6
:100280006F7573655F6B6579730A004D3E20004D95
:1002900025753A25733E20003F0A003D2025750A4A
:1002A000003F0A0064656661756C74730A00257509
:1002B0000A003F0A000A092D2056616C75657320FB
:1002C0002D0A00710A000A092D204D6F7573656BA8
:1002D0006579202D0A003F00433E20004C25640A2A
:1002E000000A092D20537461747573202D0A686FFC
:1002F00073745F6B6579626F6172645F6C65647360
:1003000028293A20253032580A6B6579626F61726C
:10031000645F70726F746F636F6C3A20253032586F
:100320000A6B6579626F6172645F69646C653A201B
:10033000253032580A74696D65725F726561643385
:100340003228293A202530386C580A002573000AD3
:10035000092D20436F6E736F6C65202D0A45534342
:100360002F713A09717569740A6D3A096D6F757369
:10037000656B65790A000A092D204D616769632064
:100380002D0A443A094465627567204D65737361AF
:10039000676520546F67676C650A583A094D617448
:1003A000726978204465627567204D6F64652054DA
:1003B0006F67676C65202D2053686F77206B6579B8
:1003C0007072657373657320696E206D61747269F4
:1003D0007820677269640A4B3A094B6579626F61EC
:1003E000726420446562756720546F67676C65208E
:1003F0002D2053686F77206B657970726573732059
:100400007265706F72740A4D3A09446562756720AF
:100410004D6F75736520546F67676C650A563A09AE
:1004200056657273696F6E0A533A09537461747535
:10043000730A433A09416374697661746520436FB6
:100440006E736F6C65204D6F64650A46312D4631C1
:10045000303A0953776974636820746F204C61796E
:10046000657220302D392028463130203D204C3017
:10047000290A302D393A0953776974636820746FFB
:10048000204C6179657220302D390A47524156451A
:100490003A0953776974636820746F204C617965F9
:1004A0007220302028616C7465726E617465290A4F
:1004B000423A094A756D7020746F20426F6F746CF8
:1004C0006F616465720A4553433A094A756D70203D
:1004D000746F20426F6F746C6F6164657220286165
:1004E0006C7465726E617465290A453A09507269C7
:1004F0006E7420454550524F4D2053657474696E9B
:1005000067730A4241434B53504143453A09436C98
:1005100065617220454550524F4D0A006B65796DFB
:1005200061705F636F6E6669672E7261773A20252E
:100530003032580A2E737761705F636F6E74726F1A
:100540006C5F636170736C6F636B3A2025750A2E64
:10055000636170736C6F636B5F746F5F636F6E74F6
:10056000726F6C3A2025750A2E737761705F6C6329
:10057000746C5F6C6775693A2025750A2E73776114
:10058000705F7263746C5F726775693A2025750AD3
:100590002E737761705F6C616C745F6C6775693A1C
:1005A0002025750A2E737761705F72616C745F72BB
:1005B0006775693A2025750A2E6E6F5F6775693A0F
:1005C0002025750A2E737761705F67726176655FAB
:1005D0006573633A2025750A2E737761705F6261D7
:1005E000636B736C6173685F6261636B737061638B
:1005F000653A2025750A2E6E6B726F3A2025750AB2
:100600002E737761705F6573636170655F6361709E
:10061000736C6F636B3A2025750A006465627567B9
:100620005F636F6E6669672E7261773A202530329C
:10063000580A2E656E61626C653A2025750A2E6D2A
:1006400061747269783A2025750A2E6B6579626F3C
:100650006172643A2025750A2E6D6F7573653A20B4
:1006600025750A006565636F6E6669673A0A646599
:100670006661756C745F6C617965723A2025750AE4
:10068000003F000A6D6F7573653A206F66660A0059
:100690000A6D6F7573653A206F6E0A000A6B657993
:1006A000626F6172643A206F66660A000A6B657950
:1006B000626F6172643A206F6E0A000A6D61747233
:1006C00069783A206F66660A000A6D61747269780B
:1006D0003A206F6E0A000A64656275673A206F6699
:1006E000660A000A64656275673A206F6E0A000A3E
:1006F0000A4A756D70696E6720746F20626F6F743F
:100700006C6F616465722E2E2E2000433E200043E4
:100710006C656172696E6720454550524F4D0A0005
:10072000290A002575002F002575005D2800256425
:1007300000200025640020002564002000256400BE
:100740007C0025303258006D6F7573656B657920BC
:100750005B62746E7C782079207620685D287265F3
:10076000702F61636C293A205B000A0025303258F3
:1007700020006B6579626F6172645F7265706F7281
:10078000743A2025303258207C20007375737065D0
:100790006E64696E67206B6579626F6172640D0AC1
:1007A000005B575D005B535D005B525D005B445D29
:1007B000005B435D0018036E0061006D006500631F
:1007C00000610072006400320078003400000016FE
:1007D00003740061006B00610073006800690073BE
:1007E000006B0069000000040309040902540003BF
:1007F0000100A0FA09040000010301010009211110
:1008000001000122440007058103080001090401D9
:10081000000103000000092111010001227B0007F3
:100820000582032000010904020001030000000901
:100830002111010001221500070583032000011288
:1008400001000200000008EDFE00000100010200AE
:10085000010631FF0974A1010975150026FF0095F5
:100860002075088102C005010902A1018502090164
:10087000A100050919012908150025019508750130
:1008800081020501093009311581257F950275081E
:10089000810609381581257F950175088106050CAB
:1008A0000A38021581257F950175088106C0C005AB
:1008B000010980A101850319012AB700150126B796
:1008C00000950175108100C0050C0901A101850486
:1008D00019012AA002150126A002950175108100B8
:1008E000C005010906A101050719E029E715002542
:1008F00001950875018102950175088101050719A7
:100900000029FF150026FF009506750881000508DF
:10091000190129051500250195057501910295011B
:1009200075039101C00011241FBECFEFDAE0DEBFD6
:10093000CDBF12E0A0E0B1E0E6EAF0E502C005902C
:100940000D92AC3BB107D9F723E0ACEBB2E001C0AC
:100950001D92A537B207E1F70E9425150C941228C5
:100960000C940000FF93EF93E091BC02F091BD0264
:10097000309709F00995EF91FF910895FC01859159
:10098000803011F0EFDFFBCF0895FF27E0E230E287
:1009900047FF0CC0419597FF09C0EDE26095709547
:1009A00080959095611D711D811D911D27FF02C0CD
:1009B000219530E350E2AA27660F771F881F991F01
:1009C000AA1FA41710F0A41B63955A95A9F7AA3083
:1009D00008F0A95FA05DAF93F395611571058105DE
:1009E000910541F7ED3211F4EF93F395F21718F4F6
:1009F0003F93F395FBCF8F91B5DFFA95E1F708951B
:100A0000E991F9918591803021F0853219F0AADFC2
:100A1000F9CF089520E0E89455915532C1F3503351
:100A200011F4689455915A3348F4505390F3220FBF
:100A3000022E220F220F200D250FF4CF0EF4219548
:100A400089919991533619F3533729F1533559F157
:100A5000BC0188279927E8945C3621F48991999103
:100A600068945591543639F446EF7EF077FF0DC007
:100A70008FEF9FEF0AC055374AE039F0583540E113
:100A800021F0523642E009F00895FF93EF937DDFA5
:100A9000EF91FF91B7CFFF93EF93FC0181918030ED
:100AA000B9F360DFFBCFFF93EF9368DFF1CFDF9304
:100AB000CF93CDB7DEB72596A3DFCF91DF91089511
:100AC0008330B8F46230A8F4443098F4E82FF0E0B2
:100AD000EE0FFF1FE60FF11DEE0FFF1FEE0FFF1FC2
:100AE000E40FF11DEE0FFF1FE455FF4F8591949128
:100AF000089581E090E008950E946005089581E0E6
:100B000008950E947F05089581E008950E947F0561
:100B100008950E948605089508950E948C05089501
:100B2000A6E0B0E0E6E9F5E00C946E2749835A832D
:100B30009E833091C30289819A8131111AC03E810E
:100B4000332399F0222389F00E94CE0B182F682FAF
:100B500089819A810E94AB0B69817A81812F0E94E1
:100B6000B0122696E3E00C948A270E94BC0B182F43
:100B7000F3CF0E94CE0B69817A81F1CFFC01262F41
:100B80004081518162817381848195810E949005A9
:100B90000895CF93DF93EC0161E00E94BE05BE0192
:100BA0000E948105DF91CF910895CF93DF93EC01EF
:100BB00060E00E94BE05BE010E948D05DF91CF91CD
:100BC000089581E008950E94E1050895CF93C82F0C
:100BD0000E94800A8C2F0E94E3052FEF84E39CE0A3
:100BE000215080409040E1F700C00000CF9108956F
:100BF00081E00E94E6050E94BD1F089580E00E94EA
:100C0000E6050E94CE1F08950F931F93CF93DF93A5
:100C10008C0161E00E94BE05EC01B8010E948905CB
:100C2000811106C080E0DF91CF911F910F9108954F
:100C3000B801CE010E94351D8823A1F3B801CE0171
:100C40000E94C518882371F3B801CE010E949B1839
:100C5000882341F3F8018581882369F0C330FCE7DC
:100C6000DF07A1F160F4C130ECE7DE0789F1C0F4E1
:100C7000C115DC4791F0C8010E948405D4CFCB3563
:100C8000ECE7DE0759F1CC35FCE7DF0721F1CA3587
:100C9000DC4789F70E94F80FEECF0E94F805C2CF1B
:100CA00090912E03892F8E7F90FF816080932E0379
:100CB00080FF09C08EEE90E09F938F930E945705AE
:100CC0000F900F90AFCF8CED90E0F6CF0E94001008
:100CD0000E94FE05A7CF0E94EE0FCDCF0E94FC0F11
:100CE000CACF0E94EE1E0E94A90608950E94AD067A
:100CF0000E94F31E0895829590E09C01220F331FFD
:100D0000220F331F2C7C9595879595958795837336
:100D1000282B30E0C901880F991F8A7A35952795CD
:100D20002575822B089581E008950895CF93DF9370
:100D3000D82F0E949306C82F882319F08D2F0E9468
:100D400095068C2FDF91CF91089508950E94960605
:100D5000089580E00E94A60608950E947E1D0E94CC
:100D6000A6060895CF930E947E1DC82F8091BE02D3
:100D70008C1701F1C093BE020E947E1F6093BF02D8
:100D80007093C0028093C1029093C20280912E039F
:100D90008570853061F41F92CF938FEF90E09F9321
:100DA0008F930E9457050F900F900F900F908C2FEC
:100DB0000E94A606CF910895ADE0B0E0E2EEF6E025
:100DC0000C946F27488759876A877B878C879D8714
:100DD00091110E941B0F1F8286E0FE013896DE01F2
:100DE000119601900D928A95E1F78D8181110DC0C8
:100DF00029813A814B815C816D817E818F810E9446
:100E0000650E2D96E2E00C948B27CE0101960E9490
:100E1000C9058111EDCFF5CFFC012481213021F4EA
:100E2000808191810E94000C0895662329F00E9420
:100E3000261A0E940B1B08950E94921AFACFCF9394
:100E4000C82F8823C9F08238C9F40E948B1D81FD08
:100E500013C089E30E94841E0E948A0F2FEF87EE41
:100E600093E0215080409040E1F700C0000089E30A
:100E70000E948C1E0E948A0FCF9108958338A1F49E
:100E80000E948B1D80FDF8CF83E50E94841E0E9486
:100E90008A0F2FEF81EE94E0215080409040E1F7DF
:100EA00000C0000083E5E4CF8438A1F40E948B1DCC
:100EB00082FDE2CF87E40E94841E0E948A0F2FEFFA
:100EC00081EE94E0215080409040E1F700C00000A6
:100ED00087E4CECF8CEF8C0F813A98F48C2F0E9450
:100EE0003B188111C9CF8C2F0E94491E882329F0FD
:100EF0008C2F0E948C1E0E948A0F8C2F0E94841EB1
:100F0000B9CF80E28C0F883048F4C77081E001C00F
:100F1000880FCA95EAF70E94FE0EACCFEBE5EC0F06
:100F2000E33040F4F0E0E55BFE4F808190E00E940A
:100F3000EA1DA2CFE8E5EC0FEB3150F4F0E0EE0F44
:100F4000FF1FEB5EFE4F808191810E940F1E94CFA8
:100F500083E38C0F833108F08FCF61E08C2F0E94E8
:100F600015078ACF882309F456C0823879F40E9485
:100F70008B1D81FF50C089E30E94841E0E948A0F4E
:100F800089E30E948C1E0E948A0F0895833859F4C9
:100F90000E948B1D80FF3FC083E50E94841E0E943B
:100FA0008A0F83E5EECF843859F40E948B1D82FFAF
:100FB00032C087E40E94841E0E948A0F87E4E1CF3A
:100FC0009CEF980F913AE8F290E2980F983050F425
:100FD000877091E001C0990F8A95EAF7892F0E94E6
:100FE000040FD1CF9BE5980F933028F490E080E078
:100FF0000E94EA1D089598E5980F9B3128F490E02F
:1010000080E00E940F1E089593E3980F933118F427
:1010100060E00E94150708951F93CF93DF93182F68
:10102000EB010E941F07209739F4812F0E94B2071D
:10103000DF91CF911F9108958FE99FE00197F1F71C
:1010400000C000002197EFCF70E060E0893311F419
:1010500060E570E00E940C080895882321F00E944A
:10106000FE0E0E948A0F0895882321F00E94040F2B
:101070000E948A0F0895B0E0A0E0E1E4F8E00C944B
:1010800068276C01D62FC72FFC01158106810295B8
:101090000F700E94F40EE82E8823F9F0E12E112340
:1010A000E1F08C2F807F803461F080E28D0F8830FA
:1010B00008F18C2F807E803221F4D230D8F00023CA
:1010C000C9F080915F0382FF15C082E00E94AF0FDC
:1010D0000E94F40E91E0E82EE926BC2EB2949FE027
:1010E000B922FBE0FB15B8F1EB2DF0E0EC5EF74D1B
:1010F0000C945927E12CF1CF0C2F0F70C07F11F009
:101100000295007F112399F0002359F080E28D0FA2
:10111000883010F0D11107C0802F0E94FE0E0E946F
:101120008A0F8D2F5AC0802F0E940E0FF8CF8D2F5F
:101130000E94B207002379F080E28D0F883010F012
:10114000D11104C0802F0E94040F03C0802F0E9481
:10115000140F0E948A0FEB2DE850FF0B349720F4F8
:101160000E947E1D0E94A606EE2089F00E94F00ECD
:1011700080FD0DC0F60115820E94EA0E0E94090B47
:10118000C6010E94470A0E94EA0E0E94190BCDB7C1
:10119000DEB7E9E00C9484272C2F2F70F22EC07F4D
:1011A000C03219F0F29480EFF822DD2341F0D13003
:1011B000D1F1112309F444C00023F1F0B2CF8091A2
:1011C0005F0382FD15C0112359F0FF2029F08F2DF8
:1011D0000E94FE0E0E948A0F80E00E941F07BBCF74
:1011E00080E00E94B207FF2009F4B5CF8F2DABCF6E
:1011F000112369F0011104C08F2D0E942D08ABCF7F
:10120000013009F0A8CF8F2D0E94320FA4CF011119
:10121000A2CF8F2D0E9434088F2D0E943E0F8F2D5C
:101220000E94220F98CF112321F0063008F093CFAF
:10123000E3CF053008F08FCF8F2D0E9434088BCF7D
:101240000023D1F3D93349F43FEF87EE93E03150D7
:1012500080409040E1F700C000008D2F0E94B2074F
:101260007ACF8C2F86958695837069F0813009F04E
:1012700072CF8D2F9C2F9370111102C080E090E0EF
:101280000E940F1E68CF8D2F9C2F9370111102C0EA
:1012900080E090E00E94EA1D5ECF612F8D2F0E94BA
:1012A000150759CF8C2F8370A1F5111154CF4D2FF5
:1012B000429546954770440F440F2D2F2F7030E014
:1012C000042E02C0220F331F0A94E2F790E080E060
:1012D000D4FF09C08FE090E002C0880F991F4A95A3
:1012E000E2F780959095C695C695C370822B932B97
:1012F000C23049F058F4C13019F00E94D90A2BCFFE
:101300000E94D00A28CF0E94E20A25CF0E94CD0A6F
:1013100022CF8695112311F08C2F8170882309F438
:101320001ACF4D2F429546954770440F440F2D2FED
:101330002F7030E0042E02C0220F331F0A94E2F710
:1013400090E080E0D4FF09C08FE090E002C0880FF9
:10135000991F4A95E2F780959095C695C695C370FA
:10136000822B932BC23049F058F4C13019F00E94FF
:10137000440BF1CE0E943B0BEECE0E944D0BEBCE08
:101380000E94F10AE8CECF70112329F08C2F0E9421
:10139000090B8D2F32CF8D2F0E9434088C2F0E9485
:1013A000190BD9CED23F41F160F4D03FB9F0D13F13
:1013B00081F0112309F443C00111B3CE8C2F8F713A
:1013C0001FC0D33F01F1D43FA1F780915F0382FD9D
:1013D00024C08C2F8F71112311F312C0112341F0FF
:1013E000053008F0B8CE8C2F8F710E942B0BB3CE36
:1013F000063008F0B0CEF7CF8C2F8F711111CFCF00
:101400000E94090BA8CE112329F08C2F8F710E9406
:10141000FD0AA1CE0E94F80A9ECE112331F063E0AE
:101420008C2F8F710E94910F96CE81E00E94AF0F9A
:10143000023008F490CE82E00E94AF0F8CCE0023E1
:1014400059F0D93309F009CFEFEFF7EE23E0E1507F
:10145000F0402040E1F7FFCE8C2F8F71A0CF0F938B
:101460001F93CF93DF93EC01688179818D810E9476
:101470000B0C8C010E94560B0E94CC0AB801CE01C5
:101480000E943B08DF91CF911F910F910895CF9358
:10149000DF93EC018C81882399F0CE010E94040631
:1014A000811111C00E94F40E882351F08D81882390
:1014B00039F080915F0382FF03C082E00E94AF0F8A
:1014C000DF91CF910895CE010E942F0ACE010E9494
:1014D000D505F6CF90E080E00E94EA1D90E080E024
:1014E0000E940F1E0E941B0F0E948A0F0E94C11BA8
:1014F0000E940B1B08950E94941E0E946A0A089580
:101500000E940B0F0E947B0A089592959F7096305F
:1015100091F058F4925F9F70923058F4803F19F028
:1015200030F4883E30F481E008959A5FF4CF843F30
:10153000D1F380E00895883EB0F3813FD1F7F3CF37
:10154000FC012481222339F0808191810E94000CCA
:101550000E94850A089580E00895A6E0B0E0E3EBDC
:10156000FAE00C946F272696E2E00C948B27A7E014
:10157000B0E0EDEBFAE00C946F272796E2E00C94D4
:101580008B2708950E94C10A08950E94C20A909371
:10159000CB028093CA02089508950E94C50A089557
:1015A0002091CA023091CB02822B932B0E94C50A54
:1015B00008952091CA023091CB02822393230E9486
:1015C000C50A08952091CA023091CB028227932741
:1015D0000E94C50A08950E94C10A08950E94EB0A5C
:1015E00008950E94EE0A9093C9028093C80208955C
:1015F00090E080E00E94F10A089521E030E0A90126
:1016000002C0440F551F8A95E2F7CA010E94F10AF1
:10161000089521E030E002C0220F331F8A95E2F7DF
:101620008091C8029091C902822B932B0E94F10AEB
:10163000089521E030E002C0220F331F8A95E2F7BF
:10164000209530958091C8029091C90282239323FE
:101650000E94F10A089521E030E002C0220F331FFA
:101660008A95E2F78091C8029091C9028227932758
:101670000E94F10A08952091C8023091C902822B7C
:10168000932B0E94F10A08952091C8023091C9025B
:10169000822393230E94F10A08952091C802309179
:1016A000C902822793270E94F10A08950895262FE0
:1016B000277091E001C0990F2A95EAF723E076950B
:1016C00067952A95E1F7660F771F660F771FFA0176
:1016D000E60FF71F50E040E0682F70E08191DF01D6
:1016E00011979B01042E02C0369527950A94E2F7C4
:1016F000217021952827292328272C934F5F5F4F9E
:101700004430510559F70895A82FA77023E0969506
:1017100087952A95E1F7880F991F880F991FFB017C
:10172000E80FF91F50E040E080E0219130E00A2E00
:1017300002C0369527950A94E2F721703327042ECC
:1017400001C0220F0A94EAF7822B4F5F5F4F4430AB
:10175000510559F70895262F923068F4843058F4D3
:1017600034E0939FB0011124680F711D44EC52E0E6
:10177000822F0E94570B0895923070F4843060F4E9
:1017800044E0949F9001112464EC72E0820F932F47
:10179000911D0E94840B089580E00895B0E0A0E0C0
:1017A000E4EDFBE00C9468277C010091C8021091E5
:1017B000C9028091CA029091CB02082B192BCFE06D
:1017C000D0E0CC24C394D12CBC2EC6010C2E02C078
:1017D000880F991F0A94E2F780239123892B49F4FB
:1017E000219790F7B12C8B2DCDB7DEB7E9E00C94A3
:1017F0008427B7018C2F0E94BC12019789F3F3CF85
:10180000CF93DF93EC010E94CE0BBE010E94BC126D
:10181000DF91CF9108951F93CF93DF93EB019091C8
:10182000C302992339F0CB010E94000CDF91CF91C4
:101830001F910895882369F0CB010E94CE0B182FC9
:10184000682FCE010E94AB0BBE01812F0E94BC12FB
:10185000EDCFCB010E94BC0B182FF6CF1F93CF9377
:10186000DF93C091CC0217E08091CD028C1304C0AD
:10187000DF91CF911F910895D0E01C9FF0011D9F33
:10188000F00D1124E253FD4F2081318142815381BB
:101890006481758186810E94B70A2196C770E4CF62
:1018A00020910603309107034091080350910903EA
:1018B00060910A0370910B0380910C030E94B70A98
:1018C0000895CF93DF9380910C03807F09F04DC082
:1018D00080910B03882309F448C0E091CC02509119
:1018E000CD02C0910703D091060360910803709167
:1018F000090347E05E17C9F18E2F90E0E49FF001E5
:101900001124E253FD4F2481222391F1489FF001DD
:10191000499FF00D1124DF01A253BD4F11962C9168
:1019200011972C1325C02C912D1322C015962C91A4
:10193000159721111DC012962D913C91261B370B36
:10194000283C3105A8F480910C038F70806180934E
:101950000C03EC52FD4F80818F708061808386E0A4
:1019600093E00E94470A0E942E0CDF91CF910895C8
:10197000FC013196E770BECF482F2091CC029091A8
:10198000CD0257E0291302C080E0089530E0529F55
:10199000F001539FF00D1124E253FD4F8181681334
:1019A00006C08081481303C085818111EECF2F5F6F
:1019B0003F4F2770E7CFA4E1B0E0E1EEFCE00C94EC
:1019C00065278C0186E0F801DE011F9601900D92DB
:1019D0008A95E1F7F8018481E58096E0A92E93E0ED
:1019E000B92E90910A0391111FC08823D1F0EE20E7
:1019F000A9F0C8010E94A00AF82E882379F087E098
:101A0000F801D50101900D928A95E1F7C5010E9478
:101A10000C070E94610C0E94500C5FC0C8010E941C
:101A2000470AFF24F39459C0C080D18082809380FC
:101A3000F0900B032091080330910903A401421B8D
:101A4000530BFF2009F4F9C0483C510508F0A7C02A
:101A5000882309F442C09091070380910C03282F3A
:101A6000207F09F05CC09D1116C090910603C91239
:101A700012C0E1104EC08F70806180930C030E94F1
:101A8000500C86E093E00E94470A80910C03F80115
:101A90008683F12C22C0E1103CC06D2D8C2D0E945C
:101AA000BC0C6D2D8C2D0E94BC0CE82E8111F1CF49
:101AB000CF86D88A8F8598890E94000C292F22957D
:101AC0002F70243078F49F702230A8F09923B9F059
:101AD000F8019681907F99F4FE2C8F2D6496ECE0AE
:101AE0000C9481272A5F2F70223068F0C8010E9471
:101AF000470AEF2CF1CF992311F0882369F3805E18
:101B0000883050F3F3CF803F38F3815F833070F734
:101B1000E3CF80910C03816080930C03BACF9D11B9
:101B200013C090910603C9120FC0E1100DC0868347
:101B3000C8010E94470A87E0F801A6E0B3E00190DF
:101B40000D928A95E1F767CFC8010E94A00A882309
:101B500009F464CFEE2009F461CF80910C03803248
:101B600088F02091060330910703398728879B86E8
:101B70008A8690910A039C871D868E87CE010896DF
:101B80000E94470A87E0F801A6E0B3E001900D92B9
:101B90008A95E1F70E94610C0E94500C42CF90910F
:101BA0000C03292F207FA1F4682D9A8A898AA60127
:101BB0007A899E2D0E94AD0A86E093E00E94470A32
:101BC00087E0F50111928A95E9F70E94500C61CFE8
:101BD000882309F482CF809107038D1110C0809172
:101BE0000603C8120CC0E1100AC09683C8010E9407
:101BF000470A87E0F50111928A95E9F76ECFC8018F
:101C00000E94A00A882309F409CFEE2009F406CF28
:101C100080910C03803208F4B5CF209106033091F7
:101C200007033A8329839C828B8290910A039D83C8
:101C30001E828F83CE010196A3CF483C5105B8F593
:101C4000882309F4EECEFE2CEE2009F4E7CE809135
:101C500007038D111EC080910603C8121AC080911F
:101C60000C0380FD0DC0982F907F51F08683903F2C
:101C700009F45ECF982F907F905F8F70892B57CF9C
:101C800087E0F801A6E0B3E001900D928A95E1F7B4
:101C900024CFC8010E94A00A811174CF80910C0347
:101CA000816080930C03C8010E94470A16CF682DFB
:101CB0009A8A898AA6017A899E2D0E94AD0A87E0B8
:101CC000F50111928A95E9F7A6CEAEE0B0E0EBE619
:101CD000FEE00C946E27288739874A875B876C87DC
:101CE0007D878E87CE0108960E94DB0C8823B1F099
:101CF0006C85662341F0288539854A855B857D851D
:101D00008E850E94B70A17E08091CC029091CD0297
:101D100089133DC02E96E3E00C948A2787E0FE01EC
:101D20003896DE01119601900D928A95E1F78C8527
:101D3000882349F32091CD0230E0C90101968770D4
:101D400099274091CC024817190699F097E0929F85
:101D5000D001939FB00D1124A253BD4FFE013196C7
:101D600001900D929A95E1F78093CD020E942E0C7E
:101D7000CACF0E94800A1092CD021092CC0287E056
:101D8000E6E0F3E0DF011D928A95E9F7BCCF819F81
:101D9000C001112482539D4F0E94DB0C882309F45B
:101DA000B9CFE091CC021E9FF0011124E253FD4F08
:101DB00020813181428153816481758186810E94B5
:101DC000B70A8091CC0290E00196877099278093A2
:101DD000CC029ACF809115038695869586950895B5
:101DE000809115038770089590911503977081E095
:101DF00009F480E0089580912103089590912103D2
:101E0000892B809321030895809590912103982335
:101E10009093210308951092210308959091200337
:101E2000892B809320030895809590912003982317
:101E300090932003089510922003089508950E941E
:101E40001E0F089590911603292F282331F08095B5
:101E50008923809316030E941F0F089508950E94FE
:101E60002E0F089590911703292F2823281729F062
:101E7000982B909317030E942F0F089590911703AA
:101E8000292F282331F080958923809317030E94FE
:101E90002F0F089580911703882329F010921703BC
:101EA00080E00E942F0F08950F931F93CF93DF932D
:101EB0000091000110910101C09121038091200344
:101EC000C82B80911703882331F0C82B0E94341E41
:101ED00081110E944A0FF801C083C0910001D09186
:101EE000010148E050E06DE073E0CE010E94AA27B6
:101EF000892B59F088E0FE01ADE0B3E001900D922E
:101F00008A95E1F7CE010E948E1DDF91CF911F913E
:101F10000F9108950E94540F089508950E948D0F07
:101F2000089590915F0392FF11C098E0899F9001FE
:101F30001124622B609315030E94090B80911503F5
:101F40008695869586950E948E0F08950E94090BAE
:101F500008951092150380E00E948E0F08959091CD
:101F600015038095892380931503282F277069F422
:101F7000891759F090915F0392FF07C08695869567
:101F800086950E94190B0E94A90F0895CF93C82F20
:101F900080915F0382FB992790F99C17E9F0C0FBC1
:101FA00082F980935F0380915E0390915F030E94AA
:101FB000211082E00E94AF0F80912E0380FF0CC0A1
:101FC0001F92CF938FE091E09F938F930E945705CC
:101FD0000F900F900F900F90CF91089580915F0315
:101FE00082FB882780F991E089270E94C60F089517
:101FF00081E00E94C60F089580E00E94C60F0895F8
:102000006FEF7FEF90E080E00E94FC27089590E062
:1020100080E00E94C82721E0853E9E4F09F020E025
:10202000822F089582E090E00E94C027089583E007
:1020300090E00E94C027089584E090E00E94C827A5
:102040000895BC0184E090E00E94FC270895AB0154
:10205000BC018FE090E00E94F0270895AB01BC0125
:1020600083E190E00E94F027089560E070E0CB01EA
:102070000E942E10089560E070E0CB010E942710AE
:102080000E9435100895A8E0B0E0E9E4F0E10C9476
:102090006F2765EE7EEF90E080E00E94FC2760E015
:1020A00082E090E00E94DE2781E090E09093CB02F6
:1020B0008093CA0261E083E090E00E94DE2760E046
:1020C00074E184E090E00E94FC2760E086E090E00C
:1020D0000E94DE2760E087E090E00E94DE2740E07B
:1020E00050E0BA0188E090E00E94F02760E083E2CF
:1020F00090E00E94DE2760E08CE090E00E94DE2706
:1021000060E08DE090E00E94DE2719821A821B8237
:102110001C821D821E821F82188648E050E067E103
:1021200070E0CE0101960E94CE2740E050E0BA0157
:102130008FE190E00E94F0270E943B102896E2E099
:102140000C948B270E9443100895682F8EE090E036
:102150000E94DE270895A6E0B0E0E1EBF0E10C94E8
:102160006D270E94721F8C0180912203909123039E
:102170008017910781F019821A820E94721F682FBE
:1021800049815A81792F80E090E00E94DC0610930B
:102190002303009322032696E4E00C9489270E94EF
:1021A0007E1F60932A0370932B0380932C039093DC
:1021B0002D03609326037093270380932803909345
:1021C00029030895089508950E94E210089508953E
:1021D0000E94E710089589E891E20E943C150E9450
:1021E000E3100E94E410089581E008950E94F41025
:1021F00008950E94F4100895089508950E94FC1017
:102200000E94FD1008950E940710811102C00E94D3
:10221000A2100E94121080932E030E941C10909313
:102220005F0380935E030E94171090E00E94CD0A26
:102230008091C8029091C9020E94EE0A08950E94FE
:10224000691F0E94A0140E9403110E94A5060E940B
:10225000E8100895A6E0B0E0E0E3F1E10C94662711
:102260000E94F61081110AC00E94AB100E94E31B6D
:102270000E94B2062696EBE00C9482270E94B014CE
:102280001091240380E00E94BA13181307C0109124
:10229000250381E00E94BA13181731F380912E03B1
:1022A00081FD0E94C0130E94F910C82E84E2A82E5E
:1022B00083E0B82E10E099249394812F0E94BA13E2
:1022C000082FF50181915F01081729F1F12CEE2407
:1022D000E394D02ED8268D2D8E21A9F0CC2099F014
:1022E000F9821A830E94721F9C838B839D8291E0E6
:1022F000802F8E2109F490E049815A816B817C8185
:102300008D810E94DC06F394EE0CF4E0FF12E3CF23
:10231000F50131970083113019F40E94CF10A6CF38
:1023200011E0CBCF1F93CF93DF930E94C112EC013A
:10233000C11580E5D807F0F5C11580E4D80708F08D
:102340009CC0C03ED10520F5CD3CD10508F082C02F
:10235000C83AD10578F4C53AD10508F073C0C13048
:10236000D10519F1209709F1C430D105F0F4D0E07E
:10237000C0E01BC0C33CD105D0F7C85AD0E0CC0F99
:10238000DD1FC25BDE4F0990D881C02DD4640DC023
:10239000C11580E2D80708F0D1C0C11581E0D80787
:1023A00008F05AC0C83ED10510F7CE01DF91CF9199
:1023B0001F910895C03682E5D80718F5C03482E52C
:1023C000D80708F06BC0C03282E5D80708F05FC0BC
:1023D000C11582E5D80708F497C02C2F26952695BD
:1023E00080E2289F900111248C2F8370C1E0D0E0FF
:1023F00002C0CC0FDD1F8A95E2F7C22BD32BDD681C
:10240000D4CFC03A82E5D80760F4C03882E5D80757
:1024100008F459C0CF71D0E0DC2FCC27C46FD06A4C
:10242000C4CFC03C82E5D80708F462C0C03E82E554
:10243000D80708F09CCFDC2FCC27CC27DF71C06FEA
:10244000D06AB3CFC55AD0E0CC57DE4FC881D0E0B8
:10245000D064ABCFD065A9CF8D2F0E946313182F06
:10246000CE0199270E94C112C12FD0E0DC2FCC27CA
:10247000CC27DF71C82BD92B98CFCE0199270E948A
:10248000C112CC27DF70C82BD92BD06A8ECFCF7169
:10249000D0E0DC2FCC27C16FD06A87CF2C2F2695B8
:1024A0002695277080E2289F900111248C2F83703D
:1024B000C1E0D0E002C0CC0FDD1F8A95E2F7C22B4D
:1024C000D32BDC6872CF2C2F26952695277080E2BF
:1024D000289F900111248C2F8370C1E0D0E002C0AE
:1024E000CC0FDD1F8A95E2F7C22BD32BDA685DCFC4
:1024F0008C2F8F710E946313C82FD0E0DC2FCC2764
:10250000CC27DF71D06251CF8C2F8F710E94631363
:1025100055E0D695C7955A95E1F7CF70D0E0DC2FFE
:10252000CC27282F30E084FF05C044E0220F331F62
:102530004A95E1F7C22BD32BD06937CF8D2F8F71FE
:102540000E946313182FCE0199270E94C112C12F38
:10255000D0E0DC2FCC27CC27DF71C82BD92BD2CFF2
:10256000462F723030F4643020F4672F0E947C05CF
:10257000089590E080E008950E94B0120E949211A8
:10258000089582389105B9F1B0F48133910509F4C9
:102590007DC048F48932910509F46DC08A329105F5
:1025A00009F47BC008958533910509F45FC0893330
:1025B000910509F10895833E9105D9F138F4803EE3
:1025C000910529F1823E910579F10895863E9105A4
:1025D000D9F1873E910509F43EC0843E910541F54D
:1025E00020915F0321FF24C080915E0384FD19C008
:1025F00087EE90E0089520915E03237009F05AC0A1
:1026000020915F0323FF14C089E290E00895209198
:102610005E0320FD38C030915F0330FF09C024FF06
:1026200043C090E080E0089520915E0322FDF7CF43
:10263000089520915E0322FD3AC030915F0330FD82
:1026400039C024FFF5CFEDCF20915E0323FFF0CFFB
:1026500024FDE7CFCDCF20915E0323FD2EC0309126
:102660005F0331FFEECF84EE90E0089520915E038A
:1026700025FFDECFC9CF20915E0325FD21C020912B
:102680005F0323FFD5CF89E390E0D2CF20915E0393
:1026900026FFCECF8AE290E0089520915E0326FFC8
:1026A000C7CF81E390E0089583EE90E0089582EE35
:1026B00090E0089580EE90E0089586EE90E0089511
:1026C00085E390E0089590915E0392FF10C041E091
:1026D000282F2471243009F040E031E0282F2871A0
:1026E000283009F030E0431711F02CE0822793FFE7
:1026F00010C041E0282F2471243109F040E031E07E
:10270000282F2871283109F030E0431711F02CE010
:10271000822730915F0330FF10C051E0282F2171D4
:10272000213009F050E041E0282F2871283009F0CD
:1027300040E0541711F029E0822731FF10C041E03A
:10274000282F2171213109F040E031E0282F287134
:10275000283109F030E0431711F029E0822794FD79
:10276000877E089508950E94B213089508950E94E7
:10277000B6130895E82FF0E0EE59FC4F80810895DC
:10278000B0E0A0E0E6ECF3E10C94672783E391E08E
:102790009F938F930E9457051F921F928EE2C82E1F
:1027A00081E0D82EDF92CF920E9457059BE2E92E5E
:1027B00091E0F92EFF92EF920E94570522E6A22E99
:1027C00023E0B22EF50180810E947B061F928F9339
:1027D00006E211E01F930F930E945705C4E2D1E077
:1027E000DF93CF930E9457051F9281E08F93DF9272
:1027F000CF920E945705FF92EF920E945705F50174
:1028000081810E947B061F928F931F930F930E94DA
:102810005705DF93CF930E945705EDB7FEB77A9621
:102820000FB6F894FEBF0FBEEDBFCDB7DEB7EAE03E
:102830000C94832780EA8A95F1F7089500C00895E3
:102840000E941A140895F894E82FE295EF70F0E0D2
:1028500031A1282F2F7081E090E001C0880F2A95C8
:10286000EAF7982F9095932391A392A1892B82A3A5
:102870007894089587E90E94231486EC0E9423141B
:1028800084E30E94231485E30E94231482E30E94C0
:10289000231486E30E9423140895B0E0A0E0E3E54A
:1028A000F4E10C946A278C01D62FC42F862F90E078
:1028B0009C0129573E4F7901F90120812F3F91F169
:1028C000F894E22FE295EF70F0E031A12F7081E0F3
:1028D00090E001C0880F2A95EAF7932F982B91A3D7
:1028E00092A18095892382A378940E941E14F801F6
:1028F00080811A9B1CC09C2F909589238083D12CAA
:10290000F80181811E9918C0C82BC183DD24D3949E
:10291000F70180818F3F11F00E9423146D2D8D2FC0
:102920000E942014CDB7DEB7E7E00C9486278C2BED
:102930008083DD24D394E4CFC095C823C183E8CF3E
:102940000E943A1410926303109262031092610382
:102950001092600382E00E94E8140E94B31308956D
:10296000A2E0B0E0E6EBF4E10C946D271A82198244
:1029700010E001E0402F612FCE0101960E944D141E
:102980001F5F000F1430B1F742E050E0BE016F5FEF
:102990007F4F80E693E00E94AA2721E0009709F488
:1029A00020E0892B31F089819A8190936103809393
:1029B000600342E062E673E080E693E00E94E9147F
:1029C000182F0E94B713812F2296E4E00C948927D8
:1029D0000895B0E0A0E0EFEEF4E10C9469276C01FB
:1029E0007B01042FC22F222379F081E080933103F1
:1029F0000E94721F9093300380932F0380E0CDB725
:102A0000DEB7E8E00C948527D0913103DD23B1F3E4
:102A100080912F03909130030E948A1F059770F3D5
:102A200010E0A801B601C7010E94AA27892B31F046
:102A3000A801B601C7010E94B727CD2F109231031C
:102A40008C2FDDCF0E942A1108950E940B1F0E9437
:102A5000EB210E94EB100E9405220E941F110E9490
:102A600012220E9417220E9422150E943D220E94DB
:102A700023200E94FE10F5CF9093BD028093BC02EC
:102A80000895809102011F928F93809103011F92FC
:102A90008F93809106011F928F93809107011F925F
:102AA0008F93809108011F928F93809109011F924B
:102AB0008F9382E491E09F938F930E9457058DB787
:102AC0009EB70E960FB6F8949EBF0FBE8DBF0895A9
:102AD000883248F58E3108F07FC08B3069F130F4D0
:102AE000873009F4E0C081EA92E0F1C0833109F453
:102AF00068C08431C1F783EC92E09F938F930E946A
:102B000057050F900F9080913603882309F411C167
:102B1000109236031092350310923403109233034F
:102B20001092320325C08F3409F4D6C008F03FC09C
:102B3000893209F38833B9F686EC92E09F938F933C
:102B40000E9457050E9441151F9281E08F931F92AA
:102B500088E08F938FEB91E09F938F930E945705AE
:102B60008DB79EB708960FB6F8949EBF0FBE8DBF67
:102B700020913603222309F4D3C08091320390912F
:102B80003303009711F48BE891E09F938F931F928A
:102B90002F938FE892E09F938F930E9457050F9099
:102BA0000F900F900F900F900F9081E00895813556
:102BB00009F4A6C008F4A6C0823509F094CF81E0DC
:102BC0008CC085EB92E09F938F930E9457050E94E3
:102BD00041150F900F90CCCF8D51809336038330E9
:102BE00009F446C078F48130E1F08230C1F11092EE
:102BF000360382EB92E09F938F930E9457050F90CC
:102C00000F901BC0853009F445C0D8F1863079F7A4
:102C100082E091E0909335038093340383ED91E05B
:102C200008C089E091E090933503809334038FE8E6
:102C300091E090933303809332038091360388238D
:102C400009F496CF1F928F938EEA92E09F938F9311
:102C50000E9457050F900F900F900F9089CF88E03A
:102C600091E0909335038093340388E991E0E1CFBC
:102C700087E091E0909335038093340384EA91E0F8
:102C8000D8CF86E091E0909335038093340381EBB5
:102C900091E0CFCF83E091E09093350380933403AC
:102CA00080EC91E0C6CF81E08093090184E18093BC
:102CB00008018AE0809307018EE18093060188E095
:102CC0008093030188E28093020184EA92E09F935B
:102CD0008F930E9457057DCF8AE0E0913403F091F5
:102CE00035033097D1F02081082E000C990B820F0C
:102CF000911D8F3F910541F03CF08FEF808307C01D
:102D00008FEFEBCF86EFE9CF97FFF8CF108280816E
:102D10001F928F938BE992E099CF88E992E0D7CF09
:102D20008BE892E09F938F930E9457050F900F902E
:102D30003CCF80E00895CF93C82F1F928F938CEDE6
:102D400092E09F938F930E94570581E090E002C02C
:102D5000880F991FCA95E2F70E94CD0A0E94800A47
:102D60000F900F900F900F90CF910895EF92FF92D8
:102D70000F931F93CF93DF938B3109F426C108F093
:102D8000B4C08B3009F4D2C008F086C0863009F494
:102D9000E6C068F4853009F4B6C081E896E09F93F8
:102DA0008F930E9457050F900F9080E0F0C08730FE
:102DB00009F4F2C0883089F70E9417101F928F9390
:102DC00084E696E09F938F930E9457050E9412100D
:102DD00083FB992790F91F929F9382FB992790F983
:102DE0001F929F9381FB992790F91F929F93982F91
:102DF00091701F929F931F928F938BE196E09F9308
:102E00008F930E9457050E941C1093FB222720F9E4
:102E10001F922F9387FB222720F91F922F9386FB67
:102E2000222720F91F922F9385FB222720F91F923A
:102E30002F9384FB222720F91F922F9383FB2227B5
:102E400020F91F922F9382FB222720F91F922F93A4
:102E500091FB222720F91F922F93292F21701F9277
:102E60002F9381FB222720F91F922F93282F217067
:102E70001F922F939F938F938CE195E09F938F9355
:102E80000E9457058DB79EB78A960FB6F8949EBFDD
:102E90000FBE8DBF81E07BC0803109F4B0C080F4EB
:102EA0008E3009F07ACF90912E03892F8B7F92FF7D
:102EB000846080932E0382FF9FC08CEA96E091C0CD
:102EC000863109F4ACC0893109F067CF88EE91E012
:102ED0009F938F938CE493E09F938F930E94570569
:102EE0000F900F900F900F90D5CF8A3269F1A0F418
:102EF000873231F128F48E3108F44FCF8D5121C043
:102F0000893209F04ACF8FEE96E09F938F930E940B
:102F100057050E94F80520C0833478F48A3308F0FE
:102F2000A3C0853369F0883309F037CF86E793E093
:102F30009F938F930E9457050FC0833409F02DCFC4
:102F400080E00E949B16A6CF8FE097E09F938F931F
:102F50000E9457050E94A2100F900F909BCF809166
:102F60002E03807F80932E038FE493E09F938F93B3
:102F70000E9457058BE097E09F938F930E9457051F
:102F800081E0809337030F900F900F900F90CDB793
:102F9000DEB7E6E00C94872790912E03892F8E7F71
:102FA00090FF816080932E0380FF03C083EE96E044
:102FB000BFCF86ED96E09F938F930E945705809137
:102FC0002E03817F80932E03C7CF90912E03892FEC
:102FD0008D7F91FF826080932E0381FF0AC089EC70
:102FE00096E09F938F930E94570580912E038160F6
:102FF000E9CF8BEB96E09CCF8CE996E099CF90914E
:103000002E03892F877F93FF886080932E0383FF91
:1030100003C080E996E0E5CF83E896E089CF0E947F
:103020007E1F162F072FF82EE92ED0915D03C09139
:1030300014010E947E1DEF92FF920F931F931F9227
:10304000DF931F92CF931F928F9381EE92E09F9315
:103050008F930E9457058DB79EB70C960FB6F894C4
:103060009EBF0FBE8DBF16CF89536BCF80E00895F2
:103070000E9436180895CF93C82F8091370381306E
:10308000C1F0882339F0823009F450C01092370320
:1030900080E00DC00E94FB0E8232D1F78C2F0E947F
:1030A000361881111FC08C2F0E94B6168170CF91E7
:1030B00008950E94FB0E823289F38C2F0E943818EB
:1030C000811127C0C43139F180F4CB3091F0C03187
:1030D00031F186ED92E09F938F930E9457050F90F8
:1030E0000F901BC081E090E0E1CFC932A1F0C8335E
:1030F00081F78FE493E09F938F930E94570588EDAB
:1031000092E09F938F930E9457050F900F900F901E
:103110000F9081E0CBCF1092370380E0C7CF82E0E1
:103120008093370388E30E946815F3CF8C2F0E94A9
:10313000681581E0BCCFCF93DF93EB0186319C47CC
:1031400011F50E94FB0E9D81992399F08A7A91E0F6
:1031500009F490E090933803811109C089E20E943C
:10316000841E0E948A0F80E0DF91CF91089585E34D
:10317000F6CF80913803811104C089E20E948C1E31
:10318000F0CF85E3FBCF81E0EFCFCF93DF93EC016E
:10319000FB018581882309F4D2C09E013057233278
:1031A000310508F0B2C00E941C1090935F03809319
:1031B0005E03FE01E150F047E232F10520F4E05EEB
:1031C000F74D0C94592780915E03816080935E03D4
:1031D00093C080915F03886080935F038DC080916E
:1031E0005E038260F3CF80915E038460EFCF8091B5
:1031F0005E038860EBCF80915F038160EDCF8091AB
:103200005F038260E9CF80915E038061DFCF8091B0
:103210005E038062DBCF80915E038064D7CF0E9423
:10322000800A80915E038068D1CF80915E038C60BC
:10323000CDCF80915F038360CFCF80915E038E7F7F
:10324000C5CF80915F03877FC7CF80915E038D7F5D
:10325000BDCF80915E038B7FB9CF80915E03877F66
:10326000B5CF80915F038E7FB7CF80915F038D7F55
:10327000B3CF80915E038F7EA9CF80915E038F7D57
:10328000A5CF80915E038F7BA1CF0E94800A8091A1
:103290005E038F779BCF80915E03837F97CF809172
:1032A0005F038C7F99CF80915E0382FB992790F911
:1032B00021E0922790FB82F990FB83F987CF8091E0
:1032C0005F03982F909591708E7F892B90FB81F9E9
:1032D00083CF90915E03892F8F7B96FF806476CF9A
:1032E0000E94800A90915E03892F97FB87F980588E
:1032F0006DCF81E00E94A51080915E0390915F03E5
:103300000E9421100E94800A80E0DF91CF910895F1
:1033100080E0F0CF90915E03892F8F7E94FF8061D3
:1033200055CF90915E03892F8E7F90FF81604ECFA5
:1033300090915F03892F877F93FF88604DCF81E055
:10334000E4CF282F35EB2303C001112497FF04C0DD
:1033500080589109892F089580589F4FFBCF809105
:103360003F0380FF0DC06091070170E0660F771F7B
:103370006038710570F56115710569F1862F089542
:1033800081FF07C06091070184E0689FB0011124AC
:10339000EFCF6091070182FD0AC080913E03882330
:1033A000A9F02091060160910701821710F088E0D2
:1033B000ECCF869FC001112433E0880F991F3A9506
:1033C000E1F7622F70E00E944527D2CF68E070E0FD
:1033D000D5CF8FE7089581E0089580913F0380FF66
:1033E0000CC06091030170E07595679575956795C0
:1033F0006115710549F1862F089581FF06C060911E
:10340000030170E075956795F3CF6091030182FD2C
:103410000BC090913D039923A1F06091020180912E
:103420000301961738F0682F70E06038710500F3DB
:103430008FE70895899FC001112470E00E944527FD
:10344000F4CF61E070E0D7CF81E00895909142031E
:1034500020914303922B20914503922B209144030A
:10346000922B31F098E090933E0391E090933D03CE
:103470008D3C31F40E94AF198195809343030895E8
:103480008E3C19F40E94AF19F8CF8F3C31F40E94A2
:10349000AF198195809342030895803D19F40E94ED
:1034A000AF19F8CF893D29F40E94ED1980934403A8
:1034B00008958A3D21F40E94ED198195F7CF8B3D47
:1034C00031F40E94ED1981958093450308958C3D58
:1034D00019F40E94ED19F8CF9FE2980F983070F41C
:1034E000815D990B21E030E001C0220F8A95EAF757
:1034F00080914103822B8093410308958D3D31F4E7
:1035000080913F03816080933F0308958E3D21F4B5
:1035100080913F038260F7CF8F3DB9F780913F03E1
:103520008460F1CF409142038D3C59F48091430374
:1035300087FF0DC01092430341110BC010923E0350
:1035400008C08E3C81F48091430318169CF34423F9
:1035500081F08091440390914503892B09F05AC072
:1035600010923D0308958F3C49F447FFF0CF10922D
:103570004203809143038111ECCFE0CF803D19F4E9
:103580001416ACF3E4CF90914403893D29F4191645
:10359000F4F610924403DBCF8A3D19F497FFD7CF9E
:1035A000F8CF909145038B3D29F497FFD0CF10922F
:1035B0004503CDCF8C3D19F41916CCF3C8CF9FE24B
:1035C000980F983090F4815D990B21E030E0B901BB
:1035D00002C0660F771F8A95E2F7CB018095909124
:1035E0004103892380934103B2CF8D3D31F4809113
:1035F0003F038E7F80933F03AACF8E3D21F48091BD
:103600003F038D7FF7CF8F3D09F0A1CF80913F031E
:103610008B7FF0CF089580912E0383FF96C087E4BF
:1036200097E09F938F930E945705809141031F92CB
:103630008F9382E497E09F938F930E94570580E4D5
:1036400097E09F938F930E94570580914203282F04
:10365000082E000C330B3F938F938DE397E09F93DD
:103660008F930E9457058BE397E09F938F930E945F
:10367000570580914303282F082E000C330B3F93EE
:103680008F9388E397E09F938F930E94570586E37B
:1036900097E09F938F930E94570580914403282FB2
:1036A000082E000C330B3F938F9383E397E09F9397
:1036B0008F930E94570581E397E09F938F930E9419
:1036C000570580914503282F082E000C330B3F939C
:1036D0008F938EE297E09F938F930E9457058BE222
:1036E00097E09F938F930E9457058DB79EB7809662
:1036F0000FB6F8949EBF0FBE8DBF80913E031F9200
:103700008F9388E297E09F938F930E94570586E2FC
:1037100097E09F938F930E94570580913F031F92DC
:103720008F9383E297E09F938F930E94570580E2E7
:1037300097E09F938F930E9457058DB79EB70C9685
:103740000FB6F8949EBF0FBE8DBF0E94721F9C01E2
:103750009091420380914303982B21F030933C03D6
:1037600020933B039091440380914503982B21F0D3
:1037700030933A032093390380E493E00E94DC1DE8
:10378000089586E0E0E4F3E0DF011D928A95E9F711
:1037900010923E0310923D0310923F030895FC01E6
:1037A000828181110EC0838181110BC084818111BE
:1037B00008C091E08581811101C090E0892F81705E
:1037C000089581E0FCCFA6E0B0E0E9EEFBE10C94C7
:1037D0006E2786E0E0E4F3E0DE01119601900D92A1
:1037E0008A95E1F71092420310924303109244032A
:1037F000109245038B819C81892B89F080913B033A
:1038000090913C030E948A1FAC0190913E03992342
:10381000C9F1809108018417150608F440C08D8114
:103820009E81892B91F08091390390913A030E94F7
:103830008A1FAC0190913D03992309F46AC08091DD
:1038400004018417150608F472C0BE016F5F7F4F34
:1038500080E493E00E949F1E811105C080E493E004
:103860000E94CF1B81110E940B1B86E0FE01319646
:10387000A0E4B3E001900D928A95E1F72696E3E08B
:103880000C948A27209109018AE0289F9001112435
:103890002417350720F69F5F90933E0302C09F3F99
:1038A000D1F71B81112359F00E94AF199FEF111618
:1038B0000CF491E0899F802D1124809342031C8198
:1038C000112359F00E94AF199FEF11160CF491E0EB
:1038D000899F802D11248093430380914203882384
:1038E00009F49DCF10914303112309F498CF0E944E
:1038F000A119882351F080934203812F0E94A119BE
:10390000882329F0809343038ACF81E0F4CF81E0BC
:10391000F9CF209105018AE0289F900111242417F6
:10392000350708F092CF9F5F90933D0302C09F3F01
:10393000D1F71D81112359F00E94ED199FEF111647
:103940000CF491E0899F802D1124809344031E8103
:10395000112359F00E94ED199FEF11160CF491E01C
:10396000899F802D112480934503809144038823EF
:1039700009F46BCF10914503112309F466CF0E941F
:10398000A119882351F080934403812F0E94A1192B
:10399000882329F08093450358CF81E0F4CF81E05C
:1039A000F9CF0F931F93CF93DF93C42FD22FFC0136
:1039B00085818823C9F0409348030E94721F909329
:1039C00047038093460380E28C0F883040F4C77031
:1039D00081E001C0880FCA95EAF70E942D08DF91A7
:1039E000CF911F910F91089510914803141332C085
:1039F00080914603909147030E948A1F883C91055D
:103A000048F5C0E2CD0F1D17B9F080E2810F883074
:103A100040F4177081E001C0880F1A95EAF70E9400
:103A20003408C83048F481E09D2F977001C0880F9A
:103A30009A95EAF70E942D08802F0E942408C8302A
:103A400070F6D77081E001C0880FDA95EAF70E941E
:103A50003408C5CF80E28C0F883008F6C77081E04B
:103A600001C0880FCA95EAF7F2CF0F93DB018851A6
:103A70009C4787309105A0F5FC01EE5BF74D0C9457
:103A8000592706E221EE41EE6AE17CE7CD010E9472
:103A9000D11C80E00F91089507E225EE45EE6BE121
:103AA0007CE7F4CF06E221EE40EE68E17CE7EECF62
:103AB00007E225EE44EE69E17CE7E8CF06E221EE7D
:103AC00042EE6CE17CE7E2CF07E225EE46EE6DE1E7
:103AD0007CE7DCCF08E221E045EE6EE17CE7D6CF63
:103AE00015968C91882319F010924803D3CF81E06A
:103AF000D1CF90934E0380934D030895E0914D03F1
:103B0000F0914E03309729F00190F081E02D099556
:103B1000089580E008950E947E1D0895EF92FF921F
:103B20000F931F93CF93DF93EC01E0914D03F0913E
:103B30004E033097E1F10280F381E02D09958091E9
:103B40002E0382FF34C080FF0DC088811F928F93A7
:103B500082E797E09F938F930E9457050F900F90F5
:103B60000F900F907E0186E0E80EF11C0CE617E046
:103B700080912E0380FF0BC08A811F928F931F9329
:103B80000F930E9457050F900F900F900F90219662
:103B9000CE15DF0569F780912E0380FF08C08AE605
:103BA00097E09F938F930E9457050F900F90CDB78A
:103BB000DEB7E6E00C948727E0914D03F0914E03C9
:103BC000309739F022E0DC012C930680F781E02D5C
:103BD00009950895A3E0B0E0E0EFFDE10C946F27B4
:103BE00020914B0330914C0328173907A1F0909393
:103BF0004C0380934B03E0914D03F0914E033097BB
:103C000051F023E029839B838A830084F185E02D92
:103C1000CE01019609952396E2E00C948B27A3E050
:103C2000B0E0E5E1FEE10C946F272091490330916B
:103C30004A0328173907A1F090934A038093490358
:103C4000E0914D03F0914E03309751F024E0298329
:103C50009B838A830084F185E02DCE01019609952E
:103C60002396E2E00C948B274091000150910101D2
:103C70009A012E5F3F4F485F5F4F80E02417350762
:103C800009F40895F90191919F019923B9F38F5F88
:103C9000F5CF882371F02091000130910101F901E5
:103CA0003296285F3F4F9191981729F0E217F3075A
:103CB000D1F780E0089581E008959C01FC013296DF
:103CC0009FEF80E04191461751F09F3F19F4411159
:103CD00001C0982F8F5F8630A9F79F3F09F40895A0
:103CE000290F311D97FD3A95F90162830895FC0172
:103CF000329608962191261303C0DF0111971C927A
:103D0000E817F907B9F70895682F8091000190919D
:103D100001010E945D1E0895682F8091000190911D
:103D200001010E94771E0895E0910001F0910101C8
:103D3000329686E0DF011D928A95E9F70895DC014D
:103D4000FB0111969C9111978181981322C01296C4
:103D50008C911297882319F0928189131AC01396B7
:103D60008C911397882319F09381891312C01596AB
:103D70008C911597882319F0958189130AC01496A0
:103D80009C91992321F081E02481291303C080E0D4
:103D900001C081E08170089508950E94CC1E0895AD
:103DA000811106C081E080934F030E94CD1E0895CB
:103DB00082E0F9CF83E080934F030E94CD1E0895E7
:103DC0000E94D01E089581E080934F030E94CD1E73
:103DD00008950E94E31E0895089508950E94ED1E1F
:103DE0000895089508950E94EC1E08950E94F11E02
:103DF0000E94B0140E94F21E80E00E94BA1391E06B
:103E0000811107C081E00E94BA1391E0811101C0C5
:103E100090E0892F089585B7806885BF85B7806851
:103E200085BF08951F921FB61F9211248F939F93F1
:103E3000AF93BF9380915003811113C080916403AD
:103E400090916503A0916603B09167034196A11D0F
:103E5000B11D8093640390936503A0936603B093B0
:103E60006703BF91AF919F918F911F901FBE1F90CD
:103E7000189580916C03843031F10E947106109284
:103E8000500388E190E020E40FB6F894A895809361
:103E900060000FBE2093600083B7817F846083BF82
:103EA00083B7816083BF7894889583B78E7F83BF03
:103EB0000FB6F894A89580916000886180936000A7
:103EC000109260000FBE08950E94800A0E9476063C
:103ED000089582E084BD93E095BD9AEF97BD8093ED
:103EE0006E0008952FB7F894809164039091650354
:103EF000A0916603B09167032FBF08952FB7F89480
:103F000060916403709165038091660390916703EB
:103F10002FBF08959C014FB7F8948091640390914E
:103F20006503A0916603B09167034FBF821B930B9B
:103F3000089578941F921FB61F9211248F939F9318
:103F4000AF93BF938091640390916503A091660342
:103F5000B09167030196A11DB11D809364039093F6
:103F60006503A0936603B0936703BF91AF919F91E0
:103F70008F911F901FBE1F90189587E797E790932A
:103F800001088093000888E19AE00FB6F894A8959C
:103F9000809360000FBE90936000FFCF88E19AE0AD
:103FA0000FB6F894A895809360000FBE90936000C0
:103FB000FFCF80915C03089508959B01BA01909111
:103FC0006C039430E9F48F708093E9009FEF809147
:103FD000E800915085FD06C085ED8A95F1F7000057
:103FE0009111F5CF8091E80085FF0AC050E040E0D4
:103FF000C9010E94B3228091E8008E778093E80087
:10400000089543E050E0BC0182E00E94DD1F089566
:1040100046E050E0BC0182E00E94DD1F0895CF938E
:10402000DF93EC0148E050E0BC0181E00E94DD1F1D
:1040300088E0FE01A4E5B3E001900D928A95E1F7D6
:10404000DF91CF910895089581EB97E09F938F932F
:104050000E94570580916B030F900F90811109C04A
:104060000E9443240E94A0248091E20084608093F7
:10407000E20008958DEA97E09F938F930E94570581
:1040800010926B030F900F90089589EA97E09F9329
:104090008F930E9457050E94E31E0F900F90089582
:1040A00085EA97E09F938F930E945705609168037C
:1040B00081E0611101C080E00E94DA1E0F900F9034
:1040C000089581EA97E09F938F930E9457059091FE
:1040D0006C0381E0943009F080E0609168030E94F5
:1040E000E01E0F900F900895209152032F5F822FB2
:1040F00062E30E943927992319F02093520308950F
:1041000010925203809153038823F1F080916C0345
:104110008430C1F49091E9009F702091EC00822FCF
:10412000817020FD80E8892B93E09093E9009091C5
:10413000EB0090FF04C09091EE0097FD08C08F70D7
:104140008093E9001092530308951092F10090912A
:10415000E80095FDFACF9091E80090FFF0CF9091A4
:10416000E8009E779093E800EACF42E061EC81E0BE
:104170000E94BF2342E261EC82E00E94BF2342E240
:1041800061EC83E00E94BF2390916C0381E0943046
:1041900009F080E0609168030E94D01E089580912C
:1041A0006E03833009F461C030F48130D1F1823084
:1041B00009F49EC008958A3009F48AC08B3009F44E
:1041C0006FC0893009F050C080916D03813209F0D1
:1041D0004BC08091710390917203029708F044C024
:1041E0008091E800877F8093E8008091E80082FF5B
:1041F00037C09091F3008091F200029731F48091E2
:10420000F100813011F0863021F48091F10080932B
:104210005C038091E8008B778093E8000E94F32391
:1042200023C080916D03813AF9F48091E800877F83
:104230008093E8008091710390917203892B61F45F
:1042400068E084E593E070E00E9402238091E8003A
:104250008B778093E800089560E090E080E0F3CFF2
:1042600080916C038111C1CF089580916D03813AD3
:10427000D9F78091710390917203892BA9F78091EE
:10428000E800877F8093E8008091E80080FFFCCF02
:10429000809114018093F1008091E8008E77BCCF6B
:1042A00080916D03813201F78091710390917203C7
:1042B000892BD1F68091E800877F8093E8000E94E7
:1042C000F32380916F03809314010E94800A089564
:1042D00080916D03813241F68091E800877F809361
:1042E000E8000E94F3238091700380935D0308959A
:1042F00080916D03813A09F0B7CF8091E800877F04
:104300008093E8008091E80080FFFCCF80915D03FE
:10431000C1CF9FB7F894109253039FBF90916C0345
:10432000943009F048C02091E9002F703091EC00E2
:10433000932F917030FD90E8922B23E02093E900B9
:104340002091EB0020FF34C02091EE0027FF30C009
:1043500020915103222321F02091E80025FF28C05D
:104360001092510326E03091E80035FF14C080938D
:10437000F1008091E80085FD27C08091E80080FF72
:10438000FCCF8091E8008E778093E8009F70909337
:10439000E90080E0089530916C03343049F43091A5
:1043A000EB0035FD05C0215041F481E080935103BD
:1043B0009F709093E9008FEF0895EFE9FFE0319748
:1043C000F1F700C00000CFCF8FB7F89421E0209321
:1043D00053038FBFDBCF84B7877F84BF0FB6F894BA
:1043E000A8958091600088618093600010926000C1
:1043F0000FBE80E890E00FB6F89480936100909330
:1044000061000FBE0E94E91E08950E9443240E948D
:10441000A024E2EEF0E080818460808378940E94A2
:104420001E2708958AE091E00E94791D08958091E9
:104430006C03853091F480912E0380FF08C08BE8D7
:1044400097E09F938F930E9457050F900F90809154
:104450006C03853019F00E94641F08950E94391F73
:104460000E94F61E882399F380916A03882379F3CA
:104470000E949D220E94800AEACF08959A014091ED
:104480007303509174030E9446220895492F5527C3
:104490004330510521F168F44130510509F443C01E
:1044A0004230510509F444C090E080E050E040E023
:1044B00026C04132510551F142325105A9F763300E
:1044C000710590F7FB01EE0FFF1FE055FD4F408196
:1044D000518163557D4FFB01808190E010C0992789
:1044E0008130910581F0009729F00297E9F6E5EB1C
:1044F000F7E002C0E7EEF7E0849190E0AF01F90148
:10450000518340830895EFECF7E0F6CF63307105F7
:1045100058F6660F771FFB01EA54FD4F4081518129
:1045200089E090E0ECCF82E190E04FE358E0E7CF04
:1045300084E590E04BEE57E0E2CF80E189BD82E177
:1045400089BD09B400FEFDCF8091D8008F7D809396
:10455000D8008091E00082608093E0008091E000CC
:1045600081FDFCCF0895AF92BF92CF92DF92FF9270
:104570000F931F93CF93DF936C01EB018A010E948D
:104580001224F82E811123C00115110539F0F8010C
:1045900080819181C81BD90BC80ED91EB12CA12CCA
:1045A0002097A9F08091E80085FD22C08091E80065
:1045B0008E778093E80001151105A1F0F801808144
:1045C0009181A80EB91EB182A08285E0F82E8F2DB0
:1045D000DF91CF911F910F91FF90DF90CF90BF900F
:1045E000AF9008950E9412248823D1F2F82EEFCFC5
:1045F000F60181916F018093F1002197FFEFAF1ACF
:10460000BF0ACECFFC01809173039091740386178B
:104610009707A0F06115710529F49091E8009E7745
:104620009093E80090E06115710551F4911108C074
:104630008091E80082FF34C080E00895BC01F2CF91
:1046400080916C038823C1F18530C1F18091E8002D
:1046500083FD30C08091E80082FDEACF8091E800C0
:1046600080FFE1CF8091F3002091F200382F611597
:10467000710519F02830310558F091E028303105E6
:1046800009F090E02091E8002E772093E800CBCF4E
:1046900081918093F100615071092F5F3F4FE7CF07
:1046A00080916C03882341F0853041F08091E800CF
:1046B00083FFBECF81E0089582E0089583E00895EE
:1046C000FC01809173039091740386179707A0F003
:1046D0006115710529F48091E8008E778093E800D8
:1046E00090E06115710551F4911108C08091E800C6
:1046F00082FF35C080E00895BC01F2CF80916C0349
:104700008823C9F18530C9F18091E80083FD31C06B
:104710008091E80082FDEACF8091E80080FFE1CF40
:104720008091F3002091F200382F6115710519F086
:104730002830310558F091E02830310509F090E03B
:104740008091E8008E778093E800CBCF84918093AE
:10475000F1003196615071092F5F3F4FE6CF809194
:104760006C03882341F0853041F08091E80083FF9D
:10477000BDCF81E0089582E0089583E00895982FE9
:10478000973028F08F708093E90081E0089590932E
:10479000E900242F762F50E0981731F07091EC004B
:1047A0002091ED005091F00021FD02C09F5FE8CF05
:1047B0003091EB003E7F3093EB003091ED003D7F78
:1047C0003093ED003091EB0031603093EB0070934B
:1047D000EC002093ED005093F0002091EE0027FDB7
:1047E000E5CF80E0089580916D0387FF13C080912D
:1047F000E80082FF06C08091E8008B778093E80094
:1048000004C080916C038111F2CF089580916C03F4
:104810008823D9F38091E80080FFF8CF8091E800E9
:104820008E77ECCF2091E4003091E50095E6A90168
:104830002091EC00822F817020FF06C08091E8005B
:1048400080FF06C080E008952091E80022FD1AC094
:1048500080916C03882389F0853089F08091EB008A
:1048600085FD0FC02091E4003091E5004217530709
:10487000F9F29150E1F684E0089582E0089583E032
:10488000089581E008950E94B2240E94BA24E0EEC7
:10489000F0E0808181608083E8EDF0E080818F77B7
:1048A000808319BCA7EDB0E08C918E7F8C938081C2
:1048B0008F7E808310926B0308950F931F93CF9385
:1048C000DF930E94B2240E94BA24C8EDD0E0888110
:1048D0008F77888388818068888388818F7D8883AB
:1048E00019BC10926C031092680310926A03109224
:1048F000690300EE10E0F80180818B7F808388815E
:104900008160888342E060E080E00E94BF23E1EEA6
:10491000F0E080818E7F8083E2EEF0E08081816034
:104920008083808188608083F80180818E7F80838E
:10493000888180618883DF91CF911F910F910895C5
:10494000E8EDF0E080818F7E8083E7EDF0E080810C
:104950008160808384E082BF81E080936B030E944A
:104960005D240895E8EDF0E080818E7F80831092D1
:10497000E20008951092DA001092E10008951F926B
:104980000F920FB60F9211242F933F934F935F9383
:104990006F937F938F939F93AF93BF93EF93FF9307
:1049A0008091E10082FF0BC08091E20082FF07C08E
:1049B0008091E1008B7F8093E1000E9474208091C0
:1049C000DA0080FF19C08091D80080FF15C0809167
:1049D000DA008E7F8093DA008091D90080FF96C044
:1049E00080E189BD82E189BD09B400FEFDCF81E08F
:1049F00080936C030E9424208091E10080FF19C005
:104A00008091E20080FF15C08091E2008E7F80934C
:104A1000E2008091E20080618093E2008091D80002
:104A200080628093D80019BC85E080936C030E945B
:104A300050208091E10084FF2BC08091E20084FF30
:104A400027C080E189BD82E189BD89B5982F917029
:104A500080FFFBCF8091D8008F7D8093D80080911C
:104A6000E1008F7E8093E1008091E2008F7E809351
:104A7000E2008091E20081608093E200809168030F
:104A8000882309F449C084E080936C030E9461206C
:104A90008091E10083FF29C08091E20083FF25C05F
:104AA0008091E100877F8093E10082E080936C0336
:104AB000109268038091E1008E7F8093E1008091E5
:104AC000E2008E7F8093E2008091E200806180931B
:104AD000E20042E060E080E00E94BF238091F000AD
:104AE00088608093F0000E944520FF91EF91BF9174
:104AF000AF919F918F917F916F915F914F913F9176
:104B00002F910F900FBE0F901F90189519BC109207
:104B10006C030E943A2070CF8091E30087FD93E000
:104B200090936C03B3CF1F920F920FB60F92112484
:104B30002F933F934F935F936F937F938F939F93A5
:104B4000AF93BF93CF93DF93EF93FF93D091E9009F
:104B5000DF708091EC00C82FC17080FDC0E810921A
:104B6000E9008091F000877F8093F00078940E94A4
:104B7000D7251092E9008091F00088608093F000C2
:104B8000CD2BCF70C093E900FF91EF91DF91CF91D2
:104B9000BF91AF919F918F917F916F915F914F9155
:104BA0003F912F910F900FBE0F901F901895AAE282
:104BB000B0E0EDEDF5E20C946E278DE693E02091E8
:104BC000F100FC012193CF01F3E085379F07B9F78E
:104BD0000E94CF208091E80083FF1EC180916D0369
:104BE00090916E039A3008F017C1E92FF0E0E75B6F
:104BF000F74D0C945927803899F0823809F00CC190
:104C0000809171038F70873008F006C18093E900AE
:104C10008091EB0085FB882780F91092E90006C09F
:104C20008091690390916A03911182609091E800EC
:104C3000977F9093E8008093F1001092F1008091AB
:104C4000E8008E77E5C0882309F4D3C0823009F0EC
:104C5000E3C080916F038111D6C0809171038F7082
:104C60002FEF280F263008F0D7C08093E90020915D
:104C7000EB0020FFC8C0933031F48091EB008062DC
:104C80008093EB00C0C09091EB0090619093EB009B
:104C900021E030E001C0220F8A95EAF72093EA0074
:104CA0001092EA008091EB008860EACF8111B4C0D5
:104CB00010916F031F778091E3008078812B8093A0
:104CC000E3008091E800877F8093E8000E94F3234F
:104CD0008091E80080FFFCCF8091E30080688093A2
:104CE000E30082E0111183E080936C0395C080584B
:104CF000823008F091C080916F03909170038C3DD9
:104D000023E09207A1F583E08A838AE289834FB783
:104D1000F894DE01139620E03EE051E2E32FF0E04C
:104D200050935700E49120FF03C0E295EF703F5F7E
:104D3000EF708E2F90E0EA30C0F0C7968D939D9370
:104D40002F5F243159F74FBF8091E800877F809310
:104D5000E8006AE270E0CE0101960E940223809191
:104D6000E8008B778093E80057C0C096E7CF60914A
:104D7000710370917203AE014F5F5F4F0E943E223C
:104D8000BC01892B09F448C09091E800977F90936B
:104D9000E80089819A810E946023E1CF8038E1F5A3
:104DA0008091E800877F8093E8008091680380937A
:104DB000F10045CF811130C090916F03923060F5C2
:104DC0008091E800877F8093E800909368030E94B9
:104DD000F32380916803882311F084E005C080915B
:104DE000E30087FDFACF81E080936C030E94B52039
:104DF00013C080916F03813079F481E0933009F022
:104E000080E080936A031092E9008091E800877F38
:104E10008093E8000E94F3238091E80083FF0AC09A
:104E20008091E800877F8093E8008091EB008062AA
:104E30008093EB00AA96E3E00C948A27CF938091AD
:104E40006C038823A1F0C091E900CF709091EC0031
:104E5000892F817090FD80E8C82B1092E900809125
:104E6000E80083FD0E94D725CF70C093E900CF9161
:104E70000895991B79E004C0991F961708F0961BB6
:104E8000881F7A95C9F78095089597FB072E16F429
:104E9000009407D077FD09D00E94962707FC05D023
:104EA0003EF4909581959F4F0895709561957F4F41
:104EB0000895EE0FFF1F0590F491E02D09942F92B5
:104EC0003F924F925F926F927F928F929F92AF929A
:104ED000BF92CF92DF92EF92FF920F931F93CF93E7
:104EE000DF93CDB7DEB7CA1BDB0B0FB6F894DEBF7E
:104EF0000FBECDBF09942A88398848885F846E84A4
:104F00007D848C849B84AA84B984C884DF80EE80ED
:104F1000FD800C811B81AA81B981CE0FD11D0FB6F6
:104F2000F894DEBF0FBECDBFED010895AA1BBB1BD9
:104F300051E107C0AA1FBB1FA617B70710F0A61B99
:104F4000B70B881F991F5A95A9F780959095BC01BA
:104F5000CD010895FB01DC0104C08D910190801901
:104F600021F441505040C8F7881B990B0895FB016C
:104F7000DC0102C001900D9241505040D8F70895D5
:104F8000F999FECF92BD81BDF89A992780B5089511
:104F9000A8E1B0E042E050E00C940428DC01A40F4A
:104FA000B51F4150504048F0CB01840F951F2E9102
:104FB0000E94DF2741505040D0F70895262FF999DD
:104FC000FECF92BD81BDF89A019700B4021639F068
:104FD0001FBA20BD0FB6F894FA9AF99A0FBE089539
:104FE0000396272F0E94DF270E94DE27252F0E948D
:104FF000DF27242F0C94DF270196272F0E94DF271D
:105000000C94DE27DC01CB01FC01F999FECF06C030
:10501000F2BDE1BDF89A319600B40D924150504076
:10502000B8F70895F894FFCF7C087C08CC08CC082A
:1050300031094D09AB08AB085209C309D209D2099D
:105040001D1991192519EF18F3182919F7182D1999
:10505000391903198A1907193D190B1941196919C9
:105060000F194519701915194B195319FB183119D6
:10507000FF18351919194F195F1979198819E91885
:1050800021199819521D581D411D4C1D5E1D641D8E
:105090006A1DFB2523260C2723260C275626772658
:0650A0000C27CE26DA26E3
:1050A6001803280850011E0A1401D91F0F20DC1FFF
:1050B6000820012001E200E900EA00B500B600B7C9
:1050C60000CD008301CC008A0192019401210223C4
:1050D6000224022502260227022A02B300B4006F28
:1050E6000070009F01CB019F02A002818283E20033
:1050F600E900EA00B500B600B700CD008301CC0098
:105106008A01920194012102230224022502260229
:1051160027022A02B300B4006F0070009F01CB0182
:105126009F02A00281828397C634353F3F3F006DC0
:105136006B5F64656C6179006D6B5F696E74657237
:1051460076616C006D6B5F6D61785F737065656429
:10515600006D6B5F74696D655F746F5F6D6178007C
:105166006D6B5F776865656C5F6D61785F737065A1
:105176006564006D6B5F776865656C5F74696D6506
:105186005F746F5F6D6178000A092D205665727332
:10519600696F6E202D0A5649443A203078464545B7
:1051A60044282274616B61736869736B69222920D4
:1051B6005049443A2030783030303028226E616DC4
:1051C60065636172643278342229205645523A204A
:1051D6003078303030310A4255494C443A20202844
:1051E6004175672020392032303234290A4F505415
:1051F600494F4E533A204C554641204D4F55534545
:105206004B45592045585452414B455920434F4E22
:10521600534F4C4520434F4D4D414E442034303979
:10522600360A4743433A20382E332E302041565211
:105236002D4C4942433A20322E302E3020415652D0
:105246005F415243483A20617672350A00447B1525
:0C525600E10866085108FD0716082F0843
:00000001FF
