:100000000C94B3020C94EB020C94EB020C94EB02F4
:100010000C94EB020C94EB020C94EB020C94EB02AC
:100020000C94EB020C94EB020C944B200C941F21CB
:100030000C94A41A0C94EB020C94EB020C94EB02BB
:100040000C94EB020C94EB020C94EB020C94EB027C
:100050000C94EB020C941C1B0C94EB020C94EB0222
:100060000C94EB020C94EB020C94EB020C94EB025C
:100070000C94EB020C94EB020C94EB020C94EB024C
:100080000C9445050C94EB020C94EB020C94EB02DF
:100090000C94EB020C94EB020C94EB020C94EB022C
:1000A0000C94EB020C94EB020C94EB0200000002A7
:1000B000000400060008000A000C000E00100012E8
:1000C000001400160018001A001C001E0020002258
:1000D000002400260028002A002C002E00300032C8
:1000E000003400360038003A003C003E0040004238
:1000F000004400460048004A004C004E00500052A8
:10010000005400560058005A005C005E0060006217
:10011000006400660068006A006C006E0070007287
:10012000007400760078007A007C007E00800082F7
:10013000008400860088008A008C008E0090009267
:10014000009400960098009A009C009E00A000A2D7
:1001500000A400A600A800AA00AC00AE00B000B247
:1001600000B400B600B800BA00BC00BE29003A00D6
:100170003B003C003D003E003F004000410042008B
:1001800043004400450000004C0035001E001F00E5
:100190002000210022002300240025002600270043
:1001A0002D002E002A004A002B0014001A0008001F
:1001B000150017001C0018000C00120013002F007F
:1001C000300031004B003900040016000700090020
:1001D0000A000B000D000E000F0033003400280051
:1001E0002A004E00E10000001D001B00060019005F
:1001F000050011001000360037003800E5005200FD
:100200004D00E000E300E2000000000000002C00D0
:10021000000000000000E6002152500051004F0095
:1002200001000100010001000100010001000100C6
:1002300001000100010001000100000001000100B7
:1002400001000100010001000100010001000100A6
:100250000100010001000100010001000100010096
:100260000100010001000100010001000100010086
:100270000100010001000100010001000100010076
:100280000100010001000100010001000100010066
:100290000100010001000100010000000100010057
:1002A0000100010001000100010001000100010046
:1002B0000100010001000100010001000000000038
:1002C000000001000000000000000100010001002A
:1002D0000100010001000100010001000100010016
:1002E0000100010001000100010001000100000007
:1002F00001000100010001000100010001000100F6
:1003000001000100010001000100010001000100E5
:1003100001000100010001000100010001000100D5
:1003200001000100010001000100010001000100C5
:1003300001000100010001000100010001000100B5
:1003400001000100010001000100010001000000A6
:100350000100010001000100010001000100010095
:100360000100010001000100010001000100010085
:10037000000000000000010000000000000001007B
:100380000100010001000100010001000100010065
:100390000100010001000100010001000100010055
:1003A0000100000001000100010001000100010046
:1003B0000100010001000100010001000100010035
:1003C0000100010001000100010001000100010025
:1003D0000100010001000100010001000100010015
:1003E0000100010001000100010001000100010005
:1003F00001000100010001000100010001000100F5
:1004000001000000010001000100010001000100E5
:1004100001000100010001000100010001000100D4
:1004200001000100000000000000010000000000C9
:100430000000010001000100010001000E0357004F
:100440005400370035002D004100000016037700EE
:1004500069006C00620061002E007400650063009A
:10046000680000000403090409023B00020100A027
:10047000FA09040000010301010009211101000132
:10048000224400070581030800010904010001035B
:10049000000000092111010001226D0007058203FF
:1004A000200001120100020000000882655A0701C5
:1004B000000102000105010980A101850319012A3B
:1004C000B700150126B700950175108100C0050C15
:1004D0000901A101850419012AA002150126A00223
:1004E000950175108100C005010906A10185060569
:1004F0000719E029E7150025019508750181020516
:1005000007190029EF1500250195F07501810205F5
:100510000819012905950575019102950175039149
:1005200001C005010906A101050719E029E7150029
:10053000250195087501810295017508810105075E
:10054000190029FF150026FF009506750881000592
:1005500008190129051500250195057501910295D8
:100560000175039101C011241FBECFEFDAE0DEBF99
:10057000CDBF04B603FE18C08091B5039091B603B9
:10058000A091B703B091B8038730904BA740B04B10
:1005900059F41092B5031092B6031092B70310925B
:1005A000B803E0E0F8E3099511E0A0E0B1E0E8E38A
:1005B000F9E402C005900D92A63AB107D9F723E0FD
:1005C000A6EAB1E001C01D92A53BB207E1F70E9487
:1005D000B3160C945B240C940000A1E0B0E0E3EFB0
:1005E000F2E00C942423698304E610E021E030E07B
:1005F000AE014F5F5F4F682F80EA0E94F51B219686
:10060000E4E00C944023CF93C62F65EC8EEF0E945C
:10061000ED026C2F8DEF0E94ED02CF910895FF92B5
:100620000F931F93CF93DF939AED899FE0011124DD
:10063000C855DE4FF12C04E610E020E130E0AE01B9
:100640006F2D80EA0E94F51B80E1F80E609690EC19
:10065000F912F1CFCDB7DEB7E5E00C943F23CF938D
:10066000DF93D82F60E00E940303C0E060E08C2F8E
:100670000E94ED02CF5FC831C9F761E08D2F0E9463
:100680000303C0E060E08C2F0E94ED02CF5FC03C0E
:10069000C9F763E08D2F0E94030360E08FE00E94A2
:1006A000ED0260E080E10E94ED026FEF81E00E94C8
:1006B000ED0261E080E00E94ED028FE39CE901978A
:1006C000F1F700C00000DF91CF910895A2E0B0E003
:1006D000ECE6F3E00C942523162F8036910500F507
:1006E000880F991FBC0164557F4F42E050E0CE0156
:1006F00001960E94A92389818370EA812AED829F55
:10070000C001112488559E4FE80FF92FF11D20815B
:10071000211731F0108380549F4F21E0FC0120838A
:100720002296E3E00C9441231F93CF93DF93182F7D
:10073000D0E0C0E0612FCE010E9466032196C03652
:10074000D105C1F7DF91CF911F910895A2E0B0E0EC
:10075000ECEAF3E00C942523162F682F70E0660F67
:10076000771F64557F4F42E050E0CE0101960E9412
:10077000A9238A81E82FE695E695E695F0E0877053
:1007800021E030E001C0220F8A95EAF78981982F95
:1007900093704AED949FE00DF11D1124E759FD4F30
:1007A000112381F09081292B208383709AED899FFA
:1007B000F0011124EF57FD4F81E080832296E3E0A2
:1007C0000C944123209590812923EECF1F93CF9342
:1007D000DF93182F8AED189FE0011124C859DD4FCF
:1007E0008881882341F061E0812F0E940303812FDB
:1007F0000E940F031882DF91CF911F910895EF920D
:10080000FF921F93CF93DF93C82FE82EF12CDAEDE0
:10081000DE9DF001DF9DF00D1124EF57FD4F80812B
:100820008823D1F060E08C2F0E940303CD9FE0016C
:100830001124C759DD4F10E06991812F0E94ED020C
:100840001F5F1831C9F78AED8E9DF0018F9DF00D65
:100850001124EF57FD4F1082DF91CF911F91FF9030
:10086000EF900895CF930E94C11B80E00E942F0358
:10087000C0E061E08C2F0E94A603CF5FC036C9F7AD
:1008800080E00E94FF03CF91089580E00E94E6037C
:100890000895B0E0A0E0EFE4F4E00C941E23362FBE
:1008A000E72E282FF82E682F722F822FEE2009F4C2
:1008B00063C00E2D10E0C22FD0E046E0349FC0018F
:1008C0001124EFEFF0E0BF010E94C622AB01832F9D
:1008D00090E0880F991F35E5349FB001359F700D6A
:1008E0001124861B970B982F990F980FBF01601B3F
:1008F000710B6C9FD0016D9FB00D7C9FB00D1124CA
:100900008B2F9E9DB0011124672F77276F01C61A88
:10091000D70AB6016C9F60016D9FD00C7C9FD00CF4
:1009200011245F01A91AB108A09EB001A19E700D0B
:10093000B09E700D1124672F7727E61BF70BEC9FF5
:100940008001ED9F100DFC9F100D1124712F42307E
:100950005105B9F048F44115510569F04130510590
:10096000A1F07B2F8D2D07C04430510589F0A0F0F8
:1009700046305105B1F7622FCDB7DEB7EAE00C94EF
:100980003A232B2F812F7F2DF6CF722F2D2DF3CFD2
:10099000212F7B2F8F2DEFCF7D2D2B2FFBCF40E0F5
:1009A0000E94490408950E943204089580918302B0
:1009B00081110EC081E0809383028DE080939100CD
:1009C0009FB7F89423E020939900809398009FBFED
:1009D0000895E1E7F0E0808182608083089580934C
:1009E0008C02089580E00E9494030895809107018D
:1009F0000E9494030895FF920F931F93CF93DF9368
:100A0000F82E0E94992360E670E00E94DA22D0E07E
:100A1000C0E08C011127F11003C00C171D0731F441
:100A20000E949923682FCE010E9466032196C0364A
:100A3000D10589F7CDB7DEB7E5E00C943F23CF931E
:100A4000DF9360910A0170910B01809107010E9470
:100A5000CF04D72FC82F87E390E00E9466036D2F45
:100A60008FE390E00E9466036C2F87E490E00E9481
:100A700066030E94AE1881FF05C06FEF80E190E031
:100A80000E946603DF91CF9108951F920F920FB6D7
:100A90000F9211240F931F932F933F934F935F93C4
:100AA0006F937F938F939F93AF93BF93CF93EF9366
:100AB000FF93809182028431B8F48F5F8093820229
:100AC000FF91EF91CF91BF91AF919F918F917F91C6
:100AD0006F915F914F913F912F911F910F910F90C7
:100AE0000FBE0F901F9018958091880290918902F7
:100AF000A0918A02B0918B020196A11DB11D809335
:100B0000880290938902A0938A02B0938B0280910D
:100B1000840290918502A0918602B09187028F3F56
:100B20002FEF9207A207B20759F00196A11DB11D40
:100B30008093840290938502A0938602B0938702EB
:100B400080918C02882321F08091050180FD1FC0D7
:100B5000809106018823C9F020EB34E0829FA00138
:100B6000839F500D1124052E000C660B770B81E03E
:100B700000918402109185022091860230918702B3
:100B8000401751076207730718F080E001C081E049
:100B9000C82FC17080FD13C080910801909104019D
:100BA00080930401813069F0882311F0823061F074
:100BB0000E94F204C11184CF0E941F0581CF80E002
:100BC000EDCF0E94F604F6CF81E0923009F480E088
:100BD0000E94FB04EFCF47E050E068E270E085E060
:100BE00091E00E94C823089547E050E068E270E079
:100BF00085E091E00E94E62308950E94450408954F
:100C00008091080190E001968430910514F083E012
:100C100090E0809308010E94F405089580910801F6
:100C20008150990B97FF02C090E080E084309105DD
:100C300014F083E090E0809308010E94F405089589
:100C40008091090190E001968430910514F083E0D1
:100C500090E0809309010E94F405089580910901B4
:100C60008150990B97FF02C090E080E0843091059D
:100C700014F083E090E0809309010E94F405089548
:100C80008091070190E008968F3F910519F014F0CC
:100C90008FEF90E0809307010E94F4050895809102
:100CA00007018850990B97FD80E0809307010E940F
:100CB000F4050895FB012581222311F1109284028D
:100CC0001092850210928602109287028230FEE70F
:100CD0009F0799F150F481153EE7930741F1813068
:100CE0009E4741F121E0822F08958430FEE79F075F
:100CF00051F130F185309E47A9F70E942E060CC0B5
:100D00008230EEE79E0741F048F481152EE7920706
:100D100019F081309E4731F720E0E5CF8430EEE7CF
:100D20009E07D1F3C8F385309E47E9F2DBCF0E94DE
:100D30004006F2CF0E944F06EFCF0E940006ECCF94
:100D40000E940E06E9CF0E942006E6CF0E94711194
:100D5000882349F00E94EB050E94D3040E94D60428
:100D60000E94E90408950E94F405F6CF0E94FD0553
:100D70000E94431508950F931F93CF93DF93EC01C7
:100D80008B010E945A06B801CE010E941C07DF9118
:100D9000CF911F910F91089581E00E94EF04089573
:100DA00080E00E94EF040895CF93C82F6FEF811168
:100DB00065E284E290E00E94F623C1110DC0CFEFFE
:100DC0006C2F85E290E00E94F6236C2F86E290E083
:100DD0000E94F623CF910895C2E0F2CF0E94A606AA
:100DE00081E00E94D4060E94421508958430B8F430
:100DF0006630A8F44F3098F450E09FE0699F400DB2
:100E0000511D1124FA019AE5899FE00DF11D11246D
:100E1000EE0FFF1FE459FE4F85919491089581E0F4
:100E200090E008950E94F606089581E008950E94DA
:100E30001507089581E008950E9415070895089503
:100E40000E941F070895A6E0B0E0E9E2F7E00C94E5
:100E5000252349835A839E833091920289819A8106
:100E600031111AC03E81332399F0222389F00E9468
:100E70001B0D182F682F89819A810E94F70C6981B8
:100E80007A81812F0E942C142696E3E00C94412352
:100E90000E94090D182FF3CF0E941B0D69817A81E2
:100EA000F1CFFC01262F40815181628173818481C1
:100EB00095810E9423070895CF93DF93EC0161E0B1
:100EC0000E945107BE010E941707DF91CF9108953C
:100ED000CF93DF93EC0160E00E945107BE010E94B6
:100EE0002007DF91CF91089521E030E0A90102C0F1
:100EF000440F551F8A95E2F7CA010E94190C089504
:100F0000CF93C82F81E090E00C2E02C0880F991F6C
:100F10000A94E2F70E9487118C2F0E947407CF91E8
:100F2000089581E008950E9491070895CF93C82FF6
:100F30000E94CC0B8C2F0E9493072FEF84E39CE040
:100F4000215080409040E1F700C00000CF9108950B
:100F500081E00E9496070E94401B089580E00E9455
:100F600096070E94641B08950F931F93CF93DF93FE
:100F70008C0161E00E945107EC01B8010E94BB06A0
:100F8000811106C080E0DF91CF911F910F910895EC
:100F9000B801CE010E9458188823A1F3B801CE01F0
:100FA0000E941817882371F3B801CE010E94EE1633
:100FB000882341F3B801CE010E943015882311F334
:100FC000F8018581882361F0C330FCE7DF07E9F091
:100FD00058F4C115ECE7DE07A9F0C130DC47B9F0E1
:100FE000C8010E941A07CFCFCB358CE7D807A9F0EC
:100FF000CC35ECE7DE0771F0CA35DC4789F70E9493
:101000006211EECF0E94A807BDCF0E946A110E9414
:10101000AE07B8CF0E945811E3CF0E946611E0CF0F
:101020000E94CC060E94300808950E9434080E9455
:10103000D006089581E008950895CF93DF93D82FC7
:101040000E941A08C82F882319F08D2F0E941C08AF
:101050008C2FDF91CF91089508950E941D08089567
:1010600080E00E942D0808950E94A1180E942D087A
:101070000895CF930E94A118C82F80918D028C17DC
:1010800079F0C0938D020E94101B60938E027093C2
:101090008F0280939002909391028C2F0E942D08D2
:1010A000CF910895ADE0B0E0E8E5F8E00C94262398
:1010B000488759876A877B878C879D8791110E9413
:1010C00068101F8286E0FE013896DE0111960190BD
:1010D0000D928A95E1F78D8181110DC029813A81A8
:1010E0004B815C816D817E818F810E94B20F2D9634
:1010F000E2E00C944223CE0101960E945C0781112C
:10110000EDCFF5CFFC012481213021F48081918144
:101110000E944D0D0895CF93C82F8823C9F08238BF
:10112000C9F40E94AE1881FD13C089E30E94C21960
:101130000E94FC102FEF87EE93E0215080409040FA
:10114000E1F700C0000089E30E94DC190E94FC1056
:10115000CF9108958338A1F40E94AE1880FDF8CF96
:1011600083E50E94C2190E94FC102FEF81EE94E0EB
:10117000215080409040E1F700C0000083E5E4CFBB
:101180008438A1F40E94AE1882FDE2CF87E40E9469
:10119000C2190E94FC102FEF81EE94E02150804094
:1011A0009040E1F700C0000087E4CECF8CEF8C0FB9
:1011B000813A70F48C2F0E943619882329F08C2FE5
:1011C0000E94DC190E94FC108C2F0E94C219BECF15
:1011D00080E28C0F883048F4C77081E001C0880F2E
:1011E000CA95EAF70E944B10B1CFEBE5EC0FE33064
:1011F00040F4F0E0EC5AFE4F808190E00E94CA1863
:10120000A7CFC85ACB3108F0A3CFEC2FF0E0EE0FF8
:10121000FF1FE25EFE4F808191810E94EF1898CF00
:10122000882309F44DC0823879F40E94AE1881FFFA
:1012300047C089E30E94C2190E94FC1089E30E9402
:10124000DC190E94FC100895833859F40E94AE18EE
:1012500080FF36C083E50E94C2190E94FC1083E51E
:10126000EECF843859F40E94AE1882FF29C087E47B
:101270000E94C2190E94FC1087E4E1CF9CEF980FF6
:10128000913AE8F290E2980F983050F4877091E02C
:1012900001C0990F8A95EAF7892F0E945110D1CF8A
:1012A0009BE5980F933028F490E080E00E94CA18E4
:1012B0000895885A8B3120F490E080E00E94EF1866
:1012C00008951F93CF93DF93182FEB010E948B0893
:1012D000209739F4812F0E941009DF91CF911F913F
:1012E00008958FE99FE00197F1F700C00000219772
:1012F000EFCF70E060E0893311F460E570E00E94A8
:1013000061090895882321F00E944B100E94FC106F
:101310000895882321F00E9451100E94FC10089526
:10132000B0E0A0E0E6E9F9E00C941F236C01D62FB1
:10133000C72FFC011581068102950F700E94411094
:10134000E82E8823F9F0E12E1123E1F08C2F807F25
:10135000803461F080E28D0F883008F18C2F807E20
:10136000803221F4D230D8F00023C9F080918B0371
:1013700082FF15C082E00E942C110E94411091E072
:10138000E82EE926BC2EB2949FE0B922FBE0FB15C3
:10139000B8F1EB2DF0E0E35AFB4D0C941023E12C57
:1013A000F1CF0C2F0F70C07F11F00295007F112339
:1013B00099F0002359F080E28D0F883010F0D111A0
:1013C00007C0802F0E944B100E94FC108D2F5AC026
:1013D000802F0E945B10F8CF8D2F0E9410090023F0
:1013E00079F080E28D0F883010F0D11104C0802F89
:1013F0000E94511003C0802F0E9461100E94FC10B7
:10140000EB2DE850FF0B349720F40E94A1180E94A6
:101410002D08EE2089F00E943D1080FD0DC0F601E0
:1014200015820E9437100E94550CC6010E94970B2E
:101430000E9437100E94650CCDB7DEB7E9E00C942E
:101440003B232C2F2F70F22EC07FC03219F0F29464
:1014500080EFF822DD2341F0D130D1F1112309F4DE
:1014600044C00023F1F0B2CF80918B0382FD15C000
:10147000112359F0FF2029F08F2D0E944B100E945C
:10148000FC1080E00E948B08BBCF80E00E94100916
:10149000FF2009F4B5CF8F2DABCF112369F00111D7
:1014A00004C08F2D0E948209ABCF013009F0A8CF74
:1014B0008F2D0E947F10A4CF0111A2CF8F2D0E94EB
:1014C00089098F2D0E948B108F2D0E946F1098CF4D
:1014D000112321F0063008F093CFE3CF053008F058
:1014E0008FCF8F2D0E9489098BCF0023D1F3D93361
:1014F00049F43FEF87EE93E0315080409040E1F7B0
:1015000000C000008D2F0E9410097ACF8C2F869585
:101510008695837069F0813009F072CF8D2F9C2FF2
:101520009370111102C080E090E00E94EF1868CF24
:101530008D2F9C2F9370111102C080E090E00E94CB
:10154000CA185ECF8C2F8370A1F5111159CF4D2F82
:10155000429546954770440F440F2D2F2F7030E071
:10156000042E02C0220F331F0A94E2F790E080E0BD
:10157000D4FF09C08FE090E002C0880F991F4A9500
:10158000E2F780959095C695C695C370822B932BF4
:10159000C23049F058F4C13019F00E94250C30CF08
:1015A0000E941C0C2DCF0E942E0C2ACF0E94190CD9
:1015B00027CF8695112311F08C2F8170882309F491
:1015C0001FCF4D2F429546954770440F440F2D2F46
:1015D0002F7030E0042E02C0220F331F0A94E2F76E
:1015E00090E080E0D4FF09C08FE090E002C0880F57
:1015F000991F4A95E2F780959095C695C695C37058
:10160000822B932BC23049F058F4C13019F00E945C
:10161000900CF6CE0E94870CF3CE0E94990CF0CE6F
:101620000E943D0CEDCECF70112329F08C2F0E942B
:10163000550C8D2F37CF8D2F0E9489098C2F0E943A
:10164000650CDECED23F41F160F4D03FB9F0D13F1E
:1016500081F0112309F443C00111B8CE8C2F8F7192
:101660001FC0D33F01F1D43FA1F780918B0382FDCE
:1016700024C08C2F8F71112311F312C0112341F05C
:10168000053008F0BDCE8C2F8F710E94770CB8CE3C
:10169000063008F0B5CEF7CF8C2F8F711111CFCF58
:1016A0000E94550CADCE112329F08C2F8F710E9412
:1016B000490CA6CE0E94440CA3CE112331F063E066
:1016C0008C2F8F710E940E119BCE81E00E942C11F5
:1016D000023008F495CE82E00E942C1191CE0023B6
:1016E00059F0D93309F00ECFEFEFF7EE23E0E150D8
:1016F000F0402040E1F704CF8C2F8F71A0CF0F93E3
:101700001F93CF93DF93EC01688179818D810E94D3
:10171000580D8C010E94A20C0E94180CB801CE0139
:101720000E949009DF91CF911F910F910895CF935F
:10173000DF93EC018C81882399F0CE010E94B407DD
:10174000811111C00E944110882351F08D8188239E
:1017500039F080918B0382FF03C082E00E942C113C
:10176000DF91CF910895CE010E947F0BCE010E94A0
:101770006807F6CF90E080E00E94CA1890E080E011
:101780000E94EF180E9468100E94FC1008950E94A9
:10179000F6190E94BA0B08950E9458100E94C70BB8
:1017A000089592959F70963091F058F4925F9F70D3
:1017B000923058F4803F19F030F4883E30F481E0E4
:1017C00008959A5FF4CF843FD1F380E00895883E76
:1017D000B0F3813FD1F7F3CFFC012481222339F00C
:1017E000808191810E944D0D0E94D10B089580E06F
:1017F0000895A6E0B0E0EFEFFBE00C9426232696D8
:10180000E2E00C944223A7E0B0E0E9E0FCE00C94B5
:1018100026232796E2E00C94422308950E940D0CA3
:1018200008950E940E0C9093C6028093C5020895FD
:1018300008950E94110C08952091C5023091C602AE
:10184000822B932B0E94110C08952091C502309198
:10185000C602822393230E94110C08952091C50291
:101860003091C602822793270E94110C08950E948E
:101870000D0C08950E94370C08950E943A0C909325
:10188000C4028093C302089590E080E00E943D0C62
:10189000089521E030E0A90102C0440F551F8A9548
:1018A000E2F7CA010E943D0C089521E030E002C039
:1018B000220F331F8A95E2F78091C3029091C402F0
:1018C000822B932B0E943D0C089521E030E002C052
:1018D000220F331F8A95E2F7209530958091C3023D
:1018E0009091C402822393230E943D0C089521E02D
:1018F00030E002C0220F331F8A95E2F78091C302C5
:101900009091C402822793270E943D0C0895209154
:10191000C3023091C402822B932B0E943D0C089588
:101920002091C3023091C402822393230E943D0C74
:1019300008952091C3023091C402822793270E9408
:101940003D0C08950895262F277091E001C0990F4E
:101950002A95EAF723E0769567952A95E1F7660FD1
:10196000771F660F771FFA01E60FF71F50E040E080
:10197000682F70E08191DF0111979B01042E02C056
:10198000369527950A94E2F7217021952827292377
:1019900028272C934F5F5F4F4430510559F7089526
:1019A000A82FA77023E0969587952A95E1F7880FD1
:1019B000991F880F991FFB01E80FF91F50E040E0C5
:1019C00080E0219130E00A2E02C0369527950A94D6
:1019D000E2F721703327042E01C0220F0A94EAF7A0
:1019E000822B4F5F5F4F4430510559F70895262FE2
:1019F000963070F48F3060F4682F70E08FE0989F1D
:101A0000600D711D112443E952E0822F0E94A30C46
:101A10000895292F963068F48F3058F490E063E9E8
:101A200072E03FE0239F800D911D11240E94D00C95
:101A3000089580E00895B0E0A0E0E1E2FDE00C94BC
:101A40001F237C010091C3021091C4028091C50242
:101A50009091C602082B192BCFE0D0E0CC24C39480
:101A6000D12CBC2EC6010C2E02C0880F991F0A94DF
:101A7000E2F780239123892B49F4219790F7B12C29
:101A80008B2DCDB7DEB7E9E00C943B23B7018C2F4B
:101A90000E943814019789F3F3CFCF93DF93EC01C1
:101AA0000E941B0DBE010E943814DF91CF91089552
:101AB0001F93CF93DF93EB0190919202992339F01A
:101AC000CB010E944D0DDF91CF911F910895882386
:101AD00069F0CB010E941B0D182F682FCE010E94C8
:101AE000F70CBE01812F0E943814EDCFCB010E946C
:101AF000090D182FF6CF1F93CF93DF93C091C70224
:101B000017E08091C8028C1304C0DF91CF911F9120
:101B10000895D0E01C9FF0011D9FF00D1124E753A4
:101B2000FD4F20813181428153816481758186819D
:101B30000E94030C2196C770E4CF209101033091DD
:101B400002034091030350910403609105037091D7
:101B50000603809107030E94030C0895CF93DF933F
:101B600080910703807F09F04DC080910603882390
:101B700009F448C0E091C7025091C802C091020325
:101B8000D0910103609103037091040347E05E1755
:101B9000C9F18E2F90E0E49FF0011124E753FD4F2F
:101BA0002481222391F1489FF001499FF00D1124D7
:101BB000DF01A753BD4F11962C9111972C1325C00F
:101BC0002C912D1322C015962C91159721111DC013
:101BD00012962D913C91261B370B283C3105A8F419
:101BE000809107038F70806180930703E153FD4F5D
:101BF00080818F708061808381E093E00E94970BE9
:101C00000E947B0DDF91CF910895FC013196E77022
:101C1000BECF482F2091C7029091C80257E02913E8
:101C200002C080E0089530E0529FF001539FF00D14
:101C30001124E753FD4F8181681306C0808148134A
:101C400003C085818111EECF2F5F3F4F2770E7CF13
:101C5000A4E1B0E0EEE2FEE00C941C238C0186E0EF
:101C6000F801DE011F9601900D928A95E1F7F801C7
:101C70008481E58091E0A92E93E0B92E909105032F
:101C800091111FC08823D1F0EE20A9F0C8010E9455
:101C9000EC0BF82E882379F087E0F801D50101904C
:101CA0000D928A95E1F7C5010E9482080E94AE0D4F
:101CB0000E949D0D5FC0C8010E94970BFF24F39402
:101CC00059C0C080D18082809380F090060320911B
:101CD000030330910403A401421B530BFF2009F4BA
:101CE000F9C0483C510508F0A7C0882309F442C058
:101CF0009091020380910703282F207F09F05CC098
:101D00009D1116C090910103C91212C0E1104EC07E
:101D10008F708061809307030E949D0D81E093E0A6
:101D20000E94970B80910703F8018683F12C22C053
:101D3000E1103CC06D2D8C2D0E94090E6D2D8C2D57
:101D40000E94090EE82E8111F1CFCF86D88A8F85A7
:101D500098890E944D0D292F22952F70243078F4F8
:101D60009F702230A8F09923B9F0F8019681907FF6
:101D700099F4FE2C8F2D6496ECE00C9438232A5FA6
:101D80002F70223068F0C8010E94970BEF2CF1CF22
:101D9000992311F0882369F3805E883050F3F3CFE4
:101DA000803F38F3815F833070F7E3CF8091070382
:101DB000816080930703BACF9D1113C090910103F6
:101DC000C9120FC0E1100DC08683C8010E94970B95
:101DD00087E0F801A1E0B3E001900D928A95E1F768
:101DE00067CFC8010E94EC0B882309F464CFEE2072
:101DF00009F461CF80910703803288F020910103BC
:101E000030910203398728879B868A869091050343
:101E10009C871D868E87CE0108960E94970B87E0CF
:101E2000F801A1E0B3E001900D928A95E1F70E94DC
:101E3000AE0D0E949D0D42CF90910703292F207F68
:101E4000A1F4682D9A8A898AA6017A899E2D0E941A
:101E5000F90B81E093E00E94970B87E0F501119266
:101E60008A95E9F70E949D0D61CF882309F482CFFE
:101E7000809102038D1110C080910103C8120CC023
:101E8000E1100AC09683C8010E94970B87E0F50114
:101E900011928A95E9F76ECFC8010E94EC0B882356
:101EA00009F409CFEE2009F406CF809107038032B0
:101EB00008F4B5CF20910103309102033A832983BE
:101EC0009C828B82909105039D831E828F83CE011D
:101ED0000196A3CF483C5105B8F5882309F4EECE0E
:101EE000FE2CEE2009F4E7CE809102038D111EC076
:101EF00080910103C8121AC08091070380FD0DC0B4
:101F0000982F907F51F08683903F09F45ECF982FF1
:101F1000907F905F8F70892B57CF87E0F801A1E009
:101F2000B3E001900D928A95E1F724CFC8010E9499
:101F3000EC0B811174CF80910703816080930703BC
:101F4000C8010E94970B16CF682D9A8A898AA6012C
:101F50007A899E2D0E94F90B87E0F50111928A95EE
:101F6000E9F7A6CEAEE0B0E0E8EBFFE00C94252365
:101F7000288739874A875B876C877D878E87CE0164
:101F800008960E94280E8823B1F06C85662341F0E4
:101F9000288539854A855B857D858E850E94030C61
:101FA00017E08091C7029091C80289133DC02E9618
:101FB000E3E00C94412387E0FE013896DE011196A0
:101FC00001900D928A95E1F78C85882349F3209141
:101FD000C80230E0C9010196877099274091C70275
:101FE0004817190699F097E0929FD001939FB00D82
:101FF0001124A753BD4FFE01319601900D929A9581
:10200000E1F78093C8020E947B0DCACF0E94CC0BDF
:102010001092C8021092C70287E0E1E0F3E0DF010E
:102020001D928A95E9F7BCCF819FC0011124875387
:102030009D4F0E94280E882309F4B9CFE091C70272
:102040001E9FF0011124E753FD4F20813181428111
:1020500053816481758186810E94030C8091C7023F
:1020600090E00196877099278093C7029ACF80915C
:102070003003869586958695089580913003877004
:10208000089590913003977081E009F480E00895FD
:1020900080915C03089590915C03892B80935C038D
:1020A0000895809590915C03982390935C03089524
:1020B00010925C03089590915B03892B80935B03DE
:1020C0000895809590915B03982390935B03089506
:1020D00010925B03089508950E946B1008959091EB
:1020E0003103292F282331F08095892380933103F0
:1020F0000E946C10089508950E947B10089590919D
:102100003203292F2823281729F0982B9093320384
:102110000E947C10089590913203292F282331F0DA
:1021200080958923809332030E947C1008958091CA
:102130003203882329F01092320380E00E947C1041
:102140000895CF93C0915C0380915B03C82B80916D
:102150003203882331F0C82B0E94141981110E9488
:1021600097108C2FCF910895CF93DF93C0910E01DC
:10217000D0910F010E94A1108883C0910E01D091CF
:102180000F0148E050E068E273E0CE010E94B22304
:10219000892B59F088E0FE01A8E2B3E001900D928E
:1021A0008A95E1F7CE010E94B118DF91CF91089591
:1021B000CF93DF93C0910C01D0910D010E94A1102B
:1021C0008983C0910C01D0910D0140E250E068E09C
:1021D00073E0CE010E94B223892B59F080E2FE0108
:1021E000A8E0B3E001900D928A95E1F7CE010E943C
:1021F000BC18DF91CF9108950E94591A813039F4AB
:1022000080918A0387FF03C00E94D81008950E941E
:10221000B410089508950E940A11089590918B03B7
:1022200092FF11C098E0899F90011124622B609366
:1022300030030E94550C80913003869586958695D3
:102240000E940B1108950E94550C089510923003BE
:1022500080E00E940B1108959091300380958923AE
:1022600080933003282F277069F4891759F09091D3
:102270008B0392FF07C08695869586950E94650C14
:102280000E942611089590918B0392FB222720F93A
:10229000281769F080FB92F990938B0380918A0351
:1022A00090918B030E94921182E00E942C1108955C
:1022B00080918B0382FB882780F991E089270E9417
:1022C0004311089581E00E944311089580E00E9427
:1022D000431108956FEF7FEF90E080E00E94142497
:1022E000089590E080E00E94E02321E0853E9E4F2B
:1022F00009F020E0822F089582E090E00E94D82328
:10230000089583E090E00E94D82390E00895682F1C
:1023100083E090E00E94F623089584E090E00E941C
:10232000E0230895BC0184E090E00E941424089505
:10233000AB01BC018FE090E00E9408240895AB013E
:10234000BC0183E190E00E940824089560E070E001
:10235000CB010E949F11089560E070E0CB010E94C4
:1023600098110E94A6110895A8E0B0E0EAEBF1E10F
:102370000C94262365EE7EEF90E080E00E9414240A
:1023800060E082E090E00E94F62381E090E090938C
:10239000C6028093C5020E94871160E074E184E068
:1023A00090E00E94142460E086E090E00E94F62312
:1023B00060E087E090E00E94F62340E050E0BA0140
:1023C00088E090E00E94082460E083E290E00E94B0
:1023D000F62360E08CE090E00E94F62360E08DE060
:1023E00090E00E94F62319821A821B821C821D82B1
:1023F0001E821F82188648E050E067E170E0CE013F
:1024000001960E94E62340E050E0BA018FE190E09F
:102410000E9408240E94AC112896E2E00C9442230A
:102420000E94B4110895682F8EE090E00E94F62378
:102430000895A6E0B0E0EFE1F2E10C9424230E94BD
:10244000041B8C0180915D0390915E0380179107BE
:1024500081F019821A820E94041B682F49815A81D7
:10246000792F80E090E00E94520810935E03009361
:102470005D032696E4E00C9440230E94101B6093B9
:102480006F03709370038093710390937203609352
:102490006B0370936C0380936D0390936E030895A8
:1024A000089508950E945012089508950E945512AB
:1024B00008958EE295E10E94C8160E9451120E9472
:1024C0005212089581E008950E94621208950E94B8
:1024D00062120895089508950E946A120E946B1274
:1024E00008950E947111811102C00E9410120E9471
:1024F0007C11809373030E948D1190938B038093C2
:102500008A030E94EB160E9481110E94190C80918F
:10251000C3029091C4020E943A0C08950E94FB1AD3
:102520000E940A160E9471120E942C080E945612E4
:102530000895A6E0B0E0EFE9F2E10C941A230E94BE
:102540006412811108C00E9419120E94390826964F
:10255000EEE00C9436230E9420162FE5822E23E015
:10256000922E640110E0F601E190F1906F01812F4D
:102570000E9444151F5F163009F44BC0E816F90697
:1025800091F38091730381FD0E944D150E946712A3
:10259000782E10E066246394812F0E9444157C01FC
:1025A000F401A190B1904F018A159B0561F100E003
:1025B000CC24C394D12CAE24BF24C5018C219D21F1
:1025C000892BC1F07720B1F009831A830E94041B84
:1025D0009C838B836D8221E0C7018C219D21892BF7
:1025E00009F420E049815A816B817C818D81922F91
:1025F0000E9452080F5FCC0CDD1C0F30F1F6F40185
:102600003297F182E0821F5F163031F60E943D1250
:102610009CCFE816F90609F0B4CF95CF1F93CF935E
:10262000DF930E943D14EC01C11580E5D807F0F559
:10263000C11580E4D80708F09CC0C03ED10520F544
:10264000CD3CD10508F082C0C83AD10578F4C53A2E
:10265000D10508F073C0C130D10519F1209709F1F7
:10266000C430D105F0F4D0E0C0E01BC0C33CD105BC
:10267000D0F7C85AD0E0CC0FDD1FC95ADE4F099001
:10268000D881C02DD4640DC0C11580E2D80708F0F0
:10269000D1C0C11581E0D80708F05AC0C83ED105A5
:1026A00010F7CE01DF91CF911F910895C03682E5DA
:1026B000D80718F5C03482E5D80708F06BC0C032DF
:1026C00082E5D80708F05FC0C11582E5D80708F495
:1026D00097C02C2F2695269580E2289F90011124E3
:1026E0008C2F8370C1E0D0E002C0CC0FDD1F8A9533
:1026F000E2F7C22BD32BDD68D4CFC03A82E5D807EE
:1027000060F4C03882E5D80708F459C0CF71D0E032
:10271000DC2FCC27C46FD06AC4CFC03C82E5D80779
:1027200008F462C0C03E82E5D80708F09CCFDC2FD9
:10273000CC27CC27DF71C06FD06AB3CFC55AD0E0A9
:10274000C357DE4FC881D0E0D064ABCFD065A9CFEE
:102750008D2F0E94DF14182FCE0199270E943D145F
:10276000C12FD0E0DC2FCC27CC27DF71C82BD92B91
:1027700098CFCE0199270E943D14CC27DF70C82B3B
:10278000D92BD06A8ECFCF71D0E0DC2FCC27C16F90
:10279000D06A87CF2C2F26952695277080E2289F18
:1027A000900111248C2F8370C1E0D0E002C0CC0FC7
:1027B000DD1F8A95E2F7C22BD32BDC6872CF2C2F5A
:1027C00026952695277080E2289F900111248C2F52
:1027D0008370C1E0D0E002C0CC0FDD1F8A95E2F724
:1027E000C22BD32BDA685DCF8C2F8F710E94DF1440
:1027F000C82FD0E0DC2FCC27CC27DF71D06251CF9F
:102800008C2F8F710E94DF1455E0D695C7955A958D
:10281000E1F7CF70D0E0DC2FCC27282F30E084FF09
:1028200005C044E0220F331F4A95E1F7C22BD32B9A
:10283000D06937CF8D2F8F710E94DF14182FCE01F2
:1028400099270E943D14C12FD0E0DC2FCC27CC2744
:10285000DF71C82BD92BD2CF462F763030F46F30B2
:1028600020F4672F0E941207089590E080E00895F9
:102870000E942C140E940E13089582389105B9F11C
:10288000B0F48133910509F47DC048F48932910593
:1028900009F46DC08A32910509F47BC0089585332F
:1028A000910509F45FC08933910509F10895833ECC
:1028B0009105D9F138F4803E910529F1823E9105C8
:1028C00079F10895863E9105D9F1873E910509F485
:1028D0003EC0843E910541F520918B0321FF24C029
:1028E00080918A0384FD19C087EE90E008952091BD
:1028F0008A03237009F05AC020918B0323FF14C070
:1029000089E290E0089520918A0320FD38C030913B
:102910008B0330FF09C024FF43C090E080E008959E
:1029200020918A0322FDF7CF089520918A0322FD8A
:102930003AC030918B0330FD39C024FFF5CFEDCF85
:1029400020918A0323FFF0CF24FDE7CFCDCF209144
:102950008A0323FD2EC030918B0331FFEECF84EE2E
:1029600090E0089520918A0325FFDECFC9CF209102
:102970008A0325FD21C020918B0323FFD5CF89E356
:1029800090E0D2CF20918A0326FFCECF8AE290E05A
:10299000089520918A0326FFC7CF81E390E0089530
:1029A00083EE90E0089582EE90E0089580EE90E04E
:1029B000089586EE90E0089585E390E00895909163
:1029C0008A0392FF10C041E0282F2471243009F0BF
:1029D00040E031E0282F2871283009F030E043171B
:1029E00011F02CE0822793FF10C041E0282F2471C2
:1029F000243109F040E031E0282F2871283109F016
:102A000030E0431711F02CE0822730918B0330FF28
:102A100010C051E0282F2171213009F050E041E031
:102A2000282F2871283009F040E0541711F029E0D0
:102A3000822731FF10C041E0282F2171213109F098
:102A400040E031E0282F2871283109F030E04317A9
:102A500011F029E0822794FD877E089580E0089593
:102A6000CF939C01205E3245C1E02032310538F41D
:102A7000FB01C581C11103C08F710E9480078C2F9B
:102A8000CF91089508950895E82FF0E0EE0FFF1F0D
:102A9000E856FC4F808191810895089580EA8A95D7
:102AA000F1F7089500C008950E944E150895F89416
:102AB000E82FE295EF70F0E031A1282F2F7081E030
:102AC00090E001C0880F2A95EAF7982F90959323FC
:102AD00091A392A1892B82A3789408950F931F93B9
:102AE000CF93DF93C0E9D1E089918F3F11F00E942D
:102AF000571581E0CF39D807B9F7CFE9D1E005EA1A
:102B000011E089918F3F11F00E9457150C171D0796
:102B1000C1F7DF91CF911F910F9108958F929F92EE
:102B2000BF92CF92DF92EF92FF920F931F93CF93BA
:102B3000DF93D82EE92EF62E8A01C62FD0E0C0579B
:102B4000DE4F28812F3F09F453C0F894E22FE2951D
:102B5000EF70F0E031A12F7081E090E001C0880FAC
:102B60002A95EAF7932F982B91A392A18095892318
:102B700082A378940E9452158FE9882E81E0982EC6
:102B8000ED2DFE2DBF01645F7F4FE12C6801C094E5
:102B9000D094D401BD904D0181919191AF014250EB
:102BA0005109BFEFBB1681F12B2D22952F7030E01C
:102BB000D90190962C9130E0BB2DBF7002C03595A5
:102BC0002795BA95E2F720FD1FC0802B912BDA01E3
:102BD0008D939C93EE24E3946E177F07D1F6888142
:102BE0008F3F11F00E9457156E2D8F2D0E945415A6
:102BF000DF91CF911F910F91FF90EF90DF90CF90D9
:102C0000BF909F908F9008958C219D21DA018D9324
:102C10009C93E2CF0E946E158CE0E8E9F3E0DF01BF
:102C2000982F1D929A95E9F7ECE8F3E0DF011D92E9
:102C30008A95E9F786E00E9474160E94EE060895D0
:102C4000CF92DF92FF920F931F93CF93DF93CDB775
:102C5000DEB72C970FB6F894DEBF0FBECDBF8E0146
:102C60000F5F1F4F8CE0F80111928A95E9F7F12C64
:102C7000CC24C394D12CA6016F2DC8010E948E15BF
:102C8000F394CC0CDD1CFFE0FF12F5CF4CE050E0DC
:102C9000B8018CE893E00E94B22321E0009709F488
:102CA00020E0892B41F08CE0F801ACE8B3E0019022
:102CB0000D928A95E1F746E068E973E08CE893E0CD
:102CC0000E947516182F0E94B606812F2C960FB6FB
:102CD000F894DEBF0FBECDBFDF91CF911F910F9152
:102CE000FF90DF90CF9008950895B0E0A0E0EBE76B
:102CF000F6E10C9420236C017B01042FC22F2223C8
:102D000079F081E0809376030E94041B9093750311
:102D10008093740380E0CDB7DEB7E8E00C943C23E9
:102D2000D0917603DD23B1F3809174039091750304
:102D30000E94931A059770F310E0000F111FA8016D
:102D4000B601C7010E94B223892B31F0A801B60158
:102D5000C7010E94BF23CD2F109276038C2FDBCFAB
:102D60000E94991208950E949D1A0E94821D0E943D
:102D700059120E949C1D0E948E120E94A91D0E9441
:102D8000AE1D0E94B0160E94C81D0E946C12F7CFA3
:102D90009093A7018093A60108950E946A11089557
:102DA00080E00E944415817008950E9420162FEF44
:102DB00086E791E0215080409040E1F700C000009C
:102DC0000E9420160E94D016882321F00E94CD1662
:102DD0000E94401B08950E94D5160895CF93DF935B
:102DE000EB0186319C4711F50E9448109D81992383
:102DF00099F08A7A91E009F490E090937703811139
:102E000009C089E20E94C2190E94FC1080E0DF9193
:102E1000CF91089585E3F6CF80917703811104C0A7
:102E200089E20E94DC19F0CF85E3FBCF81E0EFCF90
:102E3000CF93DF93EC01FB018581882309F4D2C095
:102E40009E0130572332310508F0B2C00E948D1127
:102E500090938B0380938A03FE01E150F047E232A6
:102E6000F10520F4E759FB4D0C94102380918A035F
:102E7000816080938A0393C080918B0388608093E4
:102E80008B038DC080918A038260F3CF80918A0387
:102E90008460EFCF80918A038860EBCF80918B03B1
:102EA0008160EDCF80918B038260E9CF80918A03AE
:102EB0008061DFCF80918A038062DBCF80918A03BB
:102EC0008064D7CF0E94CC0B80918A038068D1CFD9
:102ED00080918A038C60CDCF80918B038360CFCFAC
:102EE00080918A038E7FC5CF80918B03877FC7CF68
:102EF00080918A038D7FBDCF80918A038B7FB9CF6C
:102F000080918A03877FB5CF80918B038E7FB7CF67
:102F100080918B038D7FB3CF80918A038F7EA9CF61
:102F200080918A038F7DA5CF80918A038F7BA1CF6B
:102F30000E94CC0B80918A038F779BCF80918A036C
:102F4000837F97CF80918B038C7F99CF80918A0369
:102F500082FB992790F921E0922790FB82F990FB60
:102F600083F987CF80918B03982F909591708E7FF6
:102F7000892B90FB81F983CF90918A03892F8F7BD6
:102F800096FF806476CF0E94CC0B90918A03892FA4
:102F900097FB87F980586DCF81E00E9413128091D2
:102FA0008A0390918B030E9492110E94CC0B80E0C7
:102FB000DF91CF91089580E0F0CF90918A03892F1F
:102FC0008F7E94FF806155CF90918A03892F8E7FE9
:102FD00090FF81604ECF90918B03892F877F93FF65
:102FE00088604DCF81E0E4CF0F931F93CF93DF93A1
:102FF000C42FD22FFC0185818823C9F040937A0326
:103000000E94041B909379038093780380E28C0FD5
:10301000883040F4C77081E001C0880FCA95EAF794
:103020000E948209DF91CF911F910F910895109115
:103030007A03141332C080917803909179030E942F
:10304000931A883C910548F5C0E2CD0F1D17B9F0E1
:1030500080E2810F883040F4177081E001C0880F52
:103060001A95EAF70E948909C83048F481E09D2F3B
:10307000977001C0880F9A95EAF70E948209802F05
:103080000E947909C83070F6D77081E001C0880FBE
:10309000DA95EAF70E948909C5CF80E28C0F883063
:1030A00008F6C77081E001C0880FCA95EAF7F2CF31
:1030B0000F93DB0188519C4787309105A0F5FC01F7
:1030C000E557FB4D0C94102306E221EE41EE6AE138
:1030D0007CE7CD010E94F41780E00F91089507E28C
:1030E00025EE45EE6BE17CE7F4CF06E221EE40EE03
:1030F00068E17CE7EECF07E225EE44EE69E17CE78C
:10310000E8CF06E221EE42EE6CE17CE7E2CF07E297
:1031100025EE46EE6DE17CE7DCCF08E221E045EEEE
:103120006EE17CE7D6CF15968C91882319F010922A
:103130007A03D3CF81E0D1CF9093800380937F0334
:103140000895E0917F03F0918003309729F001907A
:10315000F081E02D0995089580E008950E94A1185E
:103160000895E0917F03F0918003309721F0028071
:10317000F381E02D09950895E0917F03F09180039C
:10318000309739F026E0DC012C930480F581E02DA6
:1031900009950895A3E0B0E0E0EDF8E10C94262352
:1031A00020917D0330917E0328173907A1F0909379
:1031B0007E0380937D03E0917F03F091800330973D
:1031C00051F023E029839B838A830084F185E02DDD
:1031D000CE01019609952396E2E00C944223A3E0E8
:1031E000B0E0E5EFF8E10C94262320917B033091C9
:1031F0007C0328173907A1F090937C0380937B030D
:10320000E0917F03F0918003309751F024E029830F
:103210009B838A830084F185E02DCE010196099578
:103220002396E2E00C944223CF93DF93C0910E01EA
:10323000D0910F0122960E94591A813081F4809119
:103240008A0387FF0CC0C0910C01D0910D0122961A
:103250009EE180E0915028F4DF91CF91089596E0AF
:10326000F8CF29912223B1F38F5FF4CFCF93C82FEA
:10327000811102C080E024C00E94591A813011F5EA
:1032800080918A0387FF1EC0EC2FE695E695E695B0
:10329000EE3180F780910C0190910D01E80FF92F2C
:1032A000F11D228130E0C77081E090E002C0880FFC
:1032B000991FCA95E2F72823392381E0232BD1F205
:1032C000CF91089580910E0190910F01FC013296EB
:1032D000089621912C1721F0E817F907D1F7CACFEA
:1032E00081E0EECF9C01FC0132969FEF80E041919E
:1032F000461751F09F3F19F4411101C0982F8F5F7D
:103300008630A9F79F3F09F40895290F311D97FDD5
:103310003A95F90162830895FC013296089621914D
:10332000261303C0DF0111971C92E817F907B9F7BC
:103330000895E62FE695E695E695EE3168F4E80FF8
:10334000F92FF11D677021E030E001C0220F6A956E
:10335000EAF78281822B82830895E62FE695E6952F
:10336000E695EE3170F4E80FF92FF11D677021E05A
:1033700030E001C0220F6A95EAF720958281282368
:1033800022830895CF93C82F0E94591A6C2F813041
:1033900061F480918A0387FF08C080910C019091AD
:1033A0000D010E949919CF91089580910E0190917D
:1033B0000F010E947219F7CFCF93C82F0E94591A9C
:1033C0006C2F813061F480918A0387FF08C080915F
:1033D0000C0190910D010E94AD19CF91089580913B
:1033E0000E0190910F010E948C19F7CF0E94591A7B
:1033F000813079F480918A0387FF0BC0E0910C0142
:10340000F0910D0132968EE1DF011D928A95E9F768
:103410000895E0910E01F0910F01329686E0F4CF0D
:1034200008950E94101A089581110EC081E08093C2
:10343000130160911001709111018091120190911E
:1034400013010E94111A089582E0F1CF83E0809366
:1034500013016091100170911101809112019091FE
:1034600013010E94111A08950E94141A089581E010
:1034700080931301609110017091110180911201EC
:10348000909113010E94111A08950E94371A08950D
:1034900091E0811101C090E09093120160911001C0
:1034A0007091110180911201909113010E94111AE3
:1034B0000895809112010895809311016091100187
:1034C0007091110180911201909113010E94111AC3
:1034D0000895809111010895809310016091100169
:1034E0007091110180911201909113010E94111AA3
:1034F000089580911001089508950895CF930E9432
:103500007C1A0E9420160E947D1AC0E08C2F0E9417
:103510004415892B31F4CF5FC630C1F780E0CF91DD
:10352000089581E0FCCFCF93DF93EC010E94041B50
:103530008C1B9D0BDF91CF91089585B7806885BF67
:1035400085B7806885BF08951F921FB61F9211240A
:103550008F939F93AF93BF9380918103811113C089
:103560008091A4039091A503A091A603B091A70315
:103570004196A11DB11D8093A4039093A503A09330
:10358000A603B093A703BF91AF919F918F911F9016
:103590001FBE1F9018958091AC03843031F10E94BA
:1035A00010081092810388E190E020E40FB6F894AF
:1035B000A895809360000FBE2093600083B7817F41
:1035C000846083BF83B7816083BF7894889583B715
:1035D0008E7F83BF0FB6F894A895809160008861B4
:1035E00080936000109260000FBE08950E94CC0B83
:1035F0000E941508089582E084BD93E095BD9AEF7E
:1036000097BD80936E0008952FB7F8948091A4031E
:103610009091A503A091A603B091A7032FBF089591
:103620002FB7F8946091A4037091A5038091A6032D
:103630009091A7032FBF089578941F921FB61F92F1
:1036400011248F939F93AF93BF938091A403909184
:10365000A503A091A603B091A7030196A11DB11DDA
:103660008093A4039093A503A093A603B093A7030C
:10367000BF91AF919F918F911F901FBE1F90189582
:1036800081E08093E00080E28093D8001092C9002E
:103690008FE19EE40197F1F700C0000087E090EB16
:1036A000DC018093B5039093B603A093B703B09366
:1036B000B80388E19CE00FB6F894A8958093600069
:1036C0000FBE90936000FFCF88E19CE00FB6F894A6
:1036D000A895809360000FBE90936000FFCFEF929B
:1036E000FF920F931F93CF93DF93182FEB0110924C
:1036F000BC0084EA8093BC000E94041B7C01809182
:10370000BC0087FF27C08091B900887F883029F0EE
:103710008091B900887F803189F51093BB0084E8DF
:103720008093BC000E94041B8C018091BC0087FF29
:103730001EC02091B900287F90E080E0283191F0F0
:1037400081E090E0203411F490E080E09195819543
:10375000910908C0C7010E94931AC817D90778F6C3
:103760008EEF9FEFCDB7DEB7E6E00C943E23C801A5
:103770000E94931AC817D907C0F6F2CF8FEF9FEFB8
:10378000F1CF1092B9008CE08093B80008950F93A8
:103790001F93CF93DF93EB018093BB0084E880936A
:1037A000BC000E94041B8C018091BC0087FF11C0EB
:1037B0002091B900287F81E090E0283211F490E058
:1037C00080E0919581959109DF91CF911F910F91A3
:1037D0000895CF3FDC0741F3C8010E94931AC81730
:1037E000D90710F78EEF9FEFEFCFB0E0A0E0EBEF3F
:1037F000FBE10C941A23682E762E5A0169010E946F
:10380000041B4C01C1E0D0E00431110558F0C5E0C3
:10381000D0E00F3F100731F0C80164E170E00E9472
:10382000C622EB01BE01862D0E946F1B7C0197FF13
:103830001DC00F3F1007B1F3C4010E94931A08176F
:10384000190780F784E98093BC00C701CDB7DEB7C4
:10385000EEE00C943623B80189910E94C71B7C01CD
:10386000CC16DD0679F3F7FEF6CFECCFB801872D45
:103870000E94C71B7C01E501CA0CDB1CF1CF089537
:103880009B01BA019091AC039430E9F48F7080935E
:10389000E9009FEF8091E800915085FD06C085ED1D
:1038A0008A95F1F700009111F5CF8091E80085FF2E
:1038B0000AC050E040E0C9010E943F1E8091E8002C
:1038C0008E778093E800089543E050E0BC0182E0E9
:1038D0000E94401C089540E250E0BC0182E00E943A
:1038E000401C0895CF93DF93EC010E94591A48E0E1
:1038F00050E0BE0181E00E94401C88E0FE01A2E889
:10390000B3E001900D928A95E1F7DF91CF91089590
:103910008091AB03811109C00E94CF1F0E942C200F
:103920008091E20084608093E20008951092AB03DE
:1039300008950E94371A81E00E94481A0895609104
:10394000A80381E0611101C080E00E94261A089559
:103950009091AC0381E0943009F080E06091A8037D
:103960000E94341A089542E061EC81E00E944B1FEE
:1039700042E261EC82E00E944B1F9091AC0381E037
:10398000943009F080E06091A8030E94141A089511
:103990008091AE03833009F461C030F48130D1F1FD
:1039A000823009F49EC008958A3009F48AC08B30B1
:1039B00009F46FC0893009F050C08091AD038132A5
:1039C00009F04BC08091B1039091B203029708F0C7
:1039D00044C08091E800877F8093E8008091E800F0
:1039E00082FF37C09091F3008091F200029731F48A
:1039F0008091F100813011F0863021F48091F10046
:103A00000E945C1A8091E8008B778093E8000E9406
:103A10007F1F23C08091AD03813AF9F48091E800C3
:103A2000877F8093E8008091B1039091B203892B46
:103A300061F468E082E893E070E00E948E1E80915D
:103A4000E8008B778093E800089560E090E080E0E4
:103A5000F3CF8091AC038111C1CF08958091AD0364
:103A6000813AD9F78091B1039091B203892BA9F7DC
:103A70008091E800877F8093E8008091E80080FFD4
:103A8000FCCF0E94591A8093F1008091E8008E7754
:103A9000BCCF8091AD03813201F78091B103909149
:103AA000B203892BD1F68091E800877F8093E800EC
:103AB0000E947F1F8091AF030E94481A0E94CC0B86
:103AC00008958091AD03813241F68091E800877FAF
:103AD0008093E8000E947F1F8091B0030E946C1ABF
:103AE00008958091AD03813A09F0B7CF8091E80045
:103AF000877F8093E8008091E80080FFFCCF0E94E0
:103B0000791AC1CF84B7877F84BF0FB6F894A89580
:103B100080916000886180936000109260000FBE09
:103B200080E890E00FB6F894809361009093610074
:103B30000FBE0E94451A08950E94CF1F0E942C209C
:103B4000E2EEF0E080818460808378940E94AB2272
:103B5000089584E191E00E949C1808958091AC033F
:103B6000853031F48091AC03853019F00E94F61A4B
:103B700008950E94CB1A0E947E1A882399F380919F
:103B8000AA03882379F30E94291E0E94CC0BEACF56
:103B900008959A014091B3035091B4030E94D11D3E
:103BA0000895492F55274330510519F168F44130E4
:103BB000510509F444C04230510509F445C090E074
:103BC00080E050E040E025C04132510549F14232E9
:103BD0005105A9F784E490E042E255E061157105D2
:103BE000C1F08DE690E045EB54E06130710589F05D
:103BF000E6CF99278130910581F0009729F002974F
:103C0000F1F6ECE3F4E002C0E4E6F4E0849190E045
:103C1000AF01F901518340830895ECE4F4E0F6CF5D
:103C200089E090E04AE754E06115710591F389E07D
:103C300090E043E954E06130710559F3C0CF82E16F
:103C400090E043EA54E0E5CF8BE390E048E654E0AF
:103C5000E0CF80E189BD82E189BD09B400FEFDCFDE
:103C60008091D8008F7D8093D8008091E0008260A1
:103C70008093E0008091E00081FDFCCF0895AF9239
:103C8000BF92CF92DF92FF920F931F93CF93DF9358
:103C90006C01EB018A010E949E1FF82E811123C046
:103CA0000115110539F0F80180819181C81BD90BEC
:103CB000C80ED91EB12CA12C2097A9F08091E80044
:103CC00085FD22C08091E8008E778093E800011581
:103CD0001105A1F0F80180819181A80EB91EB18271
:103CE000A08285E0F82E8F2DDF91CF911F910F914B
:103CF000FF90DF90CF90BF90AF9008950E949E1FDD
:103D00008823D1F2F82EEFCFF60181916F018093D5
:103D1000F1002197FFEFAF1ABF0ACECFFC018091CF
:103D2000B3039091B40386179707A0F0611571054E
:103D300029F49091E8009E779093E80090E0611557
:103D4000710551F4911108C08091E80082FF34C0E0
:103D500080E00895BC01F2CF8091AC038823C1F1CB
:103D60008530C1F18091E80083FD30C08091E8008A
:103D700082FDEACF8091E80080FFE1CF8091F300DF
:103D80002091F200382F6115710519F028303105A6
:103D900058F091E02830310509F090E02091E800DA
:103DA0002E772093E800CBCF81918093F100615072
:103DB00071092F5F3F4FE7CF8091AC03882341F01B
:103DC000853041F08091E80083FFBECF81E0089507
:103DD00082E0089583E00895FC018091B3039091FF
:103DE000B40386179707A0F06115710529F4809137
:103DF000E8008E778093E80090E06115710551F43A
:103E0000911108C08091E80082FF35C080E00895DC
:103E1000BC01F2CF8091AC038823C9F18530C9F190
:103E20008091E80083FD31C08091E80082FDEACFF7
:103E30008091E80080FFE1CF8091F3002091F200B3
:103E4000382F6115710519F02830310558F091E0CF
:103E50002830310509F090E08091E8008E7780935A
:103E6000E800CBCF84918093F100319661507109C5
:103E70002F5F3F4FE6CF8091AC03882341F0853020
:103E800041F08091E80083FFBDCF81E0089582E09A
:103E9000089583E00895982F973028F08F708093CD
:103EA000E90081E008959093E900242F762F50E0F7
:103EB000981731F07091EC002091ED005091F000D6
:103EC00021FD02C09F5FE8CF3091EB003E7F309331
:103ED000EB003091ED003D7F3093ED003091EB0031
:103EE00031603093EB007093EC002093ED00509321
:103EF000F0002091EE0027FDE5CF80E0089580914D
:103F0000AD0387FF13C08091E80082FF06C0809157
:103F1000E8008B778093E80004C08091AC038111A6
:103F2000F2CF08958091AC038823D9F38091E80003
:103F300080FFF8CF8091E8008E77ECCF2091E400ED
:103F40003091E50095E6A9012091EC00822F817067
:103F500020FF06C08091E80080FF06C080E0089541
:103F60002091E80022FD1AC08091AC03882389F0DB
:103F7000853089F08091EB0085FD0FC02091E40031
:103F80003091E50042175307F9F29150E1F684E0D1
:103F9000089582E0089583E0089581E008950E94E5
:103FA0003E200E944620E0EEF0E080818160808328
:103FB000E8EDF0E080818F77808319BCA7EDB0E059
:103FC0008C918E7F8C9380818F7E80831092AB0347
:103FD00008950F931F93CF93DF930E943E200E947A
:103FE0004620C8EDD0E088818F77888388818068FB
:103FF000888388818F7D888319BC1092AC031092CE
:10400000A8031092AA031092A90300EE10E0F80191
:1040100080818B7F808388818160888342E060E03B
:1040200080E00E944B1FE1EEF0E080818E7F808374
:10403000E2EEF0E08081816080838081886080830F
:10404000F80180818E7F8083888180618883DF9101
:10405000CF911F910F910895E8EDF0E080818F7E60
:104060008083E7EDF0E080818160808384E082BF1F
:1040700081E08093AB030E94E91F0895E8EDF0E032
:1040800080818E7F80831092E20008951092DA0082
:104090001092E10008951F920F920FB60F92112413
:1040A0002F933F934F935F936F937F938F939F9340
:1040B000AF93BF93EF93FF938091E10082FF0BC01A
:1040C0008091E20082FF07C08091E1008B7F8093A6
:1040D000E1000E94AA228091DA0080FF19C080913D
:1040E000D80080FF15C08091DA008E7F8093DA00BF
:1040F0008091D90080FF96C080E189BD82E189BDB1
:1041000009B400FEFDCF81E08093AC030E94881CBF
:104110008091E10080FF19C08091E20080FF15C00E
:104120008091E2008E7F8093E2008091E2008061C6
:104130008093E2008091D80080628093D80019BCFF
:1041400085E08093AC030E949F1C8091E10084FF76
:104150002BC08091E20084FF27C080E189BD82E10D
:1041600089BD89B5982F917080FFFBCF8091D800D1
:104170008F7D8093D8008091E1008F7E8093E10055
:104180008091E2008F7E8093E2008091E200816066
:104190008093E2008091A803882309F449C084E059
:1041A0008093AC030E94A81C8091E10083FF29C08A
:1041B0008091E20083FF25C08091E100877F80939A
:1041C000E10082E08093AC031092A8038091E100AB
:1041D0008E7F8093E1008091E2008E7F8093E200E9
:1041E0008091E20080618093E20042E060E080E044
:1041F0000E944B1F8091F00088608093F0000E9425
:10420000991CFF91EF91BF91AF919F918F917F91F9
:104210006F915F914F913F912F910F900FBE0F9033
:104220001F90189519BC1092AC030E94961C70CF79
:104230008091E30087FD93E09093AC03B3CF1F928E
:104240000F920FB60F9211242F933F934F935F93CA
:104250006F937F938F939F93AF93BF93CF93DF938E
:10426000EF93FF93D091E900DF708091EC00C82FAD
:10427000C17080FDC0E81092E9008091F000877F56
:104280008093F00078940E9463211092E90080915D
:10429000F00088608093F000CD2BCF70C093E900D0
:1042A000FF91EF91DF91CF91BF91AF919F918F914E
:1042B0007F916F915F914F913F912F910F900FBE22
:1042C0000F901F901895AAE2B0E0E9E6F1E20C9495
:1042D00025238DEA93E02091F100FC012193CF0189
:1042E000F3E0853B9F07B9F70E94C81C8091E80066
:1042F00083FF1EC18091AD039091AE039A3008F008
:1043000017C1E92FF0E0EE56FB4D0C9410238038D6
:1043100099F0823809F00CC18091B1038F70873019
:1043200008F006C18093E9008091EB0085FB8827A7
:1043300080F91092E90006C08091A9039091AA0328
:10434000911182609091E800977F9093E8008093AC
:10435000F1001092F1008091E8008E77E5C088238B
:1043600009F4D3C0823009F0E3C08091AF0381111A
:10437000D6C08091B1038F702FEF280F263008F040
:10438000D7C08093E9002091EB0020FFC8C0933094
:1043900031F48091EB0080628093EB00C0C090917B
:1043A000EB0090619093EB0021E030E001C0220F20
:1043B0008A95EAF72093EA001092EA008091EB00D8
:1043C0008860EACF8111B4C01091AF031F7780914C
:1043D000E3008078812B8093E3008091E800877F61
:1043E0008093E8000E947F1F8091E80080FFFCCF4F
:1043F0008091E30080688093E30082E0111183E004
:104400008093AC0395C08058823008F091C08091B1
:10441000AF039091B0038C3D23E09207A1F583E0B8
:104420008A838AE289834FB7F894DE01139620E0ED
:104430003EE051E2E32FF0E050935700E49120FF7B
:1044400003C0E295EF703F5FEF708E2F90E0EA308F
:10445000C0F0C7968D939D932F5F243159F74FBFBE
:104460008091E800877F8093E8006AE270E0CE01E7
:1044700001960E948E1E8091E8008B778093E80061
:1044800057C0C096E7CF6091B1037091B203AE01FF
:104490004F5F5F4F0E94C91DBC01892B09F448C0C2
:1044A0009091E800977F9093E80089819A810E941B
:1044B000EC1EE1CF8038E1F58091E800877F8093A2
:1044C000E8008091A8038093F10045CF811130C0AE
:1044D0009091AF03923060F58091E800877F8093E0
:1044E000E8009093A8030E947F1F8091A80388236F
:1044F00011F084E005C08091E30087FDFACF81E0F0
:104500008093AC030E94B31C13C08091AF03813031
:1045100079F481E0933009F080E08093AA0310924F
:10452000E9008091E800877F8093E8000E947F1F68
:104530008091E80083FF0AC08091E800877F809324
:10454000E8008091EB0080628093EB00AA96E3E0A4
:104550000C9441230895CF938091AC038823A1F05C
:10456000C091E900CF709091EC00892F817090FD8F
:1045700080E8C82B1092E9008091E80083FD0E943A
:104580006321CF70C093E900CF910895AA1BBB1B94
:1045900051E107C0AA1FBB1FA617B70710F0A61B43
:1045A000B70B881F991F5A95A9F780959095BC0164
:1045B000CD01089597FB072E16F4009407D077FDE0
:1045C00009D00E94C62207FC05D03EF49095819543
:1045D0009F4F0895709561957F4F0895A1E21A2E1F
:1045E000AA1BBB1BFD010DC0AA1FBB1FEE1FFF1F97
:1045F000A217B307E407F50720F0A21BB30BE40BE7
:10460000F50B661F771F881F991F1A9469F760952D
:104610007095809590959B01AC01BD01CF010895E7
:10462000EE0FFF1F0590F491E02D09942F923F9219
:104630004F925F926F927F928F929F92AF92BF92B2
:10464000CF92DF92EF92FF920F931F93CF93DF935E
:10465000CDB7DEB7CA1BDB0B0FB6F894DEBF0FBEBB
:10466000CDBF09942A88398848885F846E847D8408
:104670008C849B84AA84B984C884DF80EE80FD800A
:104680000C811B81AA81B981CE0FD11D0FB6F89480
:10469000DEBF0FBECDBFED0108958F929F92AF9206
:1046A000BF92CF92DF92EF92FF92CF93DF93EC0114
:1046B000688179818A819B816115710581059105E8
:1046C00021F464E279ED8BE597E02DE133EF41E0F1
:1046D00050E00E941A2449015A019B01AC01A7EA4B
:1046E000B1E40E9439246B017C01ACEEB4EFA5016A
:1046F00094010E944724DC01CB018C0D9D1DAE1D51
:10470000BF1DB7FF03C00197A109B04888839983F3
:10471000AA83BB839F77DF91CF91FF90EF90DF90CB
:10472000CF90BF90AF909F908F9008950E944D239F
:10473000089580E091E00E944D230895B0E0A0E04C
:104740008093000190930101A0930201B0930301B3
:104750000895FB01DC0102C005900D9241505040CC
:10476000D8F70895FB01DC0104C08D9101908019F8
:1047700021F441505040C8F7881B990B0895FB0164
:10478000DC0102C001900D9241505040D8F70895CD
:10479000DC01CB01FC01F999FECF06C0F2BDE1BD01
:1047A000F89A319600B40D9241505040B8F70895F0
:1047B000F999FECF92BD81BDF89A992780B50895E9
:1047C000A8E1B0E042E050E00C94CA23DC01A40F61
:1047D000B51F4150504048F0CB01840F951F2E91DA
:1047E0000E94F72341505040D0F70895262FF999A1
:1047F000FECF92BD81BDF89A019700B4021639F040
:104800001FBA20BD0FB6F894FA9AF99A0FBE089510
:104810000396272F0E94F7230E94F623252F0E943C
:10482000F723242F0C94F7230196272F0E94F723B8
:104830000C94F623052E97FB1EF400940E9431245D
:1048400057FD07D00E94EE2207FC03D04EF40C94D3
:10485000312450954095309521953F4F4F4F5F4FF4
:10486000089590958095709561957F4F8F4F9F4FDC
:1048700008950E944C24A59F900DB49F900DA49F75
:10488000800D911D11240895B7FF0C9439240E94C6
:104890003924821B930B0895A29FB001B39FC001DE
:1048A000A39F700D811D1124911DB29F700D811D5C
:1048B0001124911D0895F894FFCFD109D109210A3F
:1048C000210A860A000A000A000AA20A130B220B18
:1048D000220B7017E4177817421746177C174A17F0
:1048E00080178C175617DD175A1790175E179417F5
:1048F000BC1762179817C31768179E17A6174E178D
:104900008417521788176C17A217B217CC17DB172A
:104910003C177417EB1775187B1864186F188118FB
:1049200087188D188721AF219822AF219822E22184
:08493000032298225A2266229C
:1049380001000000FF0000FF010000FF33035303E4
:1049480000000100691A721C6B1C3F1C641CE20009
:10495800E900EA00B500B600B700CD008301CC003D
:104968008A019201940121022302240225022602CF
:1049780027022A02B300B4006F0070009F01CB0128
:104988009F02A002818283E200E900EA00B500B636
:1049980000B700CD008301CC008A01920194012167
:1049A80002230224022502260227022A02B300B4A7
:1049B800006F0070009F01CB019F02A002818283DB
:1049C800F59531323393926766363534979694F17C
:0649D800F0C6F4F6F70042
:00000001FF
