:10000000AEC20000E5C20000E3C20000E1C2000091
:10001000DFC20000DDC20000DBC20000D9C2000068
:10002000D7C20000D5C200000C9435230C940124E3
:100030000C949E1ECDC20000CBC20000C9C20000BD
:10004000C7C20000C5C20000C3C20000C1C2000098
:10005000BFC200000C94151FBBC20000B9C2000053
:10006000B7C20000B5C20000B3C20000B1C20000B8
:10007000AFC20000ADC20000ABC20000A9C20000C8
:10008000A7C20000A5C20000A3C20000A1C20000D8
:100090009FC200009DC200009BC2000099C20000E8
:1000A00097C2000095C2000093C20000167C1E009B
:1000B0001F0020002100220023002400250026002C
:1000C00027002D002E002A004C002B0000001400F9
:1000D0001A000800150017001C0018000C00120080
:1000E00013002F003000310039000000040016001A
:1000F000070009000A000B000D000E000F0033007E
:10010000340028000000E10064001D001B00060010
:100110001900050011001000360037003800E50016
:1001200052002152E000E3000000E2002C00000039
:100130002C0000002C000000E600E40050005100FC
:100140004F0035003A003B003C003D003E003F00C0
:10015000400041004200430044004500010001000E
:1001600001000000207821782378247825782678EB
:10017000277828780100010001000100007C0100BF
:100180000000010001000100010001000100010068
:100190000100010001000100010000000100010058
:1001A000010001000378027804780578010001005D
:1001B0000100010001000100010001000100000038
:1001C000010001000000010000000100000001002A
:1001D00001000100010001001E0F0500047F3F1F08
:1001E000643214643214783C1E1E140A052223253E
:1001F0002628292A2C2D2F3032333536383A3B3DEC
:100200003E4042434547494A4C4E50515355575939
:100210005A5C5E6062646668696B6D6F7173757756
:10022000797B7D7F81838587898A8C8E9092949655
:10023000989A9C9E9FA1A3A5A7A8AAACAEAFB1B364
:10024000B4B6B8B9BBBCBEBFC1C2C3C5C6C7C9CAB4
:10025000CBCCCDCED0D1D2D2D3D4D5D6D7D7D8D976
:10026000D9DADADBDBDBDCDCDCDCDCDDDDDDDDDCD4
:10027000DCDCDCDCDBDBDBDADAD9D9D8D7D7D6D5E6
:10028000D4D3D2D2D1D0CECDCCCBCAC9C7C6C5C3A8
:10029000C2C1BFBEBCBBB9B8B6B4B3B1AFAEACAAF5
:1002A000A8A7A5A3A19F9E9C9A98969492908E8CA5
:1002B0008A89878583817F7D7B79777573716F6D7F
:1002C0006B6968666462605E5C5A59575553515059
:1002D0004E4C4A4947454342403E3D3B3A3836350D
:1002E0003332302F2D2C2A292826252322FFAA7FBE
:1002F0005540000101010101010101010202020258
:1003000002020202020303030303030303040404BF
:100310000404040405050505050606060606070788
:1003200007070708080808090909090A0A0A0B0B40
:100330000B0C0C0C0D0D0D0E0E0E0F0F0F101011DF
:100340001111121213131414151516161717181865
:1003500019191A1A1B1B1C1D1D1E1E1F20202122CD
:1003600022232424252626272829292A2B2C2D2D13
:100370002E2F30313232333435363738393A3B3C30
:100380003D3E3F404142434445464748494A4C4D23
:100390004E4F50515354555658595A5B5D5E5F61EC
:1003A0006264656668696B6C6D6F7072737577787F
:1003B0007A7B7D7E8082838587888A8C8E8F9193DD
:1003C0009596989A9C9EA0A2A3A5A7A9ABADAFB104
:1003D000B3B5B7BABCBEC0C2C4C6C9CBCDCFD1D4E9
:1003E000D6D8DBDDDFE2E4E7E9EBEEF0F3F5F8FA8F
:1003F000FDFF0E0344005A00360030007600320044
:1004000000000E0344005A00540045004300480019
:1004100000000403090409023B00020100A0FA09DC
:10042000040000010301010009211101000122441F
:100430000007058103080001090401000103000011
:100440000009211101000122B600070582032000E6
:100450000112010002000000085A4461220200015A
:1004600002000105010902A10185020901A100059F
:100470000919012908150025019508750181020552
:1004800001093009311581257F950275088106091A
:10049000381581257F950175088106050C0A3802FB
:1004A0001581257F950175088106C0C00501098069
:1004B000A101850319012AB700150126B70095018E
:1004C00075108100C0050C0901A101850419012ADC
:1004D000A002150126A002950175108100C005013A
:1004E0000906A1018506050719E029E71500250180
:1004F0009508750181020507190029EF15002501EE
:1005000095F0750181020508190129059505750108
:100510009102950175039101C005010906A101052C
:100520000719E029E7150025019508750181029555
:1005300001750881010507190029FF150026FF0034
:100540009506750881000508190129051500250182
:10055000950575019102950175039101C000112463
:100560001FBECFEFDAE0DEBFCDBF04B603FE19C079
:100570008091AA039091AB03A091AC03B091AD031D
:100580008730904BA740B04B61F41092AA031092B1
:10059000AB031092AC031092AD03E0E0F8E30995D1
:1005A00000C011E0A0E0B1E0E4EFFEE402C005907D
:1005B0000D92A43EB107D9F723E0A4EEB1E001C04B
:1005C0001D92AA3AB207E1F70E947C110C941B27F6
:1005D00017CD8230E0F46530D0F44F30C0F450E0F5
:1005E0009FE0699F400D511D112490E091958195E8
:1005F00091098B7490E0FC01E40FF51FEE0FFF1FD3
:10060000E455FF4F85919591282F822F089521E081
:1006100090E0FBCFDECF089581E0089581E008955A
:10062000FBCF089581E0089581E00895FDCF0895FE
:1006300008950895FDCF089508950895A6E0B0E0C7
:10064000E4E2F3E00C94242649835A839E8330919C
:10065000EB0189819A81311117C03E81311589F0F2
:10066000211579F013D5182F682F89819A81EDD43F
:1006700069817A81812F0E94540E2696E3E00C94C2
:100680004026F4D4182FF4CF01D569817A81F3CFB5
:10069000FC01262F40815181628173818481958183
:1006A000CDCFCF93DF93EC0161E0F2DFBE01B6DF87
:1006B000811529F061E0CE01EBDFBE01B1DFDF91F2
:1006C000CF9108950F931F93CF93DF93EC0160E0D8
:1006D000DFDF8C01BE01ADDFBE01C801ABDFDF9102
:1006E000CF911F910F9108950F931F93CF93DF9395
:1006F000EC0161E0CDDF8C018D8181110E94C71773
:10070000BE01C8018FDF811106C080E0DF91CF916B
:100710001F910F910895BE01C80188DF8115A9F3CB
:10072000BE01C8010E94E11B811579F3BE01C80119
:100730000E945818811549F3BE01C8010E942F1864
:10074000811519F3BE01C8010E9492118115E9F2C9
:10075000BE01C8010E94570F8115B9F2BE01C80140
:100760000E94690F811589F2BE01C8010E94830FA2
:10077000CDCF21E030E002C0220F331F8A95E2F78F
:10078000C9019EC3CF93C82F81E090E00C2E02C018
:10079000880F991F0A94E2F70E94660C8C2FE9DFFC
:1007A000CF91089581E0089581E00895FBCF0895E9
:1007B000CF93C82F34D38C2FF7DF8C2FF7DF8FEF39
:1007C00094E32CE0815090402040E1F700C000000D
:1007D000CF91089581E0ECDF0C94391F80E0E8DFD1
:1007E0000C945D1F29DF0E94371E1EC01FD025DF1D
:1007F0000C943B1E81E0089581FF02C0769A089513
:1008000076980895CF93DF93D82FF4DFC82F811502
:1008100011F08D2FF1DF8C2FDF91CF9108956E9A1B
:1008200076980895EFCF089580E0FCCF0E942F1CAA
:10083000F9CFCF930E942F1CC82F8091E6018C170F
:1008400071F0C093E6010E94091F6093E701709365
:10085000E8018093E9019093EA018C2FE3DFCF91C7
:100860000895ADE0B0E0E7E3F4E00C942526488776
:1008700059876A877B878C879D87911115D71F823F
:1008800086E0FE0138969E012F5F3F4FD90101900F
:100890000D928A95E1F78D8181110CC029813A81F1
:1008A0004B815C816D817E818F8149D62D96E2E0FE
:1008B0000C944126CE010196F4DE8111EFCFF6CFE4
:1008C000FC012481213019F48081918112C40895A2
:1008D000611521F00E94B4190C94691A0E94F41950
:1008E000FBCFCF93C82F811581F08450813A78F4E3
:1008F0008C2F0E94E31C811521F08C2F0E94801DFB
:100900005ED78C2F0E94691D5AD7CF9108958C2FE6
:10091000805E883048F481E0C1FD84E0C0FD880F2E
:10092000C2FD8295A2D6F0CF8C2F855A833030F449
:100930008C2F8452990B0E946F1CE7CFEC2FE85A42
:10094000EB3150F4F0E0EE0FFF1FEF5CFE4F8081C3
:1009500091810E94961CD9CF8C2F8D5C8331A8F693
:1009600061E08C2FB5DFD1CF811559F1982F9450CC
:10097000913A18F40E94801D22C7982F905E9830FB
:1009800050F4982F81E091FD84E090FD880F92FD56
:10099000829571D6F1CF982F955A933020F480E04C
:1009A00090E00C946F1C982F985A9B3120F480E0B3
:1009B00090E00C94961C982F9D5C933110F460E0AD
:1009C00087CF08951F93CF93DF93182FEB0189DF13
:1009D000209731F4812FC8DFDF91CF911F910895C7
:1009E0008FE99FE00197F1F700C000002197F0CF59
:1009F00060E570E0893311F060E070E0E3CF8115CD
:100A000011F033D6DCC60895811511F034D6D7C65F
:100A10000895A0E0B0E0EFE0F5E00C941F266C0133
:100A2000D62FC72FFC011581068102950F7012D6B3
:100A3000E82E8115E9F0E12E1115D1F08C2F807F81
:100A4000803461F08D2F805E8830E0F08C2F807EC6
:100A5000803221F4D230B0F00115A1F080914C0326
:100A600082FF10C082E0CFD6F5D591E08927E82E2D
:100A7000EC2FE295EF70C03C78F5F0E0E35EF84DC6
:100A80000C94FF25E12CF4CF0C2F0F70C03110F027
:100A90000295007F111581F0011549F08D2F805EC0
:100AA000883010F0D11105C0802FDFD588D68D2F6A
:100AB00040C0802FEBD5FACF8D2F56DF011561F0A6
:100AC0008D2F805E883010F0D11103C0802FD3D5D8
:100AD00002C0802FE1D573D6E11409F4B3C0B6D5B6
:100AE00080FDB0C0F6011582ABD51AD2C60168D11F
:100AF000A7D524D2A7C08C2F8F70F82EC07FC0320C
:100B000019F0F29480EFF822D13038F079F1111514
:100B100009F438C00115C9F0CACF80914C0382FD99
:100B200010C0111541F0F11419F08F2D9ED547D644
:100B300080E0D7DED1CF80E017DFF11469F28F2D8E
:100B4000C6CF111551F0013018F48F2D58DFC4CFE6
:100B500009F0C2CF8F2DBCD5BFCF0111BDCF8F2DD6
:100B600053DF8F2DC0D58F2DA5D5B6CF111521F010
:100B7000063008F0B1CFE9CF053008F0ADCF8F2DAA
:100B800043DFAACF0115D9F3D93349F48FEF97EE9C
:100B900023E0815090402040E1F700C000008D2FFD
:100BA000E3DE9ACF8C2F869586958370813060F036
:100BB00009F092CF8D2F9C2F9370111102C080E00D
:100BC00090E00E94961C88CF8D2F9C2F937011115E
:100BD00002C080E090E00E946F1C7ECF612F8D2FBD
:100BE00077DE7ACF8C2F8370C1F5111128C04D2F7D
:100BF000429546954770440F440F2D2F2F7030E0DB
:100C0000042E02C0220F331F0A94E2F780E090E026
:100C1000D4FF09C08FE090E002C0880F991F4A9569
:100C2000E2F780959095C695C695C370822B932B5D
:100C3000C23079F0C33079F0C13049F04AD10E9416
:100C40002F1CF0DDCDB7DEB7E8E00C943B263AD19F
:100C5000F6CF46D1F4CF34D1F2CF111559F1C0FF00
:100C6000EECF4D2F429546954770440F440F2D2FE0
:100C70002F7030E0042E02C0220F331F0A94E2F7D7
:100C800080E090E0D4FF09C08FE090E002C0880FC0
:100C9000991F4A95E2F780959095C695C695C370C1
:100CA000822B932BC23061F0C33061F0C13031F040
:100CB0006AD1C5CF823008F4C2CFD3CF5DD1BFCFC8
:100CC00069D1BDCF1AD1BBCFCF70111529F08C2FB0
:100CD00027D18D2F94DEB3CF8D2F96DE8C2F2ED182
:100CE000AECFD23F31F168F4D03FC1F0D13F89F0AF
:100CF000111509F43EC0011509F438C08D2FF1DD3E
:100D00009ECFD33FE1F0D43F99F780914C0382FD11
:100D10001EC08C2F8F71111511F30FC0111539F0F2
:100D2000053008F08CCF8C2F8F7118D188CF06300A
:100D3000F8CF8C2F8F711111D2CFF2D080CF111537
:100D400021F08C2F8F71E3D07ACFDED078CF1115C0
:100D500029F063E08C2F8F713FD571CF81E053D59F
:100D6000023008F46CCF82E04ED569CF8C2F8F71A2
:100D7000E4CF011571F0D93349F48FEF97EE23E0FA
:100D8000815090402040E1F700C000008D2FECDD45
:100D900056CF8C2F8F71A3CF0F931F93CF93DF93D9
:100DA000EC01688179818D81ADD18C01FAD087D039
:100DB000B801CE012EDEDF91CF911F910F910895E2
:100DC000CF93DF93EC018C81811581F0CE018CDC17
:100DD00081110FC03FD4811549F08D81811531F00B
:100DE00080914C0382FF02C082E00DD5DF91CF914C
:100DF0000895CE01D1DFCE0165DCF8CF80E090E030
:100E00000E946F1C80E090E00E94961C4DD4D7D4C5
:100E10000E94821A0C94691A0E94971DEFCF33D456
:100E2000FBCF282F92959F70963099F060F4925FD7
:100E30009F70923030F4203FB1F038F481E0283ECA
:100E400038F080E008959A5FF3CF81E0243FC9F73E
:100E5000089591E0813F09F090E081E0283E08F09C
:100E600080E0892B089581E00895FC0124812115FB
:100E700021F0808191813DD1D4CF80E00895A6E01A
:100E8000B0E0E5E4F7E00C9425262696E2E00C9429
:100E90004126A7E0B0E0EFE4F7E00C942526279682
:100EA000E2E00C9441260895FECF0895FDCF089509
:100EB000FADFFCDF809316029093170208950895DD
:100EC000F7CF08952091160230911702822B932BB1
:100ED000EFCF209116023091170282239323E8CF9F
:100EE000209116023091170282279327E1CFDBCFA2
:100EF0000895FDCF0895D7CF0895FDDFFADF8093E1
:100F0000140290931502089580E090E0F6CF21E05E
:100F100030E002C0220F331F8A95E2F7C901EDCFFE
:100F200021E030E002C0220F331F8A95E2F7809162
:100F3000140290911502822B932BDFCF21E030E039
:100F400002C0220F331F8A95E2F7209530958091D9
:100F500014029091150282239323CFCF21E030E039
:100F600002C0220F331F8A95E2F7809114029091FC
:100F7000150282279327C1CF2091140230911502C8
:100F8000822B932BBACF2091140230911502822329
:100F90009323B3CF20911402309115028227932717
:100FA000ACCF0895CF93C1E061FDC4E060FDCC0FEC
:100FB00062FDC29593E0769567959A95E1F7660F85
:100FC000771F660F771F460F571FFA0140E050E06A
:100FD00090E06191DF019C01042E02C036952795B7
:100FE0000A94E2F72695220B26272C2326272E93F8
:100FF0004F5F5F4F4430510561F7CF910895A82F9F
:10100000A77023E0969587952A95E1F7880F991F99
:10101000880F991F680F791FFB0140E050E080E0C6
:10102000219130E00A2E02C0369527950A94E2F706
:101030002170042E01C0220F0A94EAF7822B4F5F21
:101040005F4F4430510561F70895262F953068F4BD
:101050008F3058F4682F70E08FE0989F600D711DFD
:1010600011244CEE51E0822F9DCF0895292F953009
:1010700058F48F3048F490E06CEE71E03FE0239F2D
:10108000800D911D1124BBCF80E00895CF92DF9297
:10109000FF920F931F93CF93DF936C010091140283
:1010A000109115028091160290911702082B192BAE
:1010B000CFE0D0E081E090E00C2E02C0880F991FB5
:1010C0000A94E2F780239123892B61F4219790F70A
:1010D000F12C8F2DDF91CF911F910F91FF90DF9019
:1010E000CF900895FC2EB6018C2FE9D5019771F3AE
:1010F000F0CFCF93DF93EC01C9DFBE01E0D5DF91E4
:10110000CF9108951F93CF93DF93EB019091EB0163
:10111000911531F0CB01EDDFDF91CF911F91089553
:10112000811551F0CB01B2DF182F682FCE018DDF72
:10113000BE01812FC4D5F0CFCB0198DF182FF8CF97
:101140000F931F930091180280911902801303C01E
:101150001F910F91089587E0089FF0011124E65E2A
:10116000FD4F208131814281538164817581868167
:1011700090DE0F5F1F4F0770E7CF20915202309132
:101180005302409154025091550260915602709161
:101190005702809158027DCE80915802803170F4C0
:1011A00080915702811551F0E091180220911902A7
:1011B00030915302409152022E1301C00895BF0195
:1011C00087E0E89FF0011124DF01A65EBD4F149671
:1011D0008C911497811549F111968C911197831375
:1011E00024C08C91841321C015968C911597811180
:1011F0001CC012968D919D91A0915402B091550200
:101200008A1B9B0B883C910580F4809158028F705B
:10121000806180935802E05EFD4F80818F70806115
:10122000808382E592E0CCDD8BCF6F5F7F4FFB0147
:10123000E770C2CFE091180290911902E91302C041
:1012400080E008959F0157E0E59FF0011124E65EDC
:10125000FD4F5181561306C05081581303C055816C
:10126000541305C02F5F3F4FF901E770E7CF81E0CE
:1012700008958F929F92AF92BF92DF92EF92FF926A
:101280000F931F93CF93DF93CDB7DEB72D970FB694
:10129000F894DEBF0FBECDBF8C0186E0F801DE0101
:1012A000189601900D928A95E1F7F801F5808481F6
:1012B00092E5892E92E0992E90915602911117C0D5
:1012C000811509F4EFC0F11409F42EC1C801CDDD78
:1012D000811509F429C187E0F801D40101900D922C
:1012E0008A95E1F7C401ECDA57DF47DFDBC0E08025
:1012F000A280B380D09057022091540230915502C1
:10130000A501421B530BD11409F4CFC0483C510531
:1013100008F09EC0811509F4C5C0909153029180D8
:1013200080915802803108F065C0991226C09091D2
:1013300052029E1122C0F11057C08F7080618093BD
:1013400058021BDF82E592E03BDD80915802F801F4
:101350008683F12C8F2D2D960FB6F894DEBF0FBE2D
:10136000CDBFDF91CF911F910F91FF90EF90DF9054
:10137000BF90AF909F908F900895F11035C040E0DE
:10138000692D8E2D57DF40E0692D8E2D53DFF82E0D
:101390008111DFCF88859985ACDE292F22952F70AA
:1013A000903450F49F70223078F0911591F0F8014C
:1013B0009681903170F4CECF2A5F2F70223070F07A
:1013C000C801FEDCFD2CC6CF911519F0811509F47A
:1013D000C1CF805E883008F4BDCFF2CF803F08F4E3
:1013E000B9CF815F8330F7CF8091580281608093BD
:1013F0005802AFCF991207C0909152029E1103C0BC
:10140000F11409F473C0C80130DD811509F48CC0F2
:10141000F11409F489C080915802803280F0209143
:1014200052023091530229833A83AB82BC8290915D
:1014300056029D831E828F83CE010196C1DC87E018
:10144000F801A2E5B2E001900D928A95E1F74CCF48
:1014500090915802903188F4488559856A857B853A
:101460008C859D850CDD82E592E0AADCF40187E0A5
:1014700011928A95E9F781DE6CCF811599F0209160
:10148000530281812813BFCF809152028E11BBCFAE
:10149000F110B9CF9683C80193DCF40187E0119273
:1014A0008A95E9F7FF24F39455CF483C510508F09D
:1014B0003EC08115B9F3F114B9F1909153028181C5
:1014C000981329C0809152028E1125C08091580234
:1014D00080FD18C08031B0F08683807F803F39F076
:1014E0008681982F907F905F8F70892B8683C801AB
:1014F00067DC87E0F801A2E5B2E001900D928A95E1
:10150000E1F7F3CE87E0F801A2E5B2E001900D9299
:101510008A95E1F7C7CFC801A8DC811190CF8091EF
:101520005802816080935802C8014ADCBBCF4885CD
:1015300059856A857B858C859D85A1DC97CFAEE03A
:10154000B0E0E5EAFAE00C942426288739874A8738
:101550005B876C877D878E87CE0108968ADE6C85D7
:10156000811599F0611539F0288539854A855B85A3
:101570007D858E858EDC80911802909119028913E9
:101580003DC02E96E3E00C94402687E09E01285F44
:101590003F4FF90127503109D90101900D928A95E9
:1015A000E1F7611541F3A09119028A2F90E083952C
:1015B000877090E0AC01209118022417150691F075
:1015C00097E09A9FD0011124A65EBD4F9E012F5F28
:1015D0003F4FF90101900D929A95E1F7409319025E
:1015E000AFDDC9CF1CDC1092190210921802E2E59F
:1015F000F2E087E011928A95E9F7BDCF17E0189FD6
:10160000C0011124865E9D4F34DE811509F4B9CFE7
:10161000E09118021E9FF0011124E65EFD4F20812B
:1016200031814281538164817581868132DC809170
:1016300018029091190201968770809318029BCF2F
:101640008091810286958695869508958091810284
:101650008770089590918102977081E0911101C087
:1016600080E008958091AD0208959091AD02982B8D
:101670009093AD0208958095982F8091AD028923B3
:101680008093AD0208951092AD0208959091AC023E
:10169000982B9093AC0208958095982F8091AC027E
:1016A00089238093AC0208951092AC0208950895A6
:1016B000FECF089590918202292F282329F080954A
:1016C000892380938202F4CF08950895FECF089570
:1016D00090918302292F2823281721F0982B90938B
:1016E0008302F4CF089590918302292F282329F0B3
:1016F0008095892380938302E9CF089580918302A6
:10170000811521F01092830280E0E0CF0895CF93FD
:10171000C091AD028091AC02C82B809183028115EB
:1017200029F0C82B0E94BD1C8111E8DF8C2FCF91BE
:101730000895CF93DF93C0910601D0910701E7DFB1
:101740008883C0910601D091070148E050E069E725
:1017500072E0CE010E94AC26892B59F088E0FE0190
:10176000A9E7B2E001900D928A95E1F7CE010E94BF
:101770003E1CDF91CF910895CF93DF93C091040178
:10178000D0910501C4DF8983C0910401D091050186
:1017900040E250E069E572E0CE010E94AC26892B60
:1017A00059F080E2FE01A9E5B2E001900D928A9520
:1017B000E1F7CE010E944B1CDF91CF9108950E946A
:1017C000281C811529F080914B0387FF01C0D4CFDD
:1017D000B0CF0895FECF089590914C0392FF0EC0B4
:1017E000982F990F990F990F962B9093810298DB60
:1017F00080918102869586958695ECCF91CB10924B
:10180000810280E0E7CF90918102809589238093C7
:101810008102282F277059F4891749F090914C03C1
:1018200092FF05C086958695869588DBE8CF08955A
:1018300090914C0392FB222720F9281749F080FB56
:1018400092F990934C038BE493E044D082E0DBCF99
:10185000089580914C03002482FF0394802DE8CFEB
:1018600081E0E6CF80E0E4CF80E090E0BC01FFC300
:1018700080E090E0BC01F5D3F7CFA3E0B0E0E3E473
:10188000FCE00C94252659D364D31B82CE01039629
:1018900077D381E090E080931602109217027CD3F8
:1018A000198284E18A83CE01019687D335D6E0DFA1
:1018B0002396E2E00C944126E0CF089550C30895AA
:1018C0003DC3089552C3089561C3089565C3089543
:1018D00068C3089572C3089577C30895A9C308958E
:1018E000CCC30895A6E0B0E0E8E7FCE00C94232622
:1018F0000E94FD1E8C018091AE029091AF02801774
:10190000910779F019821A820E94FD1EBC0149815B
:101910005A8180E090E00E9431040093AE0210935F
:10192000AF022696E4E00C943F260E94091F6093C4
:10193000B4027093B5028093B6029093B70260939D
:10194000B0027093B1028093B2029093B3020895F3
:1019500008950895FDCF08950895FEDFFBCF089503
:10196000FECF08950895FEDFFBCF85E59FE0D5D437
:10197000F0DFF3CF81E0089581E00895FBCF089573
:10198000089508950895FCDFFCDFFCCF99DF8111F5
:1019900001C092DF88EB92E095DF8BE493E098DF63
:1019A0000E942D1891DF8CDA80911402909115021B
:1019B000A0CA0E94F41E19D4E9DF0E94261C0E94CE
:1019C0000F040E94FC16CFCFA6E0B0E0EAEEFCE0E8
:1019D0000C941926D1DF81110DC084DF0E94271CD1
:1019E0000E94C8170E94A31A0E9419042696EEE0CE
:1019F0000C94352609D421E4822E23E0922E740122
:101A000010E0F701C080D180812F42D31F5F1530D5
:101A100009F450C022E0E20EF11CC816D90689F381
:101A20008091B80281FD3DD3A9DF682E10E0812F9F
:101A30002FD37C01F401A190B1904F018A159B0531
:101A400099F1A826BF2400E091E0C92ED12CC50150
:101A50008C219D21892B01F177247394C7018C215E
:101A60009D21892B09F4712C611489F0602F812F3D
:101A70000E945F1E81110BC009831A830E94FD1E04
:101A8000BC0149815A8181E0972D0E943104472D84
:101A9000602F812F0E94761E0F5FCC0CDD1C0F3053
:101AA000B1F6F401F292E2921F5F153009F0BFCF58
:101AB0003CDF94CFC816D90609F0B2CF8ECF0F9372
:101AC0001F93CF93DF93FDD0EC01D23508F050C0C7
:101AD000D03508F0C8C0C03ED10530F5CD3CD105A9
:101AE00008F09DC0C83AD10578F4C53AD10508F090
:101AF00093C0C130D105B1F1CE010497813A91056F
:101B000088F1C0E0D0E02EC0CE01885A91094B97F1
:101B1000C0F7C85AD0E0CC0FDD1FC959DE4F09907D
:101B2000D881C02DD4641EC0D034A8F4D03208F0BF
:101B3000ADC0C83ED105B0F0CE0191509F3108F73D
:101B40008D2F62D1082F8C2F90E0BBD0D02FDF716A
:101B5000C82FD92B07C08C2F90E0B3D0DF70C82FCF
:101B6000D92BD06ACE01DF91CF911F910F910895AB
:101B7000C03882E5D807B8F5C03682E5D80708F046
:101B800056C0C03482E5D807C8F4C03282E5D80711
:101B900008F047C08C2F8695869520E2829FC00171
:101BA0001124C37021E030E002C0220F331FCA9518
:101BB000E2F7E901C82BD92BDD68D4CF8C2F8695AD
:101BC0008695877020E2829FC0011124C37021E0B6
:101BD00030E002C0220F331FCA95E2F7E901C82B9B
:101BE000D92BDC68BFCFC03C82E5D80750F48C2FDE
:101BF0008F71C03AD24580F5982F84EF906AEC013E
:101C0000B1CFCE01805C9245809708F07ACFDC2F6F
:101C1000DF71C0EFD06AA6CFA497D064A3CFD06500
:101C2000A1CF8C2F8F71D82FC1EFD06A9BCF8C2F73
:101C300086958695877020E2829FC0011124C3702B
:101C400021E030E002C0220F331FCA95E2F7E9011C
:101C5000C82BD92BDA6886CFD7D0982F80E09F7118
:101C6000EC01D0627FCF8C2F8F71CED053E0CC0FA0
:101C7000DD1F5A95E1F7DF70282F84FF04C090E143
:101C8000899F90011124C22FD0696CCF8D2F8F7145
:101C9000BBD0082F8C2F90E014D0302F3F71282F0D
:101CA000392B3062E9015ECF462F753028F46F3052
:101CB00018F4672F0C940A0380E090E00895F4DF95
:101CC000FECE803E9105D1F1C8F48133910509F42F
:101CD00081C048F48932910509F471C08A329105B6
:101CE00009F47FC0089589339105E1F082389105A8
:101CF000C9F08533910509F45DC00895843E9105CE
:101D0000D1F148F4823E910531F1833E910541F1D4
:101D100081EE90E00895863E9105C1F1873E9105E0
:101D2000F1F1089520914B03237009F064C02091D4
:101D30004C0323FF14C089E290E0089520914B03E7
:101D400020FD45C030914C0330FF09C024FD24C064
:101D500083EE90E0089520914B0322FDF7CF089584
:101D600020914B0322FD44C030914C0330FD43C011
:101D700024FFF5CF11C020914C0321FFF0CF8091BB
:101D80004B0384FD09C087EE90E0089520914B033A
:101D900023FFE5CF24FFF7CF80E090E00895209166
:101DA0004B0323FD2BC030914C0331FFE1CF84EE78
:101DB00090E0089520914B0325FFD1CFBCCF209117
:101DC0004B0325FD1EC020914C0323FFC8CF89E3A0
:101DD00090E0089520914B0326FFC1CF8AE290E066
:101DE000089520914B0326FFBACF81E390E0089538
:101DF00082EE90E0089580EE90E0089586EE90E007
:101E0000089585E390E0089590914B0392FF10C0F0
:101E100041E0282F2471243009F040E031E0282FE0
:101E20002871283009F030E0431711F02CE08227A8
:101E300093FF10C041E0282F2471243109F040E0C5
:101E400031E0282F2871283109F030E0431711F0D4
:101E50002CE0822730914C0330FF10C051E0282F36
:101E60002171213009F050E041E0282F28712830FD
:101E700009F040E0541711F029E0822731FF10C02B
:101E800041E0282F2171213109F040E031E0282F75
:101E90002871283109F030E0431711F029E082273A
:101EA00094FF02C083FD877E089580E00895CF935C
:101EB0009C01205E3245C1E02032310538F4FB013F
:101EC000C581C11103C08F710E94C2038C2FCF91B5
:101ED00008959C01FB018581811599F02B359CE7C4
:101EE000390769F02C359CE7390721F02A353C4742
:101EF00021F00895AEDC80E00895B2DCFCCFB2DCC6
:101F0000FACF81E008959C01FB018581811599F04C
:101F100021309CE7390761F023309CE7390739F01D
:101F200021153C4749F40E94EA0380E00895C6DC8D
:101F30000E94EE03FACF81E00895089580E090E0DA
:101F40000E94C6269C0181E0233E3E4F09F080E0BE
:101F5000089563EE7EEF80E090E00C94E5266FEF4D
:101F60007FEF80E090E00C94E526CF93DF93EC01C7
:101F700082E090E00E94B9268883DF91CF91089596
:101F8000FC01608182E090E00C94CB2683E090E03D
:101F90000E94B92690E00895682F83E090E00C94A9
:101FA000CB26CF93DF93EC0184E090E00E94C6261D
:101FB00088839983DF91CF910895FC0160817181BD
:101FC00084E090E00C94E5268F929F92AF92BF92AE
:101FD000CF92DF92EF92FF920F93CF93DF93EC01BA
:101FE00088E090E00E94C1264B015C0168839982E1
:101FF0008A83BB821C821D821E821F8283E290E044
:102000000E94B9269401A50188823983AA825B8344
:102010008C831D821E821F82DF91CF910F91FF90D2
:10202000EF90DF90CF90BF90AF909F908F900895EA
:102030000F93CF93DF93EC01488159816A817B81B3
:1020400088E090E00E94DD266C81262F60E070E041
:10205000CB01622F83E20E94CB26DF91CF910F91BB
:102060000895AB01BC018FE090E00C94DD26AB013C
:10207000BC0183E190E00C94DD26682F8EE090E0B7
:102080000C94CB260895FECF08950895FECF0895B1
:10209000E82FF0E0EE0FFF1FE95AFC4F808191819D
:1020A0000895089580EA8A95F1F7089500C008958B
:1020B000F9CF0895F894E82FE295EF70F0E041A190
:1020C0008F7021E001C0220F8A95EAF7922F909538
:1020D000942391A392A1822F892B82A378940895AF
:1020E000CF93DF93CCEAD1E089918F3F09F0E2DF13
:1020F00081E0C13BD807C1F7CDE9D1E089918F3F9D
:1021000009F0D8DF81E0CC3AD807C1F7DF91CF9151
:102110000895AF92BF92DF92EF92FF920F931F93B9
:10212000CF93DF935C01D62EC62FD0E08E010455ED
:102130001E4FF80180818F3F09F44BC0F894E82FBF
:10214000E295EF70F0E091A18F7021E001C0220FC5
:102150008A95EAF7892F822B81A382A120952823D3
:1021600022A37894A3DFEDE9F1E021E030E0E12C57
:10217000F12C41914F3F79F0A42FA295AF70A05E52
:10218000B0E08C9190E04F7002C0959587954A958C
:10219000E2F780FF28C080E090E0E82AF92A220FC9
:1021A000331F81E0EC3AF80721F7F80180818F3F77
:1021B00009F080DF61E0E114F10409F460E08D2DA5
:1021C00077DFCC0FDD1FC5018C0F9D1FEC01E8826E
:1021D000F982DF91CF911F910F91FF90EF90DF90E7
:1021E000BF90AF900895C901D8CF7ADFE7E5F3E05B
:1021F0008AE011928A95E9F7EDE4F3E08AE0119222
:102200008A95E9F73CD03FCFAAE0B0E0EAE0F1E1FF
:102210000C942226FE013196DF018AE01D928A95F8
:10222000E9F710E00E2FFF2E612F802F9F2D71DF19
:10223000812F8F5F182F8530B9F74AE050E0602F6B
:102240007F2D8DE493E00E94AC2641E0892B69F458
:1022500040E067E573E08DE493E012D0182F16DFBD
:10226000812F2A96E5E00C943E268AE0E02FFF2D90
:10227000ADE4B3E001900D928A95E1F7EACF0895BD
:10228000EF92FF920F931F93CF93DF938C017B010B
:10229000C42F411579F081E08093BB020E94FD1E9E
:1022A0008093B9029093BA0280E0CDB7DEB7E6E042
:1022B0000C943D26D091BB02D115B1F38091B902A7
:1022C0009091BA020E948E1E059770F34AE050E08A
:1022D000B801C7010E94AC26892B41F08AE0F801C1
:1022E000D70101900D928A95E1F7CD2F1092BB0294
:1022F0008C2FDBCF69CB08950E94971E0E948E2001
:1023000034DB0E94A62055DB0E94AF200E94B22041
:10231000F1DF0E94C82037DBF9CF8093E40190936E
:10232000E5010895CF93DF93EC01FB0185818111D5
:1023300004C081E0DF91CF91089594D98272FE01AB
:10234000E052F847EB30F105A0F7E75DF84D0C944B
:10235000FF254AD580E0EECF811521F039D5FACF9F
:102360008115E1F329D5F6CF811521F017D2F2CFEF
:102370008115E1F309D2EECF811521F029D2EACF00
:102380008115E1F318D2E6CF811521F03BD2E2CFDF
:102390008115E1F32AD2DECF811521F0E8D0DACF22
:1023A0008115E1F3D5D0D6CFA0E0B0E0EAEDF1E1C0
:1023B0000C941E26062FB72EE82F71110EC0411562
:1023C00021F0F0E0EE50FD4FE4916E2F7E2F8E2F26
:1023D000CDB7DEB7E9E00C943A26411521F0F0E0E4
:1023E000EE50FD4FE49186E0089FE00111242FEFAD
:1023F00030E0CE01B9010E94B625AB01C801880FBB
:10240000991FF5E5F49FB001F59F700D1124861B0F
:10241000682F660F680FC9018B199109E89FD001D9
:10242000E99FB00D11248B2FB69E60011124CD2C95
:10243000D12C89010C191D096801E09F7001E19FF1
:10244000F00C11244330510551F18901061B11098B
:10245000B09E6001B19ED00C1124CD2CD12C2C1932
:102460003D09E29F8001E39F100D1124712FCC3FA5
:10247000D34050F441305105B1F04230510561F480
:102480007E2FEB2F812F08C04430510579F0463064
:10249000510511F07B2F8F2D6E2FE82F98CF7F2DB8
:1024A0008E2FEB2FF9CF7E2FEF2DF6CF8E2FE12F32
:1024B0007B2FF2CF41E078CF0895FCCF0895909123
:1024C0000B01291B922FE091DE01F091DF01242FF7
:1024D000462F682F892F90E009950895CF93DF93B9
:1024E000762FE901682F842FE8DF962F672F9E0152
:1024F000482F892FE4DFDF91CF9108958091610308
:10250000843028F4837084608093610308958C3A4A
:10251000E8F38370886AF8CF85E0809361031092B6
:1025200062038FEF809363038093640310926503CB
:1025300081E693E0D3C990916503933018F49F5FCF
:1025400090936503811519F081E693E0C7C908955A
:1025500081E0F1CF90916503911519F0915090931E
:102560006503811519F081E693E0B8C9089581E00B
:10257000F1CF0F931F93CF938091610380FF09C028
:10258000E091E201F091E3010995CF911F910F9144
:102590000895C0910D018091DE019091DF018C01C1
:1025A00080910E01C81760F780910B019C2F981B3A
:1025B00020E040E060E0892F90E0F8010995CF5FCE
:1025C000EFCFEF92FF920F931F93CF93DF93D82F0C
:1025D000162F042F8091610380FF0CC0C0910D0164
:1025E0008091DE019091DF017C0180910E01C8177E
:1025F00030F0BFDFCDB7DEB7E6E00C943D2680912A
:102600000B019C2F981B202F412F6D2F892F90E0BD
:10261000F7010995CF5FE9CF762F9091610390FF85
:1026200008C0682F842F49DF962F672F482F892FE6
:10263000C8CF0895CF93DF93EC01EC81F0E0E35134
:10264000FE4F4491E1E6F3E062818181E5DF8C8118
:102650008F5F8C83DF91CF910895CF93DF93EC014F
:10266000E1E6F3E0438162818C81D6DF8C818F5F6C
:102670008C83DF91CF910895CF93DF93EC0120916C
:1026800064039C81892F817090FD822F692F627075
:1026900091FD622F492F447092FD422F92DF8C8171
:1026A000019687708C83DF91CF910895A0E0B0E010
:1026B000ECE5F3E10C942026D82FE62EF42ED22E52
:1026C0009091610390FF21C0092F06950695E02F98
:1026D000F0E0EF54FE4F8081809315039C7F94308F
:1026E000C9F46D2F7E2D842FE8DE962F672F482F9B
:1026F000892F67DFD0936203E0926303F092640353
:10270000D11419F081E693E0E9D8CDB7DEB7E7E060
:102710000C943C26823019F4F0906403EBCF8630A1
:1027200019F4D0916203E6CF8930D9F3893111F7DA
:102730000951E02FE695F0E0E351FD4FC49110E020
:1027400060910F01161710F014DFD4CF1C9FC00149
:10275000112470E00E94B625862F8D0F00FF02C065
:102760008D2F861B20910D01210F3327331F4F2DF5
:102770006E2DB4DE1F5FE4CFE1E6F3E0282F438146
:1027800062818181865F92CF81E0F6CFE1E6F3E05E
:10279000282F4381628181818A5088CF81E0F6CFE2
:1027A000E1E6F3E062812AE0620F08F46FEF282F80
:1027B000438181817BCF81E0F3CFE1E6F3E0628169
:1027C0002AE0621B08F460E0282F438181816ECFEC
:1027D00081E0F3CFE1E6F3E043812AE0420F08F421
:1027E0004FEF282F6281818161CF81E0F3CFE1E655
:1027F000F3E043812AE0421B08F440E0282F628185
:10280000818154CF81E0F3CF20E050CF0F931F930D
:10281000CF938C01C0E060910F01C61768F0A9DE6C
:10282000F8018481928190FF1DC08F5FF80184833D
:10283000CF911F910F91089520910D012C0F3327F7
:10284000331F70E08FEF90E00E94CA25F801848169
:1028500040916403C69F800D1124609163033EDEA6
:10286000CF5FD9CF8150E2CFAF92BF92DF92EF928C
:10287000FF920F931F93CF93DF93FC018281D1E0EE
:1028800080FDDFEFC0E08091DE019091DF015C010F
:1028900080910F01C817B8F06CDE8091BD02D13075
:1028A00009F04DC0811102C080910F0181508093C9
:1028B000BD02DF91CF911F910F91FF90EF90DF90BC
:1028C000BF90AF90089580910D0190910B01891BED
:1028D0008C0F20E040E060E090E0F501099504E015
:1028E00010E0D12CEC2EF12C8091BD028D0D8131A8
:1028F00004F18F70082E001C00088E150F0499F447
:1029000080910D019701280F311D4091640304034C
:10291000A0011124559547955595479560916303FE
:1029200080916203DBDDDD0E01501040E9F6CF5FE0
:10293000AFCF87FFDFCF90910F01890FDBCF90E002
:10294000019660910F0170E00E94CA25B0CF0F93ED
:102950001F93CF93C0910D018091DE019091DF0113
:102960008C0180910E01C81750F1C0E08091DE010A
:102970009091DF018C0160910F01C61768F1F9DDBC
:10298000809109019091BC02980F9093BC02209114
:102990000A01280F20930A01121654F420910F0106
:1029A0002150330B092E001C0008921703061CF05F
:1029B000819580930901CF911F910F910895809186
:1029C0000B019C2F981B20E040E060E0892F90E0F5
:1029D000F8010995CF5FC5CFEC2FF0E070E0CF0193
:1029E0000E94CA2520910D01820F9091BC02092EF0
:1029F000001C0008E917F0059CF090910A01092ECF
:102A0000001C00089E170F065CF0282F30E0409154
:102A10006403609163038091620360DDCF5FABCF9D
:102A200090910B01891B20E040E060E090E0F8010C
:102A30000995F4CFA0E0B0E0E0E2F5E10C941D26AA
:102A4000EC01FC812F2F30E0D9010E949B259B01D6
:102A5000AC010E940B267B018C0180E290E08F1B71
:102A60009109FC01A5E59701A8010E940B265B01D5
:102A70006C019F01DF010E9495259B010E940526A4
:102A80009B01AC012E0D3F1D401F511FB501C6011A
:102A90000E94DD25022F30E00A3220F5A901440F03
:102AA000551F420F531F55954795142F1095F12C24
:102AB00085E5801BE82E80910F01F81600F159DDA5
:102AC0009C8181E0911519F0903219F48FEF809379
:102AD000080180910801890F8C83CDB7DEB7EAE049
:102AE0000C94392685E590E0821B930BAC01440FD2
:102AF000551F480F591FBAF64F5F5F4FD4CF8E2D29
:102B0000F1FC802F20910D012F0D3327331F412F12
:102B100060916303E3DCF394CECF0F931F93CF93C5
:102B2000DF938C01C0E0D0E090910F01C917D1056F
:102B30005CF01FDDF8018481019681708483DF9150
:102B4000CF911F910F910895F801448180910D015B
:102B50009E01280F311D6091630380916203969559
:102B6000C917D1053CF4411539F040916403B6DC36
:102B70002196DACF4115C9F340E0F9CFA0E0B0E0EB
:102B8000E4ECF5E10C941926FC018281882E9480F6
:102B900081E08483EDEEF1E0A490ECE6F2E0E491D4
:102BA000C0916403C695C158D0E0CC0FDD1FED2E57
:102BB000F12CB12C05E01FEFEA198E2F90E03C01BB
:102BC00080910F01B81630F0D4DCCDB7DEB7EEE05F
:102BD0000C943526CB2CD12C882D833058F40B9DAA
:102BE000F0011124E254FD4F8091620380838091B3
:102BF0006303818391101BC00C9DF0010D9DF00DAE
:102C00001124E254FD4F1382128280910D0196012E
:102C1000280F311D0C9DF0010D9DF00D1124E25483
:102C2000FD4F42816181808159DCB394C9CF0C9DF5
:102C3000E0010D9DD00D1124C254DD4F8B81811513
:102C4000E1F081508B83189FC00111246C8170E0EA
:102C50000E94B62570E0FB01E351FE4F84918A1972
:102C6000189FC0011124B3010E94B625809164030E
:102C7000689FB00111247A83C8CF0E9493266FEF1A
:102C800070E00E94CA258E159F050CF0BECF882DDE
:102C9000833090F00E9493266FEF70E00E94CA2567
:102CA00088830E949326209163032695622F70E00B
:102CB0000E94CA25280F29830C9DF0010D9DF00D5F
:102CC0001124E254FD4F128280916403893C58F034
:102CD00088EC0C9DF0010D9DF00D1124E254FD4F88
:102CE0008483838392CF8431A0F784E1F2CF8091F3
:102CF00061038E7F8093610381E693E00E946E0CF6
:102D00001092160336CC609161036695669570E06B
:102D10004BE050E080E191E00E949F26892B19F45E
:102D200081E0809316030E94FD1E80930E03909312
:102D30000F0308959091610390FF2CC0811559F104
:102D40008B3258F58F73880F880F909161039370C1
:102D5000892B80936103611521F081E693E00E9445
:102D60006E0C609161036695669570E04BE050E0F3
:102D700080E191E00E949F26892B89F01092160332
:102D800081E080931103409164036091630380911B
:102D900062033ACD089581E0D6CF8AE2D4CFB3DF83
:102DA000EFCF682F9091610396959695892F8F5F4D
:102DB0008B3208F081E0BECF81E0F3CF682F909195
:102DC000610396959695892F815009F48AE2B2CFD6
:102DD00081E0F4CF61E0AECF8091610381608093A8
:102DE000610386958695F6CF8091610380FF01C0CF
:102DF0007ECFF2CF60E09ECF8091140381111FC07F
:102E000081E693E00E946C0C80916103843028F489
:102E100083DB81E693E00E946C0C70DB109216035A
:102E2000E091DC01F091DD0109958091610380FF63
:102E300003C086958695DEDF81E0809314030895B4
:102E40000F931F93CF93DF9380911603811509F49D
:102E50003FC080911503E0916103E695E695E81B7C
:102E6000E0931003853109F489C008F042C089302D
:102E700009F47AC090F5823009F464C0863009F410
:102E80006AC0C0EDD7E00CE512E180911103811515
:102E900059F010921103B1D780930E0390930F0352
:102EA0001092120310921303A8D720910E033091B1
:102EB0000F03821B930B8F3F9F4750F42C0F3D1F36
:102EC00020930E0330930F038EE093E0F8010995F1
:102ED000DF91CF911F910F9108958F3091F6E69574
:102EE000F0E0E052FE4FE491CE2FD0E004E314E195
:102EF000CCCFC4EFD1E00DE815E1843231F288F493
:102F0000C8E2D0E00AE115E1883109F4BECF83328E
:102F100009F0B7CFEBEDF1E0C591D5910CE313E1EA
:102F2000B4CF853209F0ADCF8E2F63E00E94AA2581
:102F3000E92FF0E0E852FE4FE491CE2FD0E00EEB07
:102F400015E1A3CFF0E0E751FE4FE491CE2FD0E0A2
:102F50000AE113E19ACFF0E0EA51FE4FE491CE2F5F
:102F6000D0E00DE213E191CFE695F0E0ED51FE4F98
:102F7000E491CE2FD0E006E014E187CFF0E0E352F9
:102F8000FE4FE491CE2FD0E007EA14E17ECF089502
:102F900057CF0895229A0895FC01EE0FFF1FE80F06
:102FA000F91FE759FC4F6183408322830895FF9204
:102FB0000F931F93CF93DF93182F062FF42EC0E0AB
:102FC000D0E02F2D402F612FCE01E6DF2196C031BA
:102FD000D105B9F7CDB7DEB7E5E00C943E2635B1A3
:102FE0003B7F25B124604FB7F89489E693E0FC015C
:102FF0000196508168E025B9000000C057FF35B93F
:10300000550F000000C000C000C035B900C06A956F
:1030100091F753E08939950751F74FBF8FE594E059
:103020000197F1F700C0000008950C945E0C08951C
:1030300080E02ED881700895E7D88FEF96E721E0E1
:10304000815090402040E1F700C00000DDD8F0DF63
:10305000811511F0EADF0DC70895EECF0895CF93E3
:10306000DF93EB0186319C4709F50E94320B9D816D
:10307000911599F08A7A91E0811101C090E09093C6
:103080001703811541F085E324D50E94DF0B80E012
:10309000DF91CF91089589E2F7CF809117038115D1
:1030A00019F085E32DD5F1CF89E2FCCF81E0F0CF97
:1030B000CF93DF93EC01FB018581811509F4CBC02F
:1030C0009E0130572332310508F0ABC08BE493E00A
:1030D0000E94680CFE01E150F047E232F10520F455
:1030E000EC5CF84D0C94FF2580914B03816080933C
:1030F0004B0390C080914C03886080934C038AC03E
:1031000080914B038260F3CF80914B038460EFCFBB
:1031100080914B038860EBCF80914C038160EDCFB1
:1031200080914C038260E9CF80914B038061DFCFB7
:1031300080914B038062DBCF80914B038064D7CFBB
:103140000E940F0780914B038068D1CF80914B0381
:103150008C60CDCF80914C038360CFCF80914B03A7
:103160008E7FC5CF80914C03877FC7CF80914B0363
:103170008D7FBDCF80914B038B7FB9CF80914B0367
:10318000877FB5CF80914C038E7FB7CF80914C0362
:103190008D7FB3CF80914B038F7EA9CF80914B035E
:1031A0008F7DA5CF80914B038F7BA1CF0E940F070E
:1031B00080914B038F779BCF80914B03837F97CF79
:1031C00080914C038C7F99CF90914B03892F8B7FFB
:1031D00092FF8460877F92FF886089CF80914C0343
:1031E000982F909590FB80F990FB81F986CF909174
:1031F0004B03892F8F7B96FF806479CF0E940F0746
:1032000090914B03892F97FB87F9805870CF81E00D
:103210000E94700C8BE493E00E946A0C0E940F07DE
:1032200080E0DF91CF91089580E0F2CF90914B0341
:10323000892F8F7E94FF80615ACF90914B03892F05
:103240008E7F90FF816053CF90914C03892F877FB1
:1032500093FF886052CF81E0E4CF382F25EB320313
:10326000C001112497FF04C080589109892F089547
:1032700080589F4FFBCF80911E0380FF0DC060914F
:10328000200170E0660F771F6038710588F56115C1
:10329000710581F1862F089581FF07C0609120019B
:1032A00084E0689FB0011124EFCF82FF04C06091D9
:1032B000200188E0F6CF90911D039115B9F060913F
:1032C0001F0180912001961728F098E0899FB00196
:1032D0001124DACF899FC001112423E0880F991FA0
:1032E0002A95E1F770E00E94CA25CECF68E0D2CFE0
:1032F0008FE7089581E0089580911E0380FF0CC040
:1033000060911C0170E075956795759567956115DD
:10331000710541F1862F089581FF06C060911C015F
:1033200070E075956795F3CF60911C0182FD0BC02D
:1033300090911C039115A1F060911B0180911C01DB
:10334000961738F0682F70E06038710500F38FE74A
:103350000895899FC001112470E00E94CA25F4CF0E
:1033600061E0D8CF81E00895E82FED5CE33198F576
:10337000F0E0EA5AF84D0C94FF257DDF81958093AB
:103380002203089578DFFBCF76DF819580932103B8
:10339000089571DFFBCFB0DF809323030895ACDF86
:1033A0008195FACFA9DF8195809324030895A4DF46
:1033B000FBCF815D990B21E001C0220F8A95EAF7CE
:1033C00080912003822B80932003089580911E0317
:1033D000816080931E03089580911E038260F9CF5F
:1033E00080911E038460F5CF409121038D3C59F4F8
:1033F0008091220387FF0DC010922203411559F4DA
:1034000010921D0308C08E3C81F48091220318168F
:103410009CF3411581F08091230390912403892B23
:1034200009F056C010921C0308958F3C41F447FFE9
:10343000F0CF10922103809122038115E0CF803DCF
:1034400019F41416B4F3E5CF90912303893D29F4C0
:103450001916FCF610922303DCCF8A3D19F497FF6E
:10346000D8CFF8CF909124038B3D29F497FFD1CF8B
:1034700010922403CECF8C3D19F41916CCF3C9CF8A
:10348000982F915D983078F4815D990B21E001C00F
:10349000220F8A95EAF7822F809590912003892345
:1034A00080932003B6CF8D3D31F480911E038E7F33
:1034B00080931E03AECF8E3D21F480911E038D7F3D
:1034C000F7CF8F3D09F0A5CF80911E038B7FF0CF02
:1034D000089593D49C019091210380912203982B0D
:1034E00021F020931A0330931B03909123038091C2
:1034F0002403982B21F020931803309319038FE1B4
:1035000093E0DBC1EFE1F3E086E011928A95E9F701
:1035100010921D0310921C0310921E030895FC01CB
:10352000828181110EC0838181110BC08481811140
:1035300008C091E08581811101C090E0892F8170E0
:10354000089581E0FCCFA6E0B0E0E9EAFAE10C944E
:10355000222686E0EFE1F3E09E012F5F3F4FD90185
:1035600001900D928A95E1F71092210310922203A7
:1035700010922303109224038B819C81892B022FAC
:10358000F32E811581F080911A0390911B03C6D30D
:10359000AC0190911D039115A1F180912101841737
:1035A000150608F43BC08D819E81892B89F080919E
:1035B000180390911903B2D3AC0190911C0391159B
:1035C00009F45AC080911D018417150608F462C0E1
:1035D000602F7F2D8FE193E0C2D2811104C08FE173
:1035E00093E09DDF811175DF86E0E02FFF2DAFE1D5
:1035F000B3E001900D928A95E1F72696E5E00C94F0
:103600003E26209122018AE0289F90011124241750
:10361000350748F69F5F90931D0302C09F3FD1F787
:103620001B81111551F027DE91E011160CF09FEF70
:10363000899F802D1124809321031C81111551F045
:103640001ADE91E011160CF09FEF899F802D112456
:103650008093220380912103811509F4A4CF109156
:103660002203111509F49FCFF8DD80932103812FE8
:10367000F4DD8093220397CF20911E018AE0289FDA
:10368000900111242417350708F0A2CF9F5F909373
:103690001C0302C09F3FD1F71D81111551F02CDE94
:1036A00091E011160CF09FEF899F802D11248093DB
:1036B00023038E81182F811551F01EDE91E0111623
:1036C0000CF09FEF899F802D11248093240380911B
:1036D0002303811509F47CCF90912403192F9115B0
:1036E00009F476CFBADD80932303812FB6DD809372
:1036F00024036ECF0F931F93CF93DF93C42FD22F4A
:10370000FC0185818115C9F04093270376D380930E
:103710002503909326038C2F805E883048F481E047
:10372000C1FD84E0C0FD880FC2FD82950E94FF04A8
:10373000DF91CF911F910F910895109127031413DA
:1037400033C08091250390912603E8D2883C9105EF
:1037500058F5CD2FC05E1D17C1F0812F805E8830D7
:1037600048F481E011FD84E010FD880F12FD829580
:103770000E940405C83048F481E0D1FD84E0D0FD0A
:10378000880FD2FD82950E94FF04802F0E94F804CA
:1037900081E0D1FD84E0D0FD880FD2FD8295C83054
:1037A00038F60E940405C4CF8C2F805E883008F064
:1037B000BFCF81E0C1FD84E0C0FD880FC2FD8295CE
:1037C000F0CF0F93FC01CB01E851FC47E730F10546
:1037D00088F5E759F84D0C94FF2506E221EE41EEFD
:1037E0006AE17CE787DF80E00F91089507E225EE2C
:1037F00045EE6BE17CE7F6CF06E221EE40EE68E1B4
:103800007CE7F0CF07E225EE44EE69E17CE7EACF02
:1038100006E221EE42EE6CE17CE7E4CF07E225EE22
:1038200046EE6DE17CE7DECF08E221E045EE6EE199
:103830007CE7D8CFFB01858181111092270381E0BD
:10384000D3CF80932C0390932D030895089508956A
:10385000EDD1982F81E0913009F080E00895E0915A
:103860002C03F0912D03309739F00190F081E02D79
:10387000309711F00995089580E00895E0912C03A8
:10388000F0912D03309731F00280F381E02D3097D5
:1038900009F009950895E0912C03F0912D033097DC
:1038A00059F024813581232B39F026E0DC012C935B
:1038B0000480F581E02D09950895E0912C03F091A5
:1038C0002D03309759F026813781232B39F022E0E0
:1038D000DC012C930680F781E02D09950895A3E083
:1038E000B0E0E5E7FCE10C94252620912A03309115
:1038F0002B0328173907B1F080932A0390932B03E9
:10390000E0912C03F0912D03309761F00084F18554
:10391000E02D309739F023E029838A839B83CE0101
:10392000019609952396E2E00C944126A3E0B0E0CD
:10393000ECE9FCE10C942526209128033091290321
:1039400028173907B1F08093280390932903E09159
:103950002C03F0912D03309761F00084F185E02D68
:10396000309739F024E029838A839B83CE01019626
:1039700009952396E2E00C944126CF93DF93C09102
:103980000601D091070164DF811521F080914B037E
:1039900087FD11C09E012E5F3F4F96E080E0915061
:1039A000F90140812F5F3F4F41118F5F9111F7CF98
:1039B000DF91CF91089520910401309105012E5F90
:1039C0003F4F9EE1EBCFCF93C82F811102C080E023
:1039D0002EC03EDF811521F080914B0387FD0FC083
:1039E0008091060190910701FC0132960896208192
:1039F0002C17F9F03196E817F907C9F7E8CF8C2FA3
:103A0000869586958695C03F10F7E0910401F09168
:103A10000501E80FF11D228130E0C77081E001C08F
:103A2000880FCA95EAF7282381E0232B81F2CF91F2
:103A3000089581E0FCCF9C01FC01329680E09FEF6D
:103A40004081461759F031969F3F19F4411101C04A
:103A5000982F8F5F8630A1F79F3F09F40895290FB3
:103A6000311D97FD3A95F90162830895FC01329664
:103A700008962191261302C0DF011E92E817F9076C
:103A8000C1F70895262F269526952695603F60F468
:103A9000820F911DFC01677021E001C0220F6A9521
:103AA000EAF78281822B82830895262F2695269518
:103AB0002695603F68F4820F911DFC019DEF61FD2A
:103AC00097EF60FF959562FD9295828189238283AD
:103AD0000895CF93C82FBCDE6C2F811559F08091CB
:103AE0004B0387FF07C08091040190910501CADF55
:103AF000CF91089580910601909107019CDFF8CF46
:103B0000CF93C82FA5DE6C2F811559F080914B0300
:103B100087FF07C08091040190910501C6DFCF9116
:103B200008958091060190910701A0DFF8CF90DE03
:103B3000811571F080914B0387FF0AC0E091040169
:103B4000F091050132968EE111928A95E9F7089578
:103B5000E0910601F0910701329686E0F5CFDC0195
:103B6000FB0111969C9111978181981322C01296A6
:103B70008C911297811519F0928189131AC01396AE
:103B80008C911397811519F09381891312C01596A2
:103B90008C911597811519F0958189130AC0149697
:103BA0009C91911521F081E02481291303C080E0CC
:103BB00001C081E0817008950895FECF08958F5F60
:103BC0008093260160912301709124018091250149
:103BD00090912601F2CF83E080932601609123012A
:103BE000709124018091250190912601E6CFE7CFC5
:103BF000089581E080932601609123017091240152
:103C00008091250190912601D8CFF3CF089591E0BE
:103C1000811101C090E09093250160912301709182
:103C200024018091250190912601C7CF8091250123
:103C30000895809324016091230170912401809163
:103C4000250190912601B9CF809124010895809398
:103C500023016091230170912401809125019091AD
:103C60002601ABCF80912301089508950895FECFDA
:103C7000089508950895F9CF08950F931F93CF9352
:103C8000DF93F7DF0E940411F5DF0EE213E0C0E0DE
:103C9000D0E08C2F0E9448109C01F8018193319351
:103CA0008F0191E0232B09F490E0D92BCF5FC53031
:103CB00081F78D2FDF91CF911F910F910895E82FFC
:103CC000F0E0EE0FFF1FE25DFC4F81E090E002C0EC
:103CD000880F991F6A95E2F7BC0180819181682362
:103CE000792381E0672B09F480E00895411115C024
:103CF000E82FF0E0EE0FFF1FE25DFC4F81E090E067
:103D000002C0880F991F6A95E2F7809590952081EF
:103D1000318182239323808391830895CF93DF930E
:103D2000EC016BD08C1B9D0BDF91CF91089585B773
:103D3000806885BF85B7806885BF08951F921FB6CC
:103D40001F9211248F939F93AF93BF938091380359
:103D5000811113C08091990390919A03A0919B03C4
:103D6000B0919C034196A11DB11D8093990390933E
:103D70009A03A0939B03B0939C03BF91AF919F9133
:103D80008F911F901FBE1F9018958091A1038430C2
:103D900031F10E94F2031092380388E190E020E4B0
:103DA0000FB6F894A895809360000FBE2093600032
:103DB00083B7817F846083BF83B7816083BF78943A
:103DC000889583B78E7F83BF0FB6F894A8958091AE
:103DD0006000886180936000109260000FBE0895BB
:103DE0000E940F070C94F60382E084BD93E095BD1A
:103DF0009AEF97BD80936E0008952FB7F894809145
:103E0000990390919A03A0919B03B0919C032FBFBB
:103E100008952FB7F8946091990370919A03809157
:103E20009B0390919C032FBF089578941F921FB617
:103E30001F9211248F939F93AF93BF938091990307
:103E400090919A03A0919B03B0919C030196A11DB0
:103E5000B11D8093990390939A03A0939B03B09311
:103E60009C03BF91AF919F918F911F901FBE1F9098
:103E7000189581E08093E00080E28093D800109252
:103E8000C9008FE19EE40197F1F700C00000A7E0B0
:103E9000B0EBCD018093AA039093AB03A093AC0346
:103EA000B093AD0388E19CE00FB6F894A895809399
:103EB00060000FBE90936000FFCF88E19CE00FB6DA
:103EC000F894A895809360000FBE90936000FFCF98
:103ED0009B01BA019091A1039430D9F48F70809323
:103EE000E9009FEF8091E80085FD06C085ED8A9589
:103EF000F1F700009150B1F78091E80085FF09C00B
:103F000040E050E0C901B6D18091E8008E778093FF
:103F1000E800089543E050E0BC0182E0D9CF46E0DC
:103F200050E0BC0182E0D4CF40E250E0BC0182E02E
:103F3000CFCFCF93DF93EC0179DE48E050E0BE01B4
:103F400081E0C6DF88E0FE01A9E3B3E001900D92B5
:103F50008A95E1F7DF91CF9108958091A0038111B7
:103F600007C016D366D38091E20084608093E2009C
:103F700008951092A00308953CDE81E048CE609140
:103F80009D0381E0611101C080E025CE9091A103E5
:103F900081E0943009F080E060919D0328CE42E0FA
:103FA00061EC81E071D242E261EC82E06DD29091ED
:103FB000A10381E0943009F080E060919D03FFCD82
:103FC0008091A303893081F148F4823009F496C0CE
:103FD000833009F457C0813041F008958A3009F4E4
:103FE00080C08B3009F468C008958091A203813AA3
:103FF00009F047C08091E800877F8093E8008091B6
:10400000A6039091A703892B59F060E080E090E02F
:1040100070E07DD18091E8008B778093E80008956F
:1040200068E089E393E0F4CF8091A203813249F5FF
:104030008091A6039091A703029718F58091E8005C
:10404000877F8093E8008091E80082FF16C020916E
:10405000F3008091F200922F029731F48091F100E9
:10406000813011F0863019F48091F100E2DD809109
:10407000E8008B778093E8003BC28091A103811117
:10408000E2CF08958091A203813AD9F78091A603E7
:104090009091A703892BA9F78091E800877F8093EF
:1040A000E8008091E80080FFFCCFC0DD8093F10044
:1040B0008091E8008E77DECF8091A203813209F7EC
:1040C0008091A6039091A703892BD9F68091E800EF
:1040D000877F8093E8000CD28091A40398DD0C9434
:1040E0000F078091A203813261F68091E800877FFB
:1040F0008093E800FDD18091A503A9CD8091A20312
:10410000813A09F0BECF8091E800877F8093E80074
:104110008091E80080FFFCCFA5DDC8CF84B7877F02
:1041200084BF0FB6F894A895809160008861809351
:104130006000109260000FBE80E890E00FB6F89427
:1041400080936100909361000FBE5FCD21D271D248
:10415000E2EEF0E08081846080837894CDC487E2D1
:1041600091E06FCB8091A103853029F48091A10368
:10417000853011F035CE089508DE7FDD8115B1F36D
:1041800080919F03811591F35FD00E940F07EECFBE
:1041900008959A014091A8035091A90300C0492FA6
:1041A00050E043305105C9F070F441305105E9F158
:1041B0004230510571F48BE390E046E154E0F9019F
:1041C00040835183089541325105E9F0423251054F
:1041D00019F180E090E040E0F2CF482F50E08130CC
:1041E00061F04230510561F0E2E1F4E04115510522
:1041F00081F7849190E0AF01E2CFE2E0F4E0F9CF03
:10420000E2EFF3E0F6CF61307105A0F011F789E03D
:1042100090E041E454E0D3CF6130710580F0C9F6FD
:1042200086EB90E043E654E0CACF82E190E041E5BE
:1042300054E0C5CF89E090E048E254E0C0CF84E488
:1042400090E049E155E0BBCF80E189BD82E189BDC5
:1042500009B400FEFDCF8091D8008F7D8093D800F7
:104260008091E00082608093E0008091E00081FD19
:10427000FCCF0895AF92BF92CF92DF92FF920F933F
:104280001F93CF93DF936C01EB018A0150D1F82E7D
:10429000811123C00115110539F0F8018081918148
:1042A000C81BD90BC80ED91EA12CB12C2097A9F080
:1042B0008091E80085FD21C08091E8008E77809391
:1042C000E80001151105A1F0F801808191818A0DA6
:1042D0009B1D8083918385E0F82E8F2DDF91CF91F8
:1042E0001F910F91FF90DF90CF90BF90AF900895F6
:1042F0001ED18115E9F2F82EF0CFF60181916F0100
:104300008093F10021978FEFA81AB80ACFCFFC0154
:104310002091A8033091A9032617370720F06115D3
:10432000710569F09B0190E02115310571F491113F
:104330000CC08091E80082FF38C080E00895909121
:10434000E8009E779093E800EDCF8091A10381155E
:10435000C1F18530C1F18091E80083FD30C08091CA
:10436000E80082FDE6CF8091E80080FFDDCF8091FC
:10437000F3004091F200582F2115310519F0483013
:10438000510558F091E04830510509F090E0409116
:10439000E8004E774093E800C7CF81918093F10009
:1043A000215031094F5F5F4FE7CF8091A103811505
:1043B00041F0853041F08091E80083FFBACF81E081
:1043C000089582E0089583E00895FC012091A803F8
:1043D0003091A9032617370720F06115710569F0A0
:1043E0009B0190E02115310571F491110CC0809171
:1043F000E80082FF39C080E008958091E8008E7760
:104400008093E800EDCF8091A1038115C9F185303B
:10441000C9F18091E80083FD31C08091E80082FD00
:10442000E6CF8091E80080FFDDCF8091F3004091DE
:10443000F200582F2115310519F04830510558F078
:1044400091E04830510509F090E08091E8008E77C6
:104450008093E800C7CF84918093F100319621507A
:1044600031094F5F5F4FE6CF8091A103811541F085
:10447000853041F08091E80083FFB9CF81E0089555
:1044800082E0089583E00895982F973028F08F7088
:104490008093E90081E008959093E900242F762F1E
:1044A00050E0981731F07091EC002091ED005091A0
:1044B000F00021FD02C09F5FE8CF3091EB003E7F0E
:1044C0003093EB003091ED003D7F3093ED00309163
:1044D000EB0031603093EB007093EC002093ED0023
:1044E0005093F0002091EE0027FDE5CF80E0089585
:1044F0008091A20387FF13C08091E80082FF06C06D
:104500008091E8008B778093E80008958091A10363
:104510008111F2CF08958091A1038115D9F3809183
:10452000E80080FFF8CF8091E8008E77ECCF2091F3
:10453000E4003091E50095E6A9012091EC00822F7E
:10454000817020FF06C08091E80080FF06C080E0F7
:1045500008952091E80022FD1AC08091A1038115E1
:1045600089F0853089F08091EB0085FD0FC02091A6
:10457000E4003091E50042175307F9F29150E1F65B
:1045800084E0089582E0089583E0089581E008952D
:104590005FD066D0E0EEF0E0808181608083E8ED5E
:1045A00080818F77808319BCA7EDB0E08C918E7FDE
:1045B0008C9380818F7E80831092A0030895CF9387
:1045C000DF9346D04DD0C8EDD0E088818F778883C7
:1045D00088818068888388818F7D888319BC109248
:1045E000A10310929D0310929F0310929E03E0EE90
:1045F000F0E080818B7F808388818160888342E0C6
:1046000060E080E041DFE1EEF0E080818E7F80833A
:10461000E2EE808181608083808188608083E0EE2B
:1046200080818E7F8083888180618883DF91CF91B4
:104630000895E8EDF0E080818F7E8083E7ED808152
:104640008160808384E082BF81E08093A003B7CF44
:10465000E8EDF0E080818E7F80831092E200089583
:104660001092DA001092E10008951F920F920FB697
:104670000F9211242F933F934F935F936F937F93E8
:104680008F939F93AF93BF93EF93FF938091E1003C
:1046900082FF0AC08091E20082FF06C08091E100A3
:1046A0008B7F8093E10027D28091DA0080FF18C0D1
:1046B0008091D80080FF14C08091DA008E7F8093B3
:1046C000DA008091D90080FF8FC080E189BD82E14E
:1046D00089BD09B400FEFDCF81E08093A1033DDCDC
:1046E0008091E10080FF18C08091E20080FF14C03B
:1046F0008091E2008E7F8093E2008091E2008061F1
:104700008093E2008091D80080628093D80019BC29
:1047100085E08093A10333DC8091E10084FF28C011
:104720008091E20084FF24C080E189BD82E189BDDF
:1047300009B400FEFDCF8091D8008F7D8093D80012
:104740008091E1008F7E8093E1008091E2008F7E76
:104750008093E2008091E20081608093E20080918A
:104760009D03811509F445C084E08093A1030EDC0C
:104770008091E10083FF27C08091E20083FF23C086
:104780008091E100877F8093E10082E08093A10324
:1047900010929D038091E1008E7F8093E1008091D3
:1047A000E2008E7F8093E2008091E200806180933E
:1047B000E20042E060E080E067DE8091F000886027
:1047C0008093F000D9DBFF91EF91BF91AF919F9162
:1047D0008F917F916F915F914F913F912F910F90AA
:1047E0000FBE0F901F90189519BC1092A103C1DB4A
:1047F00077CF8091E30087FF02C083E0B6CF81E0EE
:10480000B4CF1F920F920FB60F9211241F932F93C4
:104810003F934F935F936F937F938F939F93AF9348
:10482000BF93CF93DF93EF93FF93E9EEF0E08081A6
:104830001091EC008F7010FB112717F9182B1082C4
:10484000C0EFD0E08881877F888378941CD0E9EE20
:10485000F0E010828881886088831F701083FF9148
:10486000EF91DF91CF91BF91AF919F918F917F9108
:104870006F915F914F913F912F911F910F900FBEBC
:104880000F901F901895AAE2B0E0E8E4F4E2DCC1D2
:1048900082EA93E0FC0101962091F100208323E05D
:1048A0008A3A9207B9F78CDB8091E80083FF37C022
:1048B0008091A2039091A3039A3088F5E92FF0E04C
:1048C000E059F84D9CC1803889F0823841F58091DB
:1048D000A6038F70873018F58093E9008091EB0074
:1048E00085FB882780F91092E90006C080919F031C
:1048F000880F90919E03892B9091E800977F909369
:10490000E8008093F1001092F1008091E8008E772A
:1049100022C0811115C08091A403813001F18091E2
:10492000E80083FF0AC08091E800877F8093E80059
:104930008091EB0080628093EB00AA96E3E0A0C137
:10494000823069F78091A403811579F01092E90013
:104950008091E800877F8093E800CADDE0CF933044
:1049600009F080E080939F03F1CF8091A6038F70C0
:10497000282F2150263098F68093E9002091EB00F3
:1049800020FFE4CF933031F48091EB00806280937C
:10499000EB00DCCF9091EB0090619093EB0021E075
:1049A00001C0220F8A95EAF72093EA001092EA00EC
:1049B0008091EB008860EBCF8111B1CF8091A4038F
:1049C0008F77182F8091E3008078812B8093E3000C
:1049D0008091E800877F8093E8008ADD8091E8007D
:1049E00080FFFCCF8091E30080688093E30083E048
:1049F000111101C082E08093A10391CF80588230D1
:104A000008F08DCF8091A4039091A5038C3D23E005
:104A1000920789F583E08A838AE289834FB7F89405
:104A2000DE01139620E03EE051E2E32FF0E05093E8
:104A30005700849120FF03C082958F703F5F8F7075
:104A40008A30B8F0895C8D931D922F5F243169F70D
:104A50004FBF8091E800877F8093E8006AE270E0B2
:104A6000CE01019654DC8091E8008B778093E800BA
:104A700056CF805DE8CF6091A6037091A703AE0189
:104A80004F5F5F4F86DBBC01892B09F448CF9091C3
:104A9000E800977F9093E80089819A8196DCE3CFC4
:104AA000803809F03CCF8091E800877F8093E80050
:104AB00080919D038093F10028CF811130CF909198
:104AC000A403923008F02BCF8091E800877F809379
:104AD000E80090939D030CDD80919D03811529F0E2
:104AE00084E08093A1035BDA1ACF8091E30087FD15
:104AF000F7CF81E0F6CF0895CF938091A103811580
:104B000091F08091E900C091EC008F70C0FBCC2740
:104B1000C7F9C82B1092E9008091E80083FDB3DE4D
:104B2000CF70C093E900CF91089505D0332312F4DC
:104B30008A1B9B0B6BC0A29FB001B39FC001A39FB8
:104B4000700D811D1124911DB29F700D811D1124C6
:104B5000911D0895992778E0880F991F961708F0FE
:104B6000961B881F7A95C9F780950895AA1BBB1BD1
:104B700051E107C0AA1FBB1FA617B70710F0A61B5D
:104B8000B70B881F991F5A95A9F780959095BC017E
:104B9000CD01089597FB072E16F4009406D077FDFB
:104BA00008D0E4DF07FC05D03EF4909581959F4F37
:104BB0000895709561957F4F0895A1E21A2EAA1B62
:104BC000BB1BFD010DC0AA1FBB1FEE1FFF1FA217BD
:104BD000B307E407F50720F0A21BB30BE40BF50BBA
:104BE000661F771F881F991F1A9469F76095709543
:104BF000809590959B01AC01BD01CF010895EE0F0A
:104C0000FF1F0590F491E02D099495DFB7FF0895FB
:104C1000821B930B08958FDFA59F900DB49F900D7D
:104C2000A49F800D911D112408952F923F924F92C1
:104C30005F926F927F928F929F92AF92BF92CF922C
:104C4000DF92EF92FF920F931F93CF93DF93CDB735
:104C5000DEB7CA1BDB0B0FB6F894DEBF0FBECDBFAD
:104C600009942A88398848885F846E847D848C847E
:104C70009B84AA84B984C884DF80EE80FD800C8187
:104C80001B81AA81B981CE0FD11D0FB6F894DEBF6A
:104C90000FBECDBFED010895AAE0B0E0E1E5F6E278
:104CA000D4CF89879A87FC01608171818281938149
:104CB00000977040604021F464E279ED8BE597E065
:104CC0002DE133EF41E050E094D029833A834B83C8
:104CD0005C839B01AC01A7EAB1E49DDF6D837E8319
:104CE0008F839887ACEEB4EF29813A814B815C8148
:104CF0009ED02D813E814F815885260F371F481F3A
:104D0000591FC901DA01B7FF03C00197A109B048D3
:104D1000E985FA8580839183A283B3839F772A965E
:104D2000E2E0AFCFB9CF80E091E0B6CF8093000151
:104D30009093010110920201109203010895FC0169
:104D40004150504030F001900616D1F73197CF0115
:104D50000895882799270895FB01DC0104C08D91EF
:104D60000190801921F441505040C8F7881B990BDD
:104D70000895F999FECF92BD81BDF89A992780B523
:104D80000895A6E1B0E044E050E025C0A8E1B0E01D
:104D900042E050E020C0262FF999FECF92BD81BDA0
:104DA000F89A019700B4021639F01FBA20BD0FB669
:104DB000F894FA9AF99A0FBE08950396272FECDF1C
:104DC000EADF252FE9DF242FE7CF0196272FE4DF45
:104DD000E2CFDC01CB01FC01F999FECF06C0F2BDA8
:104DE000E1BDF89A319600B40D9241505040B8F7A9
:104DF0000895052E97FB16F400940FD057FD05D0AB
:104E0000DCDE07FC02D046F408C050954095309592
:104E100021953F4F4F4F5F4F089590958095709526
:104E200061957F4F8F4F9F4F0895B7FFF4CEF3DE0C
:104E3000821B930B0895F894FFCF440544057B052E
:104E40007B05D205EE056C056C05F205640671065E
:104E50007106A911AC11B011B411B811BC11C01177
:104E6000C411C811CC11D011AE181D19B618801874
:104E70008418BA188818BE18CA18941816199818E1
:104E8000CE189C18D218F718A018D618FE18A61815
:104E9000DC18E4188C18C2189018C618AA18E01864
:104EA000EE18071914197A18B2182419BD19C21965
:104EB000C419C919D919D919D919D919D919D91987
:104EC000D919D919CB19CF19D219D719E619EC1953
:104ED000F019FC1B021CED1BF61B081C0E1C141CFD
:104EE000632489248F2489248F24DC24FE248F24A6
:044EF00050255D25C7
:104EF400010000008402A40201010200100010104D
:104F040001191A1B1C1D1E1F202122280850011ED6
:104F14000A140100000100241E991F941F8F1F8A88
:104F24001FE200E900EA00B500B600B700CD008337
:104F340001CC008A0192019401210223022402255A
:104F440002260227022A02B300B4006F0070009FF9
:104F540001CB019F02A002E200E900EA00B500B61D
:104F640000B700CD008301CC008A01920194012195
:104F740002230224022502260227022A02B300B4D5
:104F8400006F0070009F01CB019F02A002F190917D
:104F940092939594969734F767663635F033F6F422
:104FA400F5000102020202060606090909090909B7
:104FB4000F0F0F0F0F0F15151518191919191919A6
:104FC400191919192324252525252525CA17CC1790
:044FD400D717EF17E5
:00000001FF
