:100000000C9464020C949C020C949C020C949C0230
:100010000C949C020C949C020C949C020C949C02E8
:100020000C949C020C949C020C94F1260C94C52711
:100030000C9414220C949C020C949C020C949C0230
:100040000C949C020C949C020C949C020C949C02B8
:100050000C949C020C948C220C949C020C949C0298
:100060000C949C020C949C020C949C020C949C0298
:100070000C949C020C949C020C949C020C949C0288
:100080000C949C020C949C020C949C020C949C0278
:100090000C949C020C949C020C949C020C949C0268
:1000A0000C949C020C949C020C949C02167C1E00E6
:1000B0001F0020002100220023002400250026002C
:1000C00027002D002E0031002A0049002B000000DF
:1000D00014001A000800150017001C0018000C007E
:1000E000120013002F00300031004C0039000000D6
:1000F00004001600070009000A000B000D000E00A6
:100100000F0033003400280000004B00E1006400C1
:100110001D001B000600190005001100100036002C
:10012000370038000000E50052004E00E000E30018
:100130000000E2002C0000002C0000002C00000059
:10014000E600E700E400500051004F001E0F0500DC
:10015000047F3F1F643214643214783C1E1E140A5C
:10016000052223252628292A2C2D2F3032333536F7
:10017000383A3B3D3E4042434547494A4C4E505138
:10018000535557595A5C5E6062646668696B6D6F5F
:1001900071737577797B7D7F81838587898A8C8E62
:1001A00090929496989A9C9E9FA1A3A5A7A8AAAC6A
:1001B000AEAFB1B3B4B6B8B9BBBCBEBFC1C2C3C5A4
:1001C000C6C7C9CACBCCCDCED0D1D2D2D3D4D5D646
:1001D000D7D7D8D9D9DADADBDBDBDCDCDCDCDCDD79
:1001E000DDDDDDDCDCDCDCDCDBDBDBDADAD9D9D85D
:1001F000D7D7D6D5D4D3D2D2D1D0CECDCCCBCAC9F5
:10020000C7C6C5C3C2C1BFBEBCBBB9B8B6B4B3B123
:10021000AFAEACAAA8A7A5A3A19F9E9C9A989694BE
:1002200092908E8C8A89878583817F7D7B79777593
:1002300073716F6D6B6968666462605E5C5A595772
:10024000555351504E4C4A4947454342403E3D3B31
:100250003A3836353332302F2D2C2A2928262523BB
:1002600022FFAA7F554000010101010101010101A6
:100270000202020202020202020303030303030357
:100280000304040404040404050505050506060624
:100290000606070707070708080808090909090AE1
:1002A0000A0A0B0B0B0C0C0C0D0D0D0E0E0E0F0F86
:1002B0000F10101111111212131314141515161614
:1002C0001717181819191A1A1B1B1C1D1D1E1E1F83
:1002D0002020212222232424252626272829292AD2
:1002E0002B2C2D2D2E2F30313232333435363738FA
:1002F000393A3B3C3D3E3F404142434445464748F6
:10030000494A4C4D4E4F50515354555658595A5BCB
:100310005D5E5F616264656668696B6C6D6F70726B
:10032000737577787A7B7D7E8082838587888A8CD7
:100330008E8F91939596989A9C9EA0A2A3A5A7A90B
:10034000ABADAFB1B3B5B7BABCBEC0C2C4C6C9CB02
:10035000CDCFD1D4D6D8DBDDDFE2E4E7E9EBEEF0B8
:10036000F3F5F8FAFDFF0A034A00430036003500B2
:100370000000080364006F00750000000403090416
:1003800009023B00020100A0FA0904000001030178
:100390000100092111010001224400070581030821
:1003A00000010904010001030000000921110100FE
:1003B0000122B6000705820320000112010002009D
:1003C000000008EDFE606002000102000105010965
:1003D00002A10185020901A10005091901290815D9
:1003E00000250195087501810205010930093115C3
:1003F00081257F95027508810609381581257F952D
:100400000175088106050C0A38021581257F9501C2
:1004100075088106C0C005010980A1018503190185
:100420002AB700150126B700950175108100C00597
:100430000C0901A101850419012AA002150126A0B9
:1004400002950175108100C005010906A10185060C
:10045000050719E029E715002501950875018102B6
:100460000507190029EF1500250195F07501810296
:100470000508190129059505750191029501750376
:100480009101C005010906A101050719E029E71539
:100490000025019508750181029501750881010506
:1004A00007190029FF150026FF0095067508810031
:1004B0000508190129051500250195057501910209
:1004C000950175039101C00011241FBECFEFDAE042
:1004D000DEBFCDBF04B603FE18C08091C903909162
:1004E000CA03A091CB03B091CC038730904BA740B7
:1004F000B04B59F41092C9031092CA031092CB0367
:100500001092CC03E0E0F8E3099511E0A0E0B1E03F
:10051000ECE8F7E502C005900D92AC3EB107D9F7C3
:1005200023E0ACEEB1E001C01D92A93CB207E1F7B7
:100530000E9418120C947A2B0C940000811111C0A7
:10054000653078F4403168F480E1689FF00111244F
:10055000E40FF11DEE0FFF1FE455FF4F85919491BD
:10056000089581E090E008950E949E02089581E040
:1005700008950E94B702089581E008950E94B7028D
:1005800008950E94BE02089508950E94C40208952D
:10059000A6E0B0E0EEECF2E00C94262A49835A8300
:1005A0009E833091F30189819A8131111AC03E8175
:1005B000332399F0222389F00E949608182F682F80
:1005C00089819A810E94730869817A81812F0E94B2
:1005D000B10F2696E3E00C94422A0E948408182F5B
:1005E000F3CF0E94960869817A81F1CFFC01262F12
:1005F0004081518162817381848195810E94C8020A
:100600000895CF93DF93EC0161E00E94F602BE01F2
:100610000E94B902DF91CF910895CF93DF93EC014F
:1006200060E00E94F602BE010E94C502DF91CF91F8
:10063000089521E030E0A90102C0440F551F8A95BA
:10064000E2F7CA010E9495070895CF93C82F81E071
:1006500090E00C2E02C0880F991F0A94E2F70E94C6
:10066000020D8C2F0E941903CF91089581E0089507
:100670000E9436030895CF93C82F0E9448078C2FFD
:100680000E9438032FEF84E39CE02150804090408B
:10069000E1F700C00000CF91089581E00E943B0384
:1006A0000E94B022089580E00E943B030E94D42261
:1006B00008950F931F93CF93DF938C0161E00E9405
:1006C000F602EC01F801858181110E949319B801AD
:1006D000CE010E94C102811106C080E0DF91CF915E
:1006E0001F910F910895B801CE010E94791A8823B5
:1006F000A1F3B801CE010E94881F882371F3B801CD
:10070000CE010E94C41B882341F3B801CE010E9490
:100710009A1B882311F3B801CE010E94321288235C
:10072000E1F2B801CE010E94B5108823B1F2F801C0
:100730008581882361F0C330FCE7DF07E9F058F4D6
:10074000C115ECE7DE07A9F0C130DC47B9F0C801FC
:100750000E94BC02C3CFCB358CE7D807A9F0CC35BB
:10076000ECE7DE0771F0CA35DC4789F70E94DD0C43
:10077000EECF0E944D03B1CF0E94E50C0E945303BF
:10078000ACCF0E94D30CE3CF0E94E10CE0CF0E94DB
:10079000E62180E00E94581A0E94F30308950E9407
:1007A000A8190E94F7030E94EB21089581E00895A3
:1007B00081FD02C02A9A08952A980895CF93DF9365
:1007C000D82F0E94D603C82F882319F08D2F0E949E
:1007D000D8038C2FDF91CF910895229A2A9A0895F9
:1007E0000E94DE03089580E00E94F00308950E94B5
:1007F000D11F0E94F0030895CF930E94D11FC82FEC
:100800008091EE018C1779F0C093EE010E94802256
:100810006093EF017093F0018093F1019093F201E6
:100820008C2F0E94F003CF910895ADE0B0E0EBE192
:10083000F4E00C94272A488759876A877B878C873E
:100840009D8791110E94E30B1F8286E0FE0138967E
:10085000DE01119601900D928A95E1F78D8181114B
:100860000DC029813A814B815C816D817E818F81B0
:100870000E942D0B2D96E2E00C94432ACE010196A6
:100880000E9401038111EDCFF5CFFC0124812130BD
:1008900021F4808191810E94C8080895662329F07F
:1008A0000E94251D0E94F81D08950E947F1DFACF09
:1008B000CF93C82F882399F08CEF8C0F813A88F45E
:1008C0008C2F0E947120882329F08C2F0E941721E1
:1008D0000E94770C8C2F0E94FD200E94770CCF91F4
:1008E000089580E28C0F883048F4C77081E001C021
:1008F000880FCA95EAF70E94C60BEFCFEBE5EC0F25
:10090000E33040F4F0E0E959FE4F808190E00E942E
:100910000520E5CFE8E5EC0FEB3150F4F0E0EE0F09
:10092000FF1FEF5CFE4F808191810E942A20D7CF6C
:1009300083E38C0F833198F661E08C2F0E944E0484
:10094000CECF882381F19CEF980F913A28F40E9432
:1009500017210E94770C089590E2980F983050F478
:10096000877091E001C0990F8A95EAF7892F0E945C
:10097000CC0BEFCF9BE5980F933028F490E080E00C
:100980000E940520089598E5980F9B3128F490E087
:1009900080E00E942A20089593E3980F933118F481
:1009A00060E00E944E0408951F93CF93DF93182FA9
:1009B000EB010E945804209739F4812F0E94A10472
:1009C000DF91CF911F9108958FE99FE00197F1F793
:1009D00000C000002197EFCF70E060E0893311F490
:1009E00060E570E00E94D4040895882321F00E94FD
:1009F000C60B0E94770C0895882321F00E94CC0B2F
:100A00000E94770C0895B0E0A0E0E9E0F5E00C94D6
:100A1000202A6C01D62FC72FFC0115810681029573
:100A20000F700E94BC0BE82E8823F9F0E12E1123F1
:100A3000E1F08C2F807F803461F080E28D0F883070
:100A400008F18C2F807E803221F4D230D8F0002340
:100A5000C9F080915E0382FF15C082E00E94A70C5E
:100A60000E94BC0B91E0E82EE926BC2EB2949FE0D8
:100A7000B922FBE0FB15B8F1EB2DF0E0E458F44DA2
:100A80000C94E029E12CF1CF0C2F0F70C07F11F0F6
:100A90000295007F112399F0002359F080E28D0F19
:100AA000883010F0D11107C0802F0E94C60B0E9421
:100AB000770C8D2F5AC0802F0E94D60BF8CF8D2F28
:100AC0000E94A104002379F080E28D0F883010F09D
:100AD000D11104C0802F0E94CC0B03C0802F0E9434
:100AE000DC0B0E94770CEB2DE850FF0B349720F4C1
:100AF0000E94D11F0E94F003EE2089F00E94B80BE3
:100B000080FD0DC0F60115820E94B20B0E94D10734
:100B1000C6010E940F070E94B20B0E94E107CDB7E9
:100B2000DEB7E9E00C943C2A2C2F2F70F22EC07F08
:100B3000C03219F0F29480EFF822DD2341F0D13079
:100B4000D1F1112309F444C00023F1F0B2CF809118
:100B50005E0382FD15C0112359F0FF2029F08F2D6F
:100B60000E94C60B0E94770C80E00E945804BBCF05
:100B700080E00E94A104FF2009F4B5CF8F2DABCFF8
:100B8000112369F0011104C08F2D0E94F504ABCF31
:100B9000013009F0A8CF8F2D0E94FA0BA4CF0111CC
:100BA000A2CF8F2D0E94FC048F2D0E94060C8F2D4A
:100BB0000E94EA0B98CF112321F0063008F093CF62
:100BC000E3CF053008F08FCF8F2D0E94FC048BCF30
:100BD0000023D1F3D93349F43FEF87EE93E031504E
:100BE00080409040E1F700C000008D2F0E94A104DA
:100BF0007ACF8C2F86958695837069F0813009F0C5
:100C000072CF8D2F9C2F9370111102C080E090E065
:100C10000E942A2068CF8D2F9C2F9370111102C043
:100C200080E090E00E9405205ECF612F8D2F0E9412
:100C30004E0459CF8C2F8370A1F5111154CF4D2F35
:100C4000429546954770440F440F2D2F2F7030E08A
:100C5000042E02C0220F331F0A94E2F790E080E0D6
:100C6000D4FF09C08FE090E002C0880F991F4A9519
:100C7000E2F780959095C695C695C370822B932B0D
:100C8000C23049F058F4C13019F00E94A1072BCFAF
:100C90000E94980728CF0E94AA0725CF0E94950797
:100CA00022CF8695112311F08C2F8170882309F4AF
:100CB0001ACF4D2F429546954770440F440F2D2F64
:100CC0002F7030E0042E02C0220F331F0A94E2F787
:100CD00090E080E0D4FF09C08FE090E002C0880F70
:100CE000991F4A95E2F780959095C695C695C37071
:100CF000822B932BC23049F058F4C13019F00E9476
:100D00000C08F1CE0E940308EECE0E941508EBCE2F
:100D10000E94B907E8CECF70112329F08C2F0E94D2
:100D2000D1078D2F32CF8D2F0E94FC048C2F0E9473
:100D3000E107D9CED23F41F160F4D03FB9F0D13FC5
:100D400081F0112309F443C00111B3CE8C2F8F71B0
:100D50001FC0D33F01F1D43FA1F780915E0382FD14
:100D600024C08C2F8F71112311F312C0112341F075
:100D7000053008F0B8CE8C2F8F710E94F307B3CEE8
:100D8000063008F0B0CEF7CF8C2F8F711111CFCF76
:100D90000E94D107A8CE112329F08C2F8F710E94B9
:100DA000C507A1CE0E94C0079ECE112331F063E09B
:100DB0008C2F8F710E94890C96CE81E00E94A70C27
:100DC000023008F490CE82E00E94A70C8CCE002363
:100DD00059F0D93309F009CFEFEFF7EE23E0E150F6
:100DE000F0402040E1F7FFCE8C2F8F71A0CF0F9302
:100DF0001F93CF93DF93EC01688179818D810E94ED
:100E0000D3088C010E941E080E949407B801CE01ED
:100E10000E940305DF91CF911F910F910895CF9309
:100E2000DF93EC018C81882399F0CE010E94590355
:100E3000811111C00E94BC0B882351F08D81882341
:100E400039F080915E0382FF03C082E00E94A70C0C
:100E5000DF91CF910895CE010E94F706CE010E9446
:100E60000D03F6CF90E080E00E94052090E080E046
:100E70000E942A200E94E30B0E94770C0E94141EFD
:100E80000E94F81D08950E9431210E9432070895A2
:100E90000E94D30B0E944307089592959F7096304D
:100EA00091F058F4925F9F70923058F4803F19F09F
:100EB00030F4883E30F481E008959A5FF4CF843FA7
:100EC000D1F380E00895883EB0F3813FD1F7F3CFAE
:100ED000FC012481222339F0808191810E94C8087D
:100EE0000E944D07089580E00895A6E0B0E0EBE78A
:100EF000F7E00C94272A2696E2E00C94432AA7E018
:100F0000B0E0E5E8F7E00C94272A2796E2E00C949D
:100F1000432A08950E94890708950E948A079093A2
:100F20001F0280931E02089508950E948D07089560
:100F300020911E0230911F02822B932B0E948D075D
:100F4000089520911E0230911F02822393230E9454
:100F50008D07089520911E0230911F02822793274A
:100F60000E948D0708950E94890708950E94B30783
:100F700008950E94B60790931D0280931C02089565
:100F800090E080E00E94B907089521E030E0A901D7
:100F900002C0440F551F8A95E2F7CA010E94B907A3
:100FA000089521E030E002C0220F331F8A95E2F756
:100FB00080911C0290911D02822B932B0E94B907F5
:100FC000089521E030E002C0220F331F8A95E2F736
:100FD0002095309580911C0290911D0282239323CD
:100FE0000E94B907089521E030E002C0220F331FAC
:100FF0008A95E2F780911C0290911D028227932727
:101000000E94B907089520911C0230911D02822B85
:10101000932B0E94B907089520911C0230911D0264
:10102000822393230E94B907089520911C023091D6
:101030001D02822793270E94B90708950895262F3D
:10104000277091E001C0990F2A95EAF723E0769581
:1010500067952A95E1F7660F771F660F771FFA01EC
:10106000E60FF71F50E040E0682F70E08191DF014C
:1010700011979B01042E02C0369527950A94E2F73A
:10108000217021952827292328272C934F5F5F4F14
:101090004430510559F70895A82FA77023E096957D
:1010A00087952A95E1F7880F991F880F991FFB01F3
:1010B000E80FF91F50E040E080E0219130E00A2E77
:1010C00002C0369527950A94E2F721703327042E43
:1010D00001C0220F0A94EAF7822B4F5F5F4F443022
:1010E000510559F70895262F953068F4803158F44A
:1010F00030E1939FB0011124680F711D44EF51E05E
:10110000822F0E941F080895953070F4803160F49A
:1011100040E1949F9001112464EF71E0820F932FBE
:10112000911D0E944C08089580E00895B0E0A0E071
:10113000ECE9F8E00C94202A7C0100911C0210914B
:101140001D0280911E0290911F02082B192BCFE0E7
:10115000D0E0CC24C394D12CBC2EC6010C2E02C0EE
:10116000880F991F0A94E2F780239123892B49F471
:10117000219790F7B12C8B2DCDB7DEB7E9E00C9419
:101180003C2AB7018C2F0E94BD0F019789F3F3CF42
:10119000CF93DF93EC010E949608BE010E94BD0F21
:1011A000DF91CF9108951F93CF93DF93EB0190913F
:1011B000F301992339F0CB010E94C808DF91CF9148
:1011C0001F910895882369F0CB010E949608182F7B
:1011D000682FCE010E947308BE01812F0E94BD0FAF
:1011E000EDCFCB010E948408182FF6CF1F93CF9329
:1011F000DF93C091200217E0809121028C1304C07C
:10120000DF91CF911F910895D0E01C9FF0011D9FA9
:10121000F00D1124EE5DFD4F20813181428153811B
:101220006481758186810E947F072196C770E4CF13
:1012300020915A0230915B0240915C0250915D0214
:1012400060915E0270915F02809160020E947F0750
:101250000895CF93DF9380916002807F09F04DC0A5
:1012600080915F02882309F448C0E09120025091E8
:101270002102C0915B02D0915A0260915C02709190
:101280005D0247E05E17C9F18E2F90E0E49FF00108
:101290001124EE5DFD4F2481222391F1489FF0013E
:1012A000499FF00D1124DF01AE5DBD4F11962C91C9
:1012B00011972C1325C02C912D1322C015962C911B
:1012C000159721111DC012962D913C91261B370BAD
:1012D000283C3105A8F4809160028F708061809372
:1012E0006002E85DFD4F80818F70806180838AE5B8
:1012F00092E00E940F070E94F608DF91CF910895B7
:10130000FC013196E770BECF482F209120029091CA
:10131000210257E0291302C080E0089530E0529F77
:10132000F001539FF00D1124EE5DFD4F8181681394
:1013300006C08081481303C085818111EECF2F5FE5
:101340003F4F2770E7CFA4E1B0E0E9EAF9E00C9461
:101350001D2A8C0186E0F801DE011F9601900D9296
:101360008A95E1F7F8018481E5809AE5A92E92E05B
:10137000B92E90915E0291111FC08823D1F0EE200A
:10138000A9F0C8010E946807F82E882379F087E049
:10139000F801D50101900D928A95E1F7C5010E94EF
:1013A00045040E9429090E9418095FC0C8010E94D3
:1013B0000F07FF24F39459C0C080D18082809380AE
:1013C000F0905F0220915C0230915D02A401421B0B
:1013D000530BFF2009F4F9C0483C510508F0A7C0A1
:1013E000882309F442C090915B0280916002282F0B
:1013F000207F09F05CC09D1116C090915A02C9125D
:1014000012C0E1104EC08F708061809360020E9414
:1014100018098AE592E00E940F0780916002F801A6
:101420008683F12C22C0E1103CC06D2D8C2D0E94D2
:1014300084096D2D8C2D0E948409E82E8111F1CF35
:10144000CF86D88A8F8598890E94C808292F22952F
:101450002F70243078F49F702230A8F09923B9F0CF
:10146000F8019681907F99F4FE2C8F2D6496ECE024
:101470000C94392A2A5F2F70223068F0C8010E942C
:101480000F07EF2CF1CF992311F0882369F3805EC9
:10149000883050F3F3CF803F38F3815F833070F7AB
:1014A000E3CF80916002816080936002BACF9D118A
:1014B00013C090915A02C9120FC0E1100DC086836B
:1014C000C8010E940F0787E0F801AAE5B2E0019089
:1014D0000D928A95E1F767CFC8010E9468078823BB
:1014E00009F464CFEE2009F461CF8091600280326C
:1014F00088F020915A0230915B02398728879B86B9
:101500008A8690915E029C871D868E87CE01089602
:101510000E940F0787E0F801AAE5B2E001900D9262
:101520008A95E1F70E9429090E94180942CF9091FB
:101530006002292F207FA1F4682D9A8A898AA6014A
:101540007A899E2D0E9475078AE592E00E940F0716
:1015500087E0F50111928A95E9F70E94180961CF99
:10156000882309F482CF80915B028D1110C0809195
:101570005A02C8120CC0E1100AC09683C8010E942A
:101580000F0787E0F50111928A95E9F76ECFC80140
:101590000E946807882309F409CFEE2009F406CFDA
:1015A00080916002803208F4B5CF20915A023091C8
:1015B0005B023A8329839C828B8290915E029D8399
:1015C0001E828F83CE010196A3CF483C5105B8F50A
:1015D000882309F4EECEFE2CEE2009F4E7CE8091AC
:1015E0005B028D111EC080915A02C8121AC08091F0
:1015F000600280FD0DC0982F907F51F08683903F50
:1016000009F45ECF982F907F905F8F70892B57CF12
:1016100087E0F801AAE5B2E001900D928A95E1F722
:1016200024CFC8010E946807811174CF80916002A5
:10163000816080936002C8010E940F0716CF682D59
:101640009A8A898AA6017A899E2D0E94750787E069
:10165000F50111928A95E9F7A6CEAEE0B0E0E3E39A
:10166000FBE00C94262A288739874A875B876C879A
:101670007D878E87CE0108960E94A3098823B1F04A
:101680006C85662341F0288539854A855B857D8593
:101690008E850E947F0717E08091200290912102A1
:1016A00089133DC02E96E3E00C94422A87E0FE01A8
:1016B0003896DE01119601900D928A95E1F78C859E
:1016C000882349F32091210230E0C90101968770F7
:1016D0009927409120024817190699F097E0929FA8
:1016E000D001939FB00D1124AE5DBD4FFE01319628
:1016F00001900D929A95E1F7809321020E94F608DD
:10170000CACF0E944807109221021092200287E05F
:10171000EAE5F2E0DF011D928A95E9F7BCCF819FEF
:10172000C00111248E5D9D4F0E94A309882309F4F6
:10173000B9CFE09120021E9FF0011124EE5DFD4F14
:1017400020813181428153816481758186810E942B
:101750007F078091200290E00196877099278093FF
:1017600020029ACF80918902869586958695089564
:10177000809189028770089590918902977081E025
:1017800009F480E008958091B50208959091B50222
:10179000892B8093B502089580959091B502982386
:1017A0009093B50208951092B50208959091B402F5
:1017B000892B8093B402089580959091B402982368
:1017C0009093B40208951092B402089508950E946F
:1017D000E60B089590918A02292F282331F08095F5
:1017E000892380938A020E94E70B089508950E943E
:1017F000F60B089590918B02292F2823281729F0A2
:10180000982B90938B020E94F70B089590918B0276
:10181000292F282331F08095892380938B020E9401
:10182000F70B089580918B02882329F010928B0288
:1018300080E00E94F70B0895CF93C091B50280918C
:10184000B402C82B80918B02882331F0C82B0E94F0
:101850004F2081110E94120C8C2FCF910895CF93AD
:10186000DF93C0910601D09107010E941C0C888370
:10187000C0910601D091070148E050E061E872E0B4
:10188000CE010E94ED2A892B59F088E0FE01A1E8E3
:10189000B2E001900D928A95E1F7CE010E94DE1F21
:1018A000DF91CF910895CF93DF93C0910401D09140
:1018B00005010E941C0C8983C0910401D09105018F
:1018C00040E250E061E672E0CE010E94ED2A892BF1
:1018D00059F080E2FE01A1E6B2E001900D928A95F6
:1018E000E1F7CE010E94E91FDF91CF9108950E9498
:1018F000C121813039F480915D0387FF03C00E94CC
:10190000530C08950E942F0C089508950E94850C91
:10191000089590915E0392FF11C098E0899F900115
:101920001124622B609389020E94D1078091890261
:101930008695869586950E94860C08950E94D1070B
:1019400008951092890280E00E94860C089590917B
:1019500089028095892380938902282F277069F452
:10196000891759F090915E0392FF07C0869586957E
:1019700086950E94E1070E94A10C089590915E0354
:1019800092FB222720F9281769F080FB92F99093A7
:101990005E0380915D0390915E030E940D0D82E0D5
:1019A0000E94A70C089580915E0382FB882780F92E
:1019B00091E089270E94BE0C089581E00E94BE0C30
:1019C000089580E00E94BE0C08956FEF7FEF90E0D5
:1019D00080E00E94452B089590E080E00E94112B4A
:1019E00021E0853E9E4F09F020E0822F089582E09D
:1019F00090E00E94032B089583E090E00E94032B67
:101A000090E00895682F83E090E00E94272B0895CE
:101A100084E090E00E94112B0895BC0184E090E0E6
:101A20000E94452B0895AB01BC018FE090E00E941D
:101A3000392B0895AB01BC0183E190E00E94392B62
:101A4000089560E070E0CB010E941A0D089560E0F7
:101A500070E0CB010E94130D0E94210D0895A8E0B3
:101A6000B0E0E5E3FDE00C94272A65EE7EEF90E020
:101A700080E00E94452B60E082E090E00E94272BEE
:101A800081E090E090931F0280931E020E94020D5D
:101A900060E074E184E090E00E94452B60E086E025
:101AA00090E00E94272B60E087E090E00E94272BC7
:101AB00040E050E0BA0188E090E00E94392B60E0FD
:101AC00083E290E00E94272B60E08CE090E00E948F
:101AD000272B60E08DE090E00E94272B19821A826C
:101AE0001B821C821D821E821F82188648E050E0E5
:101AF00067E170E0CE0101960E94172B40E050E0B4
:101B0000BA018FE190E00E94392B0E94270D2896A0
:101B1000E2E00C94432A0E942F0D0895682F8EE076
:101B200090E00E94272B0895A6E0B0E0EAE9FDE0EE
:101B30000C94252A0E9474228C018091B602909107
:101B4000B7028017910781F019821A820E947422CD
:101B5000682F49815A81792F80E090E00E94150416
:101B60001093B7020093B6022696E4E00C94412A43
:101B70000E9480226093C6027093C7028093C802BD
:101B80009093C9026093C2027093C3028093C4020F
:101B90009093C5020895089508950E94CB0D08956D
:101BA00008950E94D00D089583EB90E10E942D12BC
:101BB0000E94CC0D0E94CD0D089581E008950E94F1
:101BC000DD0D08950E94DD0D0895089508950E9489
:101BD000E50D0E94E60D08950E94EC0C811102C0F3
:101BE0000E948B0D0E94F70C8093CA020E94080D80
:101BF00090935E0380935D030E94FC0C0E94950706
:101C000080911C0290911D020E94B60708950E94C7
:101C10006B220E9488110E94EC0D0E94ED030E942D
:101C20004B1B0E94A8190E94B3180E94D10D089561
:101C3000A6E0B0E0EEE1FEE00C941B2A0E94DF0D6E
:101C400081110EC00E94940D0E9494190E944A1B9B
:101C50000E94361E0E94FC032696EEE00C94372A62
:101C60000E949E1128EB822E22E0922E640110E049
:101C7000F601E190F1906F01812F0E94CF101F5F5C
:101C8000153009F44BC0E816F90691F38091CA02A9
:101C900081FD0E94D8100E94E20D782E10E066248B
:101CA0006394812F0E94CF107C01F401A190B19028
:101CB0004F018A159B0561F100E0CC24C394D12C1F
:101CC000AE24BF24C5018C219D21892BC1F0772032
:101CD000B1F009831A830E9474229C838B836D82E6
:101CE00021E0C7018C219D21892B09F420E0498145
:101CF0005A816B817C818D81922F0E9415040F5F28
:101D0000CC0CDD1C0031F1F6F4013297F182E08257
:101D10001F5F153031F60E94B80D96CFE816F90610
:101D200009F0B4CF8FCF1F93CF93DF930E94C20FE0
:101D3000EC01C11580E5D807F0F5C11580E4D8079E
:101D400008F09CC0C03ED10520F5CD3CD10508F07F
:101D500082C0C83AD10578F4C53AD10508F073C0FD
:101D6000C130D10519F1209709F1C430D105F0F443
:101D7000D0E0C0E01BC0C33CD105D0F7C85AD0E0CA
:101D8000CC0FDD1FC659DE4F0990D881C02DD46419
:101D90000DC0C11580E2D80708F0D1C0C11581E09F
:101DA000D80708F05AC0C83ED10510F7CE01DF9120
:101DB000CF911F910895C03682E5D80718F5C03439
:101DC00082E5D80708F06BC0C03282E5D80708F07A
:101DD0005FC0C11582E5D80708F497C02C2F26955F
:101DE000269580E2289F900111248C2F8370C1E0FA
:101DF000D0E002C0CC0FDD1F8A95E2F7C22BD32BB7
:101E0000DD68D4CFC03A82E5D80760F4C03882E5F7
:101E1000D80708F459C0CF71D0E0DC2FCC27C46FAD
:101E2000D06AC4CFC03C82E5D80708F462C0C03E87
:101E300082E5D80708F09CCFDC2FCC27CC27DF71B8
:101E4000C06FD06AB3CFC55AD0E0C056DE4FC8814C
:101E5000D0E0D064ABCFD065A9CF8D2F0E946410A5
:101E6000182FCE0199270E94C20FC12FD0E0DC2F7E
:101E7000CC27CC27DF71C82BD92B98CFCE0199273F
:101E80000E94C20FCC27DF70C82BD92BD06A8ECF0F
:101E9000CF71D0E0DC2FCC27C16FD06A87CF2C2F39
:101EA00026952695277080E2289F900111248C2F7B
:101EB0008370C1E0D0E002C0CC0FDD1F8A95E2F74D
:101EC000C22BD32BDC6872CF2C2F2695269527703A
:101ED00080E2289F900111248C2F8370C1E0D0E014
:101EE00002C0CC0FDD1F8A95E2F7C22BD32BDA6834
:101EF0005DCF8C2F8F710E946410C82FD0E0DC2F33
:101F0000CC27CC27DF71D06251CF8C2F8F710E94EC
:101F1000641055E0D695C7955A95E1F7CF70D0E09B
:101F2000DC2FCC27282F30E084FF05C044E0220FAF
:101F3000331F4A95E1F7C22BD32BD06937CF8D2FB2
:101F40008F710E946410182FCE0199270E94C20F32
:101F5000C12FD0E0DC2FCC27CC27DF71C82BD92BA9
:101F6000D2CF462F753030F4603120F4672F0E94B5
:101F7000B402089590E080E008950E94B10F0E949D
:101F8000930E089582389105B9F1B0F4813391052B
:101F900009F47DC048F48932910509F46DC08A3294
:101FA000910509F47BC008958533910509F45FC05C
:101FB0008933910509F10895833E9105D9F138F4EB
:101FC000803E910529F1823E910579F10895863E82
:101FD0009105D9F1873E910509F43EC0843E9105F3
:101FE00041F520915E0321FF24C080915D0384FDB3
:101FF00019C087EE90E0089520915D03237009F0E9
:102000005AC020915E0323FF14C089E290E0089536
:1020100020915D0320FD38C030915E0330FF09C080
:1020200024FF43C090E080E0089520915D0322FDED
:10203000F7CF089520915D0322FD3AC030915E03F1
:1020400030FD39C024FFF5CFEDCF20915D0323FF94
:10205000F0CF24FDE7CFCDCF20915D0323FD2EC02F
:1020600030915E0331FFEECF84EE90E00895209131
:102070005D0325FFDECFC9CF20915D0325FD21C083
:1020800020915E0323FFD5CF89E390E0D2CF20914A
:102090005D0326FFCECF8AE290E0089520915D0394
:1020A00026FFC7CF81E390E0089583EE90E0089586
:1020B00082EE90E0089580EE90E0089586EE90E044
:1020C000089585E390E0089590915D0392FF10C01C
:1020D00041E0282F2471243009F040E031E0282F1E
:1020E0002871283009F030E0431711F02CE08227E6
:1020F00093FF10C041E0282F2471243109F040E003
:1021000031E0282F2871283109F030E0431711F011
:102110002CE0822730915E0330FF10C051E0282F61
:102120002171213009F050E041E0282F287128303A
:1021300009F040E0541711F029E0822731FF10C068
:1021400041E0282F2171213109F040E031E0282FB2
:102150002871283109F030E0431711F029E0822777
:1021600094FD877E089580E00895CF939C01205EC2
:102170003245C1E02032310538F4FB01C581C1117F
:1021800003C08F710E9425038C2FCF91089508956D
:102190000E94C710089508950E94CB100895E82F5B
:1021A000F0E0EE0FFF1FE759FC4F80819181089509
:1021B000089580EA8A95F1F7089500C008950E9475
:1021C000D9100895F894E82FE295EF70F0E031A16E
:1021D000282F2F7081E090E001C0880F2A95EAF740
:1021E000982F9095932391A392A1892B82A3789401
:1021F00008950F931F93CF93DF93C3EBD1E08991A1
:102200008F3F11F00E94E21081E0C83BD807B9F778
:10221000C3EAD1E003EB11E089918F3F11F00E94F6
:10222000E2100C171D07C1F7DF91CF911F910F919D
:102230000895AF92BF92DF92EF92FF920F931F9398
:10224000CF93DF938C01D62EC62FD0E0CE018D54D4
:102250009E4F7C01FC0120812F3F09F44CC0F89473
:10226000E22FE295EF70F0E031A12F7081E090E075
:1022700001C0880F2A95EAF7932F982B91A392A17A
:102280008095892382A378940E94DD10E3EAF1E02F
:1022900041E050E0B12CA12C21912F3FB1F1A22FB0
:1022A000A295AF70B0E090968C9190E02F7002C034
:1022B000959587952A95E2F780FD27C0CA01A82A3F
:1022C000B92A440F551F81E0E33BF80729F7F701CE
:1022D00080818F3F11F00E94E21061E0A114B104EF
:1022E00009F460E08D2D0E94DF10CC0FDD1FC00FC0
:1022F000D11FB982A882DF91CF911F910F91FF90DA
:10230000EF90DF90BF90AF90089590E080E0D7CF3E
:102310000E94F9108AE0E9E6F3E0DF01982F1D92B0
:102320009A95E9F7EFE5F3E0DF011D928A95E9F769
:1023300085E00E94D9110E94C8100895AAE0B0E07B
:10234000E4EAF1E10C94242A8E010F5F1F4F8AE02A
:10235000F80111928A95E9F7F12C6F2DC8010E94BE
:102360001911F394F5E0FF12F8CF4AE050E0B801FC
:102370008FE593E00E94ED2A21E0009709F420E028
:10238000892B41F08AE0F801AFE5B3E001900D92AE
:102390008A95E1F745E069E673E08FE593E00E94F6
:1023A000DA11182F0E94CC10812F2A96E5E00C94A8
:1023B000402A0895B0E0A0E0E0EEF1E10C94212A7B
:1023C0006C017B01042FC22F222379F081E08093DE
:1023D000CD020E9474229093CC028093CB0280E0C5
:1023E000CDB7DEB7E8E00C943D2AD091CD02DD23D5
:1023F000B1F38091CB029091CC020E940322059709
:1024000070F310E0000F111FA801B601C7010E9470
:10241000ED2A892B31F0A801B601C7010E94FA2AE2
:10242000CD2F1092CD028C2FDBCF0E94180E089575
:102430000E940D220E9428240E94D40D0E94422452
:102440000E94070E0E944F240E9454240E941512DD
:102450000E946E240E94E70DF7CF9093ED018093C8
:10246000EC0108950F931F93CF938C01FB01C5815D
:10247000CC2309F447C00E94C30B8272F801E052DA
:10248000F847EB30F10538F4E857F44D0C94E029A7
:102490000E94A518C0E08C2FCF911F910F91089535
:1024A000882329F00E949318F5CF8823D9F30E943E
:1024B0008318F0CF882329F00E942B15EBCF8823B7
:1024C000D9F30E941C15E6CF882329F00E944D15F0
:1024D000E1CF8823D9F30E943C15DCCF882329F073
:1024E0000E946F15D7CF8823D9F30E945E15D2CFF3
:1024F000882329F00E94F413CDCF8823D9F30E94BA
:10250000D413C8CFC1E0C7CFEF92FF920F931F93B0
:10251000CF93DF939B01682F31110EC0442329F024
:10252000E82FF0E0EA59FD4F6491762F862FCDB762
:10253000DEB7E6E00C943F2AC32FD0E0E82FF0E0AE
:10254000442321F0EA59FD4FE491F0E046E0249F56
:10255000C00111240FEF10E0B8010E949629AB01D1
:10256000822F90E0880F991F25E5249FB001259FB9
:10257000700D1124861B970B982F990F980FB80197
:102580006C1B7D0B6E9FD0016F9FB00D7E9FB00DB9
:1025900011248B2F939F90011124232F3327B801EF
:1025A000621B730B6E9F90016F9F300D7E9F300DED
:1025B00011247801E91AF108EC9EB001ED9E700D2E
:1025C000FC9E700D1124672F7727061B170B0E9F9B
:1025D000E0010F9FD00D1E9FD00D11247D2F9E2F47
:1025E0004230510599F048F44115510569F04130E8
:1025F000510581F07B2F832F07C04430510569F0CE
:1026000080F046305105B1F7692F91CF9B2F8D2F68
:102610007E2FFACF7E2F932FF7CF9D2F7B2F8E2FDC
:10262000F3CF732F9B2FFBCF41E00E9484120895BC
:1026300008950E941413089590910B01291B922F65
:10264000E091E501F091E601242F462F682F892FB4
:1026500090E009950895CF93DF93762FE901682FD5
:10266000842F0E941913962F672F9E01482F892FC0
:102670000E941C13DF91CF91089580917303982FCE
:102680009C7F29F4837084608093730308958C3A4F
:10269000E8F38370886AF8CFB0E0A0E0E2E5F3E108
:1026A0000C94212A88E090E00E940B2B6B017C01A6
:1026B00083E290E00E94032B282F30E040E050E0BE
:1026C00060E070E080E090E000E20E944E2AB22FCD
:1026D000A32FF42FE52FD62FC72F97018601BC29F2
:1026E000A12BFE295E2F532B2B2F3A2F4F2F6D2F0F
:1026F0007C2FCDB7DEB7E8E00C943D2AB0E0A0E037
:10270000E4E8F3E10C941D2A49015A016B017C01B4
:102710000E943D138401A4016A2D7B2D88E090E086
:102720000E94392B94014A2D5B2DB601C70100E2AE
:102730000E94692A622F83E290E00E94272BCDB786
:10274000DEB7ECE00C94392AE3E7F3E085E0808320
:1027500011828FEF828383831482758125E030E0BC
:102760004FEF5FEF60E0868197810E947E130895AE
:1027700090917703933018F49F5F909377038823A9
:1027800091F020917303309174034091750350913F
:10279000760360917703709178038091790390912B
:1027A0007A030E947E13089581E00E94B813089571
:1027B00090917703992319F0915090937703882390
:1027C00091F02091730330917403409175035091FF
:1027D00076036091770370917803809179039091EB
:1027E0007A030E947E13089581E00E94D813089511
:1027F0000F931F93CF938091730380FF09C0E091E3
:10280000E901F091EA010995CF911F910F91089587
:10281000C0910D010091E5011091E60180910E013A
:10282000C81768F780910B019C2F981B892F20E017
:1028300040E060E090E0F8010995CF5FEFCFEF92C4
:10284000FF920F931F93CF93DF93D82F162F042F50
:102850008091730380FF0CC0C0910D01E090E501F1
:10286000F090E60180910E01C81738F00E94F8132D
:10287000CDB7DEB7E6E00C943F2A80910B019C2F88
:10288000981B892F202F412F6D2F90E0F70109957C
:10289000CF5FE8CF762F9091730390FF0AC0682F27
:1028A000842F0E941413962F672F482F892F0E9480
:1028B0001F140895CF93DF93EC01EC81F0E0EF5902
:1028C000FE4F4491E3E7F3E0628181810E944A1464
:1028D0008C818F5F8C83DF91CF910895CF93DF93AD
:1028E000EC01E3E7F3E0438162818C810E944A14AA
:1028F0008C818F5F8C83DF91CF910895CF93DF938D
:10290000EC01409176039C81892F817090FD842F8A
:10291000692F627091FD642F92FF40E00E941F14A6
:102920008C8190E00196877099278C83DF91CF91FD
:102930000895B0E0A0E0EFE9F4E10C94222AD82F4A
:10294000F62E142FE22E9091730390FF2FC0E92FE3
:10295000E695E695AE2FB0E0A854BE4F8C918093DB
:102960003B039C7F943039F56D2F7F2D842F0E947F
:102970001413962F672F482F892F0E941F14D0936E
:102980007403F092750310937603EE2079F0209192
:10299000730360917703709178033D2F4F2D512F72
:1029A0008091790390917A030E947E13CDB7DEB7B0
:1029B000E7E00C943E2A823019F410917603DFCFC1
:1029C000863019F4D0917403DACF8930D9F3893184
:1029D000B1F6E9518E2F8170D82EE695F0E0EF59CF
:1029E000FD4FC49100E060910F01061718F00E949E
:1029F000F813C5CF0C9FC001112470E00E949629E6
:102A00008D2FD1100CC0860F20910D01200F332780
:102A1000331F412F6F2D0E942B130F5FE4CF861BB6
:102A2000F3CFE3E7F3E09181282F4381628188E0CF
:102A3000890F0E949914089581E00E94111508954C
:102A4000E3E7F3E09181282F4381628188EF890FCA
:102A50000E949914089581E00E9420150895E3E7EB
:102A6000F3E0628128E0620F08F46FEF282F4381C2
:102A700081810E949914089581E00E942F15089584
:102A8000E3E7F3E0628128E0621B08F460E0282FAE
:102A9000438181810E949914089581E00E9440152C
:102AA0000895E3E7F3E0438128E0420F08F44FEF95
:102AB000282F628181810E949914089581E00E94EB
:102AC00051150895E3E7F3E0438128E0421B08F441
:102AD00040E0282F628181810E949914089581E04D
:102AE0000E946215089520E00E9499140895EF92C3
:102AF000FF921F93CF93DF93EC0110E0EE24EA9452
:102B0000F12C60910F01161770F00E94F8139A8152
:102B10008C8190FF1EC08F5F8C83DF91CF911F91BE
:102B2000FF90EF90089520910D01210F3327331F5F
:102B300070E0C7010E94AA29962F8C8140917603EC
:102B400060917503199F800D11240E942B131F5F44
:102B5000D8CF8150E1CFB0E0A0E0E1EBF5E10C94FB
:102B60001F2AFC018281DFEF80FFD1E0C0E00091ED
:102B7000E5011091E60124E1A22E80910F01C81712
:102B800098F00E94F8138091CF02D13009F050C024
:102B9000811102C080910F0181508093CF02CDB787
:102BA000DEB7EAE00C943B2A80910D0190910B0175
:102BB000891B8C0F20E040E060E090E0F80109956F
:102BC00094E0E92EF12CB12CCC2ED12C8091CF02A7
:102BD0008B0D85313CF16A2D0E948829892F082EA2
:102BE000000C990BC816D906B1F420910D012C0DDB
:102BF0003D2D311D809176038E9DA0018F9D500D3E
:102C00001124559547955595479560917503809189
:102C100074030E942B13BD0EF1E0EF1AF108B1F618
:102C2000CF5FABCF87FFDBCF90910F01890FD7CF5D
:102C300090E0019660910F0170E00E94AA29ADCF4B
:102C40000F931F93CF93C0910D010091E501109157
:102C5000E60180910E01C81750F1C0E00091E50136
:102C60001091E60160910F01C61770F10E94F813F0
:102C7000209109018091CE02820F8093CE02909123
:102C80000A01920F90930A01191654F4082E000CB1
:102C9000990B40910F014150550B841795071CF07B
:102CA000219520930901CF911F910F910895809153
:102CB0000B019C2F981B892F20E040E060E090E002
:102CC000F8010995CF5FC5CFEC2FF0E070E0CF01A0
:102CD0000E94AA2920910D01820F2091CE02022E7E
:102CE000000C330BE217F307A4F020910A01022E27
:102CF000000C330B2E173F0764F0282F30E0409173
:102D0000760360917503809174030E942B13CF5F4B
:102D1000A9CF90910B01891B20E040E060E090E09A
:102D2000F8010995F4CFB0E0A0E0E9E9F6E10C94F0
:102D30001D2AEC014C81042F10E09801D8010E945B
:102D4000EE299B01AC010E94042A4B015C01E0E2E8
:102D5000F0E0E01BF10BA5E5B0E0AC019B010E94A7
:102D6000042A6B017C019F01DF010E94E6299B017F
:102D7000AC010E940F2A9B01AC01280D391D4A1D90
:102D80005B1DC701B6010E94BE29F22E822F90E082
:102D900039E23F1520F143E0249F9001112435953D
:102DA0002795122F109500E085E5E82EEF18809109
:102DB0000F01081720F10E94F8139C8181E09923EC
:102DC00019F0903219F48FEF809308018091080177
:102DD000890F8C83CDB7DEB7ECE00C94392A25E55A
:102DE00030E0A901481B590BCA019A01220F331F79
:102DF000280F391F37FFD3CF2F5F3F4FD0CF8E2DF6
:102E000001FD8F2D20910D01200F3327331F412FFE
:102E1000609175030E942B130F5FC9CF0F931F930F
:102E2000CF93DF938C01D0E0C0E090910F019C170D
:102E30001D0609F074F40E94F813F801848190E0F3
:102E40000196817099278483DF91CF911F910F9113
:102E50000895F801448120910D012C0F3D2F311D63
:102E6000609175038091740396959C171D0649F037
:102E700044F0442341F0409176030E942B132196A5
:102E8000D4CF4423C1F340E0F8CFB0E0A0E0EBE4BE
:102E9000F7E10C94192AFC016280448081E084836C
:102EA000E1E6F1E07490E0EEF1E0E491C0917603A8
:102EB000C695C158D0E0CC0FDD1FCD2FDD27812C6A
:102EC00025E0922EAA24AA94B12C55245A94E719ED
:102ED000EE2EF12C80910F01881638F00E94F81325
:102EE000CDB7DEB7E0E10C94352AC82CD12C82E0B6
:102EF000861568F09C9CF0019D9CF00D1124E05318
:102F0000FD4F80917403808380917503818341100C
:102F10001CC09C9CF0019D9CF00D1124E053FD4FC2
:102F20001382128220910D012C0D3D2D311D9C9C90
:102F3000F0019D9CF00D1124E053FD4F4281618111
:102F400080810E942B138394C5CF9C9C80019D9C03
:102F5000100D112400531D4FF80183818823F1F0D7
:102F600081508383859DC0011124648170E00E949B
:102F70009629FB01FF27EF59FE4F8491E82FE719AF
:102F8000E59DC0011124B7010E9496298091760326
:102F9000689FB0011124F8017283C4CF0E94D02A27
:102FA000B5010E94AA298C179D070CF0BBCFF2E057
:102FB000F61598F40E94D02AB5010E94AA29F801BA
:102FC00080830E94D02A209175032695622F70E09D
:102FD0000E94AA29280FF80121839C9CF0019D9C46
:102FE000F00D1124E053FD4F128280917603893C4D
:102FF00058F088EC9C9CF0019D9CF00D1124E0534E
:10300000FD4F848383838ECF8431A0F784E1F2CF98
:10301000E3E7F3E020812E7F2083318142815381D9
:1030200064817581868197810E947E1310923C0392
:103030000E94F8130895609173036695669570E099
:103040004BE050E080E191E00E94E02A892B19F4E6
:1030500081E080933C030E94742290933503809317
:10306000340308959091730390FF34C093708111DD
:1030700032C0946090937303662391F020917303A0
:1030800030917403409175035091760360917703FA
:10309000709178038091790390917A030E947E1356
:1030A000609173036695669570E04BE050E080E1B7
:1030B00091E00E94E02A892BB1F010923C0381E05C
:1030C0008093370340917603609175038091740378
:1030D0000E94731508958B3210F0986ACBCF880F39
:1030E000880F982BC7CF0E941B18E9CF682F9091AB
:1030F00073039695969581E0890F8B3208F081E0F5
:103100000E943218089581E00E9476180895682F71
:1031100090917303969596958FEF890F09F48AE243
:103120000E943218089581E00E948718089561E096
:103130000E9432180895E3E7F3E080818160808384
:10314000869586950E94971808958091730380FF55
:1031500003C00E94081808950E949B18089560E01B
:103160000E943218089580913A0381113CC00E9458
:103170004C1320937303309374034093750350935F
:103180007603609377037093780380937903909329
:103190007A032C7FA1F40E94A4130E944C13209365
:1031A00073033093740340937503509376036093D5
:1031B0007703709378038093790390937A030E9446
:1031C0003D1310923C03E091E301F091E401099575
:1031D0008091730380FF04C0869586950E94AF1886
:1031E00081E080933A0308950F931F93CF93DF9369
:1031F00080913C038823C1F180913B03E0917303EC
:10320000E695E695E81BE0933603823091F5F0E011
:10321000E35AFE4FE491CE2FD0E00AE514E180910D
:103220003703882361F0109237030E947422909331
:1032300035038093340310923903109238030E94AF
:103240007422E0913403F09135038E1B9F0B8F3F66
:103250009F4750F4EC0FFD1FF0933503E0933403C8
:1032600084E393E0F8010995DF91CF911F910F91CD
:103270000895863049F4F0E0E65AFE4FE491CE2FEF
:10328000D0E00EE614E1CBCF893051F4E695F0E0C2
:10329000E95AFE4FE491CE2FD0E007E715E1BFCF0A
:1032A0008F3051F4E695F0E0EC5AFE4FE491CE2FCA
:1032B000D0E00BEA15E1B3CF853149F4F0E0EF5AE5
:1032C000FE4FE491CE2FD0E000E216E1A8CFC8E295
:1032D000D0E003E916E1883109F4A1CF833239F453
:1032E000EFE4F1E0C591D4910EE714E198CFC4EF7B
:1032F000D1E00EE017E1843209F491CFC0EDD7E0C0
:1033000008E113E1853209F08ACF8E2F63E00E9435
:103310007C29E92FF0E0E45BFE4FE491CE2FD0E072
:1033200005E417E17CCF08950E94F418089586E023
:1033300090E00E94032B0895682F86E090E00E94A1
:10334000272B08958DE180937B030E949C1908959B
:103350000E94971980937B0382FF0E94A21980919B
:103360007B03803220F08770886180937B0390918B
:103370007B03892F817090FF04C0892F86958695E5
:1033800086950E94A91A089580917B03982F96959F
:1033900096959695933040F49F5F990F990F990FEA
:1033A0008770892B80937B0380917B03816080935E
:1033B0007B030E949C1980917B0386958695869558
:1033C0000E94A91A089580917B03982F987F79F025
:1033D000885080937B03887F91E009F490E080918E
:1033E0007B0390FB80F980937B030E949C19809162
:1033F0007B038695869586950E94A91A08958091EB
:103400007B0380FD13C0816080937B03813019F4BE
:1034100089E080937B0380917B030E949C198091BB
:103420007B038695869586950E94A91A08958091BA
:103430007B0380FF08C08E7F80937B030E949C19D2
:1034400080E00E94A91A089580917B0380FF03C049
:103450000E94171A08950E94FF19089590917B0306
:10346000892F8695869586958F5F8F7197708430AA
:10347000E0F4880F880F880F892B80937B0380915D
:103480007B03887F91E009F490E080917B0390FBBF
:1034900080F980937B030E949C1980917B03869521
:1034A000869586950E94A91A089590937B03E7CF8D
:1034B000843008F083E090917B039770282F220FCF
:1034C000220F220F922B90937B03987F21E009F427
:1034D00020E090917B0320FB90F990937B030E9466
:1034E000A91A08950E94581A80917B030E949C1982
:1034F00008959C01FB018581882349F12230F8E77A
:103500003F07F9F040F42115E8E73E0769F0213064
:10351000384779F00895243098E7390779F058F062
:103520002530384789F0089583E00E94721A80E0C0
:10353000089580E0FACF0E94E319F9CF0E94C419E0
:10354000F6CF0E94241AF3CF0E942E1AF0CF81E00A
:1035500008958F929F92AF92BF92EF92FF920F9336
:103560001F93CF93DF938430B0F5811135C09091D4
:1035700080009F7D90938000A0918600B09187008D
:10358000282F30E00E94EE2923E030E040E050E0B8
:103590000E94BE2989019A0180918600909187003E
:1035A0006CE070E00E94962960177107C8F0C801AE
:1035B00069E070E00E94962970938B0060938A0006
:1035C000DF91CF911F910F91FF90EF90BF90AF903F
:1035D0009F908F90089583E0909180009062CACF71
:1035E0008091860090918700E0908600F09087009F
:1035F000E0918600F0918700C6E0D0E0BE010E9415
:103600009629060F171F211D311D4801590185E01C
:10361000880C991CAA1CBB1C8A95D1F7C701BE0156
:103620000E9496299F0150E040E0260F371F411D60
:10363000511DC501B4010E94BE2949015A01E09102
:103640008600F0918700CA01B9010E946C299B0194
:10365000AC01DF010E94042A9B01AC01C501B40149
:103660000E946C292FE096958795779567952A9506
:10367000D1F7009186001091870030E020E0061716
:1036800017072807390708F097CF609186007091D7
:10369000870092CF0895269A2E9882E28093800028
:1036A00089E1809381008FEF9FEF90938700809353
:1036B00086000E94A81908956A9A0895FC01EE0FE9
:1036C000FF1FE80FF91FE458FC4F618340832283FA
:1036D0000895ECE7F3E0818360834283339693E0BF
:1036E000E83BF907C1F708953EB13B7F2EB1246056
:1036F0004FB7F8948CE793E0FC015191CF0168E05B
:103700002EB9000000C057FF3EB9550F000000C0A1
:1037100000C000C03EB900C06A9591F7F3E0883B55
:103720009F0751F74FBF8FE594E00197F1F700C075
:1037300000000895CF93DF93EB0186319C4711F58C
:103740000E94C30B9D81992399F08A7A91E009F434
:1037500090E090933D03811109C089E20E94FD2011
:103760000E94770C80E0DF91CF91089585E3F6CF3A
:1037700080913D03811104C089E20E941721F0CF9E
:1037800085E3FBCF81E0EFCFCF93DF93EC01FB012B
:103790008581882309F4D2C09E0130572332310538
:1037A00008F0B2C00E94080D90935E0380935D0301
:1037B000FE01E150F047E232F10520F4ED56F44D00
:1037C0000C94E02980915D03816080935D0393C038
:1037D00080915E03886080935E038DC080915D035D
:1037E0008260F3CF80915D038460EFCF80915D03B1
:1037F0008860EBCF80915E038160EDCF80915E03A6
:103800008260E9CF80915D038061DFCF80915D03AD
:103810008062DBCF80915D038064D7CF0E94480730
:1038200080915D038068D1CF80915D038C60CDCFA6
:1038300080915E038360CFCF80915D038E7FC5CF83
:1038400080915E03877FC7CF80915D038D7FBDCF61
:1038500080915D038B7FB9CF80915D03877FB5CF6A
:1038600080915E038E7FB7CF80915E038D7FB3CF53
:1038700080915D038F7EA9CF80915D038F7DA5CF61
:1038800080915D038F7BA1CF0E94480780915D03EB
:103890008F779BCF80915D03837F97CF80915E036D
:1038A0008C7F99CF80915D0382FB992790F921E06D
:1038B000922790FB82F990FB83F987CF80915E037A
:1038C000982F909591708E7F892B90FB81F983CFF3
:1038D00090915D03892F8F7B96FF806476CF0E9445
:1038E000480790915D03892F97FB87F980586DCF2A
:1038F00081E00E948E0D80915D0390915E030E9495
:103900000D0D0E94480780E0DF91CF91089580E07F
:10391000F0CF90915D03892F8F7E94FF806155CF0A
:1039200090915D03892F8E7F90FF81604ECF9091A3
:103930005E03892F877F93FF88604DCF81E0E4CFBE
:10394000282F35EB2303C001112497FF04C08058B2
:103950009109892F089580589F4FFBCF8091440390
:1039600080FF0DC06091200170E0660F771F603806
:10397000710570F56115710569F1862F089581FF54
:1039800007C06091200184E0689FB0011124EFCF4F
:103990006091200182FD0AC0809143038823A9F031
:1039A00020911F0160912001821710F088E0ECCF78
:1039B000869FC001112433E0880F991F3A95E1F7E3
:1039C000622F70E00E94AA29D2CF68E070E0D5CFC4
:1039D0008FE7089581E008958091440380FF0CC033
:1039E00060911C0170E075956795759567956115F7
:1039F000710549F1862F089581FF06C060911C0171
:103A000070E075956795F3CF60911C0182FD0BC046
:103A1000909142039923A1F060911B0180911C01B8
:103A2000961738F0682F70E06038710500F38FE763
:103A30000895899FC001112470E00E94AA29F4CF43
:103A400061E070E0D7CF81E008958D3C31F40E94B1
:103A5000AE1C81958093480308958E3C19F40E9412
:103A6000AE1CF8CF8F3C31F40E94AE1C8195809340
:103A700047030895803D19F40E94AE1CF8CF893D9C
:103A800029F40E94EC1C8093490308958A3D21F497
:103A90000E94EC1C8195F7CF8B3D31F40E94EC1C09
:103AA000819580934A0308958C3D19F40E94EC1C83
:103AB000F8CF9FE2980F983070F4815D990B21E068
:103AC00030E001C0220F8A95EAF780914603822BED
:103AD0008093460308958D3D31F4809144038160C5
:103AE0008093440308958E3D21F4809144038260C5
:103AF000F7CF8F3DB9F7809144038460F1CF4091B7
:103B000047038D3C59F48091480387FF0DC0109204
:103B1000480341110BC01092430308C08E3C81F44E
:103B20008091480318169CF3442381F08091490347
:103B300090914A03892B09F05AC0109242030895CC
:103B40008F3C49F447FFF0CF109247038091480320
:103B50008111ECCFE0CF803D19F41416ACF3E4CF23
:103B600090914903893D29F41916F4F610924903FE
:103B7000DBCF8A3D19F497FFD7CFF8CF90914A0356
:103B80008B3D29F497FFD0CF10924A03CDCF8C3DC7
:103B900019F41916CCF3C8CF9FE2980F983090F41F
:103BA000815D990B21E030E0B90102C0660F771FFB
:103BB0008A95E2F7CB018095909146038923809303
:103BC0004603B2CF8D3D31F4809144038E7F8093C4
:103BD0004403AACF8E3D21F4809144038D7FF7CF1B
:103BE0008F3D09F0A1CF809144038B7FF0CF0895E2
:103BF0000E9474229C019091470380914803982B66
:103C000021F0309341032093400390914903809128
:103C10004A03982B21F030933F0320933E0385E421
:103C200093E00E94F71F089586E0E5E4F3E0DF01EA
:103C30001D928A95E9F71092430310924203109265
:103C400044030895FC01828181110EC0838181119A
:103C50000BC08481811108C091E08581811101C070
:103C600090E0892F8170089581E0FCCFA6E0B0E05C
:103C7000ECE3FEE10C94262A86E0E5E4F3E0DE01C5
:103C8000119601900D928A95E1F7109247031092D8
:103C900048031092490310924A038B819C81892B1F
:103CA00089F080914003909141030E940322AC016E
:103CB000909143039923C9F180912101841715063E
:103CC00008F440C08D819E81892B91F080913E0344
:103CD00090913F030E940322AC01909142039923EB
:103CE00009F46AC080911D018417150608F472C09A
:103CF000BE016F5F7F4F85E493E00E944B218111ED
:103D000005C085E493E00E94221E81110E94F81DE7
:103D100086E0FE013196A5E4B3E001900D928A950C
:103D2000E1F72696E3E00C94422A209122018AE0F2
:103D3000289F900111242417350720F69F5F909348
:103D4000430302C09F3FD1F71B81112359F00E940A
:103D5000AE1C9FEF11160CF491E0899F802D112469
:103D6000809347031C81112359F00E94AE1C9FEFE2
:103D700011160CF491E0899F802D11248093480343
:103D800080914703882309F49DCF109148031123A4
:103D900009F498CF0E94A01C882351F08093470318
:103DA000812F0E94A01C882329F0809348038ACF8A
:103DB00081E0F4CF81E0F9CF20911E018AE0289FB5
:103DC000900111242417350708F092CF9F5F90933C
:103DD000420302C09F3FD1F71D81112359F00E9479
:103DE000EC1C9FEF11160CF491E0899F802D11249B
:103DF000809349031E81112359F00E94EC1C9FEF10
:103E000011160CF491E0899F802D112480934A03B0
:103E100080914903882309F46BCF10914A03112341
:103E200009F466CF0E94A01C882351F080934903B7
:103E3000812F0E94A01C882329F080934A0358CF29
:103E400081E0F4CF81E0F9CF0F931F93CF93DF93FD
:103E5000C42FD22FFC0185818823C9F040934D03E4
:103E60000E94742290934C0380934B0380E28C0F4A
:103E7000883040F4C77081E001C0880FCA95EAF726
:103E80000E94F504DF91CF911F910F910895109139
:103E90004D03141332C080914B0390914C030E9448
:103EA0000322883C910548F5C0E2CD0F1D17B9F0FB
:103EB00080E2810F883040F4177081E001C0880FE4
:103EC0001A95EAF70E94FC04C83048F481E09D2F5F
:103ED000977001C0880F9A95EAF70E94F504802F29
:103EE0000E94EC04C83070F6D77081E001C0880FE2
:103EF000DA95EAF70E94FC04C5CF80E28C0F883087
:103F000008F6C77081E001C0880FCA95EAF7F2CFC2
:103F10000F93DB0188519C4787309105A0F5FC0188
:103F2000EB54F44D0C94E02906E221EE41EE6AE1F7
:103F30007CE7CD010E94241F80E00F91089507E2E5
:103F400025EE45EE6BE17CE7F4CF06E221EE40EE94
:103F500068E17CE7EECF07E225EE44EE69E17CE71D
:103F6000E8CF06E221EE42EE6CE17CE7E2CF07E229
:103F700025EE46EE6DE17CE7DCCF08E221E045EE80
:103F80006EE17CE7D6CF15968C91882319F01092BC
:103F90004D03D3CF81E0D1CF90935303809352034D
:103FA0000895E0915203F0915303309729F0019066
:103FB000F081E02D0995089580E00895E091520385
:103FC000F0915303309721F00280F381E02D0995A1
:103FD0000895E0915203F0915303309739F026E0B1
:103FE000DC012C930480F581E02D09950895E09182
:103FF0005203F0915303309739F022E0DC012C9307
:104000000680F781E02D09950895A3E0B0E0EBE08C
:10401000F0E20C94272A2091500330915103281785
:104020003907A1F09093510380935003E09152031C
:10403000F0915303309751F023E029839B838A83C7
:104040000084F185E02DCE01019609952396E2E0EA
:104050000C94432AA3E0B0E0E0E3F0E20C94272ABA
:1040600020914E0330914F0328173907A1F0909308
:104070004F0380934E03E0915203F0915303309726
:1040800051F024E029839B838A830084F185E02D0D
:10409000CE01019609952396E2E00C94432ACF9332
:1040A000DF93C0910601D091070122960E94C121A1
:1040B000813081F480915D0387FF0CC0C0910401C1
:1040C000D091050122969EE180E0915028F4DF9185
:1040D000CF91089596E0F8CF29912223B1F38F5F15
:1040E000F4CFCF93C82F811102C080E024C00E947A
:1040F000C121813011F580915D0387FF1EC0EC2F37
:10410000E695E695E695EE3180F780910401909171
:104110000501E80FF92FF11D228130E0C77081E021
:1041200090E002C0880F991FCA95E2F7282339232F
:1041300081E0232BD1F2CF910895809106019091D7
:104140000701FC013296089621912C1721F0E817FF
:10415000F907D1F7CACF81E0EECF9C01FC0132967E
:104160009FEF80E04191461751F09F3F19F44111B4
:1041700001C0982F8F5F8630A9F79F3F09F40895FB
:10418000290F311D97FD3A95F90162830895FC01CD
:10419000329608962191261303C0DF0111971C92D5
:1041A000E817F907B9F70895E62FE695E695E6953D
:1041B000EE3168F4E80FF92FF11D677021E030E06F
:1041C00001C0220F6A95EAF78281822B82830895CB
:1041D000E62FE695E695E695EE3170F4E80FF92FB7
:1041E000F11D677021E030E001C0220F6A95EAF707
:1041F00020958281282322830895CF93C82F0E947F
:10420000C1216C2F813061F480915D0387FF08C06C
:1042100080910401909105010E94D420CF910895CE
:1042200080910601909107010E94AD20F7CFCF93B6
:10423000C82F0E94C1216C2F813061F480915D03F1
:1042400087FF08C080910401909105010E94E82039
:10425000CF91089580910601909107010E94C72097
:10426000F7CF0E94C121813079F480915D0387FFEF
:104270000BC0E0910401F091050132968EE1DF015F
:104280001D928A95E9F70895E0910601F0910701E2
:10429000329686E0F4CFDC01FB0111969C911197D8
:1042A0008181981322C012968C911297882319F05D
:1042B000928189131AC013968C911397882319F051
:1042C0009381891312C015968C911597882319F044
:1042D000958189130AC014969C91992321F081E05D
:1042E0002481291303C080E001C081E0817008951A
:1042F00008950E947821089581110EC081E0809375
:1043000026016091230170912401809125019091F3
:1043100026010E947921089582E0F1CF83E0809305
:1043200026016091230170912401809125019091D3
:1043300026010E94792108950E947C21089581E040
:1043400080932601609123017091240180912501C1
:10435000909126010E94792108950E949F2108953D
:1043600091E0811101C090E09093250160912301BB
:104370007091240180912501909126010E9479215C
:10438000089580912501089580932401609123016F
:104390007091240180912501909126010E9479213C
:1043A0000895809124010895809323016091230151
:1043B0007091240180912501909126010E9479211C
:1043C0000895809123010895089508950E94E5219C
:1043D0000895089508950E94E4210895CF930E94BE
:1043E000E9210E949E110E94EA21C0E08C2F0E94C8
:1043F000CF10892B31F4CF5FC530C1F780E0CF916A
:10440000089581E0FCCFCF93DF93EC010E947422EA
:104410008C1B9D0BDF91CF91089585B7806885BF78
:1044200085B7806885BF08951F921FB61F9211241B
:104430008F939F93AF93BF9380915403811113C0C7
:104440008091B8039091B903A091BA03B091BB03D6
:104450004196A11DB11D8093B8039093B903A09319
:10446000BA03B093BB03BF91AF919F918F911F90FF
:104470001FBE1F9018958091C003843031F10E94B7
:10448000C7031092540388E190E020E40FB6F8943B
:10449000A895809360000FBE2093600083B7817F52
:1044A000846083BF83B7816083BF7894889583B726
:1044B0008E7F83BF0FB6F894A895809160008861C5
:1044C00080936000109260000FBE08950E9448071C
:1044D0000E94CF03089582E084BD93E095BD9AEFDA
:1044E00097BD80936E0008952FB7F8948091B8031C
:1044F0009091B903A091BA03B091BB032FBF089567
:104500002FB7F8946091B8037091B9038091BA0302
:104510009091BB032FBF089578941F921FB61F92EE
:1045200011248F939F93AF93BF938091B803909181
:10453000B903A091BA03B091BB030196A11DB11DAF
:104540008093B8039093B903A093BA03B093BB03CD
:10455000BF91AF919F918F911F901FBE1F90189593
:1045600081E08093E00080E28093D8001092C9003F
:104570008FE19EE40197F1F700C0000087E090EB27
:10458000DC018093C9039093CA03A093CB03B0933B
:10459000CC0388E19CE00FB6F894A8958093600066
:1045A0000FBE90936000FFCF88E19CE00FB6F894B7
:1045B000A895809360000FBE90936000FFCF9B0191
:1045C000BA019091C0039430E9F48F708093E900B0
:1045D0009FEF8091E800915085FD06C085ED8A959A
:1045E000F1F700009111F5CF8091E80085FF0AC036
:1045F00050E040E0C9010E94E5248091E8008E77F8
:104600008093E800089543E050E0BC0182E00E94FE
:10461000DF22089546E050E0BC0182E00E94DF22E4
:10462000089540E250E0BC0182E00E94DF2208953C
:10463000CF93DF93EC010E94C12148E050E0BE011E
:1046400081E00E94DF2288E0FE01A5E5B3E0019051
:104650000D928A95E1F7DF91CF9108958091BF0384
:10466000811109C00E9475260E94D2268091E20025
:1046700084608093E20008951092BF0308950E9421
:104680009F2181E00E94B02108956091BC0381E0E8
:10469000611101C080E00E948E2108959091C003B5
:1046A00081E0943009F080E06091BC030E949C217D
:1046B000089542E061EC81E00E94F12542E261EC64
:1046C00082E00E94F1259091C00381E0943009F0CE
:1046D00080E06091BC030E947C2108958091C20318
:1046E000833009F461C030F48130D1F1823009F4B3
:1046F0009EC008958A3009F48AC08B3009F46FC0D7
:10470000893009F050C08091C103813209F04BC05B
:104710008091C5039091C603029708F044C0809130
:10472000E800877F8093E8008091E80082FF37C02F
:104730009091F3008091F200029731F48091F100A2
:10474000813011F0863021F48091F1000E94C42163
:104750008091E8008B778093E8000E94252623C093
:104760008091C103813AF9F48091E800877F8093BA
:10477000E8008091C5039091C603892B61F468E03D
:1047800085E593E070E00E9434258091E8008B7706
:104790008093E800089560E090E080E0F3CF80919E
:1047A000C0038111C1CF08958091C103813AD9F727
:1047B0008091C5039091C603892BA9F78091E800E9
:1047C000877F8093E8008091E80080FFFCCF0E9403
:1047D000C1218093F1008091E8008E77BCCF809159
:1047E000C103813201F78091C5039091C603892BE3
:1047F000D1F68091E800877F8093E8000E9425260B
:104800008091C3030E94B0210E94480708958091BF
:10481000C103813241F68091E800877F8093E800F0
:104820000E9425268091C4030E94D421089580917E
:10483000C103813A09F0B7CF8091E800877F809368
:10484000E8008091E80080FFFCCF0E94E121C1CF09
:1048500084B7877F84BF0FB6F894A89580916000D5
:10486000886180936000109260000FBE80E890E045
:104870000FB6F89480936100909361000FBE0E9480
:10488000AD2108950E9475260E94D226E2EEF0E046
:1048900080818460808378940E945129089587E202
:1048A00091E00E94CC1F08958091C003853031F4BF
:1048B0008091C003853019F00E94662208950E94FD
:1048C0003B220E94EE21882399F38091BE03882326
:1048D00079F30E94CF240E944807EACF08959A01F5
:1048E0004091C7035091C8030E9477240895492F2F
:1048F00055274330510519F168F44130510509F449
:1049000044C04230510509F445C090E080E050E0D9
:1049100040E025C04132510549F142325105A9F725
:1049200084E490E043E854E061157105C1F086EB42
:1049300090E04DEC53E06130710589F0E6CF9927A6
:104940008130910581F0009729F00297F1F6E6E6B3
:10495000F3E002C0ECE7F3E0849190E0AF01F901ED
:10496000518340830895E2E7F3E0F6CF89E090E0D9
:1049700042E953E06115710591F389E090E04BEA5B
:1049800053E06130710559F3C0CF82E190E04BEB09
:1049900053E0E5CF8BE390E040E853E0E0CF80E1E7
:1049A00089BD82E189BD09B400FEFDCF8091D800A8
:1049B0008F7D8093D8008091E00082608093E0003A
:1049C0008091E00081FDFCCF0895AF92BF92CF921D
:1049D000DF92FF920F931F93CF93DF936C01EB0154
:1049E0008A010E944426F82E811123C00115110569
:1049F00039F0F80180819181C81BD90BC80ED91EEE
:104A0000B12CA12C2097A9F08091E80085FD22C04F
:104A10008091E8008E778093E80001151105A1F0E0
:104A2000F80180819181A80EB91EB182A08285E033
:104A3000F82E8F2DDF91CF911F910F91FF90DF9076
:104A4000CF90BF90AF9008950E9444268823D1F262
:104A5000F82EEFCFF60181916F018093F10021973D
:104A6000FFEFAF1ABF0ACECFFC018091C703909130
:104A7000C80386179707A0F06115710529F4909176
:104A8000E8009E779093E80090E06115710551F47D
:104A9000911108C08091E80082FF34C080E0089541
:104AA000BC01F2CF8091C0038823C1F18530C1F1F0
:104AB0008091E80083FD30C08091E80082FDEACF5C
:104AC0008091E80080FFE1CF8091F3002091F20017
:104AD000382F6115710519F02830310558F091E033
:104AE0002830310509F090E02091E8002E772093DE
:104AF000E800CBCF81918093F100615071092F5F65
:104B00003F4FE7CF8091C003882341F0853041F0CB
:104B10008091E80083FFBECF81E0089582E0089590
:104B200083E00895FC018091C7039091C803861724
:104B30009707A0F06115710529F48091E8008E7740
:104B40008093E80090E06115710551F4911108C05F
:104B50008091E80082FF35C080E00895BC01F2CF6B
:104B60008091C0038823C9F18530C9F18091E800A4
:104B700083FD31C08091E80082FDEACF8091E8009A
:104B800080FFE1CF8091F3002091F200382F611572
:104B9000710519F02830310558F091E028303105C1
:104BA00009F090E08091E8008E778093E800CBCF09
:104BB00084918093F1003196615071092F5F3F4FCE
:104BC000E6CF8091C003882341F0853041F0809189
:104BD000E80083FFBDCF81E0089582E0089583E07F
:104BE0000895982F973028F08F708093E90081E026
:104BF00008959093E900242F762F50E0981731F014
:104C00007091EC002091ED005091F00021FD02C068
:104C10009F5FE8CF3091EB003E7F3093EB00309107
:104C2000ED003D7F3093ED003091EB00316030932B
:104C3000EB007093EC002093ED005093F000209176
:104C4000EE0027FDE5CF80E008958091C10387FF46
:104C500013C08091E80082FF06C08091E8008B7746
:104C60008093E80004C08091C0038111F2CF0895C1
:104C70008091C0038823D9F38091E80080FFF8CFAA
:104C80008091E8008E77ECCF2091E4003091E50030
:104C900095E6A9012091EC00822F817020FF06C0CB
:104CA0008091E80080FF06C080E008952091E80030
:104CB00022FD1AC08091C003882389F0853089F0D5
:104CC0008091EB0085FD0FC02091E4003091E5005C
:104CD00042175307F9F29150E1F684E0089582E01B
:104CE000089583E0089581E008950E94E4260E94DB
:104CF000EC26E0EEF0E0808181608083E8EDF0E07A
:104D000080818F77808319BCA7EDB0E08C918E7F76
:104D10008C9380818F7E80831092BF0308950F93C0
:104D20001F93CF93DF930E94E4260E94EC26C8EDE8
:104D3000D0E088818F7788838881806888838881A4
:104D40008F7D888319BC1092C0031092BC0310920F
:104D5000BE031092BD0300EE10E0F80180818B7F4E
:104D6000808388818160888342E060E080E00E94E7
:104D7000F125E1EEF0E080818E7F8083E2EEF0E0CD
:104D8000808181608083808188608083F801808158
:104D90008E7F8083888180618883DF91CF911F918E
:104DA0000F910895E8EDF0E080818F7E8083E7ED3C
:104DB000F0E080818160808384E082BF81E0809325
:104DC000BF030E948F260895E8EDF0E080818E7F7A
:104DD00080831092E20008951092DA001092E100B0
:104DE00008951F920F920FB60F9211242F933F93A5
:104DF0004F935F936F937F938F939F93AF93BF93E3
:104E0000EF93FF938091E10082FF0BC08091E2005D
:104E100082FF07C08091E1008B7F8093E1000E94B8
:104E200050298091DA0080FF19C08091D80080FF5E
:104E300015C08091DA008E7F8093DA008091D900CE
:104E400080FF96C080E189BD82E189BD09B400FE82
:104E5000FDCF81E08093C0030E942E238091E1006A
:104E600080FF19C08091E20080FF15C08091E200B0
:104E70008E7F8093E2008091E20080618093E20067
:104E80008091D80080628093D80019BC85E080931F
:104E9000C0030E9445238091E10084FF2BC08091D4
:104EA000E20084FF27C080E189BD82E189BD89B528
:104EB000982F917080FFFBCF8091D8008F7D8093D9
:104EC000D8008091E1008F7E8093E1008091E20024
:104ED0008F7E8093E2008091E20081608093E20007
:104EE0008091BC03882309F449C084E08093C00307
:104EF0000E944E238091E10083FF29C08091E2004F
:104F000083FF25C08091E100877F8093E10082E0EC
:104F10008093C0031092BC038091E1008E7F809348
:104F2000E1008091E2008E7F8093E2008091E200B8
:104F300080618093E20042E060E080E00E94F12521
:104F40008091F00088608093F0000E943F23FF91E1
:104F5000EF91BF91AF919F918F917F916F915F91F1
:104F60004F913F912F910F900FBE0F901F9018956A
:104F700019BC1092C0030E943C2370CF8091E300C3
:104F800087FD93E09093C003B3CF1F920F920FB6AB
:104F90000F9211242F933F934F935F936F937F93BF
:104FA0008F939F93AF93BF93CF93DF93EF93FF9331
:104FB000D091E900DF708091EC00C82FC17080FDB6
:104FC000C0E81092E9008091F000877F8093F000A4
:104FD00078940E9409281092E9008091F00088607E
:104FE0008093F000CD2BCF70C093E900FF91EF913B
:104FF000DF91CF91BF91AF919F918F917F916F91F1
:105000005F914F913F912F910F900FBE0F901F9086
:105010001895AAE2B0E0EFE0F8E20C94262A81ECC1
:1050200093E02091F100FC012193CF01F3E0893C52
:105030009F07B9F70E946E238091E80083FF1EC18D
:105040008091C1039091C2039A3008F017C1E92FF3
:10505000F0E0E454F44D0C94E029803899F0823863
:1050600009F00CC18091C5038F70873008F006C12C
:105070008093E9008091EB0085FB882780F91092EE
:10508000E90006C08091BD039091BE03911182603A
:105090009091E800977F9093E8008093F100109240
:1050A000F1008091E8008E77E5C0882309F4D3C031
:1050B000823009F0E3C08091C3038111D6C0809192
:1050C000C5038F702FEF280F263008F0D7C08093CC
:1050D000E9002091EB0020FFC8C0933031F48091AB
:1050E000EB0080628093EB00C0C09091EB00906178
:1050F0009093EB0021E030E001C0220F8A95EAF79F
:105100002093EA001092EA008091EB008860EACFD9
:105110008111B4C01091C3031F778091E3008078A0
:10512000812B8093E3008091E800877F8093E800E3
:105130000E9425268091E80080FFFCCF8091E3004B
:1051400080688093E30082E0111183E08093C003C4
:1051500095C08058823008F091C08091C30390912F
:10516000C4038C3D23E09207A1F583E08A838AE2A1
:1051700089834FB7F894DE01139620E03EE051E2B8
:10518000E32FF0E050935700E49120FF03C0E29535
:10519000EF703F5FEF708E2F90E0EA30C0F0C7965F
:1051A0008D939D932F5F243159F74FBF8091E80075
:1051B000877F8093E8006AE270E0CE0101960E944A
:1051C00034258091E8008B778093E80057C0C09623
:1051D000E7CF6091C5037091C603AE014F5F5F4F8B
:1051E0000E946F24BC01892B09F448C09091E8000B
:1051F000977F9093E80089819A810E949225E1CF60
:105200008038E1F58091E800877F8093E800809105
:10521000BC038093F10045CF811130C09091C3034E
:10522000923060F58091E800877F8093E80090934A
:10523000BC030E9425268091BC03882311F084E0E2
:1052400005C08091E30087FDFACF81E08093C00321
:105250000E94592313C08091C303813079F481E007
:10526000933009F080E08093BE031092E9008091B2
:10527000E800877F8093E8000E9425268091E8005F
:1052800083FF0AC08091E800877F8093E8008091C7
:10529000EB0080628093EB00AA96E3E00C94422A34
:1052A0000895CF938091C0038823A1F0C091E900B5
:1052B000CF709091EC00892F817090FD80E8C82B11
:1052C0001092E9008091E80083FD0E940928CF70C8
:1052D000C093E900CF910895DB018F939F930E94C3
:1052E000042ABF91AF91A29F800D911DA39F900DA5
:1052F000B29F900D11240895991B79E004C0991F65
:10530000961708F0961B881F7A95C9F7809508951F
:1053100087FB082E062687FD819567FD61950E9413
:105320007C290EF4919507FC81950895AA1BBB1B5F
:1053300051E107C0AA1FBB1FA617B70710F0A61B95
:10534000B70B881F991F5A95A9F780959095BC01B6
:10535000CD01089597FB072E16F4009407D077FD32
:1053600009D00E94962907FC05D03EF490958195BE
:105370009F4F0895709561957F4F0895A1E21A2E71
:10538000AA1BBB1BFD010DC0AA1FBB1FEE1FFF1FE9
:10539000A217B307E407F50720F0A21BB30BE40B39
:1053A000F50B661F771F881F991F1A9469F7609580
:1053B0007095809590959B01AC01BD01CF0108953A
:1053C000EE0FFF1F0590F491E02D09940E94EE2945
:1053D000332312F48A1B9B0B0C94FF29A29FB0016C
:1053E000B39FC001A39F700D811D1124911DB29F19
:1053F000700D811D1124911D08950E94EE29B7FFA3
:105400000895821B930B08950E94EE29A59F900D8D
:10541000B49F900DA49F800D911D11240895B7FF96
:105420000C94042A0E94042A821B930B08952F9245
:105430003F924F925F926F927F928F929F92AF9224
:10544000BF92CF92DF92EF92FF920F931F93CF9371
:10545000DF93CDB7DEB7CA1BDB0B0FB6F894DEBF08
:105460000FBECDBF09942A88398848885F846E842E
:105470007D848C849B84AA84B984C884DF80EE8078
:10548000FD800C811B81AA81B981CE0FD11D0FB681
:10549000F894DEBF0FBECDBFED010895002E083099
:1054A00090F0982F872F762F652F542F432F322F70
:1054B00022270850F4CF220F331F441F551F661FA9
:1054C000771F881F991F0A95B2F7002D089597FD41
:1054D0001094002E083098F00850232F342F452FB9
:1054E000562F672F782F892F912DF4CF15949795EC
:1054F00087957795679557954795379527950A9599
:10550000AAF71124002D08958F929F92AF92BF9217
:10551000CF92DF92EF92FF92CF93DF93EC016881FD
:1055200079818A819B81611571058105910521F43D
:1055300064E279ED8BE597E02DE133EF41E050E057
:105540000E945B2B49015A019B01AC01A7EAB1E41F
:105550000E94042A6B017C01ACEEB4EFA50194011A
:105560000E94122ADC01CB018C0D9D1DAE1DBF1DBA
:10557000B7FF03C00197A109B04888839983AA8324
:10558000BB839F77DF91CF91FF90EF90DF90CF901B
:10559000BF90AF909F908F9008950E94842A0895A5
:1055A00080E091E00E94842A0895B0E0A0E080931A
:1055B000000190930101A0930201B09303010895AB
:1055C000FC014150504030F001900616D1F7319760
:1055D000CF010895882799270895FB01DC0104C0B5
:1055E0008D910190801921F441505040C8F7881BDB
:1055F000990B0895FB01DC0102C001900D9241500E
:105600005040D8F70895F999FECF92BD81BDF89A20
:10561000992780B50895A6E1B0E044E050E00C94ED
:105620004D2BA8E1B0E042E050E00C944D2BDC01A2
:10563000A40FB51F4150504048F0CB01840F951F77
:105640002E910E94282B41505040D0F70895262FCC
:10565000F999FECF92BD81BDF89A019700B4021668
:1056600039F01FBA20BD0FB6F894FA9AF99A0FBE16
:1056700008950396272F0E94282B0E94272B252F61
:105680000E94282B242F0C94282B0196272F0E9450
:10569000282B0C94272BDC01CB01FC01F999FECFC0
:1056A00006C0F2BDE1BDF89A319600B40D924150AA
:1056B0005040B8F70895052E97FB1EF400940E9401
:1056C000722B57FD07D00E94BE2907FC03D04EF471
:1056D0000C94722B50954095309521953F4F4F4F2C
:1056E0005F4F089590958095709561957F4F8F4F8E
:1056F0009F4F0895F894FFCF440544059405940501
:10570000F9051506730573051A068B069A069A069F
:105710004812501255125A125F12641269126E1218
:10572000731278127D121C1C901C241CEE1BF21BA1
:10573000281CF61B2C1C381C021C891C061C3C1C3B
:105740000A1C401C681C0E1C441C6F1C141C4A1CA8
:10575000521CFA1B301CFE1B341C181C4E1C5E1CF9
:10576000781C871CE81B201C971CA51FAB1F941FCF
:105770009F1FB11FB71FBD1F2D2855283E29552833
:0C5780003E298828A9283E2900290C2970
:10578C00010000008C02AC02010102001400141490
:10579C0001191A1B1C1D1E1F202122280850011E36
:1057AC000A140100000100D121182311230A23033C
:1057BC0023E200E900EA00B500B600B700CD008393
:1057CC0001CC008A019201940121022302240225BA
:1057DC0002260227022A02B300B4006F0070009F59
:1057EC0001CB019F02A002818283E200E900EA0062
:1057FC00B500B600B700CD008301CC008A01920140
:10580C0094012102230224022502260227022A02E5
:10581C00B300B4006F0070009F01CB019F02A00287
:10582C00818283F0F1C667663794313035349796B0
:10583C0033F4F59091929395000102020202060650
:10584C00060909090909090F0F0F0F0F0F15151577
:10585C001819191919191919191919232425252574
:0C586C002525255C1B5E1B691B741B00BE
:00000001FF
