:100000000C9483020C94A0020C94A0020C94A00205
:100010000C94A0020C94A0020C94A0020C94A002D8
:100020000C94A0020C94A0020C944D290C94212A4B
:100030000C9474240C94A0020C94A0020C94A002C2
:100040000C94A0020C94A0020C94A0020C94A002A8
:100050000C94A0020C94FB240C94A0020C94A0021B
:100060000C94A0020C94A0020C94A0020C94A00288
:100070000C94A0020C94A0020C94A0020C94A00278
:100080000C94A0020C94A0020C94A0020C94A00268
:100090000C94A0020C94A0020C94A0020C94A00258
:1000A0000C94A0020C94A0020C94A0022D002E002F
:1000B000000008001A00000014001A0000002700C9
:1000C0002600000012001300000014001A000800AF
:1000D000150017001C001800042816240721092207
:1000E0000A000B000D321D001B0006001900050060
:1000F00011001000E000E200E3002A002C41E600BD
:10010000E7000C00120013003600E40000000000BD
:100110000E310F34280037000000000000001E00E0
:100120001F00200021002200230024001E021F02C5
:10013000200221022202230224022F022F00260283
:100140002D022702300030022078217801000100C2
:1001500001000100010025002600270033000100F6
:100160000000000025022E002D00340000000000D9
:1001700000001E0F0500047F3F1F64321464321418
:10018000783C1E1E140A052223252628292A2C2DF8
:100190002F3032333536383A3B3D3E4042434547B7
:1001A000494A4C4E5051535557595A5C5E606264EF
:1001B0006668696B6D6F71737577797B7D7F8183FD
:1001C0008587898A8C8E90929496989A9C9E9FA1FE
:1001D000A3A5A7A8AAACAEAFB1B3B4B6B8B9BBBC1F
:1001E000BEBFC1C2C3C5C6C7C9CACBCCCDCED0D194
:1001F000D2D2D3D4D5D6D7D7D8D9D9DADADBDBDB8C
:10020000DCDCDCDCDCDDDDDDDDDCDCDCDCDCDBDB2C
:10021000DBDADAD9D9D8D7D7D6D5D4D3D2D2D1D080
:10022000CECDCCCBCAC9C7C6C5C3C2C1BFBEBCBB7D
:10023000B9B8B6B4B3B1AFAEACAAA8A7A5A3A19FF5
:100240009E9C9A98969492908E8C8A8987858381B9
:100250007F7D7B79777573716F6D6B69686664629A
:10026000605E5C5A5957555351504E4C4A49474568
:100270004342403E3D3B3A3836353332302F2D2C09
:100280002A292826252322FFAA7F554000010101A3
:100290000101010101010202020202020202020343
:1002A0000303030303030304040404040404050513
:1002B00005050506060606060707070707080808D6
:1002C00008090909090A0A0A0B0B0B0C0C0C0D0D85
:1002D0000D0E0E0E0F0F0F1010111111121213131D
:1002E0001414151516161717181819191A1A1B1B96
:1002F0001C1D1D1E1E1F20202122222324242526F2
:1003000026272829292A2B2C2D2D2E2F3031323229
:10031000333435363738393A3B3C3D3E3F40414235
:10032000434445464748494A4C4D4E4F505153541B
:10033000555658595A5B5D5E5F61626465666869CF
:100340006B6C6D6F7072737577787A7B7D7E80824F
:10035000838587888A8C8E8F91939596989A9C9E98
:10036000A0A2A3A5A7A9ABADAFB1B3B5B7BABCBEA8
:10037000C0C2C4C6C9CBCDCFD1D4D6D8DBDDDFE275
:10038000E4E7E9EBEEF0F3F5F8FAFDFF080371009E
:1003900061007A00000022037700680079006400A1
:1003A0006F006200650061007200730065007800F4
:1003B00070006C006F00640000000403090409026F
:1003C0003B00020100A0FA09040000010301010042
:1003D00009211101000122440007058103080001E1
:1003E000090401000103000000092111010001229C
:1003F000B600070582032000011201000200000080
:10040000083174010001000102000105010902A187
:100410000185020901A10005091901290815002516
:100420000195087501810205010930093115812501
:100430007F95027508810609381581257F9501751C
:10044000088106050C0A38021581257F950175087B
:100450008106C0C005010980A101850319012AB7E1
:1004600000150126B700950175108100C0050C0923
:1004700001A101850419012AA002150126A00295F7
:100480000175108100C005010906A1018506050757
:1004900019E029E715002501950875018102050776
:1004A000190029EF1500250195F075018102050855
:1004B00019012905950575019102950175039101B1
:1004C000C005010906A101050719E029E715002566
:1004D00001950875018102950175088101050719CB
:1004E0000029FF150026FF00950675088100050804
:1004F0001901290515002501950575019102950140
:1005000075039101C00011241FBECFEFDAE0DEBFFA
:10051000CDBF12E0A0E0B1E0E4E2FCE502C005904E
:100520000D92A830B107D9F724E0A8E0B2E001C0ED
:100530001D92AA35B207E1F70E94C3120C94C62D92
:100540000C9400008230B8F46630A8F4473098F478
:1005500050E097E0699F400D511D1124FA019AE285
:10056000899FE00DF11D1124EE0FFF1FE653FF4F91
:1005700085919491089581E090E008950E94A202EF
:10058000089585E090E008958530910550F447E0A6
:10059000489F9001499F300D1124C9018C5F9E4FE7
:1005A000089590E080E008950E94C402089581E0DB
:1005B00008950E94D702089581E008950E94D7020D
:1005C00008950E94DE02089508950E94E4020895AD
:1005D000A6E0B0E0EEEEF2E00C94722C49835A8370
:1005E0009E8330910F0289819A8131111AC03E8118
:1005F000332399F0222389F00E943409182F682FA1
:1006000089819A810E94100969817A81812F0E94D3
:1006100084102696E3E00C948E2C0E942209182F59
:10062000F3CF0E94340969817A81F1CFFC01262F32
:1006300087819085009741F4408151816281738167
:10064000848195810E94E8020895CF93DF93EC01A5
:1006500061E00E941603BE010E94D902882359F06E
:1006600061E0CE010E941603BE010E94461C81700B
:10067000DF91CF91089580E0FACFCF93DF93EC0123
:1006800060E00E941603BE010E94E502DF91CF9157
:10069000089581E008950E9449030895CF93C82FDB
:1006A0000E94DE078C2F0E944B032FEF84E39CE017
:1006B000215080409040E1F700C00000CF910895A4
:1006C00081E00E944E030E941F25089580E00E9451
:1006D0004E030E94302508950F931F93CF93DF930D
:1006E0008C0161E00E941603EC01F8018581811103
:1006F0000E943C1AB801CE010E94E102811106C09D
:1007000080E0DF91CF911F910F910895B801CE0144
:100710000E94F0218823A1F3B801CE010E942C1E73
:10072000882371F3B801CE010E94021E882341F391
:10073000B801CE010E94DD12882311F3F8018581F2
:10074000882361F0C330FCE7DF07E9F058F4C115F6
:10075000ECE7DE07A9F0C130DC47B9F0C8010E9420
:10076000DC02CFCFCB358CE7D807A9F0CC35ECE74E
:10077000DE0771F0CA35DC4789F70E94C20DEECF63
:100780000E946003BDCF0E94CA0D0E946603B8CFCD
:100790000E94B80DE3CF0E94C60DE0CF0E94512405
:1007A0000E94120408950E9416040E94562408957F
:1007B000292F332740E02115310511F0C90148E008
:1007C0009C0164E0369527956A95E1F7211531057E
:1007D00011F04C5FC9019C013695279536952795F8
:1007E0002115310511F04E5FC90196958795892B2A
:1007F00009F04F5F842F089581E008950895CF9305
:10080000DF93D82F0E94FC03C82F882319F08D2F67
:100810000E94FE038C2FDF91CF91089508950E94CE
:10082000FF03089580E00E940F0408950E9439227A
:100830000E940F040895CF930E943922C82F8091FF
:100840000A028C1779F0C0930A020E94E024609398
:100850000B0270930C0280930D0290930E028C2F6A
:100860000E940F04CF910895AFE0B0E0EAE3F4E016
:100870000C94712C4A875B876C877D878E879F8756
:1008800091110E94C80C1F821886198686E0FE010D
:100890003A96DE01119601900D928A95E1F78D81CD
:1008A00081110FC009811A812B813C814D815E81AC
:1008B0006F81788589850E940B0C2F96E4E00C945B
:1008C0008D2CCE0101960E9425038111EBCFF5CF2F
:1008D000FC012481213021F4808191810E946609EC
:1008E0000895662329F00E948D1F0E9460200895BC
:1008F0000E94E71FFACFCF93C82F8823C9F0823810
:10090000C9F40E94462281FD13C089E30E94682336
:100910000E945C0D2FEF87EE93E0215080409040C5
:10092000E1F700C0000089E30E9482230E945C0D71
:10093000CF9108958338A1F40E94462280FDF8CF1C
:1009400083E50E9468230E945C0D2FEF81EE94E006
:10095000215080409040E1F700C0000083E5E4CFE3
:100960008438A1F40E94462282FDE2CF87E40E94EF
:1009700068230E945C0D2FEF81EE94E021508040AF
:100980009040E1F700C0000087E4CECF8CEF8C0FE1
:10099000813A70F48C2F0E94DC22882329F08C2F5E
:1009A0000E9482230E945C0D8C2F0E946823BECF80
:1009B00080E28C0F883048F4C77081E001C0880F56
:1009C000CA95EAF70E94AB0CB1CFEBE5EC0FE33030
:1009D00040F4F0E0E557FE4F808190E00E947022E5
:1009E000A7CFE8E5EC0FEB3150F4F0E0EE0FFF1F7E
:1009F000EB5AFE4F808191810E94952299CF83E32B
:100A00008C0F833108F094CF61E08C2F0E94710429
:100A10008FCF882309F456C0823879F40E94462289
:100A200081FF50C089E30E9468230E945C0D89E326
:100A30000E9482230E945C0D0895833859F40E941D
:100A4000462280FF3FC083E50E9468230E945C0D20
:100A500083E5EECF843859F40E94462282FF32C0EB
:100A600087E40E9468230E945C0D87E4E1CF9CEF3D
:100A7000980F913AE8F290E2980F983050F487700E
:100A800091E001C0990F8A95EAF7892F0E94B10C75
:100A9000D1CF9BE5980F933028F490E080E00E943E
:100AA0007022089598E5980F9B3128F490E080E03B
:100AB0000E949522089593E3980F933118F460E013
:100AC0000E94710408951F93CF93DF93182FEB01B9
:100AD0000E947B04209739F4812F0E940905DF9141
:100AE000CF911F9108958FE99FE00197F1F700C022
:100AF00000002197EFCF70E060E0893311F460E5EA
:100B000070E00E9463050895882321F00E94AB0CD9
:100B10000E945C0D0895882321F00E94B10C0E9470
:100B20005C0D0895B0E0A0E0E8E9F5E00C946C2CD1
:100B30006C01D62FC72FFC011581068102950F701D
:100B40000E94A10CE82E8823F9F0E12E1123E1F098
:100B50008C2F807F803461F080E28D0F883008F127
:100B60008C2F807E803221F4D230D8F00023C9F05F
:100B70008091F50382FF15C082E00E948C0D0E94D7
:100B8000A10C91E0E82EE926BC2EB2949FE0B92298
:100B9000FBE0FB15B8F1EB2DF0E0E853F24D0C94BF
:100BA0002C2CE12CF1CF0C2F0F70C07F11F002958F
:100BB000007F112399F0002359F080E28D0F8830D7
:100BC00010F0D11107C0802F0E94AB0C0E945C0D69
:100BD0008D2F5AC0802F0E94BB0CF8CF8D2F0E9402
:100BE0000905002379F080E28D0F883010F0D111D3
:100BF00004C0802F0E94B10C03C0802F0E94C10C42
:100C00000E945C0DEB2DE850FF0B349720F40E94FE
:100C100039220E940F04EE2089F00E949D0C80FD75
:100C20000DC0F60115820E94970C0E946E08C60145
:100C30000E94A5070E94970C0E947E08CDB7DEB7E0
:100C4000E9E00C94882C2C2F2F70F22EC07FC0323C
:100C500019F0F29480EFF822DD2341F0D130D1F188
:100C6000112309F444C00023F1F0B2CF8091F503C1
:100C700082FD15C0112359F0FF2029F08F2D0E940D
:100C8000AB0C0E945C0D80E00E947B04BBCF80E037
:100C90000E940905FF2009F4B5CF8F2DABCF11239A
:100CA00069F0011104C08F2D0E948405ABCF013083
:100CB00009F0A8CF8F2D0E94DF0CA4CF0111A2CF85
:100CC0008F2D0E948B058F2D0E94EB0C8F2D0E9483
:100CD000CF0C98CF112321F0063008F093CFE3CF4B
:100CE000053008F08FCF8F2D0E948B058BCF00230E
:100CF000D1F3D93349F43FEF87EE93E03150804090
:100D00009040E1F700C000008D2F0E9409057ACFC6
:100D10008C2F86958695837069F0813009F072CFAB
:100D20008D2F9C2F9370111102C080E090E00E94E3
:100D3000952268CF8D2F9C2F9370111102C080E0F7
:100D400090E00E9470225ECF612F8D2F0E9471046F
:100D500059CF8C2F8370A1F5111154CF4D2F42958F
:100D600046954770440F440F2D2F2F7030E0042E0E
:100D700002C0220F331F0A94E2F790E080E0D4FF14
:100D800009C08FE090E002C0880F991F4A95E2F7F2
:100D900080959095C695C695C370822B932BC230D3
:100DA00049F058F4C13019F00E943E082BCF0E9440
:100DB000350828CF0E94470825CF0E94320822CF4D
:100DC0008695112311F08C2F8170882309F41ACF96
:100DD0004D2F429546954770440F440F2D2F2F708D
:100DE00030E0042E02C0220F331F0A94E2F790E095
:100DF00080E0D4FF09C08FE090E002C0880F991F07
:100E00004A95E2F780959095C695C695C370822B5A
:100E1000932BC23049F058F4C13019F00E94A90850
:100E2000F1CE0E94A008EECE0E94B208EBCE0E9446
:100E30005608E8CECF70112329F08C2F0E946E083F
:100E40008D2F32CF8D2F0E948B058C2F0E947E0814
:100E5000D9CED23F41F160F4D03FB9F0D13F81F01B
:100E6000112309F443C00111B3CE8C2F8F711FC021
:100E7000D33F01F1D43FA1F78091F50382FD24C057
:100E80008C2F8F71112311F312C0112341F0053003
:100E900008F0B8CE8C2F8F710E949008B3CE063028
:100EA00008F0B0CEF7CF8C2F8F711111CFCF0E94E9
:100EB0006E08A8CE112329F08C2F8F710E94620832
:100EC000A1CE0E945D089ECE112331F063E08C2FED
:100ED0008F710E946E0D96CE81E00E948C0D0230C3
:100EE00008F490CE82E00E948C0D8CCE002359F045
:100EF000D93309F009CFEFEFF7EE23E0E150F040EE
:100F00002040E1F7FFCE8C2F8F71A0CF0F931F935E
:100F1000CF93DF93EC018F819885009781F00E9439
:100F2000660F8C010E94BB080E943108B801CE01F7
:100F30000E949205DF91CF911F910F9108956881D2
:100F400079818D810E947109ECCFCF93DF93EC0101
:100F50008C81882399F0CE010E946C03811111C00D
:100F60000E94A10C882351F08D81882339F0809153
:100F7000F50382FF03C082E00E948C0DDF91CF91C8
:100F80000895CE010E948607CE010E943D03F6CF50
:100F900090E080E00E94702290E080E00E94952224
:100FA0000E94C80C0E945C0D0E947C200E94602060
:100FB00008950E949C230E94C80708950E94B80CBF
:100FC0000E94D907089592959F70963091F058F439
:100FD000925F9F70923058F4803F19F030F4883E51
:100FE00030F481E008959A5FF4CF843FD1F380E03C
:100FF0000895883EB0F3813FD1F7F3CFFC0184819F
:10100000882371F087819085009729F00E94660FF0
:101010000E94E3070895808191810E946609F8CFBC
:1010200080E00895A6E0B0E0E8E1F8E00C94732CCD
:101030002696E2E00C948F2CA9E0B0E0E2E2F8E022
:101040000C94712C2996E4E00C948D2C08950E9448
:10105000260808950E94270890932B0280932A0265
:10106000089508950E942A08089520912A02309137
:101070002B02822B932B0E942A08089520912A028A
:1010800030912B02822393230E942A0808952091F5
:101090002A0230912B02822793270E942A08089562
:1010A0000E94260808950E94500808950E9453083F
:1010B0009093290280932802089590E080E00E9496
:1010C0005608089521E030E0A90102C0440F551FE1
:1010D0008A95E2F7CA010E945608089521E030E09F
:1010E00002C0220F331F8A95E2F780912802909167
:1010F0002902822B932B0E945608089521E030E0AC
:1011000002C0220F331F8A95E2F720953095809117
:10111000280290912902822393230E945608089561
:1011200021E030E002C0220F331F8A95E2F7809160
:10113000280290912902822793270E945608089539
:101140002091280230912902822B932B0E9456086D
:1011500008952091280230912902822393230E942E
:10116000560808952091280230912902822793275A
:101170000E94560808950895262F277091E001C017
:10118000990F2A95EAF723E0769567952A95E1F776
:10119000660F771F660F771FFA01E60FF71F50E003
:1011A00040E0682F70E08191DF0111979B01042ED0
:1011B00002C0369527950A94E2F7217021952827D9
:1011C000292328272C934F5F5F4F4430510559F74F
:1011D0000895A82FA77023E0969587952A95E1F7A3
:1011E000880F991F880F991FFB01E80FF91F50E026
:1011F00040E080E0219130E00A2E02C0369527952C
:101200000A94E2F721703327042E01C0220F0A94BA
:10121000EAF7822B4F5F5F4F4430510559F708952D
:10122000262F963070F4873060F4682F70E087E0E6
:10123000989F600D711D112440E152E0822F0E94A1
:10124000BC080895292F963068F4873058F490E050
:1012500060E172E037E0239F800D911D11240E9410
:10126000E908089580E00895B0E0A0E0EAE3F9E03D
:101270000C946C2C7C010091280210912902809121
:101280002A0290912B02082B192BCFE0D0E0CC241E
:10129000C394D12CBC2EC6010C2E02C0880F991FFE
:1012A0000A94E2F780239123892B49F4219790F740
:1012B000B12C8B2DCDB7DEB7E9E00C94882CB701AB
:1012C0008C2F0E949010019789F3F3CFCF93DF9377
:1012D000EC010E943409BE010E949010DF91CF9171
:1012E00008951F93CF93DF93EB0190910F02992301
:1012F00039F0CB010E946609DF91CF911F910895CB
:10130000882369F0CB010E943409182F682FCE0181
:101310000E941009BE01812F0E949010EDCFCB01D9
:101320000E942209182FF6CFFF920F931F93CF939D
:10133000DF93C0912C0289E0F82E80912D028C134E
:1013400005C0CDB7DEB7E5E00C948C2CD0E0FC9E58
:10135000F001FD9EF00D1124E25DFD4F0081118131
:1013600022813381448155816681778180850E9405
:101370001C082196C770E1CF0F931F93009176024E
:1013800010917702209178023091790240917A028F
:1013900050917B0260917C0270917D0280917E026F
:1013A0000E941C081F910F910895CF93DF938091A5
:1013B0007C02807F09F04DC080917B02882309F474
:1013C00048C0E0912C0250912D02C0917702D0913B
:1013D0007602609178027091790249E05E17C9F156
:1013E0008E2F90E0E49FF0011124E25DFD4F2481F7
:1013F000222391F1489FF001499FF00D1124DF0154
:10140000A25DBD4F11962C9111972C1325C02C91E4
:101410002D1322C015962C91159721111DC01296DF
:101420002D913C91261B370B283C3105A8F4809167
:101430007C028F70806180937C02EC5CFD4F808128
:101440008F708061808386E792E00E94A5070E94EA
:101450009409DF91CF910895FC013196E770BECFDA
:10146000482F20912C0290912D0259E0291302C09F
:1014700080E0089530E0529FF001539FF00D112459
:10148000E25DFD4F8181681306C08081481303C06F
:1014900085818111EECF2F5F3F4F2770E7CFA8E105
:1014A000B0E0E5E5FAE00C94692C8C0186E0F801E7
:1014B000DE01539601900D928A95E1F7F80184813F
:1014C000E58096E7A92E92E0B92E90917A029111CB
:1014D0001FC08823D1F0EE20A9F0C8010E94FE07AA
:1014E000F82E882379F089E0F801D50101900D925A
:1014F0008A95E1F7C5010E9468040E94D5090E94FF
:10150000BC0968C0C8010E94A507FF24F39462C00B
:10151000C080D18082809380F0907B0220917802FD
:1015200030917902A401421B530BFF2009F420C122
:10153000483C510508F0BFC0882309F44BC0909186
:10154000770280917C02282F207F09F065C09D11D1
:101550001FC090917602C9121BC040917D0250912C
:101560007E02278130854217530791F4E1104EC067
:101570008F70806180937C020E94BC0986E792E0B4
:101580000E94A50780917C02F8018683F12C22C07D
:10159000E1103CC06D2D8C2D0E94300A6D2D8C2DDC
:1015A0000E94300AE82E8111F1CFCB8ADC8A8B8928
:1015B0009C890E946609292F22952F70243078F487
:1015C0009F702230A8F09923B9F0F8019681907F9E
:1015D00099F4FE2C8F2D6896ECE00C94852C2A5FF4
:1015E0002F70223068F0C8010E94A507EF2CF1CFC0
:1015F000992311F0882369F3805E883050F3F3CF8C
:10160000803F38F3815F833070F7E3CF80917C02B5
:10161000816080937C02BACF9D111CC090917602AC
:10162000C91218C040917D0250917E0227813085F9
:101630004217530779F4E1100DC08683C8010E9458
:10164000A50789E0F801A6E7B2E001900D928A951E
:10165000E1F755CFC8010E94FE07882309F452CF55
:10166000EE2009F44FCF80917C028032B8F02091B7
:101670007602309177023B872A879D868C869091EF
:101680007A029E871F86888B80917D0290917E02D0
:101690009A8B898BCE010A960E94A50789E0F801F2
:1016A000A6E7B2E001900D928A95E1F70E94D50974
:1016B0000E94BC092ACF90917C02292F207FA1F49F
:1016C000682D9E8A8D8AA6017E899E2D0E94120811
:1016D00086E792E00E94A50789E0F50111928A95BC
:1016E000E9F70E94BC0952CF882309F473CF809197
:1016F00077028D1119C080917602C81215C04091F1
:101700007D0250917E02278130854217530761F494
:10171000E1100AC09683C8010E94A50789E0F5017F
:1017200011928A95E9F756CFC8010E94FE078823D7
:1017300009F4E8CEEE2009F4E5CE80917C028032F7
:1017400008F4ACCF20917602309177023A83298356
:101750009C828B8290917A029D831E828F838091DE
:101760007D0290917E0299878887CE01019694CF61
:10177000483C510508F041C0882309F4C6CEFE2C30
:10178000EE2009F4BFCE809177028D1128C08091A0
:101790007602C81224C020917D0230917E0287819A
:1017A000908528173907D9F490917C0290FD0EC0DE
:1017B000907F61F080917C028683903F09F43ECF58
:1017C000982F907F905F8F70892B37CF89E0F80139
:1017D000A6E7B2E001900D928A95E1F7FBCEC80131
:1017E0000E94FE0781115ACF80917C028160809314
:1017F0007C02C8010E94A507EDCE682D9E8A8D8AC5
:10180000A6017E899E2D0E94120889E0F5011192A1
:101810008A95E9F774CEA2E1B0E0E1E1FCE00C9436
:10182000702C0A871B872C873D874E875F87688BC4
:10183000798B8A8BCE010A960E944F0A8823C9F0C1
:101840004E85442351F00A851B852C853D855F8597
:10185000688979898A890E941C0889E0F82E80911C
:101860002C0290912D0289133DC06296E5E00C9404
:101870008C2C89E0FE013A96DE01119601900D92C2
:101880008A95E1F78E85882341F320912D0230E07F
:10189000C90101968770992740912C0248171906B3
:1018A00099F099E0929FD001939FB00D1124A25D11
:1018B000BD4FFE01319601900D929A95E1F780930C
:1018C0002D020E949409C9CF0E94DE0710922D02BA
:1018D00010922C0289E0E6E7F2E0DF011D928A9582
:1018E000E9F7BBCF8F9DC0011124825D9D4F0E94FF
:1018F0004F0A882309F4B9CFE0912C02FE9EF00133
:101900001124E25DFD4F00811181228133814481E8
:1019100055816681778180850E941C0880912C0208
:1019200090E001968770992780932C0298CF809140
:10193000A70286958695869508958091A70287705F
:1019400008959091A702977081E009F480E00895CE
:101950008091D30208959091D302892B8093D30272
:10196000089580959091D30298239093D30208957F
:101970001092D30208959091D202892B8093D202C3
:10198000089580959091D20298239093D202089561
:101990001092D202089508950E94CB0C0895909160
:1019A000A802292F282331F0809589238093A8024B
:1019B0000E94CC0C089508950E94DB0C089590912C
:1019C000A902292F2823281729F0982B9093A902E0
:1019D0000E94DC0C08959091A902292F282331F050
:1019E000809589238093A9020E94DC0C0895809140
:1019F000A902882329F01092A90280E00E94DC0C41
:101A00000895CF93C091D3028091D202C82B8091C8
:101A1000A902882331F0C82B0E94BA2281110E94AA
:101A2000F70C8C2FCF910895CF93DF93C0912901AC
:101A3000D0912A010E94010D8883C0912901D09183
:101A40002A0148E050E06FE972E0CE010E94392D92
:101A5000892B59F088E0FE01AFE9B2E001900D92C8
:101A60008A95E1F7CE010E944922DF91CF91089536
:101A7000CF93DF93C0912701D09128010E94010DDF
:101A80008983C0912701D091280140E250E06FE79F
:101A900072E0CE010E94392D892B59F080E2FE01BF
:101AA000AFE7B2E001900D928A95E1F7CE010E9476
:101AB0005422DF91CF9108950E942C24813039F473
:101AC0008091F40387FF03C00E94380D08950E949F
:101AD000140D089508950E946A0D08959091F503DC
:101AE00092FF11C098E0899F90011124622B6093AE
:101AF000A7020E946E088091A7028695869586951A
:101B00000E946B0D08950E946E0808951092A7021E
:101B100080E00E946B0D08959091A7028095892323
:101B20008093A702282F277069F4891759F09091A4
:101B3000F50392FF07C08695869586950E947E08DC
:101B40000E94860D08959091F50392FB222720F9BB
:101B5000281769F080FB92F99093F5038091F403C4
:101B60009091F5030E94EB0D82E00E948C0D089588
:101B70008091F50382FB882780F991E089270E94F4
:101B8000A30D089581E00E94A30D089580E00E94B6
:101B9000A30D08956FEF7FEF90E080E00E94912DFC
:101BA000089590E080E00E945D2D21E0853E9E4FEB
:101BB00009F020E0822F089582E090E00E944F2DEE
:101BC000089583E090E00E944F2D089584E090E016
:101BD0000E945D2D0895BC0184E090E00E94912D4B
:101BE0000895AB01BC018FE090E00E94852D08951F
:101BF000AB01BC0183E190E00E94852D089560E077
:101C000070E0CB010E94F80D089560E070E0CB0118
:101C10000E94F10D0E94FF0D0895A8E0B0E0E3E1FD
:101C2000FEE00C94732C65EE7EEF90E080E00E9465
:101C3000912D60E082E090E00E94732D81E090E0C1
:101C400090932B0280932A0261E083E090E00E944F
:101C5000732D60E074E184E090E00E94912D60E0DB
:101C600086E090E00E94732D60E087E090E00E94A3
:101C7000732D40E050E0BA0188E090E00E94852D8D
:101C800060E083E290E00E94732D60E08CE090E0E1
:101C90000E94732D60E08DE090E00E94732D198208
:101CA0001A821B821C821D821E821F82188648E0B7
:101CB00050E067E170E0CE0101960E94632D40E0A4
:101CC00050E0BA018FE190E00E94852D0E94050E40
:101CD0002896E2E00C948F2C0E940D0E0895682F38
:101CE0008EE090E00E94732D0895A6E0B0E0EBE74F
:101CF000FEE00C94712C0E94D4248C018091D402BB
:101D00009091D5028017910781F019821A820E9462
:101D1000D424682F49815A81792F80E090E00E9475
:101D200034041093D5020093D4022696E4E00C9478
:101D30008D2C0E94E0246093E0027093E102809376
:101D4000E2029093E3026093DC027093DD028093E1
:101D5000DE029093DF020895089508950E94AC0E6C
:101D6000089508950E94B10E089586E891E10E94B9
:101D7000D8120E94AD0E0E94AE0E089581E0089523
:101D80000E94BE0E08950E94BE0E08950895089503
:101D90000E94C60E0E94C70E08950E94D10D8111A7
:101DA00002C00E946C0E0E94DC0D8093E4020E942F
:101DB000E60D9093F5038093F4030E949C1A0E9411
:101DC000E10D90E00E943208809128029091290252
:101DD0000E94530808950E94CB240E9435120E944D
:101DE000CD0E0E940E040E945C190E94B20E08954E
:101DF000A6E0B0E0EEEFFEE00C946A2C0E94C00E6C
:101E000081110EC00E94750E0E94FF1B0E943D1A98
:101E10000E949E200E941B042696EBE00C94862CC8
:101E20000E944B1286EDA82E82E0B82E750110E0BC
:101E3000F70101917F01812F0E9490111F5F1630E1
:101E400009F441C00817A1F38091E40281FD0E94CA
:101E500096110E94C30EC82E10E099249394812FEE
:101E60000E949011082FF50181915F01081729F157
:101E7000F12CEE24E394D02ED8268D2D8E21A9F0BE
:101E8000CC2099F0F9821A830E94D4249C838B83FE
:101E90009D8291E0802F8E2109F490E049815A8142
:101EA0006B817C818D810E943404F394EE0CF7E009
:101EB000FF12E3CFF501319700831F5F163079F6EB
:101EC0000E94990EA1CF0813BFCF9CCF1F93CF9331
:101ED000DF930E949510EC01C11580E5D807F0F55D
:101EE000C11580E4D80708F09CC0C03ED10520F59C
:101EF000CD3CD10508F082C0C83AD10578F4C53A86
:101F0000D10508F073C0C130D10519F1209709F14E
:101F1000C430D105F0F4D0E0C0E01BC0C33CD10513
:101F2000D0F7C85AD0E0CC0FDD1FC257DE4F099062
:101F3000D881C02DD4640DC0C11580E2D80708F047
:101F4000D1C0C11581E0D80708F05AC0C83ED105FC
:101F500010F7CE01DF91CF911F910895C03682E531
:101F6000D80718F5C03482E5D80708F06BC0C03236
:101F700082E5D80708F05FC0C11582E5D80708F4EC
:101F800097C02C2F2695269580E2289F900111243A
:101F90008C2F8370C1E0D0E002C0CC0FDD1F8A958A
:101FA000E2F7C22BD32BDD68D4CFC03A82E5D80745
:101FB00060F4C03882E5D80708F459C0CF71D0E08A
:101FC000DC2FCC27C46FD06AC4CFC03C82E5D807D1
:101FD00008F462C0C03E82E5D80708F09CCFDC2F31
:101FE000CC27CC27DF71C06FD06AB3CFC55AD0E001
:101FF000CC53DE4FC881D0E0D064ABCFD065A9CF41
:102000008D2F0E943711182FCE0199270E9495100D
:10201000C12FD0E0DC2FCC27CC27DF71C82BD92BE8
:1020200098CFCE0199270E949510CC27DF70C82B3E
:10203000D92BD06A8ECFCF71D0E0DC2FCC27C16FE7
:10204000D06A87CF2C2F26952695277080E2289F6F
:10205000900111248C2F8370C1E0D0E002C0CC0F1E
:10206000DD1F8A95E2F7C22BD32BDC6872CF2C2FB1
:1020700026952695277080E2289F900111248C2FA9
:102080008370C1E0D0E002C0CC0FDD1F8A95E2F77B
:10209000C22BD32BDA685DCF8C2F8F710E94371142
:1020A000C82FD0E0DC2FCC27CC27DF71D06251CFF6
:1020B0008C2F8F710E94371155E0D695C7955A9590
:1020C000E1F7CF70D0E0DC2FCC27282F30E084FF61
:1020D00005C044E0220F331F4A95E1F7C22BD32BF2
:1020E000D06937CF8D2F8F710E943711182FCE01F5
:1020F00099270E949510C12FD0E0DC2FCC27CC2748
:10210000DF71C82BD92BD2CF462F763030F4673011
:1021100020F4672F0E94BE02089590E080E00895A9
:102120000E9484100E94660F089582389105B9F1CB
:10213000B0F48133910509F47DC048F489329105EA
:1021400009F46DC08A32910509F47BC00895853386
:10215000910509F45FC08933910509F10895833E23
:102160009105D9F138F4803E910529F1823E91051F
:1021700079F10895863E9105D9F1873E910509F4DC
:102180003EC0843E910541F52091F50321FF24C016
:102190008091F40384FD19C087EE90E008952091AA
:1021A000F403237009F05AC02091F50323FF14C0F3
:1021B00089E290E008952091F40320FD38C0309129
:1021C000F50330FF09C024FF43C090E080E008958C
:1021D0002091F40322FDF7CF08952091F40322FD0E
:1021E0003AC03091F50330FD39C024FFF5CFEDCF73
:1021F0002091F40323FFF0CF24FDE7CFCDCF209132
:10220000F40323FD2EC03091F50331FFEECF84EEB1
:1022100090E008952091F40325FFDECFC9CF2091EF
:10222000F40325FD21C02091F50323FFD5CF89E3D9
:1022300090E0D2CF2091F40326FFCECF8AE290E047
:1022400008952091F40326FFC7CF81E390E008951D
:1022500083EE90E0089582EE90E0089580EE90E0A5
:10226000089586EE90E0089585E390E008959091BA
:10227000F40392FF10C041E0282F2471243009F0AC
:1022800040E031E0282F2871283009F030E0431772
:1022900011F02CE0822793FF10C041E0282F247119
:1022A000243109F040E031E0282F2871283109F06D
:1022B00030E0431711F02CE082273091F50330FF16
:1022C00010C051E0282F2171213009F050E041E089
:1022D000282F2871283009F040E0541711F029E028
:1022E000822731FF10C041E0282F2171213109F0F0
:1022F00040E031E0282F2871283109F030E0431701
:1023000011F029E0822794FD877E089580E00895EA
:1023100008950E948811089508950E948C110895CF
:10232000E82FF0E0E450FC4F80810895089580EAA2
:102330008A95F1F7089500C008950E9497110895B5
:10234000F894E82FE295EF70F0E031A1282F2F707C
:1023500081E090E001C0880F2A95EAF7982F9095C8
:10236000932391A392A1892B82A3789408950F932C
:102370001F93CF93DF93CEECD1E089918F3F11F083
:102380000E94A01181E0C43DD807B9F7C7ECD1E0A5
:102390000EEC11E089918F3F11F00E94A0110C17F3
:1023A0001D07C1F7DF91CF911F910F910895B0E004
:1023B000A0E0EDEDF1E10C946D2CEC01D62E062F92
:1023C00010E0C80182539E4F7C01FC0180818F3F49
:1023D00009F444C0F894E82FE295EF70F0E091A181
:1023E0008F7021E030E001C0220F8A95EAF7892F33
:1023F000822B81A382A12095282322A378940E9476
:102400009B11E7ECF1E031E0C12C21912F3F59F114
:10241000A22FA295AF70B0E090968C9190E02F70B3
:1024200002C0959587952A95E2F780FD1CC0832F01
:10243000C82A330F81E0EE3CF80739F7F7018081B5
:102440008F3F11F00E94A01161E0C11001C060E057
:102450008D2D0E949D11C00FD11FC882CDB7DEB750
:10246000E8E00C94892C80E0E3CF0E94B71186E06D
:10247000ECEFF3E0DF01982F1D929A95E9F7E6EF74
:10248000F3E0DF011D928A95E9F786E00E9486124B
:102490000E9489110895A6E0B0E0E1E5F2E10C9414
:1024A000702C8E010F5F1F4F86E0F80111928A9504
:1024B000E9F7F12C6F2DC8010E94D711F394F6E0D3
:1024C000FF12F8CF46E050E0B80186EF93E00E949B
:1024D000392D21E0009709F420E0892B41F086E0B6
:1024E000F801A6EFB3E001900D928A95E1F746E07E
:1024F0006CEF73E086EF93E00E948712182F0E9422
:102500008D11812F2696E5E00C948C2C0895B0E077
:10251000A0E0EDE8F2E10C946D2C6C017B01042F3E
:10252000C22F222379F081E08093E7020E94D42415
:102530009093E6028093E50280E0CDB7DEB7E8E055
:102540000C94892CD091E702DD23B1F38091E50250
:102550009091E6020E94EC24059770F310E0A80128
:10256000B601C7010E94392D892B31F0A801B601AF
:10257000C7010E94462DCD2F1092E7028C2FDDCF90
:102580000E94F80E08950E946D240E9484260E94E5
:10259000B50E0E949E260E94EB0E0E94AB260E9462
:1025A000B0260E94C0120E94CA260E94C80EF7CF11
:1025B000909309028093080208950F931F93CF937D
:1025C0008C01FB01C581CC2309F445C00E94A80CF5
:1025D0008272F801E052F847EB30F10538F4EC5222
:1025E000F24D0C942C2C0E944E19C0E08C2FCF91F0
:1025F0001F910F910895882329F00E943C19F5CF6F
:102600008823D9F30E942C19F0CF8823B9F00E94B7
:10261000D415EBCF882329F00E94F615E6CF882346
:10262000D9F30E94E515E1CF882319F00E9418160E
:10263000DCCF0E940716D9CF882349F30E94C51525
:10264000D4CF882329F00E949D14CFCF8823D9F3BB
:102650000E947D14CACFC1E0C9CFEF92FF920F93C1
:102660001F93CF93DF939B01682F31110EC044233A
:1026700029F0E82FF0E0E457FD4F6491762F862F84
:10268000CDB7DEB7E6E00C948B2CC32FD0E0E82F5B
:10269000F0E0442321F0E457FD4FE491F0E046E000
:1026A000249FC00111240FEF10E0B8010E94E22B1B
:1026B000AB01822F90E0880F991F25E5249FB00180
:1026C000259F700D1124861B970B982F990F980F3B
:1026D000B8016C1B7D0B6E9FD0016F9FB00D7E9F6C
:1026E000B00D11248B2F939F90011124232F33279A
:1026F000B801621B730B6E9F90016F9F300D7E9F20
:10270000300D11247801E91AF108EC9EB001ED9E1C
:10271000700DFC9E700D1124672F7727061B170B79
:102720000E9FE0010F9FD00D1E9FD00D11247D2F15
:102730009E2F4230510599F048F44115510569F03A
:102740004130510581F07B2F832F07C04430510564
:1027500069F080F046305105B1F7692F91CF9B2F7A
:102760008D2F7E2FFACF7E2F932FF7CF9D2F7B2F8C
:102770008E2FF3CF732F9B2FFBCF41E00E942D13A1
:10278000089508950E94BD13089590912E01291B6C
:10279000922FE0910102F0910202242F462F682F20
:1027A000892F90E009950895CF93DF93762FE90163
:1027B000682F842F0E94C213962F672F9E01482FE7
:1027C000892F0E94C513DF91CF9108958091020453
:1027D000982F9C7F29F4837084608093020408956D
:1027E0008C3AE8F38370886AF8CFB0E0A0E0EBEFB2
:1027F000F3E10C946D2C88E090E00E94572D6B0162
:102800007C0183E290E00E944F2D282F30E040E0D1
:1028100050E060E070E080E090E000E20E949A2CDE
:10282000B22FA32FF42FE52FD62FC72F97018601A4
:10283000BC29A12BFE295E2F532B2B2F3A2F4F2F74
:102840006D2F7C2FCDB7DEB7E8E00C94892CB0E07B
:10285000A0E0EDE2F4E10C94692C49015A016B010E
:102860007C010E94E6138401A4016A2D7B2D88E07F
:1028700090E00E94852D94014A2D5B2DB601C70181
:1028800000E20E94B52C622F83E290E00E94732D3B
:10289000CDB7DEB7ECE00C94852CE2E0F4E085E007
:1028A000808311828FEF828383831482758125E078
:1028B00030E04FEF5FEF60E0868197810E94271440
:1028C000089590910604933018F49F5F9093060446
:1028D000882391F020910204309103044091040474
:1028E00050910504609106047091070480910804DA
:1028F000909109040E942714089581E00E946114B8
:10290000089590910604992319F09150909306042C
:10291000882391F020910204309103044091040433
:102920005091050460910604709107048091080499
:10293000909109040E942714089581E00E94811457
:1029400008950F931F93CF938091020480FF09C0D5
:10295000E0910502F09106020995CF911F910F9128
:102960000895C091300100910102109102028091FE
:102970003101C81768F780912E019C2F981B892F71
:1029800020E040E060E090E0F8010995CF5FEFCFF4
:10299000EF92FF920F931F93CF93DF93D82F162FB1
:1029A000042F8091020480FF0CC0C0913001E090A0
:1029B0000102F090020280913101C81738F00E94A4
:1029C000A114CDB7DEB7E6E00C948B2C80912E01DC
:1029D0009C2F981B892F202F412F6D2F90E0F701FE
:1029E0000995CF5FE8CF762F9091020490FF0AC03F
:1029F000682F842F0E94BD13962F672F482F892F91
:102A00000E94C8140895CF93DF93EC01EC81F0E0AD
:102A1000E957FE4F4491E2E0F4E0628181810E9437
:102A2000F3148C818F5F8C83DF91CF910895CF93C6
:102A3000DF93EC01E2E0F4E0438162818C810E944B
:102A4000F3148C818F5F8C83DF91CF910895CF93A6
:102A5000DF93EC01409105049C81892F817090FDEA
:102A6000842F692F627091FD642F92FF40E00E94D5
:102A7000C8148C8190E00196877099278C83DF9130
:102A8000CF910895B0E0A0E0E8E4F5E10C946E2C5D
:102A9000D82FF62E142FE22E9091020490FF2FC013
:102AA000E92FE695E695AE2FB0E0AC52BE4F8C9183
:102AB00080935A039C7F943039F56D2F7F2D842F9E
:102AC0000E94BD13962F672F482F892F0E94C8148C
:102AD000D0930304F092040410930504EE2079F0DF
:102AE0002091020460910604709107043D2F4F2D40
:102AF000512F80910804909109040E942714CDB7AA
:102B0000DEB7E7E00C948A2C823019F410910504AA
:102B1000DFCF863019F4D0910304DACF8930D9F3AE
:102B20008931B1F6E9518E2F8170D82EE695F0E00B
:102B3000E957FD4FC49100E060913201061718F08B
:102B40000E94A114C5CF0C9FC001112470E00E9407
:102B5000E22B8D2FD1100CC0860F20913001200F59
:102B60003327331F412F6F2D0E94D4130F5FE4CF03
:102B7000861BF3CFE2E0F4E09181282F438162814C
:102B800088E0890F0E944215089581E00E94BA15DD
:102B90000895E2E0F4E09181282F4381628188EF7B
:102BA000890F0E944215089581E00E94C915089579
:102BB000E2E0F4E0628128E0620F08F46FEF282F72
:102BC000438181810E944215089581E00E94D815B9
:102BD0000895E2E0F4E0628128E0621B08F460E01E
:102BE000282F438181810E944215089581E00E942F
:102BF000E9150895E2E0F4E0438128E0420F08F48B
:102C00004FEF282F628181810E944215089581E053
:102C10000E94FA150895E2E0F4E0438128E0421BA7
:102C200008F440E0282F628181810E9442150895B6
:102C300081E00E940B16089520E00E94421508953D
:102C4000EF92FF921F93CF93DF93EC0110E0EE24FD
:102C5000EA94F12C60913201161770F00E94A114D1
:102C60009A818C8190FF1EC08F5F8C83DF91CF9102
:102C70001F91FF90EF90089520913001210F33278D
:102C8000331F70E0C7010E94F62B962F8C81409174
:102C9000050460910404199F800D11240E94D4132F
:102CA0001F5FD8CF8150E1CFB0E0A0E0EAE5F6E1C8
:102CB0000C946B2CFC018281DFEF80FFD1E0C0E03F
:102CC000009101021091020225E1A22E80913201B1
:102CD000C81798F00E94A1148091E902D13009F040
:102CE00050C0811102C08091320181508093E9026D
:102CF000CDB7DEB7EAE00C94872C8091300190913B
:102D00002E01891B8C0F20E040E060E090E0F8018C
:102D1000099594E0E92EF12CB12CCC2ED12C809188
:102D2000E9028B0D86313CF16A2D0E94D42B892F4C
:102D3000082E000C990BC816D906B1F42091300169
:102D40002C0D3D2D311D809105048E9DA0018F9D80
:102D5000500D11245595479555954795609104045C
:102D6000809103040E94D413BD0EF1E0EF1AF10824
:102D7000B1F6CF5FABCF87FFDBCF90913201890FE8
:102D8000D7CF90E001966091320170E00E94F62B5F
:102D9000ADCF0F931F93CF93C091300100910102EB
:102DA0001091020280913101C81750F1C0E00091EA
:102DB00001021091020260913201C61770F10E9467
:102DC000A11420912C018091E802820F8093E802E7
:102DD00090912D01920F90932D01191654F4082E05
:102DE000000C990B409132014150550B8417950707
:102DF0001CF0219520932C01CF911F910F910895E4
:102E000080912E019C2F981B892F20E040E060E0EC
:102E100090E0F8010995CF5FC5CFEC2FF0E070E0AE
:102E2000CF010E94F62B20913001820F2091E80201
:102E3000022E000C330BE217F307A4F020912D01B2
:102E4000022E000C330B2E173F0764F0282F30E0C2
:102E50004091050460910404809103040E94D413FE
:102E6000CF5FA9CF90912E01891B20E040E060E068
:102E700090E0F8010995F4CFB0E0A0E0E2E4F7E1DA
:102E80000C94692CEC014C81042F10E09801D801BE
:102E90000E943A2C9B01AC010E94502C4B015C011A
:102EA000E0E2F0E0E01BF10BA5E5B0E0AC019B0136
:102EB0000E94502C6B017C019F01DF010E94322C8B
:102EC0009B01AC010E945B2C9B01AC01280D391DBC
:102ED0004A1D5B1DC701B6010E940A2CF22E822FEB
:102EE00090E039E23F1520F143E0249F9001112446
:102EF00035952795122F109500E085E5E82EEF18FF
:102F000080913201081720F10E94A1149C8181E078
:102F1000992319F0903219F48FEF80932B0180914F
:102F20002B01890F8C83CDB7DEB7ECE00C94852C98
:102F300025E530E0A901481B590BCA019A01220F6F
:102F4000331F280F391F37FFD3CF2F5F3F4FD0CF0D
:102F50008E2D01FD8F2D20913001200F3327331F3F
:102F6000412F609104040E94D4130F5FC9CF0F93C7
:102F70001F93CF93DF938C01D0E0C0E0909132019A
:102F80009C171D0609F074F40E94A114F8018481B5
:102F900090E00196817099278483DF91CF911F91F2
:102FA0000F910895F8014481209130012C0F3D2F9D
:102FB000311D609104048091030496959C171D06B1
:102FC00049F044F0442341F0409105040E94D41399
:102FD0002196D4CF4423C1F340E0F8CFB0E0A0E085
:102FE000E4EFF7E10C94652CFC016280448081E001
:102FF0008483E7E8F1E07490E6E0F2E0E491C091C8
:103000000504C695C158D0E0CC0FDD1FCD2FDD27BC
:10301000812C25E0922EAA24AA94B12C55245A94EE
:10302000E719EE2EF12C80913201881638F00E94BB
:10303000A114CDB7DEB7E0E10C94812CC82CD12CC3
:1030400082E0861568F09C9CF0019D9CF00D112497
:10305000E651FD4F809103048083809104048183B5
:1030600041101CC09C9CF0019D9CF00D1124E65168
:10307000FD4F13821282209130012C0D3D2D311D08
:103080009C9CF0019D9CF00D1124E651FD4F428166
:10309000618180810E94D4138394C5CF9C9C800160
:1030A0009D9C100D112406511D4FF801838188232A
:1030B000F1F081508383859DC0011124648170E00B
:1030C0000E94E22BFB01FF27E957FE4F8491E82F76
:1030D000E719E59DC0011124B7010E94E22B809100
:1030E0000504689FB0011124F8017283C4CF0E94C7
:1030F0001C2DB5010E94F62B8C179D070CF0BBCF41
:10310000F2E0F61598F40E941C2DB5010E94F62BF2
:10311000F80180830E941C2D209104042695622FC3
:1031200070E00E94F62B280FF80121839C9CF0018F
:103130009D9CF00D1124E651FD4F128280910504F3
:10314000893C58F088EC9C9CF0019D9CF00D11246A
:10315000E651FD4F848383838ECF8431A0F784E1D1
:10316000F2CFE2E0F4E020812E7F208331814281A2
:10317000538164817581868197810E942714109202
:103180005B030E94A1140895609102046695669500
:1031900070E04BE050E083E391E00E942C2D892BFE
:1031A00019F481E080935B030E94D424909354032C
:1031B0008093530308959091020490FF34C093705C
:1031C000811132C0946090930204662391F02091A3
:1031D000020430910304409104045091050460916D
:1031E00006047091070480910804909109040E94DC
:1031F0002714609102046695669570E04BE050E0FC
:1032000083E391E00E942C2D892BB1F010925B0397
:1032100081E08093560340910504609104048091FD
:1032200003040E941C1608958B3210F0986ACBCFCD
:10323000880F880F982BC7CF0E94C418E9CF682F3A
:10324000909102049695969581E0890F8B3208F053
:1032500081E00E94DB18089581E00E941F19089503
:10326000682F90910204969596958FEF890F09F437
:103270008AE20E94DB18089581E00E9430190895C7
:1032800061E00E94DB180895E2E0F4E08081816053
:103290008083869586950E94401908958091020446
:1032A00080FF03C00E94B11808950E944419089538
:1032B00060E00E94DB1808958091590381113CC0A1
:1032C0000E94F513209302043093030440930404F6
:1032D00050930504609306047093070480930804D8
:1032E000909309042C7FA1F40E944D140E94F513C1
:1032F0002093020430930304409304045093050484
:103300006093060470930704809308049093090463
:103310000E94E61310925B03E091FF01F09100021E
:1033200009958091020480FF04C0869586950E94CD
:10333000581981E08093590308950F931F93CF93F9
:10334000DF9380915B038823C1F180915A03E09160
:103350000204E695E695E81BE0935503823091F56B
:10336000F0E0ED57FE4FE491CE2FD0E003E015E101
:1033700080915603882361F0109256030E94D42452
:103380009093540380935303109258031092570361
:103390000E94D424E0915303F09154038E1B9F0BA1
:1033A0008F3F9F4750F4EC0FFD1FF0935403E093C1
:1033B000530383E593E0F8010995DF91CF911F91C5
:1033C0000F910895863049F4F0E0E058FE4FE49103
:1033D000CE2FD0E007E115E1CBCF893051F4E6954F
:1033E000F0E0E358FE4FE491CE2FD0E000E216E18A
:1033F000BFCF8F3051F4E695F0E0E658FE4FE491F0
:10340000CE2FD0E004E516E1B3CF853149F4F0E0EA
:10341000E958FE4FE491CE2FD0E009EC16E1A8CF99
:10342000C8E2D0E00CE317E1883109F4A1CF833280
:1034300039F4E5E7F1E0C591D49107E215E198CFC1
:10344000C4EFD1E007EB17E1843209F491CFC0ED6E
:10345000D7E001EC13E1853209F08ACF8E2F63E0CB
:103460000E94C82BE92FF0E0EE58FE4FE491CE2FDA
:10347000D0E00EEE17E17CCF08950E949D190895CB
:10348000879A0895FC01EE0FFF1FE80FF91FE65F12
:10349000FB4F6183408322830895EAE0F4E0818357
:1034A00060834283339694E0E934F907C1F70895C5
:1034B00031B33F7721B320684FB7F8948AE094E0A6
:1034C000FC015191CF0168E021BB000000C057FF13
:1034D00031BB550F000000C000C000C031BB00C0B0
:1034E0006A9591F7F4E089349F0751F74FBF8FE554
:1034F00094E00197F1F700C0000008950E94CA0D02
:10350000089580E00E949011817008950E944B12EE
:103510002FEF86E791E0215080409040E1F700C016
:1035200000000E944B120E94811A882321F00E9401
:103530007E1A0E941F2508950E94861A08950895F4
:10354000EF92FF920F931F93CF93DF938091CF035E
:10355000882361F0E0915C038DE0F82E8091CF0329
:10356000E81748F01092CF0310925C03CDB7DEB796
:10357000E6E00C948B2CEE24E394EE0EE0925C03D8
:10358000CE2FD0E0EF9DF0011124E959FC4F84814A
:103590008823B1F087819085892BA1F4818592855C
:1035A0008F3F980779F061E00E949F1AFC9EF0011E
:1035B000FD9EF00D1124E959FC4F14820E94C80CA5
:1035C000EE2DCCCF00811181228133814481558140
:1035D0006681778180850E940B0CE8CF0895CF9398
:1035E000DF931092D1031092D003D0E0C0E00E948C
:1035F000C102C817D90718F0DF91CF910895CE0105
:103600000E94D402FC018581811102C014821682BD
:103610002196EDCF1F93CF93DF93109165032091F7
:1036200066032117D1F0C12FD0E0FE01EE0FFF1F7E
:10363000E35AFC4F408151814817590791F40E9489
:10364000D40221E0FC01248380916503811305C02D
:103650002196C370DD27C0936503DF91CF911F9141
:10366000089521961C2F1370DCCFB0E0A0E0EBE3AF
:10367000FBE10C94682CEB012C81211153C070905C
:10368000CF03A7E6B3E030E020E0812C61E070E0FA
:10369000271508F045C01B96CD90DC901C97A8809C
:1036A000B9804FEF5FEF912CE92CF12CF701EE0F71
:1036B000FF1FEA0DFB1D05911491C016D10609F4F8
:1036C000A7010115110511F09394EECF4F3F540758
:1036D00089F1FB0102C0EE0FFF1F4A95E2F78E2A27
:1036E000AB01092C02C0440F551F0A94E2F7415068
:1036F000510984161506D9F44A815B816DE0629FF9
:10370000F001639FF00D1124E959FC4F5087478366
:1037100024E02483108211829287818721E02D8307
:103720000E940A1BCDB7DEB7EDE00C94842C1496F2
:103730001C9214972F5F3F4F1D96AACF0F931F9394
:10374000CF93DF93C0916503809166038C1309C00A
:103750000E94A01A0E94EF1ADF91CF911F910F9142
:103760000895D0E08E01000F111F035A1C4FF8017D
:10377000808191810E94D402BC01F80180819181F5
:103780000E94351B2196C370DFCFEF92FF921F93EB
:10379000CF93DF93FC012081318110E040E050E0C5
:1037A000E52FF0E0EE0FFF1FE20FF31FA591B4919C
:1037B0001097B9F0FB01C081D18140E005C0AE1582
:1037C000BF0509F411E04F5FE42FF0E0EE0FFF1F9B
:1037D000EC0FFD1FE590F490E114F10481F75F5FB9
:1037E000DFCF112349F0451708F4CB01DF91CF91CA
:1037F0001F91FF90EF90089590E080E0F7CF8091C7
:103800003E01882341F18091D2039091D303009728
:1038100011F10E94EC242091D0033091D10328179C
:103820003907C8F49091650380916603981759F0A1
:103830000E949E1B1092D1031092D0031092D303CA
:103840001092D20308950E94A01A1092D3031092EE
:10385000D2030E94EF1A08951092D3031092D2035C
:1038600010923E0180916603809365030E94EF1AD7
:103870000E94A01A089580913E01882319F00E94A9
:103880002C1C089581E080933E010895ACE0B0E0E7
:10389000ECE4FCE10C94632C4C016B0180352CE7CB
:1038A000920761F4FB0115811123E9F081E0809317
:1038B0003E01812F2C96E2E10C947F2C8135FCE7B0
:1038C0009F0739F4FB011581112369F00E942C1C1C
:1038D000F0CF82359C4739F4FB011581112319F093
:1038E0000E943B1CE6CF2091280230912902809152
:1038F0002A0290912B02822B932B0E94D803182F1F
:103900000E94EE1A181731F0F601608171810E9451
:1039100084104C01B12CA12C1C8666246394712C5C
:10392000CE0101969B878A870E94C102A816B9061C
:10393000C0F1F6018581882309F452C1FC85FF237B
:1039400009F44EC10E94D4249093D3038093D203F0
:103950008091CF03883008F591E0980F9093CF03C2
:1039600099E0F601DE01119601900D929A95E1F72A
:103970002DE0829FC001112489599C4F29E0FE014E
:103980003196DC0101900D922A95E1F72FEF3FEF80
:10399000FC0132872187948683861C8510951170DF
:1039A00088CFC5010E94D4027C01FC014081518175
:1039B00044244A94542C60E0262F30E0F901EE0FA5
:1039C000FF1FE40FF51F859194918816990609F45D
:1039D0002901892B11F06F5FEFCF80E0FFEF4F16C9
:1039E0005F0609F448C0F701448130903E01832D01
:1039F000411180E0F82FF1703F2EF701258086817C
:103A0000F6019581992309F487C0332009F484C015
:103A1000211016C09301042C01C0220F0A94EAF76A
:103A2000822BF70186838091D0039091D103883C4B
:103A3000910530F488EC90E09093D1038093D0030B
:103A4000C30102C0880F991F6A95E2F70197F70139
:103A500026812817190691F58091D2039091D303FE
:103A6000009781F00E94EC24893C910558F021E0F8
:103A7000F701248381E0FC85F82BFC872FEFA21A45
:103A8000B20A52CF2090650390E080E02091660357
:103A9000221216C0E816F90689F0422C512CF201C8
:103AA000EE0FFF1FE35AFC4FB182A0822FEF421AA4
:103AB000520A83E04822552440926603832DDBCFCF
:103AC000422C512CF201EE0FFF1FE35AFC4F808174
:103AD00091810E94D4028C01B7010E94C51B0097FE
:103AE000A1F021E0FC012483E816F90639F32091C6
:103AF000650322120AC00817190739F492012F5FD3
:103B00003F4F2370332720936503EFEF4E1A5E0A71
:103B1000F42DF3702F2EBACF90E021101FC0930127
:103B200002C0220F331F6A95E2F72150310928178E
:103B3000390731F4442309F451C0C5010E940A1B1E
:103B4000C301042C01C0880F0A94EAF7982F9095BE
:103B5000F701868189238683322CB0CFAC01042CF7
:103B600002C0559547950A94E2F7BA01617077272C
:103B70009C012150310982239323892B59F5672B0E
:103B800049F1F70182819381892BF9F0EA85FB8560
:103B900027E011922A95E9F70E94D424282F8B83DD
:103BA0009C8384E08D83F70182819381782F8887BD
:103BB000998709811A813C8144E05E816F81892F58
:103BC0000E940B0CF7011582BBCF60E0C5010E947B
:103BD0009F1AF8CFF42FF1702F2EB2CF232CB0CF35
:103BE0009091650380916603981719F00E949E1BBF
:103BF000D4CE0E94A01A1092D3031092D2030E9436
:103C0000EF1ACBCECF93DF93EB0186319C4711F5B2
:103C10000E94A80C9D81992399F08A7A91E009F479
:103C200090E09093D403811109C089E20E94682337
:103C30000E945C0D80E0DF91CF91089585E3F6CF7F
:103C40008091D403811104C089E20E948223F0CFC5
:103C500085E3FBCF81E0EFCFCF93DF93EC01FB0156
:103C60008581882309F4D2C09E0130572332310563
:103C700008F0B2C00E94E60D9093F5038093F40320
:103C8000FE01E150F047E232F10520F4E152F24D3D
:103C90000C942C2C8091F40381608093F40393C0E6
:103CA0008091F50388608093F5038DC08091F403C3
:103CB0008260F3CF8091F4038460EFCF8091F403AE
:103CC0008860EBCF8091F5038160EDCF8091F503A3
:103CD0008260E9CF8091F4038061DFCF8091F403AB
:103CE0008062DBCF8091F4038064D7CF0E94DE072F
:103CF0008091F4038068D1CF8091F4038C60CDCFA4
:103D00008091F5038360CFCF8091F4038E7FC5CF80
:103D10008091F503877FC7CF8091F4038D7FBDCF5E
:103D20008091F4038B7FB9CF8091F403877FB5CF67
:103D30008091F5038E7FB7CF8091F5038D7FB3CF50
:103D40008091F4038F7EA9CF8091F4038F7DA5CF5E
:103D50008091F4038F7BA1CF0E94DE078091F40352
:103D60008F779BCF8091F403837F97CF8091F5036A
:103D70008C7F99CF8091F40382FB992790F921E001
:103D8000922790FB82F990FB83F987CF8091F5030E
:103D9000982F909591708E7F892B90FB81F983CF1E
:103DA0009091F403892F8F7B96FF806476CF0E94D9
:103DB000DE079091F403892F97FB87F980586DCF28
:103DC00081E00E946F0E8091F4039091F5030E94B0
:103DD000EB0D0E94DE0780E0DF91CF91089580E037
:103DE000F0CF9091F403892F8F7E94FF806155CF9F
:103DF0009091F403892F8E7F90FF81604ECF909138
:103E0000F503892F877F93FF88604DCF81E0E4CF52
:103E1000282F35EB2303C001112497FF04C08058DD
:103E20009109892F089580589F4FFBCF8091DB0324
:103E300080FF0DC06091440170E0660F771F60380D
:103E4000710570F56115710569F1862F089581FF7F
:103E500007C06091440184E0689FB0011124EFCF56
:103E60006091440182FD0AC08091DA038823A9F0A1
:103E70002091430160914401821710F088E0ECCF5B
:103E8000869FC001112433E0880F991F3A95E1F70E
:103E9000622F70E00E94F62BD2CF68E070E0D5CFA1
:103EA0008FE7089581E008958091DB0380FF0CC0C7
:103EB0006091400170E075956795759567956115FE
:103EC000710549F1862F089581FF06C06091400178
:103ED00070E075956795F3CF6091400182FD0BC04E
:103EE0009091D9039923A1F060913F018091400105
:103EF000961738F0682F70E06038710500F38FE78F
:103F00000895899FC001112470E00E94F62BF4CF20
:103F100061E070E0D7CF81E008958D3C31F40E94DC
:103F2000161F81958093DF0308958E3C19F40E943B
:103F3000161FF8CF8F3C31F40E94161F8195809395
:103F4000DE030895803D19F40E94161FF8CF893DC5
:103F500029F40E94541F8093E00308958A3D21F4C0
:103F60000E94541F8195F7CF8B3D31F40E94541F5E
:103F700081958093E10308958C3D19F40E94541FAC
:103F8000F8CF9FE2980F983070F4815D990B21E093
:103F900030E001C0220F8A95EAF78091DD03822B81
:103FA0008093DD0308958D3D31F48091DB038160C2
:103FB0008093DB0308958E3D21F48091DB038260C2
:103FC000F7CF8F3DB9F78091DB038460F1CF40914B
:103FD000DE038D3C59F48091DF0387FF0DC0109202
:103FE000DF0341110BC01092DA0308C08E3C81F44C
:103FF0008091DF0318169CF3442381F08091E00345
:104000009091E103892B09F05AC01092D9030895C9
:104010008F3C49F447FFF0CF1092DE038091DF031D
:104020008111ECCFE0CF803D19F41416ACF3E4CF4E
:104030009091E003893D29F41916F4F61092E003FB
:10404000DBCF8A3D19F497FFD7CFF8CF9091E103EA
:104050008B3D29F497FFD0CF1092E103CDCF8C3D5B
:1040600019F41916CCF3C8CF9FE2980F983090F44A
:10407000815D990B21E030E0B90102C0660F771F26
:104080008A95E2F7CB0180959091DD038923809397
:10409000DD03B2CF8D3D31F48091DB038E7F8093C1
:1040A000DB03AACF8E3D21F48091DB038D7FF7CF18
:1040B0008F3D09F0A1CF8091DB038B7FF0CF089576
:1040C0000E94D4249C019091DE038091DF03982B01
:1040D00021F03093D8032093D7039091E00380918F
:1040E000E103982B21F03093D6032093D5038CED78
:1040F00093E00E946222089586E0ECEDF3E0DF0198
:104100001D928A95E9F71092DA031092D903109262
:10411000DB030895FC01828181110EC0838181112E
:104120000BC08481811108C091E08581811101C09B
:1041300090E0892F8170089581E0FCCFA6E0B0E087
:10414000E4EAF0E20C94722C86E0ECEDF3E0DE01A0
:10415000119601900D928A95E1F71092DE0310926C
:10416000DF031092E0031092E1038B819C81892B85
:1041700089F08091D7039091D8030E94EC24AC0180
:104180009091DA039923C9F18091450184171506AE
:1041900008F440C08D819E81892B91F08091D503D8
:1041A0009091D6030E94EC24AC019091D9039923FD
:1041B00009F46AC0809141018417150608F472C0A1
:1041C000BE016F5F7F4F8CED93E00E94B62381119B
:1041D00005C08CED93E00E948A2081110E9460202E
:1041E00086E0FE013196ACEDB3E001900D928A9528
:1041F000E1F72696E3E00C948E2C209146018AE0AC
:10420000289F900111242417350720F69F5F909373
:10421000DA0302C09F3FD1F71B81112359F00E949E
:10422000161F9FEF11160CF491E0899F802D112429
:104230008093DE031C81112359F00E94161F9FEF0B
:1042400011160CF491E0899F802D11248093DF03D7
:104250008091DE03882309F49DCF1091DF031123A1
:1042600009F498CF0E94081F882351F08093DE0341
:10427000812F0E94081F882329F08093DF038ACFB3
:1042800081E0F4CF81E0F9CF209142018AE0289FBC
:10429000900111242417350708F092CF9F5F909367
:1042A000D90302C09F3FD1F71D81112359F00E940D
:1042B000541F9FEF11160CF491E0899F802D11245B
:1042C0008093E0031E81112359F00E94541F9FEF39
:1042D00011160CF491E0899F802D11248093E10345
:1042E0008091E003882309F46BCF1091E10311233F
:1042F00009F466CF0E94081F882351F08093E003E1
:10430000812F0E94081F882329F08093E10358CF52
:1043100081E0F4CF81E0F9CF0F931F93CF93DF9328
:10432000C42FD22FFC0185818823C9F04093E40378
:104330000E94D4249093E3038093E20380E28C0FE5
:10434000883040F4C77081E001C0880FCA95EAF751
:104350000E948405DF91CF911F910F9108951091D4
:10436000E403141332C08091E2039091E3030E94AE
:10437000EC24883C910548F5C0E2CD0F1D17B9F03B
:1043800080E2810F883040F4177081E001C0880F0F
:104390001A95EAF70E948B05C83048F481E09D2FFA
:1043A000977001C0880F9A95EAF70E948405802FC4
:1043B0000E947B05C83070F6D77081E001C0880F7D
:1043C000DA95EAF70E948B05C5CF80E28C0F883022
:1043D00008F6C77081E001C0880FCA95EAF7F2CFEE
:1043E0000F93DB0188519C4787309105A0F5FC01B4
:1043F000EF5FF14D0C942C2C06E221EE41EE6AE1C8
:104400007CE7CD010E948C2180E00F91089507E2A6
:1044100025EE45EE6BE17CE7F4CF06E221EE40EEBF
:1044200068E17CE7EECF07E225EE44EE69E17CE748
:10443000E8CF06E221EE42EE6CE17CE7E2CF07E254
:1044400025EE46EE6DE17CE7DCCF08E221E045EEAB
:104450006EE17CE7D6CF15968C91882319F01092E7
:10446000E403D3CF81E0D1CF9093EA038093E903B3
:104470000895E091E903F091EA03309729F0019063
:10448000F081E02D0995089580E008950E94392279
:104490000895E091E903F091EA03309721F002805A
:1044A000F381E02D09950895E091E903F091EA0385
:1044B000309739F026E0DC012C930480F581E02D63
:1044C00009950895E091E903F091EA03309739F0F6
:1044D00022E0DC012C930680F781E02D09950895F8
:1044E000A3E0B0E0E6E7F2E20C94732C2091E7033E
:1044F0003091E80328173907A1F09093E8038093DF
:10450000E703E091E903F091EA03309751F023E0EB
:1045100029839B838A830084F185E02DCE01019657
:1045200009952396E2E00C948F2CA3E0B0E0EBE930
:10453000F2E20C94732C2091E5033091E6032817E6
:104540003907A1F09093E6038093E503E091E90336
:10455000F091EA03309751F024E029839B838A830A
:104560000084F185E02DCE01019609952396E2E0C5
:104570000C948F2CCF93DF93C0912901D0912A0105
:1045800022960E942C24813081F48091F40387FFCD
:104590000CC0C0912701D091280122969EE180E0B5
:1045A000915028F4DF91CF91089596E0F8CF2991AA
:1045B0002223B1F38F5FF4CFCF93C82F811102C0B4
:1045C00080E024C00E942C24813011F58091F403F6
:1045D00087FF1EC0EC2FE695E695E695EE3180F755
:1045E0008091270190912801E80FF92FF11D228178
:1045F00030E0C77081E090E002C0880F991FCA9533
:10460000E2F72823392381E0232BD1F2CF910895BB
:104610008091290190912A01FC01329608962191FE
:104620002C1721F0E817F907D1F7CACF81E0EECFB8
:104630009C01FC0132969FEF80E04191461751F0BA
:104640009F3F19F4411101C0982F8F5F8630A9F761
:104650009F3F09F40895290F311D97FD3A95F901FF
:1046600062830895FC01329608962191261303C0B7
:10467000DF0111971C92E817F907B9F70895E62FA3
:10468000E695E695E695EE3168F4E80FF92FF11D11
:10469000677021E030E001C0220F6A95EAF782815D
:1046A000822B82830895E62FE695E695E695EE3116
:1046B00070F4E80FF92FF11D677021E030E001C0C0
:1046C000220F6A95EAF72095828128232283089594
:1046D000CF93C82F0E942C246C2F813061F48091DD
:1046E000F40387FF08C080912701909128010E9460
:1046F0003F23CF9108958091290190912A010E9432
:104700001823F7CFCF93C82F0E942C246C2F813011
:1047100061F48091F40387FF08C080912701909194
:1047200028010E945323CF910895809129019091EF
:104730002A010E943223F7CF0E942C24813079F481
:104740008091F40387FF0BC0E0912701F0912801CD
:1047500032968EE1DF011D928A95E9F70895E09186
:104760002901F0912A01329686E0F4CFDC01FB01A9
:1047700011969C9111978181981322C012968C9169
:104780001297882319F0928189131AC013968C917D
:104790001397882319F09381891312C015968C9171
:1047A0001597882319F0958189130AC014969C9156
:1047B000992321F081E02481291303C080E001C006
:1047C00081E08170089508950E94E3230895811186
:1047D0000EC081E080934A016091470170914801C9
:1047E0008091490190914A010E94E423089582E05A
:1047F000F1CF83E080934A016091470170914801B5
:104800008091490190914A010E94E42308950E94F9
:10481000E723089581E080934A01609147017091F8
:1048200048018091490190914A010E94E423089532
:104830000E940A24089591E0811101C090E09093B4
:10484000490160914701709148018091490190911F
:104850004A010E94E42308958091490108958093BC
:104860004801609147017091480180914901909100
:104870004A010E94E423089580914801089580939D
:1048800047016091470170914801809149019091E1
:104890004A010E94E42308958091470108950895F4
:1048A00008950E9450240895089508950E944F2469
:1048B0000895CF930E9454240E944B120E945524C5
:1048C000C0E08C2F0E949011811105C0CF5FC630CF
:1048D000C1F7CF91089581E0FCCF85B7806885BF8F
:1048E00085B7806885BF08951F921FB61F92112457
:1048F0008F939F93AF93BF938091EB03811113C06C
:104900008091490490914A04A0914B04B0914C04C9
:104910004196A11DB11D8093490490934A04A09330
:104920004B04B0934C04BF91AF919F918F911F9016
:104930001FBE1F90189580915104843031F10E9460
:10494000CE031092EB0388E190E020E40FB6F894D8
:10495000A895809360000FBE2093600083B7817F8D
:10496000846083BF83B7816083BF7894889583B761
:104970008E7F83BF0FB6F894A89580916000886100
:1049800080936000109260000FBE08950E94DE07C1
:104990000E94D303089582E084BD93E095BD9AEF11
:1049A00097BD80936E0008952FB7F89480914904C5
:1049B00090914A04A0914B04B0914C042FBF0895EC
:1049C0002FB7F8946091490470914A0480914B0488
:1049D00090914C042FBF08959C014FB7F89480919B
:1049E000490490914A04A0914B04B0914C044FBFEC
:1049F000821B930B089578941F921FB61F92112467
:104A00008F939F93AF93BF938091490490914A04F1
:104A1000A0914B04B0914C040196A11DB11D80934F
:104A2000490490934A04A0934B04B0934C04BF9163
:104A3000AF919F918F911F901FBE1F90189587E790
:104A400097E7909301088093000888E19AE00FB6F9
:104A5000F894A895809360000FBE90936000FFCFFC
:104A600088E19AE00FB6F894A895809360000FBE95
:104A700090936000FFCF9B01BA0190915104943054
:104A8000E9F48F708093E9009FEF8091E8009150E6
:104A900085FD06C085ED8A95F1F700009111F5CFEF
:104AA0008091E80085FF0AC050E040E0C9010E9403
:104AB00041278091E8008E778093E800089543E0D5
:104AC00050E0BC0182E00E943B25089546E050E0A2
:104AD000BC0182E00E943B25089540E250E0BC0109
:104AE00082E00E943B250895CF93DF93EC010E9462
:104AF0002C2448E050E0BE0181E00E943B2588E084
:104B0000FE01ACEEB3E001900D928A95E1F7DF91E2
:104B1000CF91089580915004811109C00E94D1283D
:104B20000E942E298091E20084608093E200089523
:104B30001092500408950E940A2481E00E941B24D0
:104B4000089560914D0481E0611101C080E00E94F0
:104B5000F92308959091510481E0943009F080E0A8
:104B600060914D040E940724089542E061EC81E0C9
:104B70000E944D2842E261EC82E00E944D28909113
:104B8000510481E0943009F080E060914D040E946E
:104B9000E723089580915304833009F461C030F411
:104BA0008130D1F1823009F49EC008958A3009F431
:104BB0008AC08B3009F46FC0893009F050C08091F1
:104BC0005204813209F04BC08091560490915704F1
:104BD000029708F044C08091E800877F8093E80046
:104BE0008091E80082FF37C09091F3008091F2003D
:104BF000029731F48091F100813011F0863021F478
:104C00008091F1000E942F248091E8008B7780939F
:104C1000E8000E94812823C080915204813AF9F46F
:104C20008091E800877F8093E800809156049091FE
:104C30005704892B61F468E08CEE93E070E00E94E9
:104C400090278091E8008B778093E800089560E0DA
:104C500090E080E0F3CF809151048111C1CF08959D
:104C600080915204813AD9F780915604909157046B
:104C7000892BA9F78091E800877F8093E8008091D5
:104C8000E80080FFFCCF0E942C248093F1008091EB
:104C9000E8008E77BCCF80915204813201F7809179
:104CA000560490915704892BD1F68091E800877FB4
:104CB0008093E8000E948128809154040E941B2464
:104CC0000E94DE07089580915204813241F680915E
:104CD000E800877F8093E8000E9481288091550436
:104CE0000E943F24089580915204813A09F0B7CF81
:104CF0008091E800877F8093E8008091E80080FF42
:104D0000FCCF0E944C24C1CF84B7877F84BF0FB6ED
:104D1000F894A8958091600088618093600010925B
:104D200060000FBE80E890E00FB6F89480936100B9
:104D3000909361000FBE0E94182408950E94D1280C
:104D40000E942E29E2EEF0E08081846080837894D6
:104D50000E94AD2B08958BE491E00E9434220895C7
:104D600080915104853031F480915104853019F0DF
:104D70000E94C62408950E949B240E9459248823DF
:104D800099F380914F04882379F30E942B270E9486
:104D9000DE07EACF08959A014091580450915904D2
:104DA0000E94D3260895492F55274330510519F104
:104DB00068F44130510509F444C04230510509F40A
:104DC00045C090E080E050E040E025C04132510510
:104DD00049F142325105A9F784E490E041EC54E0F6
:104DE00061157105C1F086EB90E04BE054E0613055
:104DF000710589F0E6CF99278130910581F0009700
:104E000029F00297F1F6ECE8F3E002C0EAEBF3E0F8
:104E1000849190E0AF01F901518340830895E6E960
:104E2000F3E0F6CF89E090E040ED53E061157105C5
:104E300091F389E090E049EE53E06130710559F358
:104E4000C0CF82E190E049EF53E0E5CF8BE390E003
:104E50004EEB53E0E0CF80E189BD82E189BD09B42A
:104E600000FEFDCF8091D8008F7D8093D800809187
:104E7000E00082608093E0008091E00081FDFCCF43
:104E80000895AF92BF92CF92DF92FF920F931F933C
:104E9000CF93DF936C01EB018A010E94A028F82ECA
:104EA000811123C00115110539F0F801808191812C
:104EB000C81BD90BC80ED91EB12CA12C2097A9F064
:104EC0008091E80085FD22C08091E8008E77809374
:104ED000E80001151105A1F0F80180819181A80E6B
:104EE000B91EB182A08285E0F82E8F2DDF91CF917F
:104EF0001F910F91FF90DF90CF90BF90AF900895DA
:104F00000E94A0288823D1F2F82EEFCFF6018191DC
:104F10006F018093F1002197FFEFAF1ABF0ACECF48
:104F2000FC01809158049091590486179707A0F0CE
:104F30006115710529F49091E8009E779093E8003F
:104F400090E06115710551F4911108C08091E8005D
:104F500082FF34C080E00895BC01F2CF80915104FB
:104F60008823C1F18530C1F18091E80083FD30C014
:104F70008091E80082FDEACF8091E80080FFE1CFD8
:104F80008091F3002091F200382F6115710519F01E
:104F90002830310558F091E02830310509F090E0D3
:104FA0002091E8002E772093E800CBCF8191809369
:104FB000F100615071092F5F3F4FE7CF809151049D
:104FC000882341F0853041F08091E80083FFBECF17
:104FD00081E0089582E0089583E00895FC018091C6
:104FE00058049091590486179707A0F06115710530
:104FF00029F48091E8008E778093E80090E06115B5
:10500000710551F4911108C08091E80082FF35C00C
:1050100080E00895BC01F2CF809151048823C9F14A
:105020008530C9F18091E80083FD31C08091E800AE
:1050300082FDEACF8091E80080FFE1CF8091F3000C
:105040002091F200382F6115710519F028303105D3
:1050500058F091E02830310509F090E08091E800A7
:105060008E778093E800CBCF84918093F1003196C6
:10507000615071092F5F3F4FE6CF80915104882323
:1050800041F0853041F08091E80083FFBDCF81E0A1
:10509000089582E0089583E00895982F973028F0CE
:1050A0008F708093E90081E008959093E900242FA8
:1050B000762F50E0981731F07091EC002091ED00C0
:1050C0005091F00021FD02C09F5FE8CF3091EB00CE
:1050D0003E7F3093EB003091ED003D7F3093ED004B
:1050E0003091EB0031603093EB007093EC00209333
:1050F000ED005093F0002091EE0027FDE5CF80E019
:1051000008958091520487FF13C08091E80082FFC8
:1051100006C08091E8008B778093E80004C08091FE
:1051200051048111F2CF0895809151048823D9F35D
:105130008091E80080FFF8CF8091E8008E77ECCF77
:105140002091E4003091E50095E6A9012091EC0062
:10515000822F817020FF06C08091E80080FF06C08A
:1051600080E008952091E80022FD1AC0809151044A
:10517000882389F0853089F08091EB0085FD0FC090
:105180002091E4003091E50042175307F9F2915065
:10519000E1F684E0089582E0089583E0089581E0D7
:1051A00008950E9440290E944829E0EEF0E08081A5
:1051B00081608083E8EDF0E080818F77808319BC87
:1051C000A7EDB0E08C918E7F8C9380818F7E808361
:1051D0001092500408950F931F93CF93DF930E9472
:1051E00040290E944829C8EDD0E088818F778883C4
:1051F00088818068888388818F7D888319BC10921C
:10520000510410924D0410924F0410924E0400EE7F
:1052100010E0F80180818B7F8083888181608883A2
:1052200042E060E080E00E944D28E1EEF0E0808105
:105230008E7F8083E2EEF0E08081816080838081D8
:1052400088608083F80180818E7F8083888180617F
:105250008883DF91CF911F910F910895E8EDF0E0E1
:1052600080818F7E8083E7EDF0E0808181608083A4
:1052700084E082BF81E0809350040E94EB2808956F
:10528000E8EDF0E080818E7F80831092E200089547
:105290001092DA001092E10008951F920F920FB65B
:1052A0000F9211242F933F934F935F936F937F93AC
:1052B0008F939F93AF93BF93EF93FF938091E10000
:1052C00082FF0BC08091E20082FF07C08091E10065
:1052D0008B7F8093E1000E94AC2B8091DA0080FFED
:1052E00019C08091D80080FF15C08091DA008E7FB0
:1052F0008093DA008091D90080FF96C080E189BD5B
:1053000082E189BD09B400FEFDCF81E080935104A4
:105310000E948A258091E10080FF19C08091E200FF
:1053200080FF15C08091E2008E7F8093E200809123
:10533000E20080618093E2008091D80080628093D7
:10534000D80019BC85E0809351040E94A12580916A
:10535000E10084FF2BC08091E20084FF27C080E140
:1053600089BD82E189BD89B5982F917080FFFBCFFF
:105370008091D8008F7D8093D8008091E1008F7E4E
:105380008093E1008091E2008F7E8093E200809123
:10539000E20081608093E20080914D04882309F44B
:1053A00049C084E0809351040E94AA258091E100C5
:1053B00083FF29C08091E20083FF25C08091E10036
:1053C000877F8093E10082E08093510410924D0426
:1053D0008091E1008E7F8093E1008091E2008E7FDA
:1053E0008093E2008091E20080618093E20042E0DD
:1053F00060E080E00E944D288091F00088608093FA
:10540000F0000E949B25FF91EF91BF91AF919F917A
:105410008F917F916F915F914F913F912F910F905D
:105420000FBE0F901F90189519BC109251040E9446
:10543000982570CF8091E30087FD93E0909351040D
:10544000B3CF1F920F920FB60F9211242F933F9359
:105450004F935F936F937F938F939F93AF93BF937C
:10546000CF93DF93EF93FF93D091E900DF708091AA
:10547000EC00C82FC17080FDC0E81092E900809157
:10548000F000877F8093F00078940E94652A109244
:10549000E9008091F00088608093F000CD2BCF7000
:1054A000C093E900FF91EF91DF91CF91BF91AF9150
:1054B0009F918F917F916F915F914F913F912F912C
:1054C0000F900FBE0F901F901895AAE2B0E0EBE688
:1054D000FAE20C94722C82E594E02091F100FC0138
:1054E0002193CF01F4E08A359F07B9F70E94CA25BE
:1054F0008091E80083FF1EC1809152049091530473
:105500009A3008F017C1E92FF0E0E85FF14D0C94F4
:105510002C2C803899F0823809F00CC18091560407
:105520008F70873008F006C18093E9008091EB000E
:1055300085FB882780F91092E90006C080914E040F
:1055400090914F04911182609091E800977F909321
:10555000E8008093F1001092F1008091E8008E77CE
:10556000E5C0882309F4D3C0823009F0E3C08091FC
:1055700054048111D6C0809156048F702FEF280FEC
:10558000263008F0D7C08093E9002091EB0020FF7F
:10559000C8C0933031F48091EB0080628093EB00BF
:1055A000C0C09091EB0090619093EB0021E030E05F
:1055B00001C0220F8A95EAF72093EA001092EA00D0
:1055C0008091EB008860EACF8111B4C0109154043F
:1055D0001F778091E3008078812B8093E300809196
:1055E000E800877F8093E8000E9481288091E8008E
:1055F00080FFFCCF8091E30080688093E30082E02D
:10560000111183E08093510495C08058823008F0D6
:1056100091C080915404909155048C3D23E09207F1
:10562000A1F583E08A838AE289834FB7F894DE018B
:10563000139620E03EE051E2E32FF0E05093570054
:10564000E49120FF03C0E295EF703F5FEF708E2F73
:1056500090E0EA30C0F0C7968D939D932F5F243180
:1056600059F74FBF8091E800877F8093E8006AE296
:1056700070E0CE0101960E9490278091E8008B7720
:105680008093E80057C0C096E7CF609156047091B0
:105690005704AE014F5F5F4F0E94CB26BC01892BA0
:1056A00009F448C09091E800977F9093E8008981C1
:1056B0009A810E94EE27E1CF8038E1F58091E800E1
:1056C000877F8093E80080914D048093F10045CF5F
:1056D000811130C090915404923060F58091E800BF
:1056E000877F8093E80090934D040E9481288091E9
:1056F0004D04882311F084E005C08091E30087FD0C
:10570000FACF81E0809351040E94B52513C08091A7
:105710005404813079F481E0933009F080E0809383
:105720004F041092E9008091E800877F8093E800A1
:105730000E9481288091E80083FF0AC08091E800E0
:10574000877F8093E8008091EB0080628093EB007C
:10575000AA96E3E00C948E2C0895CF938091510487
:105760008823A1F0C091E900CF709091EC00892FBF
:10577000817090FD80E8C82B1092E9008091E800CC
:1057800083FD0E94652ACF70C093E900CF910895F0
:10579000991B79E004C0991F961708F0961B881F83
:1057A0007A95C9F78095089587FB082E062687FD10
:1057B000819567FD61950E94C82B0EF4919507FCB9
:1057C00081950895AA1BBB1B51E107C0AA1FBB1FEF
:1057D000A617B70710F0A61BB70B881F991F5A957D
:1057E000A9F780959095BC01CD01089597FB072EF0
:1057F00016F4009407D077FD09D00E94E22B07FC35
:1058000005D03EF4909581959F4F089570956195D0
:105810007F4F0895A1E21A2EAA1BBB1BFD010DC0EC
:10582000AA1FBB1FEE1FFF1FA217B307E407F50750
:1058300020F0A21BB30BE40BF50B661F771F881F2C
:10584000991F1A9469F760957095809590959B01C2
:10585000AC01BD01CF010895EE0FFF1F0590F4913B
:10586000E02D09940E943A2C332312F48A1B9B0BDF
:105870000C944B2CA29FB001B39FC001A39F700D4D
:10588000811D1124911DB29F700D811D1124911D48
:1058900008950E943A2CB7FF0895821B930B089538
:1058A0000E943A2CA59F900DB49F900DA49F800D4F
:1058B000911D11240895B7FF0C94502C0E94502C78
:1058C000821B930B08952F923F924F925F926F929B
:1058D0007F928F929F92AF92BF92CF92DF92EF9280
:1058E000FF920F931F93CF93DF93CDB7DEB7CA1B01
:1058F000DB0B0FB6F894DEBF0FBECDBF09942A882C
:10590000398848885F846E847D848C849B84AA84D3
:10591000B984C884DF80EE80FD800C811B81AA8160
:10592000B981CE0FD11D0FB6F894DEBF0FBECDBF2B
:10593000ED010895002E083090F0982F872F762FD4
:10594000652F542F432F322F22270850F4CF220FD8
:10595000331F441F551F661F771F881F991F0A9505
:10596000B2F7002D089597FD1094002E083098F09E
:105970000850232F342F452F562F672F782F892F2C
:10598000912DF4CF159497958795779567955795B1
:105990004795379527950A95AAF71124002D089564
:1059A0008F929F92AF92BF92CF92DF92EF92FF922F
:1059B000CF93DF93EC01688179818A819B816115A6
:1059C00071058105910521F464E279ED8BE597E09D
:1059D0002DE133EF41E050E00E94A72D49015A012B
:1059E0009B01AC01A7EAB1E40E94502C6B017C0141
:1059F000ACEEB4EFA50194010E945E2CDC01CB015A
:105A00008C0D9D1DAE1DBF1DB7FF03C00197A109E1
:105A1000B04888839983AA83BB839F77DF91CF9116
:105A2000FF90EF90DF90CF90BF90AF909F908F90BE
:105A300008950E94D02C089580E091E00E94D02C1F
:105A40000895B0E0A0E08093000190930101A0933D
:105A50000201B09303010895FC014150504030F021
:105A600001900616D1F73197CF010895882799271D
:105A70000895FB01DC0104C08D910190801921F48F
:105A800041505040C8F7881B990B0895FB01DC0179
:105A900002C001900D9241505040D8F70895F999F5
:105AA000FECF92BD81BDF89A992780B50895A6E1F1
:105AB000B0E044E050E00C94992DA8E1B0E042E061
:105AC00050E00C94992DDC01A40FB51F41505040BB
:105AD00048F0CB01840F951F2E910E94742D4150E8
