:10000000F8C200002EC300002CC300002AC3000069
:1000100028C3000026C3000024C3000022C3000040
:1000200020C300001EC300000C9434240C9401254E
:100030000C94901F16C3000014C3000012C30000EC
:1000400010C300000EC300000CC300000AC3000070
:1000500008C300000C94072004C3000002C3000082
:1000600000C30000FEC20000FCC20000FAC2000093
:10007000F8C20000F6C20000F4C20000F2C20000A4
:10008000F0C20000EEC20000ECC20000EAC20000B4
:10009000E8C20000E6C20000E4C20000E2C20000C4
:1000A000E0C20000DEC20000DCC2000029003B000C
:1000B0003C003E00400042004400680047003A0017
:1000C00000003D003F00410043004500460048005D
:1000D00035001F0021002300250027002E002A00E4
:1000E0004A001E0020002200240026002D002A00C5
:1000F00049004B002B001A0015001C000C001300D7
:10010000300031004D0014000800170018001200E4
:100110002F0000004C004E003900160009000B00B3
:100120000E003300280000000000040007000A0051
:100130000D000F003400000000000000E1001D0071
:100140000600050010003700E5002152520064004F
:100150001B001900110036003800000000000000EC
:10016000E000E20000002C000000E6006500E40072
:100170005100E3000000000000000000E700000064
:1001800050004F00007C010001000100010001004F
:100190000100010001000100000001000100010058
:1001A0000100010001000100010001000100010047
:1001B0000100010001000100010001000100010037
:1001C0000100010001000100010001000100010027
:1001D0000100010001000100010001000100010017
:1001E0000100010001000100010000000100010008
:1001F00001000100010001000100010001000000F8
:1002000000000100010001000100010001000000E8
:1002100000000000010001000100010001000100D8
:1002200001000100010001000100010001000100C6
:1002300001000000000000000100010000000100BA
:1002400000000100010001000100010000000000A9
:100250000000000001000000010001001E0F050069
:10026000047F3F1F643214643214783C1E1E140A4B
:10027000052223252628292A2C2D2F3032333536E6
:10028000383A3B3D3E4042434547494A4C4E505127
:10029000535557595A5C5E6062646668696B6D6F4E
:1002A00071737577797B7D7F81838587898A8C8E51
:1002B00090929496989A9C9E9FA1A3A5A7A8AAAC59
:1002C000AEAFB1B3B4B6B8B9BBBCBEBFC1C2C3C593
:1002D000C6C7C9CACBCCCDCED0D1D2D2D3D4D5D635
:1002E000D7D7D8D9D9DADADBDBDBDCDCDCDCDCDD68
:1002F000DDDDDDDCDCDCDCDCDBDBDBDADAD9D9D84C
:10030000D7D7D6D5D4D3D2D2D1D0CECDCCCBCAC9E3
:10031000C7C6C5C3C2C1BFBEBCBBB9B8B6B4B3B112
:10032000AFAEACAAA8A7A5A3A19F9E9C9A989694AD
:1003300092908E8C8A89878583817F7D7B79777582
:1003400073716F6D6B6968666462605E5C5A595761
:10035000555351504E4C4A4947454342403E3D3B20
:100360003A3836353332302F2D2C2A2928262523AA
:1003700022FFAA7F55400001010101010101010195
:100380000202020202020202020303030303030346
:100390000304040404040404050505050506060613
:1003A0000606070707070708080808090909090AD0
:1003B0000A0A0B0B0B0C0C0C0D0D0D0E0E0E0F0F75
:1003C0000F10101111111212131314141515161603
:1003D0001717181819191A1A1B1B1C1D1D1E1E1F72
:1003E0002020212222232424252626272829292AC1
:1003F0002B2C2D2D2E2F30313232333435363738E9
:10040000393A3B3C3D3E3F404142434445464748E4
:10041000494A4C4D4E4F50515354555658595A5BBA
:100420005D5E5F616264656668696B6C6D6F70725A
:10043000737577787A7B7D7E8082838587888A8CC6
:100440008E8F91939596989A9C9EA0A2A3A5A7A9FA
:10045000ABADAFB1B3B5B7BABCBEC0C2C4C6C9CBF1
:10046000CDCFD1D4D6D8DBDDDFE2E4E7E9EBEEF0A7
:10047000F3F5F8FAFDFF1003470061006C0061001E
:1004800074006500610000001C03530074007500D7
:10049000640069006F0020004B0065007300740069
:1004A0007200610000000403090409023B0002011C
:1004B00000A0FA0904000001030101000921110153
:1004C000000122440007058103080001090401001E
:1004D000010300000009211101000122B6000705F7
:1004E00082032000011201000200000008107C02BB
:1004F0008800010102000105010902A1018502092C
:1005000001A10005091901290815002501950875A3
:100510000181020501093009311581257F95027598
:1005200008810609381581257F9501750881060522
:100530000C0A38021581257F950175088106C0C017
:1005400005010980A101850319012AB700150126BB
:10055000B700950175108100C0050C0901A1018546
:100560000419012AA002150126A002950175108127
:1005700000C005010906A1018506050719E029E764
:10058000150025019508750181020507190029EF5D
:100590001500250195F0750181020508190129054D
:1005A000950575019102950175039101C005010939
:1005B00006A101050719E029E71500250195087531
:1005C0000181029501750881010507190029FF15B0
:1005D0000026FF0095067508810005081901290508
:1005E000150025019505750191029501750391018D
:1005F000C00011241FBECFEFDAE0DEBFCDBF04B6CE
:1006000003FE18C08091220490912304A091240439
:10061000B09125048730904BA740B04B59F410920D
:100620002204109223041092240410922504E0E086
:10063000F8E3099511E0A0E0B1E0E4E6F1E502C0DD
:1006400005900D92AC3EB107D9F724E0ACEEB1E0D5
:1006500001C01D92A232B207E1F70E9470120C9401
:100660006628CECC8230B8F46C30A8F4493098F4C7
:1006700050E099E0699F400D511D1124FA019CE65C
:10068000899FE00DF11D1124EE0FFF1FE455FF4F70
:1006900085919491089581E090E00895E3CF0895C5
:1006A00081E00895FDCF0895FBCF0895F9CF089517
:1006B000F7CF0895FDCF089508950895FDCF0895CB
:1006C00008950895A6E0B0E0E8E6F3E00C943D2735
:1006D00049835A839E833091F30189819A81311134
:1006E00017C03E81332389F0222379F081D5182F5A
:1006F000682F89819A815BD569817A81812F0E94D7
:10070000340F2696E3E00C94592762D5182FF4CFC6
:100710006FD569817A81F3CFFC01262F4081518109
:100720006281738184819581CDCFCF93DF93EC017A
:1007300061E0F2DFBE01B6DF882349F061E0CE015F
:10074000EBDFBE01B1DF8170DF91CF91089580E0D2
:10075000FACF0F931F93CF93DF93EC0160E0DCDFC0
:100760008C01BE01AADFBE01C801A8DFDF91CF91D5
:100770001F910F9108950F931F93CF93DF93EC0177
:1007800061E0CADF8C018D8181110E94E018BE01F9
:10079000C8018CDF811106C080E0DF91CF911F91ED
:1007A0000F910895BE01C80185DF8823A9F3BE011A
:1007B000C8010E94091D882379F3BE01C8010E9467
:1007C0006319882349F3BE01C8010E943B1988239D
:1007D00019F3BE01C8010E9486128823E9F2BE0106
:1007E000C8010E9434108823B9F2BE01C8010E94DA
:1007F0004610882389F2BE01C8010E945F10CDCF48
:1008000021E030E0A90102C0440F551F8A95E2F7AC
:10081000CA0106C4CF93C82F81E090E00C2E02C01D
:10082000880F991F0A94E2F70E942F0D8C2FE8DFA2
:10083000CF91089581E00895FDCF0895FBCF0895ED
:10084000CF93C82FA5D38C2FF7DF8C2FF7DF2FEF97
:1008500084E39CE0215080409040E1F700C000001C
:10086000CF91089581E0ECDF0C942B2080E0E8DF4D
:100870000C944F2025DF0E94671F26C027D021DF60
:100880000C946B1F81E00895809581FF05C02D9A1F
:1008900082FF04C05A9A08952D98FACF5A98089565
:1008A000CF93DF93D82FEEDFC82F882311F08D2F41
:1008B000EBDF8C2FDF91CF910895259A2D9A529AD4
:1008C0005A9A0895EDCF089580E0FCCF0E94581DFC
:1008D000F9CFCF930E94581DC82F8091EE018C173D
:1008E00071F0C093EE010E94FB1F6093EF017093C3
:1008F000F0018093F1019093F2018C2FE3DFCF910F
:100900000895ADE0B0E0E7E8F4E00C943E274887B6
:1009100059876A877B878C879D8791118BD71F8228
:1009200086E0FE013896DE01119601900D928A95BF
:10093000E1F78D8181110CC029813A814B815C8165
:100940006D817E818F81C6D62D96E2E00C945A2768
:10095000CE010196EADE8111EFCFF6CFFC012481B2
:10096000213019F48081918174C40895662321F0A7
:100970000E94C01A0C948B1B0E94121BFBCFCF93BA
:10098000C82F8823B9F08238B9F40E94671D81FD11
:1009900011C089E30E94941ED8D72FEF87EE93E011
:1009A000215080409040E1F700C0000089E30E94A0
:1009B000AB1ECBD7CF910895833899F40E94671D61
:1009C00080FDF8CF83E50E94941EBFD72FEF81EE04
:1009D00094E0215080409040E1F700C0000083E5A2
:1009E000E6CF843899F40E94671D82FDE3CF87E447
:1009F0000E94941EAAD72FEF81EE94E021508040F0
:100A00009040E1F700C0000087E4D1CF8CEF8C0F5D
:100A1000813A68F48C2F0E94091E882321F08C2FC4
:100A20000E94AB1E92D78C2F0E94941EC2CF80E2F0
:100A30008C0F883040F4C77081E001C0880FCA95E0
:100A4000EAF7DBD6B6CFEBE5EC0FE33040F4F0E0AD
:100A5000E959FE4F808190E00E949A1DABCFE8E5F6
:100A6000EC0FEB3150F4F0E0EE0FFF1FEF5CFE4FA8
:100A7000808191810E94C11D9DCF83E38C0F8331C2
:100A800008F098CF61E08C2F71DF94CF882309F4B0
:100A90004DC0823861F40E94671D81FF47C089E321
:100AA0000E94941E52D789E30E94AB1E4EC7833822
:100AB00051F40E94671D80FF39C083E50E94941E97
:100AC00044D783E5F1CF843851F40E94671D82FF3B
:100AD0002DC087E40E94941E38D787E4E5CF9CEFB1
:100AE000980F913A08F390E2980F983048F4877085
:100AF00091E001C0990F8A95EAF7892F84D6D6CF65
:100B00009BE5980F933020F490E080E00C949A1DC0
:100B100098E5980F9B3120F490E080E00C94C11D83
:100B200093E3980F933110F460E020CF08951F9362
:100B3000CF93DF93182FEB0122DF209731F4812F21
:100B4000A5DFDF91CF911F9108958FE99FE0019775
:100B5000F1F700C000002197F0CF70E060E089332A
:100B600011F460E570E0E3CF882311F046D6EDC6BE
:100B70000895882311F047D6E8C60895B0E0A0E0B4
:100B8000E4ECF5E00C9437276C01D62FC72FFC015D
:100B90001581068102950F7026D6E82E8823E9F08C
:100BA000E12E1123D1F08C2F807F803461F080E220
:100BB0008D0F8830F8F08C2F807E803221F4D23077
:100BC000C8F00023B9F08091900382FF13C082E047
:100BD000E0D609D691E0E82EE926BC2EB2949FE03B
:100BE000B922FBE0FB1580F1EB2DF0E0E859F74D61
:100BF0000C94FD26E12CF1CF0C2F0F70C07F11F06B
:100C00000295007F112381F0002349F080E28D0FCF
:100C1000883010F0D11105C0802FEFD596D68D2FDA
:100C200040C0802FFAD5FACF8D2F30DF002361F03E
:100C300080E28D0F883010F0D11103C0802FE3D5F2
:100C400002C0802FF0D581D6EB2DE850FF0B3497F2
:100C500008F04CC10E94581D35DECDB7DEB7E9E083
:100C60000C9453272C2F2F70F22EC07FC03219F016
:100C7000F29480EFF822DD2341F0D13081F111238D
:100C800009F439C00023C9F0CACF8091900382FDD6
:100C900010C0112341F0FF2019F08F2DAED555D68D
:100CA00080E06DDED1CF80E0F1DEFF2069F28F2D94
:100CB000C6CF112359F0011103C08F2D55DFC4CFCA
:100CC000013009F0C1CF8F2DC9D5BECF0111BCCFE6
:100CD0008F2D4FDF8F2DCDD58F2DB2D5B5CF1123D1
:100CE00021F0063008F0B0CFE8CF053008F0ACCFE7
:100CF0008F2D3FDFA9CF0023D9F3D93349F43FEF3C
:100D000087EE93E0315080409040E1F700C0000052
:100D10008D2FBCDE99CF8C2F86958695837069F0D8
:100D2000813009F091CF8D2F9C2F9370111102C04B
:100D300080E090E00E94C11D87CF8D2F9C2F937083
:100D4000111102C080E090E00E949A1D7DCF612FBA
:100D50008D2F0CDE79CF8C2F837081F5111174CF1C
:100D60004D2F429546954770440F440F2D2F2F70FD
:100D700030E0042E02C0220F331F0A94E2F790E005
:100D800080E0D4FF09C08FE090E002C0880F991F77
:100D90004A95E2F780959095C695C695C370822BCB
:100DA000932BC23039F040F4C13011F042D14CCF16
:100DB00039D14ACF45D148CF33D146CF869511237B
:100DC00011F08C2F8170882309F43ECF4D2F42956E
:100DD00046954770440F440F2D2F2F7030E0042E9E
:100DE00002C0220F331F0A94E2F790E080E0D4FFA4
:100DF00009C08FE090E002C0880F991F4A95E2F782
:100E000080959095C695C695C370822B932BC23062
:100E100039F040F4C13011F067D116CF5ED114CF54
:100E20006AD112CF1AD110CFCF70112321F08C2F9D
:100E300028D18D2F43CF8D2F9CDE8C2F30D104CF26
:100E4000D23F39F160F4D03FB9F0D13F81F01123A6
:100E500009F43CC00111E3CE8C2F8F711EC0D33F2B
:100E6000F1F0D43FA1F78091900382FD20C08C2F38
:100E70008F71112319F311C0112339F0053008F0D7
:100E8000E3CE8C2F8F711BD1DFCE063008F0DCCE85
:100E9000F8CF8C2F8F711111D1CFF3D0D5CE112374
:100EA00021F08C2F8F71E3D0CFCEDED0CDCE1123A9
:100EB00029F063E08C2F8F7155D5C6CE81E069D5BE
:100EC000023008F4C1CE82E064D5BECE002359F0D2
:100ED000D93309F01DCFEFEFF7EE23E0E150F040FA
:100EE0002040E1F713CF8C2F8F71A8CFEE2009F4AB
:100EF000B4CE75D480FDB1CEF60115826AD4C1D0CE
:100F0000C60117D066D4CBD0A8CE0F931F93CF9332
:100F1000DF93EC01688179818D81A4D18C01F2D0BD
:100F20007ED0B801CE012ADEDF91CF911F910F91C3
:100F30000895CF93DF93EC018C81882381F0CE015B
:100F40001ADC81110FC04FD4882349F08D8188238A
:100F500031F08091900382FF02C082E01AD5DF91C8
:100F6000CF910895CE01D1DFCE01F3DBF8CF90E031
:100F700080E00E949A1D90E080E00E94C11D5AD43A
:100F8000E4D40E94A41B0C948B1B0E94C21EEFCFC2
:100F900041D4FBCF92959F70963091F058F4925FB8
:100FA0009F70923058F4803F19F030F4883E30F44E
:100FB00081E008959A5FF4CF843FD1F380E00895F3
:100FC000883EB0F3813FD1F7F3CFFC012481222387
:100FD00021F0808191813DD1DDCF80E00895A6E0B0
:100FE000B0E0E5EFF7E00C943E272696E2E00C94A3
:100FF0005A27A7E0B0E0EFEFF7E00C943E272796E2
:10100000E2E00C945A270895FECF0895FDCF08958D
:10101000FADFFCDF90932F0280932E02089508954B
:10102000F7CF089520912E0230912F02822B932B1F
:10103000EFCF20912E0230912F0282239323E8CF0D
:1010400020912E0230912F0282279327E1CFDBCF10
:101050000895FDCF0895D7CF0895FDDFFADF90936F
:101060002D0280932C02089590E080E0F6CF21E0DD
:1010700030E0A90102C0440F551F8A95E2F7CA016A
:10108000ECCF21E030E002C0220F331F8A95E2F757
:1010900080912C0290912D02822B932BDECF21E0A8
:1010A00030E002C0220F331F8A95E2F72095309579
:1010B00080912C0290912D0282239323CECF21E0A8
:1010C00030E002C0220F331F8A95E2F780912C0294
:1010D00090912D0282279327C0CF20912C0230912E
:1010E0002D02822B932BB9CF20912C0230912D020F
:1010F00082239323B2CF20912C0230912D0282279C
:101100009327ABCF0895262F277091E001C0990F48
:101110002A95EAF723E0769567952A95E1F7660F19
:10112000771F660F771FFA01E60FF71F50E040E0C8
:10113000682F70E08191DF0111979B01042E02C09E
:10114000369527950A94E2F72170219528272923BF
:1011500028272C934F5F5F4F4430510559F708956E
:10116000A82FA77023E0969587952A95E1F7880F19
:10117000991F880F991FFB01E80FF91F50E040E00D
:1011800080E0219130E00A2E02C0369527950A941E
:10119000E2F721703327042E01C0220F0A94EAF7E8
:1011A000822B4F5F5F4F4430510559F70895262F2A
:1011B0009C3068F4893058F4682F70E089E0989F7B
:1011C000600D711D112444EF51E0822F9CCF0895D2
:1011D000292F9C3058F4893048F490E064EF71E096
:1011E00039E0239F800D911D1124BACF80E008952E
:1011F000B0E0A0E0EEEFF8E00C9437277C0100911E
:101200002C0210912D0280912E0290912F02082B1A
:10121000192BCFE0D0E0CC24C394D12CBC2EC60136
:101220000C2E02C0880F991F0A94E2F780239123A5
:10123000892B49F4219790F7B12C8B2DCDB7DEB7D0
:10124000E9E00C945327B7018C2F19D6019791F33D
:10125000F4CFCF93DF93EC01CBDFBE0110D6DF914B
:10126000CF9108951F93CF93DF93EB019091F301FA
:10127000992331F0CB01EDDFDF91CF911F910895DC
:10128000882351F0CB01B4DF182F682FCE018FDFF8
:10129000BE01812FF4D5F0CFCB019ADF182FF8CF04
:1012A0001F93CF93DF93C091300217E080913102FA
:1012B0008C1304C0DF91CF911F910895D0E01C9F43
:1012C000F0011D9FF00D1124EE5CFD4F2081318156
:1012D000428153816481758186818BDE2196C7703E
:1012E000E5CF20916A0230916B0240916C025091DF
:1012F0006D0260916E0270916F028091700279CEE2
:10130000CF93DF9380917002807F09F04BC0809172
:101310006F02882309F446C0E091300250913102F7
:10132000C0916B02D0916A0260916C0270916D0263
:1013300047E05E17B9F18E2F90E0E49FF001112491
:10134000EE5CFD4F2481222381F1489FF001499FEB
:10135000F00D1124DF01AE5CBD4F11962C91119759
:101360002C1323C02C912D1320C015962C9115976A
:1013700021111BC012962D913C91261B370B283C46
:10138000310598F4809170028F70806180937002B3
:10139000E85CFD4F80818F70806180838AE692E0F7
:1013A000C8DD7EDFDF91CF910895FC013196E770B3
:1013B000C0CF482F209130029091310257E029137D
:1013C00002C080E0089530E0529FF001539FF00D7D
:1013D0001124EE5CFD4F8181681306C080814813A3
:1013E00003C085818111EECF2F5F3F4F2770E7CF7C
:1013F000A4E1B0E0EEEFF9E00C9434278C0186E034
:10140000F801DE011F9601900D928A95E1F7F8012F
:101410008481E5809AE6A92E92E0B92E90916E0221
:1014200091111AC08823A9F0EE2089F0C801CDDD02
:10143000F82E882361F087E0F801D50101900D9224
:101440008A95E1F7C5018ADA5BDF4BDF59C0C80135
:1014500070DDFF24F39454C0C080D18082809380DB
:10146000F0906F0220916C0230916D02A401421B3A
:10147000530BFF2009F4E9C0483C510508F09CC01B
:10148000882309F43DC090916B0280917002282F4F
:10149000207F09F056C09D1114C090916A02C912B4
:1014A00010C0E11048C08F7080618093700219DF16
:1014B0008AE692E03EDD80917002F8018683F12C8D
:1014C0001FC0E11038C06D2D8C2D73DF6D2D8C2D5C
:1014D00070DFE82E8111F3CFCF86D88A8F85988967
:1014E000B8DE292F22952F70243078F49F70223097
:1014F000A0F09923B1F0F8019681907F91F4FE2C31
:101500008F2D6496ECE00C9450272A5F2F702230C8
:1015100060F0C8010EDDEF2CF2CF992311F0882383
:1015200071F3805E883058F3F4CF803F40F3815FE1
:10153000833078F7E4CF80917002816080937002ED
:10154000BECF9D1112C090916A02C9120EC0E11067
:101550000CC08683C801EDDC87E0F801AAE6B2E0A2
:1015600001900D928A95E1F770CFC8012EDD882396
:1015700009F46DCFEE2009F46ACF809170028032B9
:1015800080F020916A0230916B02398728879B8610
:101590008A8690916E029C871D868E87CE01089662
:1015A000C8DC87E0F801AAE6B2E001900D928A95C6
:1015B000E1F7A6DE96DE4DCF90917002292F207FB5
:1015C00089F4682D9A8A898AA6017A899E2D07DD79
:1015D0008AE692E0AEDC87E0F50111928A95E9F7A0
:1015E00080DE6DCF882309F48BCF80916B028D1143
:1015F0000FC080916A02C8120BC0E11009C0968327
:10160000C80197DC87E0F50111928A95E9F778CF58
:10161000C801DBDC882309F41ACFEE2009F417CFC8
:1016200080917002803208F4BCCF20916A02309120
:101630006B023A8329839C828B8290916E029D83F8
:101640001E828F83CE010196ABCF483C5105A8F591
:10165000882309F4FECEFE2CEE2009F4F8CE80910A
:101660006B028D111EC080916A02C8121AC080914F
:10167000700280FD0DC0982F907F51F08683903FBF
:1016800009F468CF982F907F905F8F70892B61CF7E
:1016900087E0F801AAE6B2E001900D928A95E1F7A1
:1016A0002FCFC80192DC81117CCF809170028160C4
:1016B00080937002C8013DDC23CF682D9A8A898A05
:1016C000A6017A899E2D8BDC87E0F50111928A951F
:1016D000E9F7BBCEAEE0B0E0E0E7FBE00C943D27DD
:1016E000288739874A875B876C877D878E87CE01FD
:1016F00008967EDE8823A9F06C85662339F028855C
:1017000039854A855B857D858E8573DC17E0809100
:1017100030029091310289133BC02E96E3E00C9485
:10172000592787E0FE013896DE01119601900D924F
:101730008A95E1F78C85882349F32091310230E0C6
:10174000C901019687709927409130024817190600
:1017500091F097E0929FD001939FB00D1124AE5C61
:10176000BD4FFE01319601900D929A95E1F780935D
:10177000310296DDCBCF0CDC109231021092300298
:1017800087E0EAE6F2E0DF011D928A95E9F7BECF35
:10179000819FC00111248E5C9D4F2ADE882309F4AD
:1017A000BCCFE09130021E9FF0011124EE5CFD4F92
:1017B000208131814281538164817581868119DC68
:1017C0008091300290E001968770992780933002D3
:1017D0009ECF8091990286958695869508958091F1
:1017E00099028770089590919902977081E009F4A9
:1017F00080E008958091C50208959091C502892BDB
:101800008093C502089580959091C5029823909386
:10181000C50208951092C50208959091C402892BC3
:101820008093C402089580959091C4029823909368
:10183000C40208951092C40208950895FECF089539
:1018400090919A02292F282329F08095892380934B
:101850009A02F4CF08950895FECF089590919B02C7
:10186000292F2823281721F0982B90939B02F4CF3F
:10187000089590919B02292F282329F08095892390
:1018800080939B02E9CF089580919B02882321F0E9
:1018900010929B0280E0E0CF0895CF93C091C502E3
:1018A0008091C402C82B80919B02882329F0C82B09
:1018B0000E94E81D8111E8DF8C2FCF910895CF930E
:1018C000DF93C0910601D0910701E7DF8883C091C3
:1018D0000601D091070148E050E061E972E0CE01D5
:1018E0000E94FD27892B59F088E0FE01A1E9B2E0B2
:1018F00001900D928A95E1F7CE010E94691DDF915A
:10190000CF910895CF93DF93C0910401D091050149
:10191000C4DF8983C0910401D091050140E250E009
:1019200061E772E0CE010E94FD27892B59F080E229
:10193000FE01A1E7B2E001900D928A95E1F7CE0198
:101940000E94761DDF91CF9108950E94511D88233A
:1019500029F080918F0387FF01C0D4CFB0CF0895C5
:10196000FECF08959091900392FF0EC098E0899F5A
:1019700090011124622B6093990283DB809199027C
:10198000869586958695ECCF7CCB1092990280E067
:10199000E7CF909199028095892380939902282F0F
:1019A000277059F4891749F09091900392FF05C070
:1019B00086958695869573DBE8CF08959091900380
:1019C00092FB222720F9281749F080FB92F9909387
:1019D00090038FE893E047D082E0DBCF08958091B9
:1019E000900382FB882780F991E08927E7CF81E087
:1019F000E5CF80E0E3CF60E070E0CB0128C460E099
:101A000070E0CB011ED4F7CFA3E0B0E0EAE0FDE048
:101A10000C943E276ED379D31B82CE0103968CD3D0
:101A200081E090E090932F0280932E0291D31A824E
:101A300019828A8184618A83CE0101969AD37AD6EB
:101A4000DEDF2396E2E00C945A27DECF089563C3CD
:101A5000089550C3089565C3089574C3089578C365
:101A600008957BC3089585C308958AC30895C9C3A3
:101A70000895F3C30895A6E0B0E0E1E4FDE00C941E
:101A80003C270E94EF1F8C018091C6029091C702F3
:101A90008017910781F019821A820E94EF1F682F28
:101AA00049815A81792F80E090E00E94810410934F
:101AB000C7020093C6022696E4E00C9458270E94C1
:101AC000FB1F6093E4027093E5028093E60290931B
:101AD000E7026093E0027093E1028093E202909348
:101AE000E302089508950895FDCF08950895FEDF57
:101AF000FBCF0895FECF08950895FEDFFBCF82E36C
:101B000090E1FFD4F0DFF3CF81E00895FDCF089599
:101B1000FBCF0895089508950895FCDFFCDFFCCF06
:101B200098DF811101C091DF88EE92E094DF8FE8A9
:101B300093E097DF0E94391990DF72DA80912C02CE
:101B400090912D0286CA0E94E61F45D4E9DF0E94CB
:101B50005D040E941F18D1CFA6E0B0E0E2EBFDE0EB
:101B60000C943227D3DF81110BC085DF0E94E1186E
:101B70000E94C61B0E9469042696EEE00C944E2734
:101B80003BD428EC822E22E0922E640110E0F60174
:101B9000E190F1906F01812F6BD31F5F1C3009F42E
:101BA00047C0E816F90699F38091E80281FD69D3F0
:101BB000AFDF782E10E066246394812F59D37C0127
:101BC000F401A190B1904F018A159B0561F100E0ED
:101BD000CC24C394D12CAE24BF24C5018C219D21DB
:101BE000892BC1F07720B1F009831A830E94EF1F7F
:101BF0009C838B836D8221E0C7018C219D21892BE1
:101C000009F420E049815A816B817C818D81922F7A
:101C10000E9481040F5FCC0CDD1C0930F1F6F40149
:101C20003297F182E0821F5F1C3039F648DF9ECF89
:101C3000E816F90609F0B8CF98CF1F93CF93DF933A
:101C400020D1EC01C11580E5D807F0F5C11580E47D
:101C5000D80708F09AC0C03ED10520F5CD3CD1058B
:101C600008F082C0C83AD10578F4C53AD10508F029
:101C700073C0C130D10519F1209709F1C430D105E5
:101C8000F0F4D0E0C0E01BC0C33CD105D0F7C85A87
:101C9000D0E0CC0FDD1FC659DE4F0990D881C02D92
:101CA000D4640DC0C11580E2D80708F0CDC0C115BD
:101CB00081E0D80708F05AC0C83ED10510F7CE0120
:101CC000DF91CF911F910895C03682E5D80718F5AE
:101CD000C03482E5D80708F068C0C03282E5D80772
:101CE00008F05CC0C11582E5D80708F493C02C2F1A
:101CF0002695269580E2289F900111248C2F8370D1
:101D0000C1E0D0E002C0CC0FDD1F8A95E2F7C22B04
:101D1000D32BDD68D4CFC03A82E5D80760F4C03851
:101D200082E5D80708F456C0CF71D0E0DC2FCC276D
:101D3000C46FD06AC4CFC03C82E5D80708F45FC046
:101D4000C03E82E5D80708F09CCFDC2FCC27CC27FB
:101D5000DF71C06FD06AB3CFC55AD0E0C056DE4F36
:101D6000C881D0E0D064ABCFD065A9CF8D2F2BD167
:101D7000182FCE01992785D0C12FD0E0DC2FCC279A
:101D8000CC27DF71C82BD92B9ACFCE01992779D0D8
:101D9000CC27DF70C82BD92BD06A91CFCF71D0E080
:101DA000DC2FCC27C16FD06A8ACF2C2F26952695A1
:101DB000277080E2289F900111248C2F8370C1E04E
:101DC000D0E002C0CC0FDD1F8A95E2F7C22BD32BE7
:101DD000DC6875CF2C2F26952695277080E2289FEA
:101DE000900111248C2F8370C1E0D0E002C0CC0F91
:101DF000DD1F8A95E2F7C22BD32BDA6860CF8C2FD8
:101E00008F71E1D0C82FD0E0DC2FCC27CC27DF7139
:101E1000D06255CF8C2F8F71D6D055E0D695C7950F
:101E20005A95E1F7CF70D0E0DC2FCC27282F30E097
:101E300084FF06C044E0220F331F4A95E1F73327A1
:101E4000C22BD32BD0693BCF8D2F8F71BCD0182FD5
:101E5000CE01992716D0C12FD0E0DC2FCC27CC277C
:101E6000DF71C82BD92BD4CF462F7C3028F46930B2
:101E700018F4672F0C944E0390E080E00895F4DF8F
:101E8000DCCE82389105B9F1B0F48133910509F4C3
:101E90007DC048F48932910509F46DC08A329105FC
:101EA00009F47BC008958533910509F45FC0893337
:101EB000910509F10895833E9105D9F138F4803EEA
:101EC000910529F1823E910579F10895863E9105AB
:101ED000D9F1873E910509F43EC0843E910541F554
:101EE0002091900321FF24C080918F0384FD19C0AD
:101EF00087EE90E0089520918F03237009F05AC077
:101F00002091900323FF14C089E290E0089520916E
:101F10008F0320FD38C03091900330FF09C024FFAB
:101F200043C090E080E0089520918F0322FDF7CF19
:101F3000089520918F0322FD3AC03091900330FD27
:101F400039C024FFF5CFEDCF20918F0323FFF0CFD1
:101F500024FDE7CFCDCF20918F0323FD2EC03091FC
:101F6000900331FFEECF84EE90E0089520918F032F
:101F700025FFDECFC9CF20918F0325FD21C0209101
:101F8000900323FFD5CF89E390E0D2CF20918F0338
:101F900026FFCECF8AE290E0089520918F0326FF9E
:101FA000C7CF81E390E0089583EE90E0089582EE3C
:101FB00090E0089580EE90E0089586EE90E0089518
:101FC00085E390E0089590918F0392FF10C041E067
:101FD000282F2471243009F040E031E0282F2871A7
:101FE000283009F030E0431711F02CE0822793FFEE
:101FF00010C041E0282F2471243109F040E031E085
:10200000282F2871283109F030E0431711F02CE017
:1020100082273091900330FF10C051E0282F2171AA
:10202000213009F050E041E0282F2871283009F0D4
:1020300040E0541711F029E0822731FF10C041E041
:10204000282F2171213109F040E031E0282F28713B
:10205000283109F030E0431711F029E0822794FD80
:10206000877E089580E00895CF939C01205E3245DD
:10207000C1E02032310538F4FB01C581C11103C034
:102080008F710E940A048C2FCF9108959C01FB014F
:102090008581882391F02B35FCE73F0761F02C35D3
:1020A0009CE7390729F02A353C4741F4A0DC01C000
:1020B00096DC80E008959DDCFCCF81E008959C01D2
:1020C000FB018581882399F02130FCE73F0761F00F
:1020D00023309CE7390739F021153C4749F40E9429
:1020E000320480E00895B3DC0E943604FACF81E028
:1020F0000895089590E080E00E94172821E0833E33
:102100009E4F09F020E0822F089563EE7EEF90E06D
:1021100080E00C9436286FEF7FEF90E080E00C9425
:102120003628CF93DF93EC0182E090E00E940A28EA
:102130008883DF91CF910895FC01608182E090E077
:102140000C941C2883E090E00E940A2890E00895F7
:10215000682F83E090E00C941C28CF93DF93EC0170
:1021600084E090E00E94172899838883DF91CF91C3
:102170000895FC016081718184E090E00C94362820
:102180004F925F926F927F928F929F92AF92BF9287
:102190000F93CF93DF93EC0188E090E00E94122828
:1021A0002B013C01688359828A837B821C821D82B9
:1021B0001E821F8283E290E00E940A28282F30E0CE
:1021C00040E050E060E070E080E090E000E20E94DB
:1021D00065272429352946295729288339834A83A5
:1021E0005B836C837D838E839F83DF91CF910F917F
:1021F000BF90AF909F908F907F906F905F904F9027
:1022000008950F93CF93DF93EC01488159816A8140
:102210007B8188E090E00E942E28288139814A81C4
:102220005B816C817D818E819F8100E20E9480278D
:10223000622F83E290E00E941C28DF91CF910F91E2
:102240000895AB01BC018FE090E00C942E28AB0107
:10225000BC0183E190E00C942E28682F8EE090E082
:102260000C941C280895FECF08950895FECF08957C
:10227000E82FF0E0EE0FFF1FE755FC4F80819181C2
:102280000895089580EA8A95F1F7089500C00895A9
:10229000F9CF0895F894E82FE295EF70F0E031A1BE
:1022A000282F2F7081E090E001C0880F2A95EAF76F
:1022B000982F9095932391A392A1892B82A3789430
:1022C00008950F931F93CF93DF93CCEAD1E08991C8
:1022D0008F3F09F0DFDF81E0C83BD807C1F7C3EAD1
:1022E000D1E00CEA11E089918F3F09F0D3DF0C17A0
:1022F0001D07C9F7DF91CF911F910F910895AF92FC
:10230000BF92DF92EF92FF920F931F93CF93DF93D1
:102310008C01D62EC62FD0E0CE0184559E4F7C0175
:10232000FC0120812F3F09F449C0F894E22FE29587
:10233000EF70F0E031A12F7081E090E001C0880FD4
:102340002A95EAF7932F982B91A392A18095892340
:1023500082A378949BDFE3EAF1E041E050E0B12C06
:10236000A12C21912F3FA1F1A22FA295AF70B0E037
:1023700090968C9190E02F7002C0959587952A9544
:10238000E2F780FD25C0CA01A82AB92A440F551FCB
:1023900081E0EC3AF80729F7F70180818F3F09F0D7
:1023A00079DF61E0A114B10409F460E08D2D70DFE4
:1023B000CC0FDD1FC00FD11FB982A882DF91CF9152
:1023C0001F910F91FF90EF90DF90BF90AF90089515
:1023D00090E080E0D9CF75DF88E1E9EAF3E0DF0142
:1023E000982F1D929A95E9F7E1E9F3E0DF011D923C
:1023F0008A95E9F738D037CFA8E1B0E0E2E0F2E122
:102400000C943B278E010F5F1F4F88E1F80111925A
:102410008A95E9F7F12C6F2DC80171DFF394FCE088
:10242000FF12F9CF48E150E0B80181E993E00E9442
:10243000FD2741E0009709F440E0892B41F088E155
:10244000F801A1E9B3E001900D928A95E1F769EAFC
:1024500073E081E993E008D0182F08DF812F689698
:10246000E5E00C9457270895EF92FF920F931F9386
:10247000CF93DF937C018B01C42F442379F081E05B
:102480008093EB020E94EF1F9093EA028093E9028F
:1024900080E0CDB7DEB7E6E00C945627D091EB0292
:1024A000DD23B1F38091E9029091EA020E94801F3E
:1024B000059770F348E150E0B701C8010E94FD277D
:1024C000892B41F088E1F701D80101900D928A959E
:1024D000E1F7CD2F1092EB028C2FDBCF3DCB08958F
:1024E0000E94891F0E9482210ADB0E949A212BDB15
:1024F0000E94A3210E94A621F1DF0E94BC210DDBD6
:10250000F9CF9093ED018093EC0108950F931F9301
:10251000CF938C01FB01C581CC2309F43BC06AD960
:102520008272F801E052F847EB30F10530F4EC58D4
:10253000F74D0C94FD267BD5C0E08C2FCF911F91D9
:102540000F910895882321F066D5F6CF8823E1F313
:1025500056D5F2CF882321F034D2EECF8823E1F391
:1025600025D2EACF882321F046D2E6CF8823E1F3B3
:1025700035D2E2CF882321F058D2DECF8823E1F391
:1025800047D2DACF882321F0FDD0D6CF8823E1F3DC
:10259000EAD0D2CFC1E0D1CFEF92FF920F931F9339
:1025A000CF93DF939B01682F31110EC0442329F094
:1025B000E82FF0E0EA58FC4F6491762F862FCDB7D4
:1025C000DEB7E6E00C945627C32FD0E0E82FF0E00A
:1025D000442321F0EA58FC4FE491F0E046E0249FC8
:1025E000C00111240FEF10E0B8010E94B426AB0126
:1025F000822F90E0880F991F25E5249FB001259F29
:10260000700D1124861B970B982F990F980FB80106
:102610006C1B7D0B6E9FD0016F9FB00D7E9FB00D28
:1026200011248B2F939F90011124232F3327B8015E
:10263000621B730B6E9F90016F9F300D7E9F300D5C
:1026400011247801E91AF108EC9EB001ED9E700D9D
:10265000FC9E700D1124672F7727061B170B0E9F0A
:10266000E0010F9FD00D1E9FD00D11247D2F9E2FB6
:102670004230510599F048F44115510569F0413057
:10268000510581F07B2F832F07C04430510569F03D
:1026900080F046305105B1F7692F91CF9B2F8D2FD8
:1026A0007E2FFACF7E2F932FF7CF9D2F7B2F8E2F4C
:1026B000F3CF732F9B2FFBCF41E06ECF0895FCCF5C
:1026C000089590910B01291B922FE091E501F09163
:1026D000E601242F462F682F892F90E00995089551
:1026E000CF93DF93762FE901682F842FE8DF962FB1
:1026F000672F9E01482F892FE4DFDF91CF91089546
:10270000493C08F048ECECCF8091C103982F9C7FA6
:1027100061F4837084608093C1038091C403893C19
:1027200018F088EC8093C40308958C3AB0F383705A
:10273000886AF1CFE1ECF3E085E0808311828FEFCE
:10274000828388EC83831482CF0191C99091C50361
:10275000933018F49F5F9093C503882319F081ECA0
:1027600093E085C9089581E0F1CF9091C503992345
:1027700019F091509093C503882319F081EC93E0F0
:1027800076C9089581E0F1CF0F931F93CF93809185
:10279000C10380FF09C0E091E901F091EA010995C8
:1027A000CF911F910F910895C0910D010091E50106
:1027B0001091E60180910E01C81768F780910B0116
:1027C0009C2F981B892F20E040E060E090E0F8010A
:1027D0000995CF5FEFCFEF92FF920F931F93CF93A7
:1027E000DF93D82F162F042F8091C10380FF0BC0D9
:1027F000C0910D01E090E501F090E60180910E019D
:10280000C81730F0C1DFCDB7DEB7E6E00C9456272D
:1028100080910B019C2F981B892F202F412F6D2F0A
:1028200090E0F7010995CF5FE9CF762F9091C10332
:1028300090FF0BC0493C08F048EC682F842F3FDF25
:10284000962F672F482F892FC6CF0895CF93DF93F8
:10285000EC01EC81F0E0EF58FD4F4491E1ECF3E046
:1028600062818181E2DF8C818F5F8C83DF91CF91E8
:102870000895CF93DF93EC01E1ECF3E043816281B3
:102880008C81D3DF8C818F5F8C83DF91CF91089512
:10289000CF93DF93EC014091C4039C81892F817019
:1028A00090FD842F692F627091FD642F92FF40E0AC
:1028B00092DF8C8190E00196877099278C83DF915D
:1028C000CF910895B0E0A0E0E8E6F4E10C94392758
:1028D000182FF62ED42FE22E9091C10390FF24C022
:1028E000E92FE695E695AE2FB0E0A854BE4F8C9147
:1028F00080936D039C7F9430E1F4842F493C08F071
:1029000088EC612F7F2DDBDE962F672F482F892FD4
:1029100062DF1093C203F092C303D093C403EE208E
:1029200019F081EC93E0A3D8CDB7DEB7E7E00C94C3
:102930005527823019F4D091C403EBCF863019F4B7
:102940001091C203E6CF8930D9F3893111F7E951EB
:102950008E2F8170D82EE695F0E0EF58FC4FC49191
:1029600000E060910F01061710F00EDFD2CF0C9F30
:10297000C001112470E00E94B426812FD1100BC039
:10298000860F20910D01200F3327331F4D2F6F2D00
:10299000B7DE0F5FE6CF861BF4CFE1ECF3E0918169
:1029A000282F4381628188E0890F8CCF81E0F5CFA9
:1029B000E1ECF3E09181282F4381628188EF890F58
:1029C00081CF81E0F5CFE1ECF3E0628128E0620F96
:1029D00008F46FEF282F4381818174CF81E0F3CF1A
:1029E000E1ECF3E0628128E0621B08F460E0282F4C
:1029F0004381818167CF81E0F3CFE1ECF3E0438154
:102A000028E0420F08F44FEF282F628181815ACFCE
:102A100081E0F3CFE1ECF3E0438128E0421B08F4CE
:102A200040E0282F628181814DCF81E0F3CF20E00B
:102A300049CFEF92FF921F93CF93DF93EC0110E009
:102A4000EE24EA94F12C60910F01161768F09CDED9
:102A50009A818C8190FF1DC08F5F8C83DF91CF9115
:102A60001F91FF90EF90089520910D01210F3327C2
:102A7000331F70E0C7010E94C826962F8C814091B9
:102A8000C4036091C303199F800D112439DE1F5FB9
:102A9000DACF8150E2CFB0E0A0E0E1E5F5E10C94BF
:102AA0003627FC018281DFEF80FFD1E0C0E000919A
:102AB000E5011091E60128E1A22E80910F01C817CF
:102AC00090F062DE8091ED02D13009F04FC08111AB
:102AD00002C080910F0181508093ED02CDB7DEB727
:102AE000EAE00C94522780910D0190910B01891B13
:102AF0008C0F20E040E060E090E0F801099594E060
:102B0000E92EF12CB12CCC2ED12C8091ED028B0D25
:102B1000893134F16A2D0E94A726892F082E000CD6
:102B2000990BC816D906A9F420910D012C0D3D2D45
:102B3000311D8091C4038E9DA0018F9D500D1124E5
:102B400055954795559547956091C3038091C2036C
:102B5000D7DDBD0EF1E0EF1AF108B9F6CF5FADCFCA
:102B600087FFDCCF90910F01890FD8CF90E00196BD
:102B700060910F0170E00E94C826AECF0F931F93A3
:102B8000CF93C0910D010091E5011091E601809174
:102B90000E01C81748F1C0E00091E5011091E6016F
:102BA00060910F01C61768F1EFDD20910901809156
:102BB000EC02820F8093EC0290910A01920F9093A5
:102BC0000A01191654F4082E000C990B40910F01BC
:102BD0004150550B841795071CF02195209309014E
:102BE000CF911F910F91089580910B019C2F981BFD
:102BF000892F20E040E060E090E0F8010995CF5F88
:102C0000C6CFEC2FF0E070E0CF010E94C8262091E3
:102C10000D01820F2091EC02022E000C330BE21703
:102C2000F3079CF020910A01022E000C330B2E17A3
:102C30003F075CF0282F30E04091C4036091C3034C
:102C40008091C2035DDDCF5FABCF90910B01891BFB
:102C500020E040E060E090E0F8010995F4CFB0E0BA
:102C6000A0E0E5E3F6E10C943427EC014C81042F5D
:102C700010E09801D8010E9409279B01AC010E9435
:102C80001E274B015C01E0E2F0E0E01BF10BA5E543
:102C9000B0E0AC019B010E941E276B017C019F01EB
:102CA000DF010E9403279B01AC010E9428279B01A2
:102CB000AC01280D391D4A1D5B1DC701B6010E94DC
:102CC000DB26F22E822F90E039E23F1518F143E027
:102CD000249F9001112435952795122F109500E01F
:102CE00085E5E82EEF1880910F01081718F14CDDEB
:102CF0009C8181E0992319F0903219F48FEF809331
:102D0000080180910801890F8C83CDB7DEB7ECE014
:102D10000C94502725E530E0A901481B590BCA0146
:102D20009A01220F331F280F391F37FFD4CF2F5F8F
:102D30003F4FD1CF8E2D01FD8F2D20910D01200F02
:102D40003327331F412F6091C303DADC0F5FCBCFF2
:102D50000F931F93CF93DF938C01D0E0C0E090914D
:102D60000F019C171D0609F06CF40EDDF80184813B
:102D700090E00196817099278483DF91CF911F9114
:102D80000F910895F801448120910D012C0F3D2FE2
:102D9000311D6091C3038091C20396959C171D0657
:102DA00041F03CF0442339F04091C403A9DC219662
:102DB000D6CF4423C9F340E0F9CFB0E0A0E0E3EE82
:102DC000F6E10C943027FC016280448081E084832A
:102DD000E1E7F2E07490E0EFF2E0E491C091C40327
:102DE000C695C158D0E0CC0FDD1FCD2FDD27812C3B
:102DF00025E0922EAA24AA94B12C55245A94E719BE
:102E0000EE2EF12C80910F01881630F0BDDCCDB78D
:102E1000DEB7E0E10C944C27C82CD12C82E086155B
:102E200068F09C9CF0019D9CF00D1124E251FD4F37
:102E30008091C20380838091C303818341101BC0B2
:102E40009C9CF0019D9CF00D1124E251FD4F1382DA
:102E5000128220910D012C0D3D2D311D9C9CF00105
:102E60009D9CF00D1124E251FD4F428161818081D2
:102E700047DC8394C7CF9C9C80019D9C100D11243E
:102E800002511D4FF80183818823F1F08150838323
:102E9000859DC0011124648170E00E94B426FB016D
:102EA000FF27EF58FD4F8491E82FE719E59DC001FA
:102EB0001124B7010E94B4268091C403689FB00119
:102EC0001124F8017283C5CF0E94E227B5010E9448
:102ED000C8268C179D070CF0BCCFF2E0F61598F4CD
:102EE0000E94E227B5010E94C826F80180830E9453
:102EF000E2272091C3032695622F70E00E94C82626
:102F0000280FF80121839C9CF0019D9CF00D112459
:102F1000E251FD4F12828091C403893C58F088EC45
:102F20009C9CF0019D9CF00D1124E251FD4F848387
:102F300083838FCF8431A0F784E1F2CFE1ECF3E01B
:102F400080818E7F8083CF010E94370D10926E03A7
:102F50001BCC6091C1036695669570E04BE050E034
:102F600080E191E00E94F027892B19F481E08093A1
:102F70006E030E94EF1F909367038093660308958A
:102F80009091C10390FF25C09370811123C094607C
:102F90009093C103662321F081EC93E00E94370DEA
:102FA0006091C1036695669570E04BE050E080E16A
:102FB00091E00E94F027892BA9F010926E0381E026
:102FC000809369034091C4036091C3038091C2035D
:102FD0002ECD08958B3210F0986ADACF880F880FC3
:102FE000982BD6CFB6DFEBCF682F9091C103969583
:102FF000969581E0890F8B3208F081E0C1CF81E0A6
:10300000F3CF682F9091C103969596958FEF890F16
:1030100009F48AE2B5CF81E0F4CF61E0B1CFE1EC11
:10302000F3E080818160808386958695F6CF8091DC
:10303000C10380FF01C082CFF2CF60E0A1CF8091B9
:103040006C0381111FC081EC93E00E94350D8091CB
:10305000C1038C7F29F46EDB81EC93E00E94350D77
:1030600053DB10926E03E091E301F091E4010995C6
:103070008091C10380FF03C086958695DEDF81E0E5
:1030800080936C0308950F931F93CF93DF938091E8
:103090006E038823B1F180916D03E091C103E69541
:1030A000E695E81BE0936803823081F5F0E0E35990
:1030B000FD4FE491CE2FD0E006E214E18091690348
:1030C000882359F0109269038AD7909367038093FD
:1030D000660310926B0310926A0381D7E091660336
:1030E000F09167038E1B9F0B8F3F9F4750F4EC0FAF
:1030F000FD1FF0936703E093660386E693E0F80113
:103100000995DF91CF911F910F910895863049F471
:10311000F0E0E659FD4FE491CE2FD0E009E314E151
:10312000CDCF893051F4E695F0E0E959FD4FE491B7
:10313000CE2FD0E009E115E1C1CF8F3051F4E695F3
:10314000F0E0EC59FD4FE491CE2FD0E00BE415E117
:10315000B5CF853149F4F0E0EF59FD4FE491CE2F22
:10316000D0E00EEB15E1AACFC8E2D0E00FE216E105
:10317000883109F4A3CF833239F4EFE5F2E0C59149
:10318000D49108E414E19ACFC4EFD1E008EA16E143
:10319000843209F493CFC0EDD7E00EE513E1853218
:1031A00009F08CCF8E2F63E00E949B26E92FF0E080
:1031B000E45AFD4FE491CE2FD0E00DED16E17ECF25
:1031C000089561CF0895549A0895FC01EE0FFF1FF2
:1031D000E80FF91FE753FC4F618340832283089572
:1031E000E9ECF3E0818360834283339694E0E1313C
:1031F000F907C1F708953BB13F7E2BB120614FB76E
:10320000F89489EC93E0FC015191CF0168E02BB96F
:10321000000000C057FF3BB9550F000000C000C0C0
:1032200000C03BB900C06A9591F7F4E081319F0777
:1032300051F74FBF8FE594E00197F1F700C0000010
:1032400008950C94270D089580E012D88170089598
:10325000D3D82FEF86E791E0215080409040E1F7EE
:1032600000C00000C9D8F0DF882311F0EADFF3C600
:103270000895EECF0895CF93DF93EB0186319C47FD
:1032800001F50E94FA0B9D81992391F08A7A91E0D1
:1032900009F490E090936F03811108C089E244D54E
:1032A0000E94A50C80E0DF91CF91089585E3F7CFD0
:1032B00080916F03811103C089E24DD5F1CF85E381
:1032C000FCCF81E0F0CFCF93DF93EC01FB01858150
:1032D000882309F4CEC09E0130572332310508F00F
:1032E000AEC08FE893E00E94310DFE01E150F0473F
:1032F000E232F10520F4E158F74D0C94FD2680915F
:103300008F03816080938F0393C0809190038860C6
:10331000809390038DC080918F038260F3CF809162
:103320008F038460EFCF80918F038860EBCF809113
:1033300090038160EDCF809190038260E9CF80910E
:103340008F038061DFCF80918F038062DBCF80911C
:103350008F038064D7CF0E94C80780918F03806855
:10336000D1CF80918F038C60CDCF8091900383600B
:10337000CFCF80918F038E7FC5CF80919003877FC1
:10338000C7CF80918F038D7FBDCF80918F038B7FBF
:10339000B9CF80918F03877FB5CF809190038E7FC7
:1033A000B7CF809190038D7FB3CF80918F038F7EB5
:1033B000A9CF80918F038F7DA5CF80918F038F7BC5
:1033C000A1CF0E94C80780918F038F779BCF8091F8
:1033D0008F03837F97CF809190038C7F99CF8091CB
:1033E0008F0382FB992790F921E0922790FB82F9C5
:1033F00090FB83F987CF80919003982F90959170DF
:103400008E7F892B90FB81F983CF90918F03892F39
:103410008F7B96FF806476CF0E94C80790918F03C0
:10342000892F97FB87F980586DCF81E00E94390D75
:103430008FE893E00E94330D0E94C80780E0DF917F
:10344000CF91089580E0F2CF90918F03892F8F7EE6
:1034500094FF806157CF90918F03892F8E7F90FFCB
:10346000816050CF90919003892F877F93FF886070
:103470004FCF81E0E4CF282F35EB2303C001112487
:1034800097FF04C080589109892F089580589F4F55
:10349000FBCF8091760380FF0DC06091200170E02A
:1034A000660F771F6038710570F56115710569F158
:1034B000862F089581FF07C06091200184E0689FF6
:1034C000B0011124EFCF6091200182FD0AC08091EC
:1034D00075038823A9F020911F01609120018217B4
:1034E00010F088E0ECCF869FC001112433E0880FF4
:1034F000991F3A95E1F7622F70E00E94C826D2CF5B
:1035000068E070E0D5CF8FE7089581E0089580915D
:10351000760380FF0CC060911C0170E07595679583
:10352000759567956115710549F1862F089581FF9D
:1035300006C060911C0170E075956795F3CF6091AE
:103540001C0182FD0BC0909174039923A1F060913E
:103550001B0180911C01961738F0682F70E06038CD
:10356000710500F38FE70895899FC001112470E071
:103570000E94C826F4CF61E070E0D7CF81E00895C3
:103580008D3C29F486DF819580937A0308958E3CE3
:1035900011F47FDFF9CF8F3C29F47BDF8195809395
:1035A00079030895803D11F474DFF9CF893D21F44A
:1035B000AEDF80937B0308958A3D19F4A8DF8195DF
:1035C000F8CF8B3D29F4A3DF819580937C03089588
:1035D0008C3D11F49CDFF9CF9FE2980F983070F486
:1035E000815D990B21E030E001C0220F8A95EAF756
:1035F00080917803822B8093780308958D3D31F478
:103600008091760381608093760308958E3D21F446
:10361000809176038260F7CF8F3DB9F78091760372
:103620008460F1CF409179038D3C59F480917A0305
:1036300087FF0DC010927A0341110BC010927503E1
:1036400008C08E3C81F480917A0318169CF34423C1
:1036500081F080917B0390917C03892B09F05AC003
:103660001092740308958F3C49F447FFF0CF1092F5
:10367000790380917A038111ECCFE0CF803D19F47A
:103680001416ACF3E4CF90917B03893D29F419160D
:10369000F4F610927B03DBCF8A3D19F497FFD7CF66
:1036A000F8CF90917C038B3D29F497FFD0CF1092F7
:1036B0007C03CDCF8C3D19F41916CCF3C8CF9FE213
:1036C000980F983090F4815D990B21E030E0B901BA
:1036D00002C0660F771F8A95E2F7CB018095909123
:1036E0007803892380937803B2CF8D3D31F48091A4
:1036F00076038E7F80937603AACF8E3D21F480914E
:1037000076038D7FF7CF8F3D09F0A1CF80917603AF
:103710008B7FF0CF089563D49C01909179038091C1
:103720007A03982B21F030937303209372039091C6
:103730007B0380917C03982B21F0309371032093BD
:10374000700387E793E0E4C186E0E7E7F3E0DF0199
:103750001D928A95E9F710927503109274031092E6
:1037600076030895FC01828181110EC0838181114D
:103770000BC08481811108C091E08581811101C055
:1037800090E0892F8170089581E0FCCFA6E0B0E041
:10379000ECECFBE10C943D2786E0E7E7F3E0DE018B
:1037A000119601900D928A95E1F71092790310928B
:1037B0007A0310927B0310927C038B819C81892B6E
:1037C00081F080917203909173039AD3AC01909130
:1037D00075039923A9F1809121018417150608F436
:1037E0003CC08D819E81892B89F0809170039091DE
:1037F000710386D3AC0190917403992309F463C0DB
:1038000080911D018417150608F46BC0BE016F5F1F
:103810007F4F87E793E0CFD2811104C087E793E021
:10382000A1DF811178DF86E0FE013196A7E7B3E0E2
:1038300001900D928A95E1F72696E3E00C945927C2
:10384000209122018AE0289F900111242417350736
:1038500040F69F5F9093750302C09F3FD1F71B8195
:10386000112351F016DE9FEF11160CF491E0899FA1
:10387000802D1124809379031C81112351F009DEDE
:103880009FEF11160CF491E0899F802D11248093F5
:103890007A0380917903882309F4A3CF10917A03E6
:1038A000112309F49ECFE7DD882349F08093790343
:1038B000812FE1DD882329F080937A0392CF81E084
:1038C000F5CF81E0F9CF20911E018AE0289F900179
:1038D00011242417350708F099CF9F5F9093740344
:1038E00002C09F3FD1F71D81112351F010DE9FEFE1
:1038F00011160CF491E0899F802D112480937B0395
:103900001E81112351F003DE9FEF11160CF491E09C
:10391000899F802D112480937C0380917B038823D1
:1039200009F474CF10917C03112309F46FCFA3DD48
:10393000882349F080937B03812F9DDD882329F024
:1039400080937C0363CF81E0F5CF81E0F9CF0F93C3
:103950001F93CF93DF93C42FD22FFC01858188233F
:10396000C1F040937F033BD390937E0380937D030C
:1039700080E28C0F883040F4C77081E001C0880F6E
:10398000CA95EAF70E94B405DF91CF911F910F917C
:10399000089510917F03141331C080917D0390919D
:1039A0007E03AED2883C910548F5C0E2CD0F1D17CD
:1039B000B9F080E2810F883040F4177081E001C0D7
:1039C000880F1A95EAF70E94B905C83048F481E0DB
:1039D0009D2F977001C0880F9A95EAF70E94B40551
:1039E000802F0E94AD05C83078F6D77081E001C005
:1039F000880FDA95EAF70E94B905C6CF80E28C0FEE
:103A0000883010F6C77081E001C0880FCA95EAF7C8
:103A1000F2CF0F93DB0188519C478730910598F5D1
:103A2000FC01EF55F74D0C94FD2606E221EE41EE28
:103A30006AE17CE7CD018BDF80E00F91089507E21A
:103A400025EE45EE6BE17CE7F5CF06E221EE40EE98
:103A500068E17CE7EFCF07E225EE44EE69E17CE721
:103A6000E9CF06E221EE42EE6CE17CE7E3CF07E22C
:103A700025EE46EE6DE17CE7DDCF08E221E045EE84
:103A80006EE17CE7D7CF15968C91882319F01092C0
:103A90007F03D3CF81E0D1CF9093850380938403BC
:103AA0000895F4D191E0813009F090E0892F0895D4
:103AB000E0918403F0918503309739F00190F08113
:103AC000E02D309711F00995089580E00895F0CF2A
:103AD0000895E0918403F0918503309731F00280DE
:103AE000F381E02D309709F009950895E091840362
:103AF000F0918503309759F024813581232B39F0DB
:103B000026E0DC012C930480F581E02D09950895D1
:103B1000E0918403F0918503309759F02681378135
:103B2000232B39F022E0DC012C930680F781E02D75
:103B300009950895A3E0B0E0E0EAFDE10C943E278A
:103B4000209182033091830328173907B1F09093B5
:103B5000830380938203E0918403F091850330977F
:103B600061F00084F185E02D309739F023E029835E
:103B70009B838A83CE01019609952396E2E00C94FB
:103B80005A27A3E0B0E0E7ECFDE10C943E2720913A
:103B900080033091810328173907B1F09093810396
:103BA00080938003E0918403F0918503309761F066
:103BB0000084F185E02D309739F024E029839B8340
:103BC0008A83CE01019609952396E2E00C945A2748
:103BD000CF93DF93C0910601D0910701229661DF58
:103BE000882381F080918F0387FF0CC0C09104016E
:103BF000D091050122969EE180E0915028F4DF915A
:103C0000CF91089596E0F8CF29912223B1F38F5FE9
:103C1000F4CFCF93C82F811102C080E023C041DFD1
:103C2000882311F180918F0387FF1EC0EC2FE6954A
:103C3000E695E695EE3188F78091040190910501B3
:103C4000E80FF92FF11D228130E0C77081E090E08C
:103C500002C0880F991FCA95E2F72823392381E013
:103C6000232BD9F2CF9108958091060190910701FD
:103C7000FC013296089621912C1721F0E817F907DC
:103C8000D1F7CBCF81E0EECF9C01FC0132969FEFC4
:103C900080E04191461751F09F3F19F4411101C056
:103CA000982F8F5F8630A9F79F3F09F40895290F59
:103CB000311D97FD3A95F90162830895FC01329612
:103CC00008962191261303C0DF0111971C92E81773
:103CD000F907B9F70895E62FE695E695E695EE31F2
:103CE00068F4E80FF92FF11D677021E030E001C0A2
:103CF000220F6A95EAF78281822B82830895E62F4C
:103D0000E695E695E695EE3170F4E80FF92FF11D92
:103D1000677021E030E001C0220F6A95EAF7209534
:103D20008281282322830895CF93C82FBADE6C2F77
:103D3000882359F080918F0387FF07C08091040189
:103D400090910501C8DFCF9108958091060190916F
:103D500007019ADFF8CFCF93C82FA3DE6C2F8823FB
:103D600059F080918F0387FF07C0809104019091E3
:103D70000501C5DFCF91089580910601909107015B
:103D80009DDFF8CF8EDE882379F080918F0387FF47
:103D90000BC0E0910401F091050132968EE1DF0144
:103DA0001D928A95E9F70895E0910601F0910701C7
:103DB000329686E0F4CFDC01FB0111969C911197BD
:103DC0008181981322C012968C911297882319F042
:103DD000928189131AC013968C911397882319F036
:103DE0009381891312C015968C911597882319F029
:103DF000958189130AC014969C91992321F081E042
:103E00002481291303C080E001C081E081700895FE
:103E10000895FECF089581110CC081E080932601A2
:103E200060912301709124018091250190912601D8
:103E3000F0CF82E0F3CF83E08093260160912301ED
:103E4000709124018091250190912601E2CFE3CF6A
:103E5000089581E0809326016091230170912401EF
:103E60008091250190912601D4CFF3CF089591E060
:103E7000811101C090E09093250160912301709120
:103E800024018091250190912601C3CF80912501C5
:103E90000895809324016091230170912401809101
:103EA000250190912601B5CF80912401089580933A
:103EB000230160912301709124018091250190914B
:103EC0002601A7CF80912301089508950895FECF7C
:103ED000089508950895F9CF0895CF93FADF0E94C9
:103EE000FC11F8DFC0E08C2F0E943811892B31F4CF
:103EF000CF5FCC30C1F780E0CF91089581E0FCCF57
:103F0000CF93DF93EC016BD08C1B9D0BDF91CF9196
:103F1000089585B7806885BF85B7806885BF089597
:103F20001F921FB61F9211248F939F93AF93BF933D
:103F300080918603811113C0809111049091120425
:103F4000A0911304B09114044196A11DB11D80935A
:103F5000110490931204A0931304B0931404BF911E
:103F6000AF919F918F911F901FBE1F9018958091C8
:103F70001904843031F10E943A041092860388E1DA
:103F800090E020E40FB6F894A895809360000FBEEF
:103F90002093600083B7817F846083BF83B7816093
:103FA00083BF7894889583B78E7F83BF0FB6F894CC
:103FB000A8958091600088618093600010926000F5
:103FC0000FBE08950E94C8070C943E0482E084BD91
:103FD00093E095BD9AEF97BD80936E0008952FB73B
:103FE000F8948091110490911204A0911304B0915F
:103FF00014042FBF08952FB7F894609111047091A5
:10400000120480911304909114042FBF08957894A2
:104010001F921FB61F9211248F939F93AF93BF934C
:104020008091110490911204A0911304B091140492
:104030000196A11DB11D8093110490931204A093C9
:104040001304B0931404BF91AF919F918F911F906F
:104050001FBE1F90189581E08093E00080E280935E
:10406000D8001092C9008FE19EE40197F1F700C0DB
:10407000000087E090EBDC018093220490932304FE
:10408000A0932404B093250488E19CE00FB6F89433
:10409000A895809360000FBE90936000FFCF88E1E9
:1040A0009CE00FB6F894A895809360000FBE9093A3
:1040B0006000FFCF9B01BA01909119049430E1F4A4
:1040C0008F708093E9009FEF8091E800915085FD0B
:1040D00006C085ED8A95F1F700009111F5CF80912A
:1040E000E80085FF09C050E040E0C901BAD18091E5
:1040F000E8008E778093E800089543E050E0BC012B
:1041000082E0D8CF46E050E0BC0182E0D3CF40E26D
:1041100050E0BC0182E0CECFCF93DF93EC01B6DE5E
:1041200048E050E0BE0181E0C5DF88E0FE01A7E87D
:10413000B3E001900D928A95E1F7DF91CF91089558
:1041400080911804811107C01AD371D38091E200C5
:1041500084608093E200089510921804089579DE37
:1041600081E085CE6091150481E0611101C080E09D
:1041700062CE9091190481E0943009F080E0609162
:10418000150465CE42E061EC81E075D242E261EC5B
:1041900082E071D29091190481E0943009F080E0BE
:1041A0006091150438CE80911B04833009F45EC001
:1041B00030F48130C1F1823009F494C008958A301E
:1041C00009F483C08B3009F46BC0893009F04DC00D
:1041D00080911A04813209F048C080911E049091A8
:1041E0001F04029708F041C08091E800877F809308
:1041F000E8008091E80082FF34C09091F300809144
:10420000F200029731F48091F100813011F0863094
:1042100019F48091F1003DDE8091E8008B77809366
:10422000E8005DD222C080911A04813AF1F48091B5
:10423000E800877F8093E80080911E0490911F041E
:10424000892B59F468E087E893E070E057D18091BA
:10425000E8008B778093E800089560E090E080E0CC
:10426000F4CF809119048111C4CF089580911A046C
:10427000813AD9F780911E0490911F04892BA9F7E8
:104280008091E800877F8093E8008091E80080FFBC
:10429000FCCFFCDD8093F1008091E8008E77BFCFEA
:1042A00080911A04813209F780911E0490911F04B5
:1042B000892BD9F68091E800877F8093E8000FD2A0
:1042C00080911C04D4DD0C94C80780911A048132BB
:1042D00061F68091E800877F8093E80000D28091AA
:1042E0001D04E5CD80911A04813A09F0BECF80917A
:1042F000E800877F8093E8008091E80080FFFCCF92
:10430000E1DDC8CF84B7877F84BF0FB6F894A89546
:1043100080916000886180936000109260000FBE01
:1043200080E890E00FB6F89480936100909361006C
:104330000FBE9BCD24D27BD2E2EEF0E08081846080
:1043400080837894DEC487E291E0A6CB8091190443
:10435000853029F480911904853011F033CE089509
:1043600006DEBBDD8823B1F380911704882391F327
:1043700062D00E94C807EECF08959A0140912004B0
:104380005091210400C0492F55274330510519F1A0
:1043900068F44130510509F444C04230510509F434
:1043A00045C090E080E050E040E025C0413251053A
:1043B00049F142325105A9F784E490E04DEA55E015
:1043C00061157105C1F086EB90E047EF54E0613074
:1043D000710589F0E6CF99278130910581F000972A
:1043E00029F00297F1F6E6E7F4E002C0E6EAF4E02D
:1043F000849190E0AF01F901518340830895E8E88A
:10440000F4E0F6CF89E090E04CEB54E061157105E3
:1044100091F389E090E045ED54E06130710559F386
:10442000C0CF82E190E045EE54E0E5CF8BE390E031
:104430004AEA54E0E0CF80E189BD82E189BD09B458
:1044400000FEFDCF8091D8008F7D8093D8008091B1
:10445000E00082608093E0008091E00081FDFCCF6D
:104460000895AF92BF92CF92DF92FF920F931F9366
:10447000CF93DF936C01EB018A0150D1F82E8111AB
:1044800023C00115110539F0F80180819181C81B05
:10449000D90BC80ED91EB12CA12C2097A9F0809160
:1044A000E80085FD21C08091E8008E778093E800C8
:1044B00001151105A1F0F80180819181A80EB91EA6
:1044C000B182A08285E0F82E8F2DDF91CF911F91D0
:1044D0000F91FF90DF90CF90BF90AF9008951ED1C5
:1044E0008823D9F2F82EF0CFF60181916F018093E5
:1044F000F1002197FFEFAF1ABF0ACFCFFC018091E7
:1045000020049091210486179707A0F0611571058A
:1045100029F49091E8009E779093E80090E061156F
:10452000710551F4911108C08091E80082FF34C0F8
:1045300080E00895BC01F2CF809119048823C1F175
:104540008530C1F18091E80083FD30C08091E800A2
:1045500082FDEACF8091E80080FFE1CF8091F300F7
:104560002091F200382F6115710519F028303105BE
:1045700058F091E02830310509F090E02091E800F2
:104580002E772093E800CBCF81918093F10061508A
:1045900071092F5F3F4FE7CF80911904882341F0C5
:1045A000853041F08091E80083FFBECF81E008951F
:1045B00082E0089583E00895FC01809120049091A9
:1045C000210486179707A0F06115710529F48091E1
:1045D000E8008E778093E80090E06115710551F452
:1045E000911108C08091E80082FF35C080E00895F5
:1045F000BC01F2CF809119048823C9F18530C9F13B
:104600008091E80083FD31C08091E80082FDEACF0F
:104610008091E80080FFE1CF8091F3002091F200CB
:10462000382F6115710519F02830310558F091E0E7
:104630002830310509F090E08091E8008E77809372
:10464000E800CBCF84918093F100319661507109DD
:104650002F5F3F4FE6CF80911904882341F08530CA
:1046600041F08091E80083FFBDCF81E0089582E0B2
:10467000089583E00895982F973028F08F708093E5
:10468000E90081E008959093E900242F762F50E00F
:10469000981731F07091EC002091ED005091F000EE
:1046A00021FD02C09F5FE8CF3091EB003E7F309349
:1046B000EB003091ED003D7F3093ED003091EB0049
:1046C00031603093EB007093EC002093ED00509339
:1046D000F0002091EE0027FDE5CF80E00895809165
:1046E0001A0487FF13C08091E80082FF06C0809102
:1046F000E8008B778093E80004C080911904811151
:10470000F2CF0895809119048823D9F38091E800AD
:1047100080FFF8CF8091E8008E77ECCF2091E40005
:104720003091E50095E6A9012091EC00822F81707F
:1047300020FF06C08091E80080FF06C080E0089559
:104740002091E80022FD1AC080911904882389F085
:10475000853089F08091EB0085FD0FC02091E40049
:104760003091E50042175307F9F29150E1F684E0E9
:10477000089582E0089583E0089581E0089567D068
:104780006ED0E0EEF0E0808181608083E8EDF0E0C3
:1047900080818F77808319BCA7EDB0E08C918E7FEC
:1047A0008C9380818F7E80831092180408950F93DC
:1047B0001F93CF93DF934BD052D0C8EDD0E08881C8
:1047C0008F77888388818068888388818F7D8883BC
:1047D00019BC10921904109215041092170410922B
:1047E000160400EE10E0F80180818B7F80838881C1
:1047F0008160888342E060E080E03DDFE1EEF0E050
:1048000080818E7F8083E2EEF0E080818160808312
:10481000808188608083F80180818E7F8083888199
:1048200080618883DF91CF911F910F910895E8ED0A
:10483000F0E080818F7E8083E7EDF0E08081816011
:10484000808384E082BF81E080931804B0CFE8EDDC
:10485000F0E080818E7F80831092E20008951092B4
:10486000DA001092E10008951F920F920FB60F9296
:1048700011242F933F934F935F936F937F938F9365
:104880009F93AF93BF93EF93FF938091E10082FFDB
:104890000AC08091E20082FF06C08091E1008B7F18
:1048A0008093E1002DD28091DA0080FF18C08091C2
:1048B000D80080FF14C08091DA008E7F8093DA00E8
:1048C0008091D90080FF91C080E189BD82E189BDDE
:1048D00009B400FEFDCF81E08093190431DC8091A2
:1048E000E10080FF18C08091E20080FF14C0809139
:1048F000E2008E7F8093E2008091E20080618093ED
:10490000E2008091D80080628093D80019BC85E0D5
:104910008093190427DC8091E10084FF2AC08091F4
:10492000E20084FF26C080E189BD82E189BD89B5AE
:10493000982F917080FFFBCF8091D8008F7D80935E
:10494000D8008091E1008F7E8093E1008091E200A9
:104950008F7E8093E2008091E20081608093E2008C
:1049600080911504882309F445C084E080931904DC
:1049700000DC8091E10083FF27C08091E20083FF8B
:1049800023C08091E100877F8093E10082E08093E3
:104990001904109215048091E1008E7F8093E1004C
:1049A0008091E2008E7F8093E2008091E20080613E
:1049B0008093E20042E060E080E05DDE8091F00004
:1049C00088608093F000CBDBFF91EF91BF91AF91B6
:1049D0009F918F917F916F915F914F913F912F9117
:1049E0000F900FBE0F901F90189519BC10921904CC
:1049F000B3DB75CF8091E30087FD93E090931904BA
:104A0000B7CF1F920F920FB60F9211242F933F939F
:104A10004F935F936F937F938F939F93AF93BF93C6
:104A2000CF93DF93EF93FF93D091E900DF708091F4
:104A3000EC00C82FC17080FDC0E81092E9008091A1
:104A4000F000877F8093F00078941ED01092E900E8
:104A50008091F00088608093F000CD2BCF70C093E0
:104A6000E900FF91EF91DF91CF91BF91AF919F91BD
:104A70008F917F916F915F914F913F912F910F9007
:104A80000FBE0F901F901895AAE2B0E0E9E4F5E29E
:104A9000F4C18AE194E02091F100FC012193CF015F
:104AA000F4E082329F07B9F77EDB8091E80083FF54
:104AB00016C180911A0490911B049A3008F00FC11E
:104AC000E92FF0E0E855F74D98C1803899F0823829
:104AD00009F005C180911E048F70873008F0FFC077
:104AE0008093E9008091EB0085FB882780F9109284
:104AF000E90006C08091160490911704911182601C
:104B00009091E800977F9093E8008093F1001092D5
:104B1000F1008091E8008E77DFC0882309F4CDC0D2
:104B2000823009F0DCC080911C048111D0C08091DA
:104B30001E048F702FEF280F263008F0D0C080930E
:104B4000E9002091EB0020FFC2C0933031F4809146
:104B5000EB0080628093EB00BAC09091EB00906113
:104B60009093EB0021E030E001C0220F8A95EAF734
:104B70002093EA001092EA008091EB008860EACF6F
:104B80008111ADC010911C041F778091E3008078E3
:104B9000812B8093E3008091E800877F8093E80079
:104BA0009EDD8091E80080FFFCCF8091E30080686B
:104BB0008093E30082E0111183E0809319048FC099
:104BC0008058823008F08BC080911C0490911D04A5
:104BD0008C3D23E0920799F583E08A838AE28983FA
:104BE0004FB7F894DE01139620E03EE051E2E32F48
:104BF000F0E050935700E49120FF03C0E295EF707E
:104C00003F5FEF708E2F90E0EA30B8F0C7968D933B
:104C10009D932F5F243159F74FBF8091E800877F24
:104C20008093E8006AE270E0CE01019667DC809133
:104C3000E8008B778093E80052C0C096E8CF60917F
:104C40001E0470911F04AE014F5F5F4F96DBBC01E5
:104C5000892B09F444C09091E800977F9093E80075
:104C600089819A81A9DCE3CF8038C9F58091E80079
:104C7000877F8093E800809115048093F10049CFED
:104C800081112DC090911C04923048F58091E8006C
:104C9000877F8093E8009093150421DD80911504AF
:104CA000882311F084E005C08091E30087FDFACFEE
:104CB00081E08093190466DA12C080911C0481306F
:104CC00071F481E0933009F080E080931704109232
:104CD000E9008091E800877F8093E80000DD809103
:104CE000E80083FF0AC08091E800877F8093E80096
:104CF0008091EB0080628093EB00AA96E3E0D9C03C
:104D00000895CF9380911904882399F0C091E90008
:104D1000CF709091EC00892F817090FD80E8C82BB6
:104D20001092E9008091E80083FDAEDECF70C09361
:104D3000E900CF910895991B79E004C0991F961757
:104D400008F0961B881F7A95C9F78095089587FB10
:104D5000082E062687FD819567FD6195ECDF0EF430
:104D6000919507FC81950895AA1BBB1B51E107C0D3
:104D7000AA1FBB1FA617B70710F0A61BB70B881FEB
:104D8000991F5A95A9F780959095BC01CD0108957A
:104D900097FB072E16F4009406D077FD08D0E4DFC9
:104DA00007FC05D03EF4909581959F4F089570952E
:104DB00061957F4F0895A1E21A2EAA1BBB1BFD012E
:104DC0000DC0AA1FBB1FEE1FFF1FA217B307E407EA
:104DD000F50720F0A21BB30BE40BF50B661F771F42
:104DE000881F991F1A9469F7609570958095909522
:104DF0009B01AC01BD01CF010895EE0FFF1F05908F
:104E0000F491E02D099405D0332312F48A1B9B0BF7
:104E100010C0A29FB001B39FC001A39F700D811D60
:104E20001124911DB29F700D811D1124911D0895B3
:104E3000F0DFB7FF0895821B930B0895EADFA59F6B
:104E4000900DB49F900DA49F800D911D1124089585
:104E5000B7FFF4CFF3DF821B930B08952F923F929D
:104E60004F925F926F927F928F929F92AF92BF927A
:104E7000CF92DF92EF92FF920F931F93CF93DF9326
:104E8000CDB7DEB7CA1BDB0B0FB6F894DEBF0FBE83
:104E9000CDBF09942A88398848885F846E847D84D0
:104EA0008C849B84AA84B984C884DF80EE80FD80D2
:104EB0000C811B81AA81B981CE0FD11D0FB6F89448
:104EC000DEBF0FBECDBFED010895002E083090F07B
:104ED000982F872F762F652F542F432F322F22277D
:104EE0000850F4CF220F331F441F551F661F771F32
:104EF000881F991F0A95B2F7002D089597FD109409
:104F0000002E083098F00850232F342F452F562FAD
:104F1000672F782F892F912DF4CF1594979587952A
:104F20007795679557954795379527950A95AAF7E9
:104F30001124002D08958F929F92AF92BF92CF922D
:104F4000DF92EF92FF92CF93DF93EC01688179813A
:104F50008A819B81611571058105910521F464E2C7
:104F600079ED8BE597E02DE133EF41E050E092D011
:104F700049015A019B01AC01A7EAB1E45FDF6B0173
:104F80007C01ACEEB4EFA501940164DFDC01CB0140
:104F90008C0D9D1DAE1DBF1DB7FF03C00197A1095C
:104FA000B04888839983AA83BB839F77DF91CF9191
:104FB000FF90EF90DF90CF90BF90AF909F908F9039
:104FC0000895B9CF80E091E0B6CFB0E0A0E0809343
:104FD000000190930101A0930201B0930301089591
:104FE000FC014150504030F001900616D1F7319746
:104FF000CF010895882799270895FB01DC0104C09B
:105000008D910190801921F441505040C8F7881BC0
:10501000990B0895F999FECF92BD81BDF89A992711
:1050200080B50895A6E1B0E044E050E025C0A8E1D5
:10503000B0E042E050E020C0262FF999FECF92BDAB
:1050400081BDF89A019700B4021639F01FBA20BD4D
:105050000FB6F894FA9AF99A0FBE08950396272F7F
:10506000ECDFEADF252FE9DF242FE7CF0196272F9A
:10507000E4DFE2CFDC01CB01FC01F999FECF06C0F1
:10508000F2BDE1BDF89A319600B40D924150504006
:10509000B8F70895052E97FB16F400940FD057FD2E
:1050A00005D089DE07FC02D046F408C05095409533
:1050B000309521953F4F4F4F5F4F089590958095C4
:1050C000709561957F4F8F4F9F4F0895F894FFCF54
:1050D000FC05FC05320632068B06A70624062406CC
:1050E000AB061407200720079B12A212A612AA12D1
:1050F000AE12B212B612BA12BE12C212C612B9194A
:105100002B1AC1198B198F19C5199319C919D519DA
:105110009F19241AA319D919A719DD19051AAB1952
:10512000E1190C1AB119E719EF199719CD199B1943
:10513000D119B519EB19FB19151A221A8519BD19C0
:10514000321A251D2B1D151D1F1D311D371D3D1D1F
:1051500065258D256F268D256F26C025E0256F26B8
:04516000342640268B
:10516400010000009C02BC02010102001800181892
:1051740001191A1B1C1D1E1F202122280850011E64
:105184000A140100000100541F8C20872082207D16
:1051940020E200E900EA00B500B600B700CD0083C4
:1051A40001CC008A019201940121022302240225E8
:1051B40002260227022A02B300B4006F0070009F87
:1051C40001CB019F02A002818283E200E900EA0090
:1051D400B500B600B700CD008301CC008A0192016E
:1051E40094012102230224022502260227022A0214
:1051F400B300B4006F0070009F01CB019F02A002B6
:10520400818283F0F1F4F5F6F767329591903037A7
:10521400C6333666969734930001020202020606EC
:10522400060909090909090F0F0F0F0F0F151515A5
:1052340018191919191919191919192324252525A2
:0C524400252525E318E518F018FB1800DC
:00000001FF
