:10000000BEC10000F4C10000F2C10000F0C1000058
:10001000EEC10000ECC10000EAC10000E8C1000030
:10002000E6C10000E4C100000C94F2270C94BF2844
:100030000C944E23DCC10000DAC10000D8C10000DE
:10004000D6C10000D4C10000D2C10000D0C1000060
:10005000CEC100000C94C523CAC10000C8C1000075
:10006000C6C10000C4C10000C2C10000C0C1000080
:10007000BEC10000BCC10000BAC10000B8C1000090
:10008000B6C10000B4C10000B2C10000B0C10000A0
:10009000AEC10000ACC10000AAC10000A8C10000B0
:1000A000A6C10000A4C10000A2C1000029002B00CD
:1000B00021522A0053005400550056005F00600092
:1000C000610000005C005D005E00570059005A00AE
:1000D0005B0000006200000063005800007C437871
:1000E000010001000100467845784A784A00520034
:1000F0004B00000050002E784F0049784D00510011
:100100004E000000490000004C004278000101014F
:1001100001010101010102020202020202020203C4
:100120000303030303030304040404040404050594
:100130000505050606060606070707070708080857
:1001400008090909090A0A0A0B0B0B0C0C0C0D0D06
:100150000D0E0E0E0F0F0F1010111111121213139E
:100160001414151516161717181819191A1A1B1B17
:100170001C1D1D1E1E1F2020212222232424252673
:1001800026272829292A2B2C2D2D2E2F30313232AB
:10019000333435363738393A3B3C3D3E3F404142B7
:1001A000434445464748494A4C4D4E4F505153549D
:1001B000555658595A5B5D5E5F6162646566686951
:1001C0006B6C6D6F7072737577787A7B7D7E8082D1
:1001D000838587888A8C8E8F91939596989A9C9E1A
:1001E000A0A2A3A5A7A9ABADAFB1B3B5B7BABCBE2A
:1001F000C0C2C4C6C9CBCDCFD1D4D6D8DBDDDFE2F7
:10020000E4E7E9EBEEF0F3F5F8FAFDFF0A0371001D
:100210006B0032003100000018034A005A002D0024
:1002200053006B0079006C006F006F006E00670078
:1002300000000403090409023B00020100A07D093B
:100240000400000103010100092111010001224401
:1002500000070581030800010904010001030000F3
:100260000009211101000122B600070582032000C8
:10027000011201000200000008A71E216000010118
:1002800002000105010902A10185020901A1000581
:100290000919012908150025019508750181020534
:1002A00001093009311581257F95027508810609FC
:1002B000381581257F950175088106050C0A3802DD
:1002C0001581257F950175088106C0C0050109804B
:1002D000A101850319012AB700150126B700950170
:1002E00075108100C0050C0901A101850419012ABE
:1002F000A002150126A002950175108100C005011C
:100300000906A1018506050719E029E71500250161
:100310009508750181020507190029EF15002501CF
:1003200095F07501810205081901290595057501EA
:100330009102950175039101C005010906A101050E
:100340000719E029E7150025019508750181029537
:1003500001750881010507190029FF150026FF0016
:100360009506750881000508190129051500250164
:10037000950575019102950175039101C000112445
:100380001FBECFEFDAE0DEBFCDBF04B603FE18C05C
:100390008091D4039091D503A091D603B091D70357
:1003A0008730904BA740B04B59F41092D403109271
:1003B000D5031092D6031092D703E0E0F8E3099535
:1003C00012E0A0E0B1E0EAE8F7E502C005900D9286
:1003D000A031B107D9F723E0A0E1B2E001C01D923E
:1003E000A43DB207E1F70E94AC100C945B2B08CE41
:1003F0000F931F93CF93DF938C01EB016FD0882372
:1004000099F00234184781F48D81882369F00E94A5
:10041000521C8F3F71F480E00E94551C40E060E068
:1004200080E00E94C21480E0DF91CF911F910F9174
:1004300008958FEF0E94551CF6CF1F93CF93DF9343
:10044000D82FC62F0E942E1A182F882359F00E94E9
:10045000162180FF0CC0DE3028F42FEF4FEF6FEF36
:10046000CE3080F4812FDF91CF911F9108950E94AB
:10047000521C8111F7CFDE30A8F7CE3098F320E080
:1004800040E060E08DE090E00E946214EBCF8230AB
:10049000C0F46630B0F44430A0F4E62FF0E096E00B
:1004A000899FE00DF11D1124EE0FFF1FEE0FFF1FBE
:1004B000E40FF11DEE0FFF1FE455FF4F859194915E
:1004C000089581E090E00895E2CF089581E00895D5
:1004D000FDCF0895FBCF0895F9CF0895F7CF089584
:1004E00008950895FDCF089508950895A6E0B0E019
:1004F000ECE7F2E00C94D32A49835A839E8330912F
:10050000170289819A81311117C03E81332389F006
:10051000222379F014D5182F682F89819A81EFD47E
:1005200069817A81812F0E94D40D2696E3E00C9494
:10053000EF2AF5D4182FF4CF02D569817A81F3CF51
:10054000FC01262F408151816281738184819581D4
:10055000CDCFCF93DF93EC0161E0F2DFBE01B8DFD6
:10056000882349F061E0CE01EBDFBE01B3DF81708B
:10057000DF91CF91089580E0FACF0F931F93CF932F
:10058000DF93EC0160E0DCDF8C01BE01AADFBE017D
:10059000C801A8DFDF91CF911F910F9108950F93AC
:1005A0001F93CF93DF93EC0161E0CADF8C01BE01A2
:1005B00093DF811106C080E0DF91CF911F910F91F1
:1005C0000895BE01C80114DF8823A9F3BE01C80144
:1005D0000E94B820882379F3BE01C8010E94121D31
:1005E000882349F3BE01C8010E94EA1C882319F33D
:1005F000BE01C8010E94C2108823E9F2BE01C801F1
:100600000E9413118823B9F2BE01C8010E94D40EC2
:10061000882389F2BE01C8010E94E60E882359F2A0
:10062000BE01C8010E94FF0EC7CF21E030E0A90142
:1006300002C0440F551F8A95E2F7CA0199C3CF93B0
:10064000C82F81E090E00C2E02C0880F991F0A94F9
:10065000E2F70E94D90B8C2FE8DFCF91089581E05B
:100660000895FDCF0895FBCF0895CF93C82F38D3B9
:100670008C2FF7DF8C2FF7DF2FEF84E39CE02150E6
:1006800080409040E1F700C00000CF91089581E0E4
:10069000ECDF0C94E92380E0E8DF0C940D2424DFE8
:1006A0000E9416230E94421A1DD081E00C94591B0F
:1006B0001BD080E00E94591B18DF0C941A2381E0A4
:1006C00008950895CF93DF93D82FF9DFC82F88239B
:1006D00011F08D2FF6DF8C2FDF91CF9108950895C3
:1006E000F1CF089580E0FCCF0E940721F9CFCF938E
:1006F0000E940721C82F809112028C1771F0C093BD
:1007000012020E94B9236093130270931402809323
:100710001502909316028C2FE3DFCF910895ADE080
:10072000B0E0E5E9F3E00C94D42A488759876A875A
:100730007B878C879D87911124D71F8286E0FE01DD
:100740003896DE01119601900D928A95E1F78D8120
:1007500081110CC029813A814B815C816D817E8140
:100760008F815FD62D96E2E00C94F02ACE0101969F
:10077000F0DE8111EFCFF6CFFC012481213019F496
:10078000808191810DC40895662321F00E946F1E1F
:100790000C943A1F0E94C11EFBCFCF93C82F882311
:1007A00089F08CEF8C0F813A78F48C2F0E94B8215D
:1007B000882321F08C2F0E945A226ED78C2F0E9402
:1007C00043226AD7CF91089580E28C0F883040F49D
:1007D000C77081E001C0880FCA95EAF7B5D6F1CF9E
:1007E000EBE5EC0FE33040F4F0E0EA54FE4F80819B
:1007F00090E00E944921E6CFE8E5EC0FEB3150F4A0
:10080000F0E0EE0FFF1FE058FE4F808191810E94C3
:100810007021D8CF83E38C0F8331A0F661E08C2F59
:10082000B3DFD0CF882351F19CEF980F913A18F4A1
:100830000E945A2231C790E2980F983048F487708E
:1008400091E001C0990F8A95EAF7892F83D6F2CFFC
:100850009BE5980F933020F490E080E00C944921C0
:1008600098E5980F9B3120F490E080E00C94702183
:1008700093E3980F933110F460E086CF08951F93AF
:10088000CF93DF93182FEB0188DF209731F4812F6E
:10089000C9DFDF91CF911F9108958FE99FE0019704
:1008A000F1F700C000002197F0CF70E060E08933DD
:1008B00011F460E570E0E3CF882311F045D6ECC673
:1008C0000895882311F046D6E7C60895B0E0A0E069
:1008D000ECE6F4E00C94CD2A6C01D62FC72FFC0176
:1008E0001581068102950F7025D6E82E8823E9F040
:1008F000E12E1123D1F08C2F807F803461F080E2D3
:100900008D0F8830F8F08C2F807E803221F4D23029
:10091000C8F00023B9F08091420382FF13C082E047
:10092000DFD608D691E0E82EE926BC2EB2949FE0EF
:10093000B922FBE0FB1580F1EB2DF0E0E35AF44D1A
:100940000C94BE2AE12CF1CF0C2F0F70C07F11F058
:100950000295007F112381F0002349F080E28D0F82
:10096000883010F0D11105C0802FEED595D68D2F8F
:1009700040C0802FF9D5FACF8D2F54DF002361F0CE
:1009800080E28D0F883010F0D11103C0802FE2D5A6
:1009900002C0802FEFD580D6EB2DE850FF0B3497A7
:1009A00008F04CC10E9407219BDECDB7DEB7E9E01D
:1009B0000C94E92A2C2F2F70F22EC07FC03219F030
:1009C000F29480EFF822DD2341F0D13081F1112340
:1009D00009F439C00023C9F0CACF8091420382FDD7
:1009E00010C0112341F0FF2019F08F2DADD554D642
:1009F00080E0D3DED1CF80E015DFFF2069F28F2DBC
:100A0000C6CF112359F0011103C08F2D55DFC4CF7C
:100A1000013009F0C1CF8F2DC8D5BECF0111BCCF99
:100A20008F2D4FDF8F2DCCD58F2DB1D5B5CF112385
:100A300021F0063008F0B0CFE8CF053008F0ACCF99
:100A40008F2D3FDFA9CF0023D9F3D93349F43FEFEE
:100A500087EE93E0315080409040E1F700C0000005
:100A60008D2FE0DE99CF8C2F86958695837069F067
:100A7000813009F091CF8D2F9C2F9370111102C0FE
:100A800080E090E00E94702187CF8D2F9C2F937083
:100A9000111102C080E090E00E9449217DCF612FBA
:100AA0008D2F72DE79CF8C2F837081F5111174CF69
:100AB0004D2F429546954770440F440F2D2F2F70B0
:100AC00030E0042E02C0220F331F0A94E2F790E0B8
:100AD00080E0D4FF09C08FE090E002C0880F991F2A
:100AE0004A95E2F780959095C695C695C370822B7E
:100AF000932BC23039F040F4C13011F042D14CCFC9
:100B000039D14ACF45D148CF33D146CF869511232D
:100B100011F08C2F8170882309F43ECF4D2F429520
:100B200046954770440F440F2D2F2F7030E0042E50
:100B300002C0220F331F0A94E2F790E080E0D4FF56
:100B400009C08FE090E002C0880F991F4A95E2F734
:100B500080959095C695C695C370822B932BC23015
:100B600039F040F4C13011F067D116CF5ED114CF07
:100B70006AD112CF1AD110CFCF70112321F08C2F50
:100B800028D18D2F43CF8D2F9CDE8C2F30D104CFD9
:100B9000D23F39F160F4D03FB9F0D13F81F0112359
:100BA00009F43CC00111E3CE8C2F8F711EC0D33FDE
:100BB000F1F0D43FA1F78091420382FD20C08C2F39
:100BC0008F71112319F311C0112339F0053008F08A
:100BD000E3CE8C2F8F711BD1DFCE063008F0DCCE38
:100BE000F8CF8C2F8F711111D1CFF3D0D5CE112327
:100BF00021F08C2F8F71E3D0CFCEDED0CDCE11235C
:100C000029F063E08C2F8F7154D5C6CE81E068D572
:100C1000023008F4C1CE82E063D5BECE002359F085
:100C2000D93309F01DCFEFEFF7EE23E0E150F040AC
:100C30002040E1F713CF8C2F8F71A8CFEE2009F45D
:100C4000B4CE74D480FDB1CEF601158269D4C1D082
:100C5000C60117D065D4CBD0A8CE0F931F93CF93E6
:100C6000DF93EC01688179818D81A3D18C01F2D071
:100C70007ED0B801CE012ADEDF91CF911F910F9176
:100C80000895CF93DF93EC018C81882381F0CE010E
:100C900086DC81110FC04ED4882349F08D818823D2
:100CA00031F08091420382FF02C082E019D5DF91CA
:100CB000CF910895CE01D1DFCE015FDCF8CF90E077
:100CC00080E00E94492190E080E00E94702159D488
:100CD000E3D40E94531F0C943A1F0E947122EFCF5D
:100CE00040D4FBCF92959F70963091F058F4925F6C
:100CF0009F70923058F4803F19F030F4883E30F401
:100D000081E008959A5FF4CF843FD1F380E00895A5
:100D1000883EB0F3813FD1F7F3CFFC012481222339
:100D200021F0808191813CD1DDCF80E00895A6E063
:100D3000B0E0EDE9F6E00C94D42A2696E2E00C94BB
:100D4000F02AA7E0B0E0E7EAF6E00C94D42A279670
:100D5000E2E00C94F02A0895FECF0895FDCF0895A7
:100D6000FADFFCDF9093270280932602089508950E
:100D7000F7CF08952091260230912702822B932BE2
:100D8000EFCF209126023091270282239323E8CFD0
:100D9000209126023091270282279327E1CFDBCFD3
:100DA0000895FDCF0895D7CF0895FDDFFADF909322
:100DB000250280932402089590E080E0F6CF21E0A0
:100DC00030E0A90102C0440F551F8A95E2F7CA011D
:100DD000ECCF21E030E002C0220F331F8A95E2F70A
:100DE0008091240290912502822B932BDECF21E06B
:100DF00030E002C0220F331F8A95E2F7209530952C
:100E0000809124029091250282239323CECF21E06A
:100E100030E002C0220F331F8A95E2F7809124024E
:100E20009091250282279327C0CF209124023091F0
:100E30002502822B932BB9CF2091240230912502D9
:100E400082239323B2CF209124023091250282275E
:100E50009327ABCF0895262F277091E001C0990FFB
:100E60002A95EAF723E0769567952A95E1F7660FCC
:100E7000771F660F771FFA01E60FF71F50E040E07B
:100E8000682F70E08191DF0111979B01042E02C051
:100E9000369527950A94E2F7217021952827292372
:100EA00028272C934F5F5F4F4430510559F7089521
:100EB000A82FA77023E0969587952A95E1F7880FCC
:100EC000991F880F991FFB01E80FF91F50E040E0C0
:100ED00080E0219130E00A2E02C0369527950A94D1
:100EE000E2F721703327042E01C0220F0A94EAF79B
:100EF000822B4F5F5F4F4430510559F70895262FDD
:100F0000963060F4843050F434E0939FB0011124A3
:100F1000680F711D48E152E0822F9DCF08959630F1
:100F200060F4843050F444E0949F9001112468E10F
:100F300072E0820F932F911DBBCF80E00895B0E047
:100F4000A0E0E5EAF7E00C94CD2A7C0100912402B0
:100F5000109125028091260290912702082B192BCF
:100F6000CFE0D0E0CC24C394D12CBC2EC6010C2EF3
:100F700002C0880F991F0A94E2F780239123892BDE
:100F800049F4219790F7B12C8B2DCDB7DEB7E9E06E
:100F90000C94E92AB7018C2F12D6019791F3F4CF64
:100FA000CF93DF93EC01CBDFBE0109D6DF91CF9168
:100FB00008951F93CF93DF93EB019091170299232C
:100FC00031F0CB01EDDFDF91CF911F9108958823A0
:100FD00051F0CB01B4DF182F682FCE0190DFBE0196
:100FE000812FEDD5F0CFCB019ADF182FF8CF1F93CB
:100FF000CF93DF93C091280217E0809129028C13D0
:1010000004C0DF91CF911F910895D0E01C9FF001A3
:101010001D9FF00D1124E65DFD4F2081318142813D
:1010200053816481758186818CDE2196C770E5CFFE
:1010300020916202309163024091640250916502F6
:101040006091660270916702809168027ACECF93B8
:10105000DF9380916802807F09F04BC08091670226
:10106000882309F446C0E091280250912902C091DA
:101070006302D0916202609164027091650247E060
:101080005E17B9F18E2F90E0E49FF0011124E65D28
:10109000FD4F2481222381F1489FF001499FF00DEB
:1010A0001124DF01A65DBD4F11962C9111972C13D1
:1010B00023C02C912D1320C015962C91159721112A
:1010C0001BC012962D913C91261B370B283C3105F5
:1010D00098F4809168028F70806180936802E05D6F
:1010E000FD4F80818F708061808382E692E0C9DD50
:1010F0007EDFDF91CF910895FC013196E770C0CF7C
:10110000482F209128029091290257E0291302C00C
:1011100080E0089530E0529FF001539FF00D1124BC
:10112000E65DFD4F8181681306C08081481303C0CE
:1011300085818111EECF2F5F3F4F2770E7CFA4E16C
:10114000B0E0E5EAF8E00C94CA2A8C0186E0F801E8
:10115000DE011F9601900D928A95E1F7F8018481D6
:10116000E58092E6A92E92E0B92E90916602911147
:101170001AC08823A9F0EE2089F0C801CEDDF82E30
:10118000882361F087E0F801D50101900D928A95DE
:10119000E1F7C501F1DA5BDF4BDF59C0C80171DD52
:1011A000FF24F39454C0C080D18082809380F0905B
:1011B00067022091640230916502A401421B530B27
:1011C000FF2009F4E9C0483C510508F09CC0882381
:1011D00009F43DC09091630280916802282F207F1E
:1011E00009F056C09D1114C090916202C91210C03E
:1011F000E11048C08F7080618093680219DF82E639
:1012000092E03FDD80916802F8018683F12C1FC0D7
:10121000E11038C06D2D8C2D73DF6D2D8C2D70DF9E
:10122000E82E8111F3CFCF86D88A8F859889B8DED2
:10123000292F22952F70243078F49F702230A0F04F
:101240009923B1F0F8019681907F91F4FE2C8F2DB7
:101250006496ECE00C94E62A2A5F2F70223060F04E
:10126000C8010FDDEF2CF2CF992311F0882371F321
:10127000805E883058F3F4CF803F40F3815F833045
:1012800078F7E4CF80916802816080936802BECFD6
:101290009D1112C090916202C9120EC0E1100CC0E3
:1012A0008683C801EEDC87E0F801A2E6B2E0019097
:1012B0000D928A95E1F770CFC8012FDD882309F4DC
:1012C0006DCFEE2009F46ACF80916802803280F001
:1012D0002091620230916302398728879B868A8633
:1012E000909166029C871D868E87CE010896C9DC88
:1012F00087E0F801A2E6B2E001900D928A95E1F74D
:10130000A6DE96DE4DCF90916802292F207F89F4CA
:10131000682D9A8A898AA6017A899E2D08DD82E63F
:1013200092E0AFDC87E0F50111928A95E9F780DE63
:101330006DCF882309F48BCF809163028D110FC08C
:1013400080916202C8120BC0E11009C09683C801E7
:1013500098DC87E0F50111928A95E9F778CFC8010A
:10136000DCDC882309F41ACFEE2009F417CF809132
:101370006802803208F4BCCF20916202309163028F
:101380003A8329839C828B82909166029D831E8280
:101390008F83CE010196ABCF483C5105A8F5882339
:1013A00009F4FECEFE2CEE2009F4F8CE8091630203
:1013B0008D111EC080916202C8121AC0809168020D
:1013C00080FD0DC0982F907F51F08683903F09F4E7
:1013D00068CF982F907F905F8F70892B61CF87E0C7
:1013E000F801A2E6B2E001900D928A95E1F72FCFC5
:1013F000C80193DC81117CCF809168028160809369
:101400006802C8013EDC23CF682D9A8A898AA6012A
:101410007A899E2D8CDC87E0F50111928A95E9F797
:10142000BBCEAEE0B0E0E7E1FAE00C94D32A288727
:1014300039874A875B876C877D878E87CE010896C0
:101440007EDE8823A9F06C85662339F028853985EE
:101450004A855B857D858E8574DC17E08091280246
:101460009091290289133BC02E96E3E00C94EF2A59
:1014700087E0FE013896DE01119601900D928A9563
:10148000E1F78C85882349F32091290230E0C901D6
:10149000019687709927409128024817190691F004
:1014A00097E0929FD001939FB00D1124A65DBD4F90
:1014B000FE01319601900D929A95E1F780932902F1
:1014C00096DDCBCF0DDC109229021092280287E026
:1014D000E2E6F2E0DF011D928A95E9F7BECF819F37
:1014E000C0011124865D9D4F2ADE882309F4BCCFFC
:1014F000E09128021E9FF0011124E65DFD4F20813E
:101500003181428153816481758186811ADC8091A9
:10151000280290E0019687709927809328029ECF39
:101520008091910286958695869508958091910285
:101530008770089590919102977081E009F480E09E
:1015400008958091BD0208959091BD02892B8093EA
:10155000BD02089580959091BD0298239093BD029D
:1015600008951092BD0208959091BC02892B80933A
:10157000BC02089580959091BC0298239093BC0280
:1015800008951092BC0208950895FECF0895909199
:101590009202292F282329F0809589238093920293
:1015A000F4CF08950895FECF089590919302292FC6
:1015B0002823281721F0982B90939302F4CF0895B5
:1015C00090919302292F282329F0809589238093D5
:1015D0009302E9CF089580919302882321F010921D
:1015E000930280E0E0CF0895CF93C091BD02809137
:1015F000BC02C82B80919302882329F0C82B0E943B
:1016000097218111E8DF8C2FCF910895CF93DF933D
:10161000C0915901D0915A01E7DF8883C0915901E7
:10162000D0915A0148E050E069E872E0CE010E9492
:10163000FB2A892B59F088E0FE01A9E8B2E001906D
:101640000D928A95E1F7CE010E941821DF91CF918A
:101650000895CF93DF93C0915701D0915801C4DF13
:101660008983C0915701D091580140E250E069E66A
:1016700072E0CE010E94FB2A892B59F080E2FE0124
:10168000A9E6B2E001900D928A95E1F7CE010E94A1
:101690002521DF91CF9108950E940021882329F010
:1016A0008091410387FF01C0D4CFB0CF0895FECF12
:1016B00008959091420392FF0EC098E0899F900197
:1016C0001124622B6093910284DB809191028695B4
:1016D00086958695ECCF7DCB1092910280E0E7CF86
:1016E000909191028095892380939102282F2770F1
:1016F00059F4891749F09091420392FF05C08695ED
:101700008695869574DBE8CF08959091420392FB0D
:10171000222720F9281749F080FB92F99093420381
:1017200081E493E04AD082E0DBCF089580914203C8
:1017300082FB882780F991E08927E7CF81E0E5CF18
:1017400080E0E3CF60E070E0CB01CCC360E070E00C
:10175000CB01C2D3F7CFA3E0B0E0E1EBFBE00C9408
:10176000D42A67D372D31B82CE01039685D381E03E
:1017700090E090932702809326028AD31A821982DE
:101780008A8184618A83CE01019693D30E942414B6
:10179000DDDF0E941D142396E2E00C94F02ADBCFDB
:1017A000089559C3089546C308955BC308956AC355
:1017B00008956EC3089571C308957BC3089580C3CF
:1017C000089584C3089594C30895A6E0B0E0EBEEB5
:1017D000FBE00C94D22A0E94AD238C018091BE02C2
:1017E0009091BF028017910781F019821A820E949E
:1017F000AD23682F49815A81792F80E090E00E94C3
:101800008F031093BF020093BE022696E4E00C946F
:10181000EE2A0E94B9236093CA027093CB02809390
:10182000CC029093CD026093C6027093C70280935E
:10183000C8029093C902089508950895FDCF0895B0
:101840000895FEDFFBCF0895FECF08950895FEDFD3
:10185000FBCF82ED9EE091D4F0DFF3CF81E00895DD
:10186000FDCF0895FBCF0895089508950895FCDFF6
:10187000FCDFFCCF98DF811101C091DF8EEC92E09C
:1018800094DF81E493E097DF0E94E81C90DF70DA38
:10189000809124029091250284CA0E94A423D3D36C
:1018A000E9DF0E946F030E94FF1AD1CFA6E0B0E0EB
:1018B000ECE5FCE00C94CB2AD3DF81110BC085DF73
:1018C0000E94421A0E94751F0E9477032696EBE041
:1018D0000C94E72AC9D380ECA82E82E0B82E7501BB
:1018E00010E0F70101917F01812F0DD31F5F1630AA
:1018F00009F440C00817A9F38091CE0281FD09D3F5
:10190000B1DF982E10E0812FFED2F82EF5018191E3
:101910005F01F81651F100E0EE24E394DF2CD826A5
:101920008D2D8E21D9F0CC24C3948F2D8E2109F4D6
:10193000C12C992071F009831A830E94AD23682F6E
:101940008B839C8349815A81792F81E09C2D0E9451
:101950008F034C2D602F812F0E94C8140F5FEE0C57
:101960000430F1F6F5013197F0821F5F163059F619
:1019700050DFA6CF0813C0CFA2CF1F93CF93DF9322
:1019800020D1EC01C11580E5D807F0F5C11580E440
:10199000D80708F09AC0C03ED10520F5CD3CD1054E
:1019A00008F082C0C83AD10578F4C53AD10508F0EC
:1019B00073C0C130D10519F1209709F1C430D105A8
:1019C000F0F4D0E0C0E01BC0C33CD105D0F7C85A4A
:1019D000D0E0CC0FDD1FC754DE4F0990D881C02D59
:1019E000D4640DC0C11580E2D80708F0CDC0C11580
:1019F00081E0D80708F05AC0C83ED10510F7CE01E3
:101A0000DF91CF911F910895C03682E5D80718F570
:101A1000C03482E5D80708F068C0C03282E5D80734
:101A200008F05CC0C11582E5D80708F493C02C2FDC
:101A30002695269580E2289F900111248C2F837093
:101A4000C1E0D0E002C0CC0FDD1F8A95E2F7C22BC7
:101A5000D32BDD68D4CFC03A82E5D80760F4C03814
:101A600082E5D80708F456C0CF71D0E0DC2FCC2730
:101A7000C46FD06AC4CFC03C82E5D80708F45FC009
:101A8000C03E82E5D80708F09CCFDC2FCC27CC27BE
:101A9000DF71C06FD06AB3CFC55AD0E0C151DE4FFD
:101AA000C881D0E0D064ABCFD065A9CF8D2F2BD12A
:101AB000182FCE01992785D0C12FD0E0DC2FCC275D
:101AC000CC27DF71C82BD92B9ACFCE01992779D09B
:101AD000CC27DF70C82BD92BD06A91CFCF71D0E043
:101AE000DC2FCC27C16FD06A8ACF2C2F2695269564
:101AF000277080E2289F900111248C2F8370C1E011
:101B0000D0E002C0CC0FDD1F8A95E2F7C22BD32BA9
:101B1000DC6875CF2C2F26952695277080E2289FAC
:101B2000900111248C2F8370C1E0D0E002C0CC0F53
:101B3000DD1F8A95E2F7C22BD32BDA6860CF8C2F9A
:101B40008F71E1D0C82FD0E0DC2FCC27CC27DF71FC
:101B5000D06255CF8C2F8F71D6D055E0D695C795D2
:101B60005A95E1F7CF70D0E0DC2FCC27282F30E05A
:101B700084FF06C044E0220F331F4A95E1F7332764
:101B8000C22BD32BD0693BCF8D2F8F71BCD0182F98
:101B9000CE01992716D0C12FD0E0DC2FCC27CC273F
:101BA000DF71C82BD92BD4CF462F763028F4643080
:101BB00018F4672F0C94640290E080E00895F4DF3D
:101BC000DCCE82389105B9F1B0F48133910509F486
:101BD0007DC048F48932910509F46DC08A329105BF
:101BE00009F47BC008958533910509F45FC08933FA
:101BF000910509F10895833E9105D9F138F4803EAD
:101C0000910529F1823E910579F10895863E91056D
:101C1000D9F1873E910509F43EC0843E910541F516
:101C20002091420321FF24C08091410384FD19C00B
:101C300087EE90E0089520914103237009F05AC087
:101C40002091420323FF14C089E290E0089520917F
:101C5000410320FD38C03091420330FF09C024FF0A
:101C600043C090E080E008952091410322FDF7CF2A
:101C700008952091410322FD3AC03091420330FD86
:101C800039C024FFF5CFEDCF2091410323FFF0CFE2
:101C900024FDE7CFCDCF2091410323FD2EC030910D
:101CA000420331FFEECF84EE90E00895209141038E
:101CB00025FFDECFC9CF2091410325FD21C0209112
:101CC000420323FFD5CF89E390E0D2CF2091410397
:101CD00026FFCECF8AE290E008952091410326FFAF
:101CE000C7CF81E390E0089583EE90E0089582EEFF
:101CF00090E0089580EE90E0089586EE90E00895DB
:101D000085E390E008959091410392FF10C041E077
:101D1000282F2471243009F040E031E0282F287169
:101D2000283009F030E0431711F02CE0822793FFB0
:101D300010C041E0282F2471243109F040E031E047
:101D4000282F2871283109F030E0431711F02CE0DA
:101D500082273091420330FF10C051E0282F2171BB
:101D6000213009F050E041E0282F2871283009F097
:101D700040E0541711F029E0822731FF10C041E004
:101D8000282F2171213109F040E031E0282F2871FE
:101D9000283109F030E0431711F029E0822794FD43
:101DA000877E089580E00895CF939C01205E3245A0
:101DB000C1E02032310538F4FB01C581C11103C0F7
:101DC0008F710E941F038C2FCF9108959C01FB01FE
:101DD0008581882391F02B35FCE73F0761F02C3596
:101DE0009CE7390729F02A353C4741F4A7DC01C0BC
:101DF0009DDC80E00895A4DCFCCF81E008959C0187
:101E0000FB018581882399F02130FCE73F0761F0D1
:101E100023309CE7390739F021153C4749F40E94EB
:101E2000470380E00895BDDC0E944B03FACF81E0B8
:101E30000895089590E080E00E94292B21E0833EE0
:101E40009E4F09F020E0822F089563EE7EEF90E030
:101E500080E00C94572B6FEF7FEF90E080E00C94C4
:101E6000572BCF93DF93EC0182E090E00E94212B6F
:101E70008883DF91CF910895FC01608182E090E03A
:101E80000C943D2B83E090E00E94212B90E008957C
:101E9000682F83E090E00C943D2BCF93DF93EC010F
:101EA00084E090E00E94292B99838883DF91CF9171
:101EB0000895FC016081718184E090E00C94572BBF
:101EC00048E050E067E170E00C94112B48E050E0EE
:101ED00067E170E00C942E2BAB01BC018FE090E029
:101EE0000C944F2BAB01BC0183E190E00C944F2B81
:101EF000682F8EE090E00C943D2B0895FECF08955E
:101F00000895FECF0895E82FF0E0E75BFC4F808155
:101F10000895089580EA8A95F1F7089500C008951C
:101F2000F9CF0895F894E82FE295EF70F0E031A131
:101F3000282F2F7081E090E001C0880F2A95EAF7E2
:101F4000982F9095932391A392A1892B82A37894A3
:101F50000895CF93DF9387EFE5DF86ECE3DF87E635
:101F6000E1DF85E9DFDFC6EFD1E089918F3F09F03E
:101F7000D9DF81E0CC3FD807C1F7DF91CF91089539
:101F8000B0E0A0E0E6ECFFE00C94CE2A7C01162F36
:101F9000042FC62FD0E0CE50DE4F28812F3F09F40A
:101FA00049C0F894E22FE295EF70F0E031A12F7074
:101FB00081E090E001C0880F2A95EAF7932F982BD3
:101FC00091A392A18095892382A37894A7DF86EFBD
:101FD000C82E81E0D82EF701A7014A5F5F4FF12C90
:101FE000E02EE094D6019D916D0181919F012150D9
:101FF00031099F3F21F1692F62956F7070E0DB011D
:1020000090966C9170E09F7002C0759567959A9557
:10201000E2F760FD14C0802BD9018C93FF24F39468
:10202000E417F507F9F688818F3F09F07BDF6F2D04
:10203000812F76DFCDB7DEB7E8E00C94EA2A8E2157
:10204000D9018C93EDCF85DF86E0E9E4F3E0DF0191
:10205000982F1D929A95E9F7E3E4F3E0DF011D92D2
:102060008A95E9F73CD04ACFA6E0B0E0EAE3F0E198
:102070000C94D02A8E010F5F1F4F86E0F801119259
:102080008A95E9F7F12CEE24E3944E2D6F2DC801CB
:1020900077DFF394EE0CF4E0FF12F7CF46E050E068
:1020A000B80183E493E00E94FB2A41E0009709F421
:1020B00040E0892B41F086E0F801A3E4B3E0019011
:1020C0000D928A95E1F769E473E083E493E008D028
:1020D000182F17DF812F2696E6E00C94EC2A08953E
:1020E000EF92FF920F931F93CF93DF937C018B01AD
:1020F000C42F442379F081E08093D1020E94AD2364
:102100009093D0028093CF0280E0CDB7DEB7E6E0B7
:102110000C94EC2AD091D102DD23B1F38091CF024F
:102120009091D0020E942E23059770F346E050E074
:10213000B701C8010E94FB2A892B41F086E0F70114
:10214000D80101900D928A95E1F7CD2F1092D1021E
:102150008C2FDBCFABCB08950E9447230E944025F4
:1021600078DB0E94582599DB0E9461250E94642536
:10217000F1DF0E947A257BDBF9CF909311028093E7
:10218000100208950F931F93CF938C01FB01C5811B
:10219000CC2309F446C0D5D98272F801E052F84741
:1021A000EB30F10538F4E759F44D0C94BE2A0E9447
:1021B0007B1BC0E08C2FCF911F910F910895882336
:1021C00029F00E94CD1BF5CF8823D9F30E94C11BB3
:1021D000F0CF882329F00E94FC1BEBCF8823D9F392
:1021E0000E94EF1BE6CF882329F00E941A1CE1CF42
:1021F0008823D9F30E940B1CDCCF882329F00E948E
:10220000381CD7CF8823D9F30E94291CD2CF88232A
:1022100029F00E94501CCDCF8823D9F30E94441C82
:10222000C8CFC1E0C7CF1F93CF93DF93EC01FB0171
:10223000158111110FC085D98272FE01E054F84753
:10224000EF30F10508F04DC0EC58F44D0C94BE2A67
:102250000E948A1B812FDF91CF911F9108950E94C8
:102260009A1BF8CF0E947B1BF5CF882329F00E9490
:10227000CD1BF0CF8823D9F30E94C11BEBCF88235D
:1022800029F00E94FC1BE6CF8823D9F30E94EF1BA4
:10229000E1CF882329F00E941A1CDCCF8823D9F3D0
:1022A0000E940B1CD7CF882329F00E94381CD2CF64
:1022B0008823D9F30E94291CCDCF882329F00E94BE
:1022C000501CC8CF8823D9F30E94441CC3CF882355
:1022D00029F00E948D1CBECF8823D9F30E94711C67
:1022E000B9CF11E0B7CFEF92FF920F931F93CF9327
:1022F000DF939B01682F31110EC0442329F0E82F92
:10230000F0E0E45FFE4F6491762F862FCDB7DEB705
:10231000E6E00C94EC2AC32FD0E0E82FF0E0442351
:1023200021F0E45FFE4FE491F0E046E0249FC0011D
:1023300011240FEF10E0B8010E94592AAB01822F3F
:1023400090E0880F991F25E5249FB001259F700D0F
:102350001124861B970B982F990F980FB8016C1BAF
:102360007D0B6E9FD0016F9FB00D7E9FB00D11242D
:102370008B2F939F90011124232F3327B801621BC9
:10238000730B6E9F90016F9F300D7E9F300D112457
:102390007801E91AF108EC9EB001ED9E700DFC9EEB
:1023A000700D1124672F7727061B170B0E9FE00176
:1023B0000F9FD00D1E9FD00D11247D2F9E2F4230D8
:1023C000510599F048F44115510569F04130510526
:1023D00081F07B2F832F07C04430510569F080F0D6
:1023E00046305105B1F7692F91CF9B2F8D2F7E2F4E
:1023F000FACF7E2F932FF7CF9D2F7B2F8E2FF3CFEA
:10240000732F9B2FFBCF41E06ECF30E020E0869F03
:10241000080E211D969F200D311D1124290F311DFD
:10242000C9010895AC018230910508F408959FEF29
:10243000413E8EE1580740F49A0195E03695279584
:102440009A95E1F798E0920F61E0E62FE90FFF27F8
:10245000FF1F9F0135952795822F229FF001239F13
:10246000F00DF00D11244E175F0738F49FEF920F17
:10247000961758F78FEF860F08952F3FE9F361E025
:10248000620FF6CF409165015091660125E038E07A
:10249000429FC001439F900D529F900D1124875E73
:1024A000994C9093660180936501890F0895E82FF8
:1024B00086FDE0952E2F2F7086FD2F5FE695E69521
:1024C000E695E670F0E0E050FE4F9181929F902DEE
:1024D000212D112492959F702295207F922B20818F
:1024E000920F87FD919580E8890F0895622F0895D6
:1024F000E42FF0E0EE0FFF1FE050FF4F618D621BF5
:1025000008950F931F9310E0F801EE0FFF1FE85E90
:10251000FE4F9081905797FD9195000F111FF80184
:10252000E050FF4F018D0052110B2003F001219F5D
:10253000F00D112408E310E0091B110997FD139514
:1025400040039001419F300D1124E20FF31F9F01C2
:10255000220F331F2E0F3F1F37FF02C021583F4F5E
:10256000220F232F221F330B620F1F910F9108950B
:10257000EF92FF920F931F930E0D1F2D111DF90166
:1025800037FF03C0F195E195F10924E0EE0FFF1F3D
:102590002A95E1F7EF3FF10519F014F0EFEFF0E0C5
:1025A0009A0157FF03C031952195310994E0220F1C
:1025B000331F9A95E1F72E173F070CF4F901E00F4E
:1025C000F11FEF3FF10519F010F0EFEFF0E0E095AB
:1025D000282F3E2F230F08F42FEF822F1F910F91EA
:1025E000FF90EF900895EF92FF920F939701201BB9
:1025F00031092F3F310519F010F02FEF30E0322F65
:102600003095482F430F08F44FEF842F620F0F913E
:10261000FF90EF9008959091D702892B8093D70275
:102620000895FC019B01AC0197FF04C04427552786
:10263000481B590BBA01620F731F37FD0FC0241BD3
:10264000350BC901A5E0880F991FAA95E1F70E94F3
:102650006D2A80E2861BF7FD81950895CB0165E028
:10266000880F991F6A95E1F7BA01621B730B0E94EC
:102670006D2A80E6EFCFEF920F93CF93DF93D72FA2
:10268000C82FC9010E19009729F480E857FD04C02E
:1026900080E002C0BA01C5DF602F681B7D2F8C2F40
:1026A000DF91CF910F91EF9008954F3F510519F0B1
:1026B00010F04FEF50E04095282F429F040E40E06D
:1026C000411D1124842F08951F93CF93DF93D62F9C
:1026D000C72F182F822F8695EADE805887FD8195B7
:1026E000880F282F219F020E20E0211D1124822F08
:1026F0006D2F7C2FDF91CF911F9108950F93CF9372
:10270000DF93D72FC82FC901009729F480E857FD20
:1027100004C080E002C0BA0184DF602F680F7D2F03
:102720008C2FDF91CF910F9108956DCE0895B0E079
:10273000A0E0EDE9F3E10C94C72A782E662E862FEF
:1027400090E024E0729E80011124F801E050FF4FD8
:10275000E80FF91FC081CF3FA9F1B12CA12C812C2A
:10276000D0E09E01220F331FA901485E5E4F6A012F
:10277000E901C75EDE4F0A5F1C4F080F191F750184
:10278000912C88E2582EF701E050FF4F80818F3F57
:1027900059F078101CC069101AC0F801208130E28D
:1027A000230F08F42FEF208393944FEFE41AF40AD9
:1027B00054E09512E8CF839484E0A80EB11CE6E0C3
:1027C0008E12DDCFCDB7DEB7EFE00C94E32A90E0B8
:1027D000F6012081FC01EE0FFF1FE85EFE4F308105
:1027E000231B330B4881880F991FFC01E050FF4FDA
:1027F000818D481B550B229FB001239F700D700DDA
:102800001124449FC001459F900D900D1124860F07
:10281000971F08DE893240F6252D382F231B08F438
:1028200020E0F701EA5FFC4F213108F020E1308120
:10283000320F08F43FEF3083B7CF8FE493E00E946C
:10284000E10B1092D7020895EFE4F3E085E0808376
:1028500080917D0190917E01A0917F01818392837F
:10286000A3838FE784838FEF8583CF010E94E10BE1
:102870001092D702089580E008950F931F93CF938D
:10288000DF93C82FD62F8A01F6DF94E0C99FB001ED
:10289000112460507F4F6D0F711DFB0190819F3F90
:1028A00029F0F801E80FF11D90838F5FDF91CF9140
:1028B0001F910F910895E0910E02F0910F0209957A
:1028C00008950895FF920F931F93CF93DF93162FD0
:1028D000042FF22EC0910A02D0910B02F2DF2F2DAD
:1028E000402F612FFE010995CDB7DEB7E5E00C94CE
:1028F000ED2AFF920F931F93CF93DF93C82FD0E061
:10290000FE01EE5BFE4F80816823B9F0F090510329
:102910000091520310915003B5DD23E0829FC00166
:102920001124612F20EE929F600D11247F2D802FA6
:10293000FCDE472F282FCE01C5DFCDB7DEB7E5E09F
:102940000C94ED2A1F93CF93DF93C82FD0E0FE01A4
:10295000EE5BFE4F8081682389F094DD182F92DDB5
:1029600020E8829FC00111247FE7790F612F8091B9
:102970005203DBDE472F282FCE01A4DFDF91CF915A
:102980001F910895E0910C02F0910D0209950895B0
:10299000A8E0B0E0EEECF4E10C94CC2AC82EB62E00
:1029A000A42E0E942E0C882309F455C0D12CAA20F5
:1029B00039F0AE014F5F5F4F6B2D8C2D5EDFD82E4F
:1029C0000D2D10E08091D802800F912F911D099755
:1029D0006CF188E090E07C01E01AF10AB8016752DE
:1029E0007D4FA70189ED92E00E94082BB8016F513D
:1029F0007D4FA70181EE92E00E94082BA701440FB2
:102A0000551FB801660F771F6F507D4F81EF92E021
:102A10000E94082BB80167517D4FA70189EE92E013
:102A20000E94082B88E08D198093D8021091D8025B
:102A3000DE01119640E0842F810FD41210C08093E4
:102A4000D802AA2041F080914F038C7F8C3219F478
:102A50006B2D8C2D6CDE2896EAE00C94E82A5D91B3
:102A6000252F30E090E0BC0168527D4FF901EE0F58
:102A7000FF1FE85EFE4F0081FB010183220F331F21
:102A8000F901E050FF4F218DFB012187518B880F09
:102A9000991FFC01E852FD4F128E118E4F5FCBCF74
:102AA00081E00895FDCF0895FBCF0895FBDFFCCFB3
:102AB000982F990F990F890F95E0980F963108F08C
:102AC00095E10895B0E0A0E0E8E6F5E10C94C62AAF
:102AD0003C012B01FC018081EBDFC82F192F609195
:102AE0005303669580915703909158038EDCF82E1E
:102AF000D0E0CE01880F991F9C0120503F4F690103
:102B0000C11748F081E0153108F080E0CDB7DEB79D
:102B1000E0E10C94E22AFE01EE5BFE4F8081F301BE
:102B20009181892359F1F601808D282F2057330B8D
:102B30005901818DE82FE052FF0B4F01AA9C9001B3
:102B4000AB9C300D300D1124EE9FC001EF9F900D16
:102B5000900D1124820F931F65DC082F60915003A4
:102B60007091510380915203EF2C9401A501F20161
:102B70000995DBDD472F282FCE01A4DEF2E0CF0E32
:102B8000D11C2196BDCF6BE373E19CCFB0E0A0E0F8
:102B9000ECECF5E10C94CB2A6C015B01FC0180812B
:102BA00087DFC82F192F60915303669580915703D3
:102BB000909158032ADC982ED0E0CE01880F991FFF
:102BC0009C0120503F4F7901C11748F081E0153139
:102BD00008F080E0CDB7DEB7EBE00C94E72AFE0109
:102BE000EE5BFE4F8081F60191818923A9F0F70108
:102BF000218D2052330B408D4057550B609150036F
:102C00007091510380915203092DF50109958DDDD5
:102C1000472F282FCE0156DEF2E0EF0EF11C219651
:102C2000D3CF6EE773E1B2CFB0E0A0E0EAE1F6E126
:102C30000C94CE2A7C018B01FC01808139DFC82FE6
:102C4000D92E609153036695669521E0620F08F4D2
:102C50006FEF8091570390915803D7DBC82ED0E0D7
:102C6000CD1550F081E094E19D1508F480E0CDB7DA
:102C7000DEB7E8E00C94EA2AFE01EE5BFE4F8081AD
:102C8000F7019181892379F060915003709151038C
:102C9000809152032C2D4C2FF801099546DD472FCA
:102CA000282FCE010FDE2196DBCF64E673E1BCCF87
:102CB00066E772E1B9CF68E772E1B6CFB0E0A0E0B5
:102CC000E4E6F6E10C94CA2A5C016B01FC01808108
:102CD000EFDEC82FF92E60915303669566958091BB
:102CE00057039091580391DB182F80E4810FDFDBAD
:102CF00090E8992E980E812FDADB20E8822E880E3C
:102D0000D0E0CF1550F081E094E19F1508F480E009
:102D1000CDB7DEB7ECE00C94E62AFE01EE5BFE4F89
:102D20008081F5019181892389F060915003709130
:102D3000510380915203E12E0C2F282D492DF601CD
:102D40000995F3DC472F282FCE01BCDD2196D9CF82
:102D500061E872E1B3CFB0E0A0E0E1EBF6E10C9402
:102D6000CD2A8C017B01FC018081A2DEC82FB92E07
:102D70002091530331E0230F08F42FEF30E050E0AF
:102D800040E06FEF7FEF80E090E00E94A22A6901AF
:102D9000D0E02C2FCB1550F081E0F4E1FB1508F4C6
:102DA00080E0CDB7DEB7E9E00C94E92AFE01EE5BE6
:102DB000FE4F8081F80191818923F1F040915B03FE
:102DC0004150042E000C550B47FF18C0C6016091FE
:102DD000530321E0620F08F46FEF17DBAC01609141
:102DE00050037091510380915203F70109959DDCC6
:102DF000472F282FCE0166DD2196CBCFFA01E55A69
:102E0000FC4F818982130AC0FA01EE0FFF1FE55AB9
:102E1000FC4F818D928D8C159D05C8F24150510952
:102E2000D3CF65E573E197CFAAE0B0E0EAE1F7E13F
:102E30000C94C42A8A832B015E834D83FB0180811D
:102E400037DE9B83F0915B03FC83282F30E03A87C9
:102E50002987C901880F991FFC01E050FF4F6F01BE
:102E6000FA818F2F90E09C012F5F3F4F38872F838F
:102E7000EB81F985FE1740F081E0E53108F080E054
:102E80002A96E2E10C94E02AE985FA85EE5BFE4F92
:102E90008081F20191818923F9F0209050033090D4
:102EA00051032F813885255A3C4F39013A813983A6
:102EB00010E029813C812317C0F020915203129F1A
:102EC000010E10E0111D1124B101812F2EDC472FBE
:102ED000282F89859A85F6DC89859A8501969A87B7
:102EE000898792E0C90ED11CC3CFF30181913F01C4
:102EF000F601A08CA81ABB08818CF3018781881A7F
:102F00009908AA9C9001AB9C300D300D1124889C2F
:102F1000C001899C900D900D1124820F931F82DABD
:102F2000082F6091530321E0620F08F46FEFF30163
:102F3000EE0FFF1FEB55F3408589968966DA7C0119
:102F40009401A501B101812FED81FE8109951B013D
:102F5000F981FF5FF983182FACCF20915B0331E03B
:102F6000231B08F420E048EB52E1BC01822F5CCF28
:102F700020915B0331E0231B08F420E043EF52E192
:102F8000BC01822F51CFB0E0A0E0E9ECF7E10C9456
:102F9000CE2A7C01FC0180818BDDC82F192F609126
:102FA00050037091510380915203BFDB062FD72E3F
:102FB000C82ED0E0C11748F081E0153108F080E05C
:102FC000CDB7DEB7E8E00C94EA2AFE01EE5BFE4FD7
:102FD0008081F7019181892329F02C2D4D2D602FBF
:102FE000CE0170DC2196E6CF0F931F93CF93DF9332
:102FF000EC01888181111AC06091530320E1620FB6
:1030000008F46FEF8091570390915803FED96AE05E
:1030100070E00E94592A892B49F434DA25E1829F15
:10302000C001112490935D0110925E01888140DD02
:10303000092F182F9A8191111AC020915D013091AA
:103040005E018217130609F0A0F40217130689F037
:1030500080F06981822F4DDC86E190E090935E01E3
:1030600080935D0106C06981812F43DC1F5F1017CB
:10307000D0F381E0053108F080E0DF91CF911F911E
:103080000F9108950F931F93CF93DF93EC018881E5
:1030900081111AC06091530320E1620F08F46FEFB1
:1030A0008091570390915803B0D965E070E00E9479
:1030B000592A892B49F4E6D925E1829FC0011124C0
:1030C00090935B0110925C018881F2DC092F182F2C
:1030D0009A8191111AC020915B0130915C01821795
:1030E000130609F0A0F40217130689F080F0698135
:1030F000822F28DC86E190E090935C0180935B0155
:1031000006C06981812F1EDC1F5F1017D0F381E09C
:10311000053108F080E0DF91CF911F910F91089564
:10312000B0E0A0E0E6E9F8E10C94C92A7C01DC01FA
:103130008C91BEDC782E992EF7018281882359F07C
:1031400040E060E080E01EDCE6E0F3E088E1DF01E3
:103150001D928A95E9F7F7018081811115C0809150
:103160001F03909120030E942E2321E089319105B5
:1031700008F420E020931E03499730F00E94AD230D
:103180009093200380931F03B12C00E0A12C8AEAC6
:10319000882E05C084E08A1508F457C000E0802F0F
:1031A00090E0F4E0BF9EE00111249E0120503F4FCB
:1031B0006901C80ED91ED601EC91E71508F43DC08F
:1031C000E91508F03AC0A394F0E0EE5BFE4F2081D1
:1031D000F7013181232309F430C0CA5FDC4FC80FE7
:1031E000D91F1881212F35E5231B08F420E0682D15
:1031F000621B70915103282D210F08F42FEF30919D
:103200005203822F880F820F8E5F282F239F020E7A
:1032100020E0211D1124822F88DA472FD6019C91AE
:10322000282F892F90E04EDB80911E03882329F000
:1032300021E0121B08F410E018830F5F043009F03E
:10324000AECFB39436E0B312A5CF81E094E19915E7
:1032500008F480E0CDB7DEB7EDE00C94E52A0F93DB
:103260001F93CF93DF93C82F809163018C1322C0EB
:1032700090914F0393702091640130E081E09217A8
:10328000130609F480E081708093620180915403F9
:1032900090916101981731F08093610140E060E006
:1032A00080E070DBCF3080F4EC2FF0E0ED57F44D90
:1032B0000C94BE2A81E0E7CF80916201882349F017
:1032C00040E060E080E05EDB80E003C080E691E00B
:1032D0005ADE909160019F5F9093600181110CC054
:1032E00082E080935F0180916201811105C0C1116C
:1032F00003C083E080935F01DF91CF911F910F9115
:10330000089580E691E0D1DCE4CF80E691E0D0DC66
:10331000E0CF80E691E0CFDCDCCF80E691E081DC9D
:10332000D8CF80E691E02FDCD4CF80E691E010DDAD
:10333000D0CF80E691E058DECCCF80E691E0A2DEEF
:10334000C8CF8091600181110BC0809162018823F8
:1033500039F098D825E1829FC00111249093D602BC
:1033600080916001A5DBD92F0091D2021091D30288
:103370002091D4023091D5024091570350915803C7
:103380006091590370915A030417150726073707F0
:1033900008F043C0E091D602E817C8F0E917B8F486
:1033A000F0E0EE5BFE4F808190916101892379F01E
:1033B00069D881FF37C010E070E080E0612FB5D997
:1033C000472F9091D602282F892F90E07BDAD531B4
:1033D00020F158D825E1829FC00111249093D60294
:1033E0006091530380E097E010D820E038E0281B7C
:1033F000390B8091570390915803A0915903B091D4
:103400005A03820F931FA11DB11D8093D202909386
:10341000D302A093D402B093D50281E0D53108F451
:1034200058CF52CF2FD8182F2DD820E8829FC00117
:1034300011247FE7790F80915203C0CF80E691E09D
:103440006FDE47CF80E691E0ECDC43CF80E691E091
:1034500084DD3FCF80E691E08BDD3BCF81E00895B6
:10346000FDCF0895CF93DF93FC018081815020DB55
:10347000EC016D2FF5DF6D2F8C2F0E941D02DF9167
:10348000CF9108954F925F926F927F928F929F9209
:10349000AF92BF92CF92DF92EF92FF92CF93609163
:1034A00001037091020380910303909104030E9431
:1034B00037236B017C010E94B9234B015C01809290
:1034C000010390920203A0920303B0920403A0911F
:1034D000D802E8EDF2E08A2F90E04FEF5FEF60E076
:1034E00070E04C195D096E097F09A9132AC0809309
:1034F000D80280910503C0E0811108C080914F037C
:10350000C82FC37019F0C82FC695C69580915F016A
:10351000813009F440C0882339F1823009F448C071
:10352000833009F44FC0CF91FF90EF90DF90CF90A0
:10353000BF90AF909F908F907F906F905F904F90D3
:103540000895218D328D2901712C612C441555056A
:103550006605770520F481509F5F3296C6CF2C0D0B
:103560003D1D328F218FF8CF10926001809257035A
:1035700090925803A0925903B0925A0389E2E8ED61
:10358000F2E0ABE5B3E001900D928A95E1F781E0BE
:1035900080935F01C8CF8C2F62DECC2321F2809113
:1035A0005F01823009F482DA80E691E05BDFBBCF15
:1035B000C093630180914F038370809364017BD932
:1035C00083E0E6CF8091D702882331F08FE493E047
:1035D0000E94E10B1092D70260915703709158033B
:1035E0008091590390915A030E94372360317105ED
:1035F0008105910508F497CF10925F0194CFE09177
:103600000802F0910902099510925B038FEF9FEF7A
:10361000909375038093740390937703809376035C
:10362000909379038093780390937B0380937A033C
:1036300090937D0380937C0390937F0380937E031C
:1036400090938103809380039093830380938203FC
:103650001092D8029093F2028093F1029093F402B8
:103660008093F3029093F6028093F5029093F80210
:103670008093F7029093FA028093F9029093FC02F0
:103680008093FB029093FE028093FD0290930003CF
:103690008093FF0281E08093D7028FE493E00E9441
:1036A000DF0B1092D70280914F038C7F09F4CCC8B6
:1036B0000895CF93C82F882381F08091050381114D
:1036C0000CC0CDDD1092630180914F038370809315
:1036D0006401F1D883E080935F01C0930503CF912B
:1036E0000895EFE4F3E0908121E092279083109217
:1036F0005F010C940B1381E0F4CF80914F03837032
:1037000011F410925F0180914F038C7F8160809350
:103710004F030895F2DF81E00C940B1380914F0367
:10372000837011F010925F0180914F038C7F809322
:103730004F030895F3DF81E00C940B1390914F0336
:10374000937051F0811109C0946090934F031092CF
:103750005F01862F0C940B1308958F3010F098633F
:10376000F4CF282F220F220F922BEFCF682F9091AA
:103770004F039695969581E0890F8F3008F081E090
:10378000DDCF81E0F3CF682F90914F03969596950A
:103790008FEF890F09F48EE0D1CF81E0F4CF9091C3
:1037A0004F03937061F08093500360935103493C41
:1037B00008F048EC40935203822F0C940B130895A9
:1037C000AFE4B3E01196EC911197F0E0282F139637
:1037D0004C91139712966C91CF014496E0CF81E003
:1037E000EFCFEFE4F3E09181282F43816281E92F4D
:1037F000E451FF0BCF01D3CF81E0F3CFEFE4F3E04F
:10380000628124E1620F08F46FEF9181282F4381D8
:10381000892F90E0C4CF81E0F1CFEFE4F3E0628143
:1038200024E1621B08F460E09181282F4381892FF5
:1038300090E0B5CF81E0F1CFEFE4F3E0438124E104
:10384000420F08F44FEF9181282F6281892F90E079
:10385000A6CF81E0F1CFEFE4F3E0438124E1421B06
:1038600008F440E09181282F6281892F90E097CF62
:1038700081E0F1CFEFE4F3E0248134E1230F08F499
:103880002FEF24830C940B1381E0F4CFEFE4F3E0EB
:10389000248134E1231B08F420E024830C940B13CF
:1038A00081E0F4CF8091540308958093540381E024
:1038B0000C940B13909154039F3F39F0983079F09A
:1038C000E2E0943019F0E0E002C0E0E0EF5FF0E009
:1038D000E450FE4F9081909354030C940B13E1E05D
:1038E000F5CF81E0E7CF90915403E3E09F3F59F09B
:1038F000983039F0943079F0E3E0992319F0E0E062
:1039000002C0E1E0E150F0E0E450FE4F908190937E
:1039100054030C940B13E2E0F5CF81E0E4CF279A37
:103920000895FC01EE0FFF1FE80FF91FEC57FC4F45
:103930006183408322830895E4E8F3E08183608318
:103940004283339693E0E33CF907C1F7089535B11C
:103950003F7725B120684FB7F89484E893E0FC01E5
:103960005191CF0168E025B9000000C057FF35B97B
:10397000550F000000C000C000C035B900C06A95F6
:1039800091F7F3E0833C9F0751F74FBF8FE594E039
:103990000197F1F700C0000008950C94D10B089531
:1039A00080E00E94830F817008950E9434102FEFF1
:1039B00086E791E0215080409040E1F700C0000090
:1039C0000E943410EDDF882311F0E7DF02C708956D
:1039D000ECCF0895CF93DF93EB0186319C4701F53F
:1039E0000E94A10A9D81992391F08A7A91E009F4BD
:1039F00090E090932103811108C089E244D50E9490
:103A00004C0B80E0DF91CF91089585E3F7CF809153
:103A10002103811103C089E24DD5F1CF85E3FCCFAD
:103A200081E0F0CFCF93DF93EC01FB018581882308
:103A300009F4CEC09E0130572332310508F0AEC0E4
:103A400081E493E00E94DB0BFE01E150F047E2329B
:103A5000F10520F4EE56F44D0C94BE2A80914103FA
:103A600081608093410393C080914203886080937A
:103A700042038DC0809141038260F3CF8091410366
:103A80008460EFCF809141038860EBCF8091420347
:103A90008160EDCF809142038260E9CF8091410344
:103AA0008061DFCF809141038062DBCF8091410351
:103AB0008064D7CF0E947006809141038068D1CF87
:103AC000809141038C60CDCF809142038360CFCF42
:103AD000809141038E7FC5CF80914203877FC7CFFE
:103AE000809141038D7FBDCF809141038B7FB9CF02
:103AF00080914103877FB5CF809142038E7FB7CFFE
:103B0000809142038D7FB3CF809141038F7EA9CFF7
:103B1000809141038F7DA5CF809141038F7BA1CF01
:103B20000E947006809141038F779BCF8091410363
:103B3000837F97CF809142038C7F99CF80914103FF
:103B400082FB992790F921E0922790FB82F990FB64
:103B500083F987CF80914203982F909591708E7F43
:103B6000892B90FB81F983CF90914103892F8F7B23
:103B700096FF806476CF0E94700690914103892F52
:103B800097FB87F980586DCF81E00E94E30B81E4B9
:103B900093E00E94DD0B0E94700680E0DF91CF91E0
:103BA000089580E0F2CF90914103892F8F7E94FF9A
:103BB000806157CF90914103892F8E7F90FF816064
:103BC00050CF90914203892F877F93FF88604FCF1A
:103BD00081E0E4CF282F35EB2303C001112497FFA8
:103BE00004C080589109892F089580589F4FFBCFBA
:103BF0008091280380FF0DC060916C0170E0660F1A
:103C0000771F6038710570F56115710569F1862FB0
:103C1000089581FF07C060916C0184E0689FB00146
:103C20001124EFCF60916C0182FD0AC080912703BF
:103C30008823A9F020916B0160916C01821710F02C
:103C400088E0ECCF869FC001112433E0880F991FD4
:103C50003A95E1F7622F70E00E946D2AD2CF68E0BA
:103C600070E0D5CF8FE7089581E008958091280313
:103C700080FF0CC06091680170E07595679575953F
:103C800067956115710549F1862F089581FF06C07A
:103C90006091680170E075956795F3CF6091680158
:103CA00082FD0BC0909126039923A1F060916701DA
:103CB00080916801961738F0682F70E060387105C0
:103CC00000F38FE70895899FC001112470E00E94DE
:103CD0006D2AF4CF61E070E0D7CF81E008958D3C8C
:103CE00029F486DF819580932C0308958E3C11F48E
:103CF0007FDFF9CF8F3C29F47BDF819580932B0305
:103D00000895803D11F474DFF9CF893D21F4AEDFD1
:103D100080932D0308958A3D19F4A8DF8195F8CF8B
:103D20008B3D29F4A3DF819580932E0308958C3D6C
:103D300011F49CDFF9CF9FE2980F983070F4815D09
:103D4000990B21E030E001C0220F8A95EAF78091BB
:103D50002A03822B80932A0308958D3D31F48091AC
:103D6000280381608093280308958E3D21F480917B
:103D700028038260F7CF8F3DB9F7809128038460D4
:103D8000F1CF40912B038D3C59F480912C0387FF98
:103D90000DC010922C0341110BC01092270308C0D4
:103DA0008E3C81F480912C0318169CF3442381F0FF
:103DB00080912D0390912E03892B09F05AC0109207
:103DC000260308958F3C49F447FFF0CF10922B0350
:103DD00080912C038111ECCFE0CF803D19F41416B3
:103DE000ACF3E4CF90912D03893D29F41916F4F634
:103DF00010922D03DBCF8A3D19F497FFD7CFF8CF70
:103E000090912E038B3D29F497FFD0CF10922E0373
:103E1000CDCF8C3D19F41916CCF3C8CF9FE2980F83
:103E2000983090F4815D990B21E030E0B90102C037
:103E3000660F771F8A95E2F7CB01809590912A0350
:103E4000892380932A03B2CF8D3D31F480912803DA
:103E50008E7F80932803AACF8E3D21F48091280382
:103E60008D7FF7CF8F3D09F0A1CF809128038B7F05
:103E7000F0CF089572D49C0190912B0380912C0374
:103E8000982B21F0309325032093240390912D0348
:103E900080912E03982B21F030932303209322034B
:103EA00089E293E0E4C186E0E9E2F3E0DF011D92FC
:103EB0008A95E9F71092270310922603109228039F
:103EC0000895FC01828181110EC0838181110BC094
:103ED0008481811108C091E08581811101C090E049
:103EE000892F8170089581E0FCCFA6E0B0E0EBE778
:103EF000FFE10C94D32A86E0E9E2F3E0DE011196BB
:103F000001900D928A95E1F710922B0310922C03E9
:103F100010922D0310922E038B819C81892B81F0AE
:103F2000809124039091250399D3AC0190912703AC
:103F30009923A9F180916D018417150608F43CC0FE
:103F40008D819E81892B89F080912203909123039A
:103F500085D3AC0190912603992309F463C0809125
:103F600069018417150608F46BC0BE016F5F7F4FAF
:103F700089E293E0CFD2811104C089E293E0A1DF0E
:103F8000811178DF86E0FE013196A9E2B3E001906D
:103F90000D928A95E1F72696E3E00C94EF2A2091A2
:103FA0006E018AE0289F900111242417350740F6FE
:103FB0009F5F9093270302C09F3FD1F71B8111237E
:103FC00051F016DE9FEF11160CF491E0899F802DC1
:103FD000112480932B031C81112351F009DE9FEFE4
:103FE00011160CF491E0899F802D112480932C03ED
:103FF00080912B03882309F4A3CF10912C03112364
:1040000009F49ECFE7DD882349F080932B03812FAD
:10401000E1DD882329F080932C0392CF81E0F5CF56
:1040200081E0F9CF20916A018AE0289F9001112454
:104030002417350708F099CF9F5F9093260302C09D
:104040009F3FD1F71D81112351F010DE9FEF111614
:104050000CF491E0899F802D112480932D031E8103
:10406000112351F003DE9FEF11160CF491E0899FAC
:10407000802D112480932E0380912D03882309F431
:1040800074CF10912E03112309F46FCFA3DD882381
:1040900049F080932D03812F9DDD882329F08093A3
:1040A0002E0363CF81E0F5CF81E0F9CF0F931F930B
:1040B000CF93DF93C42FD22FFC0185818823C1F0D9
:1040C000409331034AD39093300380932F0380E2CF
:1040D0008C0F883040F4C77081E001C0880FCA950A
:1040E000EAF70E945C04DF91CF911F910F91089530
:1040F00010913103141331C080912F03909130033C
:10410000ADD2883C910548F5C0E2CD0F1D17B9F03E
:1041100080E2810F883040F4177081E001C0880F81
:104120001A95EAF70E946104C83048F481E09D2F97
:10413000977001C0880F9A95EAF70E945C04802F5F
:104140000E945504C83078F6D77081E001C0880F0E
:10415000DA95EAF70E946104C6CF80E28C0F8830BE
:1041600010F6C77081E001C0880FCA95EAF7F2CF58
:104170000F93DB0188519C478730910598F5FC012E
:10418000EC54F44D0C94BE2A06E221EE41EE6AE1B5
:104190007CE7CD018BDF80E00F91089507E225EEEB
:1041A00045EE6BE17CE7F5CF06E221EE40EE68E1FB
:1041B0007CE7EFCF07E225EE44EE69E17CE7E9CF4B
:1041C00006E221EE42EE6CE17CE7E3CF07E225EE6A
:1041D00046EE6DE17CE7DDCF08E221E045EE6EE1E1
:1041E0007CE7D7CF15968C91882319F01092310374
:1041F000D3CF81E0D1CF90933703809336030895D6
:10420000F4D191E0813009F090E0892F0895E09198
:104210003603F0913703309739F00190F081E02DAB
:10422000309711F00995089580E00895F0CF089532
:10423000E0913603F0913703309731F00280F3813B
:10424000E02D309709F009950895E0913603F0913B
:104250003703309759F024813581232B39F026E03C
:10426000DC012C930480F581E02D09950895E091FF
:104270003603F0913703309759F026813781232B8D
:1042800039F022E0DC012C930680F781E02D0995BE
:104290000895A3E0B0E0EFE4F1E20C94D42A209179
:1042A00034033091350328173907B1F09093350363
:1042B00080933403E0913603F0913703309761F037
:1042C0000084F185E02D309739F023E029839B832A
:1042D0008A83CE01019609952396E2E00C94F02A98
:1042E000A3E0B0E0E6E7F1E20C94D42A2091320397
:1042F0003091330328173907B1F09093330380933B
:104300003203E0913603F0913703309761F0008477
:10431000F185E02D309739F024E029839B838A834F
:10432000CE01019609952396E2E00C94F02ACF93F2
:10433000DF93C0915901D0915A01229661DF882301
:1043400081F08091410387FF0CC0C0915701D0914B
:10435000580122969EE180E0915028F4DF91CF91A0
:10436000089596E0F8CF29912223B1F38F5FF4CF1F
:10437000CF93C82F811102C080E023C041DF882382
:1043800011F18091410387FF1EC0EC2FE695E69561
:10439000E695EE3188F78091570190915801E80F2A
:1043A000F92FF11D228130E0C77081E090E002C05A
:1043B000880F991FCA95E2F72823392381E0232B20
:1043C000D9F2CF9108958091590190915A01FC0141
:1043D0003296089621912C1721F0E817F907D1F7AA
:1043E000CBCF81E0EECF9C01FC0132969FEF80E0C5
:1043F0004191461751F09F3F19F4411101C0982F88
:104400008F5F8630A9F79F3F09F40895290F311D6A
:1044100097FD3A95F90162830895FC01329608965A
:104420002191261303C0DF0111971C92E817F907A9
:10443000B9F70895E62FE695E695E695EE3168F42E
:10444000E80FF92FF11D677021E030E001C0220F65
:104450006A95EAF78281822B82830895E62FE6959A
:10446000E695E695EE3170F4E80FF92FF11D6770CF
:1044700021E030E001C0220F6A95EAF720958281A1
:10448000282322830895CF93C82FBADE6C2F882368
:1044900059F08091410387FF07C0809157019091A7
:1044A0005801C8DFCF9108958091590190915A0128
:1044B0009ADFF8CFCF93C82FA3DE6C2F882359F053
:1044C0008091410387FF07C0809157019091580167
:1044D000C5DFCF9108958091590190915A019DDFD8
:1044E000F8CF8EDE882379F08091410387FF0BC0DF
:1044F000E0915701F091580132968EE1DF011D9253
:104500008A95E9F70895E0915901F0915A013296A0
:1045100086E0F4CFDC01FB0111969C91119781811B
:10452000981322C012968C911297882319F09281C9
:1045300089131AC013968C911397882319F09381CD
:10454000891312C015968C911597882319F09581BF
:1045500089130AC014969C91992321F081E024814B
:10456000291303C080E001C081E08170089508959F
:10457000FECF089581110CC081E08093720160919B
:104580006F01709170018091710190917201F0CF73
:1045900082E0F3CF83E08093720160916F017091AC
:1045A00070018091710190917201E2CFE3CF089583
:1045B00081E08093720160916F0170917001809130
:1045C000710190917201D4CFF3CF089591E08111E0
:1045D00001C090E09093710160916F017091700142
:1045E0008091710190917201C3CF80917101089502
:1045F0008093700160916F017091700180917101E1
:1046000090917201B5CF80917001089580936F01F0
:1046100060916F01709170018091710190917201B0
:10462000A7CF80916F01089508950895FECF089552
:1046300008950895F9CF0895CF93FADF0E943410BA
:10464000F8DFC0E08C2F0E94830F811105C0CF5F7F
:10465000C630C1F7CF91089581E0FCCFCF93DF93AF
:10466000EC017BD08C1B9D0BDF91CF910895CF92F5
:10467000DF92EF92FF926B017C017BD06C197D0978
:104680008E099F09FF90EF90DF90CF90089585B736
:10469000806885BF85B7806885BF08951F921FB663
:1046A0001F9211248F939F93AF93BF9380913803F0
:1046B000811113C08091C3039091C403A091C503DD
:1046C000B091C6034196A11DB11D8093C303909381
:1046D000C403A093C503B093C603BF91AF919F914C
:1046E0008F911F901FBE1F9018958091CB0384302F
:1046F00031F10E944F031092380388E190E020E4EA
:104700000FB6F894A895809360000FBE20936000C8
:1047100083B7817F846083BF83B7816083BF7894D0
:10472000889583B78E7F83BF0FB6F894A895809144
:104730006000886180936000109260000FBE089551
:104740000E9470060C94580382E084BD93E095BDEE
:104750009AEF97BD80936E0008952FB7F8948091DB
:10476000C3039091C403A091C503B091C6032FBFAA
:1047700008952FB7F8946091C3037091C40380919A
:10478000C5039091C6032FBF089578941F921FB65A
:104790001F9211248F939F93AF93BF938091C30374
:1047A0009091C403A091C503B091C6030196A11DC9
:1047B000B11D8093C3039093C403A093C503B0932A
:1047C000C603BF91AF919F918F911F901FBE1F9005
:1047D000189581E08093E00080E28093D8001092E9
:1047E000C9008FE19EE40197F1F700C0000087E067
:1047F00090EBDC018093D4039093D503A093D60370
:10480000B093D70388E19CE00FB6F894A895809305
:1048100060000FBE90936000FFCF88E19CE00FB670
:10482000F894A895809360000FBE90936000FFCF2E
:104830009B01BA019091CB039430E1F48F70809387
:10484000E9009FEF8091E800915085FD06C085ED5D
:104850008A95F1F700009111F5CF8091E80085FF6E
:1048600009C050E040E0C901BAD18091E8008E77DC
:104870008093E800089543E050E0BC0182E0D8CF87
:1048800046E050E0BC0182E0D3CF40E250E0BC0102
:1048900082E0CECFCF93DF93EC01A7DE48E050E07B
:1048A000BE0181E0C5DF88E0FE01A9E3B3E001902D
:1048B0000D928A95E1F7DF91CF9108958091CA0317
:1048C000811107C01AD371D38091E2008460809374
:1048D000E20008951092CA0308956ADE81E076CE60
:1048E0006091C70381E0611101C080E053CE9091D7
:1048F000CB0381E0943009F080E06091C70356CE8D
:1049000042E061EC81E075D242E261EC82E071D27A
:104910009091CB0381E0943009F080E06091C7036F
:1049200029CE8091CD03833009F45EC030F481300C
:10493000C1F1823009F494C008958A3009F483C02B
:104940008B3009F46BC0893009F04DC08091CC03E5
:10495000813209F048C08091D0039091D103029731
:1049600008F041C08091E800877F8093E800809143
:10497000E80082FF34C09091F3008091F20002972A
:1049800031F48091F100813011F0863019F480917A
:10499000F1002EDE8091E8008B778093E8005DD2F5
:1049A00022C08091CC03813AF1F48091E800877FA6
:1049B0008093E8008091D0039091D103892B59F422
:1049C00068E089E393E070E057D18091E8008B774D
:1049D0008093E800089560E090E080E0F4CF80915B
:1049E000CB038111C4CF08958091CC03813AD9F7CC
:1049F0008091D0039091D103892BA9F78091E80091
:104A0000877F8093E8008091E80080FFFCCFEDDD98
:104A10008093F1008091E8008E77BFCF8091CC0326
:104A2000813209F78091D0039091D103892BD9F677
:104A30008091E800877F8093E8000FD28091CE03B9
:104A4000C5DD0C9470068091CC03813261F68091B3
:104A5000E800877F8093E80000D28091CF03D6CD15
:104A60008091CC03813A09F0BECF8091E800877F26
:104A70008093E8008091E80080FFFCCFD2DDC8CFB2
:104A800084B7877F84BF0FB6F894A89580916000A3
:104A9000886180936000109260000FBE80E890E013
:104AA0000FB6F89480936100909361000FBE8CCD97
:104AB00024D27BD2E2EEF0E080818460808378941F
:104AC000DEC483E791E097CB8091CB03853029F456
:104AD0008091CB03853011F033CE089506DEACDD36
:104AE0008823B1F38091C903882391F362D00E9497
:104AF0007006EECF08959A014091D2035091D303EE
:104B000000C0492F55274330510519F168F4413051
:104B1000510509F444C04230510509F445C090E004
:104B200080E050E040E025C04132510549F1423279
:104B30005105A9F784E490E049E353E0611571055C
:104B4000C1F086EB90E043E852E06130710589F0F6
:104B5000E6CF99278130910581F0009729F00297DF
:104B6000F1F6ECE0F2E002C0E2E3F2E0849190E0E2
:104B7000AF01F901518340830895E8E1F2E0F6CFF7
:104B800089E090E048E452E06115710591F389E015
:104B900090E041E652E06130710559F3C0CF82E107
:104BA00090E041E752E0E5CF8BE390E046E352E04E
:104BB000E0CF80E189BD82E189BD09B400FEFDCF6F
:104BC0008091D8008F7D8093D8008091E000826032
:104BD0008093E0008091E00081FDFCCF0895AF92CA
:104BE000BF92CF92DF92FF920F931F93CF93DF93E9
:104BF0006C01EB018A0150D1F82E811123C00115FF
:104C0000110539F0F80180819181C81BD90BC80EBC
:104C1000D91EB12CA12C2097A9F08091E80085FD28
:104C200021C08091E8008E778093E800011511057E
:104C3000A1F0F80180819181A80EB91EB182A082F5
:104C400085E0F82E8F2DDF91CF911F910F91FF906E
:104C5000DF90CF90BF90AF9008951ED18823D9F2F6
:104C6000F82EF0CFF60181916F018093F10021972A
:104C7000FFEFAF1ABF0ACFCFFC018091D203909112
:104C8000D30386179707A0F06115710529F4909159
:104C9000E8009E779093E80090E06115710551F46B
:104CA000911108C08091E80082FF34C080E008952F
:104CB000BC01F2CF8091CB038823C1F18530C1F1D3
:104CC0008091E80083FD30C08091E80082FDEACF4A
:104CD0008091E80080FFE1CF8091F3002091F20005
:104CE000382F6115710519F02830310558F091E021
:104CF0002830310509F090E02091E8002E772093CC
:104D0000E800CBCF81918093F100615071092F5F52
:104D10003F4FE7CF8091CB03882341F0853041F0AE
:104D20008091E80083FFBECF81E0089582E008957E
:104D300083E00895FC018091D2039091D3038617FC
:104D40009707A0F06115710529F48091E8008E772E
:104D50008093E80090E06115710551F4911108C04D
:104D60008091E80082FF35C080E00895BC01F2CF59
:104D70008091CB038823C9F18530C9F18091E80087
:104D800083FD31C08091E80082FDEACF8091E80088
:104D900080FFE1CF8091F3002091F200382F611560
:104DA000710519F02830310558F091E028303105AF
:104DB00009F090E08091E8008E778093E800CBCFF7
:104DC00084918093F1003196615071092F5F3F4FBC
:104DD000E6CF8091CB03882341F0853041F080916C
:104DE000E80083FFBDCF81E0089582E0089583E06D
:104DF0000895982F973028F08F708093E90081E014
:104E000008959093E900242F762F50E0981731F001
:104E10007091EC002091ED005091F00021FD02C056
:104E20009F5FE8CF3091EB003E7F3093EB003091F5
:104E3000ED003D7F3093ED003091EB003160309319
:104E4000EB007093EC002093ED005093F000209164
:104E5000EE0027FDE5CF80E008958091CC0387FF29
:104E600013C08091E80082FF06C08091E8008B7734
:104E70008093E80004C08091CB038111F2CF0895A4
:104E80008091CB038823D9F38091E80080FFF8CF8D
:104E90008091E8008E77ECCF2091E4003091E5001E
:104EA00095E6A9012091EC00822F817020FF06C0B9
:104EB0008091E80080FF06C080E008952091E8001E
:104EC00022FD1AC08091CB03882389F0853089F0B8
:104ED0008091EB0085FD0FC02091E4003091E5004A
:104EE00042175307F9F29150E1F684E0089582E009
:104EF000089583E0089581E0089567D06ED0E0EED4
:104F0000F0E0808181608083E8EDF0E080818F7740
:104F1000808319BCA7EDB0E08C918E7F8C9380814B
:104F20008F7E80831092CA0308950F931F93CF93AF
:104F3000DF934BD052D0C8EDD0E088818F77888343
:104F400088818068888388818F7D888319BC1092CE
:104F5000CB031092C7031092C9031092C80300EE4E
:104F600010E0F80180818B7F808388818160888355
:104F700042E060E080E03DDFE1EEF0E080818E7FA6
:104F80008083E2EEF0E080818160808380818860B0
:104F90008083F80180818E7F80838881806188830F
:104FA000DF91CF911F910F910895E8EDF0E080819E
:104FB0008F7E8083E7EDF0E080818160808384E0F4
:104FC00082BF81E08093CA03B0CFE8EDF0E080813A
:104FD0008E7F80831092E20008951092DA00109282
:104FE000E10008951F920F920FB60F9211242F9394
:104FF0003F934F935F936F937F938F939F93AF9361
:10500000BF93EF93FF938091E10082FF0AC08091EC
:10501000E20082FF06C08091E1008B7F8093E10077
:105020002DD28091DA0080FF18C08091D80080FFD7
:1050300014C08091DA008E7F8093DA008091D900CD
:1050400080FF91C080E189BD82E189BD09B400FE85
:10505000FDCF81E08093CB0331DC8091E10080FFC4
:1050600018C08091E20080FF14C08091E2008E7F22
:105070008093E2008091E20080618093E200809161
:10508000D80080628093D80019BC85E08093CB0360
:1050900027DC8091E10084FF2AC08091E20084FF38
:1050A00026C080E189BD82E189BD89B5982F9170C4
:1050B00080FFFBCF8091D8008F7D8093D8008091B6
:1050C000E1008F7E8093E1008091E2008F7E8093EB
:1050D000E2008091E20081608093E2008091C7034A
:1050E000882309F445C084E08093CB0300DC8091E1
:1050F000E10083FF27C08091E20083FF23C08091FD
:10510000E100877F8093E10082E08093CB031092DF
:10511000C7038091E1008E7F8093E1008091E200DF
:105120008E7F8093E2008091E20080618093E200B4
:1051300042E060E080E05DDE8091F0008860809376
:10514000F000CBDBFF91EF91BF91AF919F918F91D9
:105150007F916F915F914F913F912F910F900FBE73
:105160000F901F90189519BC1092CB03B3DB75CF2D
:105170008091E30087FD93E09093CB03B7CF1F921C
:105180000F920FB60F9211242F933F934F935F937B
:105190006F937F938F939F93AF93BF93CF93DF933F
:1051A000EF93FF93D091E900DF708091EC00C82F5E
:1051B000C17080FDC0E81092E9008091F000877F07
:1051C0008093F00078941ED01092E9008091F00056
:1051D00088608093F000CD2BCF70C093E900FF91E1
:1051E000EF91DF91CF91BF91AF919F918F917F917F
:1051F0006F915F914F913F912F910F900FBE0F9044
:105200001F901895AAE2B0E0E7E0F9E2CCC18CEC7F
:1052100093E02091F100FC012193CF01F3E0843D64
:105220009F07B9F77EDB8091E80083FF16C180916C
:10523000CC039091CD039A3008F00FC1E92FF0E034
:10524000E554F44D9BC1803899F0823809F005C1CE
:105250008091D0038F70873008F0FFC08093E90001
:105260008091EB0085FB882780F91092E90006C049
:105270008091C8039091C903911182609091E800D8
:10528000977F9093E8008093F1001092F100809155
:10529000E8008E77DFC0882309F4CDC0823009F0A2
:1052A000DCC08091CE038111D0C08091D0038F707B
:1052B0002FEF280F263008F0D0C08093E90020910E
:1052C000EB0020FFC2C0933031F48091EB0080628C
:1052D0008093EB00BAC09091EB0090619093EB004B
:1052E00021E030E001C0220F8A95EAF72093EA001E
:1052F0001092EA008091EB008860EACF8111ADC086
:105300001091CE031F778091E3008078812B8093EA
:10531000E3008091E800877F8093E8009EDD809124
:10532000E80080FFFCCF8091E30080688093E30079
:1053300082E0111183E08093CB038FC080588230CC
:1053400008F08BC08091CE039091CF038C3D23E079
:10535000920799F583E08A838AE289834FB7F894AC
:10536000DE01139620E03EE051E2E32FF0E050939F
:105370005700E49120FF03C0E295EF703F5FEF70AC
:105380008E2F90E0EA30B8F0C7968D939D932F5FF3
:10539000243159F74FBF8091E800877F8093E80060
:1053A0006AE270E0CE01019667DC8091E8008B77BD
:1053B0008093E80052C0C096E8CF6091D00370910E
:1053C000D103AE014F5F5F4F96DBBC01892B09F41F
:1053D00044C09091E800977F9093E80089819A817A
:1053E000A9DCE3CF8038C9F58091E800877F8093FE
:1053F000E8008091C7038093F10049CF81112DC04F
:105400009091CE03923048F58091E800877F809399
:10541000E8009093C70321DD8091C703882311F032
:1054200084E005C08091E30087FDFACF81E080939E
:10543000CB0366DA12C08091CE03813071F481E033
:10544000933009F080E08093C9031092E9008091C5
:10545000E800877F8093E80000DD8091E80083FF0B
:105460000AC08091E800877F8093E8008091EB007C
:1054700080628093EB00AA96E3E0B1C00895CF93D9
:105480008091CB03882399F0C091E900CF7090916F
:10549000EC00892F817090FD80E8C82B1092E90004
:1054A0008091E80083FDAEDECF70C093E900CF911C
:1054B0000895AA1BBB1B51E107C0AA1FBB1FA6175B
:1054C000B70710F0A61BB70B881F991F5A95A9F7AD
:1054D00080959095BC01CD01089597FB072E16F499
:1054E000009406D077FD08D0E4DF07FC05D03EF439
:1054F000909581959F4F0895709561957F4F089580
:10550000A1E21A2EAA1BBB1BFD010DC0AA1FBB1FC7
:10551000EE1FFF1FA217B307E407F50720F0A21B39
:10552000B30BE40BF50B661F771F881F991F1A94A6
:1055300069F760957095809590959B01AC01BD01D0
:10554000CF010895052E97FB16F400940FD057FD58
:1055500005D0D6DF07FC02D046F408C05095409530
:10556000309521953F4F4F4F5F4F0895909580950F
:10557000709561957F4F8F4F9F4F0895EE0FFF1FDE
:105580000590F491E02D09942F923F924F925F92F3
:105590006F927F928F929F92AF92BF92CF92DF9243
:1055A000EF92FF920F931F93CF93DF93CDB7DEB7A8
:1055B000CA1BDB0B0FB6F894DEBF0FBECDBF09943C
:1055C0002A88398848885F846E847D848C849B8493
:1055D000AA84B984C884DF80EE80FD800C811B81A1
:1055E000AA81B981CE0FD11D0FB6F894DEBF0FBED0
:1055F000CDBFED010895FB01DC0104C08D91019048
:10560000801921F441505040C8F7881B990B089528
:10561000FB01DC0102C001900D9241505040D8F7CF
:105620000895DC01CB01FC01F999FECF06C0F2BD63
:10563000E1BDF89A319600B40D9241505040B8F750
:105640000895F999FECF92BD81BDF89A992780B54A
:105650000895A8E1B0E042E050E0E5CFDC01A40FFE
:10566000B51F4150504040F0CB01840F951F2E9143
:1056700005D041505040D8F70895262FF999FECF14
:1056800092BD81BDF89A019700B4021639F01FBA95
:1056900020BD0FB6F894FA9AF99A0FBE08950396B2
:1056A000272FECDFEADF252FE9DF242FE7CF019654
:1056B000272FE4DFE2CFF894FFCFA404A404DA0498
:1056C000DA0433054F05CC04CC045305BC05C805EA
:1056D000C805D710DF10E410E910EE10F310F81031
:1056E000FD10021107110C1128112F113211351163
:1056F0003A113F11441149114E11531158115D11C6
:10570000621167116C115C19661981198519891963
:105710008D199119951999199D19A1191E1A221AF5
:10572000261A2A1A681DDA1D701D3A1D3E1D741DA9
:10573000421D781D841D4E1DD31D521D881D561DF2
:105740008C1DB41D5A1D901DBB1D601D961D9E1DF8
:10575000461D7C1D4A1D801D641D9A1DAA1DC41D69
:10576000D11D341D6C1DE11DD420DA20C420CE20B3
:10577000E020E620EC2023294B292D2A4B292D2A35
:0A5780007E299E292D2AF229FE2918
:10578A00111213140D0E0F100A0B0CFF060708094D
:10579A00030405FF00FF010225409540E03A00336B
:1057AA004B33953300264B269526E01F00194B19DB
:1057BA009519000C4B0C950CE00C00004B00950061
:1057CA00E0000404040404040404040404040408B3
:1057DA00040404040404049402B402160016000328
:1057EA0000FF00FFFF3905280850011E0A140100B6
:1057FA0000010003234A24452440243B2400FFC817
:10580A00E200E900EA00B500B600B700CD00830166
:10581A00CC008A019201940121022302240225026A
:10582A00260227022A02B300B4006F0070009F010B
:10583A00CB019F02A002818283E200E900EA00B55F
:10584A0000B600B700CD008301CC008A0192019412
:10585A00012102230224022502260227022A02B378
:10586A0000B4006F0070009F01CB019F02A002816B
:10587A008283F7C66795F0F1F4F5F634FF08040061
:10588A00003131295A1B750A8F1C911C9C1CA71CBC
:00000001FF
