:100000000C943A020C9472020C9472020C947202D8
:100010000C9472020C9472020C9472020C94720290
:100020000C9472020C9472020C943D200C941121D9
:100030000C94AB1B0C9472020C9472020C9472021E
:100040000C9472020C9472020C9472020C94720260
:100050000C9472020C94071C0C9472020C947202A1
:100060000C9472020C9472020C9472020C94720240
:100070000C9472020C9472020C9472020C94720230
:100080000C9472020C9472020C9472020C94720220
:100090000C9472020C9472020C9472020C94720210
:1000A0000C9472020C9472020C94720229001E00CD
:1000B0001F0020002100220023002400250026002C
:1000C00027002D002E004C002A003A003B002B0098
:1000D00014001A000800150017001C0018000C007E
:1000E000120013002F00300031004A003C003D0098
:1000F000390004001600070009000A000B000D007B
:100100000E000F0033003400000028004D003E00B8
:100110003F00E10000001D001B0006001900050063
:1001200011001000360037003800E500520021525F
:1001300040004100E000E300E20000000000000099
:10014000000000002C00E600E700500051004F00C6
:1001500046004200430001003A003B003C003D00E5
:100160003E003F0040004100420043004400450083
:100170000100460001000100007C20782178010088
:100180006B006C00010001000100010001004B0048
:100190004E0001000100010001000100010001000A
:1001A0000100010001005000510052004F004A00C0
:1001B0004D000000010001000100010001000000ED
:1001C0000100010001000100010001000100010027
:1001D0000100010001000100010001000100010017
:1001E000010001000000000000000000000001000C
:1001F00001000100010001000100010001000100F7
:1002000000010101010101010101020202020202D9
:1002100002020203030303030303030404040404AC
:100220000404050505050506060606060707070773
:100230000708080808090909090A0A0A0B0B0B0C28
:100240000C0C0D0D0D0E0E0E0F0F0F1010111111C5
:100250001212131314141515161617171818191946
:100260001A1A1B1B1C1D1D1E1E1F202021222223AB
:100270002424252626272829292A2B2C2D2D2E2FEC
:1002800030313232333435363738393A3B3C3D3E03
:100290003F404142434445464748494A4C4D4E4FF2
:1002A00050515354555658595A5B5D5E5F616264B4
:1002B000656668696B6C6D6F7072737577787A7B41
:1002C0007D7E8082838587888A8C8E8F9193959698
:1002D000989A9C9EA0A2A3A5A7A9ABADAFB1B3B5B8
:1002E000B7BABCBEC0C2C4C6C9CBCDCFD1D4D6D894
:1002F000DBDDDFE2E4E7E9EBEEF0F3F5F8FAFDFF32
:100300000A034E00690063006F0000001A034E00EC
:10031000650073006F006E002000440065007300EC
:10032000690067006E0000000403090409023B0035
:10033000020100A0FA0904000001030101000921E3
:10034000110100012244000705810308000109048E
:100350000100010300000009211101000122B60083
:100360000705820320000112010002000000086559
:100370004E656E01000102000105010902A101851F
:10038000020901A100050919012908150025019597
:1003900008750181020501093009311581257F9514
:1003A000027508810609381581257F950175088138
:1003B00006050C0A38021581257F9501750881060E
:1003C000C0C005010980A101850319012AB70015E4
:1003D0000126B700950175108100C0050C0901A127
:1003E00001850419012AA002150126A002950175B4
:1003F000108100C005010906A1018506050719E065
:1004000029E71500250195087501810205071900E6
:1004100029EF1500250195F07501810205081901E4
:100420002905950575019102950175039101C00596
:10043000010906A101050719E029E7150025019525
:1004400008750181029501750881010507190029C8
:10045000FF150026FF0095067508810005081901A3
:100460002905150025019505750191029501750372
:100470009101C00011241FBECFEFDAE0DEBFCDBF77
:1004800004B603FE18C08091120390911303A0914B
:100490001403B09115038730904BA740B04B59F42B
:1004A000109212031092130310921403109215036A
:1004B000E0E0F8E3099511E0A0E0B1E0EEE2F8E455
:1004C00002C005900D92AA3AB107D9F723E0AAEA33
:1004D000B1E001C01D92A231B207E1F70E94E11123
:1004E0000C94C1230C9400008230B8F46530A8F459
:1004F000413198F450E091E1699F400D511D112464
:10050000FA0195E5899FE00DF11D1124EE0FFF1F03
:10051000E455FF4F85919491089581E090E008950E
:100520000E947402089581E008950E949302089544
:1005300081E008950E94930208950E949A0208950E
:1005400008950E94A0020895A6E0B0E0EAEAF2E071
:100550000C94F52249835A839E833091B10189819D
:100560009A8131111AC03E81332399F0222389F0F8
:100570000E944308182F682F89819A810E941F08C2
:1005800069817A81812F0E94770F2696E3E00C948F
:1005900011230E943108182FF3CF0E94430869816C
:1005A0007A81F1CFFC01262F4081518162817381D4
:1005B000848195810E94A4020895CF93DF93EC017A
:1005C00061E00E94D202BE010E949502DF91CF91AC
:1005D0000895CF93DF93EC0160E00E94D202BE0148
:1005E0000E94A102DF91CF91089581E008950E94B9
:1005F000F5020895CF93C82F0E94F4068C2F0E9415
:10060000F7022FEF84E39CE0215080409040E1F717
:1006100000C00000CF91089581E00E94FA020E947C
:100620002B1C089580E00E94FA020E944F1C08953E
:100630000F931F93CF93DF938C0161E00E94D2024E
:10064000EC01F801858181110E94EB14B801CE0103
:100650000E949D02811106C080E0DF91CF911F9121
:100660000F910895B801CE010E9499198823A1F332
:10067000B801CE010E94C315882371F3B801CE01E1
:100680000E949915882341F3B801CE010E94F3140A
:10069000882311F3F8018581882361F0C330FCE7DA
:1006A000DF07E9F058F4C115ECE7DE07A9F0C13027
:1006B000DC47B9F0C8010E949802CFCFCB358CE758
:1006C000D807A9F0CC35ECE7DE0771F0CA35DC4776
:1006D00089F70E948A0CEECF0E940C03BDCF0E94C6
:1006E000920C0E941203B8CF0E94800CE3CF0E94AC
:1006F0008E0CE0CF0E94A3030E94A11B08950895D1
:1007000081E0089581FF02C0729A08957298089559
:10071000CF93DF93D82F0E948003C82F882319F02E
:100720008D2F0E9482038C2FDF91CF9108956A9ABA
:1007300072980895CF93C82F0E947F038C2F0E9438
:100740008803CF9108950E94E2190E949A030895A8
:10075000CF930E94E219C82F8091AC018C1779F0D9
:10076000C093AC010E94EC1B6093AD017093AE018D
:100770008093AF019093B0018C2F0E949A03CF9188
:100780000895ADE0B0E0E7ECF3E00C94F622488782
:1007900059876A877B878C879D8791110E94900B70
:1007A0001F8286E0FE013896DE01119601900D92BF
:1007B0008A95E1F78D8181110DC029813A814B81A4
:1007C0005C816D817E818F810E94DA0A2D96E2E044
:1007D0000C941223CE0101960E94DD028111EDCF0F
:1007E000F5CFFC012481213021F4808191810E9488
:1007F00075080895662329F00E9424170E9409189D
:1008000008950E949017FACFCF93C82F882399F0AC
:100810008CEF8C0F813A88F48C2F0E94821A8823E7
:1008200029F08C2F0E94221B0E94240C8C2F0E94E6
:100830000B1B0E94240CCF91089580E28C0F88300E
:1008400048F4C77081E001C0880FCA95EAF70E949A
:10085000730BEFCFEBE5EC0FE33040F4F0E0EE5A32
:10086000FE4F808190E00E94161AE5CFE8E5EC0F7C
:10087000EB3150F4F0E0EE0FFF1FE45EFE4F80819D
:1008800091810E943B1AD7CF83E38C0F833198F676
:1008900061E08C2F0E94FA03CECF882381F19CEF78
:1008A000980F913A28F40E94221B0E94240C08956C
:1008B00090E2980F983050F4877091E001C0990F42
:1008C0008A95EAF7892F0E94790BEFCF9BE5980F65
:1008D000933028F490E080E00E94161A089598E57D
:1008E000980F9B3128F490E080E00E943B1A089515
:1008F00093E3980F933118F460E00E94FA0308958F
:100900001F93CF93DF93182FEB010E9404042097CD
:1009100039F4812F0E944D04DF91CF911F910895EA
:100920008FE99FE00197F1F700C000002197EFCF1A
:1009300070E060E0893311F460E570E00E948004AB
:100940000895882321F00E94730B0E94240C0895BF
:10095000882321F00E94790B0E94240C0895B0E0B6
:10096000A0E0E5EBF4E00C94EF226C01D62FC72F4A
:10097000FC011581068102950F700E94690BE82E1B
:100980008823F9F0E12E1123E1F08C2F807F803451
:1009900061F080E28D0F883008F18C2F807E8032EC
:1009A00021F4D230D8F00023C9F08091C10282FF37
:1009B00015C082E00E94540C0E94690B91E0E82E61
:1009C000E926BC2EB2949FE0B922FBE0FB15B8F1FA
:1009D000EB2DF0E0ED53FC4D0C94E022E12CF1CF37
:1009E0000C2F0F70C07F11F00295007F112399F03A
:1009F000002359F080E28D0F883010F0D11107C02C
:100A0000802F0E94730B0E94240C8D2F5AC0802FC0
:100A10000E94830BF8CF8D2F0E944D04002379F0A4
:100A200080E28D0F883010F0D11104C0802F0E9419
:100A3000790B03C0802F0E94890B0E94240CEB2DA0
:100A4000E850FF0B349720F40E94E2190E949A03A9
:100A5000EE2089F00E94650B80FD0DC0F601158225
:100A60000E945F0B0E947D07C6010E94BB060E9488
:100A70005F0B0E948D07CDB7DEB7E9E00C940B2326
:100A80002C2F2F70F22EC07FC03219F0F29480EF1D
:100A9000F822DD2341F0D130D1F1112309F444C013
:100AA0000023F1F0B2CF8091C10282FD15C0112365
:100AB00059F0FF2029F08F2D0E94730B0E94240C07
:100AC00080E00E940404BBCF80E00E944D04FF2020
:100AD00009F4B5CF8F2DABCF112369F0011104C0FC
:100AE0008F2D0E94A104ABCF013009F0A8CF8F2D2C
:100AF0000E94A70BA4CF0111A2CF8F2D0E94A804A2
:100B00008F2D0E94B30B8F2D0E94970B98CF11232E
:100B100021F0063008F093CFE3CF053008F08FCFF7
:100B20008F2D0E94A8048BCF0023D1F3D93349F431
:100B30003FEF87EE93E0315080409040E1F700C0F6
:100B400000008D2F0E944D047ACF8C2F86958695BC
:100B5000837069F0813009F072CF8D2F9C2F9370D4
:100B6000111102C080E090E00E943B1A68CF8D2FE7
:100B70009C2F9370111102C080E090E00E94161A21
:100B80005ECF612F8D2F0E94FA0359CF8C2F837077
:100B9000A1F5111154CF4D2F429546954770440F42
:100BA000440F2D2F2F7030E0042E02C0220F331F70
:100BB0000A94E2F790E080E0D4FF09C08FE090E073
:100BC00002C0880F991F4A95E2F780959095C695C7
:100BD000C695C370822B932BC23049F058F4C130B4
:100BE00019F00E944D072BCF0E94440728CF0E9486
:100BF000560725CF0E94410722CF8695112311F079
:100C00008C2F8170882309F41ACF4D2F4295469579
:100C10004770440F440F2D2F2F7030E0042E02C078
:100C2000220F331F0A94E2F790E080E0D4FF09C05E
:100C30008FE090E002C0880F991F4A95E2F78095F7
:100C40009095C695C695C370822B932BC23049F000
:100C500058F4C13019F00E94B807F1CE0E94AF07D6
:100C6000EECE0E94C107EBCE0E946507E8CECF70A2
:100C7000112329F08C2F0E947D078D2F32CF8D2FCD
:100C80000E94A8048C2F0E948D07D9CED23F41F13B
:100C900060F4D03FB9F0D13F81F0112309F443C093
:100CA0000111B3CE8C2F8F711FC0D33F01F1D43F00
:100CB000A1F78091C10282FD24C08C2F8F71112376
:100CC00011F312C0112341F0053008F0B8CE8C2F7B
:100CD0008F710E949F07B3CE063008F0B0CEF7CFD9
:100CE0008C2F8F711111CFCF0E947D07A8CE1123B9
:100CF00029F08C2F8F710E947107A1CE0E946C0782
:100D00009ECE112331F063E08C2F8F710E94360C40
:100D100096CE81E00E94540C023008F490CE82E01E
:100D20000E94540C8CCE002359F0D93309F009CF1E
:100D3000EFEFF7EE23E0E150F0402040E1F7FFCE87
:100D40008C2F8F71A0CF0F931F93CF93DF93EC0164
:100D5000688179818D810E9480088C010E94CA0778
:100D60000E944007B801CE010E94AF04DF91CF91ED
:100D70001F910F910895CF93DF93EC018C8188230D
:100D800099F0CE010E941803811111C00E94690BD5
:100D9000882351F08D81882339F08091C10282FF30
:100DA00003C082E00E94540CDF91CF910895CE01E0
:100DB0000E94A306CE010E94E902F6CF90E080E0F7
:100DC0000E94161A90E080E00E943B1A0E94900B4D
:100DD0000E94240C0E9425180E94091808950E9460
:100DE000391B0E94DE0608950E94800B0E94EF06C8
:100DF000089592959F70963091F058F4925F9F708D
:100E0000923058F4803F19F030F4883E30F481E09D
:100E100008959A5FF4CF843FD1F380E00895883E2F
:100E2000B0F3813FD1F7F3CFFC012481222339F0C5
:100E3000808191810E9475080E94F906089580E0E2
:100E40000895A6E0B0E0E7E2F7E00C94F6222696DB
:100E5000E2E00C941223A7E0B0E0E1E3F7E00C94A9
:100E6000F6222796E2E00C94122308950E9435079B
:100E700008950E9436079093E1018093E001089560
:100E800008950E94390708952091E0013091E10111
:100E9000822B932B0E94390708952091E001309115
:100EA000E101822393230E94390708952091E001F4
:100EB0003091E101822793270E94390708950E940B
:100EC000350708950E945F0708950E946207909376
:100ED000DF018093DE01089590E080E00E946507C5
:100EE000089521E030E0A90102C0440F551F8A9502
:100EF000E2F7CA010E946507089521E030E002C0D0
:100F0000220F331F8A95E2F78091DE019091DF0175
:100F1000822B932B0E946507089521E030E002C0E8
:100F2000220F331F8A95E2F7209530958091DE01DC
:100F30009091DF01822393230E946507089521E0A9
:100F400030E002C0220F331F8A95E2F78091DE0164
:100F50009091DF01822793270E94650708952091D1
:100F6000DE013091DF01822B932B0E9465070895EB
:100F70002091DE013091DF01822393230E946507D7
:100F800008952091DE013091DF01822793270E948E
:100F9000650708950895262F277091E001C0990FE5
:100FA0002A95EAF723E0769567952A95E1F7660F8B
:100FB000771F660F771FFA01E60FF71F50E040E03A
:100FC000682F70E08191DF0111979B01042E02C010
:100FD000369527950A94E2F7217021952827292331
:100FE00028272C934F5F5F4F4430510559F70895E0
:100FF000A82FA77023E0969587952A95E1F7880F8B
:10100000991F880F991FFB01E80FF91F50E040E07E
:1010100080E0219130E00A2E02C0369527950A948F
:10102000E2F721703327042E01C0220F0A94EAF759
:10103000822B4F5F5F4F4430510559F70895262F9B
:10104000953070F4813160F4682F70E081E1989FF1
:10105000600D711D112442EB51E0822F0E94CB07DD
:101060000895292F953068F4813158F490E062EBAF
:1010700071E031E1239F800D911D11240E94F8073A
:10108000089580E00895B0E0A0E0E9E4F8E00C9471
:10109000EF227C010091DE011091DF018091E001DF
:1010A0009091E101082B192BCFE0D0E0CC24C39420
:1010B000D12CBC2EC6010C2E02C0880F991F0A9499
:1010C000E2F780239123892B49F4219790F7B12CE3
:1010D0008B2DCDB7DEB7E9E00C940B23B7018C2F35
:1010E0000E94830F019789F3F3CFCF93DF93EC0135
:1010F0000E944308BE010E94830FDF91CF910895A3
:101100001F93CF93DF93EB019091B101992339F0B5
:10111000CB010E947508DF91CF911F91089588231C
:1011200069F0CB010E944308182F682FCE010E945E
:101130001F08BE01812F0E94830FEDCFCB010E94BB
:101140003108182FF6CF1F93CF93DF93C091E201A0
:1011500017E08091E3018C1304C0DF91CF911F91C0
:101160000895D0E01C9FF0011D9FF00D1124EC515B
:10117000FE4F208131814281538164817581868156
:101180000E942B072196C770E4CF20911C0230915A
:101190001D0240911E0250911F0260912002709129
:1011A0002102809122020E942B070895CF93DF93A2
:1011B00080912202807F09F04DC080912102882316
:1011C00009F448C0E091E2015091E301C0911D0291
:1011D000D0911C0260911E0270911F0247E05E17C1
:1011E000C9F18E2F90E0E49FF0011124EC51FE4FE5
:1011F0002481222391F1489FF001499FF00D112491
:10120000DF01AC51BE4F11962C9111972C1325C0C4
:101210002C912D1322C015962C91159721111DC0CC
:1012200012962D913C91261B370B283C3105A8F4D2
:10123000809122028F70806180932202E651FE4FDE
:1012400080818F70806180838CE192E00E94BB0678
:101250000E94A308DF91CF910895FC013196E770B9
:10126000BECF482F2091E2019091E30157E029136E
:1012700002C080E0089530E0529FF001539FF00DCE
:101280001124EC51FE4F8181681306C08081481300
:1012900003C085818111EECF2F5F3F4F2770E7CFCD
:1012A000A4E1B0E0E6E5F9E00C94EC228C0186E0E4
:1012B000F801DE011F9601900D928A95E1F7F80181
:1012C0008481E5809CE1A92E92E0B92E90912002C4
:1012D00091111FC08823D1F0EE20A9F0C8010E940F
:1012E0001407F82E882379F087E0F801D5010190E2
:1012F0000D928A95E1F7C5010E94F1030E94D6087C
:101300000E94C5085FC0C8010E94BB06FF24F39479
:1013100059C0C080D18082809380F09021022091BA
:101320001E0230911F02A401421B530BFF2009F43F
:10133000F9C0483C510508F0A7C0882309F442C011
:1013400090911D0280912202282F207F09F05CC01D
:101350009D1116C090911C02C91212C0E1104EC01E
:101360008F708061809322020E94C5088CE192E018
:101370000E94BB0680912202F8018683F12C22C0D4
:10138000E1103CC06D2D8C2D0E9431096D2D8C2DEE
:101390000E943109E82E8111F1CFCF86D88A8F853E
:1013A00098890E947508292F22952F70243078F48F
:1013B0009F702230A8F09923B9F0F8019681907FB0
:1013C00099F4FE2C8F2D6496ECE00C9408232A5F90
:1013D0002F70223068F0C8010E94BB06EF2CF1CFBD
:1013E000992311F0882369F3805E883050F3F3CF9E
:1013F000803F38F3815F833070F7E3CF8091220222
:10140000816080932202BACF9D1113C090911C027B
:10141000C9120FC0E1100DC08683C8010E94BB062F
:1014200087E0F801ACE1B2E001900D928A95E1F716
:1014300067CFC8010E941407882309F464CFEE2007
:1014400009F461CF80912202803288F020911C0241
:1014500030911D02398728879B868A8690912002C9
:101460009C871D868E87CE0108960E94BB0687E06A
:10147000F801ACE1B2E001900D928A95E1F70E948B
:10148000D6080E94C50842CF90912202292F207FC2
:10149000A1F4682D9A8A898AA6017A899E2D0E94D4
:1014A00021078CE192E00E94BB0687E0F5011192D2
:1014B0008A95E9F70E94C50861CF882309F482CF95
:1014C00080911D028D1110C080911C02C8120CC0A9
:1014D000E1100AC09683C8010E94BB0687E0F501AF
:1014E00011928A95E9F76ECFC8010E9414078823EC
:1014F00009F409CFEE2009F406CF80912202803250
:1015000008F4B5CF20911C0230911D023A83298343
:101510009C828B82909120029D831E828F83CE01BC
:101520000196A3CF483C5105B8F5882309F4EECEC7
:10153000FE2CEE2009F4E7CE80911D028D111EC015
:1015400080911C02C8121AC08091220280FD0DC039
:10155000982F907F51F08683903F09F45ECF982FAB
:10156000907F905F8F70892B57CF87E0F801ACE1B7
:10157000B2E001900D928A95E1F724CFC8010E9454
:101580001407811174CF809122028160809322021E
:10159000C8010E94BB0616CF682D9A8A898AA601C7
:1015A0007A899E2D0E94210787E0F50111928A9584
:1015B000E9F7A6CEAEE0B0E0E0EEFAE00C94F5225A
:1015C000288739874A875B876C877D878E87CE011E
:1015D00008960E9450098823B1F06C85662341F07B
:1015E000288539854A855B857D858E850E942B07F8
:1015F00017E08091E2019091E30189133DC02E969E
:10160000E3E00C94112387E0FE013896DE01119689
:1016100001900D928A95E1F78C85882349F32091FA
:10162000E30130E0C9010196877099274091E201FA
:101630004817190699F097E0929FD001939FB00D3B
:101640001124AC51BE4FFE01319601900D929A9536
:10165000E1F78093E3010E94A308CACF0E94F40639
:101660001092E3011092E20187E0ECE1F2E0DF0189
:101670001D928A95E9F7BCCF819FC00111248C513E
:101680009E4F0E945009882309F4B9CFE091E201EE
:101690001E9FF0011124EC51FE4F208131814281C7
:1016A00053816481758186810E942B078091E201BC
:1016B00090E00196877099278093E2019ACF8091FC
:1016C0004B02869586958695089580914B0287708A
:1016D000089590914B02977081E009F480E008959D
:1016E00080917702089590917702892B80937702F9
:1016F00008958095909177029823909377020895AA
:1017000010927702089590917602892B8093760249
:10171000089580959091760298239093760208958B
:1017200010927602089508950E94930B0895909167
:101730004C02292F282331F08095892380934C0275
:101740000E94940B089508950E94A30B0895909110
:101750004D02292F2823281729F0982B90934D020A
:101760000E94A40B089590914D02292F282331F057
:101770008095892380934D020E94A40B0895809147
:101780004D02882329F010924D0280E00E94A40BA4
:101790000895CF93C091770280917602C82B8091F3
:1017A0004D02882331F0C82B0E94601A81110E94DB
:1017B000BF0B8C2FCF910895CF93DF93C09102017F
:1017C000D09103010E94C90B8883C0910201D0917E
:1017D000030148E050E063E472E0CE010E9453232D
:1017E000892B59F088E0FE01A3E4B2E001900D924C
:1017F0008A95E1F7CE010E94EF19DF91CF9108950C
:10180000CF93DF93C0910001D09101010E94C90BD9
:101810008983C0910001D091010140E250E063E270
:1018200072E0CE010E945323892B59F080E2FE0121
:10183000A3E2B2E001900D928A95E1F7CE010E94F9
:10184000FA19DF91CF91089580911B01882339F017
:101850008091C00287FF03C00E94000C08950E947F
:10186000DC0B089508950E94320C08959091C102F6
:1018700092FF11C098E0899F90011124622B609320
:101880004B020E947D0780914B0286958695869536
:101890000E94330C08950E947D07089510924B0218
:1018A00080E00E94330C089590914B02809589232B
:1018B00080934B02282F277069F4891759F0909173
:1018C000C10292FF07C08695869586950E948D0776
:1018D0000E944E0C08959091C10292FB222720F99C
:1018E000281769F080FB92F99093C1028091C002A1
:1018F0009091C1020E94B30C82E00E94540C0895A2
:101900008091C10282FB882780F991E089270E949B
:101910006B0C089581E00E946B0C089580E00E949A
:101920006B0C08956FEF7FEF90E080E00E94AB2397
:10193000089590E080E00E94772321E0853E9E4F4D
:1019400009F020E0822F089582E090E00E94692350
:10195000089583E090E00E946923089584E090E078
:101960000E9477230895BC0184E090E00E94AB239D
:101970000895AB01BC018FE090E00E949F23089581
:10198000AB01BC0183E190E00E949F23089560E0D9
:1019900070E0CB010E94C00C089560E070E0CB01C4
:1019A0000E94B90C0E94C70C0895A8E0B0E0EBEDCE
:1019B000FCE00C94F62265EE7EEF90E080E00E9461
:1019C000AB2360E082E090E00E948D2381E090E014
:1019D0009093E1018093E00161E083E090E00E9458
:1019E0008D2360E074E184E090E00E94AB2360E02E
:1019F00086E090E00E948D2360E087E090E00E9406
:101A00008D2340E050E0BA0188E090E00E949F23DF
:101A100060E083E290E00E948D2360E08CE090E043
:101A20000E948D2360E08DE090E00E948D2319825A
:101A30001A821B821C821D821E821F82188648E029
:101A400050E067E170E0CE0101960E947D2340E006
:101A500050E0BA018FE190E00E949F230E94CD0CDC
:101A60002896E2E00C9412230E94D50C0895682F6A
:101A70008EE090E00E948D230895A6E0B0E0E3E4BC
:101A8000FDE00C94F4220E94E01B8C01809178020E
:101A9000909179028017910781F019821A820E9431
:101AA000E01B682F49815A81792F80E090E00E94E5
:101AB000C10310937902009378022696E4E00C9417
:101AC00010230E94EC1B6093920270939302809308
:101AD00094029093950260938E0270938F0280938C
:101AE0009002909391020895089508950E94740DB4
:101AF000089508950E94790D089589E790E10E9464
:101B0000F6110E94750D0E94760D089581E00895EA
:101B10000E94860D08950E94860D089508950895E7
:101B20000E948E0D0E948F0D08950E94990C8111C4
:101B300002C00E94340D0E94A40C809396020E9461
:101B4000AE0C9093C1028093C0020E9496150E9431
:101B5000A90C90E00E9441078091DE019091DF0185
:101B60000E94620708950E94D71B0E9450110E9494
:101B7000950D0E9497030E94AC140E947A0D08955F
:101B8000A8E0B0E0E6ECFDE00C94E6220E94880DAF
:101B900081110CC00E943D0D0E94EC140E94471858
:101BA0000E94A8032896E2E10C9402230E94661189
:101BB0008AE792E098878F837C0110E0F7014190DB
:101BC0005190619071907F01812F0E9483101F5F5F
:101BD000153009F467C0461657066806790671F392
:101BE0008091960281FD0E948E100E948B0D282EFE
:101BF00010E033243394812F0E9483106B017C0109
:101C0000EF81F8854190519061907190F887EF8352
:101C1000C414D504E604F704F1F100E0812C912C02
:101C2000540183944C245D246E247F24D301C2018B
:101C300088219921AA21BB21892B8A2B8B2BE9F0A2
:101C40002220D9F009831A830E94E01B9C838B8396
:101C50003D8221E0D701C60188219921AA21BB211B
:101C6000892B8A2B8B2B09F420E049815A816B81C7
:101C70007C818D81922F0E94C1030F5F880C991C7B
:101C8000AA1CBB1C013191F6EF81F8853497C08204
:101C9000D182E282F3821F5F153009F0ACCF0E943F
:101CA000610D7ACF461657066806790609F098CF77
:101CB00071CF1F93CF93DF930E94880FEC01C11562
:101CC00080E5D807F0F5C11580E4D80708F09CC07E
:101CD000C03ED10520F5CD3CD10508F082C0C83A00
:101CE000D10578F4C53AD10508F073C0C130D105EB
:101CF00019F1209709F1C430D105F0F4D0E0C0E02B
:101D00001BC0C33CD105D0F7C85AD0E0CC0FDD1FB3
:101D1000CB5ADE4F0990D881C02DD4640DC0C115B7
:101D200080E2D80708F0D1C0C11581E0D80708F0DB
:101D30005AC0C83ED10510F7CE01DF91CF911F9157
:101D40000895C03682E5D80718F5C03482E5D80773
:101D500008F06BC0C03282E5D80708F05FC0C1153B
:101D600082E5D80708F497C02C2F2695269580E2A7
:101D7000289F900111248C2F8370C1E0D0E002C015
:101D8000CC0FDD1F8A95E2F7C22BD32BDD68D4CFB1
:101D9000C03A82E5D80760F4C03882E5D80708F475
:101DA00059C0CF71D0E0DC2FCC27C46FD06AC4CF2C
:101DB000C03C82E5D80708F462C0C03E82E5D8077F
:101DC00008F09CCFDC2FCC27CC27DF71C06FD06A06
:101DD000B3CFC55AD0E0C557DE4FC881D0E0D0643C
:101DE000ABCFD065A9CF8D2F0E942A10182FCE011E
:101DF00099270E94880FC12FD0E0DC2FCC27CC2759
:101E0000DF71C82BD92B98CFCE0199270E94880F5C
:101E1000CC27DF70C82BD92BD06A8ECFCF71D0E002
:101E2000DC2FCC27C16FD06A87CF2C2F2695269523
:101E3000277080E2289F900111248C2F8370C1E0CD
:101E4000D0E002C0CC0FDD1F8A95E2F7C22BD32B66
:101E5000DC6872CF2C2F26952695277080E2289F6C
:101E6000900111248C2F8370C1E0D0E002C0CC0F10
:101E7000DD1F8A95E2F7C22BD32BDA685DCF8C2F5A
:101E80008F710E942A10C82FD0E0DC2FCC27CC27DE
:101E9000DF71D06251CF8C2F8F710E942A1055E0D4
:101EA000D695C7955A95E1F7CF70D0E0DC2FCC27B7
:101EB000282F30E084FF05C044E0220F331F4A95ED
:101EC000E1F7C22BD32BD06937CF8D2F8F710E94B2
:101ED0002A10182FCE0199270E94880FC12FD0E019
:101EE000DC2FCC27CC27DF71C82BD92BD2CF462FA4
:101EF000753030F4613120F4672F0E94900208950C
:101F000090E080E008950E94770F0E94590E089596
:101F100082389105B9F1B0F48133910509F47DC09F
:101F200048F48932910509F46DC08A32910509F4AB
:101F30007BC008958533910509F45FC0893391050D
:101F400009F10895833E9105D9F138F4803E910559
:101F500029F1823E910579F10895863E9105D9F1E6
:101F6000873E910509F43EC0843E910541F52091DC
:101F7000C10221FF24C08091C00284FD19C087EEF8
:101F800090E008952091C002237009F05AC020917A
:101F9000C10223FF14C089E290E008952091C0029D
:101FA00020FD38C03091C10230FF09C024FF43C07A
:101FB00090E080E008952091C00222FDF7CF0895BF
:101FC0002091C00222FD3AC03091C10230FD39C0DB
:101FD00024FFF5CFEDCF2091C00223FFF0CF24FDE9
:101FE000E7CFCDCF2091C00223FD2EC03091C1029A
:101FF00031FFEECF84EE90E008952091C00225FFDE
:10200000DECFC9CF2091C00225FD21C02091C102A1
:1020100023FFD5CF89E390E0D2CF2091C00226FFE5
:10202000CECF8AE290E008952091C00226FFC7CF6C
:1020300081E390E0089583EE90E0089582EE90E0D1
:10204000089580EE90E0089586EE90E0089585E38F
:1020500090E008959091C00292FF10C041E0282FB7
:102060002471243009F040E031E0282F2871283015
:1020700009F030E0431711F02CE0822793FF10C0E5
:1020800041E0282F2471243109F040E031E0282F6D
:102090002871283109F030E0431711F02CE0822735
:1020A0003091C10230FF10C051E0282F2171213042
:1020B00009F050E041E0282F2871283009F040E075
:1020C000541711F029E0822731FF10C041E0282F7A
:1020D0002171213109F040E031E0282F28712831A9
:1020E00009F030E0431711F029E0822794FD877E44
:1020F000089580E0089508950E947B100895089542
:102100000E947F10089594E0899FF0011124EA5203
:10211000FD4F60817181828193810895089580EAE5
:102120008A95F1F7089500C008950E948F100895D0
:10213000F894E82FE295EF70F0E031A1282F2F708E
:1021400081E090E001C0880F2A95EAF7982F9095DA
:10215000932391A392A1892B82A3789408950F933E
:102160001F93CF93DF93CFE9D1E089918F3F11F097
:102170000E94981081E0C43AD807B9F7CEE8D1E0C0
:102180000FE911E089918F3F11F00E9498100C1710
:102190001D07C1F7DF91CF911F910F9108958F9285
:1021A0009F92AF92BF92DF92EF92FF920F931F9395
:1021B000CF93DF938C01D62EC62FD0E0CE0181566F
:1021C0009E4F7C01FC0120812F3F09F45DC0F894F3
:1021D000E22FE295EF70F0E031A12F7081E090E006
:1021E00001C0880F2A95EAF7932F982B91A392A10B
:1021F0008095892382A378940E949310EEE8F1E001
:1022000041E050E060E070E0812C912C540181911C
:102210008F3F89F0A82FA295AF70B0E090962C91D7
:1022200030E08F7002C0359527958A95E2F7DB0183
:10223000CA0120FF03C080E090E0DC01882A992ACF
:10224000AA2ABB2A440F551F661F771F81E0EF396A
:10225000F807E9F6F70180818F3F11F00E9498108E
:1022600061E081149104A104B10409F460E08D2DB2
:102270000E949510CC0FDD1FCC0FDD1FC00FD11FAA
:1022800088829982AA82BB82DF91CF911F910F91A0
:10229000FF90EF90DF90BF90AF909F908F90089548
:1022A0000E94AF1084E1E6EDF2E0DF01982F1D926D
:1022B0009A95E9F7E2ECF2E0DF011D928A95E9F7E1
:1022C00085E00E94A1110E947C100895A4E1B0E075
:1022D000ECE6F1E10C94F3228E010F5F1F4F84E1D5
:1022E000F80111928A95E9F7F12C6F2DC8010E942F
:1022F000CF10F394F5E0FF12F8CF44E150E0B801BD
:1023000082EC92E00E94532321E0009709F420E040
:10231000892B41F084E1F801A2ECB2E001900D922A
:102320008A95E1F745E066ED72E082EC92E00E946A
:10233000A211182F0E948010812F6496E5E00C9462
:102340000F230895B0E0A0E0E8EAF1E10C94F02258
:102350006C017B01042FC22F222379F081E080934E
:1023600099020E94E01B909398028093970280E06C
:10237000CDB7DEB7E8E00C940C23D0919902DD23B1
:10238000B1F380919702909198020E94F81B0597F3
:1023900070F384E0089F80011124A801B601C701F1
:1023A0000E945323892B31F0A801B601C7010E9476
:1023B0006023CD2F109299028C2FDACF0E94C00D8E
:1023C00008950E94A41B0E94A31D0E947D0D0E94DF
:1023D000BD1D0E94B30D0E94CA1D0E94CF1D0E9408
:1023E000DE110E94D01D0E94900DF7CF9093AB019B
:1023F0008093AA010895EF92FF920F931F93CF93BA
:10240000DF93EB01E82FD1110EC0442321F0F0E05F
:10241000E050FE4FE4916E2F7E2F8E2FCDB7DEB7AA
:10242000E6E00C940E230D2F10E0282F30E044231B
:1024300029F020503E4FF901249130E0F6E0CF9F83
:10244000C0011124EFEFF0E0BF010E94B822AB0100
:102450008C2F90E0880F991FA5E5A49FB001A59F40
:10246000700D1124861B970B982F990F980FBF01A1
:10247000601B710B629FD001639FB00D729FB00D06
:1024800011248B2F9D9FB0011124672F7727EF0117
:10249000C61BD70BBE01629FE001639FD00D729FE8
:1024A000D00D11247F01E91AF108E09EB001E19EF0
:1024B000700DF09E700D1124672F7727E61BF70B28
:1024C000E29F8001E39F100DF29F100D1124E12F78
:1024D000722F4230510599F048F44115510569F0C9
:1024E0004130510581F0EB2F8D2F07C0443051054D
:1024F00069F080F046305105B1F76E2F8FCFE22F93
:102500007B2F812FFACFE22F7D2FF7CFEB2F822F5A
:10251000712FF3CF7B2F822FED2FEFCF41E00E9461
:10252000FB1108950E948E120895CF93DF93762FAA
:10253000E901682F842F0E949212798368838A832D
:10254000DF91CF9108958091EA02982F9C7F39F412
:102550008091EA02837084608093EA020895883053
:10256000B8F70895B0E0A0E0E8EBF2E10C94F022B7
:1025700088E090E00E9471236B017C0183E290E08F
:102580000E946923282F30E040E050E060E070E0D6
:1025900080E090E000E20E941D23B22FA32FF42FD1
:1025A000E52FD62FC72F97018601BC29A12BFE2925
:1025B0005E2F532B2B2F3A2F4F2F6D2F7C2FCDB704
:1025C000DEB7E8E00C940C23B0E0A0E0EAEEF2E124
:1025D0000C94EC2249015A016B017C010E94A31268
:1025E0008401A4016A2D7B2D88E090E00E949F2346
:1025F00094014A2D5B2DB601C70100E20E943823E9
:10260000622F83E290E00E948D23CDB7DEB7ECE02D
:102610000C940823EAEEF2E085E0808311828FEFCC
:10262000828383831482758125E030E04FEF5FEF72
:1026300060E0868197810E94E41208959091EE02F5
:10264000933018F49F5F9093EE02882391F02091CD
:10265000EA023091EB024091EC025091ED02609160
:10266000EE027091EF028091F0029091F1020E94CF
:10267000E412089581E00E941E1308959091EE02E5
:10268000992319F091509093EE02882391F02091B4
:10269000EA023091EB024091EC025091ED02609120
:1026A000EE027091EF028091F0029091F1020E948F
:1026B000E412089581E00E943E130895609105019F
:1026C0008091EA0280FF0FC070E08091040123E056
:1026D000829FC0011124E091A801F091A9018E50C0
:1026E0009D4F09950895809106019091070123E07F
:1026F000829FF0011124EE50FD4F891728F71182B7
:10270000108212828F5F3396F8CFEAEEF2E02081DA
:102710002E7F20833181428153816481758186813E
:1027200097810E94E4120E945E1308959091EA023C
:1027300090FF0EC0909106012091070133E0939F16
:10274000F0011124EE50FD4F921718F00E945E1315
:1027500008958183608342839F5F3396F5CFA3E022
:10276000B0E0E5EBF3E10C94F222F82E062F142FE3
:10277000E22E8091EA0280FF2DC0E82FE695E695D3
:10278000F0E0EC55FE4F908190939B028C7F84305B
:1027900059F49E012F5F3F4F8F2D0E9495124B8160
:1027A00069818A810E949613F092EB020093EC02F9
:1027B0001093ED02EE2071F02091EA026091EE029A
:1027C0007091EF023F2DA8018091F0029091F102EB
:1027D0000E94E4122396E6E00C940E23EAEEF2E067
:1027E0009181282F4381628188E0890F0E94AF1375
:1027F000089581E00E94EE130895EAEEF2E09181DF
:10280000282F4381628188EF890F0E94AF130895BA
:1028100081E00E94FD130895EAEEF2E0628121E179
:10282000620F08F46FEF282F438181810E94AF135C
:10283000089581E00E940C140895EAEEF2E06281AE
:1028400021E1621B08F460E0282F438181810E940E
:10285000AF13089581E00E941D140895EAEEF2E09E
:10286000438121E1420F08F44FEF282F62818181DB
:102870000E94AF13089581E00E942E140895EAEE9D
:10288000F2E0438121E1421B08F440E0282F6281FD
:1028900081810E94AF13089581E00E943F14089542
:1028A00020E00E94AF1308952091EA0220FF1EC08D
:1028B000237024602093EA02662381F03091EB02BA
:1028C0004091EC025091ED026091EE027091EF02A6
:1028D0008091F0029091F1020E94E4124091ED0289
:1028E0006091EC028091EB020E9450140895682FD1
:1028F00081E00E945414089581E00E9477140895A5
:10290000682F9091EA02969596958FEF890F09F4BA
:1029100081E00E945414089581E00E94801408957B
:1029200061E00E9454140895EAEEF2E08081816033
:102930008083869586950E94901408958091EA027E
:1029400080FF03C00E94851308950E949414089587
:1029500060E00E945414089580919A0281113AC057
:102960000E94B2122093EA023093EB024093EC02F1
:102970005093ED026093EE027093EF028093F002A9
:102980009093F1022C7FA1F40E940A130E94B212CC
:102990002093EA023093EB024093EC025093ED0255
:1029A0006093EE027093EF028093F0029093F10235
:1029B0000E94A312E091A601F091A70109958091D0
:1029C000EA0280FF04C0869586950E94A81481E0E3
:1029D00080939A02089508950895FA01811101C023
:1029E000FB01099508951F93CF93DF93EC01FB0141
:1029F0001581111110C00E94700B8272FE01E0520D
:102A0000F847E531F10508F043C0E153FC4D0C9463
:102A1000E0220E949E14812FDF91CF911F91089593
:102A20004CE854E16CE774E10E94ED14F4CF4CE7FC
:102A300054E16CE874E1F8CF48E054E169EF73E1E8
:102A4000F3CF49EF53E168E074E1EECF4AE254E19D
:102A500069E174E1E9CF49E154E16AE274E1E4CF6C
:102A60004CE454E16BE374E1DFCF4BE354E16CE4FD
:102A700074E1DACF4AE553E16AE373E1D5CF4AE383
:102A800053E16AE573E1D0CF81E00E949014C3CF97
:102A900011E0C1CF209A089545B14E7F55B15160E4
:102AA000EFB7F8949B01220F331F260F371F280F13
:102AB000391F2817390741F4EFBF8FE594E00197DC
:102AC000F1F700C000000895DC016D91CD0178E0C0
:102AD00055B9000000C067FF45B9660F000000C08F
:102AE00000C000C045B900C07A9591F7E2CF0E94BE
:102AF000920C089580E00E948310862F81700895C3
:102B00000E9466112FEF86E791E0215080409040AF
:102B1000E1F700C000000E9466110E947A15882328
:102B200021F00E9477150E942B1C08950E948015A9
:102B30000895CF93DF93EB0186319C4711F50E94F6
:102B4000700B9D81992399F08A7A91E009F490E0C5
:102B500090939D02811109C089E20E940B1B0E9483
:102B6000240C80E0DF91CF91089585E3F6CF80912A
:102B70009D02811104C089E20E94221BF0CF85E3EF
:102B8000FBCF81E0EFCFCF93DF93EC01FB01858199
:102B9000882309F4D2C09E0130572332310508F052
:102BA000B2C00E94AE0C9093C1028093C002FE019D
:102BB000E150F047E232F10520F4EC51FC4D0C9469
:102BC000E0228091C00281608093C00293C0809116
:102BD000C10288608093C1028DC08091C002826072
:102BE000F3CF8091C0028460EFCF8091C0028860F3
:102BF000EBCF8091C1028160EDCF8091C1028260F4
:102C0000E9CF8091C0028061DFCF8091C0028062F5
:102C1000DBCF8091C0028064D7CF0E94F406809100
:102C2000C0028068D1CF8091C0028C60CDCF8091EE
:102C3000C1028360CFCF8091C0028E7FC5CF8091CB
:102C4000C102877FC7CF8091C0028D7FBDCF8091A9
:102C5000C0028B7FB9CF8091C002877FB5CF8091B2
:102C6000C1028E7FB7CF8091C1028D7FB3CF80919B
:102C7000C0028F7EA9CF8091C0028F7DA5CF8091A9
:102C8000C0028F7BA1CF0E94F4068091C0028F7793
:102C90009BCF8091C002837F97CF8091C1028C7FB0
:102CA00099CF8091C00282FB992790F921E0922769
:102CB00090FB82F990FB83F987CF8091C102982F16
:102CC000909591708E7F892B90FB81F983CF9091A5
:102CD000C002892F8F7B96FF806476CF0E94F40616
:102CE0009091C002892F97FB87F980586DCF81E0C2
:102CF0000E94370D8091C0029091C1020E94B30CD6
:102D00000E94F40680E0DF91CF91089580E0F0CF3B
:102D10009091C002892F8F7E94FF806155CF909152
:102D2000C002892F8E7F90FF81604ECF9091C102AB
:102D3000892F877F93FF88604DCF81E0E4CF282FD4
:102D400035EB2303C001112497FF04C0805891097B
:102D5000892F089580589F4FFBCF8091A40280FF58
:102D60000DC060910E0170E0660F771F603871052D
:102D700070F56115710569F1862F089581FF07C00F
:102D800060910E0184E0689FB0011124EFCF609143
:102D90000E0182FD0AC08091A3028823A9F0209130
:102DA0000D0160910E01821710F088E0ECCF869F34
:102DB000C001112433E0880F991F3A95E1F7622F83
:102DC00070E00E94CC22D2CF68E070E0D5CF8FE7D0
:102DD000089581E008958091A40280FF0CC0609165
:102DE0000A0170E075956795759567956115710590
:102DF00049F1862F089581FF06C060910A0170E0B5
:102E000075956795F3CF60910A0182FD0BC0909193
:102E1000A2029923A1F06091090180910A019617FD
:102E200038F0682F70E06038710500F38FE708957F
:102E3000899FC001112470E00E94CC22F4CF61E090
:102E400070E0D7CF81E008959091A7022091A80269
:102E5000922B2091AA02922B2091A902922B31F061
:102E600098E09093A30291E09093A2028D3C31F4FC
:102E70000E94AD1681958093A80208958E3C19F4A6
:102E80000E94AD16F8CF8F3C31F40E94AD168195AB
:102E90008093A7020895803D19F40E94AD16F8CFE3
:102EA000893D29F40E94EB168093A90208958A3D7A
:102EB00021F40E94EB168195F7CF8B3D31F40E94EF
:102EC000EB1681958093AA0208958C3D19F40E9417
:102ED000EB16F8CF9FE2980F983070F4815D990B54
:102EE00021E030E001C0220F8A95EAF78091A60226
:102EF000822B8093A60208958D3D31F48091A40227
:102F000081608093A40208958E3D21F48091A402F3
:102F10008260F7CF8F3DB9F78091A4028460F1CF32
:102F20004091A7028D3C59F48091A80287FF0DC003
:102F30001092A80241110BC01092A30208C08E3C4F
:102F400081F48091A80218169CF3442381F08091AB
:102F5000A9029091AA02892B09F05AC01092A202EC
:102F600008958F3C49F447FFF0CF1092A70280915B
:102F7000A8028111ECCFE0CF803D19F41416ACF318
:102F8000E4CF9091A902893D29F41916F4F6109224
:102F9000A902DBCF8A3D19F497FFD7CFF8CF9091E4
:102FA000AA028B3D29F497FFD0CF1092AA02CDCF71
:102FB0008C3D19F41916CCF3C8CF9FE2980F9830C6
:102FC00090F4815D990B21E030E0B90102C0660FF9
:102FD000771F8A95E2F7CB0180959091A60289230D
:102FE0008093A602B2CF8D3D31F48091A4028E7FF2
:102FF0008093A402AACF8E3D21F48091A4028D7FFC
:10300000F7CF8F3D09F0A1CF8091A4028B7FF0CF45
:1030100008950E94E01B9C019091A7028091A80254
:10302000982B21F03093A1022093A0029091A90245
:103030008091AA02982B21F030939F0220939E0248
:1030400085EA92E00E94081A089586E0E5EAF2E037
:10305000DF011D928A95E9F71092A3021092A20255
:103060001092A4020895FC01828181110EC0838117
:1030700081110BC08481811108C091E0858181118B
:1030800001C090E0892F8170089581E0FCCFA6E017
:10309000B0E0EDE4F8E10C94F52286E0E5EAF2E038
:1030A000DE01119601900D928A95E1F71092A70228
:1030B0001092A8021092A9021092AA028B819C8100
:1030C000892B89F08091A0029091A1020E94F81BA7
:1030D000AC019091A3029923C9F180910F0184174B
:1030E000150608F440C08D819E81892B91F0809156
:1030F0009E0290919F020E94F81BAC019091A20247
:10310000992309F46AC080910B018417150608F40D
:1031100072C0BE016F5F7F4F85EA92E00E94531B31
:10312000811105C085EA92E00E94331881110E9446
:10313000091886E0FE013196A5EAB2E001900D92F1
:103140008A95E1F72696E3E00C9411232091100173
:103150008AE0289F900111242417350720F69F5FED
:103160009093A30202C09F3FD1F71B81112359F016
:103170000E94AD169FEF11160CF491E0899F802DEF
:1031800011248093A7021C81112359F00E94AD16CF
:103190009FEF11160CF491E0899F802D11248093EC
:1031A000A8028091A702882309F49DCF1091A8025C
:1031B000112309F498CF0E949F16882351F0809321
:1031C000A702812F0E949F16882329F08093A802CE
:1031D0008ACF81E0F4CF81E0F9CF20910C018AE021
:1031E000289F900111242417350708F092CF9F5F84
:1031F0009093A20202C09F3FD1F71D81112359F085
:103200000E94EB169FEF11160CF491E0899F802D20
:1032100011248093A9021E81112359F00E94EB16FC
:103220009FEF11160CF491E0899F802D112480935B
:10323000AA028091A902882309F46BCF1091AA02F7
:10324000112309F466CF0E949F16882351F08093C2
:10325000A902812F0E949F16882329F08093AA0239
:1032600058CF81E0F4CF81E0F9CF0F931F93CF9334
:10327000DF93C42FD22FFC0185818823C9F04093AE
:10328000AD020E94E01B9093AC028093AB0280E2FF
:103290008C0F883040F4C77081E001C0880FCA9558
:1032A000EAF70E94A104DF91CF911F910F91089539
:1032B0001091AD02141332C08091AB029091AC0218
:1032C0000E94F81B883C910548F5C0E2CD0F1D1700
:1032D000B9F080E2810F883040F4177081E001C0BE
:1032E000880F1A95EAF70E94A804C83048F481E0D4
:1032F0009D2F977001C0880F9A95EAF70E94A1044C
:10330000802F0E949804C83070F6D77081E001C009
:10331000880FDA95EAF70E94A804C5CF80E28C0FE7
:10332000883008F6C77081E001C0880FCA95EAF7B7
:10333000F2CF0F93DB0188519C4787309105A0F5B0
:10334000FC01EA5FFB4D0C94E02206E221EE41EE27
:103350006AE17CE7CD010E94351980E00F91089564
:1033600007E225EE45EE6BE17CE7F4CF06E221EEC5
:1033700040EE68E17CE7EECF07E225EE44EE69E13E
:103380007CE7E8CF06E221EE42EE6CE17CE7E2CF9B
:1033900007E225EE46EE6DE17CE7DCCF08E221E0B6
:1033A00045EE6EE17CE7D6CF15968C91882319F017
:1033B0001092AD02D3CF81E0D1CF9093B30280932E
:1033C000B2020895E091B202F091B302309729F071
:1033D0000190F081E02D0995089580E00895E09135
:1033E000B202F091B302309721F00280F381E02D18
:1033F00009950895E091B202F091B302309739F047
:1034000026E0DC012C930480F581E02D09950895D8
:10341000E091B202F091B302309739F022E0DC0182
:103420002C930680F781E02D09950895A3E0B0E084
:10343000ECE1FAE10C94F6222091B0023091B10255
:1034400028173907A1F09093B1028093B002E09160
:10345000B202F091B302309751F023E029839B83AD
:103460008A830084F185E02DCE010196099523968B
:10347000E2E00C941223A3E0B0E0E1E4FAE10C9462
:10348000F6222091AE023091AF0228173907A1F041
:103490009093AF028093AE02E091B202F091B3023A
:1034A000309751F024E029839B838A830084F1853F
:1034B000E02DCE01019609952396E2E00C941223AB
:1034C00020910201309103012E5F3F4F80911B013B
:1034D000882379F08091C00287FF0BC02091000102
:1034E000309101012E5F3F4F9EE180E0915018F432
:1034F000089596E0FACFF90141919F014423B1F379
:103500008F5FF4CF882321F190911B01992311F152
:103510009091C00297FF1EC0E82FE695E695E695CC
:10352000EE31B0F42091000130910101E20FF32F50
:10353000F11D228130E0877041E050E002C0440F6D
:10354000551F8A95E2F72423352381E0232B91F43C
:1035500080E008952091020130910301F901329633
:10356000285F3F4F9191981721F0E217F307D1F7A9
:10357000EFCF81E008959C01FC0132969FEF80E03F
:103580004191461751F09F3F19F4411101C0982F06
:103590008F5F8630A9F79F3F09F40895290F311DE9
:1035A00097FD3A95F90162830895FC0132960896D9
:1035B0002191261303C0DF0111971C92E817F90728
:1035C000B9F70895E62FE695E695E695EE3168F4AD
:1035D000E80FF92FF11D677021E030E001C0220FE4
:1035E0006A95EAF78281822B82830895E62FE69519
:1035F000E695E695EE3170F4E80FF92FF11D67704E
:1036000021E030E001C0220F6A95EAF7209582811F
:10361000282322830895682F80911B01882359F065
:103620008091C00287FF07C0809100019091010145
:103630000E94E21A089580910201909103010E9474
:10364000BB1A0895682F80911B01882359F080913F
:10365000C00287FF07C080910001909101010E9484
:10366000F61A089580910201909103010E94D51AE3
:10367000089580911B01882379F08091C00287FF13
:103680000BC0E0910001F091010132968EE1DF0163
:103690001D928A95E9F70895E0910201F0910301E6
:1036A000329686E0F4CFDC01FB0111969C911197D4
:1036B0008181981322C012968C911297882319F059
:1036C000928189131AC013968C911397882319F04D
:1036D0009381891312C015968C911597882319F040
:1036E000958189130AC014969C91992321F081E059
:1036F0002481291303C080E001C081E08170089516
:1037000008950E94801B0895811106C081E0809376
:10371000B4020E94811B089582E0F9CF83E0809378
:10372000B4020E94811B08950E94841B089581E0C9
:103730008093B4020E94811B08950E94971B0895F4
:1037400008950E94A01B089585B7806885BF85B73E
:10375000806885BF08951F921FB61F9211248F9312
:103760009F93AF93BF938091B502811113C0809155
:10377000010390910203A0910303B09104034196C9
:10378000A11DB11D8093010390930203A093030335
:10379000B0930403BF91AF919F918F911F901FBE73
:1037A0001F9018950E94F4060E947A03089582E003
:1037B00084BD93E095BD9AEF97BD80936E00089508
:1037C0002FB7F8948091010390910203A091030315
:1037D000B09104032FBF08952FB7F89460910103AF
:1037E0007091020380910303909104032FBF089509
:1037F0009C014FB7F8948091010390910203A0912E
:103800000303B09104034FBF821B930B0895789478
:103810001F921FB61F9211248F939F93AF93BF9354
:103820008091010390910203A0910303B0910403DE
:103830000196A11DB11D8093010390930203A093F3
:103840000303B0930403BF91AF919F918F911F9099
:103850001FBE1F90189581E08093E00080E2809366
:10386000D8001092C9008FE19EE40197F1F700C0E3
:10387000000087E090EBDC01809312039093130328
:10388000A0931403B093150388E19CE00FB6F8945D
:10389000A895809360000FBE90936000FFCF88E1F1
:1038A0009CE00FB6F894A895809360000FBE9093AB
:1038B0006000FFCF8091BE0208959B01BA019091F4
:1038C00009039430E9F48F708093E9009FEF8091B1
:1038D000E800915085FD06C085ED8A95F1F700005E
:1038E0009111F5CF8091E80085FF0AC050E040E0DB
:1038F000C9010E94311E8091E8008E778093E80014
:10390000089543E050E0BC0182E00E945D1C0895F0
:1039100046E050E0BC0182E00E945D1C089540E258
:1039200050E0BC0182E00E945D1C0895CF93DF93BC
:10393000EC0148E050E0BC0181E00E945D1C88E0A1
:10394000FE01A6EBB2E001900D928A95E1F7DF91BE
:10395000CF91089580910803811109C00E94C11F71
:103960000E941E208091E20084608093E20008950E
:103970001092080308950E94971B08956091050313
:1039800081E0611101C080E00E948E1B08950E94B9
:10399000D21B9091090381E0943009F080E060919E
:1039A00005030E94941B089542E061EC81E00E94AF
:1039B0003D1F42E261EC82E00E943D1F90910903AD
:1039C00081E0943009F080E0609105030E94841B3F
:1039D000089580910B03833009F461C030F4813085
:1039E000D1F1823009F49EC008958A3009F48AC06A
:1039F0008B3009F46FC0893009F050C080910A0300
:103A0000813209F04BC080910E0390910F03029711
:103A100008F044C08091E800877F8093E80080919F
:103A2000E80082FF37C09091F3008091F200029786
:103A300031F48091F100813011F0863021F48091D1
:103A4000F1008093BE028091E8008B778093E800BC
:103A50000E94711F23C080910A03813AF9F480917A
:103A6000E800877F8093E80080910E0390910F0318
:103A7000892B61F468E086EB92E070E00E94801E82
:103A80008091E8008B778093E800089560E090E0F3
:103A900080E0F3CF809109038111C1CF0895809117
:103AA0000A03813AD9F780910E0390910F03892B75
:103AB000A9F78091E800877F8093E8008091E80073
:103AC00080FFFCCF80911B018093F1008091E80082
:103AD0008E77BCCF80910A03813201F780910E036B
:103AE00090910F03892BD1F68091E800877F809316
:103AF000E8000E94711F80910C0380931B010E94BB
:103B0000F406089580910A03813241F68091E8001D
:103B1000877F8093E8000E94711F80910D0380933E
:103B2000BF02089580910A03813A09F0B7CF8091CE
:103B3000E800877F8093E8008091E80080FFFCCF59
:103B40008091BF02C1CF84B7877F84BF0FB6F8943E
:103B5000A895809160008861809360001092600059
:103B60000FBE80E890E00FB6F894809361009093C8
:103B700061000FBE0E949D1B08950E94C11F0E94FC
:103B80001E20E2EEF0E080818460808378940E94C1
:103B90009D22089581E191E00E94DD190895089524
:103BA00008959A0140911003509111030E94D91D6C
:103BB0000895492F55274330510519F168F44130D4
:103BC000510509F444C04230510509F445C090E064
:103BD00080E050E040E025C04132510549F14232D9
:103BE0005105A9F784E490E04FE254E061157105B6
:103BF000C1F086EB90E049E753E06130710589F050
:103C0000E6CF99278130910581F0009729F002973E
:103C1000F1F6E0E0F3E002C0E8E2F3E0849190E046
:103C2000AF01F901518340830895ECE0F3E0F6CF52
:103C300089E090E04EE353E06115710591F389E06E
:103C400090E047E553E06130710559F3C0CF82E160
:103C500090E047E653E0E5CF8BE390E04CE253E0A1
:103C6000E0CFAF92BF92CF92DF92FF920F931F935C
:103C7000CF93DF936C01EB018A010E94901FF82E15
:103C8000811123C00115110539F0F801808191815E
:103C9000C81BD90BC80ED91EB12CA12C2097A9F096
:103CA0008091E80085FD22C08091E8008E778093A6
:103CB000E80001151105A1F0F80180819181A80E9D
:103CC000B91EB182A08285E0F82E8F2DDF91CF91B1
:103CD0001F910F91FF90DF90CF90BF90AF9008950C
:103CE0000E94901F8823D1F2F82EEFCFF601819128
:103CF0006F018093F1002197FFEFAF1ABF0ACECF7B
:103D0000FC01809110039091110386179707A0F092
:103D10006115710529F49091E8009E779093E80071
:103D200090E06115710551F4911108C08091E8008F
:103D300082FF34C080E00895BC01F2CF8091090376
:103D40008823C1F18530C1F18091E80083FD30C046
:103D50008091E80082FDEACF8091E80080FFE1CF0A
:103D60008091F3002091F200382F6115710519F050
:103D70002830310558F091E02830310509F090E005
:103D80002091E8002E772093E800CBCF819180939B
:103D9000F100615071092F5F3F4FE7CF8091090318
:103DA000882341F0853041F08091E80083FFBECF49
:103DB00081E0089582E0089583E00895FC018091F8
:103DC00010039091110386179707A0F061157105F4
:103DD00029F48091E8008E778093E80090E06115E7
:103DE000710551F4911108C08091E80082FF35C03F
:103DF00080E00895BC01F2CF809109038823C9F1C6
:103E00008530C9F18091E80083FD31C08091E800E0
:103E100082FDEACF8091E80080FFE1CF8091F3003E
:103E20002091F200382F6115710519F02830310505
:103E300058F091E02830310509F090E08091E800D9
:103E40008E778093E800CBCF84918093F1003196F8
:103E5000615071092F5F3F4FE6CF8091090388239E
:103E600041F0853041F08091E80083FFBDCF81E0D3
:103E7000089582E0089583E00895982F973028F000
:103E80008F708093E90081E008959093E900242FDA
:103E9000762F50E0981731F07091EC002091ED00F2
:103EA0005091F00021FD02C09F5FE8CF3091EB0000
:103EB0003E7F3093EB003091ED003D7F3093ED007D
:103EC0003091EB0031603093EB007093EC00209365
:103ED000ED005093F0002091EE0027FDE5CF80E04B
:103EE000089580910A0387FF13C08091E80082FF44
:103EF00006C08091E8008B778093E80004C0809131
:103F000009038111F2CF0895809109038823D9F321
:103F10008091E80080FFF8CF8091E8008E77ECCFA9
:103F20002091E4003091E50095E6A9012091EC0094
:103F3000822F817020FF06C08091E80080FF06C0BC
:103F400080E008952091E80022FD1AC080910903C5
:103F5000882389F0853089F08091EB0085FD0FC0C2
:103F60002091E4003091E50042175307F9F2915097
:103F7000E1F684E0089582E0089583E0089581E009
:103F800008950E9430200E943820E0EEF0E0808109
:103F900081608083E8EDF0E080818F77808319BCB9
:103FA000A7EDB0E08C918E7F8C9380818F7E808393
:103FB0001092080308950F931F93CF93DF930E94ED
:103FC00030200E943820C8EDD0E088818F77888328
:103FD00088818068888388818F7D888319BC10924E
:103FE000090310920503109207031092060300EED6
:103FF00010E0F80180818B7F8083888181608883D5
:1040000042E060E080E00E943D1FE1EEF0E0808150
:104010008E7F8083E2EEF0E080818160808380810A
:1040200088608083F80180818E7F808388818061B1
:104030008883DF91CF911F910F910895E8EDF0E013
:1040400080818F7E8083E7EDF0E0808181608083D6
:1040500084E082BF81E0809308030E94DB1F089503
:10406000E8EDF0E080818E7F80831092E200089579
:104070001092DA001092E10008951F920F920FB68D
:104080000F9211242F933F934F935F936F937F93DE
:104090008F939F93AF93BF93EF93FF938091E10032
:1040A00082FF0BC08091E20082FF07C08091E10097
:1040B0008B7F8093E1000E949C228091DA0080FF38
:1040C00019C08091D80080FF15C08091DA008E7FE2
:1040D0008093DA008091D90080FF96C080E189BD8D
:1040E00082E189BD09B400FEFDCF81E08093090320
:1040F0000E94AA1C8091E10080FF19C08091E2001B
:1041000080FF15C08091E2008E7F8093E200809155
:10411000E20080618093E2008091D8008062809309
:10412000D80019BC85E0809309030E94BE1C8091D1
:10413000E10084FF2BC08091E20084FF27C080E172
:1041400089BD82E189BD89B5982F917080FFFBCF31
:104150008091D8008F7D8093D8008091E1008F7E80
:104160008093E1008091E2008F7E8093E200809155
:10417000E20081608093E20080910503882309F4C6
:1041800049C084E0809309030E94C71C8091E1002C
:1041900083FF29C08091E20083FF25C08091E10068
:1041A000877F8093E10082E08093090310920503EA
:1041B0008091E1008E7F8093E1008091E2008E7F0C
:1041C0008093E2008091E20080618093E20042E00F
:1041D00060E080E00E943D1F8091F0008860809345
:1041E000F0000E94BB1CFF91EF91BF91AF919F9196
:1041F0008F917F916F915F914F913F912F910F9090
:104200000FBE0F901F90189519BC109209030E94C1
:10421000B81C70CF8091E30087FD93E09093090371
:10422000B3CF1F920F920FB60F9211242F933F938B
:104230004F935F936F937F938F939F93AF93BF93AE
:10424000CF93DF93EF93FF93D091E900DF708091DC
:10425000EC00C82FC17080FDC0E81092E900809189
:10426000F000877F8093F00078940E94552110928F
:10427000E9008091F00088608093F000CD2BCF7032
:10428000C093E900FF91EF91DF91CF91BF91AF9182
:104290009F918F917F916F915F914F913F912F915E
:1042A0000F900FBE0F901F901895AAE2B0E0EBE5BB
:1042B000F1E20C94F5228AE093E02091F100FC01F8
:1042C0002193CF01F3E082319F07B9F70E94E91CE7
:1042D0008091E80083FF1EC180910A0390910B0337
:1042E0009A3008F017C1E92FF0E0E35FFB4D0C9422
:1042F000E022803899F0823809F00CC180910E03D9
:104300008F70873008F006C18093E9008091EB0040
:1043100085FB882780F91092E90006C0809106038A
:1043200090910703911182609091E800977F90939C
:10433000E8008093F1001092F1008091E8008E7700
:10434000E5C0882309F4D3C0823009F0E3C080912E
:104350000C038111D6C080910E038F702FEF280FB0
:10436000263008F0D7C08093E9002091EB0020FFB1
:10437000C8C0933031F48091EB0080628093EB00F1
:10438000C0C09091EB0090619093EB0021E030E091
:1043900001C0220F8A95EAF72093EA001092EA0002
:1043A0008091EB008860EACF8111B4C010910C03BA
:1043B0001F778091E3008078812B8093E3008091C8
:1043C000E800877F8093E8000E94711F8091E800D9
:1043D00080FFFCCF8091E30080688093E30082E05F
:1043E000111183E08093090395C08058823008F052
:1043F00091C080910C0390910D038C3D23E09207B6
:10440000A1F583E08A838AE289834FB7F894DE01BD
:10441000139620E03EE051E2E32FF0E05093570086
:10442000E49120FF03C0E295EF703F5FEF708E2FA5
:1044300090E0EA30C0F0C7968D939D932F5F2431B2
:1044400059F74FBF8091E800877F8093E8006AE2C8
:1044500070E0CE0101960E94801E8091E8008B776B
:104460008093E80057C0C096E7CF60910E0370912B
:104470000F03AE014F5F5F4F0E94D11DBC01892B1E
:1044800009F448C09091E800977F9093E8008981F3
:104490009A810E94DE1EE1CF8038E1F58091E8002C
:1044A000877F8093E800809105038093F10045CFDA
:1044B000811130C090910C03923060F58091E8003A
:1044C000877F8093E800909305030E94711F80917D
:1044D0000503882311F084E005C08091E30087FD87
:1044E000FACF81E0809309030E94D41C13C080910D
:1044F0000C03813079F481E0933009F080E08093FF
:1045000007031092E9008091E800877F8093E8001C
:104510000E94711F8091E80083FF0AC08091E8002B
:10452000877F8093E8008091EB0080628093EB00AE
:10453000AA96E3E00C9411230895CF938091090388
:104540008823A1F0C091E900CF709091EC00892FF1
:10455000817090FD80E8C82B1092E9008091E800FE
:1045600083FD0E945521CF70C093E900CF9108953B
:10457000AA1BBB1B51E107C0AA1FBB1FA617B70789
:1045800010F0A61BB70B881F991F5A95A9F78095A5
:104590009095BC01CD01089597FB072E16F4009469
:1045A00007D077FD09D00E94B82207FC05D03EF461
:1045B000909581959F4F0895709561957F4F0895CF
:1045C000EE0FFF1F0590F491E02D09942F923F927A
:1045D0004F925F926F927F928F929F92AF92BF9213
:1045E000CF92DF92EF92FF920F931F93CF93DF93BF
:1045F000CDB7DEB7CA1BDB0B0FB6F894DEBF0FBE1C
:10460000CDBF09942A88398848885F846E847D8468
:104610008C849B84AA84B984C884DF80EE80FD806A
:104620000C811B81AA81B981CE0FD11D0FB6F894E0
:10463000DEBF0FBECDBFED010895002E083090F013
:10464000982F872F762F652F542F432F322F222715
:104650000850F4CF220F331F441F551F661F771FCA
:10466000881F991F0A95B2F7002D089597FD1094A1
:10467000002E083098F00850232F342F452F562F46
:10468000672F782F892F912DF4CF159497958795C3
:104690007795679557954795379527950A95AAF782
:1046A0001124002D0895FB01DC0104C08D910190BF
:1046B000801921F441505040C8F7881B990B089588
:1046C000FB01DC0102C001900D9241505040D8F72F
:1046D0000895F999FECF92BD81BDF89A992780B5CA
:1046E0000895A6E1B0E044E050E00C94B323A8E1C3
:1046F000B0E042E050E00C94B323DC01A40FB51FFE
:104700004150504048F0CB01840F951F2E910E94DC
:104710008E2341505040D0F70895262FF999FECFAF
:1047200092BD81BDF89A019700B4021639F01FBA04
:1047300020BD0FB6F894FA9AF99A0FBE0895039621
:10474000272F0E948E230E948D23252F0E948E23C7
:10475000242F0C948E230196272F0E948E230C94D5
:104760008D23DC01CB01FC01F999FECF06C0F2BD1F
:10477000E1BDF89A319600B40D9241505040B8F71F
:104780000895F894FFCFF004F00440054005A50516
:10479000C1051F051F05C60537064606460609154D
:1047A000101517151C15211526152B153015351547
:1047B0003A153F1544150B150B150B150B150B155D
:1047C0000B150B150B150B151B168F162316ED1558
:1047D000F1152716F5152B1637160116881605162E
:1047E0003B1609163F1667160D1643166E1613165E
:1047F00049165116F9152F16FD15331617164D16B5
:104800005D1677168616E7151F169616B619BC198B
:10481000A519B019C219C819CE197921A1218A2266
:0E482000A1218A22D421F5218A224C2258227D
:10482E004E026E020005000505280850011E0A14EE
:10483E00015A1C961C8F1C881C811C01E200E90089
:10484E00EA00B500B600B700CD008301CC008A01A6
:10485E00920194012102230224022502260227023C
:10486E002A02B300B4006F0070009F01CB019F02BB
:10487E00A002818283E200E900EA00B500B600B72B
:10488E0000CD008301CC008A019201940121022304
:10489E000224022502260227022A02B300B4006F68
:1048AE000070009F01CB019F02A002818283676688
:1048BE0036353497969495939237333231F6F7F026
:0A48CE00C6F5F4F100014A154C157F
:00000001FF
